:100000000C9407070C9437340C940C340C94E133A3
:100010000C94B6330C948B330C9460330C943533BE
:100020000C940A330C9422350C9438070C9438073E
:100030000C9438070C9462340C9438070C943807ED
:100040000C9438070C9438070C9438070C94380734
:100050000C9438070C9438070C9438070C94C03271
:100060000C9438070C94EC340C94C2340C9438077C
:100070000C9438070C9438070C9438070C94380704
:100080000C9438070C9438070C9438070C943807F4
:100090000C9438070C9438070C9438070C943807E4
:1000A0000C9438070C9438070C9438070C943807D4
:1000B0000C9438070C9438070C9438070C943807C4
:1000C0000C9438070C9438070C9438070C943807B4
:1000D0000C9438070C9438070C9438070C943807A4
:1000E0000C9438070C948F080C94BD320C94BC0807
:1000F0000C94B6080C944F1E0C94181E0C94FC1E05
:100100000C94AE080C94A8080C9489080C94190E51
:100110000C94D30D0C949B080C94281E0C94CB1DAE
:100120000C94B6320C94BF0D0C94C0080C94A91F0B
:100130000C94830D0C94CB090C944C1E0C943E1F14
:100140000C94BA320C94C9080C94B2080C94531E47
:100150000C94451F0C94B51D0C949B1D0C94970892
:100160000C94D4350C94C4080C94A91D0C94E41B75
:100170000C949E080C94E10D0C94411F0C94810E7C
:100180000C94CE080C94C81D0C942D1E0C94B00D2C
:100190000C94481E0C94C61D0C94291F0C94371EF9
:1001A0000C94CA080C9493080C940B1F0C94F3093C
:1001B0000C94A4080C94181F0C94CF1D0C942C1FA5
:1001C000546F6F44656570004E6F4D656D6F727949
:1001D00000496E76616C6964496E70757400496E91
:1001E000636F6D706C657465496E70757400456DF4
:1001F000707479496E707574004F6B00CDCCCC3D36
:100200000AD7233C17B7D13877CC2B329595E62403
:100210001FB14F0A000020410000C84200401C46A8
:1002200020BCBE4CCA1B0E5AAEC59D74227D007BFD
:10023000226C6576656C223A22303031222C2264A1
:100240006576696365223A22434F4E54524F4C4CB7
:100250004552222C2264657363223A225052207444
:1002600068726573686F6C64206361707065642088
:10027000617420007B226C6576656C223A223030F6
:1002800030222C22646576696365223A22534C4DF4
:10029000222C22706172616D223A2274696D65733D
:1002A00074616D705F70696E222C2276616C756569
:1002B000223A007B226C6576656C223A2230303718
:1002C000222C22646576696365223A22434F4E549C
:1002D000524F4C4C4552222C226576656E74223A60
:1002E00022454E44222C2274696D657374616D70D1
:1002F000223A004C48005248004C455645525F4C4B
:1003000048004C455645525F524800534C4D004DF5
:100310004943524F53434F5045004C49434B004CC7
:10032000415345520050554D50320050554D5000EC
:10033000435545320043554500227D002C22616320
:10034000746976655F6C65766572223A22007B225D
:100350006C6576656C223A22303030222C2264653E
:1003600076696365223A22434F4E54524F4C4C45B6
:1003700052222C22706172616469676D223A2246B2
:10038000495845445F524154494F222C2274696DAB
:10039000656F7574223A007B226C6576656C223A33
:1003A00022303037222C22646576696365223A2236
:1003B000434F4E54524F4C4C4552222C2265766589
:1003C0006E74223A225354415254222C2274696D85
:1003D000657374616D70223A307D007B226C6576A6
:1003E000656C223A22303030222C226465766963B3
:1003F00065223A224D4943524F53434F5045222CD8
:1004000022706172616D223A227472696767657247
:100410005F70696E222C2276616C7565223A004607
:10042000495245440074657374004D4943524F531B
:10043000434F504500494E444550454E44454E5467
:10044000006D6F6465004C4153455200434F4E545C
:10045000494E47454E54006D6F6465004C4153450D
:1004600052006475726174696F6E004C415345525D
:10047000006672657175656E6379004C4153455233
:100480000046495245440074657374004C4153451D
:100490005200464952454400746573740050554DEE
:1004A0005032006475726174696F6E0050554D5022
:1004B0003200464952454400746573740050554DEE
:1004C00050006475726174696F6E0050554D500034
:1004D00046495245440074657374004355453200E3
:1004E0006475726174696F6E0043554532006672BF
:1004F000657175656E637900435545320046495212
:100500004544007465737400435545006475726119
:1005100074696F6E00435545006672657175656E4E
:1005200063790043554500F901EE01DE01D101C8B0
:1005300001C0017B226C6576656C223A2230303630
:10054000222C2264657363223A22436F6D6D616EC3
:1005500064206E6F7420666F756E64227D00647512
:10056000726174696F6E00534C4D006672657175EF
:10057000656E637900534C4D006C657665725F66FD
:10058000696C74657200434F4E54524F4C4C455247
:100590000073657373696F6E5F7061757365640076
:1005A000434F4E54524F4C4C455200746573745F28
:1005B0006D6F646500434F4E54524F4C4C45520092
:1005C000464952454400746573745F636861696E9F
:1005D00000434F4E54524F4C4C45520050554D50D5
:1005E0000050554D5032006163746976655F7075D7
:1005F0006D7000434F4E54524F4C4C455200726147
:1006000074696F00434F4E54524F4C4C4552007228
:1006100065696E666F72636564004C455645525F4E
:100620004C48007265696E666F72636564004C4584
:100630005645525F4C4800726174696F004C4556D4
:1006400045525F4C480074696D656F7574004C4588
:100650005645525F4C48007265696E666F726365FD
:1006600064004C455645525F5248007265696E669B
:100670006F72636564004C455645525F5248007284
:100680006174696F004C455645525F524800746969
:100690006D656F7574004C455645525F5248002297
:1006A0007D007B226C6576656C223A2230303622E2
:1006B0002C2264657363223A220044495341524D0F
:1006C00045440041524D454400227D002C22646582
:1006D0007363223A2200222C2270696E223A007B38
:1006E000226C6576656C223A22303031222C2264ED
:1006F0006576696365223A2200222C22706172615C
:100700006D223A2270696E222C2276616C75652208
:100710003A007B226C6576656C223A2230303022BA
:100720002C22646576696365223A2200222C2276A7
:10073000616C7565223A00222C22706172616D2213
:100740003A22007B226C6576656C223A223030308A
:10075000222C22646576696365223A220066616C08
:100760007365007472756500222C2276616C756564
:10077000223A00222C22706172616D223A22007BA3
:10078000226C6576656C223A22303030222C22644D
:100790006576696365223A2200227D00222C22764A
:1007A000616C7565223A2200222C22706172616DA3
:1007B000223A22007B226C6576656C223A22303028
:1007C00030222C22646576696365223A220044490E
:1007D0005341524D45440041524D454400227D0055
:1007E0002C2264657363223A22007B226C65766555
:1007F0006C223A22303031222C226465766963659E
:10080000223A224D4943524F53434F5045222C2206
:1008100070696E223A0066616C736500747275656A
:10082000002C226475726174696F6E223A002C226A
:100830006672657175656E6379223A00222C2261B9
:10084000726D6564223A007B226C6576656C223A93
:1008500022303030222C22646576696365223A2288
:100860000066616C73650074727565002C22647596
:10087000726174696F6E223A00222C2261726D657A
:1008800064223A007B226C6576656C223A22303015
:1008900030222C22646576696365223A2200666103
:1008A0006C7365007472756500222C2261726D652F
:1008B00064223A007B226C6576656C223A223030E5
:1008C00030222C22646576696365223A22006661D3
:1008D0006C736500747275650066616C7365007495
:1008E000727565002C227265696E666F726365644D
:1008F000223A00222C2261726D6564223A007B222A
:100900006C6576656C223A22303030222C22646588
:1009100076696365223A2200027B226C6576656CFB
:10092000223A22303030222C2264657669636522B7
:100930003A22434F4E54524F4C4C4552222C227374
:100940006B65746368223A2266722E696E6F222C80
:100950002276657273696F6E223A2276332E302EBC
:1009600032222C22626175645F72617465223A31B1
:1009700031353230302C227363686564756C6522C2
:100980003A2246495845445F524154494F227D001E
:100990002C22656E645F74696D657374616D70227D
:1009A0003A002C226576656E74223A224C49434BFC
:1009B000222C2273746172745F74696D6573746143
:1009C0006D70223A00222C2270696E223A007B223E
:1009D0006C6576656C223A22303037222C226465B1
:1009E00076696365223A22002C22656E645F746921
:1009F0006D657374616D70223A002C226576656EA8
:100A000074223A225354494D222C22737461727419
:100A10005F74696D657374616D70223A007B226C3E
:100A20006576656C223A22303037222C2264657656
:100A3000696365223A224C41534552222C22706947
:100A40006E223A002C226D6973736564223A002C81
:100A5000226576656E74223A2254494D45535441BD
:100A60004D50222C2274696D657374616D70223A49
:100A7000007B226C6576656C223A22303038222C5D
:100A800022646576696365223A224D4943524F5389
:100A9000434F5045222C2270696E223A002C226569
:100AA00076656E74223A2254494D455354414D5057
:100AB000222C2274696D657374616D70223A007B1B
:100AC000226C6576656C223A22303039222C226401
:100AD0006576696365223A22534C4D222C22706957
:100AE0006E223A0000002100240027002A002D0079
:100AF0003000330001010000040107010A01000079
:100B00002200250028002B002E00310034000201B5
:100B10000000050108010B01000020002300260051
:100B200029002C002F003200000100000301060103
:100B30000901050505050705080808080202020263
:100B40000A0A080804040404010101010101010169
:100B50000303030303030303040707070C0C0C0C34
:100B60000C0C0C0C0202020206060606060606061D
:100B70000B0B0B0B0B0B0B0B0102102020080810AA
:100B800020401020408002010201080402010102FD
:100B900004081020408080402010080402018004D6
:100BA0000201804020100804020108040201010231
:100BB000040810204080010204081020408000003A
:100BC0000A0B02090C0D0E080703040100000000C7
:100BD0000000000000000000000000000000000015
:100BE00000000000000000000000121110000000D2
:100BF00000000000000000000000000000000000F5
:100C00000000000044495341524D45440041524DBB
:100C1000454400227D002C2264657363223A220041
:100C20007B226C6576656C223A22303031222C2290
:100C3000646576696365223A22534C4D222C2270FA
:100C4000696E223A004C455645525F4C48004C456F
:100C50005645525F524800227D002C226F72696512
:100C60006E746174696F6E223A22002C22656E6484
:100C70005F74696D657374616D70223A00222C2275
:100C800073746172745F74696D657374616D7022E1
:100C90003A002C226576656E74223A2250524553F2
:100CA00053222C22636C617373223A2200222C227D
:100CB00070696E223A007B226C6576656C223A225E
:100CC000303037222C22646576696365223A22002F
:100CD00054494D454F555400494E4143544956459A
:100CE00000414354495645002C227363686564757E
:100CF0006C65645F6174223A002C227461726765CE
:100D000074223A007B226C6576656C223A22303080
:100D100036222C226572726F725F636F6465223AAD
:100D200022455F50454E44494E475F46554C4C2244
:100D30002C2264657363223A2250656E64696E6783
:100D400020616374696F6E207175657565206675C5
:100D50006C6C20E2809420616374696F6E20647211
:100D60006F70706564222C22616374696F6E5F74AA
:100D7000797065223A005354494D00494E46555307
:100D8000494F4E00494E465553494F4E00544F4E21
:100D90004500544F4E45004C415345520050554D6F
:100DA000505F320050554D505F31004355455F3222
:100DB000004355455F31002C22656E645F74696D98
:100DC000657374616D70223A00222C227374617213
:100DD000745F74696D657374616D70223A002C22C2
:100DE0006576656E74223A2200222C2270696E228A
:100DF0003A007B226C6576656C223A2230303722CD
:100E00002C22646576696365223A2200D435112468
:100E10001FBECFEFD1E2DEBFCDBF00E00CBF13E0BD
:100E2000A0E0B2E0EEE4F6E800E00BBF02C00790FD
:100E30000D92AC34B107D9F727E0ACE4B3E001C0C0
:100E40001D92A134B207E1F717E0C7E0D7E000E058
:100E500006C021970109802FFE010E94F240C63092
:100E6000D10780E00807A9F70E9471390C94254347
:100E70000C940000CF93DF93EC0188819981DC0111
:100E8000ED91FC910190F081E02D64E270E0199504
:100E9000009741F02FE1FC01238321E02283DF91C1
:100EA000CF91089521E02A83FACF4F925F926F92FB
:100EB0007F92AF92CF92EF920F931F9310923F04C5
:100EC0001092400431E030934104609342046093F7
:100ED0004304109244041092450439E030935B04BB
:100EE00034E630935C0410925F0435E03093BD0427
:100EF00010927B0433E030937C0400937D041092C5
:100F00007E0410927F04109280041092810440901D
:100F1000DD065090DE066090DF067090E00640929D
:100F2000820450928304609284047092850410922B
:100F3000860434E030938704E09288041092890498
:100F400010928A0410928B0410928C044090BC067C
:100F50005090BD066090BE067090BF0640928D0412
:100F600050928E0460928F047092900410929104BB
:100F700020939204263009F0AC2CA0929304109296
:100F80009404109295041092960410929704FC0118
:100F900081859285A385B485809398049093990464
:100FA000A0939A04B0939B0410929C0487E08093D2
:100FB0009D0489E080939E0410929F041092A004E7
:100FC0001092A1041092A20400914B0610914C06BD
:100FD00020914D0630914E060093A3041093A40473
:100FE0002093A5043093A60491E09093A704409326
:100FF000A8048093A9041092AA041092AB04109242
:10100000AC041092AD048091050690910606A09163
:101010000706B09108068093AE049093AF04A093A6
:10102000B004B093B1041F910F91EF90CF90AF90A7
:101030007F906F905F904F90089560930506709336
:10104000060680930706909308063091BD04EBE7EF
:10105000F4E020E023130DC030910005EEEBF4E046
:1010600020E02317B1F04081413071F02F5F3B96B3
:10107000F8CF4081413019F02F5F3B96EBCF67836B
:10108000708781879287F8CF67837087818792877F
:10109000EDCF089590913F04992339F090915D042C
:1010A00021E030E0992319F0089530E020E09EE13E
:1010B000929FF001939FF00D1124E35DFB4F858B10
:1010C000178AF2CFE0E1F5E01082709686E0E03119
:1010D000F807D1F708958150823108F05AC0E82FFF
:1010E000F0E08827E958F74F8F4F0C94F2409708AB
:1010F0009B0889088F089308C9089E08A408A808B7
:10110000AE08B208B608BC08C008C908C408CA08B6
:10111000CE08809180008F77809380000895809121
:1011200080008F7DF9CF80918000877FF5CF84B5D7
:101130008F7784BD089584B58F7DFBCF8091B000FB
:101140008F778093B00008958091B0008F7DF9CFA4
:10115000809190008F778093900008958091900007
:101160008F7DF9CF80919000877FF5CF8091A0008F
:101170008F778093A00008958091A0008F7DF9CF94
:101180008091A000877FF5CF809120018F77809399
:1011900020010895809120018F7DF9CF8091200159
:1011A000877FF5CFCF93DF93282F30E0F901E2540A
:1011B000F44F8491F901E858F44FD491F901EE5CB1
:1011C000F44FC491CC23A1F081110E946B08EC2F45
:1011D000F0E0EE0FFF1FE85EF44FA591B491EC91A3
:1011E000ED2381E090E009F480E0DF91CF91089554
:1011F00080E090E0FACF1F93CF93DF93282F30E069
:10120000F901E254F44F8491F901E858F44FD49174
:10121000F901EE5CF44FC491CC23A9F0162F811193
:101220000E946B08EC2FF0E0EE0FFF1FE250F54F2D
:10123000A591B4918FB7F894EC91111108C0D09595
:10124000DE23DC938FBFDF91CF911F910895DE2BBA
:10125000F8CFCF93DF9390E0FC01E858F44F24914E
:101260008E5C944FFC0184918823C9F090E0880F34
:10127000991FFC01EC51F54FA591B491FC01E2508E
:10128000F54FC591D49161110DC09FB7F8948C9121
:10129000209582238C938881282328839FBFDF9108
:1012A000CF910895623051F49FB7F8943C91822F0A
:1012B000809583238C93E8812E2BEFCF8FB7F89402
:1012C000EC912E2B2C938FBFEACF3FB7F8948091EF
:1012D000880390918903A0918A03B0918B0326B56E
:1012E000A89B05C02F3F19F00196A11DB11D3FBF5E
:1012F000BA2FA92F982F8827BC01CD01620F711D2D
:10130000811D911D42E0660F771F881F991F4A9526
:10131000D1F708958F929F92AF92BF92CF92DF92B2
:10132000EF92FF920E9465094B015C0184E6C82E92
:10133000D12CE12CF12C0E946509681979098A09E0
:101340009B09683E734081059105A8F321E0C21A0C
:10135000D108E108F10888EE880E83E0981EA11CF0
:10136000B11CC114D104E104F10429F7FF90EF90FE
:10137000DF90CF90BF90AF909F908F9008952FB740
:10138000F894609184037091850380918603909115
:1013900087032FBF08950F931F93CF93DF93C091BF
:1013A0002B04D0912C042097C9F08A81882331F036
:1013B0008B818F3F19F08B818F5F8B8381E08A83D4
:1013C0000E94BF0909851A852B853C85601B710B1E
:1013D000820B930B6D837E838F839887DF91CF91F0
:1013E0001F910F91089508959091080289130DC0DF
:1013F000E8E1F9E0E4919FEF90930802E230E1F038
:1014000038F4EE2381F0E13089F060E00C94FB08C1
:10141000E43049F110F1E530C1F7909173009D7F00
:1014200090937300F2CF10926E00EFCF90916F0007
:101430009D7F90936F00E9CF909170009D7F909376
:10144000700091E09093B0009091B100987F94600B
:101450009093B1001092B300D8CF909171009D7F0E
:1014600090937100D2CF909172009D7F9093720003
:10147000CCCF4F925F926F927F928F929F92AF925A
:10148000BF92CF92DF92EF92FF920F931F93CF9371
:10149000DF9300D01F921F92CDB7DEB78B012901D9
:1014A0003A01909108028917C9F09F3F09F491C051
:1014B0000F900F900F900F900F90DF91CF911F9191
:1014C0000F91FF90EF90DF90CF90BF90AF909F90E3
:1014D0008F907F906F905F904F900895E8E1F9E0D2
:1014E00024912D8327FDE4CF61E00E9429092D81FD
:1014F000222321F08D81823009F005C24801B12CF0
:10150000A12C60E072E18AE790E0A50198010E94B9
:10151000753F29833A834B835C8369017A0191E0AB
:10152000C91AD108E108F1082FEFC216D104E1046D
:10153000F10409F00CF4B6C160E472E48FE090E0CD
:10154000A50198010E94753F69017A0181E0C81ADE
:10155000D108E108F1089D81923009F026C182E0AE
:101560002FEFC216D104E104F10409F00CF46CC1B0
:1015700060E970ED83E090E0A50198010E94753F5D
:1015800069017A0181E0C81AD108E108F10883E015
:101590009FEFC916D104E104F10409F00CF454C121
:1015A00068E478EE81E090E0A50198010E94753F23
:1015B00069017A0181E0C81AD108E108F1089FEFBA
:1015C000C916D104E104F10411F00CF044C184E027
:1015D0003BC180930802E8E1F9E094919D839F3F2D
:1015E00009F466CF923009F474C058F4992399F144
:1015F000913009F44CC097FD5BCF61E00E9429094E
:1016000079CF2D81243009F4AEC008F488C025308C
:1016100091F7109220011092210190912101986080
:101620009093210190912101916090932101282FA5
:1016300030E0F901EE5CF44FE491F0E0EE0FFF1FB3
:10164000E250F54F45915491F901E858F44FE49177
:10165000E0935E0349CF14BC15BC94B5926094BD71
:1016600095B5916095BD282F30E0F901EE5CF44FFF
:10167000E491F0E0EE0FFF1FE250F54F45915491D9
:10168000F901E858F44FE491E09362032DCF1092F2
:101690008000109281009091810098609093810069
:1016A00090918100916090938100282F30E0F901A2
:1016B000EE5CF44FE491F0E0EE0FFF1FE250F54FC7
:1016C00045915491F901E858F44FE491E093610396
:1016D0000BCF1092B0001092B1009091B0009260C8
:1016E0009093B0009091B10091609093B100282F39
:1016F00030E0F901EE5CF44FE491F0E0EE0FFF1FF3
:10170000E250F54F459154915093780340937703FD
:10171000F901E858F44FE491E0937903E5CE109293
:101720009000109291009091910098609093910098
:1017300090919100916090939100282F30E0F901F1
:10174000EE5CF44FE491F0E0EE0FFF1FE250F54F36
:1017500045915491F901E858F44FE491E093600306
:1017600093E09D83C1CE1092A0001092A1009091B1
:10177000A10098609093A1009091A1009160909336
:10178000A100282F30E0F901EE5CF44FE491F0E085
:10179000EE0FFF1FE250F54F45915491F901E858C3
:1017A000F44FE491E0935F039FCE2FEFC216D10474
:1017B000E104F10409F00CF4A4C068E478EE81E0DF
:1017C00090E0A50198010E94753F69017A0181E0CE
:1017D000C81AD108E108F1089D81992309F489C14B
:1017E0009FEFC916D104E104F10409F00CF4EFCE27
:1017F00062E17AE780E090E0A50194010E94753FE4
:1018000069017A0181E0C81AD108E108F1089D81D7
:10181000992309F453C186E09FEFC916D104E1046E
:10182000F10491F088F0C980DA80EB80FC808AE0D6
:10183000F594E794D794C7948A95D1F781E0C81AB4
:10184000D108E108F10887E09091B100987F892BD9
:101850008093B1002FC064E274EF80E090E0A501B6
:1018600094010E94753F69017A0181E0C81AD1088C
:10187000E108F10885E09FEFC916D104E104F10405
:1018800019F310F362E17AE780E090E0A50194019A
:101890000E94753F69017A0181E0C81AD108E10808
:1018A000F108B9CF81E02D812111CECF95B5987F78
:1018B000892B85BD2FEF3FEFA9014114510461042D
:1018C000710409F049C09D81923009F4E7C00CF021
:1018D000CEC0992309F4D3C0913009F0E9CDD0925C
:1018E0008900C092880020936F0330937003409367
:1018F00071035093720380916F00826080936F0038
:10190000D7CD82E0D0CFB12CA12C60E072E18AE784
:1019100090E0A50198010E94753F69017A0181E07C
:10192000C81AD108E108F108C114D10491E0E90610
:10193000F10404F591E02D81213069F58091810059
:10194000887F892B809381002FEF3FEFA9014114FD
:1019500051046104710419F2D801AA0FBB1FA3013D
:1019600092010E94943F28EE33E040E050E00E9454
:10197000A73FA9CF68E478EE81E090E0A501980147
:101980000E94753F69017A0181E0C81AD108E10817
:10199000F10893E0D0CF8D81833001F580919100E3
:1019A000887F892B809391002FEF3FEFA90141148D
:1019B00051046104710481F6D0929900C09298009C
:1019C00020936B0330936C0340936D0350936E032D
:1019D000809171008260809371006ACD2D812430E6
:1019E00009F58091A100887F892B8093A1002FEFBA
:1019F0003FEFA901411451046104710409F0ACCF17
:101A0000D092A900C092A800209367033093680386
:101A10004093690350936A038091720082608093BF
:101A2000720046CD8D81853009F044CF809121012F
:101A3000887F892B809321012FEF3FEFA90141146B
:101A400051046104710409F087CFD0922901C0923A
:101A500028012093630330936403409365035093FC
:101A600066038091730082608093730021CD8D8125
:101A7000843031F20CF4A0CF853039F319CDC7BCD6
:101A8000209373033093740340937503509376034C
:101A900080916E00826080936E000ACDC092B30088
:101AA00020937A0330937B0340937C0350937D0310
:101AB00080917000826080937000FACC84E02FEFF8
:101AC000C216D104E104F10409F008F4EFCEC98094
:101AD000DA80EB80FC809AE0F594E794D794C79481
:101AE0009A95D1F791E0C91AD108E108F10885E08B
:101AF000DDCE83E02FEFC216D104E104F10411F032
:101B00000CF076CED3CEAF92BF92CF92DF92EF920F
:101B1000FF920F931F93CF93DF936C017B018B0197
:101B2000040F151FEB015E01AE18BF08C017D107E7
:101B300059F06991D601ED91FC910190F081E02D71
:101B4000C6011995892B79F7C501DF91CF911F91B6
:101B50000F91FF90EF90DF90CF90BF90AF900895DE
:101B6000FC01538D448D252F30E0842F90E0821BA3
:101B7000930B541710F0CF96089501970895FC0128
:101B8000918D828D981761F0A28DAE0FBF2FB11D80
:101B90005D968C91928D9F5F9F73928F90E00895D8
:101BA0008FEF9FEF0895FC01918D828D981731F092
:101BB000828DE80FF11D858D90E008958FEF9FEFE6
:101BC0000895FC01918D228D892F90E0805C9F4FBC
:101BD000821B91098F73992708958CE893E00E94E6
:101BE000E10D21E0892B09F420E0822F0895FC010A
:101BF000A48DA80FB92FB11DA35ABF4F2C91848D6E
:101C000090E001968F739927848FA689B7892C93CA
:101C1000A089B1898C91837080648C93938D848D1D
:101C2000981306C00288F389E02D80818F7D808320
:101C30000895EF92FF920F931F93CF93DF93EC01E0
:101C400081E0888F9B8D8C8D98131AC0E889F98963
:101C5000808185FF15C09FB7F894EE89FF89608366
:101C6000E889F98980818370806480839FBF81E0E7
:101C700090E0DF91CF911F910F91FF90EF90089529
:101C8000F62E0B8D10E00F5F1F4F0F731127E02E04
:101C90008C8D8E110CC00FB607FCFACFE889F9893C
:101CA000808185FFF5CFCE010E94F70DF1CFEB8D3E
:101CB000EC0FFD2FF11DE35AFF4FF0829FB7F89410
:101CC0000B8FEA89FB8980818062CFCF0F931F93AE
:101CD000CF93DF938C01D0E0C0E0F801EC0FFD1F43
:101CE0006491662341F08CE893E00E94190E892BE1
:101CF00011F02196F2CFCE01DF91CF911F910F917C
:101D00000895CF93DF93EC01888D8823B9F0AA89D9
:101D1000BB89E889F9898C9185FD03C0808186FDA6
:101D20000DC00FB607FCF7CF8C9185FFF2CF8081F5
:101D300085FFEDCFCE010E94F70DE9CFDF91CF9166
:101D4000089580E090E0892B29F00E94ED0D81112B
:101D50000E94000080E090E0892B49F080E090E054
:101D6000892B29F00E94000081110E94000080E070
:101D700090E0892B49F080E090E0892B29F00E94C7
:101D8000000081110E94000080E090E0892B49F062
:101D900080E090E0892B29F00E94000081110C94D2
:101DA00000000895CF92DF92EF92FF921F93CF939E
:101DB000DF93EC016A017B018C810E94D20811E063
:101DC000892B09F410E08B85181721F0CD8ADE8A63
:101DD000EF8AF88E8D899E89AF89B88DB701A601EB
:101DE000481B590B6A0B7B0B898D90E0B0E0A0E09B
:101DF00084179507A607B70798F48C85181781F004
:101E00001C878A851817A9F0CA8EDB8EEC8EFD8E92
:101E1000EAA1FBA1309721F0B701A60189851995A8
:101E20001B87DF91CF911F91FF90EF90DF90CF90B4
:101E30000895CE8EDF8EE8A2F9A2ECA1FDA1309725
:101E400079F389851995ECCFFC01158213861486E8
:101E5000158616861786108A118A128A138A148AA2
:101E6000158A168A138E8681882311F084818383D4
:101E70000895CF92DF92EF92FF920F931F93CF932B
:101E8000DF93EC018E81811103C08D89882369F174
:101E90008C810D851E852F8538896A017B01C01ACA
:101EA000D10AE20AF30A9701860137FD18C00989B1
:101EB0001A892B893C89401B510B620B730B14163A
:101EC0001506160617065CF061E0DF91CF911F91B1
:101ED0000F91FF90EF90DF90CF900C94FB0860E0A3
:101EE0000E94FB088D8981111D8ADF91CF911F917E
:101EF0000F91FF90EF90DF90CF900895CF93DF93F5
:101F0000EC0161E088810E94FB0881E08D870E94DE
:101F1000BF096E877F87888B998BDF91CF9108955A
:101F2000CF92DF92EF92FF92CF93DF93EC016A01A1
:101F30007B0169857A858B859C850E94563E9B0135
:101F4000AC0160E070E080E89FE30E94454020E043
:101F500030E040E05FE30E94B73E20E030E04AE737
:101F600054E40E94B73ECD8EDE8EEF8EF8A220E0C4
:101F700030E040E05FE30E94D93F0E94BE40C60EC1
:101F8000D71EE81EF91EC9A2DAA2EBA2FCA28FA1FD
:101F900091E089278FA3DF91CF91FF90EF90DF90A1
:101FA000CF900895CF92DF92EF92FF92CF93DF937D
:101FB000EC016A017B018D899E89AF89B88DAB01E7
:101FC0009601281B390B4A0B5B0BDA01C901B7FDDF
:101FD00049C0898D9A8DAB8DBC8DAB019601281BB4
:101FE000390B4A0B5B0BDA01C901181619061A06E0
:101FF0001B06C4F18EA18823A9F189859A85AB853A
:10200000BC850197A105B10551F461E08C81DF9198
:10201000CF91FF90EF90DF90CF900C94FB0889A1B7
:102020009AA1ABA1BCA1AB019601281B390B4A0BAD
:102030005B0BDA01C901B7FD04C0A601CE010E9405
:10204000900F8C819FA1992311F061E0E0CF60E0B7
:102050000E94FB081FA2DF91CF91FF90EF90DF90CD
:10206000CF90089560E08C810E94FB081FA2898DAB
:102070009A8DAB8DBC8DC81AD90AEA0AFB0A8EA1CB
:10208000882331F01C141D041E041F040CF41EA22E
:1020900088A5882301F31C141D041E041F04DCF60C
:1020A00018A6D9CF8F929F92AF92BF92CF92DF9214
:1020B000EF92FF920F931F93CF93DF93EC018E81EA
:1020C000811104C088A1882309F445C07B01898956
:1020D0009A89AB89BC894A015B01881A990AAA0AC4
:1020E000BB0AC501B40197FD53C00D891E892F8914
:1020F000388D4A015701801A910AA20AB30A950144
:10210000840110161106120613060CF441C02A8D24
:102110002223A9F10C8D1D8D2E8D3F8D200F311F97
:102120002115310511F421E030E0FB8C50E040E056
:102130000E94A73F60177107D8F4F1100AC06985A3
:102140007A8520E030E0A9018C810E94390A81E083
:102150008B8F81E0898FDF91CF911F910F91FF903D
:10216000EF90DF90CF90BF90AF909F908F900895A9
:10217000FF2079F38C810E94F4091B8EEACF6985D8
:102180007A8520E030E0A9018C810E94390AE1CFF4
:10219000898D882301F38C810E94F409198E1B8E8E
:1021A00088A18823C1F218A2D6CF6F3FA9F0E62FED
:1021B000E295EF7044E0E49F90011124DC01ED9181
:1021C000FC91E20FF31F6F7082819381B6E06B9FE9
:1021D000800D911D1124089590E080E00895982FBE
:1021E00080336CF08A3324F08F3524F08B3724F45D
:1021F00081E0089581341CF081E09B350CF080E093
:102200000895FC01828581110AC0A781B085CD01A6
:102210000196908787838C91818781E08287818571
:1022200008951F93CF93DF93EC01162F0E940111A5
:10223000811306C01A8681E0DF91CF911F91089526
:1022400080E0FACF0F931F93CF93DF938C01EB01C4
:102250008991882369F0C8010E940111882379F0CF
:10226000FE013197908198130DC0F8011286F0CFCE
:1022700090E080E0DF91CF911F910F91089582E06F
:1022800090E0F8CF83E090E0F5CFCF93DF93EC01BF
:10229000CE010E9401118B304CF489305CF488230C
:1022A00059F081E08E8390E080E00BC08D3011F01A
:1022B0008032B9F71A86ECCF8E81811105C081E09A
:1022C00090E0DF91CF91089582E090E0FACFDC01B9
:1022D00052969C915297915084E0989F90011124BE
:1022E0005096ED91FC91E20FF31F2281338121156D
:1022F000310579F041818081481758F481E0840FDD
:10230000818386E0489F200D311D11242115310560
:1023100021F460E070E08FEF0895B901892F829574
:10232000807F840F0895DF92EF92FF920F931F93A7
:10233000CF93DF93EC017B01D12C688979898A895D
:10234000D816E0F484E0D89E80011124060F171FF0
:10235000D80112966D917C916115710541F0D701FC
:10236000ED91FC910280F381E02DC7011995F801F0
:102370001382128210821182D394DFCF1A8A8FEFD8
:102380008C8BC617D70761F0D701ED91FC910280C5
:10239000F381E02DC7011995D98BC88B84E08B8B15
:1023A000DF91CF911F910F91FF90EF90DF900895F3
:1023B000AF92CF92DF92EF92FF920F931F93CF9342
:1023C000DF93C0910902D0910A0241E0809104029A
:1023D000909105028751974009F440E0A0900002D7
:1023E000C0900102E09002020091030220910B02D2
:1023F00060914204CE010E945507E091BD04E43093
:1024000008F46CC0C358D64009F0BCC0C09051035A
:10241000D0905203E0905303F090540380915903FD
:1024200090915A03A0915B03B0915C0300917E04EC
:1024300010917F042091800430918104080F191FAE
:102440002A1F3B1F00937E0410937F042093800477
:10245000309381044091890450918A0460918B04E7
:1024600070918C04840F951FA61FB71F8093890459
:1024700090938A04A0938B04B0938C04809194046D
:1024800090919504A0919604B09197048C0D9D1D98
:10249000AE1DBF1D8093940490939504A093960461
:1024A000B093970480919F049091A004A091A104FF
:1024B000B091A20440914F06509150066091510690
:1024C00070915206840F951FA61FB71F80939F041B
:1024D0009093A004A093A104B093A20480915D0303
:1024E000882309F458C0E43018F083E080939C04FA
:1024F00010925D0481E080935E0480935F0480937A
:1025000060048093610410926204109263049091BD
:1025100050039093790494E690937A048093000595
:102520001092BE0487E08093BF0489E08093C004CA
:1025300080914F0690915006A0915106B09152069D
:102540008093C1049093C204A093C304B093C404C5
:1025500080914B0690914C06A0914D06B0914E068D
:102560008093C5049093C604A093C704B093C80495
:10257000DF91CF911F910F91FF90EF90DF90CF905F
:10258000AF900895C0905503D0905603E090570344
:10259000F090580343CF10925F04EACF4F925F92BE
:1025A0006F927F928F929F92AF92BF92CF92DF9263
:1025B000EF92FF920F931F93CF93DF9300D01F9260
:1025C0001F92CDB7DEB7DC012C912B32E1F12D3219
:1025D000D9F50196EE24E394FC01208130ED320F11
:1025E0003A3010F02E3291F58C0160E070E0CB01B2
:1025F000F801219130ED832E820E39E0381508F470
:1026000044C06A3949E97407840749E1940708F02E
:1026100046C0AAE0B0E09B01AC010E94943F912C1F
:10262000B12CA12C240135014094509460947094F5
:10263000461657066806790690F1680D791D8A1DC1
:102640009B1D8F01D5CF0196E12CC6CF1982298120
:102650003A814B815C816D8170E080E090E00F9069
:102660000F900F900F900F90DF91CF911F910F91CE
:10267000FF90EF90DF90CF90BF90AF909F908F90A2
:102680007F906F905F904F900895211108C0EE20C9
:1026900051F161307105810550E89507A0F0F12CEA
:1026A000BAE08B2E912CA12CB12C6115710530E86C
:1026B00083079105F8F0A50194010E94A73FCA0184
:1026C000B901F394F2CF22E029839B01AC01882762
:1026D0009927DC01821B930BA40BB50B8A839B8388
:1026E000AC83BD83B4CF23E029836A837B838C834F
:1026F0009D83ADCFF801D8012D918D0130ED320FC2
:102700003A3010F4F394F6CF2E3201F58F010F5FBB
:102710001F4FF8010F5F1F4F2081A0EDDA2ED20E60
:10272000B9E0BD1598F06C3CECEC7E07ECE08E0750
:10273000910578F7AAE0B0E09B01AC010E94943FBC
:102740006D0D711D811D911DFA94E3CF20812F7DA8
:1027500010E000E0253409F050C021812D32B1F5A0
:102760003296CC24C394DF0110E000E02F2D0F2C13
:10277000000C330BEAE0BE2EFD01DD9040ED4D0D67
:102780004A30B0F5B09EA001B19E500D11240D2D20
:10279000DD0C110B00531109040F151FA801420F86
:1027A000531F4732510544F3CC20B9F080E090E04C
:1027B000A0E0B0E8E11003C080E090E0DC0121E09F
:1027C00029838A839B83AC83BD8341CF2B3219F04D
:1027D0003196C12CC8CF3296FCCF80E090E0A0E8C3
:1027E000BFEFE110ECCF80E090E0A0E8BFE7E7CFDB
:1027F000CC2019F01195019511092081211126CFC6
:102800000F0D111DF7FC1A950E94563E44E1A42EAF
:1028100042E0B42E101611063CF0119501951109F5
:102820005CEFA52E51E0B52ED12CC12C0115110560
:10283000E9F0F6E0CF16D104A9F000FF0DC0F601D3
:10284000EE0FFF1FEE0FFF1FEA0DFB1D25913591C7
:10285000459154910E94B73E159507952FEFC21AE6
:10286000D20AE4CF60E070E080EC9FE7E11090587E
:1028700021E029836A837B838C839D83E8CECF927A
:10288000DF92EF92FF920F931F93CF93DF937C0120
:102890006B018A01FC01C081D1814F3F510509F0D4
:1028A000B0F4E881F9810480F581E02D4B5F5F4F42
:1028B000CE011995009759F0FC010383DF91CF9168
:1028C0001F910F91FF90EF90DF90CF900895E881D6
:1028D000F9810280F381E02DB601CE01199581E0E6
:1028E000F701828390E080E0E9CF1F93CF93DF93DD
:1028F000EC01162F6A817B816115710589F04C818D
:102900005D81FB0183818417150651F4440F551F27
:102910004F5F5F4F888199810E943F149B838A8318
:102920008A819B81009759F02C813D81A9014F5FDD
:102930005F4F5D834C83820F931FFC011483DF91F3
:10294000CF911F9108959F92AF92BF92CF92DF9245
:10295000EF92FF920F931F93CF93DF9300D01F92BC
:102960001F92CDB7DEB78C010E940111D82EF8015D
:102970001286F12CE12C60EFC62EC8010E940111D5
:10298000F8011286D81609F4B3C0811113C082E091
:1029900090E00F900F900F900F900F90DF91CF91DC
:1029A0001F910F91FF90EF90DF90CF90BF90AF906D
:1029B0009F9008958C3509F099C0C8010E940111BB
:1029C000882329F3E7EAF2E0853709F083C0F801AC
:1029D000128654E0952EB12CA12CC8010E94011141
:1029E0008823A9F2813434F48053803130F083E0BD
:1029F00090E0CFCF8F7D8753F8CF44E0AA0CBB1C6B
:102A00004A95E1F7A82AF80112869A949110E5CF29
:102A1000C501985D8115944020F47501F3E0FF2213
:102A2000ACCFC5019C5D81159440A8F483E0B82229
:102A3000B701762F6627770F770F6A297B2990E0F9
:102A400080E00196603871058105910540F4C80168
:102A50000E94751492CFB50190E080E0F3CF198207
:102A6000262F2F7320682A8326E0969587957795E1
:102A700067952A95D1F76032710580F4606C6B839D
:102A80005E01E4E0AE0EB11CF50162915F016623C8
:102A900009F473CFC8010E947514F6CF262F2F7347
:102AA00020682B8386E0769567958A95E1F76031FB
:102AB000710538F4606E6C835E01F5E0AF0EB11CF9
:102AC000E3CF60686C83CD825E0126E0A20EB11C6C
:102AD000DBCF32969081992309F489CF8913F9CFFE
:102AE0008181882309F483CFF8011286682FAFCF44
:102AF00082819381892B19F484E090E04ACF90E0A1
:102B000080E047CF6F927F928F929F92AF92BF9259
:102B1000CF92DF92EF92FF920F931F93CF93DF93A9
:102B2000EC012A813B812C5F3F4F4C815D81443019
:102B3000510588F58901F90180E0942FB22FAE2F5D
:102B4000A21BA91730F4F190A1E0F110A0E08A2BAC
:102B5000F6CF811120C082E0EB018C83FB01802F36
:102B60008B1B891728F4E80189918E018193F7CF97
:102B7000640F751FFB011082DF91CF911F910F91A0
:102B8000FF90EF90DF90CF90BF90AF909F908F908D
:102B90007F906F9008958B01F901E40FF51F10826B
:102BA000888199814C815D81DC011396ED91FC91C6
:102BB0003A01E89477F86901C60CD71C3097C1F048
:102BC000A381A615170481F449017F01B4E0EB0E3F
:102BD000F11C8C149D0429F1D401AD904D01D70155
:102BE000BD907D01AB14A9F30190F081E02DE6CFFB
:102BF0006A817B810E943F14FC01A881B9811396F0
:102C00008D919C911497918380831496FC93EE93FD
:102C100013971B821A8285E0E8018C83F983E8838D
:102C2000ABCF82818F5F8283F6CFDB01ED91FC9188
:102C300011970280F381E02DBC01CD011994AF9270
:102C4000BF92CF92DF92EF92FF920F931F93CF9399
:102C5000DF93EC018B018C8180FF24C0A881B981B6
:102C6000FB018381948130E020E00097D9F0A81720
:102C7000B907D1F5F8016081718112968C91129794
:102C8000815012968C93129781110CC08D919C915A
:102C900011972115310529F1F90191838083CD0127
:102CA0000E9415168C81807631F1209721F1F880F1
:102CB0005801F5E1AF0EB11C8FEFF816D1F06F2D72
:102CC000C5010E94D5106C01FC01E580B8010E948D
:102CD0001F16F801818DF6018083F801F18EFE2C1C
:102CE000EBCF94838383DBCF9C01FC0180819181B6
:102CF000BCCFF882F9821C82DF91CF911F910F9196
:102D0000FF90EF90DF90CF90BF90AF9008950F931A
:102D10001F93CF93DF93EC01088119818B819C81F4
:102D2000009749F0FC01208131813C832B83B8015D
:102D30000E941516F3CF68817981CE010596DF9147
:102D4000CF911F910F910C949311FC0101900020E1
:102D5000E9F73197AF01481B590BBC018CE893E0B0
:102D60000C94830D8F929F92AF92BF920F931F93FB
:102D7000CF93DF93CDB7DEB7A1970FB6F894DEBF40
:102D80000FBECDBF19A2423008F44AE08E010F5D9C
:102D90001F4F842E912CB12CA12CA50194010E94CF
:102DA000A73FE62FB901CA01EA30F4F4E05DD8018B
:102DB000EE938D01232B242B252B79F790E080E0D7
:102DC000109719F0CD010E94A516A1960FB6F894A0
:102DD000DEBF0FBECDBFDF91CF911F910F91BF908E
:102DE000AF909F908F900895E95CE1CF4AE00C94FA
:102DF000B216682F70E090E080E04AE00C94B216C2
:102E0000CF92DF92EF92FF92CF93DF936C01990FF5
:102E1000EE08FF08F7FE19C06DE28CE893E00E940F
:102E2000190EEC0166277727CB016C197D098E09F5
:102E30009F094AE00E94B2168C0F9D1FDF91CF912F
:102E4000FF90EF90DF90CF9008954AE0C701B60160
:102E5000DF91CF91FF90EF90DF90CF900C94B2165E
:102E6000CF93DF930E94660EEC018AEB92E00E9402
:102E7000A5168C0F9D1FDF91CF910895CF93C82F7A
:102E80008093150680E29CE00E94660E80911306F6
:102E9000082E000C990B0E94001786E19CE00E940E
:102EA000660E84E09CE0CC2311F08DE09CE00E9453
:102EB000660E83E19CE0CF910C9430170F931F9323
:102EC000CF938C01C62FFC0164838AEE97E00E94A9
:102ED000660EF8018081082E000C990B0E940017E5
:102EE00080EE97E00E94660E8EEC97E0CC2311F006
:102EF00087ED97E00E94660E8DED97E0CF911F91D0
:102F00000F910C943017EF92FF920F931F93CF9372
:102F1000DF937C018B01EA0184EB97E00E94660E4F
:102F2000C7010E94660E88EA97E00E94660EC801FB
:102F30000E94660E8CE997E00E94660ECE010E9408
:102F4000660E89E997E0DF91CF911F910F91FF9075
:102F5000EF900C943017CF93DF936DE78CE893E0FC
:102F60000E94190EEC018AEB92E00E94A5168C0FCC
:102F70009D1FDF91CF9108954F925F926F927F9244
:102F80008F929F92AF92BF92EF92FF920F931F93F7
:102F9000CF93DF932A013B0148015901853009F4A1
:102FA00080C008F061C0843009F46FC0E091330440
:102FB000F09134041481C2E9DDE041EBE42E4DE0F0
:102FC000F42E82EF9DE00E94660EC7010E94660EFD
:102FD00089EE9DE00E94660E812F110F990B0E94D1
:102FE00000178EED9DE00E94660ECE010E94660ED7
:102FF00089EC9DE00E94660E809101069091020688
:10300000A0910306B0910406A3019201281B390B7D
:103010004A0B5B0BCA01B9010E94F61687EB9DE0D3
:103020000E94660E8091010690910206A09103060F
:10303000B0910406A5019401281B390B4A0B5B0BC8
:10304000CA01B9010E94F616DF91CF911F910F912D
:10305000FF90EF90BF90AF909F908F907F906F9078
:103060005F904F900C94AB17863039F1873009F0A0
:103070009DCFE0913B04F0913C041481C6E7DDE074
:1030800087E9E82E8DE0F82E9CCFE0913504F09191
:1030900036041481CDE8DDE03BEAE32E3DE0F32E7B
:1030A00090CFE0913704F09138041481C4E8DDE05A
:1030B00024EAE22E2DE0F22E84CFE0913904F09143
:1030C0003A041481CBE7DDE09DE9E92E9DE0F92E7D
:1030D00078CFCF92DF92EF92FF920F931F93CF930F
:1030E000DF93EC018881813009F4D1C06A017B0152
:1030F000813090F08230D1F48FE394E00E94240F6D
:103100008DE594E0DF91CF911F910F91FF90EF90AB
:10311000DF90CF900C94240F8981853009F47DC015
:1031200070F48330F1F1843009F45AC0DF91CF910B
:103130001F910F91FF90EF90DF90CF900895863010
:1031400009F488C0873091F7E0913B04F0913C048A
:10315000309761F38681882349F385A18111E6CFF9
:103160008F819885A985BA85C58AD68AE78AF08E27
:103170008C0D9D1DAE1DBF1D818F928FA38FB48FAF
:1031800081E086A3CF010E94900F0F8118852985C9
:103190003A850C0D1D1D2E1D3F1DB701A60187E0B0
:1031A0001CC0E0913304F0913404309709F4BECF91
:1031B0008681882309F4BACF0F81188529853A853D
:1031C000C18AD28AE38AF48A0C0D1D1D2E1D3F1D73
:1031D000058B168B278B308F83E00E94BC17A6CF00
:1031E000E0913504F0913604309709F49FCF868141
:1031F000882309F49BCF0F81188529853A85C18AD8
:10320000D28AE38AF48A0C0D1D1D2E1D3F1D058BED
:10321000168B278B308F84E0E0CFE0913704F0915C
:103220003804309709F482CF8681882309F47ECF51
:103230000F81188529853A85C586D686E786F08A66
:103240000C0D1D1D2E1D3F1D018B128B238B348BEE
:1032500085E0C3CFE0913904F0913A04309709F446
:1032600065CF8681882309F461CF0F811885298570
:103270003A85C586D686E786F08A0C0D1D1D2E1D63
:103280003F1D018B128B238B348B86E0A6CF898167
:10329000E0912D04F0912E04882339F0813009F05B
:1032A00045CFE0912F04F0913004309709F43ECFE0
:1032B000CF80D884E984FA844C0D5D1D6E1D7F1D7E
:1032C000418B528B638B748B31CF2F923F924F92F5
:1032D0005F926F927F928F929F92AF92BF92CF92A6
:1032E000DF92EF92FF920F931F93CF93DF9300D063
:1032F0001F92CDB7DEB72A013B0103E4809F900106
:103300001124312C8901C90183549B4F9A838983ED
:103310004BE0242E49019EE4890E911CE981FA813B
:103320008081381608F098C0A32CB12CC801239CCA
:10333000800D911D1124835D9B4FFC01E25BFF4FCB
:103340002081233039F1805B9F4FFC0180818930DF
:1033500021F09091120689131DC02A9CF0012B9C2C
:10336000F00D1124E00FF11FE258FB4FC080D18017
:10337000E280F380C114D104E104F10469F4B301E3
:10338000A201C401329C800D911D1124835D9B4FCD
:103390000E9469183394C2CFC40CD51CE61CF71CDC
:1033A000E0E1F5E090E080E02081211125C024E0FB
:1033B000880F991F2A95E1F7DC01AF5FBA4F2A9C6D
:1033C000F0012B9CF00D1124E00FF11FE558FB4F8D
:1033D000222D01900D922A95E1F7835D9B4FFC0110
:1033E000E152FF4FC082D182E282F3828D519F4F22
:1033F00021E0FC012083CECF0196709680319105AB
:1034000099F684E09DE00E94660E2A9CC0012B9CE8
:10341000900D1124800F911F835D9B4F9C838B83A4
:10342000FC01E25BFF4F80810E94F91689EF9CE06E
:103430000E94660EEB81FC81E15BFF4F80810E9460
:10344000F91688EE9CE00E94660EC701B6010E9444
:10345000F6160E94AB179ECF0F900F900F900F9013
:10346000DF91CF911F910F91FF90EF90DF90CF9060
:10347000BF90AF909F908F907F906F905F904F9094
:103480003F902F9008950F931F93CF93DF938C015C
:10349000D62FC42F8EEF98E00E94660EC8010E94BE
:1034A000660E83EF98E00E94660E89ED98E0DD23BA
:1034B00011F08FED98E00E94660E84EE98E00E9475
:1034C000660E8EEC98E0CC2311F084ED98E00E941B
:1034D000660EDF91CF911F910F910C94AB170F9354
:1034E0001F93CF938C01C62F84EB98E00E94660E49
:1034F000C8010E94660E89EA98E00E94660E8EE975
:1035000098E0CC2311F084EA98E00E94660ECF91F7
:103510001F910F910C94AB17CF92DF92EF92FF9215
:103520000F931F93CF938C01C62F69017A0184E812
:1035300098E00E94660EC8010E94660E89E798E036
:103540000E94660E81E698E0CC2311F087E698E0B1
:103550000E94660E8CE698E00E94660EC701B601D6
:103560000E94F616CF911F910F91FF90EF90DF9080
:10357000CF900C94AB177F928F929F92AF92BF9295
:10358000CF92DF92EF92FF920F931F93CF93DF932F
:10359000EC01762E49015A016701780187E498E031
:1035A0000E94660ECE010E94660E8CE398E00E9497
:1035B000660E86E198E0772011F08CE198E00E9499
:1035C000660E8EE298E00E94660EC501B4010E946C
:1035D000F61681E298E00E94660EC701B6010E94CD
:1035E000F616DF91CF911F910F91FF90EF90DF9032
:1035F000CF90BF90AF909F908F907F900C94AB171F
:10360000EF92FF920F931F93CF937C018B01C42FF6
:103610008FE797E00E94660EC7010E94660E83E75F
:1036200097E00E94660EC8010E94660E88E697E049
:103630000E94660E8DE597E0CC2311F083E697E0BB
:103640000E94660ECF911F910F91FF90EF900C9406
:10365000AB17CF92DF92EF92FF920F931F93CF930E
:10366000DF938C01EB0169017A0183E497E00E940A
:10367000660EC8010E94660E87E397E00E94660E00
:10368000CE010E94660E8CE297E00E94660EC70192
:10369000B6010E94F616DF91CF911F910F91FF9016
:1036A000EF90DF90CF900C94AB17009711F00C9433
:1036B000A51690E080E00895EF92FF920F931F937C
:1036C000CF93DF93C0912D04D0912E04882321F055
:1036D000C0912F04D0913004209709F46EC061305E
:1036E00009F465C008F460C0623009F463C095E471
:1036F000E92E9CE0F92E811104C08EE4E82E8CE0C6
:10370000F82E86EB9CE00E94660EC7010E94660EB2
:103710008DEA9CE00E94660E8C810E94F91682E977
:103720009CE00E94660EC8010E94660E8DE79CE038
:103730000E94660E6A8D7B8D8C8D9D8D0091010699
:10374000109102062091030630910406601B710B54
:10375000820B930B0E94F6168BE69CE00E94660E8D
:103760006E8D7F8D88A199A10091010610910206AE
:103770002091030630910406601B710B820B930BA2
:103780000E94F6168AE59CE00E94660ECE010D9618
:103790000E94551B87E59CE0DF91CF911F910F910F
:1037A000FF90EF900C94301701EE1CE0A0CF08EDD5
:1037B0001CE09DCF00ED1CE09ACFDF91CF911F91CF
:1037C0000F91FF90EF90089590910906911104C018
:1037D00090910A06992371F090910B0691110AC0FD
:1037E00060911006882321F0813021F46091110648
:1037F0000C945C1B0895CF93DF93EC016E838FEDE7
:1038000096E00E94660E8F8198850E94551B86ED7A
:1038100096E00E94660E8C81082E000C990B0E9487
:1038200000178CEC96E00E94660E8E8181110AC012
:103830008AEB96E00E94660E89EC96E0DF91CF91CC
:103840000C94301783EC96E0F5CF60E08091100285
:10385000909111020E94FB1B60E0809112029091F6
:1038600013020E94FB1B60E08091140290911502EC
:103870000E94FB1B60E080911602909117020E944B
:10388000FB1B60E080911802909119020E94FB1BC3
:1038900060E080911A0290911B020E94FB1B60E085
:1038A00080911C0290911D020E94FB1B80911E02C0
:1038B00090911F02009719F060E00E94FB1B60E0EE
:1038C00080912002909121020C945E171F93CF9358
:1038D000DF93EC01162F8E81882321F060E0CE016A
:1038E0000E94FB1B8D81813021F460E08C810E945D
:1038F000FB081C836D81812F0E9429098D818130F5
:1039000021F460E08C810E94FB0882E197E00E9434
:10391000660E8F8198850E94551B89EF96E00E9464
:10392000660E8C81082E000C990B0E940017DF9107
:10393000CF911F910C94AB17CF93DF93EC010E94B2
:10394000661C8C810E94D20821E0892B09F420E0BA
:103950002A878C810E94D20821E0892B09F420E07B
:103960002B878C810E94D20821E0892B09F420E06A
:103970002C871D8A1E8A1F8A188EDF91CF91089589
:103980009F92AF92BF92CF92DF92EF92FF920F93EE
:103990001F93CF93DF938A01452B09F468C0E90197
:1039A0006B016596FC016081CE010E94D510FC017F
:1039B000BB24BA94892B09F0B5807601E894F7F816
:1039C000AA24A3946701C00ED11E99249394309722
:1039D00009F44DC0AA2009F43FC08481843069F005
:1039E000853049F1823079F5DF010D900020E9F74B
:1039F0001197CD018E1B9F0B07C00190F081E02D28
:103A000090E080E0309781F79F77E816F90621F57E
:103A1000D801AC15BD05E1F46B2DCE01DF91CF913E
:103A20001F910F91FF90EF90DF90CF90BF90AF90DC
:103A30009F900C94D510A081B181FD01349613960E
:103A40008C9190E0E2CF90E080E0F0E0E0E0DDCF2C
:103A50009D9181919817E9F2A9246B2DCE010E94C6
:103A6000D510FC01892B09F4B2CFB580B0CF90E01E
:103A700080E0DF91CF911F910F91FF90EF90DF9049
:103A8000CF90BF90AF909F900895FC01208131812D
:103A9000C9014A964281538164817581009759F02A
:103AA000D9015E96EC91E03211F090E080E0009751
:103AB00011F00C94C01C90E080E00895CF93DF9348
:103AC000EB010E94451D009741F0FC012481263046
:103AD00021F48081DF91CF9108958881FBCFCF922F
:103AE000DF92EF92FF92CF93DF9300D01F921F924D
:103AF000CDB7DEB70E94451DDC01892B09F446C015
:103B00001496EC911497E250ED3008F03FC0F0E0CD
:103B10008827E257F24E8F4F0C94F240B51DC61D18
:103B2000C81DCB1D9B1DC61DC61DC61DA91DC61DBE
:103B3000A91DC61DCF1DCC908C2D0F900F900F90FE
:103B40000F900F90DF91CF91FF90EF90DF90CF908B
:103B50000895CD90DD90ED90FC908FEFC816D104C4
:103B6000E104F10449F340F311C0CD010E94CE12EB
:103B70003A834B835C836D83CA80DB80EC80FD805D
:103B8000223059F3233049F3213069F0C12CD4CFCE
:103B90008D919C91EBCF8D919C910496E7CFCD9028
:103BA000DD90ED90FC9020E030E0A901C701B60166
:103BB0000E94ED4087FDEACF20E030E04FE753E47C
:103BC000C701B6010E94513E181604F3C701B601A1
:103BD0000E94BE40C62EB0CFCF92DF92EF92FF92EE
:103BE000CF93DF9300D01F921F92CDB7DEB70E9414
:103BF000451DDC01892B09F44BC01496EC911497F8
:103C0000E250ED3008F044C0F0E08827E55FF14E67
:103C10008F4F0C94F240371E481E4C1E4F1E181E2C
:103C2000481E481E481E281E481E2D1E481E531E94
:103C30006C9170E090E080E00F900F900F900F90EB
:103C40000F90DF91CF91FF90EF90DF90CF9008958C
:103C50006D917D918D919C91EFCF8D919D910D9066
:103C6000BC91A02DB7FD14C0BC01CD01E5CFCD01A5
:103C70000E94CE123A834B835C836D83CA80DB80C3
:103C8000EC80FD80223059F1233059F1213079F058
:103C900060E070E0CB01D0CF8D919C91E9CF8D9108
:103CA0009C910496E5CFCD90DD90ED90FC9020E0C6
:103CB00030E0A901C701B6010E94ED4087FDE8CFC1
:103CC0002FEF3FEF4FE75FE4C701B6010E94513E7F
:103CD0001816F4F2C701B6010E94BE40ADCFF7FC42
:103CE000D7CFC701B601A8CF8F929F92AF92BF9254
:103CF000CF92DF92EF92FF920F931F93CF93DF93B8
:103D000000D000D0CDB7DEB749015A016701780174
:103D1000FB0101900020E9F73197E61BF70B9A832E
:103D200089837C836B83ED838F2F8F778E83CE0186
:103D300001960E94451D0097B9F0FC0124812A30AC
:103D400041F02C3089F480819181A281B381B7FD4B
:103D50000BC0CE0101960E94EC1D86169706A806A0
:103D6000B90610F44B015C01C501B401C616D706B3
:103D7000E806F90610F4C701B60126960FB6F894C6
:103D8000DEBF0FBECDBFDF91CF911F910F91FF908E
:103D9000EF90DF90CF90BF90AF909F908F9008955D
:103DA000CF92DF92EF92FF92CF93DF9300D01F92DA
:103DB0001F92CDB7DEB70E94451DDC01892B09F4A7
:103DC00048C01496EC911497E250ED3008F041C0D1
:103DD000F0E08827E151F14E8F4F0C94F2402C1FF8
:103DE000291F3E1F411FFC1E291F291F291F0B1FB2
:103DF000291F181F291F451F6C9170E0CB010F90E0
:103E00000F900F900F900F90DF91CF91FF90EF9058
:103E1000DF90CF9008958D919D910D90BC91A02D34
:103E2000811520E89207A105B10598F4BC01E6CF01
:103E30008D919D910D90BC91A02D6C017D0120E88C
:103E4000D20EE11CF11CC114D10421E0E206F10400
:103E500068F370E060E0D2CFCD010E94CE123A83C9
:103E60004B835C836D83CA80DB80EC80FD802230D5
:103E700049F1233099F1213061F70BC08D919C916C
:103E8000ECCF8D919C910496E8CFCD90DD90ED9094
:103E9000FC9020E030E040E057ECC701B6010E9402
:103EA000ED4087FDD6CF20E03EEF4FEF56E4C7014F
:103EB000B6010E94513E181664F2C701B6010E9475
:103EC000B7409CCFD701C6019058AF4FBF4F009766
:103ED000A140B10508F0BDCFB60190CFC11480E874
:103EE000D806E104F104C0F3B4CF0F931F93CF932E
:103EF000DF93EC018B010E94451DFC01892B29F009
:103F000084818A3051F08C30C1F0F8018081918138
:103F1000DF91CF911F910F91089580819181A281AE
:103F2000B38181159048A105B10578F7CE01DF91E5
:103F3000CF911F910F910C94D01E80819181A2810D
:103F4000B3819058AF4FBF4F0097A140B105E8F63D
:103F5000EDCF4F925F926F927F92AF92BF92CF92CE
:103F6000DF92EF92FF920F931F93CF93DF93909185
:103F70000906911105C090910A06992309F4E6C03B
:103F800090910B069111E2C0823008F0DFC080935F
:103F9000120681110AC0E0912D04F0912E04309791
:103FA00059F481E080931006D1C0E0912F04F09184
:103FB0003004309709F483C09089992309F47CC0B8
:103FC00001891289238934890417150726073707C1
:103FD00008F47EC0882309F4C8C082E080931106EB
:103FE000B5C08F898F5F8F8B9D89891708F4A9C011
:103FF0008FA5843658F40E94F93DA30192010E94D6
:10400000753F8FA5681710F01F8A9BC01F8A888D87
:10401000882351F09D899501281B310992171306B9
:1040200009F05CF4890F8D8B8B89823008F089C090
:10403000B701A6010E94651984C08FE292E00E9438
:10404000660E8D890E94F9168CE292E00E9430176C
:10405000EBCFCD8EDE8EEF8EF8A273C08DA58111D1
:1040600070C089A19AA1ABA1BCA1A7019601281B90
:10407000390B4A0B5B0BDA01C901B7FD62C08DA198
:104080009EA1AFA1B8A58C199D09AE09BF0918164C
:1040900019061A061B060CF054C08FA5843610F0C2
:1040A0000DA7C2CF0E94F93DA30192010E94753F66
:1040B0008FA56817A8F345C0882309F472CF81E063
:1040C0008DCF10921006E0912D04F0912E0408C0BF
:1040D0008823B9F310921106E0912F04F091300477
:1040E000309781F000910506109106062091070691
:1040F00030910806040F151F261F371F018B128BE6
:10410000238B348B6A017B01182FCDE2D4E0AA24E3
:10411000AA94B12C94E6492E512C612C712C01E00B
:104120008C89882371F08EA5893011F0181309C08D
:104130008A89813009F48DCF08F453CF823009F495
:104140008DCF6E9634E0C936D30751F7DF91CF910A
:104150001F910F91FF90EF90DF90CF90BF90AF90A5
:104160007F906F905F904F90089582E01BCFBF9239
:10417000CF92DF92EF92FF920F931F93CF93DF9333
:10418000EC01198D1F3F81F0612F45960E94D510DB
:10419000FC018081898F309709F477C014828FEFFA
:1041A0008583BF01812F76C06C0135E0C30ED11C21
:1041B000E880F9808F89882341F0C6010E94671149
:1041C000E62FF72F182F309749F71F89988D19136D
:1041D00024C0103109F459C0110F6D897E89D701AF
:1041E000ED91FC91B4E01B9FA0011124C616D706E7
:1041F00009F044C00190F081E02DBA01C701199582
:10420000009709F442C020E1F601DC0101900D9213
:104210002A95E1F79E8B8D8B188F0D891E898F89CA
:1042200021E0280F2F8BE4E08E9FC0011124080F9E
:10423000191F90E1B92E203111F48FE0B82EF6E06D
:10424000BF9EB0011124D701ED91FC910190F08146
:10425000E02DC7011995F80193838283892B09F416
:10426000B12CD801BC9211961C92012B71F0C601A1
:104270000E946711E62FF72F182F8DCF0480F5814C
:10428000E02DC7011995009729F681E08A8360E047
:1042900070E08FEFDF91CF911F910F91FF90EF9022
:1042A000DF90CF90BF9008954F925F926F927F9270
:1042B0008F929F92AF92BF92CF92DF92EF92FF9236
:1042C0000F931F93CF93DF9300D01F921F92CDB710
:1042D000DEB78C017B01B42E0E9445116C01892B45
:1042E00009F048C0C8010E940111863609F4A9C12D
:1042F00024F5873229F08B3561F1823209F0A8C1AB
:10430000D80115961C921E92149712968D919C912D
:104310001397892B39F48D919C910E943A07F801EB
:1043200093838283C8010E94A3146C01892B11F529
:10433000B701C8010E9482151DC0843709F460C10D
:104340008B3709F47BC08E3609F082C165ED72E0CF
:1043500060C180E4D70114968C931497E114F104A2
:1043600021F08FEF8C9311968C93B1101AC025E039
:10437000C22ED12CC6010F900F900F900F900F906E
:10438000DF91CF911F910F91FF90EF90DF90CF9031
:10439000BF90AF909F908F907F906F905F904F9065
:1043A0000895F8011286C8010E944511009751F541
:1043B0006DE5C8010E9411118111DCCFBA94D801BA
:1043C0001B966D907C90C3010E94B720A82E4B01D4
:1043D000672B21F494E0C92ED12CCCCFF701618159
:1043E0006F3F91F0C30145960E94D510DC011596F0
:1043F000AC92F701A1824B2DB401C8010E94542157
:10440000009739F06C01B6CFD7018C9311968C933D
:10441000F2CFC8010E9445110097A1F76DE5C801D0
:104420000E9411118111A6CF6CE2C8010E941111E6
:104430008111C5CF83E0C82ED12C9CCF80E2F7013B
:104440008483E114F10419F08FEF80838183BB2012
:1044500009F48DCFD8011A961C92C8010E9445110B
:10446000009781F66DE7C8010E941111811182CF7A
:10447000BA94F8011582148282819381892B49F4C0
:10448000808191810E943A07D80113969C938E9364
:104490001297C8010E9401118732F9F08232E9F0C7
:1044A000C8010E940111D82E0E94EF10882311F23A
:1044B000F80112866D2DC8010E947514C8010E9472
:1044C0000111D82E0E94EF108111F2CFD80112965F
:1044D0008D919C91892B41F47DCFC8010E94A3143A
:1044E0006C01892B09F046CFC8010E9445116C016F
:1044F000892B09F03FCF6AE3C8010E94111188237C
:1045000009F498CFD8011296ED91FC911397149667
:104510008D919C911597E80FF91F148214966D9157
:104520007C9115977F771B966D907C901C971296C7
:104530008D919C910496272F2F77BA2DB078AB2EB2
:10454000A22AE894A7F89301AC017A2DC7010E9432
:10455000C01C6C01009761F5C3010E94B720482E72
:104560004B01672B09F436CFC3010E94B720582EA8
:10457000962FC92ED72EC114D10409F42BCFF401E4
:104580005582D70111966C916F3F71F0C30145962A
:104590000E94D510FC014582D70111965C92B401AE
:1045A000C8010E94821507C0F70140825182F7CFEF
:1045B000B3010E941F164B2DB601C8010E94542161
:1045C0006C01892B09F0D6CEC8010E9445116C01FF
:1045D000892B09F0CFCE6DE7C8010E94111181111E
:1045E000C9CE6CE2C8010E941111882309F422CFC0
:1045F000C8010E9445116C01892B09F43ACFBACE4B
:1046000086E0D70114968C93149781E08C936AEC22
:1046100072E0C8010F900F900F900F900F90DF91F4
:10462000CF911F910F91FF90EF90DF90CF90BF90AF
:10463000AF909F908F907F906F905F904F900C9471
:10464000221186E0F701848310826FEC72E0E1CFE3
:10465000C8010E9401114801FDE08F0E911CB12C90
:10466000782CA92C803384F08A3384F43FE3B3168A
:10467000A9F0D8011A961C92B394F40181934F01CA
:10468000C8010E940111EECF8B3281F393ED980F98
:10469000923060F3982F9F7D953441F30B0D111DDF
:1046A000D8011D961C92872D9A2D0E94CE123A8316
:1046B0004B835C836D838A819B81AC81BD81223079
:1046C000A9F0233059F0213009F0B4CE2EE0F701E3
:1046D000248380839183A283B3834CCE2AE0F701A5
:1046E000248380839183A283B38344CE2CE0F7CFCD
:1046F0004F925F926F927F928F929F92AF92BF92F2
:10470000CF92DF92EF92FF920F931F93CF93DF939D
:10471000CDB7DEB7CF5FD1090FB6F894DEBF0FBEBD
:10472000CDBF6E012EECC20ED11C86E092E0F601E8
:1047300091838083128214821382C6010596968B20
:10474000858B178A84E0808F8FEF818F168E878FFD
:104750009E012F5F3F4F790110E000E00E94BF09EA
:1047600060939403709395038093960390939703BB
:104770008CE893E00E94BF0D97FD02C00C94A53217
:104780000E94BF098090940390909503A090960397
:10479000B0909703681979098A099B098090900362
:1047A00090909103A0909203B090930368157905BF
:1047B0008A059B05E8F20F37110561F48CE893E058
:1047C0000E94E10D892B31F08CE893E00E94BF0D2F
:1047D0000A97A1F7E1E0F0E0EC0FFD1FE00FF11FF9
:1047E00010820530110578F045E050E06AED72E086
:1047F000CE0101960E940043892B29F489E199E0BA
:104800000E943017BEC5F60160817181C601059610
:104810000E949311F601128200811181F6018381B9
:104820009481009751F0FC0120813181F60134839D
:104830002383B8010E941516F1CF168ECF57DF4F94
:10484000D982C882C158D040CD57DF4F1982188213
:10485000C358D040CB57DF4F19821882C558D0407B
:10486000C957DF4F1882C758D04021E030E02C0FE5
:104870003D1FC857DF4F39832883C858D040C557DC
:10488000DF4F1882CB58D040C457DF4FD982C8823F
:10489000CC58D0404AE0B601665E7F4FCE018F57BC
:1048A0009F4F0E9454218C01892B69F4C657DF4F1A
:1048B0008881CA58D040882331F0F601868D83FF65
:1048C00002C003E010E0CD57DF4F88819981C358C3
:1048D000D040009751F0CF57DF4FE881F981C158A0
:1048E000D040608171810E94151601151105F1F00B
:1048F00082EA96E00E94660EF801EE0FFF1FE95D66
:10490000FA4F859194910E94660E8FE996E00E947D
:1049100030178CE893E00E94E10D181619060CF090
:1049200030C58CE893E00E94BF0DF3CFCF57DF4F27
:10493000D982C882C158D04080EE92E0CD57DF4F77
:1049400099838883C358D04083E0CB57DF4F888357
:10495000C558D040CA57DF4F1881C658D04010788C
:104960001068CA57DF4F1883C658D040CE018F5702
:104970009F4F0E94451D009709F403C5FC018481E7
:10498000882309F4FEC41068CA57DF4F1883C6583D
:10499000D040CE018F579F4F0E94D01E8C01893D81
:1049A000F1E09F0709F488C00CF035C1883731E089
:1049B000930709F479C60CF084C08733914009F459
:1049C0006EC5083381E018070CF040C00D3291E04D
:1049D000190709F483C45CF560E00C32F1E01F07AD
:1049E00009F47DC40C3AF2E01F0709F42BC70CF060
:1049F00072C3093731E0130709F42FC30CF0B1C2B9
:104A00000736110511F40C94872F0CF050C20536AF
:104A1000110511F40C942D2D14F00C947B2F0436F9
:104A2000110511F40C94E22E83E395E0E9CE0F32E8
:104A300021E0120709F40FC560E0063331E01307E7
:104A400089F680911602909117024DC4033741E018
:104A5000140709F44BC434F5093381E0180711F643
:104A600000911602109117020E94BF09F801618B94
:104A7000728B838B948B85849684A784B088DC01A9
:104A8000CB01880D991DAA1DBB1D858B968BA78B0D
:104A9000B08F81E080A340ED54E066ED74E08BEDD3
:104AA00094E0FAC4043791E0190709F485C4053786
:104AB000E1E01E0709F096CF083D114009F47DC0E2
:104AC00060C48139F1E09F0709F409C5CCF58E3740
:104AD00031E0930709F4E5C41CF58D37914009F0E6
:104AE00081CFEE24EA94FE2C00E010E021E030E0DB
:104AF00040E050E064EE72E0C6010E94741E9B012B
:104B0000AC01E0911602F0911702218732874387AA
:104B100054876EEE74E088EF94E00E94291B31C444
:104B2000023881E0180709F4D4C560E0003991E04B
:104B3000190709F057CF8091180290911902D3C339
:104B40008B39E1E09E0709F4EEC47CF4833921E05F
:104B5000920709F4C6C460E08A39914009F042CF57
:104B600080911A0290911B02BEC38D3941E09407D7
:104B700009F4FBC4883D914009F034CF10ECE12EDC
:104B800017E2F12E09E010E021E030E040E050E0D3
:104B90006EEE72E0C6010E94741E9B01AC01E091B2
:104BA0001802F0911902218732874387548762ECFB
:104BB00074E08BEC94E00E94291BCF57DF4FD98221
:104BC000C882C158D0408EEE92E0CD57DF4F998316
:104BD0008883C358D04088E0CB57DF4F8883C558BF
:104BE000D040CA57DF4F8881C658D040807880684F
:104BF000CA57DF4F8883C658D040CE018F579F4F8A
:104C00000E94EC1D6093390270933A0280933B023C
:104C100090933C021DC40F3982E0180709F4DBC4ED
:104C20000CF088C0053FE1E01E0709F4C0C474F52C
:104C3000023E21E0120709F478C4C4F40C3D41E0BF
:104C4000140709F0CFCE15E3E12EF12C00E010E0BF
:104C500022E030E040E050E067EF72E0C6010E94E1
:104C6000741E809118029091190230C5063E51E0E1
:104C7000150709F441C560E0043F81E0180709F019
:104C8000B1CE80911C0290911D022DC3083592E097
:104C9000190709F497C4C4F40034F2E01F0709F0BF
:104CA000A1CE15E3E12EF12C00E010E022E030E08F
:104CB00040E050E067EF72E0C6010E94741E8091F0
:104CC0001C0290911D0202C5093522E0120709F469
:104CD00070C40B3532E0130709F084CE00911E0238
:104CE00010911F020115110509F44BC30E94BF0961
:104CF000AB01BC01F801458B568B678B708F8585A6
:104D00009685A785B089840F951FA61FB71F818F31
:104D1000928FA38FB48FFF24F394F6A2C8010E9450
:104D2000900FF801F0A641E854E067E874E08CE8E1
:104D300094E0B2C3043843E0140709F4B3C40CF0A0
:104D400075C0043A82E0180709F4E9C40CF054C0B5
:104D5000003AE2E01E0709F045CE10ECE12E17E222
:104D6000F12E09E010E021E030E040E050E06EEE8E
:104D700072E0C6010E94741E9B01AC01E0911E020C
:104D8000F0911F02309751F0258736874787508B67
:104D900062E674E08BE694E00E94291BCF57DF4F58
:104DA000D982C882C158D0408EEE92E0CD57DF4FF5
:104DB00099838883C358D04088E0CB57DF4F8883DE
:104DC000C558D040CA57DF4F8881C658D040807838
:104DD0008068CA57DF4F8883C658D040CE018F57AE
:104DE0009F4F0E94EC1D60933502709336028093B2
:104DF0003702909338022CC3093AF2E01F0709F4F6
:104E000037C40A3A22E0120709F0ECCDE0911E0205
:104E1000F0911F02309709F4B4C281E085A345E305
:104E200054E061E474E086E494E036C3003D33E08E
:104E3000130709F48EC4BCF4053853E0150709F4D0
:104E400029C4073883E0180709F0CCCD80912002EF
:104E5000909121020E947E0F4FE154E065E274E0E0
:104E60008AE294E019C3043394E0190709F4A7C453
:104E70000036E5E01E0709F0B5CD80911202909151
:104E80001302892B09F47DC215E3E12EF12C00E019
:104E900010E022E030E040E050E067EF72E0C60151
:104EA0000E94741E8091120290911302A1C40936CF
:104EB000110511F40C94423014F40C94A52F093C04
:104EC000110509F478C50D3D110509F0ADCDC251AC
:104ED000DF4F1882CE5ED040CF57DF4FD982C882D5
:104EE000C158D0408FE093E0CD57DF4F998388833E
:104EF000C358D04085E0CB57DF4F8883C558D0409A
:104F0000CA57DF4F8881C658D04080788068CA571A
:104F1000DF4F8883C658D040BE0162517F4FCE011B
:104F20008F579F4F0E945E1D182F89E996E011232D
:104F300011F083E896E090930A028093090285E0DD
:104F4000111186E080930B020E94D8114CED55E0C0
:104F5000112311F041EE55E067EE75E083EF95E027
:104F60009BC20D3D51E0150709F477C00CF060C0FD
:104F7000033891E0190709F470C00438E1E01E0716
:104F800029F00A37F1E01F0709F04ECDC251DF4F7B
:104F900019821882CE5ED040CF57DF4FD982C882A7
:104FA000C158D04083E293E0CD57DF4F9983888387
:104FB000C358D04086E0CB57DF4F8883C558D040D8
:104FC000CA57DF4F8881C658D04080788068CA575A
:104FD000DF4F8883C658D040BE0162517F4FCE015B
:104FE0008F579F4F0E94751F5C01F12C81309105F6
:104FF00031F0FF24F394029711F029E0F22E0A37E2
:1050000051E0150711F00C943E31F09203020E941A
:10501000D811F1E0FF120C945731F092010795017D
:10502000BB0C440B550B69E775E086E895E075CD40
:10503000073E21E0120789F034F40E3D41E01407E9
:1050400009F4A4CFF1CC083E51E0150709F49ECF36
:10505000013A82E0180709F0E7CCCF57DF4FD98239
:10506000C882C158D0408BEF92E0CD57DF4F998373
:105070008883C358D04085E0CB57DF4F8883C5581D
:10508000D040CA57DF4F8881C658D04080788068AA
:10509000CA57DF4F8883C658D040CE018F579F4FE5
:1050A0000E94EC1D613C27E2720729E0820791050E
:1050B00020F060EC77E289E090E0013A32E01307FB
:1050C00009F099C360934F06709350068093510680
:1050D00090935206BDC10D3494E0190711F40C945D
:1050E0005F310CF084C00233F4E01F0709F4B6C34B
:1050F000A4F4083E33E0130709F4AEC3093E43E0CD
:10510000140709F4A5C30D3A124009F08DCC81E0D3
:1051100080935D03809350039BC1083384E018079C
:1051200009F4E5C30CF056C00333144009F07CCCFD
:10513000CF57DF4FD982C882C158D04069E0E62EF0
:1051400063E0F62ECD57DF4FF982E882C358D04096
:1051500015E0CB57DF4F1883C558D040CA57DF4FF3
:105160008881C658D04080788068CA57DF4F8883CE
:10517000C658D040CE018F579F4F0E946F1D0E948E
:105180004A08CF57DF4FD982C882C158D040CD5787
:10519000DF4FF982E882C358D040CB57DF4F1883E6
:1051A000C558D040CA57DF4F8881C658D040807854
:1051B0008068CA57DF4F8883C658D040CE018F57CA
:1051C0009F4F0E94EC1D9B01AC016FE776E085E8E4
:1051D00096E0A3CC0933F4E01F0709F477C380E01D
:1051E0000C34144009F020CC0E943E17CAC005318F
:1051F00035E0130709F483C3BCF40F3454E01507FA
:1052000011F40C94703214F40C943B32083994E08D
:10521000190711F40C94623160E00431154009F073
:1052200003CC81EF96E05FC00F35F5E01F0709F46E
:1052300068C3E4F50E35154009F0F6CBCF57DF4FC4
:10524000D982C882C158D04081E093E0CD57DF4F6A
:1052500099838883C358D04087E0CB57DF4F88833A
:10526000C558D040CA57DF4F8881C658D040807893
:105270008068CA57DF4F8883C658D040CE018F5709
:105280009F4F0E94EC1D4B015C0180920C0290929A
:105290000D02A0920E02B0920F020E941D08A501FD
:1052A000940166E476E08EE496E037CC043645E07F
:1052B000140709F478C30536154009F0B5CB81E031
:1052C0008093010781EF96E090930502809304029A
:1052D00041E063E276E08EE296E006C361E0809111
:1052E0001402909115020E94FB1B4BC0EE24EA941D
:1052F000FE2C00E010E021E030E040E050E064EE01
:1053000072E0C6010E94741E9B01AC01E091140280
:10531000F0911502218732874387548769E175E050
:1053200083E295E00E94291BCF57DF4FD982C882C4
:10533000C158D04084EE92E0CD57DF4F99838883E7
:10534000C358D04089E0CB57DF4F8883C558D04041
:10535000CA57DF4F8881C658D04080788068CA57C6
:10536000DF4F8883C658D040CE018F579F4F0E9491
:10537000EC1D60933D0270933E0280933F02909338
:105380004002C6010E948716C150DF4F0FB6F89445
:10539000DEBF0FBECDBFDF91CF911F910F91FF9068
:1053A000EF90DF90CF90BF90AF909F908F907F90C5
:1053B0006F905F904F90089510ECE12E17E2F12E60
:1053C00009E010E021E030E040E050E06EEE72E0F5
:1053D000C6010E94741E9B01AC01E0911402F09181
:1053E0001502258736874787508B6CE075E085E18D
:1053F00095E00E94291BCF57DF4FD982C882C15840
:10540000D0408EEE92E0CD57DF4F99838883C3580A
:10541000D04088E0CB57DF4F8883C558D040CA576B
:10542000DF4F8881C658D04080788068CA57DF4FE8
:105430008883C658D040CE018F579F4F0E94EC1DE5
:10544000609341027093420280934302909344021E
:105450000E94D81196CF00911402109115020E945B
:10546000BF09F801618B728B838B948B8584968442
:10547000A784B088DC01CB01880D991DAA1DBB1D36
:10548000858B968BA78BB08F81E080A34DEF54E086
:1054900063E075E088E095E00E94831772CF61E0D9
:1054A000D0CA10ECE12E17E2F12E09E010E021E065
:1054B00030E040E050E06EEE72E0C6010E94741EE3
:1054C0009B01AC01E0911602F09117022587368707
:1054D0004787508B60EE74E089EE94E01ECB61E06C
:1054E0002ACB00911802109119020E94BF09F801FD
:1054F000658776878787908B81849284A384B48420
:10550000DC01CB01880D991DAA1DBB1D818B928BDF
:10551000A38BB48B81E0858B42EB54E068EB74E0A5
:105520008DEB94E0B9CF61E01BCB10ECE12E17E2DC
:10553000F12E09E010E021E030E040E050E06EEEB6
:1055400072E0C6010E94741E9B01AC01E0911A0238
:10555000F0911B02218732874387548763EA74E006
:105560008CEA94E00E94291B73CF00911A021091DB
:105570001B020E94BF09F801658776878787908B99
:1055800081849284A384B484DC01CB01880D991DAD
:10559000AA1DBB1D818B928BA38BB48B81E0858B65
:1055A00042E954E068E974E08DE994E075CF61E088
:1055B00068CB80911E0290911F0261E0009709F074
:1055C00092CEDFCE80911E0290911F0260E0009784
:1055D00009F089CED6CEEE24EA94FE2C00E010E04D
:1055E00021E030E040E050E064EE72E0C6010E944D
:1055F000741E9B01AC01E0911E02F0911F023097D6
:1056000079F0211531054105510521F021873287B7
:105610004387548761E774E08BE794E00E94291B7D
:10562000CF57DF4FD982C882C158D04084EE92E074
:10563000CD57DF4F99838883C358D04089E0CB573B
:10564000DF4F8883C558D040CA57DF4F8881C6587E
:10565000D04080788068CA57DF4F8883C658D040D2
:10566000CE018F579F4F0E946F1D8093340289CEC9
:10567000E0911E02F0911F02309749F015A24CE410
:1056800054E067E574E08CE594E00E948317109283
:105690005D03DECE61E080912002909121020E94A4
:1056A0005E176FCE60E0F7CF15E3E12EF12C00E03E
:1056B00010E022E030E040E050E067EF72E0C60129
:1056C0000E94741E80911402909115020E94661C23
:1056D00058CE15E3E12EF12C00E010E022E030E09E
:1056E00040E050E067EF72E0C6010E94741E8091B6
:1056F000160290911702EACF15E3E12EF12C00E09B
:1057000010E022E030E040E050E067EF72E0C601D8
:105710000E94741E80911A0290911B02D7CF809133
:105720001E0290911F02892B09F42BCE15E3E12E66
:10573000F12C00E010E022E030E040E050E067EFC4
:1057400072E0C6010E94741E80911E0290911F0299
:10575000BDCF15E3E12EF12C00E010E022E030E0B7
:1057600040E050E067EF72E0C6010E94741EF62E22
:105770000091200210912102F8018585882331F0E3
:1057800060E080810E94FB08F8011586F801F08234
:1057900061E08F2D0E94290960E0F80180810E945C
:1057A000FB088BED93E00E94660EF8018081082EC5
:1057B000000C990B0E9400170E94AB17E2CD80915C
:1057C000100290911102892B09F4DBCD15E3E12E33
:1057D000F12C00E010E022E030E040E050E067EF24
:1057E00072E0C6010E94741E809110029091110215
:1057F0000E949C1CC6CD093741E0140749F4609310
:10580000590370935A0380935B0390935C0320CEFB
:10581000033851E0150709F4B4CD0D3D114049F4AA
:1058200060935503709356038093570390935803E6
:105830000FCE609351037093520380935303909360
:10584000540306CE81E080935D031092500300CE96
:1058500061E087E197E047CD60E0FBCFCF57DF4FB6
:10586000D982C882C158D04081E093E0CD57DF4F44
:1058700099838883C358D04087E0CB57DF4F888314
:10588000C558D040CA57DF4F8881C658D04080786D
:105890008068CA57DF4F8883C658D040CE018F57E3
:1058A0009F4F0E94EC1D4B015C0180920C02909274
:1058B0000D02A0920E02B0920F020E941D08A501D7
:1058C00094016EE876E086E996E027C981E080934E
:1058D000270787E197E0909305028093040241E057
:1058E0006BE676E086E796E00E94001B4ACD1092B8
:1058F000270740E067E576E082E696E0F5CF61E0D5
:1059000090CCCF57DF4FD982C882C158D04059E0E0
:10591000E52E53E0F52ECD57DF4FF982E882C358CC
:10592000D04015E0CB57DF4F1883C558D040CA5739
:10593000DF4F8881C658D04080788068CA57DF4FD3
:105940008883C658D040CE018F579F4F0E946F1D4D
:105950000E944A08CF57DF4FD982C882C158D04031
:10596000CD57DF4FF982E882C358D040CB57DF4F85
:105970001883C558D040CA57DF4F8881C658D040D9
:1059800080788068CA57DF4F8883C658D040CE01E0
:105990008F579F4F0E94EC1D9B01AC0167E376E09F
:1059A0008DE396E0BAC81092010740E06FE076E020
:1059B0008AE196E099CFCF57DF4FD982C882C1588C
:1059C000D04049E0E42E43E0F42ECD57DF4FF9827A
:1059D000E882C358D04015E0CB57DF4F1883C55835
:1059E000D040CA57DF4F8881C658D0408078806841
:1059F000CA57DF4F8883C658D040CE018F579F4F7C
:105A00000E946F1D0E944A08CF57DF4FD982C8827B
:105A1000C158D040CD57DF4FF982E882C358D040FB
:105A2000CB57DF4F1883C558D040CA57DF4F888106
:105A3000C658D04080788068CA57DF4F8883C658E0
:105A4000D040CE018F579F4F0E94EC1D9B01AC01AF
:105A50006EEF75E084E096E060C80E94BF094B01DC
:105A60005C0180924C0390924D03A0924E03B09241
:105A70004F0387E296E00E947E0F10920A06109272
:105A80000B068092010690920206A0920306B09245
:105A9000040681E0809309068FE394E00E94240FBE
:105AA0008DE594E00E94240F39E6E32E34E0F32ED6
:105AB0000DE214E0F8018489882341F08289813065
:105AC00009F051C1858E968EA78EB0A2025E1F4F3F
:105AD000E016F10679F7E0E1F5E080E196E010826A
