:100000000C940E070C94B5330C948A330C945F3324
:100010000C9434330C9409330C94DE320C94B332C8
:100020000C9488320C94A0340C943F070C943F0736
:100030000C943F070C94E0330C943F070C943F075B
:100040000C943F070C943F070C943F070C943F0718
:100050000C943F070C943F070C943F070C943E32DE
:100060000C943F070C946A340C9440340C943F0772
:100070000C943F070C943F070C943F070C943F07E8
:100080000C943F070C943F070C943F070C943F07D8
:100090000C943F070C943F070C943F070C943F07C8
:1000A0000C943F070C943F070C943F070C943F07B8
:1000B0000C943F070C943F070C943F070C943F07A8
:1000C0000C943F070C943F070C943F070C943F0798
:1000D0000C943F070C943F070C943F070C943F0788
:1000E0000C943F070C94010E0C94980D0C94071F70
:1000F0000C9484080C949F080C941C1F0C94841F6F
:100100000C94BF080C94271E0C9452350C94BB0819
:100110000C94B1080C94690E0C94191F0C947A0875
:100120000C9488080C942A1E0C94AA1D0C94383246
:100130000C94A3080C94A61D0C94A11D0C94B50856
:100140000C94BB0D0C9495080C94A7080C94E61E17
:100150000C9434320C94201F0C94C90D0C948F080D
:100160000C9499080C94BF1B0C942E1E0C94901D9B
:100170000C94BA080C94041F0C9480080C948C08FE
:100180000C946B0D0C94A31D0C94BC090C94231EB1
:100190000C94841D0C94A70D0C94AD080C94031EB4
:1001A0000C94F31D0C94F31E0C94121E0C94761DEB
:1001B0000C943B320C94DB090C94D71E0C94081E53
:1001C000546F6F44656570004E6F4D656D6F727949
:1001D00000496E76616C6964496E70757400496E91
:1001E000636F6D706C657465496E70757400456DF4
:1001F000707479496E707574004F6B00CDCCCC3D36
:100200000AD7233C17B7D13877CC2B329595E62403
:100210001FB14F0A000020410000C84200401C46A8
:1002200020BCBE4CCA1B0E5AAEC59D74227D007BFD
:10023000226C6576656C223A22303031222C2264A1
:100240006576696365223A22434F4E54524F4C4CB7
:100250004552222C2264657363223A225052207444
:1002600068726573686F6C64206361707065642088
:10027000617420007B226C6576656C223A223030F6
:1002800030222C22646576696365223A22534C4DF4
:10029000222C22706172616D223A2274696D65733D
:1002A00074616D705F70696E222C2276616C756569
:1002B000223A007B226C6576656C223A2230303718
:1002C000222C22646576696365223A22434F4E549C
:1002D000524F4C4C4552222C226576656E74223A60
:1002E00022454E44222C2274696D657374616D70D1
:1002F000223A004C48005248004C455645525F4C4B
:1003000048004C455645525F524800534C4D004DF5
:100310004943524F53434F5045004C49434B004CC7
:10032000415345520050554D50320050554D5000EC
:10033000435545320043554500222C2274726163B7
:10034000655F696E74657276616C223A002C226179
:1003500063746976655F6C65766572223A22007B0C
:10036000226C6576656C223A22303030222C226471
:100370006576696365223A22434F4E54524F4C4C86
:100380004552222C22706172616469676D223A22A3
:1003900046495845445F524154494F222C227469C2
:1003A0006D656F7574223A007B226C6576656C22F0
:1003B0003A22303037222C22646576696365223A0E
:1003C00022434F4E54524F4C4C4552222C226576BC
:1003D000656E74223A225354415254222C2274697D
:1003E0006D657374616D70223A307D007B226C659F
:1003F00076656C223A22303030222C226465766990
:100400006365223A224D4943524F53434F50452290
:100410002C22706172616D223A227472696767657D
:10042000725F70696E222C2276616C7565223A00CB
:1004300046495245440074657374004D4943524F18
:1004400053434F504500494E444550454E44454E58
:1004500054006D6F6465004C4153455200434F4E4C
:1004600054494E47454E54006D6F6465004C4153EE
:100470004552006475726174696F6E004C4153455A
:1004800052006672657175656E6379004C41534523
:10049000520046495245440074657374004C415300
:1004A00045520046495245440074657374005055E6
:1004B0004D5032006475726174696F6E0050554D15
:1004C00050320046495245440074657374005055DB
:1004D0004D50006475726174696F6E0050554D50D7
:1004E00000464952454400746573740043554532D3
:1004F000006475726174696F6E0043554532006621
:1005000072657175656E63790043554532004649E1
:100510005245440074657374004355450064757218
:100520006174696F6E00435545006672657175654B
:100530006E63790043554500F901EE01DE01D101FA
:10054000C801C0017B226C6576656C223A2230308E
:1005500036222C2264657363223A22436F6D6D61EB
:100560006E64206E6F7420666F756E64227D006C01
:10057000657665725F66696C74657200434F4E54B0
:10058000524F4C4C45520073657373696F6E5F70C8
:10059000617573656400434F4E54524F4C4C455245
:1005A00000746573745F6D6F646500434F4E545201
:1005B0004F4C4C4552004649524544007465737493
:1005C0005F636861696E00434F4E54524F4C4C4517
:1005D000520050554D500050554D503200616374DB
:1005E0006976655F70756D7000434F4E54524F4C85
:1005F0004C45520074726163655F696E7465727612
:10060000616C00434F4E54524F4C4C455200726146
:1006100074696F00434F4E54524F4C4C4552007218
:1006200065696E666F72636564004C455645525F3E
:100630004C48007265696E666F72636564004C4574
:100640005645525F4C4800726174696F004C4556C4
:1006500045525F4C480074696D656F7574004C4578
:100660005645525F4C48007265696E666F726365ED
:1006700064004C455645525F5248007265696E668B
:100680006F72636564004C455645525F5248007274
:100690006174696F004C455645525F524800746959
:1006A0006D656F7574004C455645525F5248002287
:1006B0007D007B226C6576656C223A2230303622D2
:1006C0002C2264657363223A220044495341524DFF
:1006D00045440041524D454400227D002C22646572
:1006E0007363223A2200222C2270696E223A007B28
:1006F000226C6576656C223A22303031222C2264DD
:100700006576696365223A2200222C22706172614B
:100710006D223A2270696E222C2276616C756522F8
:100720003A007B226C6576656C223A2230303022AA
:100730002C22646576696365223A2200222C227697
:10074000616C7565223A00222C22706172616D2203
:100750003A22007B226C6576656C223A223030307A
:10076000222C22646576696365223A220066616CF8
:100770007365007472756500222C2276616C756554
:10078000223A00222C22706172616D223A22007B93
:10079000226C6576656C223A22303030222C22643D
:1007A0006576696365223A2200227D00222C22763A
:1007B000616C7565223A2200222C22706172616D93
:1007C000223A22007B226C6576656C223A22303018
:1007D00030222C22646576696365223A22004449FE
:1007E0005341524D45440041524D454400227D0045
:1007F0002C2264657363223A22007B226C65766545
:100800006C223A22303031222C226465766963658D
:10081000223A224D4943524F53434F5045222C22F6
:1008200070696E223A0066616C736500747275655A
:10083000002C226475726174696F6E223A002C225A
:100840006672657175656E6379223A00222C2261A9
:10085000726D6564223A007B226C6576656C223A83
:1008600022303030222C22646576696365223A2278
:100870000066616C73650074727565002C22647586
:10088000726174696F6E223A00222C2261726D656A
:1008900064223A007B226C6576656C223A22303005
:1008A00030222C22646576696365223A22006661F3
:1008B0006C7365007472756500222C2261726D651F
:1008C00064223A007B226C6576656C223A223030D5
:1008D00030222C22646576696365223A22006661C3
:1008E0006C736500747275650066616C7365007485
:1008F000727565002C227265696E666F726365643D
:10090000223A00222C2261726D6564223A007B2219
:100910006C6576656C223A22303030222C22646578
:1009200076696365223A2200027B226C6576656CEB
:10093000223A22303030222C2264657669636522A7
:100940003A22434F4E54524F4C4C4552222C227364
:100950006B65746368223A2266722E696E6F222C70
:100960002276657273696F6E223A2276332E302EAC
:10097000302D616C7068612E31222C2262617564A9
:100980005F72617465223A3131353230302C227316
:1009900063686564756C65223A2246495845445F30
:1009A000524154494F227D002C22656E645F746968
:1009B0006D657374616D70223A002C226576656EE8
:1009C00074223A224C49434B222C22737461727474
:1009D0005F74696D657374616D70223A00222C2218
:1009E00070696E223A007B226C6576656C223A2231
:1009F000303037222C22646576696365223A220002
:100A00002C22656E645F74696D657374616D70220C
:100A10003A002C226576656E74223A225354494D71
:100A2000222C2273746172745F74696D65737461D2
:100A30006D70223A007B226C6576656C223A22301A
:100A40003037222C22646576696365223A224C4154
:100A5000534552222C2270696E223A002C22657670
:100A6000656E74223A2254494D455354414D5022EB
:100A70002C2274696D657374616D70223A007B225B
:100A80006C6576656C223A22303038222C226465FF
:100A900076696365223A224D4943524F53434F5082
:100AA00045222C2270696E223A002C226576656EF2
:100AB00074223A2254494D455354414D50222C2220
:100AC00074696D657374616D70223A007B226C6588
:100AD00076656C223A22303039222C2264657669A0
:100AE0006365223A22534C4D222C2270696E223AC1
:100AF0000000002100240027002A002D00300033D0
:100B00000001010000040107010A01000022002584
:100B10000028002B002E00310034000201000005E7
:100B20000108010B01000020002300260029002CF1
:100B3000002F003200000100000301060109010539
:100B4000050505070508080808020202020A0A0846
:100B5000080404040401010101010101010303036C
:100B60000303030303040707070C0C0C0C0C0C0C09
:100B70000C0202020206060606060606060B0B0B10
:100B80000B0B0B0B0B01021020200808102040104B
:100B90002040800201020108040201010204081041
:100BA000204080804020100804020180040201805F
:100BB0004020100804020108040201010204081088
:100BC000204080010204081020408000000A0B022F
:100BD000090C0D0E080703040100000000000000CE
:100BE0000000000000000000000000000000000005
:100BF00000000000000000121110000000000000C2
:100C000000000000000000000000000000000000E4
:100C10000044495341524D45440041524D45440022
:100C2000227D002C2264657363223A22007B226CB1
:100C30006576656C223A22303031222C226465764A
:100C4000696365223A22534C4D222C2270696E2230
:100C50003A004C455645525F4C48004C455645526B
:100C60005F524800227D002C226F7269656E7461AC
:100C700074696F6E223A22002C22656E645F74697B
:100C80006D657374616D70223A00222C2273746159
:100C900072745F74696D657374616D70223A002CB3
:100CA000226576656E74223A225052455353222CA7
:100CB00022636C617373223A2200222C2270696EC7
:100CC000223A007B226C6576656C223A22303037FE
:100CD000222C22646576696365223A220054494DCC
:100CE000454F555400494E414354495645004143F0
:100CF00054495645002C227363686564756C6564BD
:100D00005F6174223A002C22746172676574223A22
:100D1000007B226C6576656C223A22303036222CBC
:100D2000226572726F725F636F6465223A22455F5B
:100D300050454E44494E475F46554C4C222C226448
:100D4000657363223A2250656E64696E6720616341
:100D500074696F6E2071756575652066756C6C20A1
:100D6000E2809420616374696F6E2064726F7070AA
:100D70006564222C22616374696F6E5F747970659B
:100D8000223A005354494D00494E465553494F4E5F
:100D900000494E465553494F4E00544F4E4500545E
:100DA0004F4E45004C415345520050554D505F3217
:100DB0000050554D505F31004355455F320043555B
:100DC000455F31002C22656E645F74696D657374D4
:100DD000616D70223A00222C2273746172745F7408
:100DE000696D657374616D70223A002C22657665B9
:100DF0006E74223A2200222C2270696E223A007B05
:100E0000226C6576656C223A22303037222C2264BF
:100E10006576696365223A220000523511241FBEAF
:100E2000CFEFD1E2DEBFCDBF00E00CBF13E0A0E00A
:100E3000B2E0EEE0F5E800E00BBF02C007900D92D3
:100E4000A435B107D9F727E0A4E5B3E001C01D92AE
:100E5000A334B207E1F717E0CEE0D7E000E006C028
:100E600021970109802FFE010E945240CD30D10709
:100E700080E00807A9F70E94DD380C9485420C94A5
:100E80000000CF93DF93EC0188819981DC01ED9123
:100E9000FC910190F081E02D64E270E019950097DB
:100EA00041F02FE1FC01238321E02283DF91CF91E8
:100EB000089521E02A83FACF8F92AF92CF92DF92EA
:100EC000EF92FF920F931F93CF93DF93CDB7DEB7CF
:100ED0005E2D10924A0410924B0471E070934C0402
:100EE00060934D0460934E0410924F04109250048E
:100EF00069E06093660464E66093670410926A0494
:100F000064E06093C8041092860463E060938704F1
:100F1000C09288041092890410928A0410928B0463
:100F200010928C04C090DF06D090E006E090E106BD
:100F3000F090E206C0928D04D0928E04E0928F046D
:100F4000F09290041092910450939204563009F05C
:100F50008A2C809293040C0D1D1D2E1D3F1D0093A5
:100F60009404109395042093960430939704FC0105
:100F700081859285A385B485809398049093990484
:100F8000A0939A04B0939B0410929C0487E08093F2
:100F90009D0489E080939E0400939F041093A00415
:100FA0002093A1043093A20400914D0610914E06A7
:100FB00020914F06309150060093A3041093A4048F
:100FC0002093A5043093A60491E09093A704409346
:100FD000A8048093A9041092AA041092AB04109262
:100FE000AC041092AD048091100690911106A0916E
:100FF0001206B09113068093AE049093AF04A093B1
:10100000B004B093B104DF91CF911F910F91FF9085
:10101000EF90DF90CF90AF908F900895609310067F
:101020007093110680931206909313063091C804B2
:10103000E6E8F4E020E023130DC030910B05E9EC65
:10104000F4E020E02317B1F04081413071F02F5FD0
:101050003B96F8CF4081413019F02F5F3B96EBCFA4
:101060006783708781879287F8CF678370878187CE
:101070009287EDCF089590914A04992339F0909189
:10108000680421E030E0992319F0089530E020E071
:101090009EE1929FF001939FF00D1124E85CFB4FBD
:1010A000858B178AF2CFEBE1F5E01082709686E02F
:1010B000EB31F807D1F708958150823108F05AC01A
:1010C000E82FF0E08827E859F74F8F4F0C945240F3
:1010D00088088C087A0880088408BA088F08950860
:1010E00099089F08A308A708AD08B108BA08B50871
:1010F000BB08BF08809180008F778093800008959F
:10110000809180008F7DF9CF80918000877FF5CF1F
:1011100084B58F7784BD089584B58F7DFBCF809192
:10112000B0008F778093B00008958091B0008F7DDC
:10113000F9CF809190008F778093900008958091EF
:1011400090008F7DF9CF80919000877FF5CF8091BF
:10115000A0008F778093A00008958091A0008F7DDC
:10116000F9CF8091A000877FF5CF809120018F7704
:10117000809320010895809120018F7DF9CF809187
:101180002001877FF5CFCF93DF93282F30E0F9013F
:10119000E553F44F8491F901EB57F44FD491F901E1
:1011A000E15CF44FC491CC23A1F081110E945C0852
:1011B000EC2FF0E0EE0FFF1FEB5DF44FA591B49123
:1011C000EC91ED2381E090E009F480E0DF91CF9194
:1011D000089580E090E0FACF1F93CF93DF93282FFC
:1011E00030E0F901E553F44F8491F901EB57F44FE6
:1011F000D491F901E15CF44FC491CC23A9F0162FEE
:1012000081110E945C08EC2FF0E0EE0FFF1FE55FFC
:10121000F44FA591B4918FB7F894EC91111108C0D7
:10122000D095DE23DC938FBFDF91CF911F9108957E
:10123000DE2BF8CFCF93DF9390E0FC01EB57F44F18
:101240002491815C944FFC0184918823C9F090E043
:10125000880F991FFC01EF50F54FA591B491FC0147
:10126000E55FF44FC591D49161110DC09FB7F8941B
:101270008C91209582238C938881282328839FBF7B
:10128000DF91CF910895623051F49FB7F8943C916B
:10129000822F809583238C93E8812E2BEFCF8FB7FD
:1012A000F894EC912E2B2C938FBFEACF3FB7F89494
:1012B0008091930390919403A0919503B09196032C
:1012C00026B5A89B05C02F3F19F00196A11DB11DA1
:1012D0003FBFBA2FA92F982F8827BC01CD01620FDD
:1012E000711D811D911D42E0660F771F881F991F98
:1012F0004A95D1F708958F929F92AF92BF92CF9265
:10130000DF92EF92FF920E9456094B015C0184E646
:10131000C82ED12CE12CF12C0E94560968197909AC
:101320008A099B09683E734081059105A8F321E075
:10133000C21AD108E108F10888EE880E83E0981EF1
:10134000A11CB11CC114D104E104F10429F7FF90E0
:10135000EF90DF90CF90BF90AF909F908F900895C7
:101360002FB7F89460918F0370919003809191034F
:10137000909192032FBF08950F931F93CF93DF9304
:10138000C0913604D0913704209781F081E08A83A0
:101390000E94B009088519852A853B85601B710B61
:1013A000820B930B6C837D838E839F83DF91CF9120
:1013B0001F910F91089508959091070289130DC010
:1013C000E8E2F9E0E4919FEF90930702E230E1F068
:1013D00038F4EE2381F0E13089F060E00C94EC0801
:1013E000E43049F110F1E530C1F7909173009D7F31
:1013F00090937300F2CF10926E00EFCF90916F0038
:101400009D7F90936F00E9CF909170009D7F9093A6
:10141000700091E09093B0009091B100987F94603B
:101420009093B1001092B300D8CF909171009D7F3E
:1014300090937100D2CF909172009D7F9093720033
:10144000CCCF4F925F926F927F928F929F92AF928A
:10145000BF92CF92DF92EF92FF920F931F93CF93A1
:10146000DF9300D01F921F92CDB7DEB78B01290109
:101470003A01909107028917C9F09F3F09F491C082
:101480000F900F900F900F900F90DF91CF911F91C1
:101490000F91FF90EF90DF90CF90BF90AF909F9013
:1014A0008F907F906F905F904F900895E8E2F9E001
:1014B00024912D8327FDE4CF61E00E941A092D813C
:1014C000222321F08D81823009F005C24801B12C20
:1014D000A12C60E072E18AE790E0A50198010E94EA
:1014E000D53E29833A834B835C8369017A0191E07D
:1014F000C91AD108E108F1082FEFC216D104E1049E
:10150000F10409F00CF4B6C160E472E48FE090E0FD
:10151000A50198010E94D53E69017A0181E0C81AAF
:10152000D108E108F1089D81923009F026C182E0DE
:101530002FEFC216D104E104F10409F00CF46CC1E0
:1015400060E970ED83E090E0A50198010E94D53E2E
:1015500069017A0181E0C81AD108E108F10883E045
:101560009FEFC916D104E104F10409F00CF454C151
:1015700068E478EE81E090E0A50198010E94D53EF4
:1015800069017A0181E0C81AD108E108F1089FEFEA
:10159000C916D104E104F10411F00CF044C184E057
:1015A0003BC180930702E8E2F9E094919D839F3F5D
:1015B00009F466CF923009F474C058F4992399F174
:1015C000913009F44CC097FD5BCF61E00E941A098D
:1015D00079CF2D81243009F4AEC008F488C02530BD
:1015E00091F71092200110922101909121019860B1
:1015F0009093210190912101916090932101282FD6
:1016000030E0F901E15CF44FE491F0E0EE0FFF1FF0
:10161000E55FF44F45915491F901EB57F44FE49194
:10162000E093650349CF14BC15BC94B5926094BD9A
:1016300095B5916095BD282F30E0F901E15CF44F3C
:10164000E491F0E0EE0FFF1FE55FF44F45915491F8
:10165000F901EB57F44FE491E09369032DCF109219
:101660008000109281009091810098609093810099
:1016700090918100916090938100282F30E0F901D2
:10168000E15CF44FE491F0E0EE0FFF1FE55FF44FF3
:1016900045915491F901EB57F44FE491E0936803BD
:1016A0000BCF1092B0001092B1009091B0009260F8
:1016B0009093B0009091B10091609093B100282F69
:1016C00030E0F901E15CF44FE491F0E0EE0FFF1F30
:1016D000E55FF44F4591549150937F0340937E030F
:1016E000F901EB57F44FE491E0938003E5CE1092BB
:1016F00090001092910090919100986090939100C9
:1017000090919100916090939100282F30E0F90121
:10171000E15CF44FE491F0E0EE0FFF1FE55FF44F62
:1017200045915491F901EB57F44FE491E09367032D
:1017300093E09D83C1CE1092A0001092A1009091E1
:10174000A10098609093A1009091A1009160909366
:10175000A100282F30E0F901E15CF44FE491F0E0C2
:10176000EE0FFF1FE55FF44F45915491F901EB57E0
:10177000F44FE491E09366039FCE2FEFC216D1049D
:10178000E104F10409F00CF4A4C068E478EE81E00F
:1017900090E0A50198010E94D53E69017A0181E09F
:1017A000C81AD108E108F1089D81992309F489C17B
:1017B0009FEFC916D104E104F10409F00CF4EFCE57
:1017C00062E17AE780E090E0A50194010E94D53EB5
:1017D00069017A0181E0C81AD108E108F1089D8108
:1017E000992309F453C186E09FEFC916D104E1049F
:1017F000F10491F088F0C980DA80EB80FC808AE007
:10180000F594E794D794C7948A95D1F781E0C81AE4
:10181000D108E108F10887E09091B100987F892B09
:101820008093B1002FC064E274EF80E090E0A501E6
:1018300094010E94D53E69017A0181E0C81AD1085D
:10184000E108F10885E09FEFC916D104E104F10435
:1018500019F310F362E17AE780E090E0A5019401CA
:101860000E94D53E69017A0181E0C81AD108E108D9
:10187000F108B9CF81E02D812111CECF95B5987FA8
:10188000892B85BD2FEF3FEFA9014114510461045D
:10189000710409F049C09D81923009F4E7C00CF051
:1018A000CEC0992309F4D3C0913009F0E9CDD0928C
:1018B0008900C09288002093760330937703409389
:1018C00078035093790380916F00826080936F005A
:1018D000D7CD82E0D0CFB12CA12C60E072E18AE7B5
:1018E00090E0A50198010E94D53E69017A0181E04E
:1018F000C81AD108E108F108C114D10491E0E90641
:10190000F10404F591E02D81213069F58091810089
:10191000887F892B809381002FEF3FEFA90141142D
:1019200051046104710419F2D801AA0FBB1FA3016D
:1019300092010E94F43E28EE33E040E050E00E9425
:10194000073FA9CF68E478EE81E090E0A501980117
:101950000E94D53E69017A0181E0C81AD108E108E8
:10196000F10893E0D0CF8D81833001F58091910013
:10197000887F892B809391002FEF3FEFA9014114BD
:1019800051046104710481F6D0929900C0929800CC
:101990002093720330937303409374035093750341
:1019A000809171008260809371006ACD2D81243016
:1019B00009F58091A100887F892B8093A1002FEFEA
:1019C0003FEFA901411451046104710409F0ACCF47
:1019D000D092A900C092A80020936E0330936F03A9
:1019E00040937003509371038091720082608093E2
:1019F000720046CD8D81853009F044CF8091210160
:101A0000887F892B809321012FEF3FEFA90141149B
:101A100051046104710409F087CFD0922901C0926A
:101A2000280120936A0330936B0340936C03509317
:101A30006D038091730082608093730021CD8D814E
:101A4000843031F20CF4A0CF853039F319CDC7BC06
:101A500020937A0330937B0340937C0350937D0360
:101A600080916E00826080936E000ACDC092B300B8
:101A70002093810330938203409383035093840324
:101A800080917000826080937000FACC84E02FEF28
:101A9000C216D104E104F10409F008F4EFCEC980C4
:101AA000DA80EB80FC809AE0F594E794D794C794B1
:101AB0009A95D1F791E0C91AD108E108F10885E0BB
:101AC000DDCE83E02FEFC216D104E104F10411F062
:101AD0000CF076CED3CEAF92BF92CF92DF92EF9240
:101AE000FF920F931F93CF93DF936C017B018B01C8
:101AF000040F151FEB015E01AE18BF08C017D10718
:101B000059F06991D601ED91FC910190F081E02DA1
:101B1000C6011995892B79F7C501DF91CF911F91E6
:101B20000F91FF90EF90DF90CF90BF90AF9008950E
:101B3000FC01538D448D252F30E0842F90E0821BD3
:101B4000930B541710F0CF96089501970895FC0158
:101B5000918D828D981761F0A28DAE0FBF2FB11DB0
:101B60005D968C91928D9F5F9F73928F90E0089508
:101B70008FEF9FEF0895FC01918D828D981731F0C2
:101B8000828DE80FF11D858D90E008958FEF9FEF16
:101B90000895FC01918D228D892F90E0805C9F4FEC
:101BA000821B91098F739927089587E993E00E941A
:101BB000C90D21E0892B09F420E0822F0895FC0152
:101BC000A48DA80FB92FB11DA35ABF4F2C91848D9E
:101BD00090E001968F739927848FA689B7892C93FB
:101BE000A089B1898C91837080648C93938D848D4E
:101BF000981306C00288F389E02D80818F7D808351
:101C00000895EF92FF920F931F93CF93DF93EC0110
:101C100081E0888F9B8D8C8D98131AC0E889F98993
:101C2000808185FF15C09FB7F894EE89FF89608396
:101C3000E889F98980818370806480839FBF81E017
:101C400090E0DF91CF911F910F91FF90EF90089559
:101C5000F62E0B8D10E00F5F1F4F0F731127E02E34
:101C60008C8D8E110CC00FB607FCFACFE889F9896C
:101C7000808185FFF5CFCE010E94DF0DF1CFEB8D86
:101C8000EC0FFD2FF11DE35AFF4FF0829FB7F89440
:101C90000B8FEA89FB8980818062CFCF0F931F93DE
:101CA000CF93DF938C01D0E0C0E0F801EC0FFD1F73
:101CB0006491662341F087E993E00E94010E892B2D
:101CC00011F02196F2CFCE01DF91CF911F910F91AC
:101CD0000895CF93DF93EC01888D8823B9F0AA890A
:101CE000BB89E889F9898C9185FD03C0808186FDD7
:101CF0000DC00FB607FCF7CF8C9185FFF2CF808126
:101D000085FFEDCFCE010E94DF0DE9CFDF91CF91AE
:101D1000089580E090E0892B29F00E94D50D811173
:101D20000E94000080E090E0892B49F080E090E084
:101D3000892B29F00E94000081110E94000080E0A0
:101D400090E0892B49F080E090E0892B29F00E94F7
:101D5000000081110E94000080E090E0892B49F092
:101D600080E090E0892B29F00E94000081110C9402
:101D700000000895CF92DF92EF92FF921F93CF93CE
:101D8000DF93EC016A017B018C810E94C30811E0A2
:101D9000892B09F410E08B85181721F0CD8ADE8A93
:101DA000EF8AF88E8D899E89AF89B88DB701A6011B
:101DB000481B590B6A0B7B0B898D90E0B0E0A0E0CB
:101DC00084179507A607B70798F48C85181781F034
:101DD0001C878A851817A9F0CA8EDB8EEC8EFD8EC3
:101DE000EAA1FBA1309721F0B701A60189851995D9
:101DF0001B87DF91CF911F91FF90EF90DF90CF90E5
:101E00000895CE8EDF8EE8A2F9A2ECA1FDA1309755
:101E100079F389851995ECCFFC0115821386148618
:101E2000158616861786108A118A128A138A148AD2
:101E3000158A168A138E8681882311F08481838304
:101E40000895CF92DF92EF92FF920F931F93CF935B
:101E5000DF93EC018E81811103C08D89882369F1A4
:101E60008C810D851E852F8538896A017B01C01AFA
:101E7000D10AE20AF30A9701860137FD18C00989E1
:101E80001A892B893C89401B510B620B730B14166A
:101E90001506160617065CF061E0DF91CF911F91E1
:101EA0000F91FF90EF90DF90CF900C94EC0860E0E2
:101EB0000E94EC088D8981111D8ADF91CF911F91BD
:101EC0000F91FF90EF90DF90CF900895CF93DF9325
:101ED000EC0161E088810E94EC0881E08C870E941F
:101EE000B0096D877E878F87988BDF91CF9108959A
:101EF000CF92DF92EF92FF92CF93DF93EC016A01D2
:101F00007B0169857A858B859C850E94B63D9B0106
:101F1000AC0160E070E080E89FE30E94A53F20E014
:101F200030E040E05FE30E94173E20E030E04AE707
:101F300054E40E94173ECD8EDE8EEF8EF8A220E094
:101F400030E040E05FE30E94393F0E941E40C60E31
:101F5000D71EE81EF91EC9A2DAA2EBA2FCA28FA12D
:101F600091E089278FA3DF91CF91FF90EF90DF90D1
:101F7000CF900895CF92DF92EF92FF92CF93DF93AD
:101F8000EC016A017B018D899E89AF89B88DAB0117
:101F90009601281B390B4A0B5B0BDA01C901B7FD0F
:101FA00049C0898D9A8DAB8DBC8DAB019601281BE4
:101FB000390B4A0B5B0BDA01C901181619061A0610
:101FC0001B06C4F18EA18823A9F189859A85AB856A
:101FD000BC850197A105B10551F461E08C81DF91C9
:101FE000CF91FF90EF90DF90CF900C94EC0889A1F7
:101FF0009AA1ABA1BCA1AB019601281B390B4A0BDE
:102000005B0BDA01C901B7FD04C0A601CE010E9435
:10201000780F8C819FA1992311F061E0E0CF60E0FF
:102020000E94EC081FA2DF91CF91FF90EF90DF900C
:10203000CF90089560E08C810E94EC081FA2898DEA
:102040009A8DAB8DBC8DC81AD90AEA0AFB0A8EA1FB
:10205000882331F01C141D041E041F040CF41EA25E
:1020600088A5882301F31C141D041E041F04DCF63C
:1020700018A6D9CF8F929F92AF92BF92CF92DF9244
:10208000EF92FF920F931F93CF93DF93EC018E811A
:10209000811104C088A1882309F445C07B01898986
:1020A0009A89AB89BC894A015B01881A990AAA0AF4
:1020B000BB0AC501B40197FD53C00D891E892F8944
:1020C000388D4A015701801A910AA20AB30A950174
:1020D000840110161106120613060CF441C02A8D55
:1020E0002223A9F10C8D1D8D2E8D3F8D200F311FC8
:1020F0002115310511F421E030E0FB8C50E040E087
:102100000E94073F60177107D8F4F1100AC0698573
:102110007A8520E030E0A9018C810E94210A81E0CB
:102120008B8F81E0898FDF91CF911F910F91FF906D
:10213000EF90DF90CF90BF90AF909F908F900895D9
:10214000FF2079F38C810E94DC091B8EEACF698520
:102150007A8520E030E0A9018C810E94210AE1CF3C
:10216000898D882301F38C810E94DC09198E1B8ED6
:1021700088A18823C1F218A2D6CF6F3FA9F0E62F1D
:10218000E295EF7044E0E49F90011124DC01ED91B1
:10219000FC91E20FF31F6F7082819381B6E06B9F19
:1021A000800D911D1124089590E080E00895982FEE
:1021B00080336CF08A3324F08F3524F08B3724F48D
:1021C00081E0089581341CF081E09B350CF080E0C3
:1021D0000895FC01828581110AC0A781B085CD01D7
:1021E0000196908787838C91818781E082878185A2
:1021F00008951F93CF93DF93EC01162F0E94E910EF
:10220000811306C01A8681E0DF91CF911F91089556
:1022100080E0FACF0F931F93CF93DF938C01EB01F4
:102220008991882369F0C8010E94E910882379F018
:10223000FE013197908198130DC0F8011286F0CFFE
:1022400090E080E0DF91CF911F910F91089582E09F
:1022500090E0F8CF83E090E0F5CFCF93DF93EC01EF
:10226000CE010E94E9108B304CF489305CF4882355
:1022700059F081E08E8390E080E00BC08D3011F04A
:102280008032B9F71A86ECCF8E81811105C081E0CA
:1022900090E0DF91CF91089582E090E0FACFDC01E9
:1022A00052969C915297915084E0989F90011124EE
:1022B0005096ED91FC91E20FF31F2281338121159D
:1022C000310579F041818081481758F481E0840F0D
:1022D000818386E0489F200D311D11242115310591
:1022E00021F460E070E08FEF0895B901892F8295A5
:1022F000807F840F0895DF92EF92FF920F931F93D8
:10230000CF93DF93EC017B01D12C688979898A898D
:10231000D816E0F484E0D89E80011124060F171F20
:10232000D80112966D917C916115710541F0D7012C
:10233000ED91FC910280F381E02DC7011995F80120
:102340001382128210821182D394DFCF1A8A8FEF08
:102350008C8BC617D70761F0D701ED91FC910280F5
:10236000F381E02DC7011995D98BC88B84E08B8B45
:10237000DF91CF911F910F91FF90EF90DF90089523
:102380008F92AF92CF92DF92EF92FF920F931F93B3
:10239000CF93DF93C0910802D09109020091850389
:1023A00010918603209187033091880341E080914A
:1023B0000302909104028951974009F440E0809013
:1023C0000002A0900102C0900202E0900A02609117
:1023D0004D04CE010E945C07E091C804E33008F48C
:1023E00054C0C558D64009F0A3C0C0905803D0903F
:1023F0005903E0905A03F0905B03409160035091C1
:1024000061036091620370916303009189041091EC
:102410008A0420918B0430918C04040F151F261F11
:10242000371F0093890410938A0420938B04309300
:102430008C048091940490919504A0919604B0919D
:102440009704840F951FA61FB71F8C0D9D1DAE1DF1
:10245000BF1D8093940490939504A0939604B09329
:10246000970480919F049091A004A091A104B09141
:10247000A204840F951FA61FB71F80939F049093FB
:10248000A004A093A104B093A204809164038823C4
:1024900009F457C0E33018F083E080939C04109255
:1024A000680481E08093690480936A0480936B04DC
:1024B00080936C0410926D0410926E041092840448
:1024C00094E69093850480930B051092C90487E0ED
:1024D0008093CA0489E08093CB0480915106909147
:1024E0005206A0915306B09154068093CC04909369
:1024F000CD04A093CE04B093CF0480914D0690916B
:102500004E06A0914F06B09150068093D004909350
:10251000D104A093D204B093D304DF91CF911F9143
:102520000F91FF90EF90DF90CF90AF908F90089534
:10253000C0905C03D0905D03E0905E03F0905F0379
:102540005CCF10926A04E9CF4F925F926F927F92B4
:102550008F929F92AF92BF92CF92DF92EF92FF92B3
:102560000F931F93CF93DF9300D01F921F92CDB78D
:10257000DEB7DC012C912B32E1F12D32D9F5019639
:10258000EE24E394FC01208130ED320F3A3010F05C
:102590002E3291F58C0160E070E0CB01F8012191C1
:1025A00030ED832E820E39E0381508F444C06A39C4
:1025B00049E97407840749E1940708F046C0AAE096
:1025C000B0E09B01AC010E94F43E912CB12CA12CF7
:1025D0002401350140945094609470944616570637
:1025E0006806790690F1680D791D8A1D9B1D8F0183
:1025F000D5CF0196E12CC6CF198229813A814B8132
:102600005C816D8170E080E090E00F900F900F9002
:102610000F900F90DF91CF911F910F91FF90EF904E
:10262000DF90CF90BF90AF909F908F907F906F90F2
:102630005F904F900895211108C0EE2051F1613054
:102640007105810550E89507A0F0F12CBAE08B2EBA
:10265000912CA12CB12C6115710530E883079105EF
:10266000F8F0A50194010E94073FCA01B901F39453
:10267000F2CF22E029839B01AC0188279927DC0156
:10268000821B930BA40BB50B8A839B83AC83BD8306
:10269000B4CF23E029836A837B838C839D83ADCF72
:1026A000F801D8012D918D0130ED320F3A3010F440
:1026B000F394F6CF2E3201F58F010F5F1F4FF80113
:1026C0000F5F1F4F2081A0EDDA2ED20EB9E0BD15AD
:1026D00098F06C3CECEC7E07ECE08E07910578F707
:1026E000AAE0B0E09B01AC010E94F43E6D0D711DAB
:1026F000811D911DFA94E3CF20812F7D10E000E031
:10270000253409F050C021812D32B1F53296CC2408
:10271000C394DF0110E000E02F2D0F2C000C330BD1
:10272000EAE0BE2EFD01DD9040ED4D0D4A30B0F5E2
:10273000B09EA001B19E500D11240D2DDD0C110B8A
:1027400000531109040F151FA801420F531F4732F0
:10275000510544F3CC20B9F080E090E0A0E0B0E86F
:10276000E11003C080E090E0DC0121E029838A834E
:102770009B83AC83BD8341CF2B3219F03196C12CA2
:10278000C8CF3296FCCF80E090E0A0E8BFEFE11028
:10279000ECCF80E090E0A0E8BFE7E7CFCC2019F0D5
:1027A0001195019511092081211126CF0F0D111DC1
:1027B000F7FC1A950E94B63D44E1A42E42E0B42EE7
:1027C000101611063CF01195019511095CEFA52E2C
:1027D00051E0B52ED12CC12C01151105E9F0F6E020
:1027E000CF16D104A9F000FF0DC0F601EE0FFF1FB8
:1027F000EE0FFF1FEA0DFB1D259135914591549178
:102800000E94173E159507952FEFC21AD20AE4CF02
:1028100060E070E080EC9FE7E110905821E02983B0
:102820006A837B838C839D83E8CECF92DF92EF9285
:10283000FF920F931F93CF93DF937C016B018A016B
:10284000FC01C081D1814F3F510509F0B0F4E8810E
:10285000F9810480F581E02D4B5F5F4FCE01199522
:10286000009759F0FC010383DF91CF911F910F91E5
:10287000FF90EF90DF90CF900895E881F98102807A
:10288000F381E02DB601CE01199581E0F701828335
:1028900090E080E0E9CF1F93CF93DF93EC01162FF8
:1028A0006A817B816115710589F04C815D81FB0135
:1028B00083818417150651F4440F551F4F5F5F4FF6
:1028C000888199810E9415149B838A838A819B81C8
:1028D000009759F02C813D81A9014F5F5F4F5D83C7
:1028E0004C83820F931FFC011483DF91CF911F91C2
:1028F00008959F92AF92BF92CF92DF92EF92FF9294
:102900000F931F93CF93DF9300D01F921F92CDB7E9
:10291000DEB78C010E94E910D82EF8011286F12C46
:10292000E12C60EFC62EC8010E94E910F801128662
:10293000D81609F4B3C0811113C082E090E00F9063
:102940000F900F900F900F90DF91CF911F910F91EB
:10295000FF90EF90DF90CF90BF90AF909F90089541
:102960008C3509F099C0C8010E94E910882329F329
:10297000E6EAF2E0853709F083C0F801128654E0F8
:10298000952EB12CA12CC8010E94E9108823A9F230
:10299000813434F48053803130F083E090E0CFCF45
:1029A0008F7D8753F8CF44E0AA0CBB1C4A95E1F712
:1029B000A82AF80112869A949110E5CFC501985D76
:1029C0008115944020F47501F3E0FF22ACCFC501DE
:1029D0009C5D81159440A8F483E0B822B701762F5E
:1029E0006627770F770F6A297B2990E080E00196B0
:1029F000603871058105910540F4C8010E944B14AF
:102A000092CFB50190E080E0F3CF1982262F2F738B
:102A100020682A8326E096958795779567952A956D
:102A2000D1F76032710580F4606C6B835E01E4E085
:102A3000AE0EB11CF50162915F01662309F473CFFC
:102A4000C8010E944B14F6CF262F2F7320682B83CA
:102A500086E0769567958A95E1F76031710538F4DF
:102A6000606E6C835E01F5E0AF0EB11CE3CF606871
:102A70006C83CD825E0126E0A20EB11CDBCF3296C4
:102A80009081992309F489CF8913F9CF8181882313
:102A900009F483CFF8011286682FAFCF828193812A
:102AA000892B19F484E090E04ACF90E080E047CF92
:102AB0006F927F928F929F92AF92BF92CF92DF924E
:102AC000EF92FF920F931F93CF93DF93EC012A8134
:102AD0003B812C5F3F4F4C815D814430510588F52F
:102AE0008901F90180E0942FB22FAE2FA21BA91704
:102AF00030F4F190A1E0F110A0E08A2BF6CF811123
:102B000020C082E0EB018C83FB01802F8B1B891797
:102B100028F4E80189918E018193F7CF640F751F26
:102B2000FB011082DF91CF911F910F91FF90EF90E9
:102B3000DF90CF90BF90AF909F908F907F906F90DD
:102B400008958B01F901E40FF51F108288819981A6
:102B50004C815D81DC011396ED91FC913A01E89482
:102B600077F86901C60CD71C3097C1F0A381A61570
:102B7000170481F449017F01B4E0EB0EF11C8C14C1
:102B80009D0429F1D401AD904D01D701BD907D0187
:102B9000AB14A9F30190F081E02DE6CF6A817B812F
:102BA0000E941514FC01A881B98113968D919C9106
:102BB0001497918380831496FC93EE9313971B8252
:102BC0001A8285E0E8018C83F983E883ABCF8281A8
:102BD0008F5F8283F6CFDB01ED91FC91119702802C
:102BE000F381E02DBC01CD011994AF92BF92CF9239
:102BF000DF92EF92FF920F931F93CF93DF93EC013D
:102C00008B018C8180FF24C0A881B981FB01838165
:102C1000948130E020E00097D9F0A817B907D1F5EA
:102C2000F8016081718112968C91129781501296F1
:102C30008C93129781110CC08D919C911197211545
:102C4000310529F1F90191838083CD010E94EB15B3
:102C50008C81807631F1209721F1F8805801F5E1DF
:102C6000AF0EB11C8FEFF816D1F06F2DC5010E9489
:102C7000BD106C01FC01E580B8010E94F515F8015A
:102C8000818DF6018083F801F18EFE2CEBCF9483C9
:102C90008383DBCF9C01FC0180819181BCCFF882D2
:102CA000F9821C82DF91CF911F910F91FF90EF90DD
:102CB000DF90CF90BF90AF9008950F931F93CF9365
:102CC000DF93EC01088119818B819C81009749F089
:102CD000FC01208131813C832B83B8010E94EB15DC
:102CE000F3CF68817981CE010596DF91CF911F9155
:102CF0000F910C947B11FC0101900020E9F73197B2
:102D0000AF01481B590BBC0187E993E00C946B0D94
:102D10008F929F92AF92BF920F931F93CF93DF93A7
:102D2000CDB7DEB7A1970FB6F894DEBF0FBECDBF0B
:102D300019A2423008F44AE08E010F5D1F4F842E25
:102D4000912CB12CA12CA50194010E94073FE62FE4
:102D5000B901CA01EA30F4F4E05DD801EE938D01C7
:102D6000232B242B252B79F790E080E0109719F086
:102D7000CD010E947B16A1960FB6F894DEBF0FBE60
:102D8000CDBFDF91CF911F910F91BF90AF909F90DA
:102D90008F900895E95CE1CF4AE00C948816CF92B9
:102DA000DF92EF92FF92CF93DF936C01990FEE08C1
:102DB000FF08F7FE19C06DE287E993E00E94010E5B
:102DC000EC0166277727CB016C197D098E099F09D5
:102DD0004AE00E9488168C0F9D1FDF91CF91FF90D3
:102DE000EF90DF90CF9008954AE0C701B601DF91E0
:102DF000CF91FF90EF90DF90CF900C948816CF93F7
:102E0000DF930E944E0EEC0189EB92E00E947B164C
:102E10008C0F9D1FDF91CF910895CF93C82F809382
:102E200020068DE29CE00E944E0E80911E06082E28
:102E3000000C990B0E94CF1683E29CE00E944E0E7C
:102E400081E19CE0CC2311F08AE19CE00E944E0ECF
:102E500080E29CE0CF910C94FF160F931F93CF93C9
:102E60008C01C62FFC0163838AEF97E00E944E0E0F
:102E7000F8018081082E000C990B0E94CF1680EF7C
:102E800097E00E944E0E8EED97E0CC2311F087EE76
:102E900097E00E944E0E8DEE97E0CF911F910F911B
:102EA0000C94FF16EF92FF920F931F93CF93DF9333
:102EB0007C018B01EA0184EC97E00E944E0EC70171
:102EC0000E944E0E88EB97E00E944E0EC8010E94B1
:102ED0004E0E8CEA97E00E944E0ECE010E944E0EDE
:102EE00089EA97E0DF91CF911F910F91FF90EF90CA
:102EF0000C94FF16CF93DF936DE787E993E00E9470
:102F0000010EEC0189EB92E00E947B168C0F9D1F55
:102F1000DF91CF9108954F925F926F927F928F923F
:102F20009F92AF92BF92EF92FF920F931F93CF9316
:102F3000DF932A013B0148015901853009F480C023
:102F400008F061C0843009F46FC0E0913E04F09154
:102F50003F041481CFE9DDE04EEBE42E4DE0F42E8A
:102F60008FEF9DE00E944E0EC7010E944E0E86EF2D
:102F70009DE00E944E0E812F110F990B0E94CF16DB
:102F80008BEE9DE00E944E0ECE010E944E0E86ED0D
:102F90009DE00E944E0E80910C0690910D06A0912E
:102FA0000E06B0910F06A3019201281B390B4A0BA4
:102FB0005B0BCA01B9010E94CC1684EC9DE00E9413
:102FC0004E0E80910C0690910D06A0910E06B091C8
:102FD0000F06A5019401281B390B4A0B5B0BCA0194
:102FE000B9010E94CC16DF91CF911F910F91FF90F4
:102FF000EF90BF90AF909F908F907F906F905F9079
:103000004F900C947A17863039F1873009F09DCFB4
:10301000E0914604F09147041481C3E8DDE084EABE
:10302000E82E8DE0F82E9CCFE0914004F091410411
:103030001481CAE9DDE038EBE32E3DE0F32E90CFBA
:10304000E0914204F09143041481C1E9DDE021EBF9
:10305000E22E2DE0F22E84CFE0914404F09145045D
:103060001481C8E8DDE09AEAE92E9DE0F92E78CFD8
:10307000CF92DF92EF92FF920F931F93CF93DF9344
:10308000EC018881813009F4D1C06A017B01813073
:1030900090F08230D1F48AE494E00E940C0F88E62C
:1030A00094E0DF91CF911F910F91FF90EF90DF900F
:1030B000CF900C940C0F8981853009F47DC070F499
:1030C0008330F1F1843009F45AC0DF91CF911F9120
:1030D0000F91FF90EF90DF90CF900895863009F424
:1030E00088C0873091F7E0914604F091470430970B
:1030F00061F38681882349F385A18111E6CF8F8111
:103100009885A985BA85C58AD68AE78AF08E8C0DFE
:103110009D1DAE1DBF1D818F928FA38FB48F81E047
:1031200086A3CF010E94780F0F81188529853A85E3
:103130000C0D1D1D2E1D3F1DB701A60187E01CC0F3
:10314000E0913E04F0913F04309709F4BECF8681B0
:10315000882309F4BACF0F81188529853A85C18A59
:10316000D28AE38AF48A0C0D1D1D2E1D3F1D058B8E
:10317000168B278B308F83E00E948B17A6CFE091B0
:103180004004F0914104309709F49FCF8681882351
:1031900009F49BCF0F81188529853A85C18AD28A87
:1031A000E38AF48A0C0D1D1D2E1D3F1D058B168B09
:1031B000278B308F84E0E0CFE0914204F09143040C
:1031C000309709F482CF8681882309F47ECF0F815E
:1031D000188529853A85C586D686E786F08A0C0D3E
:1031E0001D1D2E1D3F1D018B128B238B348B85E003
:1031F000C3CFE0914404F0914504309709F465CFC2
:103200008681882309F461CF0F81188529853A8545
:10321000C586D686E786F08A0C0D1D1D2E1D3F1D26
:10322000018B128B238B348B86E0A6CF8981E091B2
:103230003804F0913904882339F0813009F045CF02
:10324000E0913A04F0913B04309709F43ECFCF80EF
:10325000D884E984FA844C0D5D1D6E1D7F1D418B61
:10326000528B638B748B31CF2F923F924F925F9230
:103270006F927F928F929F92AF92BF92CF92DF9286
:10328000EF92FF920F931F93CF93DF9300D01F9283
:10329000CDB7DEB72A013B0103E4809F90011124E2
:1032A000912C8901C90188539B4F9A8389834BE0F4
:1032B000842E19019EE4290E311CE981FA81808156
:1032C000981608F0A0C0A92CB12CC801899C800DCB
:1032D000911D1124885C9B4FFC01E25BFF4F208114
:1032E000233039F1805B9F4FFC018081893021F0D0
:1032F00090911D0689131DC08A9CF0018B9CF00DD6
:103300001124E00FF11FE757FB4FC080D180E2800E
:10331000F380C114D104E104F10469F4B301A20102
:10332000C101989C800D911D1124885C9B4F0E94C7
:1033300038189394C2CFC40CD51CE61CF71CEBE1E3
:10334000F5E090E080E02081211125C024E0880F85
:10335000991F2A95E1F7DC01A45FBA4F8A9CF0011E
:103360008B9CF00D1124E00FF11FEA57FB4F282D25
:1033700001900D922A95E1F7885C9B4FFC01E15288
:10338000FF4FC082D182E282F3828D519F4F21E0B4
:10339000FC012083CECF019670968031910599F67D
:1033A00081E19DE00E944E0E8A9CC0018B9C900D95
:1033B0001124800F911F885C9B4F9C838B83FC01A1
:1033C000E25BFF4F608170E090E080E04AE00E94A5
:1033D000881686E09DE00E944E0EEB81FC81E15B49
:1033E000FF4F608170E090E080E04AE00E94881624
:1033F00085EF9CE00E944E0EC701B6010E94CC16DC
:103400000E947A1796CF0F900F900F900F90DF9138
:10341000CF911F910F91FF90EF90DF90CF90BF90D1
:10342000AF909F908F907F906F905F904F903F9064
:103430002F9008950F931F93CF93DF938C01D62F76
:10344000C42F8EE099E00E944E0EC8010E944E0EDD
:1034500083E099E00E944E0E89EE98E0DD2311F0A2
:103460008FEE98E00E944E0E84EF98E00E944E0E80
:103470008EED98E0CC2311F084EE98E00E944E0E81
:10348000DF91CF911F910F910C947A170F931F9397
:10349000CF938C01C62F84EC98E00E944E0EC80199
:1034A0000E944E0E89EB98E00E944E0E8EEA98E044
:1034B000CC2311F084EB98E00E944E0ECF911F9127
:1034C0000F910C947A17CF92DF92EF92FF920F93A5
:1034D0001F93CF938C01C62F69017A0184E998E08C
:1034E0000E944E0EC8010E944E0E89E898E00E948C
:1034F0004E0E81E798E0CC2311F087E798E00E9418
:103500004E0E8CE798E00E944E0EC701B6010E9455
:10351000CC16CF911F910F91FF90EF90DF90CF903D
:103520000C947A177F928F929F92AF92BF92CF9214
:10353000DF92EF92FF920F931F93CF93DF93EC01F3
:10354000762E49015A016701780187E598E00E94CB
:103550004E0ECE010E944E0E8CE498E00E944E0E5C
:1035600086E298E0772011F08CE298E00E944E0EFF
:103570008EE398E00E944E0EC501B4010E94CC1665
:1035800081E398E00E944E0EC701B6010E94CC165E
:10359000DF91CF911F910F91FF90EF90DF90CF902F
:1035A000BF90AF909F908F907F900C947A17EF927E
:1035B000FF920F931F93CF937C018B01C42F8FE851
:1035C00097E00E944E0EC7010E944E0E83E897E0DE
:1035D0000E944E0EC8010E944E0E88E797E00E949E
:1035E0004E0E8DE697E0CC2311F083E797E00E9422
:1035F0004E0ECF911F910F91FF90EF900C947A1780
:10360000CF92DF92EF92FF920F931F93CF93DF93AE
:103610008C01EB0169017A0183E597E00E944E0E6F
:10362000C8010E944E0E87E497E00E944E0ECE0124
:103630000E944E0E8CE397E00E944E0EC701B60129
:103640000E94CC16DF91CF911F910F91FF90EF90C8
:10365000DF90CF900C947A17009711F00C947B16A2
:1036600090E080E00895EF92FF920F931F93CF9325
:10367000DF93C0913804D0913904882321F0C091A0
:103680003A04D0913B04209709F472C0613009F4E8
:1036900069C008F464C0623009F467C092E5E92E9D
:1036A0009CE0F92E811104C08BE5E82E8CE0F82E09
:1036B00083EC9CE00E944E0EC7010E944E0E8AEBE6
:1036C0009CE00E944E0E6C8170E090E080E04AE049
:1036D0000E9488168FE99CE00E944E0EC8010E944D
:1036E0004E0E8AE89CE00E944E0E6A8D7B8D8C8D7A
:1036F0009D8D00910C0610910D0620910E063091C3
:103700000F06601B710B820B930B0E94CC1688E78F
:103710009CE00E944E0E6E8D7F8D88A199A1009134
:103720000C0610910D0620910E0630910F06601BBD
:10373000710B820B930B0E94CC1687E69CE00E94D3
:103740004E0ECE010D960E942C1B84E69CE0DF916C
:10375000CF911F910F91FF90EF900C94FF160EEEFA
:103760001CE09CCF05EE1CE099CF0DED1CE096CF40
:10377000DF91CF911F910F91FF90EF90089590915D
:103780001406911104C090911506992371F090913F
:10379000160691110AC060911B06882321F0813022
:1037A00021F460911C060C94331B0895CF93DF9392
:1037B000EC016E838FEE96E00E944E0E8F8198850D
:1037C0000E942C1B86EE96E00E944E0E8C81082EE5
:1037D000000C990B0E94CF168CED96E00E944E0EC5
:1037E0008E8181110AC08AEC96E00E944E0E89ED0E
:1037F00096E0DF91CF910C94FF1683ED96E0F5CF24
:1038000060E080910F02909110020E94D61B60E050
:1038100080911102909112020E94D61B60E080916B
:103820001302909114020E94D61B60E08091150251
:10383000909116020E94D61B60E080911702909131
:1038400018020E94D61B60E08091190290911A0222
:103850000E94D61B60E080911B0290911C020E9486
:10386000D61B80911D0290911E02009719F060E016
:103870000E94D61B60E080911F02909120020C9460
:103880002D171F93CF93DF93EC01162F8E81882382
:1038900021F060E0CE010E94D61B8D81813021F4A1
:1038A00060E08C810E94EC081C836D81812F0E9456
:1038B0001A098D81813021F460E08C810E94EC082E
:1038C00082E297E00E944E0E8F8198850E942C1B09
:1038D00089E097E00E944E0E8C81082E000C990B17
:1038E0000E94CF16DF91CF911F910C947A17CF933E
:1038F000DF93EC010E94411C8C810E94C30821E0EF
:10390000892B09F420E02A878C810E94C30821E0DA
:10391000892B09F420E02B878C810E94C30821E0C9
:10392000892B09F420E02C871D8A1E8A1F8A188E95
:10393000DF91CF9108959F92AF92BF92CF92DF9285
:10394000EF92FF920F931F93CF93DF938A01452B42
:1039500009F468C0E9016B016596FC016081CE0144
:103960000E94BD10FC01BB24BA94892B09F0B580DC
:103970007601E894F7F8AA24A3946701C00ED11E3B
:1039800099249394309709F44DC0AA2009F43FC0BC
:103990008481843069F0853049F1823079F5DF0126
:1039A0000D900020E9F71197CD018E1B9F0B07C0EA
:1039B0000190F081E02D90E080E0309781F79F77D3
:1039C000E816F90621F5D801AC15BD05E1F46B2D1B
:1039D000CE01DF91CF911F910F91FF90EF90DF907B
:1039E000CF90BF90AF909F900C94BD10A081B181FB
:1039F000FD01349613968C9190E0E2CF90E080E048
:103A0000F0E0E0E0DDCF9D9181919817E9F2A924E3
:103A10006B2DCE010E94BD10FC01892B09F4B2CFA1
:103A2000B580B0CF90E080E0DF91CF911F910F91F2
:103A3000FF90EF90DF90CF90BF90AF909F90089550
:103A4000FC0120813181C9014A9642815381648100
:103A50007581009759F0D9015E96EC91E03211F032
:103A600090E080E0009711F00C949B1C90E080E0C7
:103A70000895CF93DF93EB010E94201D009741F042
:103A8000FC012481263021F48081DF91CF910895BB
:103A90008881FBCFCF92DF92EF92FF92CF93DF939B
:103AA00000D01F921F92CDB7DEB70E94201DDC010F
:103AB000892B09F446C01496EC911497E250ED302E
:103AC00008F03FC0F0E08827E759F24E8F4F0C9482
:103AD0005240901DA11DA31DA61D761DA11DA11D57
:103AE000A11D841DA11D841DA11DAA1DCC908C2D7E
:103AF0000F900F900F900F900F90DF91CF91FF904C
:103B0000EF90DF90CF900895CD90DD90ED90FC90F8
:103B10008FEFC816D104E104F10449F340F311C05A
:103B2000CD010E94A4123A834B835C836D83CA80CB
:103B3000DB80EC80FD80223059F3233049F32130C3
:103B400069F0C12CD4CF8D919C91EBCF8D919C913C
:103B50000496E7CFCD90DD90ED90FC9020E030E032
:103B6000A901C701B6010E944D4087FDEACF20E0C0
:103B700030E04FE753E4C701B6010E94B13D18168B
:103B800004F3C701B6010E941E40C62EB0CFCF92EB
:103B9000DF92EF92FF92CF93DF9300D01F921F929C
:103BA000CDB7DEB70E94201DDC01892B09F44BC084
:103BB0001496EC911497E250ED3008F044C0F0E018
:103BC0008827EA51F24E8F4F0C945240121E231E4A
:103BD000271E2A1EF31D231E231E231E031E231E23
:103BE000081E231E2E1E6C9170E090E080E00F9066
:103BF0000F900F900F900F90DF91CF91FF90EF906B
:103C0000DF90CF9008956D917D918D919C91EFCF34
:103C10008D919D910D90BC91A02DB7FD14C0BC015C
:103C2000CD01E5CFCD010E94A4123A834B835C8382
:103C30006D83CA80DB80EC80FD80223059F1233017
:103C400059F1213079F060E070E0CB01D0CF8D9157
:103C50009C91E9CF8D919C910496E5CFCD90DD901C
:103C6000ED90FC9020E030E0A901C701B6010E9470
:103C70004D4087FDE8CF2FEF3FEF4FE75FE4C701EF
:103C8000B6010E94B13D1816F4F2C701B6010E94B8
:103C90001E40ADCFF7FCD7CFC701B601A8CF8F929A
:103CA0009F92AF92BF92CF92DF92EF92FF920F93CB
:103CB0001F93CF93DF9300D000D0CDB7DEB749017B
:103CC0005A0167017801FB0101900020E9F7319763
:103CD000E61BF70B9A8389837C836B83ED838F2F9D
:103CE0008F778E83CE0101960E94201D0097B9F038
:103CF000FC0124812A3041F02C3089F480819181AB
:103D0000A281B381B7FD0BC0CE0101960E94C71DF1
:103D100086169706A806B90610F44B015C01C5018A
:103D2000B401C616D706E806F90610F4C701B601B5
:103D300026960FB6F894DEBF0FBECDBFDF91CF91B0
:103D40001F910F91FF90EF90DF90CF90BF90AF90B9
:103D50009F908F900895CF92DF92EF92FF92CF9332
:103D6000DF9300D01F921F92CDB7DEB70E94201DB7
:103D7000DC01892B09F448C01496EC911497E250A9
:103D8000ED3008F041C0F0E08827E653F14E8F4F48
:103D90000C945240071F041F191F1C1FD71E041F1D
:103DA000041F041FE61E041FF31E041F201F6C9136
:103DB00070E0CB010F900F900F900F900F90DF915C
:103DC000CF91FF90EF90DF90CF9008958D919D91CE
:103DD0000D90BC91A02D811520E89207A105B10599
:103DE00098F4BC01E6CF8D919D910D90BC91A02DD2
:103DF0006C017D0120E8D20EE11CF11CC114D1043C
:103E000021E0E206F10468F370E060E0D2CFCD017A
:103E10000E94A4123A834B835C836D83CA80DB804B
:103E2000EC80FD80223049F1233099F1213061F797
:103E30000BC08D919C91ECCF8D919C910496E8CF15
:103E4000CD90DD90ED90FC9020E030E040E057EC2C
:103E5000C701B6010E944D4087FDD6CF20E03EEF5E
:103E60004FEF56E4C701B6010E94B13D181664F247
:103E7000C701B6010E9417409CCFD701C6019058D8
:103E8000AF4FBF4F0097A140B10508F0BDCFB601BD
:103E900090CFC11480E8D806E104F104C0F3B4CF98
:103EA0000F931F93CF93DF93EC018B010E94201D92
:103EB000FC01892B29F084818A3051F08C30C1F0CB
:103EC000F80180819181DF91CF911F910F91089529
:103ED00080819181A281B38181159048A105B105AE
:103EE00078F7CE01DF91CF911F910F910C94AB1E0B
:103EF00080819181A281B3819058AF4FBF4F0097CD
:103F0000A140B105E8F6EDCF4F925F926F927F929C
:103F1000AF92BF92CF92DF92EF92FF920F931F93D7
:103F2000CF93DF9390911406911105C090911506DF
:103F3000992309F4EAC0909116069111E6C08230E7
:103F400008F0E3C080931D0681110AC0E091380497
:103F5000F0913904309759F481E080931B06D5C065
:103F6000E0913A04F0913B04309709F487C09089BE
:103F7000992309F480C0018912892389348904179F
:103F800015072607370708F482C0882309F4CCC038
:103F900082E080931C06B9C08F898F5F8F8B9D89CB
:103FA000891708F4ADC08FA5843658F40E94593D96
:103FB000A30192010E94D53E8FA5681710F01F8AB9
:103FC0009FC01F8A888D882351F09D899501281BE9
:103FD00031099217130609F05CF4890F8D8B8B89D8
:103FE000823008F08DC0B701A6010E94341988C044
:103FF0008FE292E00E944E0E6D8970E090E080E0CA
:104000004AE00E9488168CE292E00E94FF16E7CFF9
:10401000CD8EDE8EEF8EF8A273C08DA5811170C09B
:1040200089A19AA1ABA1BCA1A7019601281B390BBC
:104030004A0B5B0BDA01C901B7FD62C08DA19EA1DD
:10404000AFA1B8A58C199D09AE09BF0918161906AC
:104050001A061B060CF054C08FA5843610F00DA76D
:10406000BECF0E94593DA30192010E94D53E8FA56B
:104070006817A8F345C0882309F46ECF81E089CF83
:1040800010921B06E0913804F091390408C088238F
:10409000B9F310921C06E0913A04F0913B0430977A
:1040A00081F00091100610911106209112063091B6
:1040B0001306040F151F261F371F018B128B238B2E
:1040C000348B6A017B01182FC8E3D4E0AA24AA9498
:1040D000B12C94E6492E512C612C712C01E08C8975
:1040E000882371F08EA5893011F0181309C08A89D0
:1040F000813009F48DCF08F44FCF823009F48DCF91
:104100006E9634E0C437D30751F7DF91CF911F91FA
:104110000F91FF90EF90DF90CF90BF90AF907F9086
:104120006F905F904F90089582E017CFBF92CF922B
:10413000DF92EF92FF920F931F93CF93DF93EC01E7
:10414000198D1F3F81F0612F45960E94BD10FC0123
:104150008081898F309709F477C014828FEF85832F
:10416000BF01812F76C06C0135E0C30ED11CE88001
:10417000F9808F89882341F0C6010E944F11E62FF4
:10418000F72F182F309749F71F89988D191324C0DE
:10419000103109F459C0110F6D897E89D701ED9155
:1041A000FC91B4E01B9FA0011124C616D70609F0AC
:1041B00044C00190F081E02DBA01C7011995009724
:1041C00009F442C020E1F601DC0101900D922A952C
:1041D000E1F79E8B8D8B188F0D891E898F8921E0C9
:1041E000280F2F8BE4E08E9FC0011124080F191FA8
:1041F00090E1B92E203111F48FE0B82EF6E0BF9E89
:10420000B0011124D701ED91FC910190F081E02DD6
:10421000C7011995F80193838283892B09F4B12C86
:10422000D801BC9211961C92012B71F0C6010E941C
:104230004F11E62FF72F182F8DCF0480F581E02D39
:10424000C7011995009729F681E08A8360E070E044
:104250008FEFDF91CF911F910F91FF90EF90DF9043
:10426000CF90BF9008954F925F926F927F928F92FE
:104270009F92AF92BF92CF92DF92EF92FF920F93F5
:104280001F93CF93DF9300D01F921F92CDB7DEB75D
:104290008C017B01B42E0E942D116C01892B09F039
:1042A00048C0C8010E94E910863609F4A9C124F566
:1042B000873229F08B3561F1823209F0A8C1D8012B
:1042C00015961C921E92149712968D919C9113979D
:1042D000892B39F48D919C910E944107F8019383B9
:1042E0008283C8010E9479146C01892B11F5B701F2
:1042F000C8010E9458151DC0843709F460C18B376E
:1043000009F47BC08E3609F082C164ED72E060C1B1
:1043100080E4D70114968C931497E114F10421F0F2
:104320008FEF8C9311968C93B1101AC025E0C22E9A
:10433000D12CC6010F900F900F900F900F90DF912E
:10434000CF911F910F91FF90EF90DF90CF90BF9092
:10435000AF909F908F907F906F905F904F90089557
:10436000F8011286C8010E942D11009751F56DE5E4
:10437000C8010E94F9108111DCCFBA94D8011B96B4
:104380006D907C90C3010E949620A82E4B01672B54
:1043900021F494E0C92ED12CCCCFF70161816F3F7D
:1043A00091F0C30145960E94BD10DC011596AC92B8
:1043B000F701A1824B2DB401C8010E94332100975F
:1043C00039F06C01B6CFD7018C9311968C93F2CF54
:1043D000C8010E942D110097A1F76DE5C8010E9448
:1043E000F9108111A6CF6CE2C8010E94F910811169
:1043F000C5CF83E0C82ED12C9CCF80E2F701848307
:10440000E114F10419F08FEF80838183BB2009F45C
:104410008DCFD8011A961C92C8010E942D110097C9
:1044200081F66DE7C8010E94F910811182CFBA941C
:10443000F8011582148282819381892B49F480814D
:1044400091810E944107D80113969C938E931297F5
:10445000C8010E94E9108732F9F08232E9F0C80100
:104460000E94E910D82E0E94D710882311F2F8017B
:1044700012866D2DC8010E944B14C8010E94E910DC
:10448000D82E0E94D7108111F2CFD80112968D91AB
:104490009C91892B41F47DCFC8010E9479146C0155
:1044A000892B09F046CFC8010E942D116C01892B80
:1044B00009F03FCF6AE3C8010E94F910882309F48C
:1044C00098CFD8011296ED91FC91139714968D9187
:1044D0009C911597E80FF91F148214966D917C91A9
:1044E00015977F771B966D907C901C9712968D91F7
:1044F0009C910496272F2F77BA2DB078AB2EA22A45
:10450000E894A7F89301AC017A2DC7010E949B1C87
:104510006C01009761F5C3010E949620482E4B0163
:10452000672B09F436CFC3010E949620582E962F90
:10453000C92ED72EC114D10409F42BCFF401558212
:10454000D70111966C916F3F71F0C30145960E949F
:10455000BD10FC014582D70111965C92B401C801DF
:104560000E94581507C0F70140825182F7CFB3016E
:104570000E94F5154B2DB601C8010E9433216C0134
:10458000892B09F0D6CEC8010E942D116C01892B10
:1045900009F0CFCE6DE7C8010E94F9108111C9CE94
:1045A0006CE2C8010E94F910882309F422CFC801E7
:1045B0000E942D116C01892B09F43ACFBACE86E006
:1045C000D70114968C93149781E08C9369EC72E078
:1045D000C8010F900F900F900F900F90DF91CF9127
:1045E0001F910F91FF90EF90DF90CF90BF90AF9011
:1045F0009F908F907F906F905F904F900C940A11D6
:1046000086E0F701848310826EEC72E0E1CFC8018E
:104610000E94E9104801FDE08F0E911CB12C782C0E
:10462000A92C803384F08A3384F43FE3B316A9F0D5
:10463000D8011A961C92B394F40181934F01C801DA
:104640000E94E910EECF8B3281F393ED980F9230F8
:1046500060F3982F9F7D953441F30B0D111DD80108
:104660001D961C92872D9A2D0E94A4123A834B838B
:104670005C836D838A819B81AC81BD812230A9F0EE
:10468000233059F0213009F0B4CE2EE0F701248315
:1046900080839183A283B3834CCE2AE0F7012483E5
:1046A00080839183A283B38344CE2CE0F7CF4F92D3
:1046B0005F926F927F928F929F92AF92BF92CF92B2
:1046C000DF92EF92FF920F931F93CF93DF93CDB7BB
:1046D000DEB7CF5FD1090FB6F894DEBF0FBECDBFF6
:1046E0006E012EECC20ED11C85E092E0F6019183A2
:1046F0008083128214821382C6010596968B858B65
:10470000178A84E0808F8FEF818F168E878F9E01AE
:104710002F5F3F4F790110E000E00E94B0096093E5
:104720009F037093A0038093A1039093A20387E952
:1047300093E00E94A70D97FD02C00C9423320E94C3
:10474000B00980909F039090A003A090A103B09027
:10475000A203681979098A099B0980909B039090AC
:104760009C03A0909D03B0909E03681579058A056F
:104770009B05E8F20F37110561F487E993E00E9489
:10478000C90D892B31F087E993E00E94A70D0A97A4
:10479000A1F7E1E0F0E0EC0FFD1FE00FF11F108248
:1047A0000530110578F045E050E069ED72E0CE018A
:1047B00001960E946042892B29F489E299E00E94C7
:1047C000FF16FCC5F60160817181C60105960E9445
:1047D0007B11F601128200811181F601838194819F
:1047E000009751F0FC0120813181F601348323834D
:1047F000B8010E94EB15F1CF168ECF57DF4FD9824B
:10480000C882C158D040CD57DF4F19821882C35893
:10481000D040CB57DF4F19821882C558D040C957B6
:10482000DF4F1882C758D04021E030E02C0F3D1FE9
:10483000C857DF4F39832883C858D040C557DF4F4A
:104840001882CB58D040C457DF4FD982C882CC5889
:10485000D0404AE0B601665E7F4FCE018F579F4F32
:104860000E9433218C01892B69F4C657DF4F888160
:10487000CA58D040882331F0F601868D83FF02C0EC
:1048800003E010E0CD57DF4F88819981C358D040B5
:10489000009751F0CF57DF4FE881F981C158D040E0
:1048A000608171810E94EB1501151105F1F082EB19
:1048B00096E00E944E0EF801EE0FFF1FE85CFA4FE3
:1048C000859194910E944E0E8FEA96E00E94FF1609
:1048D00087E993E00E94C90D181619060CF06EC501
:1048E00087E993E00E94A70DF3CFCF57DF4FD9821E
:1048F000C882C158D0408FED92E0CD57DF4F9983E9
:104900008883C358D04083E0CB57DF4F8883C55896
:10491000D040CA57DF4F1881C658D0401078106871
:10492000CA57DF4F1883C658D040CE018F579F4FCC
:104930000E94201D009709F441C5FC018481882351
:1049400009F43CC51068CA57DF4F1883C658D040D9
:10495000CE018F579F4F0E94AB1E8C01893DF1E025
:104960009F0709F488C00CF035C1883731E0930700
:1049700009F4B7C60CF084C08733914009F4ACC584
:10498000083381E018070CF040C00D3291E01907A0
:1049900009F4C1C45CF560E00C32F1E01F0709F4D2
:1049A000BBC4083EF1E01F0709F429C30CF0C5C3DE
:1049B0000C3D110511F40C94012D0CF0B5C2073615
:1049C000110511F40C94812F0CF050C2053611051D
:1049D00011F40C94392D14F00C94752F0436110534
:1049E00011F40C94E82E84E495E0E9CE0F3221E036
:1049F000120709F44DC560E0063331E0130789F66C
:104A000080911502909116028BC4033741E0140780
:104A100009F489C434F5093381E0180711F60091CF
:104A20001502109116020E94B009F801618B728B79
:104A3000838B948B85849684A784B088DC01CB011A
:104A4000880D991DAA1DBB1D858B968BA78BB08FDA
:104A500081E080A341EE54E067EE74E08CEE94E0D8
:104A600038C5043791E0190709F4C3C40537E1E0FC
:104A70001E0709F096CF083D114009F47DC09EC481
:104A80008139F1E09F0709F447C5CCF58E3731E055
:104A9000930709F423C51CF58D37914009F081CFA8
:104AA000EE24EA94FE2C00E010E021E030E040E04B
:104AB00050E063EE72E0C6010E944F1E9B01AC0104
:104AC000E0911502F09116022187328743875487BF
:104AD0006FEF74E089E095E00E94001B6FC402381C
:104AE00081E0180709F412C660E0003991E0190767
:104AF00009F057CF809117029091180211C48B3999
:104B0000E1E09E0709F42CC57CF4833921E092078B
:104B100009F404C560E08A39914009F042CF8091E0
:104B2000190290911A02FCC38D3941E0940709F4EF
:104B300039C5883D914009F034CF10ECE12E17E2E1
:104B4000F12E09E010E021E030E040E050E06DEEB1
:104B500072E0C6010E944F1E9B01AC01E09117025A
:104B6000F0911802218732874387548763ED74E000
:104B70008CED94E00E94001BCF57DF4FD982C88292
:104B8000C158D0408DEE92E0CD57DF4F9983888396
:104B9000C358D04088E0CB57DF4F8883C558D040FA
:104BA000CA57DF4F8881C658D04080788068CA577E
:104BB000DF4F8883C658D040CE018F579F4F0E9449
:104BC000C71D609338027093390280933A02909324
:104BD0003B025BC40F3982E0180709F419C50CF0D9
:104BE00088C0053FE1E01E0709F4FEC474F5023EEB
:104BF00021E0120709F4B6C4C4F40C3D41E01407E7
:104C000009F0CFCE15E3E12EF12C00E010E022E018
:104C100030E040E050E066EF72E0C6010E944F1EB7
:104C200080911702909118026EC5063E51E015075B
:104C300009F47FC560E0043F81E0180709F0B1CEB8
:104C400080911B0290911C026BC3083592E01907FA
:104C500009F4D5C4C4F40034F2E01F0709F0A1CE72
:104C600015E3E12EF12C00E010E022E030E040E01E
:104C700050E066EF72E0C6010E944F1E80911B0259
:104C800090911C0240C5093522E0120709F4AEC418
:104C90000B3532E0130709F084CE00911D0210910C
:104CA0001E020115110509F489C30E94B009AB0168
:104CB000BC01F801458B568B678B708F8585968577
:104CC000A785B089840F951FA61FB71F818F928F6C
:104CD000A38FB48FFF24F394F6A2C8010E94780F2B
:104CE000F801F0A642E954E068E974E08DE994E047
:104CF000F0C3043843E0140709F4F1C40CF075C0A4
:104D0000043A82E0180709F427C50CF054C0003AB1
:104D1000E2E01E0709F045CE10ECE12E17E2F12E7D
:104D200009E010E021E030E040E050E06DEE72E09C
:104D3000C6010E944F1E9B01AC01E0911D02F09143
:104D40001E02309751F0258736874787508B63E7DF
:104D500074E08CE794E00E94001BCF57DF4FD982AC
:104D6000C882C158D0408DEE92E0CD57DF4F998375
:104D70008883C358D04088E0CB57DF4F8883C5581D
:104D8000D040CA57DF4F8881C658D04080788068AD
:104D9000CA57DF4F8883C658D040CE018F579F4FE8
:104DA0000E94C71D609334027093350280933602CF
:104DB000909337026AC3093AF2E01F0709F475C4F9
:104DC0000A3A22E0120709F0ECCDE0911D02F091C1
:104DD0001E02309709F4F2C281E085A346E454E054
:104DE00062E574E087E594E074C3003D33E01307A7
:104DF00009F4CCC4BCF4053853E0150709F467C4C2
:104E0000073883E0180709F0CCCD80911F029091FC
:104E100020020E94660F40E354E066E374E08BE3F7
:104E200094E057C3043394E0190709F4E5C400364D
:104E3000E5E01E0709F0B5CD8091110290911202B4
:104E4000892B09F4BBC215E3E12EF12C00E010E040
:104E500022E030E040E050E066EF72E0C6010E94E0
:104E60004F1E8091110290911202DFC40936110584
:104E700011F40C943C3014F40C949F2F093C110550
:104E800009F0B1CDCF57DF4FD982C882C158D04089
:104E900048E0E42E43E0F42ECD57DF4FF982E8825C
:104EA000C358D04015E0CB57DF4F1883C558D040CA
:104EB000CA57DF4F8881C658D04080788068CA576B
:104EC000DF4F8883C658D040CE018F579F4F0E9436
:104ED0004A1D0E943B08CF57DF4FD982C882C15874
:104EE000D040CD57DF4FF982E882C358D040CB572E
:104EF000DF4F1883C558D040CA57DF4F8881C65846
:104F0000D04080788068CA57DF4F8883C658D04029
:104F1000CE018F579F4F0E94C71D9B01AC016EE0D1
:104F200076E084E196E0D8CD033831E0130709F448
:104F3000C2C00CF058C0093751E0150709F4BBC0D6
:104F40000A3781E0180709F45AC00D3D110509F030
:104F50004ACDC251DF4F1882CE5ED040CF57DF4FCF
:104F6000D982C882C158D04087E193E0CD57DF4F46
:104F700099838883C358D04085E0CB57DF4F88831F
:104F8000C558D040CA57DF4F8881C658D040807876
:104F90008068CA57DF4F8883C658D040BE0162512F
:104FA0007F4FCE018F579F4F0E94391D182F8BE9DD
:104FB00096E0112311F085E896E090930902809322
:104FC000080285E0111186E080930A020E94C01158
:104FD00042ED55E0112311F047ED55E06DED75E020
:104FE00089EE95E076C20D3D91E0190709F463C0A2
:104FF0000CF057C00438F1E01F0709F0F4CCC2519F
:10500000DF4F19821882CE5ED040CF57DF4FD98252
:10501000C882C158D0408BE293E0CD57DF4F9983CF
:105020008883C358D04086E0CB57DF4F8883C5586C
:10503000D040CA57DF4F8881C658D04080788068FA
:10504000CA57DF4F8883C658D040BE0162517F4F98
:10505000CE018F579F4F0E94501F5C01F12C813071
:10506000910531F0FF24F394029711F029E0F22E1C
:105070000A3751E0150711F00C943431F092020216
:105080000E94C011E1E0FE120C944531F09203073A
:105090009501BB0C440B550B6FE675E08CE795E072
:1050A0001BCD0E3D21E0120709F4A9CF073E31E0E8
:1050B000130709F098CCCF57DF4FD982C882C15867
:1050C000D0408AEF92E0CD57DF4F99838883C35851
:1050D000D04085E0CB57DF4F8883C558D040CA57B2
:1050E000DF4F8881C658D04080788068CA57DF4F2C
:1050F0008883C658D040CE018F579F4F0E94C71D4E
:1051000061362AEE72078105910520F060E67AEE9D
:1051100080E090E0013A32E0130709F089C3609320
:1051200051067093520680935306909354068091D3
:105130006403882309F442C1A8C10C3444E0140775
:1051400011F40C944D310CF073C0093E83E0180744
:1051500009F499C38CF40C3AE2E01E0709F48FC3FA
:1051600060E0083EF3E01F0709F48EC3013A22E035
:10517000120709F038CC9FCF033334E0130709F44A
:1051800086C3E4F50233144009F02DCCCF57DF4F2E
:10519000D982C882C158D04080E093E0CD57DF4F1C
:1051A00099838883C358D04087E0CB57DF4F8883EB
:1051B000C558D040CA57DF4F8881C658D040807844
:1051C0008068CA57DF4F8883C658D040CE018F57BA
:1051D0009F4F0E94C71D4B015C0180920B02909271
:1051E0000C02A0920D02B0920E020E940E08A501C0
:1051F00094016EE976E086EA96E06ECC083384E0AE
:10520000180709F496C30933144009F0ECCB81E088
:105210008093290789E197E0909304028093030229
:1052200041E06BE776E086E896E00E94D71AC6C0B8
:105230000531E5E01E0709F484C39CF4083924E035
:10524000120711F40C945031043135E0130709F4BE
:105250007CC30D34144009F0C6CB81E00E940D17C9
:10526000ADC00F3555E0150709F471C3E4F50E35EF
:10527000154009F0B8CBCF57DF4FD982C882C1584B
:10528000D04080E093E0CD57DF4F99838883C358A7
:10529000D04087E0CB57DF4F8883C558D040CA57EE
:1052A000DF4F8881C658D04080788068CA57DF4F6A
:1052B0008883C658D040CE018F579F4F0E94C71D8C
:1052C0004B015C0180920B0290920C02A0920D02A5
:1052D000B0920E020E940E08A501940166E576E0E8
:1052E0008EE596E0F9CB0436E5E01E0709F481C3AC
:1052F0000536154009F077CB81E08093030783EFF3
:1053000096E0909304028093030241E063E376E029
:105310008EE396E08ACF61E08091130290911402AF
:105320000E94D61B4BC0EE24EA94FE2C00E010E055
:1053300021E030E040E050E063EE72E0C6010E9400
:105340004F1E9B01AC01E0911302F09114022187E2
:105350003287438754876AE275E084E395E00E94D0
:10536000001BCF57DF4FD982C882C158D04083EE8F
:1053700092E0CD57DF4F99838883C358D04089E0AE
:10538000CB57DF4F8883C558D040CA57DF4F88813D
:10539000C658D04080788068CA57DF4F8883C65887
:1053A000D040CE018F579F4F0E94C71D60933C0293
:1053B00070933D0280933E0290933F02C6010E948B
:1053C0005D16C150DF4F0FB6F894DEBF0FBECDBFE4
:1053D000DF91CF911F910F91FF90EF90DF90CF90D1
:1053E000BF90AF909F908F907F906F905F904F9005
:1053F000089510ECE12E17E2F12E09E010E021E013
:1054000030E040E050E06DEE72E0C6010E944F1EB9
:105410009B01AC01E0911302F091140225873687BD
:105420004787508B6DE175E086E295E00E94001B96
:10543000CF57DF4FD982C882C158D0408DEE92E05D
:10544000CD57DF4F99838883C358D04088E0CB572E
:10545000DF4F8883C558D040CA57DF4F8881C65870
:10546000D04080788068CA57DF4F8883C658D040C4
:10547000CE018F579F4F0E94C71D609340027093CB
:10548000410280934202909343020E94C01196CF42
:1054900000911302109114020E94B009F801618B6F
:1054A000728B838B948B85849684A784B088DC016F
:1054B000CB01880D991DAA1DBB1D858B968BA78BD3
:1054C000B08F81E080A34EE055E064E175E089E1B2
:1054D00095E00E94521772CF61E092CA10ECE12E63
:1054E00017E2F12E09E010E021E030E040E050E06A
:1054F0006DEE72E0C6010E944F1E9B01AC01E0916F
:105500001502F0911602258736874787508B61EF89
:1055100074E08AEF94E0E0CA61E0ECCA00911702FF
:10552000109118020E94B009F80165877687878775
:10553000908B81849284A384B484DC01CB01880D98
:10554000991DAA1DBB1D818B928BA38BB48B81E00F
:10555000858B43EC54E069EC74E08EEC94E0B9CFB9
:1055600061E0DDCA10ECE12E17E2F12E09E010E057
:1055700021E030E040E050E06DEE72E0C6010E94B4
:105580004F1E9B01AC01E0911902F0911A02218794
:1055900032874387548764EB74E08DEB94E00E947C
:1055A000001B73CF0091190210911A020E94B009DA
:1055B000F801658776878787908B81849284A3849E
:1055C000B484DC01CB01880D991DAA1DBB1D818B04
:1055D000928BA38BB48B81E0858B43EA54E069EA1C
:1055E00074E08EEA94E075CF61E02ACB80911D02D1
:1055F00090911E0261E0009709F092CEDFCE80917B
:105600001D0290911E0260E0009709F089CED6CE6F
:10561000EE24EA94FE2C00E010E021E030E040E0CF
:1056200050E063EE72E0C6010E944F1E9B01AC0188
:10563000E0911D02F0911E02309779F0211531059D
:105640004105510521F0218732874387548762E85D
:1056500074E08CE894E00E94001BCF57DF4FD982A2
:10566000C882C158D04083EE92E0CD57DF4F998376
:105670008883C358D04089E0CB57DF4F8883C55813
:10568000D040CA57DF4F8881C658D04080788068A4
:10569000CA57DF4F8883C658D040CE018F579F4FDF
:1056A0000E944A1D8093330289CEE0911D02F09141
:1056B0001E02309749F015A24DE554E068E674E00B
:1056C0008DE694E00E94521710926403DECE61E0F2
:1056D00080911F02909120020E942D176FCE60E0F2
:1056E000F7CF15E3E12EF12C00E010E022E030E0EE
:1056F00040E050E066EF72E0C6010E944F1E8091CC
:105700001302909114020E94411C58CE15E3E12E21
:10571000F12C00E010E022E030E040E050E066EFE5
:1057200072E0C6010E944F1E8091150290911602F0
:10573000EACF15E3E12EF12C00E010E022E030E0AA
:1057400040E050E066EF72E0C6010E944F1E80917B
:10575000190290911A02D7CF80911D0290911E02DA
:10576000892B09F42BCE15E3E12EF12C00E010E09B
:1057700022E030E040E050E066EF72E0C6010E94B7
:105780004F1E80911D0290911E02BDCF15E3E12EA8
:10579000F12C00E010E022E030E040E050E066EF65
:1057A00072E0C6010E944F1EF62E00911F0210915A
:1057B0002002F8018485882331F060E080810E9416
:1057C000EC08F8011486F801F08261E08F2D0E9448
:1057D0001A0960E0F80180810E94EC088CEE93E0E9
:1057E0000E944E0EF8018081082E000C990B0E9439
:1057F000CF160E947A17E2CD80910F02909110028D
:10580000892B09F4DBCD15E3E12EF12C00E010E04B
:1058100022E030E040E050E066EF72E0C6010E9416
:105820004F1E80910F02909110020E94771CC6CDEE
:10583000093741E0140749F46093600370936103F2
:10584000809362039093630320CE033851E01507E1
:1058500009F4B4CD0D3D114049F460935C0370939D
:105860005D0380935E0390935F030FCE60935803B4
:105870007093590380935A0390935B0306CE81E0A3
:105880008093640302CE61E089E197E049CDCF5770
:10589000DF4FD982C882C158D04068E0E62E63E06D
:1058A000F62ECD57DF4FF982E882C358D04015E07D
:1058B000CB57DF4F1883C558D040CA57DF4F888178
:1058C000C658D04080788068CA57DF4F8883C65852
:1058D000D040CE018F579F4F0E944A1D0E943B0827
:1058E000CF57DF4FD982C882C158D040CD57DF4F44
:1058F000F982E882C358D040CB57DF4F1883C55890
:10590000D040CA57DF4F8881C658D0408078806821
:10591000CA57DF4F8883C658D040CE018F579F4F5C
:105920000E94C71D9B01AC016FE876E085E996E017
:10593000D3C81092290740E067E676E082E796E058
:1059400074CC61E083EF96E0EBCC60E0FBCFCF5707
:10595000DF4FD982C882C158D04058E0E52E53E0CD
:10596000F52ECD57DF4FF982E882C358D04015E0BD
:10597000CB57DF4F1883C558D040CA57DF4F8881B7
:10598000C658D04080788068CA57DF4F8883C65891
:10599000D040CE018F579F4F0E944A1D0E943B0866
:1059A000CF57DF4FD982C882C158D040CD57DF4F83
:1059B000F982E882C358D040CB57DF4F1883C558CF
:1059C000D040CA57DF4F8881C658D0408078806861
:1059D000CA57DF4F8883C658D040CE018F579F4F9C
:1059E0000E94C71D9B01AC0167E476E08DE496E060
:1059F00073C81092030740E06FE176E08AE296E018
:105A000014CCCF57DF4FD982C882C158D0408EE026
:105A100093E0CD57DF4F99838883C358D04088E007
:105A2000CB57DF4F8883C558D040CA57DF4F888196
:105A3000C658D04080788068CA57DF4F8883C658E0
:105A4000D040CE018F579F4F0E94C71D4B015C0174
:105A50008092850390928603A0928703B092880378
:105A60000E94C011A501940164EF75E083E096E007
:105A700033C80E94B0094B015C018092540390929C
:105A80005503A0925603B09257038AE296E00E9413
:105A9000660F109215061092160680920C069092D0
:105AA0000D06A0920E06B0920F0681E080931406B8
:105AB0008AE494E00E940C0F88E694E00E940C0FA8
:105AC00034E7E32E34E0F32E08E314E0F801848990
:105AD000882341F08289813009F04BC1858E968EF2
