:100000000C941F070C9494320C9469320C943E3279
:100010000C9413320C94E8310C94BD310C94923151
:100020000C9467310C947F330C9450070C94500758
:100030000C9450070C94BF320C9450070C9450074A
:100040000C9450070C9450070C9450070C945007D4
:100050000C9450070C9450070C9450070C941D31CD
:100060000C9450070C9449330C941F330C94500794
:100070000C9450070C9450070C9450070C945007A4
:100080000C9450070C9450070C9450070C94500794
:100090000C9450070C9450070C9450070C94500784
:1000A0000C9450070C9450070C9450070C94500774
:1000B0000C9450070C9450070C9450070C94500764
:1000C0000C9450070C9450070C9450070C94500754
:1000D0000C9450070C9450070C9450070C94500744
:1000E0000C9450070C94F6290C9490080C94A408D6
:1000F0000C94C50D0C943D2A0C94A0080C940B0E86
:100100000C9496080C94661E0C94F2290C949A0890
:100110000C944A1E0C94E5090C948D080C948C1ECA
:100120000C94BC080C943A2A0C94591E0C94A11DF2
:100130000C94C0080C9413310C94B2080C94D30D99
:100140000C947B080C94F71E0C94661D0C947B1D7C
:100150000C941A310C94BD090C94931E0C94730EDC
:100160000C940F2A0C947A1E0C948F1E0C949A1DDA
:100170000C94BB080C94012A0C9481080C94AE08D2
:100180000C94A8080C94AC1B0C94B6080C94961D07
:100190000C94412A0C94032A0C94761D0C94771E1F
:1001A0000C942E340C94A20D0C94750D0C949D1D82
:1001B0000C9485080C9417310C94851D0C94B10D8A
:1001C0000C948908546F6F44656570004E6F4D65DF
:1001D0006D6F727900496E76616C6964496E7075F5
:1001E0007400496E636F6D706C657465496E7075EF
:1001F0007400456D707479496E707574004F6B00B2
:10020000CDCCCC3D0AD7233C17B7D13877CC2B3295
:100210009595E6241FB14F0A000020410000C84216
:1002200000401C4620BCBE4CCA1B0E5AAEC59D7475
:10023000227D007B226C6576656C223A223030315B
:10024000222C22646576696365223A22434F4E541C
:10025000524F4C4C4552222C2264657363223A2241
:100260005052207468726573686F6C6420636170AB
:1002700070656420617420007B226C6576656C2259
:100280003A22303030222C22646576696365223A46
:1002900022534C4D222C22706172616D223A2274DD
:1002A000696D657374616D705F70696E222C227662
:1002B000616C7565223A007B226C6576656C223A2A
:1002C00022303036222C22646576696365223A2218
:1002D000534C4D222C226572726F72223A22706941
:1002E0006E5F6E6F745F7063696E7430222C22765D
:1002F000616C7565223A007B226C6576656C223AEA
:1003000022303037222C22646576696365223A22D6
:10031000434F4E54524F4C4C4552222C2265766529
:100320006E74223A22454E44222C2274696D657304
:1003300074616D70223A004C48005248007B226C78
:100340006576656C223A22303030222C226F6D693E
:100350007373696F6E5F696E74657276616C223A51
:10036000004C455645525F4C48004C455645525F3F
:10037000524800534C4D004D4943524F53434F5048
:1003800045004C49434B004C415345520050554D9C
:1003900050320050554D50004355453200435545AD
:1003A00000227D007B226C6576656C223A2230301B
:1003B00030222C22646576696365223A22434F4ECF
:1003C00054524F4C4C4552222C2270617261646928
:1003D000676D223A224F4D495353494F4E222C22EA
:1003E0006163746976655F6C65766572223A220096
:1003F0007B226C6576656C223A22303037222C22C3
:10040000646576696365223A22434F4E54524F4CDD
:100410004C4552222C226576656E74223A22535442
:10042000415254222C2274696D657374616D70227F
:100430003A307D007B226C6576656C223A22303042
:1004400030222C22646576696365223A224D494345
:10045000524F53434F5045222C22706172616D22DE
:100460003A22747269676765725F70696E222C2226
:1004700076616C7565223A004649524544007465C0
:100480007374004D4943524F53434F504500494EFA
:10049000444550454E44454E54006D6F6465004CD4
:1004A0004153455200434F4E54494E47454E540028
:1004B0006D6F6465004C4153455200647572617400
:1004C000696F6E004C4153455200667265717565E7
:1004D0006E6379004C4153455200464952454400F1
:1004E00074657374004C415345520046495245446B
:1004F00000746573740050554D503200647572611C
:1005000074696F6E0050554D503200464952454453
:1005100000746573740050554D50006475726174B9
:10052000696F6E0050554D50004649524544007465
:100530006573740043554532006475726174696F68
:100540006E0043554532006672657175656E63795C
:100550000043554532004649524544007465737462
:1005600000435545006475726174696F6E004355B0
:1005700045006672657175656E6379004355450087
:10058000FD01F201E201D501CC01C4017B226C65C1
:1005900076656C223A22303036222C2264657363F1
:1005A000223A22436F6D6D616E64206E6F74206617
:1005B0006F756E64227D006475726174696F6E0080
:1005C000534C4D006672657175656E637900534CCE
:1005D0004D006C657665725F66696C746572004388
:1005E0004F4E54524F4C4C45520073657373696FB4
:1005F0006E5F70617573656400434F4E54524F4C8B
:100600004C455200746573745F6D6F646500434FB1
:100610004E54524F4C4C455200464952454400748A
:100620006573745F636861696E00434F4E54524F47
:100630004C4C4552006F6D697373696F6E5F696EE4
:1006400074657276616C00434F4E54524F4C4C456A
:10065000520050554D500050554D5032006163745A
:100660006976655F70756D7000434F4E54524F4C04
:100670004C4552007265696E666F72636564004C2A
:10068000455645525F4C48007265696E666F7263ED
:100690006564004C455645525F4C48007265696E72
:1006A000666F72636564004C455645525F52480060
:1006B0007265696E666F72636564004C455645529B
:1006C0005F524800227D007B226C6576656C223A81
:1006D00022303036222C2264657363223A22004491
:1006E000495341524D45440041524D454400227DFD
:1006F000002C2264657363223A2200222C22706946
:100700006E223A007B226C6576656C223A2230308C
:1007100031222C22646576696365223A2200222CFC
:1007200022706172616D223A2270696E222C2276EB
:10073000616C7565223A007B226C6576656C223AA5
:1007400022303030222C22646576696365223A2299
:1007500000222C2276616C7565223A00222C2270D0
:100760006172616D223A22007B226C6576656C2293
:100770003A22303030222C22646576696365223A51
:10078000220066616C7365007472756500222C220C
:1007900076616C7565223A00222C22706172616D5F
:1007A000223A22007B226C6576656C223A22303038
:1007B00030222C22646576696365223A2200227D0C
:1007C00000222C2276616C7565223A2200222C22AE
:1007D000706172616D223A22007B226C6576656CD5
:1007E000223A22303030222C2264657669636522F9
:1007F0003A220044495341524D45440041524D452F
:100800004400227D002C2264657363223A22007B1F
:10081000226C6576656C223A22303031222C2264BB
:100820006576696365223A224D4943524F53434FDF
:100830005045222C2270696E223A0066616C736505
:100840000074727565002C226475726174696F6E34
:10085000223A002C226672657175656E6379223AC0
:1008600000222C2261726D6564223A007B226C6545
:1008700076656C223A22303030222C22646576690B
:100880006365223A220066616C7365007472756557
:10089000002C226475726174696F6E223A00222CFA
:1008A0002261726D6564223A007B226C6576656C0C
:1008B000223A22303030222C226465766963652228
:1008C0003A220066616C7365007472756500222CB3
:1008D0002261726D6564223A007B226C6576656CDC
:1008E000223A22303030222C2264657669636522F8
:1008F0003A220066616C736500747275650066610A
:100900006C73650074727565002C227265696E6681
:100910006F72636564223A00222C2261726D6564F5
:10092000223A007B226C6576656C223A22303030A8
:10093000222C22646576696365223A2200027B22BA
:100940006C6576656C223A22303030222C22646548
:1009500076696365223A22434F4E54524F4C4C45C0
:1009600052222C22736B65746368223A226F6D6980
:100970007373696F6E2E696E6F222C2276657273A7
:10098000696F6E223A2276332E342E302D616C70D0
:1009900068612E32222C22626175645F7261746517
:1009A000223A3131353230302C22736368656475F8
:1009B0006C65223A224F4D495353494F4E227D00D8
:1009C0002C22656E645F74696D657374616D70224D
:1009D0003A002C226576656E74223A224C49434BCC
:1009E000222C2273746172745F74696D6573746113
:1009F0006D70223A00222C2270696E223A007B220E
:100A00006C6576656C223A22303037222C22646580
:100A100076696365223A22002C22656E645F7469F0
:100A20006D657374616D70223A002C226576656E77
:100A300074223A225354494D222C227374617274E9
:100A40005F74696D657374616D70223A007B226C0E
:100A50006576656C223A22303037222C2264657626
:100A6000696365223A224C41534552222C22706917
:100A70006E223A002C226D6973736564223A002C51
:100A8000226576656E74223A2254494D455354418D
:100A90004D50222C2274696D657374616D70223A19
:100AA000007B226C6576656C223A22303038222C2D
:100AB00022646576696365223A224D4943524F5359
:100AC000434F5045222C2270696E223A002C226539
:100AD00076656E74223A2254494D455354414D5027
:100AE000222C2274696D657374616D70223A007BEB
:100AF000226C6576656C223A22303039222C2264D1
:100B00006576696365223A22534C4D222C22706926
:100B10006E223A0000002100240027002A002D0048
:100B20003000330001010000040107010A01000048
:100B30002200250028002B002E0031003400020185
:100B40000000050108010B0100000A0B02090C0D51
:100B50000E08070304010000000000000000000070
:100B60000000000000000000000000000000000085
:100B70000000000012111000000000000000000042
:100B800000000000000000000000000000004449D8
:100B90005341524D45440041524D454400227D0091
:100BA0002C2264657363223A22007B226C65766591
:100BB0006C223A22303031222C22646576696365DA
:100BC000223A22534C4D222C2270696E223A0001A7
:100BD000021020200808102040102040800201024E
:100BE0000108040201010204081020408080402016
:100BF0001008040201800402018040201008040251
:100C000001080402010102040810204080010204CE
:100C10000810204080000020002300260029002C1E
:100C2000002F003200000100000301060109010548
:100C3000050505070508080808020202020A0A0855
:100C4000080404040401010101010101010303037B
:100C50000303030303040707070C0C0C0C0C0C0C18
:100C60000C0202020206060606060606060B0B0B1F
:100C70000B0B0B0B0B4C455645525F4C48004C453B
:100C80005645525F524800227D002C226F726965E2
:100C90006E746174696F6E223A22002C22656E6454
:100CA0005F74696D657374616D70223A00222C2245
:100CB00073746172745F74696D657374616D7022B1
:100CC0003A002C226576656E74223A2250524553C2
:100CD00053222C22636C617373223A2200222C224D
:100CE00070696E223A007B226C6576656C223A222E
:100CF000303037222C22646576696365223A2200FF
:100D000054494D454F555400494E41435449564569
:100D100000414354495645002C227363686564754D
:100D20006C65645F6174223A002C2274617267659D
:100D300074223A007B226C6576656C223A22303050
:100D400036222C226572726F725F636F6465223A7D
:100D500022455F50454E44494E475F46554C4C2214
:100D60002C2264657363223A2250656E64696E6753
:100D700020616374696F6E20717565756520667595
:100D80006C6C20E2809420616374696F6E206472E1
:100D90006F70706564222C22616374696F6E5F747A
:100DA000797065223A005354494D00494E465553D7
:100DB000494F4E00494E465553494F4E00544F4EF1
:100DC0004500544F4E45004C415345520050554D3F
:100DD000505F320050554D505F31004355455F32F2
:100DE000004355455F31002C22656E645F74696D68
:100DF000657374616D70223A00222C2273746172E3
:100E0000745F74696D657374616D70223A002C2291
:100E10006576656E74223A2200222C2270696E2259
:100E20003A007B226C6576656C223A22303037229C
:100E30002C22646576696365223A22002E341124DF
:100E40001FBECFEFD1E2DEBFCDBF00E00CBF13E08D
:100E5000A0E0B2E0E0E3F3E800E00BBF02C00790DF
:100E60000D92A834B107D9F727E0A8E4B3E001C098
:100E70001D92AF33B207E1F717E0CFE1D7E000E012
:100E800006C021970109802FFE010E94633FCE31E9
:100E9000D10780E00807A9F70E94BA370C94964161
:100EA0000C94000090910E06292F092E000C330B94
:100EB000F901E15DF34FE491F0E0EE0FFF1FEB5E0F
:100EC000F34F459154915093100640930F06F9014A
:100ED000E153F44FE491E093110640916B0086EFEB
:100EE000890F843080F42650310981E001C0880FD9
:100EF0002A95EAF7842B80936B00809168008160CB
:100F000080936800089588E09233A1F384E09333DE
:100F100089F382E0943371F39E5381E0983050F767
:100F20002E533109E2CFCF93DF93EC018881998171
:100F3000DC01ED91FC910190F081E02D64E270E024
:100F40001995009741F02FE1FC01238321E02283D2
:100F5000DF91CF91089521E02A83FACFAF92CF920B
:100F6000EF920F93FC0191E090933A0410923B04AE
:100F700090933C0440934104509342046093430493
:100F80007093440410924504109246041092470452
:100F90001092480489E08093560484E680935704B5
:100FA00010925A0494E09093B8041092760483E06F
:100FB00080937704009378041092790410927A0455
:100FC00010927B0410927C044091DB065091DC0669
:100FD0006091DD067091DE0640937D0450937E049F
:100FE00060937F0470938004109281049093820434
:100FF000E092830410928404109285041092860477
:10100000109287048091BA069091BB06A091BC060D
:10101000B091BD068093880490938904A0938A04BC
:10102000B0938B0410928C0420938D04263009F029
:10103000AC2CA0928E0410928F0410929004109207
:1010400091041092920481859285A385B485809342
:10105000930490939404A0939504B09396041092F3
:10106000970487E08093980489E080939904109214
:101070009A0410929B0410929C0410929D048091FB
:10108000490690914A06A0914B06B0914C06809378
:101090009E0490939F04A093A004B093A1040F9189
:1010A000EF90CF90AF900895EBE0F5E0108270964E
:1010B00086E0EB30F807D1F708958150823108F0CF
:1010C0005AC0E82FF0E08827E759F74F8F4F0C946C
:1010D000633F89088D087B0881088508BB08900854
:1010E00096089A08A008A408A808AE08B208BB0889
:1010F000B608BC08C008809180008F77809380007C
:101100000895809180008F7DF9CF80918000877F46
:10111000F5CF84B58F7784BD089584B58F7DFBCFDF
:101120008091B0008F778093B00008958091B000D7
:101130008F7DF9CF809190008F77809390000895F4
:10114000809190008F7DF9CF80919000877FF5CFBF
:101150008091A0008F778093A00008958091A000D7
:101160008F7DF9CF8091A000877FF5CF80912001FE
:101170008F77809320010895809120018F7DF9CF92
:1011800080912001877FF5CFCF93DF93282F30E028
:10119000F901E85BF44F8491F901E153F44FD491E4
:1011A000F901E15DF34FC491CC23A1F081110E94BC
:1011B0005D08EC2FF0E0EE0FFF1FEB5EF34FA59103
:1011C000B491EC91ED2381E090E009F480E0DF91AF
:1011D000CF91089580E090E0FACF1F93CF93DF93F3
:1011E000282F30E0F901E85BF44F8491F901E153D5
:1011F000F44FD491F901E15DF34FC491CC23A9F0F0
:10120000162F81110E945D08EC2FF0E0EE0FFF1FFA
:10121000E25DF44FA591B4918FB7F894EC91111160
:1012200008C0D095DE23DC938FBFDF91CF911F9153
:101230000895DE2BF8CFCF93DF9390E0FC01E153CC
:10124000F44F2491815D934FFC0184918823C9F070
:1012500090E0880F991FFC01EC5EF44FA591B491CA
:10126000FC01E25DF44FC591D49161110DC09FB7AF
:10127000F8948C91209582238C938881282328834D
:101280009FBFDF91CF910895623051F49FB7F894DA
:101290003C91822F809583238C93E8812E2BEFCF76
:1012A0008FB7F894EC912E2B2C938FBFEACF3FB7DA
:1012B000F8948091830390918403A0918503B09169
:1012C000860326B5A89B05C02F3F19F00196A11DE6
:1012D000B11D3FBFBA2FA92F982F8827BC01CD0180
:1012E000620F711D811D911D42E0660F771F881FDF
:1012F000991F4A95D1F708958F929F92AF92BF920E
:10130000CF92DF92EF92FF920E9457094B015C014E
:1013100084E6C82ED12CE12CF12C0E9457096819C3
:1013200079098A099B09683E734081059105A8F3F4
:1013300021E0C21AD108E108F10888EE880E83E0A6
:10134000981EA11CB11CC114D104E104F10429F7B9
:10135000FF90EF90DF90CF90BF90AF909F908F90D5
:1013600008952FB7F89460917F0370918003809166
:101370008103909182032FBF08950F931F93CF9302
:10138000DF93C0912604D09127042097C9F08A8169
:10139000882331F08B818F3F19F08B818F5F8B8396
:1013A00081E08A830E94B10909851A852B853C85D5
:1013B000601B710B820B930B6D837E838F839887E9
:1013C000DF91CF911F910F91089508959091080298
:1013D00089130DC0EDE3F9E0E4919FEF90930802CB
:1013E000E230E1F038F4EE2381F0E13089F060E0A2
:1013F0000C94ED08E43049F110F1E530C1F790911B
:1014000073009D7F90937300F2CF10926E00EFCF28
:1014100090916F009D7F90936F00E9CF9091700045
:101420009D7F9093700091E09093B0009091B100F7
:10143000987F94609093B1001092B300D8CF9091B0
:1014400071009D7F90937100D2CF909172009D7F2B
:1014500090937200CCCF4F925F926F927F928F9257
:101460009F92AF92BF92CF92DF92EF92FF920F9333
:101470001F93CF93DF9300D01F921F92CDB7DEB79B
:101480008B0129013A01909108028917C9F09F3F09
:1014900009F491C00F900F900F900F900F90DF9173
:1014A000CF911F910F91FF90EF90DF90CF90BF9061
:1014B000AF909F908F907F906F905F904F90089526
:1014C000EDE3F9E024912D8327FDE4CF61E00E9454
:1014D0001B092D81222321F08D81823009F005C264
:1014E0004801B12CA12C60E072E18AE790E0A501EF
:1014F00098010E94E63D29833A834B835C8369010E
:101500007A0191E0C91AD108E108F1082FEFC2165B
:10151000D104E104F10409F00CF4B6C160E472E412
:101520008FE090E0A50198010E94E63D69017A01F3
:1015300081E0C81AD108E108F1089D81923009F0D4
:1015400026C182E02FEFC216D104E104F10409F0B4
:101550000CF46CC160E970ED83E090E0A5019801A6
:101560000E94E63D69017A0181E0C81AD108E108CC
:10157000F10883E09FEFC916D104E104F10409F0FA
:101580000CF454C168E478EE81E090E0A501980184
:101590000E94E63D69017A0181E0C81AD108E1089C
:1015A000F1089FEFC916D104E104F10411F00CF029
:1015B00044C184E03BC180930802EDE3F9E09491DB
:1015C0009D839F3F09F466CF923009F474C058F4AC
:1015D000992399F1913009F44CC097FD5BCF61E0FC
:1015E0000E941B0979CF2D81243009F4AEC008F484
:1015F00088C0253091F7109220011092210190911E
:101600002101986090932101909121019160909324
:101610002101282F30E0F901E15DF34FE491F0E082
:10162000EE0FFF1FE25DF44F45915491F901E15334
:10163000F44FE491E093590349CF14BC15BC94B521
:10164000926094BD95B5916095BD282F30E0F90169
:10165000E15DF34FE491F0E0EE0FFF1FE25DF44F28
:1016600045915491F901E153F44FE491E0935D0306
:101670002DCF10928000109281009091810098608F
:101680009093810090918100916090938100282F28
:1016900030E0F901E15DF34FE491F0E0EE0FFF1F60
:1016A000E25DF44F45915491F901E153F44FE49117
:1016B000E0935C030BCF1092B0001092B1009091B8
:1016C000B00092609093B0009091B10091609093BF
:1016D000B100282F30E0F901E15DF34FE491F0E033
:1016E000EE0FFF1FE25DF44F459154915093730349
:1016F00040937203F901E153F44FE491E0937403D2
:10170000E5CE109290001092910090919100986017
:101710009093910090919100916090939100282F67
:1017200030E0F901E15DF34FE491F0E0EE0FFF1FCF
:10173000E25DF44F45915491F901E153F44FE49186
:10174000E0935B0393E09D83C1CE1092A0001092C2
:10175000A1009091A10098609093A1009091A100A8
:1017600091609093A100282F30E0F901E15DF34FE3
:10177000E491F0E0EE0FFF1FE25DF44F45915491CC
:10178000F901E153F44FE491E0935A039FCE2FEF18
:10179000C216D104E104F10409F00CF4A4C068E419
:1017A00078EE81E090E0A50198010E94E63D690194
:1017B0007A0181E0C81AD108E108F1089D819923D6
:1017C00009F489C19FEFC916D104E104F10409F0BD
:1017D0000CF4EFCE62E17AE780E090E0A50194019D
:1017E0000E94E63D69017A0181E0C81AD108E1084A
:1017F000F1089D81992309F453C186E09FEFC91632
:10180000D104E104F10491F088F0C980DA80EB8022
:10181000FC808AE0F594E794D794C7948A95D1F731
:1018200081E0C81AD108E108F10887E09091B10081
:10183000987F892B8093B1002FC064E274EF80E021
:1018400090E0A50194010E94E63D69017A0181E0E2
:10185000C81AD108E108F10885E09FEFC916D10444
:10186000E104F10419F310F362E17AE780E090E01B
:10187000A50194010E94E63D69017A0181E0C81A40
:10188000D108E108F108B9CF81E02D812111CECF37
:1018900095B5987F892B85BD2FEF3FEFA9014114A6
:1018A00051046104710409F049C09D81923009F42A
:1018B000E7C00CF0CEC0992309F4D3C0913009F0F1
:1018C000E9CDD0928900C092880020936A033093BA
:1018D0006B0340936C0350936D0380916F008260A3
:1018E00080936F00D7CD82E0D0CFB12CA12C60E0E7
:1018F00072E18AE790E0A50198010E94E63D690146
:101900007A0181E0C81AD108E108F108C114D104B4
:1019100091E0E906F10404F591E02D81213069F5AB
:1019200080918100887F892B809381002FEF3FEF8A
:10193000A901411451046104710419F2D801AA0FDC
:10194000BB1FA30192010E94053E28EE33E040E058
:1019500050E00E94183EA9CF68E478EE81E090E064
:10196000A50198010E94E63D69017A0181E0C81A4B
:10197000D108E108F10893E0D0CF8D81833001F5E3
:1019800080919100887F892B809391002FEF3FEF0A
:10199000A901411451046104710481F6D0929900A7
:1019A000C0929800209366033093670340936803C6
:1019B00050936903809171008260809371006ACDB9
:1019C0002D81243009F58091A100887F892B809397
:1019D000A1002FEF3FEFA9014114510461047104EC
:1019E00009F0ACCFD092A900C092A8002093620366
:1019F00030936303409364035093650380917200B6
:101A000082608093720046CD8D81853009F044CF8D
:101A100080912101887F892B809321012FEF3FEF57
:101A2000A901411451046104710409F087CFD092D7
:101A30002901C092280120935E0330935F034093F5
:101A40006003509361038091730082608093730000
:101A500021CD8D81843031F20CF4A0CF853039F363
:101A600019CDC7BC20936E0330936F03409370036E
:101A70005093710380916E00826080936E000ACD56
:101A8000C092B3002093750330937603409377039D
:101A90005093780380917000826080937000FACC3C
:101AA00084E02FEFC216D104E104F10409F008F438
:101AB000EFCEC980DA80EB80FC809AE0F594E79461
:101AC000D794C7949A95D1F791E0C91AD108E10843
:101AD000F10885E0DDCE83E02FEFC216D104E104EA
:101AE000F10411F00CF076CED3CEAF92BF92CF922C
:101AF000DF92EF92FF920F931F93CF93DF936C01CE
:101B00007B018B01040F151FEB015E01AE18BF08AE
:101B1000C017D10759F06991D601ED91FC91019060
:101B2000F081E02DC6011995892B79F7C501DF9168
:101B3000CF911F910F91FF90EF90DF90CF90BF90CA
:101B4000AF900895FC01538D448D252F30E0842FF4
:101B500090E0821B930B541710F0CF9608950197D5
:101B60000895FC01918D828D981761F0A28DAE0FC2
:101B7000BF2FB11D5D968C91928D9F5F9F73928F49
:101B800090E008958FEF9FEF0895FC01918D828D75
:101B9000981731F0828DE80FF11D858D90E0089542
:101BA0008FEF9FEF0895FC01918D228D892F90E09A
:101BB000805C9F4F821B91098F739927089587E856
:101BC00093E00E94D30D21E0892B09F420E0822FBD
:101BD0000895FC01A48DA80FB92FB11DA35ABF4FC2
:101BE0002C91848D90E001968F739927848FA6891C
:101BF000B7892C93A089B1898C91837080648C9370
:101C0000938D848D981306C00288F389E02D80811E
:101C10008F7D80830895EF92FF920F931F93CF9350
:101C2000DF93EC0181E0888F9B8D8C8D98131AC017
:101C3000E889F989808185FF15C09FB7F894EE89FE
:101C4000FF896083E889F98980818370806480835B
:101C50009FBF81E090E0DF91CF911F910F91FF90A6
:101C6000EF900895F62E0B8D10E00F5F1F4F0F734E
:101C70001127E02E8C8D8E110CC00FB607FCFACF09
:101C8000E889F989808185FFF5CFCE010E94E90DB1
:101C9000F1CFEB8DEC0FFD2FF11DE35AFF4FF082DA
:101CA0009FB7F8940B8FEA89FB8980818062CFCF40
:101CB0000F931F93CF93DF938C01D0E0C0E0F80126
:101CC000EC0FFD1F6491662341F087E893E00E94CA
:101CD0000B0E892B11F02196F2CFCE01DF91CF911F
:101CE0001F910F910895CF93DF93EC01888D882386
:101CF000B9F0AA89BB89E889F9898C9185FD03C06F
:101D0000808186FD0DC00FB607FCF7CF8C9185FF53
:101D1000F2CF808185FFEDCFCE010E94E90DE9CFA2
:101D2000DF91CF91089580E090E0892B29F00E9407
:101D3000DF0D81110E94000080E090E0892B49F0C6
:101D400080E090E0892B29F00E94000081110E9420
:101D5000000080E090E0892B49F080E090E0892B42
:101D600029F00E94000081110E94000080E090E0B4
:101D7000892B49F080E090E0892B29F00E94000037
:101D800081110C9400000895CF92DF92EF92FF92A0
:101D90001F93CF93DF93EC016A017B018C810E943A
:101DA000C40811E0892B09F410E08B85181721F085
:101DB000CD8ADE8AEF8AF88E8D899E89AF89B88DAB
:101DC000B701A601481B590B6A0B7B0B898D90E06C
:101DD000B0E0A0E084179507A607B70798F48C85B4
:101DE000181781F01C878A851817A9F0CA8EDB8E18
:101DF000EC8EFD8EEAA1FBA1309721F0B701A60180
:101E0000898519951B87DF91CF911F91FF90EF90E6
:101E1000DF90CF900895CE8EDF8EE8A2F9A2ECA1DC
:101E2000FDA1309779F389851995ECCFFC011582D6
:101E300013861486158616861786108A118A128ACA
:101E4000138A148A158A168A138E8681882311F0C4
:101E5000848183830895CF92DF92EF92FF920F9354
:101E60001F93CF93DF93EC018E81811103C08D8985
:101E7000882369F18C810D851E852F8538896A013B
:101E80007B01C01AD10AE20AF30A9701860137FDE5
:101E900018C009891A892B893C89401B510B620B98
:101EA000730B14161506160617065CF061E0DF9139
:101EB000CF911F910F91FF90EF90DF90CF900C94F6
:101EC000ED0860E00E94ED088D8981111D8ADF9187
:101ED000CF911F910F91FF90EF90DF90CF900895D9
:101EE000CF93DF93EC0161E088810E94ED0881E0EF
:101EF0008D870E94B1096E877F87888B998BDF91D0
:101F0000CF910895CF92DF92EF92FF92CF93DF931C
:101F1000EC0189859A85AB85BC850097A105B10543
:101F200081F44D8F5E8F6F8F78A349A35AA36BA363
:101F30007CA31FA2DF91CF91FF90EF90DF90CF9015
:101F400008956A017B01CD8EDE8EEF8EF8A2BC0172
:101F5000CD010E94C73C9B01AC0160E070E080E8CD
:101F60009FE30E94B63E20E030E040E05FE30E9445
:101F7000283D20E030E04AE754E40E94283D20E07C
:101F800030E040E05FE30E944A3E0E942F3FC60ED1
:101F9000D71EE81EF91EC9A2DAA2EBA2FCA28FA1ED
:101FA00091E089278FA3C6CFCF92DF92EF92FF9265
:101FB000CF93DF93EC016A017B018D899E89AF8904
:101FC000B88DAB019601281B390B4A0B5B0BDA016C
:101FD000C901B7FD49C0898D9A8DAB8DBC8DAB0110
:101FE0009601281B390B4A0B5B0BDA01C901181645
:101FF00019061A061B06C4F18EA18823A9F189854A
:102000009A85AB85BC850197A105B10551F461E0C6
:102010008C81DF91CF91FF90EF90DF90CF900C9467
:10202000ED0889A19AA1ABA1BCA1AB019601281B27
:10203000390B4A0B5B0BDA01C901B7FD04C0A601DD
:10204000CE010E94820F8C819FA1992311F061E043
:10205000E0CF60E00E94ED081FA2DF91CF91FF90DA
:10206000EF90DF90CF90089560E08C810E94ED08A2
:102070001FA2898D9A8DAB8DBC8DC81AD90AEA0A28
:10208000FB0A8EA1882331F01C141D041E041F04BA
:102090000CF41EA288A5882301F31C141D041E0441
:1020A0001F04DCF618A6D9CF8F929F92AF92BF92F1
:1020B000CF92DF92EF92FF920F931F93CF93DF9314
:1020C000EC018E81811104C088A1882309F445C0E8
:1020D0007B0189899A89AB89BC894A015B01881A8D
:1020E000990AAA0ABB0AC501B40197FD53C00D891C
:1020F0001E892F89388D4A015701801A910AA20A38
:10210000B30A9501840110161106120613060CF489
:1021100041C02A8D2223A9F10C8D1D8D2E8D3F8D5E
:10212000200F311F2115310511F421E030E0FB8C27
:1021300050E040E00E94183E60177107D8F4F1109B
:102140000AC069857A8520E030E0A9018C810E946F
:102150002B0A81E08B8F81E0898FDF91CF911F91D6
:102160000F91FF90EF90DF90CF90BF90AF909F9036
:102170008F900895FF2079F38C810E94E6091B8ED1
:10218000EACF69857A8520E030E0A9018C810E9440
:102190002B0AE1CF898D882301F38C810E94E60907
:1021A000198E1B8E88A18823C1F218A2D6CF6F3F4B
:1021B000A9F0E62FE295EF7044E0E49F900111242E
:1021C000DC01ED91FC91E20FF31F6F70828193812E
:1021D000B6E06B9F800D911D1124089590E080E082
:1021E0000895982F80336CF08A3324F08F3524F0D3
:1021F0008B3724F481E0089581341CF081E09B3515
:102200000CF080E00895FC01828581110AC0A7814D
:10221000B085CD010196908787838C91818781E07D
:102220008287818508951F93CF93DF93EC01162F4A
:102230000E940311811306C01A8681E0DF91CF91BD
:102240001F91089580E0FACF0F931F93CF93DF93F0
:102250008C01EB018991882369F0C8010E94031168
:10226000882379F0FE013197908198130DC0F80111
:102270001286F0CF90E080E0DF91CF911F910F9117
:10228000089582E090E0F8CF83E090E0F5CFCF931F
:10229000DF93EC01CE010E9403118B304CF48930A6
:1022A0005CF4882359F081E08E8390E080E00BC0DD
:1022B0008D3011F08032B9F71A86ECCF8E81811102
:1022C00005C081E090E0DF91CF91089582E090E039
:1022D000FACFDC0152969C915297915084E0989FDE
:1022E000900111245096ED91FC91E20FF31F228191
:1022F00033812115310579F041818081481758F4E7
:1023000081E0840F818386E0489F200D311D1124D8
:102310002115310521F460E070E08FEF0895B901D7
:10232000892F8295807F840F0895DF92EF92FF922C
:102330000F931F93CF93DF93EC017B01D12C68891E
:1023400079898A89D816E0F484E0D89E8001112426
:10235000060F171FD80112966D917C9161157105BA
:1023600041F0D701ED91FC910280F381E02DC7018E
:102370001995F8011382128210821182D394DFCF53
:102380001A8A8FEF8C8BC617D70761F0D701ED91B2
:10239000FC910280F381E02DC7011995D98BC88B80
:1023A00084E08B8BDF91CF911F910F91FF90EF9085
:1023B000DF900895AF92CF92EF920F931F93CF9338
:1023C000DF93C0910902D0910A0240910B02509113
:1023D0000C0260910D0270910E02A0900002C0905C
:1023E0000102E09002020091030220910F02CE014F
:1023F0000E94AE078091B8048430E0F1C158D64005
:1024000009F088C040914C0350914D0360914E03F8
:1024100070914F030091540310915503209156037E
:10242000309157030093790410937A0420937B042E
:1024300030937C04009384041093850420938604D5
:102440003093870440938F045093900460939104D9
:102450007093920440914D0650914E0660914F0644
:102460007091500640939A0450939B0460939C048F
:1024700070939D0490915803992309F454C08430BB
:1024800018F083E0809397041092580481E08093C1
:10249000590480935A0480935B0480935C041092E7
:1024A0005D0410925E041092740494E69093750497
:1024B0008093FB041092B90487E08093BA0489E00A
:1024C0008093BB0480914D0690914E06A0914F06DB
:1024D000B09150068093BC049093BD04A093BE04B9
:1024E000B093BF048091490690914A06A0914B0693
:1024F000B0914C068093C0049093C104A093C20491
:10250000B093C304DF91CF911F910F91EF90CF90C3
:10251000AF90089540915003509151036091520340
:102520007091530377CF10925A04ECCF4F925F9281
:102530006F927F928F929F92AF92BF92CF92DF92D3
:10254000EF92FF920F931F93CF93DF9300D01F92D0
:102550001F92CDB7DEB7DC012C912B32E1F12D3289
:10256000D9F50196EE24E394FC01208130ED320F81
:102570003A3010F02E3291F58C0160E070E0CB0122
:10258000F801219130ED832E820E39E0381508F4E0
:1025900044C06A3949E97407840749E1940708F09F
:1025A00046C0AAE0B0E09B01AC010E94053E912C20
:1025B000B12CA12C24013501409450946094709466
:1025C000461657066806790690F1680D791D8A1D32
:1025D0009B1D8F01D5CF0196E12CC6CF1982298191
:1025E0003A814B815C816D8170E080E090E00F90DA
:1025F0000F900F900F900F90DF91CF911F910F913F
:10260000FF90EF90DF90CF90BF90AF909F908F9012
:102610007F906F905F904F900895211108C0EE2039
:1026200051F161307105810550E89507A0F0F12C5A
:10263000BAE08B2E912CA12CB12C6115710530E8DC
:1026400083079105F8F0A50194010E94183ECA0184
:10265000B901F394F2CF22E029839B01AC018827D2
:102660009927DC01821B930BA40BB50B8A839B83F8
:10267000AC83BD83B4CF23E029836A837B838C83BF
:102680009D83ADCFF801D8012D918D0130ED320F32
:102690003A3010F4F394F6CF2E3201F58F010F5F2C
:1026A0001F4FF8010F5F1F4F2081A0EDDA2ED20ED1
:1026B000B9E0BD1598F06C3CECEC7E07ECE08E07C1
:1026C000910578F7AAE0B0E09B01AC010E94053EBD
:1026D0006D0D711D811D911DFA94E3CF20812F7D19
:1026E00010E000E0253409F050C021812D32B1F511
:1026F0003296CC24C394DF0110E000E02F2D0F2C84
:10270000000C330BEAE0BE2EFD01DD9040ED4D0DD7
:102710004A30B0F5B09EA001B19E500D11240D2D90
:10272000DD0C110B00531109040F151FA801420FF6
:10273000531F4732510544F3CC20B9F080E090E0BC
:10274000A0E0B0E8E11003C080E090E0DC0121E00F
:1027500029838A839B83AC83BD8341CF2B3219F0BD
:102760003196C12CC8CF3296FCCF80E090E0A0E833
:10277000BFEFE110ECCF80E090E0A0E8BFE7E7CF4B
:10278000CC2019F01195019511092081211126CF36
:102790000F0D111DF7FC1A950E94C73C48E1A42EAD
:1027A00042E0B42E101611063CF011950195110966
:1027B00050E0A52E52E0B52ED12CC12C01151105EB
:1027C000E9F0F6E0CF16D104A9F000FF0DC0F60144
:1027D000EE0FFF1FEE0FFF1FEA0DFB1D2591359138
:1027E000459154910E94283D159507952FEFC21AE7
:1027F000D20AE4CF60E070E080EC9FE7E1109058EF
:1028000021E029836A837B838C839D83E8CECF92EA
:10281000DF92EF92FF920F931F93CF93DF937C0190
:102820006B018A01FC01C081D1814F3F510509F044
:10283000B0F4E881F9810480F581E02D4B5F5F4FB2
:10284000CE011995009759F0FC010383DF91CF91D8
:102850001F910F91FF90EF90DF90CF900895E88146
:10286000F9810280F381E02DB601CE01199581E056
:10287000F701828390E080E0E9CF1F93CF93DF934D
:10288000EC01162F6A817B816115710589F04C81FD
:102890005D81FB0183818417150651F4440F551F98
:1028A0004F5F5F4F888199810E9407149B838A83C1
:1028B0008A819B81009759F02C813D81A9014F5F4E
:1028C0005F4F5D834C83820F931FFC011483DF9164
:1028D000CF911F9108959F92AF92BF92CF92DF92B6
:1028E000EF92FF920F931F93CF93DF9300D01F922D
:1028F0001F92CDB7DEB78C010E940311D82EF801CC
:102900001286F12CE12C60EFC62EC8010E94031143
:10291000F8011286D81609F4B3C0811113C082E001
:1029200090E00F900F900F900F900F90DF91CF914C
:102930001F910F91FF90EF90DF90CF90BF90AF90DD
:102940009F9008958C3509F099C0C8010E94031129
:10295000882329F3E7EAF2E0853709F083C0F8011C
:10296000128654E0952EB12CA12CC8010E940311AF
:102970008823A9F2813434F48053803130F083E02D
:1029800090E0CFCF8F7D8753F8CF44E0AA0CBB1CDB
:102990004A95E1F7A82AF80112869A949110E5CF9A
:1029A000C501985D8115944020F47501F3E0FF2284
:1029B000ACCFC5019C5D81159440A8F483E0B8229A
:1029C000B701762F6627770F770F6A297B2990E06A
:1029D00080E00196603871058105910540F4C801D9
:1029E0000E943D1492CFB50190E080E0F3CF1982B0
:1029F000262F2F7320682A8326E096958795779552
:102A000067952A95D1F76032710580F4606C6B830D
:102A10005E01E4E0AE0EB11CF50162915F01662338
:102A200009F473CFC8010E943D14F6CF262F2F73EF
:102A300020682B8386E0769567958A95E1F760316B
:102A4000710538F4606E6C835E01F5E0AF0EB11C69
:102A5000E3CF60686C83CD825E0126E0A20EB11CDC
:102A6000DBCF32969081992309F489CF8913F9CF6E
:102A70008181882309F483CFF8011286682FAFCFB4
:102A800082819381892B19F484E090E04ACF90E011
:102A900080E047CF6F927F928F929F92AF92BF92CA
:102AA000CF92DF92EF92FF920F931F93CF93DF931A
:102AB000EC012A813B812C5F3F4F4C815D8144308A
:102AC000510588F58901F90180E0942FB22FAE2FCE
:102AD000A21BA91730F4F190A1E0F110A0E08A2B1D
:102AE000F6CF811120C082E0EB018C83FB01802FA7
:102AF0008B1B891728F4E80189918E018193F7CF08
:102B0000640F751FFB011082DF91CF911F910F9110
:102B1000FF90EF90DF90CF90BF90AF909F908F90FD
:102B20007F906F9008958B01F901E40FF51F1082DB
:102B3000888199814C815D81DC011396ED91FC9136
:102B40003A01E89477F86901C60CD71C3097C1F0B8
:102B5000A381A615170481F449017F01B4E0EB0EAF
:102B6000F11C8C149D0429F1D401AD904D01D701C5
:102B7000BD907D01AB14A9F30190F081E02DE6CF6B
:102B80006A817B810E940714FC01A881B981139698
:102B90008D919C911497918380831496FC93EE936E
:102BA00013971B821A8285E0E8018C83F983E883FE
:102BB000ABCF82818F5F8283F6CFDB01ED91FC91F9
:102BC00011970280F381E02DBC01CD011994AF92E1
:102BD000BF92CF92DF92EF92FF920F931F93CF930A
:102BE000DF93EC018B018C8180FF24C0A881B98127
:102BF000FB018381948130E020E00097D9F0A81791
:102C0000B907D1F5F8016081718112968C91129704
:102C1000815012968C93129781110CC08D919C91CA
:102C200011972115310529F1F90191838083CD0197
:102C30000E94DD158C81807631F1209721F1F8809A
:102C40005801F5E1AF0EB11C8FEFF816D1F06F2DE2
:102C5000C5010E94D7106C01FC01E580B8010E94FB
:102C6000E715F801818DF6018083F801F18EFE2CC5
:102C7000EBCF94838383DBCF9C01FC018081918126
:102C8000BCCFF882F9821C82DF91CF911F910F9106
:102C9000FF90EF90DF90CF90BF90AF9008950F938B
:102CA0001F93CF93DF93EC01088119818B819C8165
:102CB000009749F0FC01208131813C832B83B801CE
:102CC0000E94DD15F3CF68817981CE010596DF91F1
:102CD000CF911F910F910C949511FC010190002050
:102CE000E9F73197AF01481B590BBC0187E893E026
:102CF0000C94750D8F929F92AF92BF920F931F937A
:102D0000CF93DF93CDB7DEB7A1970FB6F894DEBFB0
:102D10000FBECDBF19A2423008F44AE08E010F5D0C
:102D20001F4F842E912CB12CA12CA50194010E943F
:102D3000183EE62FB901CA01EA30F4F4E05DD8018B
:102D4000EE938D01232B242B252B79F790E080E047
:102D5000109719F0CD010E946D16A1960FB6F89448
:102D6000DEBF0FBECDBFDF91CF911F910F91BF90FE
:102D7000AF909F908F900895E95CE1CF4AE00C946A
:102D80007A16682F70E090E080E04AE00C947A16A2
:102D9000CF92DF92EF92FF92CF93DF936C01990F66
:102DA000EE08FF08F7FE19C06DE287E893E00E9485
:102DB0000B0EEC0166277727CB016C197D098E0974
:102DC0009F094AE00E947A168C0F9D1FDF91CF91D8
:102DD000FF90EF90DF90CF9008954AE0C701B601D1
:102DE000DF91CF91FF90EF90DF90CF900C947A1607
:102DF000CF93DF930E94580EEC018AEB92E00E9481
:102E00006D168C0F9D1FDF91CF910895CF93C82F22
:102E1000809313068AEA9BE00E94580E80910E066A
:102E2000082E000C990B0E94C81680EA9BE00E94B5
:102E3000580E8EE89BE0CC2311F087E99BE00E94BE
:102E4000580E8DE99BE0CF910C94F8160F931F93C9
:102E5000CF938C01C62FFC0164838FE098E00E9421
:102E6000580EF8018081082E000C990B0E94C8169C
:102E700085E098E00E94580E83EF97E0CC2311F094
:102E80008CEF97E00E94580E82E098E0CF911F915E
:102E90000F910C94F816EF92FF920F931F93CF931C
:102EA000DF937C018B01EA0189ED97E00E94580EC7
:102EB000C7010E94580E8DEC97E00E94580EC80181
:102EC0000E94580E81EC97E00E94580ECE010E949D
:102ED000580E8EEB97E0DF91CF911F910F91FF90ED
:102EE000EF900C94F816CF93DF936DE787E893E0AB
:102EF0000E940B0EEC018AEB92E00E946D168C0F83
:102F00009D1FDF91CF9108954F925F926F927F92B4
:102F10008F929F92AF92BF92EF92FF920F931F9367
:102F2000CF93DF932A013B0148015901853009F411
:102F300080C008F061C0843009F46FC0E0912E04B5
:102F4000F0912F041481C2ECDDE041EEE42E4DE05F
:102F5000F42E82E29EE00E94580EC7010E94580E95
:102F600089E19EE00E94580E812F110F990B0E945B
:102F7000C8168EE09EE00E94580ECE010E94580EA8
:102F800089EF9DE00E94580E8091FC059091FD050F
:102F9000A091FE05B091FF05A3019201281B390BFA
:102FA0004A0B5B0BCA01B9010E94BE1687EE9DE079
:102FB0000E94580E8091FC059091FD05A091FE05A0
:102FC000B091FF05A5019401281B390B4A0B5B0B3F
:102FD000CA01B9010E94BE16DF91CF911F910F91D6
:102FE000FF90EF90BF90AF909F908F907F906F90E9
:102FF0005F904F900C947317863039F1873009F049
:103000009DCFE0913604F09137041481C6EADDE0EB
:1030100087ECE82E8DE0F82E9CCFE0913004F09103
:1030200031041481CDEBDDE03BEDE32E3DE0F32EEA
:1030300090CFE0913204F09133041481C4EBDDE0D1
:1030400024EDE22E2DE0F22E84CFE0913404F091B5
:1030500035041481CBEADDE09DECE92E9DE0F92EEC
:1030600078CFCF92DF92EF92FF920F931F93CF937F
:10307000DF93EC018881813009F4D1C06A017B01C2
:10308000813090F08230D1F48AE394E00E94160FF0
:1030900088E594E0DF91CF911F910F91FF90EF9021
:1030A000DF90CF900C94160F8981853009F47DC094
:1030B00070F48330F1F1843009F45AC0DF91CF917C
:1030C0001F910F91FF90EF90DF90CF900895863081
:1030D00009F488C0873091F7E0913604F091370405
:1030E000309761F38681882349F385A18111E6CF6A
:1030F0008F819885A985BA85C58AD68AE78AF08E98
:103100008C0D9D1DAE1DBF1D818F928FA38FB48F1F
:1031100081E086A3CF010E94820F0F811885298547
:103120003A850C0D1D1D2E1D3F1DB701A60187E020
:103130001CC0E0912E04F0912F04309709F4BECF0B
:103140008681882309F4BACF0F81188529853A85AD
:10315000C18AD28AE38AF48A0C0D1D1D2E1D3F1DE3
:10316000058B168B278B308F83E00E948417A6CFA8
:10317000E0913004F0913104309709F49FCF8681BB
:10318000882309F49BCF0F81188529853A85C18A48
:10319000D28AE38AF48A0C0D1D1D2E1D3F1D058B5E
:1031A000168B278B308F84E0E0CFE0913204F091D2
:1031B0003304309709F482CF8681882309F47ECFC7
:1031C0000F81188529853A85C586D686E786F08AD7
:1031D0000C0D1D1D2E1D3F1D018B128B238B348B5F
:1031E00085E0C3CFE0913404F0913504309709F4C1
:1031F00065CF8681882309F461CF0F8118852985E1
:103200003A85C586D686E786F08A0C0D1D1D2E1DD3
:103210003F1D018B128B238B348B86E0A6CF8981D7
:10322000E0912804F0912904882339F0813009F0D5
:1032300045CFE0912A04F0912B04309709F43ECF5A
:10324000CF80D884E984FA844C0D5D1D6E1D7F1DEE
:10325000418B528B638B748B31CF2F923F924F9265
:103260005F926F927F928F929F92AF92BF92CF9216
:10327000DF92EF92FF920F931F93CF93DF9300D0D3
:103280001F92CDB7DEB72A013B0103E4809F900176
:103290001124312C8901C90188549B4F9A83898359
:1032A0004BE0242E49019EE4890E911CE981FA81AC
:1032B0008081381608F098C0A32CB12CC801239C3B
:1032C000800D911D1124885D9B4FFC01E25BFF4F37
:1032D0002081233039F1805B9F4FFC018081893050
:1032E00021F090910D0689131DC02A9CF0012B9CA2
:1032F000F00D1124E00FF11FE758FB4FC080D18083
:10330000E280F380C114D104E104F10469F4B30153
:10331000A201C401329C800D911D1124885D9B4F38
:103320000E9431183394C2CFC40CD51CE61CF71C84
:10333000EBE0F5E090E080E02081211125C024E061
:10334000880F991F2A95E1F7DC01A450BB4F2A9CF6
:10335000F0012B9CF00D1124E00FF11FEA58FB4FF8
:10336000222D01900D922A95E1F7885D9B4FFC017B
:10337000E152FF4FC082D182E282F3828D519F4F92
:1033800021E0FC012083CECF01967096803191051B
:1033900099F684E39DE00E94580E2A9CC0012B9C64
:1033A000900D1124800F911F885D9B4F9C838B8310
:1033B000FC01E25BFF4F80810E94C11689E29DE023
:1033C0000E94580EEB81FC81E15BFF4F80810E94DF
:1033D000C11688E19DE00E94580EC701B6010E9407
:1033E000BE160E9473179ECF0F900F900F900F90F4
:1033F000DF91CF911F910F91FF90EF90DF90CF90D1
:10340000BF90AF909F908F907F906F905F904F9004
:103410003F902F9008950F931F93CF93DF938C01CC
:10342000D62FC42F83E299E00E94580EC8010E9453
:10343000580E88E199E00E94580E8EEF98E0DD2347
:1034400011F084E099E00E94580E89E099E00E9412
:10345000580E83EF98E0CC2311F089EF98E00E949A
:10346000580EDF91CF911F910F910C9473170F930A
:103470001F93CF938C01C62F89ED98E00E94580EC0
:10348000C8010E94580E8EEC98E00E94580E83EC02
:1034900098E0CC2311F089EC98E00E94580ECF916F
:1034A0001F910F910C947317CF92DF92EF92FF92BE
:1034B0000F931F93CF938C01C62F69017A0189EA7C
:1034C00098E00E94580EC8010E94580E8EE998E0BC
:1034D0000E94580E86E898E0CC2311F08CE898E022
:1034E0000E94580E81E998E00E94580EC701B6016B
:1034F0000E94BE16CF911F910F91FF90EF90DF9029
:10350000CF900C9473177F928F929F92AF92BF923D
:10351000CF92DF92EF92FF920F931F93CF93DF939F
:10352000EC01762E49015A01670178018CE698E09A
:103530000E94580ECE010E94580E81E698E00E942B
:10354000580E8BE398E0772011F081E498E00E9418
:10355000580E83E598E00E94580EC501B4010E9400
:10356000BE1686E498E00E94580EC701B6010E947C
:10357000BE16DF91CF911F910F91FF90EF90DF90DA
:10358000CF90BF90AF909F908F907F900C947317C7
:10359000EF92FF920F931F93CF937C018B01C42F67
:1035A00084EA97E00E94580EC7010E94580E88E9ED
:1035B00097E00E94580EC8010E94580E8DE897E0CF
:1035C0000E94580E82E897E0CC2311F088E897E03B
:1035D0000E94580ECF911F910F91FF90EF900C9485
:1035E0007317CF92DF92EF92FF920F931F93CF93B7
:1035F000DF938C01EB0169017A0188E697E00E9474
:10360000580EC8010E94580E8CE597E00E94580E93
:10361000CE010E94580E81E597E00E94580EC70126
:10362000B6010E94BE16DF91CF911F910F91FF90BE
:10363000EF90DF90CF900C947317009711F00C94DB
:103640006D1690E080E00895EF92FF920F931F9324
:10365000CF93DF93C0912804D0912904882321F0CF
:10366000C0912A04D0912B04209709F46EC06130D8
:1036700009F465C008F460C0623009F463C095E7DE
:10368000E92E9CE0F92E811104C08EE7E82E8CE033
:10369000F82E86EE9CE00E94580EC7010E94580E3C
:1036A0008DED9CE00E94580E8C810E94C11682EC28
:1036B0009CE00E94580EC8010E94580E8DEA9CE0C2
:1036C0000E94580E6A8D7B8D8C8D9D8D0091FC051E
:1036D0001091FD052091FE053091FF05601B710BD7
:1036E000820B930B0E94BE168BE99CE00E94580E41
:1036F0006E8D7F8D88A199A10091FC051091FD052B
:103700002091FE053091FF05601B710B820B930B1E
:103710000E94BE168AE89CE00E94580ECE010D96CB
:103720000E941D1B87E89CE0DF91CF911F910F91B4
:10373000FF90EF900C94F81601E11DE0A0CF08E097
:103740001DE09DCF00E01DE09ACFDF91CF911F914A
:103750000F91FF90EF90089590910406911104C08D
:1037600090910506992371F09091060691110AC077
:1037700060910B06882321F0813021F460910C06C2
:103780000C94241B0895CF93DF93EC016E8384E0A7
:1037900097E00E94580E8F8198850E941D1B8BEF29
:1037A00096E00E94580E8C81082E000C990B0E9406
:1037B000C81681EF96E00E94580E8E8181110AC0D2
:1037C0008FED96E00E94580E8EEE96E0DF91CF913D
:1037D0000C94F81688EE96E0F5CF60E08091100228
:1037E000909111020E94C31B60E08091120290919F
:1037F00013020E94C31B60E0809114029091150295
:103800000E94C31B60E080911602909117020E94F3
:10381000C31B60E080911802909119020E94C31BA3
:1038200060E080911A0290911B020E94C31B60E02D
:1038300080911C0290911D020E94C31B80911E0268
:1038400090911F02009719F060E00E94C31B8091C5
:10385000200290912102009719F060E00C94261745
:1038600008951F93CF93DF93EC01162F8E81882349
:1038700021F060E0CE010E94C31B8D81813021F4D4
:1038800060E08C810E94ED081C836D81812F0E9475
:103890001B098D81813021F460E08C810E94ED084C
:1038A00087E397E00E94580E8F8198850E941D1B28
:1038B0008EE197E00E94580E8C81082E000C990B27
:1038C0000E94C816DF91CF911F910C947317CF936C
:1038D000DF93EC010E94311C8C810E94C40821E01E
:1038E000892B09F420E02A878C810E94C40821E0FA
:1038F000892B09F420E02B878C810E94C40821E0E9
:10390000892B09F420E02C871D8A1E8A1F8A188EB5
:10391000DF91CF9108959F92AF92BF92CF92DF92A5
:10392000EF92FF920F931F93CF93DF938A01452B62
:1039300009F468C0E9016B016596FC016081CE0164
:103940000E94D710FC01BB24BA94892B09F0B580E2
:103950007601E894F7F8AA24A3946701C00ED11E5B
:1039600099249394309709F44DC0AA2009F43FC0DC
:103970008481843069F0853049F1823079F5DF0146
:103980000D900020E9F71197CD018E1B9F0B07C00A
:103990000190F081E02D90E080E0309781F79F77F3
:1039A000E816F90621F5D801AC15BD05E1F46B2D3B
:1039B000CE01DF91CF911F910F91FF90EF90DF909B
:1039C000CF90BF90AF909F900C94D710A081B18101
:1039D000FD01349613968C9190E0E2CF90E080E068
:1039E000F0E0E0E0DDCF9D9181919817E9F2A92404
:1039F0006B2DCE010E94D710FC01892B09F4B2CFA8
:103A0000B580B0CF90E080E0DF91CF911F910F9112
:103A1000FF90EF90DF90CF90BF90AF909F90089570
:103A2000FC0120813181C9014A9642815381648120
:103A30007581009759F0D9015E96EC91E03211F052
:103A400090E080E0009711F00C948B1C90E080E0F7
:103A50000895CF93DF93EB010E94101D009741F072
:103A6000FC012481263021F48081DF91CF910895DB
:103A70008881FBCFCF92DF92EF92FF92CF93DF93BB
:103A800000D01F921F92CDB7DEB70E94101DDC013F
:103A9000892B09F44BC01496EC911497E250ED3049
:103AA00008F044C0F0E08827E75AF24E8F4F0C949C
:103AB000633F851D961D9A1D9D1D661D961D961DB5
:103AC000961D761D961D7B1D961DA11D6C9170E0A7
:103AD00090E080E00F900F900F900F900F90DF918B
:103AE000CF91FF90EF90DF90CF9008956D917D91F1
:103AF0008D919C91EFCF8D919D910D90BC91A02DBA
:103B0000B7FD14C0BC01CD01E5CFCD010E949612D6
:103B10003A834B835C836D83CA80DB80EC80FD80BD
:103B2000223059F1233059F1213079F060E070E012
:103B3000CB01D0CF8D919C91E9CF8D919C91049632
:103B4000E5CFCD90DD90ED90FC9020E030E0A90134
:103B5000C701B6010E945E3F87FDE8CF2FEF3FEF20
:103B60004FE75FE4C701B6010E94C23C1816F4F2A9
:103B7000C701B6010E942F3FADCFF7FCD7CFC701D9
:103B8000B601A8CF8F929F92AF92BF92CF92DF9251
:103B9000EF92FF920F931F93CF93DF9300D000D04B
:103BA000CDB7DEB749015A0167017801FB010190E9
:103BB0000020E9F73197E61BF70B9A8389837C8312
:103BC0006B83ED838F2F8F778E83CE0101960E94BA
:103BD000101D0097B9F0FC0124812A3041F02C30EF
:103BE00089F480819181A281B381B7FD0BC0CE01A0
:103BF00001960E943A1D86169706A806B90610F48B
:103C00004B015C01C501B401C616D706E806F906EA
:103C100010F4C701B60126960FB6F894DEBF0FBEAA
:103C2000CDBFDF91CF911F910F91FF90EF90DF906B
:103C3000CF90BF90AF909F908F900895CF92DF92DA
:103C4000EF92FF92CF93DF9300D01F921F92CDB7D8
:103C5000DEB70E94101DDC01892B09F448C01496C0
:103C6000EC911497E250ED3008F041C0F0E0882765
:103C7000E35CF14E8F4F0C94633F7A1E771E8C1ECF
:103C80008F1E4A1E771E771E771E591E771E661ED0
:103C9000771E931E6C9170E0CB010F900F900F90E8
:103CA0000F900F90DF91CF91FF90EF90DF90CF902A
:103CB00008958D919D910D90BC91A02D811520E8C6
:103CC0009207A105B10598F4BC01E6CF8D919D91B5
:103CD0000D90BC91A02D6C017D0120E8D20EE11C5D
:103CE000F11CC114D10421E0E206F10468F370E094
:103CF00060E0D2CFCD010E9496123A834B835C8361
:103D00006D83CA80DB80EC80FD80223049F1233056
:103D100099F1213061F70BC08D919C91ECCF8D9181
:103D20009C910496E8CFCD90DD90ED90FC9020E042
:103D300030E040E057ECC701B6010E945E3F87FDCE
:103D4000D6CF20E03EEF4FEF56E4C701B6010E9408
:103D5000C23C181664F2C701B6010E94283F9CCFEE
:103D6000D701C6019058AF4FBF4F0097A140B10592
:103D700008F0BDCFB60190CFC11480E8D806E104A9
:103D8000F104C0F3B4CF0F931F93CF93DF93EC01F3
:103D90008B010E94101DFC01892B29F084818A303F
:103DA00051F08C30C1F0F80180819181DF91CF9189
:103DB0001F910F91089580819181A281B381811516
:103DC0009048A105B10578F7CE01DF91CF911F9101
:103DD0000F910C941E1E80819181A281B381905815
:103DE000AF4FBF4F0097A140B105E8F6EDCF4F921E
:103DF0005F926F927F92AF92BF92CF92DF92EF92DB
:103E0000FF920F931F93CF93DF939091040691112C
:103E100005C090910506992309F4E6C09091060625
:103E20009111E2C0823008F0DFC080930D0681114D
:103E30000AC0E0912804F0912904309759F481E0F8
:103E400080930B06D1C0E0912A04F0912B043097A7
:103E500009F483C09089992309F47CC001891289EF
:103E600023893489041715072607370708F47EC00D
:103E7000882309F4C8C082E080930C06B5C08F89FE
:103E80008F5F8F8B9D89891708F4A9C08FA5843611
:103E900058F40E946A3CA30192010E94E63D8FA55E
:103EA000681710F01F8A9BC01F8A888D882351F0E5
:103EB0009D899501281B31099217130609F05CF4BE
:103EC000890F8D8B8B89823008F089C0B701A601DC
:103ED0000E942D1984C083E392E00E94580E8D89C0
:103EE0000E94C11680E392E00E94F816EBCFCD8EBF
:103EF000DE8EEF8EF8A273C08DA5811170C089A1EE
:103F00009AA1ABA1BCA1A7019601281B390B4A0BB2
:103F10005B0BDA01C901B7FD62C08DA19EA1AFA103
:103F2000B8A58C199D09AE09BF09181619061A06FD
:103F30001B060CF054C08FA5843610F00DA7C2CF1D
:103F40000E946A3CA30192010E94E63D8FA568177A
:103F5000A8F345C0882309F472CF81E08DCF109279
:103F60000B06E0912804F091290408C08823B9F3D6
:103F700010920C06E0912A04F0912B04309781F006
:103F8000009100061091010620910206309103066F
:103F9000040F151F261F371F018B128B238B348BA9
:103FA0006A017B01182FC8E2D4E0AA24AA94B12C9C
:103FB00094E6492E512C612C712C01E08C898823C8
:103FC00071F08EA5893011F0181309C08A898130EB
:103FD00009F48DCF08F453CF823009F48DCF6E965B
:103FE00034E0C436D30751F7DF91CF911F910F9181
:103FF000FF90EF90DF90CF90BF90AF907F906F9049
:104000005F904F90089582E01BCFBF92CF92DF92D6
:10401000EF92FF920F931F93CF93DF93EC01198DD3
:104020001F3F81F0612F45960E94D710FC018081CF
:10403000898F309709F477C014828FEF8583BF0191
:10404000812F76C06C0135E0C30ED11CE880F98069
:104050008F89882341F0C6010E946911E62FF72F4E
:10406000182F309749F71F89988D191324C01031E4
:1040700009F459C0110F6D897E89D701ED91FC912A
:10408000B4E01B9FA0011124C616D70609F044C056
:104090000190F081E02DBA01C7011995009709F44C
:1040A00042C020E1F601DC0101900D922A95E1F772
:1040B0009E8B8D8B188F0D891E898F8921E0280F8B
:1040C0002F8BE4E08E9FC0011124080F191F90E18F
:1040D000B92E203111F48FE0B82EF6E0BF9EB0016A
:1040E0001124D701ED91FC910190F081E02DC701E1
:1040F0001995F80193838283892B09F4B12CD80197
:10410000BC9211961C92012B71F0C6010E9469119C
:10411000E62FF72F182F8DCF0480F581E02DC701F2
:104120001995009729F681E08A8360E070E08FEFAF
:10413000DF91CF911F910F91FF90EF90DF90CF9083
:10414000BF9008954F925F926F927F928F929F924D
:10415000AF92BF92CF92DF92EF92FF920F931F9395
:10416000CF93DF9300D01F921F92CDB7DEB78C01A3
:104170007B01B42E0E9447116C01892B09F048C0C5
:10418000C8010E940311863609F4A9C124F58732BB
:1041900029F08B3561F1823209F0A8C1D80115965A
:1041A0001C921E92149712968D919C911397892BB5
:1041B00039F48D919C910E949307F8019383828337
:1041C000C8010E946B146C01892B11F5B701C8015D
:1041D0000E944A151DC0843709F460C18B3709F469
:1041E0007BC08E3609F082C165ED72E060C180E46B
:1041F000D70114968C931497E114F10421F08FEFFA
:104200008C9311968C93B1101AC025E0C22ED12C3C
:10421000C6010F900F900F900F900F90DF91CF91EC
:104220001F910F91FF90EF90DF90CF90BF90AF90D4
:104230009F908F907F906F905F904F900895F801BE
:104240001286C8010E944711009751F56DE5C8011B
:104250000E9413118111DCCFBA94D8011B966D9086
:104260007C90C3010E940520A82E4B01672B21F4EE
:1042700094E0C92ED12CCCCFF70161816F3F91F032
:10428000C30145960E94D710DC011596AC92F70148
:10429000A1824B2DB401C8010E94A220009739F0E1
:1042A0006C01B6CFD7018C9311968C93F2CFC801D5
:1042B0000E9447110097A1F76DE5C8010E941311F4
:1042C0008111A6CF6CE2C8010E9413118111C5CFE4
:1042D00083E0C82ED12C9CCF80E2F7018483E114C7
:1042E000F10419F08FEF80838183BB2009F48DCF17
:1042F000D8011A961C92C8010E944711009781F6B6
:104300006DE7C8010E941311811182CFBA94F801A0
:104310001582148282819381892B49F48081918155
:104320000E949307D80113969C938E931297C8010D
:104330000E9403118732F9F08232E9F0C8010E942D
:104340000311D82E0E94F110882311F2F801128671
:104350006D2DC8010E943D14C8010E940311D82E82
:104360000E94F1108111F2CFD80112968D919C918B
:10437000892B41F47DCFC8010E946B146C01892BFD
:1043800009F046CFC8010E9447116C01892B09F042
:104390003FCF6AE3C8010E941311882309F498CF24
:1043A000D8011296ED91FC91139714968D919C91E2
:1043B0001597E80FF91F148214966D917C9115974B
:1043C0007F771B966D907C901C9712968D919C9197
:1043D0000496272F2F77BA2DB078AB2EA22AE89417
:1043E000A7F89301AC017A2DC7010E948B1C6C01C8
:1043F000009761F5C3010E940520482E4B01672BF1
:1044000009F436CFC3010E940520582E962FC92EDD
:10441000D72EC114D10409F42BCFF4015582D70152
:1044200011966C916F3F71F0C30145960E94D710B1
:10443000FC014582D70111965C92B401C8010E942B
:104440004A1507C0F70140825182F7CFB3010E949D
:10445000E7154B2DB601C8010E94A2206C01892BE3
:1044600009F0D6CEC8010E9447116C01892B09F0D2
:10447000CFCE6DE7C8010E9413118111C9CE6CE245
:10448000C8010E941311882309F422CFC8010E9499
:1044900047116C01892B09F43ACFBACE86E0D701D7
:1044A00014968C93149781E08C936AEC72E0C801A7
:1044B0000F900F900F900F900F90DF91CF911F9161
:1044C0000F91FF90EF90DF90CF90BF90AF909F90B3
:1044D0008F907F906F905F904F900C94241186E0A6
:1044E000F701848310826FEC72E0E1CFC8010E9473
:1044F00003114801FDE08F0E911CB12C782CA92CE2
:10450000803384F08A3384F43FE3B316A9F0D801F2
:104510001A961C92B394F40181934F01C8010E9432
:104520000311EECF8B3281F393ED980F923060F34D
:10453000982F9F7D953441F30B0D111DD8011D96C9
:104540001C92872D9A2D0E9496123A834B835C838E
:104550006D838A819B81AC81BD812230A9F023309B
:1045600059F0213009F0B4CE2EE0F7012483808386
:104570009183A283B3834CCE2AE0F7012483808306
:104580009183A283B38344CE2CE0F7CF4F925F9206
:104590006F927F928F929F92AF92BF92CF92DF9253
:1045A000EF92FF920F931F93CF93DF93CDB7DEB7B8
:1045B000C25FD1090FB6F894DEBF0FBECDBF6E014A
:1045C0002EECC20ED11C86E092E0F601918380832E
:1045D000128214821382C6010596968B858B178AE8
:1045E00084E0808F8FEF818F168E878F9E012F5FE3
:1045F0003F4F790110E000E00E94B10960938F0302
:1046000070939003809391039093920387E893E0D3
:104610000E94B10D97FD02C00C9402310E94B109B5
:1046200080908F0390909003A0909103B09092039C
:10463000681979098A099B0980908B0390908C03F3
:10464000A0908D03B0908E03681579058A059B05AF
:10465000E8F20F37110561F487E893E00E94D30D6B
:10466000892B31F087E893E00E94B10D0A97A1F7FA
:10467000E1E0F0E0EC0FFD1FE00FF11F10820530CC
:10468000110578F045E050E06AED72E0CE01019648
:104690000E947141892B29F48EE399E00E94F8165B
:1046A0003EC4F60160817181C60105960E94951194
:1046B000F601128200811181F601838194810097B5
:1046C00051F0FC0120813181F60134832383B8014C
:1046D0000E94DD15F1CF168ECF57DF4FD982C882E9
:1046E000C158D040CD57DF4F19821882C358D040EF
:1046F000CB57DF4F19821882C558D040C957DF4FBA
:104700001882C758D04021E030E02C0F3D1FC85719
:10471000DF4F39832883C858D040C557DF4F1882F0
:10472000CB58D040C457DF4FD982C882CC58D04034
:104730004AE0B601665E7F4FCE018F579F4F0E94C1
:10474000A2208C01892B69F4C657DF4F8881CA5893
:10475000D040882331F0F601868D83FF02C003E04C
:1047600010E0CD57DF4F88819981C358D040009722
:1047700051F0CF57DF4FE881F981C158D0406081B7
:1047800071810E94DD1501151105F1F087EC96E0AD
:104790000E94580EF801EE0FFF1FE058FA4F859166
:1047A00094910E94580E84EC96E00E94F81687E8D7
:1047B00093E00E94D30D181619060CF0B0C387E8D9
:1047C00093E00E94B10DF3CFCF57DF4FD982C8825B
:1047D000C158D04080EE92E0CD57DF4F9983888357
:1047E000C358D04083E0CB57DF4F8883C558D040B3
:1047F000CA57DF4F1881C658D04010781068CA5782
:10480000DF4F1883C658D040CE018F579F4F0E946C
:10481000101D009709F483C3FC018481882309F4E7
:104820007EC31068CA57DF4F1883C658D040CE01E8
:104830008F579F4F0E941E1E8C01893DF1E09F07FC
:1048400009F41CC10CF0C9C1883731E0930709F4A1
:104850001FC50CF018C18733914009F4EEC308332B
:1048600081E018070CF0D3C00D3291E0190709F46C
:1048700003C30CF0BCC060E00C32F1E01F0709F488
:10488000FCC2083E51E0150711F40C94E62F0CF021
:10489000D2C60D3D110509F4CEC70CF064C607362B
:1048A000110511F40C942F2E0CF01BC605361105C2
:1048B00011F40C94662C14F00C94232E043611057C
:1048C00009F0D9C480917D03811129C30E94B109E7
:1048D0004B015C018092790390927A03A0927B0352
:1048E000B0927C03809129068823C9F08091370615
:1048F000811115C085E296E00E94700F8092380603
:1049000090923906A0923A06B0923B0681E08093DD
:104910003706F89410922706109228067894809013
:10492000790390907A03A0907B03B0907C0310925F
:10493000040610920606EBE0F5E01082709646E061
:10494000EB30F407D1F78AE394E00E94160F88E574
:1049500094E00E94160FE0912E04F0912F043097FE
:1049600011F00C941E2EE0913004F0913104309738
:1049700019F084810E94E609E0913204F091330439
:10498000309721F060E084810E94ED08E0913404CA
:10499000F0913504309721F060E084810E94ED08A9
:1049A000E0913604F0913704309729F011A660E0C9
:1049B00084810E94ED0887EF92E00E94580E80915A
:1049C000480390914903A0914A03B0914B03A5017C
:1049D0009401281B390B4A0B5B0BCA01B9010E94D9
:1049E000BE160E94731781E080937D0398C20F3238
:1049F00021E0120709F4FDC260E0063331E013073D
:104A000009F03FCF80911602909117023AC2033706
:104A100041E0140709F438C23CF5093381E0180776
:104A200009F02FCF00911602109117020E94B109D0
:104A3000F801618B728B838B948B85849684A78419
:104A4000B088DC01CB01880D991DAA1DBB1D858B8B
:104A5000968BA78BB08F81E080A349E255E06FE28F
:104A600075E084E395E0E6C2043791E0190709F4A4
:104A700071C20537E1E01E0709F003CF083D114080
:104A800009F47DC04CC28139F1E09F0709F4F5C2F9
:104A9000CCF58E3731E0930709F4D1C21CF58D3780
:104AA000914009F0EECEEE24EA94FE2C00E010E0F6
:104AB00021E030E040E050E064EE72E0C6010E9488
:104AC000C21D9B01AC01E0911602F09117022187F3
:104AD00032874387548767E475E081E595E00E945B
:104AE000F11A1DC2023881E0180709F4E6C360E03C
:104AF000003991E0190709F0C4CE80911802909115
:104B00001902BFC18B39E1E09E0709F4DAC27CF4D7
:104B1000833921E0920709F4B2C260E08A399140FA
:104B200009F0AFCE80911A0290911B02AAC18D3973
:104B300041E0940709F4E7C2883D914009F0A1CE15
:104B400010ECE12E17E2F12E09E010E021E030E058
:104B500040E050E06EEE72E0C6010E94C21D9B0173
:104B6000AC01E0911802F091190221873287438746
:104B700054876BE175E084E295E00E94F11ACF570B
:104B8000DF4FD982C882C158D0408EEE92E0CD5717
:104B9000DF4F99838883C358D04088E0CB57DF4FDD
:104BA0008883C558D040CA57DF4F8881C658D04047
:104BB00080788068CA57DF4F8883C658D040CE01BE
:104BC0008F579F4F0E943A1D6093390270933A02AB
:104BD00080933B0290933C0209C20F3982E0180790
:104BE00009F4C7C20CF088C0053FE1E01E0709F4D4
:104BF000ACC274F5023E21E0120709F464C2C4F4A9
:104C00000C3D41E0140709F03CCE15E3E12EF12CF8
:104C100000E010E022E030E040E050E067EF72E0BA
:104C2000C6010E94C21D809118029091190242C3D0
:104C3000063E51E0150709F453C360E0043F81E0EC
:104C4000180709F01ECE80911C0290911D0219C117
:104C5000083592E0190709F483C2C4F40034F2E085
:104C60001F0709F00ECE15E3E12EF12C00E010E055
:104C700022E030E040E050E067EF72E0C6010E94C1
:104C8000C21D80911C0290911D0214C3093522E0BF
:104C9000120709F45CC20B3532E0130709F0F1CDBD
:104CA00000911E0210911F020115110509F437C170
:104CB0000E94B109AB01BC01F801458B568B678B93
:104CC000708F85859685A785B089840F951FA61F4F
:104CD000B71F818F928FA38FB48FFF24F394F6A216
:104CE000C8010E94820FF801F0A64AED54E060EE80
:104CF00074E085EE94E09EC1043843E0140709F4A3
:104D0000BDC20CF075C0043A82E0180709F4FBC27A
:104D10000CF054C0003AE2E01E0709F0B2CD10ECEE
:104D2000E12E17E2F12E09E010E021E030E040E052
:104D300050E06EEE72E0C6010E94C21D9B01AC0104
:104D4000E0911E02F0911F02309751F025873687BF
:104D50004787508B6BEB74E084EC94E00E94F11A6F
:104D6000CF57DF4FD982C882C158D0408EEE92E033
:104D7000CD57DF4F99838883C358D04088E0CB5705
:104D8000DF4F8883C558D040CA57DF4F8881C65847
:104D9000D04080788068CA57DF4F8883C658D0409B
:104DA000CE018F579F4F0E943A1D6093350270933A
:104DB0003602809337029093380218C1093AF2E024
:104DC0001F0709F43FC20A3A22E0120709F059CD41
:104DD000E0911E02F0911F02309709F4A0C081E01B
:104DE00085A34EE854E06AE974E08FE994E022C1BB
:104DF000003D33E0130709F4A0C2D4F4053853E0B2
:104E0000150709F431C2073883E0180709F039CDD6
:104E10008091200290912102009709F42CC20E94F7
:104E2000700F48E754E06EE774E083E894E002C155
:104E3000043394E0190709F4B9C20036E5E01E070F
:104E400009F01FCD8091120290911302892B09F471
:104E500066C015E3E12EF12C00E010E022E030E026
:104E600040E050E067EF72E0C6010E94C21D8091F1
:104E7000120290911302B3C261E0809114029091EA
:104E800015020E94C31B4BC0EE24EA94FE2C00E0E6
:104E900010E021E030E040E050E064EE72E0C60156
:104EA0000E94C21D9B01AC01E0911402F091150219
:104EB000218732874387548762E775E08CE795E066
:104EC0000E94F11ACF57DF4FD982C882C158D04013
:104ED00084EE92E0CD57DF4F99838883C358D0404A
:104EE00089E0CB57DF4F8883C558D040CA57DF4F82
:104EF0008881C658D04080788068CA57DF4F888341
:104F0000C658D040CE018F579F4F0E943A1D6093E4
:104F10003D0270933E0280933F0290934002C6018F
:104F20000E944F16CE50DF4F0FB6F894DEBF0FBE73
:104F3000CDBFDF91CF911F910F91FF90EF90DF9048
:104F4000CF90BF90AF909F908F907F906F905F9029
:104F50004F90089510ECE12E17E2F12E09E010E0D9
:104F600021E030E040E050E06EEE72E0C6010E94C9
:104F7000C21D9B01AC01E0911402F091150225873E
:104F800036874787508B65E675E08EE695E00E9490
:104F9000F11ACF57DF4FD982C882C158D0408EEE68
:104FA00092E0CD57DF4F99838883C358D04088E083
:104FB000CB57DF4F8883C558D040CA57DF4F888111
:104FC000C658D04080788068CA57DF4F8883C6585B
:104FD000D040CE018F579F4F0E943A1D60934102EF
:104FE0007093420280934302909344020E94DA112C
:104FF00096CF00911402109115020E94B109F80198
:10500000618B728B838B948B85849684A784B08804
:10501000DC01CB01880D991DAA1DBB1D858B968BCC
:10502000A78BB08F81E080A346E555E06CE575E085
:1050300081E695E00E944B1772CF61E0E3CC10EC63
:10504000E12E17E2F12E09E010E021E030E040E02F
:1050500050E06EEE72E0C6010E94C21D9B01AC01E1
:10506000E0911602F0911702258736874787508B0B
:1050700069E375E082E495E032CD61E03ECD0091D8
:105080001802109119020E94B109F801658776870C
:105090008787908B81849284A384B484DC01CB01C4
:1050A000880D991DAA1DBB1D818B928BA38BB48B80
:1050B00081E0858B4BE055E061E175E086E195E0AC
:1050C000B9CF61E02FCD10ECE12E17E2F12E09E00F
:1050D00010E021E030E040E050E06EEE72E0C6010A
:1050E0000E94C21D9B01AC01E0911A02F0911B02CB
:1050F00021873287438754876CEF74E085E095E021
:105100000E94F11A73CF00911A0210911B020E94A3
:10511000B109F801658776878787908B81849284AF
:10512000A384B484DC01CB01880D991DAA1DBB1D8D
:10513000818B928BA38BB48B81E0858B4BEE54E0FB
:1051400061EF74E086EF94E075CF61E07CCD8091F3
:105150001E0290911F0261E0009709F092CEDFCE0F
:1051600080911E0290911F0260E0009709F089CEA5
:10517000D6CEEE24EA94FE2C00E010E021E030E0F0
:1051800040E050E064EE72E0C6010E94C21D9B0147
:10519000AC01E0911E02F0911F02309779F02115C9
:1051A00031054105510521F0218732874387548716
:1051B0006AEC74E084ED94E00E94F11ACF57DF4F5F
:1051C000D982C882C158D04084EE92E0CD57DF4FDB
:1051D00099838883C358D04089E0CB57DF4F8883B9
:1051E000C558D040CA57DF4F8881C658D040807814
:1051F0008068CA57DF4F8883C658D040CE018F578A
:105200009F4F0E94101DDC01892B09F4FAC01496EF
:10521000EC911497E250ED3008F0F3C0F0E08827ED
:10522000EB5EF64D8F4F0C94633F0F2A012A3A2A0A
:105230003D2AF229012A012A012AF629012A032AF4
:10524000012A412AE0911E02F0911F02309749F095
:1052500015A245EA54E060EB74E085EB94E00E940F
:105260004B1710925803C2CE8091200290912102D8
:1052700061E0009751F48CE895E010CA809120021B
:10528000909121020097B9F360E00E94261747CE63
:1052900015E3E12EF12C00E010E022E030E040E0E8
:1052A00050E067EF72E0C6010E94C21D80911402B7
:1052B000909115020E94311C32CE15E3E12EF12CA3
:1052C00000E010E022E030E040E050E067EF72E004
:1052D000C6010E94C21D8091160290911702EACF6A
:1052E00015E3E12EF12C00E010E022E030E040E098
:1052F00050E067EF72E0C6010E94C21D80911A0261
:1053000090911B02D7CF80911E0290911F02892B92
:1053100009F405CE15E3E12EF12C00E010E022E0C7
:1053200030E040E050E067EF72E0C6010E94C21D2D
:1053300080911E0290911F02BDCF8091200290911A
:105340002102892B09F497CF15E3E12EF12C00E01F
:1053500010E022E030E040E050E067EF72E0C6018C
:105360000E94C21DF62E0091200210912102F80128
:105370008585882331F060E080810E94ED08F80186
:105380001586F801F08261E08F2D0E941B0960E014
:10539000F80180810E94ED0884E394E00E94580E99
:1053A000F8018081082E000C990BD5C18091100264
:1053B00090911102892B09F4B2CD15E3E12EF12C65
:1053C00000E010E022E030E040E050E067EF72E003
:1053D000C6010E94C21D80911002909111020E948C
:1053E000671C9DCD8C908092340299CD8D909D90BC
:1053F000AD90BC90FFEF8F169104A104B10499F316
:1054000090F3812CF0CF8D909D90AD90BC902FEFBC
:1054100082169104A104B10431F328F3F2CFCD0137
:105420000E949612C251DF4F2883CE5ED040C151F8
:10543000DF4F3883CF5ED040C051DF4F4883C05F1D
:10544000D040CF50DF4F5883C15FD040CE50DF4FA8
:105450006883C25FD040C151DF4F88809980AA80A5
:10546000BB80CF5ED040223051F1233089F1213012
:1054700041F60BC08D919C91D3CF8D919C91049658
:10548000CFCF8D909D90AD90BC9020E030E0A901F1
:10549000C501B4010E945E3F87FDB3CF20E030E03C
:1054A0004FE753E4C501B4010E94C23C18160CF446
:1054B000A8CFC501B4010E942F3F862E94CF3FEFA5
:1054C00083169104A104B10409F008F48CCF99CF9C
:1054D0004FEF84169104A104B10409F008F483CFBE
:1054E00090CF0936110509F475C40CF4D6C30B3CF2
:1054F000110509F0C0CECF57DF4FD982C882C158FD
:10550000D04087E093E0CD57DF4F99838883C3581D
:10551000D04088E0CB57DF4F8883C558D040CA576A
:10552000DF4F8881C658D04080788068CA57DF4FE7
:105530008883C658D040CE018F579F4F0E943A1D96
:105540004B015C0180920B0290920C02A0920D0222
:10555000B0920E020E94DA11A501940165E376E093
:1055600087E496E0BCCA043891E0190709F42EC517
:105570000CF051C00A37F1E01F0709F427C50338C2
:1055800021E0120729F0093731E0130709F073CE43
:10559000CF57DF4FD982C882C158D0408BEF92E0FD
:1055A000CD57DF4F99838883C358D04085E0CB57D0
:1055B000DF4F8883C558D040CA57DF4F8881C6580F
:1055C000D04080788068CA57DF4F8883C658D04063
:1055D000CE018F579F4F0E943A1D613CF7E27F0733
:1055E000F9E08F07910520F060EC77E289E090E028
:1055F000013A22E0120709F0C5C060934D0670938E
:105600004E0680934F06909350068091580388234E
:1056100009F485CCEBCC0E3D41E0140709F4D6C467
:10562000073E51E0150709F4B3CF0D3D81E018079F
:1056300009F021CEADCF0D3494E0190709F431C53E
:105640006CF5093EF3E01F0709F4C7C08CF40C3A6F
:1056500032E0130709F4BDC060E0083E43E01407E0
:1056600009F4BCC0013A52E0150709F004CE90CF0E
:10567000093384E0180709F4B4C00C3494E0190726
:1056800009F414C50833144009F0F5CD109225072C
:1056900040E06CE976E087EA96E0B1C00431F5E0DD
:1056A0001F0709F4AFC00CF05BC00F3434E01307E0
:1056B00009F473C50CF43CC50839144009F0DBCD7E
:1056C0008BE090E0C251DF4F99838883CE5ED0405B
:1056D000CF57DF4FD982C882C158D04087EF92E0C0
:1056E000CD57DF4F99838883C358D04083E0CB5791
:1056F000DF4F8883C558D040CA57DF4F8881C658CE
:10570000D04080788068CA57DF4F8883C658D04021
:10571000BE0162517F4FCE018F579F4F0E94C31E23
:105720008038910514F08FE790E08C0197FF02C05C
:1057300010E000E0502F802F96EF900F943008F487
:10574000B7C49EEC900F943008F4B2C487EB92E09B
:105750000E94580EC8010E94C8160E947317DFCB22
:10576000043685E0180709F45EC0053695E0190790
:1057700009F44AC00531154009F07DCD61E08FEE96
:1057800096E07FCB093731E0130749F46093540367
:1057900070935503809356039093570327CC033897
:1057A00041E0140709F4BBCB0D3D114049F460936F
:1057B000500370935103809352039093530316CC7C
:1057C00060934C0370934D0380934E0390934F036B
:1057D0000DCC81E08093580309CC61E085E197E02E
:1057E00050CB81E08093250785E197E090930502F7
:1057F0008093040241E060EB76E08BEB96E00E9440
:10580000C81A8DCB60E0BBCF81E08093FF068FEE9E
:1058100096E0909305028093040241E068E876E008
:1058200083E996E0ECCF1092FF0640E064E776E073
:105830008FE796E0E4CFC251DF4F1882CE5ED040B2
:10584000CF57DF4FD982C882C158D04081E093E062
:10585000CD57DF4F99838883C358D04085E0CB571D
:10586000DF4F8883C558D040CA57DF4F8881C6585C
:10587000D04080788068CA57DF4F8883C658D040B0
:10588000BE0162517F4FCE018F579F4F0E94291D4D
:10589000182F81E896E0111102C087E996E09093F5
:1058A0000A028093090286E0111101C085E080930D
:1058B0000F020E94DA1147E556E0111102C042E5DD
:1058C00056E06DE576E089E696E0B4CB0E94B1093A
:1058D0004B015C018092480390924903A0924A03D5
:1058E000B0924B0385E296E00E94700F109205067D
:1058F000109206068092FC059092FD05A092FE058E
:10590000B092FF0581E0809304068AE394E00E9450
:10591000160F88E594E00E94160F94E6E92E94E0B5
:10592000F92E08E214E0F8018489882341F0828985
:10593000813009F054C1858E968EA78EB0A2025E8A
:105940001F4FE016F10679F7EBE0F5E01082709654
:1059500026E0EB30F207D1F7E0912804F09129041A
:10596000309721F0118A128A138A148AE0912A044E
:10597000F0912B04309721F0118A128A138A148A2D
:10598000E0913604F09137043097A9F0158A168A11
:10599000178A108E118E128E138E148E158E168EFF
:1059A000178E10A211A212A213A214A216A217A25D
:1059B00010A681E081A70E94DA1180EF93E00E9497
:1059C000F81684EA93E00E94580E809104029091A8
:1059D00005028551974009F02EC18AE393E00E94A9
:1059E000580E81EA93E00E94F816E0904102F09090
:1059F0004202009143021091440220913D023091F5
:105A00003E0240913F02509140026091D4068DE9E0
:105A100093E00E94831AE090BA06F090BB060091D2
:105A2000BC061091BD062091B6063091B706409194
:105A3000B8065091B9066091B30688E993E00E94D8
:105A4000831A2091390230913A0240913B025091E1
:105A50003C0260919D0683E993E00E94541A2091D4
:105A60008A0630918B0640918C0650918D0660918C
:105A700087068DE893E00E94541AE0903502F0907A
:105A8000360200913702109138022091340230E042
:105A900050E040E06091420687E893E00E94831A5C
:105AA00060916C0682E893E00E94371A60912906A3
:105AB00087E793E00E94371AE0902106F0902206D3
:105AC000009123061091240620911D0630911E0698
:105AD00040911F06509120066091130683E793E0E2
