:100000000C94EC060C9481310C9456310C942B31E9
:100010000C9400310C94D5300C94AA300C947F30A1
:100020000C9454300C946C320C941D070C941D07E6
:100030000C941D070C94AC310C941D070C941D07F7
:100040000C941D070C941D070C941D070C941D07A0
:100050000C941D070C941D070C941D070C940A307A
:100060000C941D070C9436320C940C320C941D0722
:100070000C941D070C941D070C941D070C941D0770
:100080000C941D070C941D070C941D070C941D0760
:100090000C941D070C941D070C941D070C941D0750
:1000A0000C941D070C941D070C941D070C941D0740
:1000B0000C941D070C941D070C941D070C941D0730
:1000C0000C941D070C941D070C941D070C941D0720
:1000D0000C941D070C941D070C941D070C941D0710
:1000E0000C941D070C946A2A0C94F4070C942708AE
:1000F0000C94040D0C941D080C94D50D0C94B31C99
:100100000C942B080C94BD1C0C9428090C94130D12
:100110000C942F1E0C94911D0C940F080C94D70C6A
:100120000C94A62A0C94270D0C9447090C940730C4
:100130000C94D21C0C9405080C94FB070C94F0074B
:100140000C94E71A0C946C2A0C94B21D0C94350D87
:100150000C94C71D0C94D91C0C940B080C946D0DB9
:100160000C94A32A0C945F2A0C94782A0C94AA2A43
:100170000C94C41D0C9413080C94EC070C94CB1D28
:100180000C94821D0C9426080C9419080C942108D8
:100190000C94AF1D0C94AE1C0C9404300C941E33C4
:1001A0000C9400300C945B2A0C94E6070C949E1C73
:1001B0000C9401080C94D51C0C94F8070C94CE1CDC
:1001C0000C949E1D546F6F44656570004E6F4D65B5
:1001D0006D6F727900496E76616C6964496E7075F5
:1001E0007400496E636F6D706C657465496E7075EF
:1001F0007400456D707479496E707574004F6B00B2
:10020000CDCCCC3D0AD7233C17B7D13877CC2B3295
:100210009595E6241FB14F0A000020410000C84216
:1002200000401C4620BCBE4CCA1B0E5AAEC59D7475
:10023000227D007B226C6576656C223A223030315B
:10024000222C22646576696365223A22434F4E541C
:10025000524F4C4C4552222C2264657363223A2241
:100260005052207468726573686F6C6420636170AB
:1002700070656420617420007B226C6576656C2259
:100280003A22303030222C22646576696365223A46
:1002900022534C4D222C22706172616D223A2274DD
:1002A000696D657374616D705F70696E222C227662
:1002B000616C7565223A007B226C6576656C223A2A
:1002C00022303037222C22646576696365223A2217
:1002D000434F4E54524F4C4C4552222C226576656A
:1002E0006E74223A22454E44222C2274696D657345
:1002F00074616D70223A004C48005248007B226CB9
:100300006576656C223A22303030222C226F6D697E
:100310007373696F6E5F696E74657276616C223A91
:10032000004C455645525F4C48004C455645525F7F
:10033000524800534C4D004D4943524F53434F5088
:1003400045004C49434B004C415345520050554DDC
:1003500050320050554D50004355453200435545ED
:1003600000227D007B226C6576656C223A2230305B
:1003700030222C22646576696365223A22434F4E0F
:1003800054524F4C4C4552222C2270617261646968
:10039000676D223A224F4D495353494F4E222C222A
:1003A0006163746976655F6C65766572223A2200D6
:1003B0007B226C6576656C223A22303037222C2203
:1003C000646576696365223A22434F4E54524F4C1E
:1003D0004C4552222C226576656E74223A22535483
:1003E000415254222C2274696D657374616D7022C0
:1003F0003A307D007B226C6576656C223A22303083
:1004000030222C22646576696365223A224D494385
:10041000524F53434F5045222C22706172616D221E
:100420003A22747269676765725F70696E222C2266
:1004300076616C7565223A00464952454400746500
:100440007374004D4943524F53434F504500494E3A
:10045000444550454E44454E54006D6F6465004C14
:100460004153455200434F4E54494E47454E540068
:100470006D6F6465004C4153455200647572617440
:10048000696F6E004C415345520066726571756527
:100490006E6379004C415345520046495245440031
:1004A00074657374004C41534552004649524544AB
:1004B00000746573740050554D503200647572615C
:1004C00074696F6E0050554D503200464952454494
:1004D00000746573740050554D50006475726174FA
:1004E000696F6E0050554D500046495245440074A6
:1004F0006573740043554532006475726174696FA9
:100500006E0043554532006672657175656E63799C
:1005100000435545320046495245440074657374A2
:1005200000435545006475726174696F6E004355F0
:1005300045006672657175656E63790043554500C7
:10054000FD01F201E201D501CC01C4017B226C6501
:1005500076656C223A22303036222C226465736331
:10056000223A22436F6D6D616E64206E6F74206657
:100570006F756E64227D006C657665725F66696C6E
:1005800074657200434F4E54524F4C4C45520073A9
:10059000657373696F6E5F70617573656400434F57
:1005A0004E54524F4C4C455200746573745F6D6FDE
:1005B000646500434F4E54524F4C4C4552004649DF
:1005C00052454400746573745F636861696E0043EB
:1005D0004F4E54524F4C4C4552006F6D69737369C6
:1005E0006F6E5F696E74657276616C00434F4E5436
:1005F000524F4C4C45520050554D500050554D50A7
:1006000032006163746976655F70756D7000434F89
:100610004E54524F4C4C4552007265696E666F7273
:10062000636564004C455645525F4C4800726569ED
:100630006E666F72636564004C455645525F4C4868
:10064000007265696E666F72636564004C4556455D
:10065000525F5248007265696E666F72636564002E
:100660004C455645525F524800227D007B226C6506
:1006700076656C223A22303036222C226465736310
:10068000223A220044495341524D45440041524DC3
:10069000454400227D002C2264657363223A2200C7
:1006A000222C2270696E223A007B226C6576656C82
:1006B000223A22303031222C226465766963652229
:1006C0003A2200222C22706172616D223A227069F6
:1006D0006E222C2276616C7565223A007B226C6555
:1006E00076656C223A22303030222C22646576699D
:1006F0006365223A2200222C2276616C7565223ACB
:1007000000222C22706172616D223A22007B226CE1
:100710006576656C223A22303030222C2264657670
:10072000696365223A220066616C736500747275B4
:100730006500222C2276616C7565223A00222C22FB
:10074000706172616D223A22007B226C6576656C65
:10075000223A22303030222C226465766963652289
:100760003A2200227D00222C2276616C7565223AA5
:100770002200222C22706172616D223A22007B22BB
:100780006C6576656C223A22303030222C2264650A
:1007900076696365223A220044495341524D4544EB
:1007A0000041524D454400227D002C226465736354
:1007B000223A22007B226C6576656C223A22303028
:1007C00031222C22646576696365223A224D4943C1
:1007D000524F53434F5045222C2270696E223A00EB
:1007E00066616C73650074727565002C22647572A5
:1007F0006174696F6E223A002C22667265717565AC
:100800006E6379223A00222C2261726D6564223A6D
:10081000007B226C6576656C223A22303030222CC7
:1008200022646576696365223A220066616C7365AD
:100830000074727565002C226475726174696F6E44
:10084000223A00222C2261726D6564223A007B22DA
:100850006C6576656C223A22303030222C22646539
:1008600076696365223A220066616C736500747272
:10087000756500222C2261726D6564223A007B222C
:100880006C6576656C223A22303030222C22646509
:1008900076696365223A220066616C736500747242
:1008A00075650066616C73650074727565002C2255
:1008B0007265696E666F72636564223A00222C224B
:1008C00061726D6564223A007B226C6576656C22EC
:1008D0003A22303030222C22646576696365223AF0
:1008E0002200027B226C6576656C223A2230303021
:1008F000222C22646576696365223A22434F4E5466
:10090000524F4C4C4552222C22736B657463682203
:100910003A226F6D697373696F6E2E696E6F222C48
:100920002276657273696F6E223A2276332E302EEC
:10093000302D626574612E34222C22626175645FF1
:1009400072617465223A3131353230302C22736352
:10095000686564756C65223A224F4D495353494F7F
:100960004E227D002C22656E645F74696D65737420
:10097000616D70223A002C226576656E74223A22EF
:100980004C49434B222C2273746172745F74696DFD
:10099000657374616D70223A00222C2270696E2298
:1009A0003A007B226C6576656C223A223030372221
:1009B0002C22646576696365223A22002C22656EDA
:1009C000645F74696D657374616D70223A002C22E6
:1009D0006576656E74223A225354494D222C227357
:1009E000746172745F74696D657374616D70223ABD
:1009F000007B226C6576656C223A22303037222CDF
:100A000022646576696365223A224C41534552223D
:100A10002C2270696E223A002C226576656E742253
:100A20003A2254494D455354414D50222C22746969
:100A30006D657374616D70223A007B226C6576651A
:100A40006C223A22303038222C2264657669636544
:100A5000223A224D4943524F53434F5045222C22B4
:100A600070696E223A002C226576656E74223A22F5
:100A700054494D455354414D50222C2274696D65A3
:100A80007374616D70223A007B226C6576656C220E
:100A90003A22303039222C22646576696365223A25
:100AA00022534C4D222C2270696E223A0000002104
:100AB00000240027002A002D00300033000101002F
:100AC00000040107010A0100002200250028002B74
:100AD000002E003100340002010000050108010B66
:100AE00001000020002300260029002C002F0032E6
:100AF00000000100000301060109010505050507C5
:100B00000508080808020202020A0A080804040488
:100B100004010101010101010103030303030303B4
:100B200003040707070C0C0C0C0C0C0C0C02020243
:100B30000206060606060606060B0B0B0B0B0B0B36
:100B40000B010210202008081020401020408002D5
:100B50000102010804020101020408102040808003
:100B60004020100804020180040201804020100887
:100B7000040201080402010102040810204080015F
:100B80000204081020408000000A0B02090C0D0E20
:100B9000080703040100000000000000000000003E
:100BA0000000000000000000000000000000000045
:100BB0000000001211100000000000000000000002
:100BC0000000000000000000000000000044495345
:100BD00041524D45440041524D454400227D002C78
:100BE0002264657363223A22007B226C6576656C11
:100BF000223A22303031222C2264657669636522E4
:100C00003A22534C4D222C2270696E223A004C45F8
:100C10005645525F4C48004C455645525F5248007D
:100C2000227D002C226F7269656E746174696F6E2B
:100C3000223A22002C22656E645F74696D657374BC
:100C4000616D70223A00222C2273746172745F7499
:100C5000696D657374616D70223A002C226576654A
:100C60006E74223A225052455353222C22636C61F7
:100C70007373223A2200222C2270696E223A007B82
:100C8000226C6576656C223A22303037222C226441
:100C90006576696365223A220054494D454F5554A3
:100CA00000494E4143544956450041435449564535
:100CB000002C227363686564756C65645F617422DF
:100CC0003A002C22746172676574223A007B226CB0
:100CD0006576656C223A22303036222C226572729B
:100CE0006F725F636F6465223A22455F50454E44E0
:100CF000494E475F46554C4C222C22646573632253
:100D00003A2250656E64696E6720616374696F6E24
:100D10002071756575652066756C6C20E280942085
:100D2000616374696F6E2064726F70706564222CE9
:100D300022616374696F6E5F74797065223A005343
:100D400054494D00494E465553494F4E00494E4671
:100D50005553494F4E00544F4E4500544F4E450099
:100D60004C415345520050554D505F320050554D47
:100D7000505F31004355455F32004355455F3100B8
:100D80002C22656E645F74696D657374616D702289
:100D90003A00222C2273746172745F74696D6573FA
:100DA00074616D70223A002C226576656E74223A69
:100DB0002200222C2270696E223A007B226C65761A
:100DC000656C223A22303037222C226465766963C2
:100DD00065223A2200001E3311241FBECFEFD1E25C
:100DE000DEBFCDBF00E00CBF13E0A0E0B2E0E4EF57
:100DF000F0E800E00BBF02C007900D92A634B107E7
:100E0000D9F727E0A6E4B3E001C01D92A133B207F1
:100E1000E1F716E0CCEED6E000E006C0219701092C
:100E2000802FFE010E94453ECB3ED10780E008079F
:100E3000A9F70E94A9360C9478400C940000CF9337
:100E4000DF93EC0188819981DC01ED91FC910190A7
:100E5000F081E02D64E270E01995009741F02FE1F8
:100E6000FC01238321E02283DF91CF91089521E0CB
:100E70002A83FACFCF92EF920F93FC0191E09093E7
:100E800038041092390490933A0440933F045093ED
:100E90004004609341047093420410924304109202
:100EA0004404109245041092460489E0809354044F
:100EB00084E6809355041092580493E09093B6040E
:100EC0001092740490937504009376041092770442
:100ED000109278041092790410927A048091CD06D1
:100EE0009091CE06A091CF06B091D00680937B045E
:100EF00090937C04A0937D04B0937E0410927F04B1
:100F000020938004263009F0CE2CC09281041092E8
:100F100082041092830410928404109285048185C7
:100F20009285A385B4858093860490938704A093CB
:100F30008804B093890410928A0487E080938B041C
:100F400089E080938C0410928D0410928E0410928C
:100F50008F041092900480913B0690913C06A091E2
:100F60003D06B0913E068093910490939204A09325
:100F70009304B09394040F91EF90CF900895E9E01B
:100F8000F5E01082709686E0E930F807D1F7089511
:100F90008150823108F05AC0E82FF0E08827EC52E7
:100FA000F84F8F4F0C94453EF407F807E607EC071F
:100FB000F0072608FB07010805080B080F081308AF
:100FC00019081D082608210827082B088091800091
:100FD0008F77809380000895809180008F7DF9CF76
:100FE00080918000877FF5CF84B58F7784BD089589
:100FF00084B58F7DFBCF8091B0008F778093B00058
:1010000008958091B0008F7DF9CF809190008F7707
:10101000809390000895809190008F7DF9CF80910A
:101020009000877FF5CF8091A0008F778093A000FC
:1010300008958091A0008F7DF9CF8091A000877FD7
:10104000F5CF809120018F778093200108958091C2
:1010500020018F7DF9CF80912001877FF5CFCF933D
:10106000DF93282F30E0F901E957F44F8491F9011B
:10107000EF5BF44FD491F901E550F54FC491CC23C7
:10108000A1F081110E94C807EC2FF0E0EE0FFF1FC6
:10109000EF51F54FA591B491EC91ED2381E090E0F3
:1010A00009F480E0DF91CF91089580E090E0FACFDD
:1010B0001F93CF93DF93282F30E0F901E957F44FC6
:1010C0008491F901EF5BF44FD491F901E550F54FAC
:1010D000C491CC23A9F0162F81110E94C807EC2FD0
:1010E000F0E0EE0FFF1FE953F54FA591B4918FB7D4
:1010F000F894EC91111108C0D095DE23DC938FBFDA
:10110000DF91CF911F910895DE2BF8CFCF93DF931E
:1011100090E0FC01EF5BF44F24918550954FFC016A
:1011200084918823C9F090E0880F991FFC01E35552
:10113000F54FA591B491FC01E953F54FC591D491B8
:1011400061110DC09FB7F8948C91209582238C93E8
:101150008881282328839FBFDF91CF910895623033
:1011600051F49FB7F8943C91822F809583238C9300
:10117000E8812E2BEFCF8FB7F894EC912E2B2C9388
:101180008FBFEACF3FB7F89480918103909182039B
:10119000A0918303B091840326B5A89B05C02F3F7F
:1011A00019F00196A11DB11D3FBFBA2FA92F982F8D
:1011B0008827BC01CD01620F711D811D911D42E088
:1011C000660F771F881F991F4A95D1F708958F9250
:1011D0009F92AF92BF92CF92DF92EF92FF920E94C6
:1011E000C2084B015C0184E6C82ED12CE12CF12C05
:1011F0000E94C208681979098A099B09683E7340F0
:1012000081059105A8F321E0C21AD108E108F1088F
:1012100088EE880E83E0981EA11CB11CC114D10475
:10122000E104F10429F7FF90EF90DF90CF90BF9099
:10123000AF909F908F9008952FB7F89460917D03A1
:1012400070917E0380917F03909180032FBF08955A
:101250000F931F93CF93DF93C0912404D091250463
:10126000209781F081E08A830E941C0908851985F6
:101270002A853B85601B710B820B930B6C837D83EE
:101280008E839F83DF91CF911F910F9108950895D1
:101290009091070289130DC0E2EEF8E0E4919FEF10
:1012A00090930702E230E1F038F4EE2381F0E13070
:1012B00089F060E00C945808E43049F110F1E53011
:1012C000C1F7909173009D7F90937300F2CF1092BD
:1012D0006E00EFCF90916F009D7F90936F00E9CFEC
:1012E000909170009D7F9093700091E09093B0007A
:1012F0009091B100987F94609093B1001092B300E8
:10130000D8CF909171009D7F90937100D2CF909132
:1013100072009D7F90937200CCCF4F925F926F923C
:101320007F928F929F92AF92BF92CF92DF92EF9275
:10133000FF920F931F93CF93DF9300D01F921F92C2
:10134000CDB7DEB78B0129013A01909107028917C9
:10135000C9F09F3F09F491C00F900F900F900F902C
:101360000F90DF91CF911F910F91FF90EF90DF9041
:10137000CF90BF90AF909F908F907F906F905F9035
:101380004F900895E2EEF8E024912D8327FDE4CFFD
:1013900061E00E9486082D81222321F08D81823018
:1013A00009F005C24801B12CA12C60E072E18AE786
:1013B00090E0A50198010E94C83C29833A834B83A1
:1013C0005C8369017A0191E0C91AD108E108F1084A
:1013D0002FEFC216D104E104F10409F00CF4B6C1F8
:1013E00060E472E48FE090E0A50198010E94C83C9F
:1013F00069017A0181E0C81AD108E108F1089D81EC
:10140000923009F026C182E02FEFC216D104E10428
:10141000F10409F00CF46CC160E970ED83E090E038
:10142000A50198010E94C83C69017A0181E0C81AAF
:10143000D108E108F10883E09FEFC916D104E10467
:10144000F10409F00CF454C168E478EE81E090E016
:10145000A50198010E94C83C69017A0181E0C81A7F
:10146000D108E108F1089FEFC916D104E104F104A5
:1014700011F00CF044C184E03BC180930702E2EE1E
:10148000F8E094919D839F3F09F466CF923009F470
:1014900074C058F4992399F1913009F44CC097FD28
:1014A0005BCF61E00E94860879CF2D81243009F45A
:1014B000AEC008F488C0253091F710922001109238
:1014C0002101909121019860909321019091210137
:1014D000916090932101282F30E0F901E550F54FFC
:1014E000E491F0E0EE0FFF1FE953F54F4591549161
:1014F000F901EF5BF44FE491E093570349CF14BC3B
:1015000015BC94B5926094BD95B5916095BD282F9A
:1015100030E0F901E550F54FE491F0E0EE0FFF1FE8
:10152000E953F54F45915491F901EF5BF44FE49184
:10153000E0935B032DCF1092800010928100909178
:1015400081009860909381009091810091609093C8
:101550008100282F30E0F901E550F54FE491F0E0EB
:10156000EE0FFF1FE953F54F45915491F901EF5BE1
:10157000F44FE491E0935A030BCF1092B000109215
:10158000B1009091B00092609093B0009091B10042
:1015900091609093B100282F30E0F901E550F54FAC
:1015A000E491F0E0EE0FFF1FE953F54F45915491A0
:1015B0005093710340937003F901EF5BF44FE49192
:1015C000E0937203E5CE10929000109291009091FA
:1015D0009100986090939100909191009160909308
:1015E0009100282F30E0F901E550F54FE491F0E04B
:1015F000EE0FFF1FE953F54F45915491F901EF5B51
:10160000F44FE491E093590393E09D83C1CE10928F
:10161000A0001092A1009091A10098609093A10069
:101620009091A10091609093A100282F30E0F901E2
:10163000E550F54FE491F0E0EE0FFF1FE953F54F51
:1016400045915491F901EF5BF44FE491E093580315
:101650009FCE2FEFC216D104E104F10409F00CF47F
:10166000A4C068E478EE81E090E0A50198010E94B2
:10167000C83C69017A0181E0C81AD108E108F10883
:101680009D81992309F489C19FEFC916D104E10412
:10169000F10409F00CF4EFCE62E17AE780E090E02B
:1016A000A50194010E94C83C69017A0181E0C81A31
:1016B000D108E108F1089D81992309F453C186E01E
:1016C0009FEFC916D104E104F10491F088F0C980BC
:1016D000DA80EB80FC808AE0F594E794D794C79495
:1016E0008A95D1F781E0C81AD108E108F10887E0AE
:1016F0009091B100987F892B8093B1002FC064E254
:1017000074EF80E090E0A50194010E94C83C69015B
:101710007A0181E0C81AD108E108F10885E09FEF5D
:10172000C916D104E104F10419F310F362E17AE778
:1017300080E090E0A50194010E94C83C69017A0113
:1017400081E0C81AD108E108F108B9CF81E02D8104
:101750002111CECF95B5987F892B85BD2FEF3FEF17
:10176000A901411451046104710409F049C09D812B
:10177000923009F4E7C00CF0CEC0992309F4D3C02D
:10178000913009F0E9CDD0928900C0928800209371
:1017900068033093690340936A0350936B0380910D
:1017A0006F00826080936F00D7CD82E0D0CFB12CE4
:1017B000A12C60E072E18AE790E0A50198010E9407
:1017C000C83C69017A0181E0C81AD108E108F10832
:1017D000C114D10491E0E906F10404F591E02D81F2
:1017E000213069F580918100887F892B8093810069
:1017F0002FEF3FEFA901411451046104710419F264
:10180000D801AA0FBB1FA30192010E94E73C28EE5A
:1018100033E040E050E00E94FA3CA9CF68E478EE63
:1018200081E090E0A50198010E94C83C69017A011D
:1018300081E0C81AD108E108F10893E0D0CF8D818A
:10184000833001F580919100887F892B80939100EE
:101850002FEF3FEFA901411451046104710481F697
:10186000D0929900C092980020936403309365034E
:101870004093660350936703809171008260809368
:1018800071006ACD2D81243009F58091A100887FF7
:10189000892B8093A1002FEF3FEFA9014114510440
:1018A0006104710409F0ACCFD092A900C092A800E5
:1018B000209360033093610340936203509363036A
:1018C0008091720082608093720046CD8D81853058
:1018D00009F044CF80912101887F892B80932101D9
:1018E0002FEF3FEFA901411451046104710409F085
:1018F00087CFD0922901C092280120935C033093B6
:101900005D0340935E0350935F0380917300826098
:101910008093730021CD8D81843031F20CF4A0CFFF
:10192000853039F319CDC7BC20936C0330936D0318
:1019300040936E0350936F0380916E00826080939A
:101940006E000ACDC092B3002093730330937403EA
:10195000409375035093760380917000826080936A
:101960007000FACC84E02FEFC216D104E104F10438
:1019700009F008F4EFCEC980DA80EB80FC809AE0B1
:10198000F594E794D794C7949A95D1F791E0C91A42
:10199000D108E108F10885E0DDCE83E02FEFC21623
:1019A000D104E104F10411F00CF076CED3CEAF9265
:1019B000BF92CF92DF92EF92FF920F931F93CF933C
:1019C000DF936C017B018B01040F151FEB015E019E
:1019D000AE18BF08C017D10759F06991D601ED9133
:1019E000FC910190F081E02DC6011995892B79F7C2
:1019F000C501DF91CF911F910F91FF90EF90DF9084
:101A0000CF90BF90AF900895FC01538D448D252F4A
:101A100030E0842F90E0821B930B541710F0CF9688
:101A2000089501970895FC01918D828D981761F0BA
:101A3000A28DAE0FBF2FB11D5D968C91928D9F5FD1
:101A40009F73928F90E008958FEF9FEF0895FC01B0
:101A5000918D828D981731F0828DE80FF11D858D63
:101A600090E008958FEF9FEF0895FC01918D228DF6
:101A7000892F90E0805C9F4F821B91098F7399277B
:101A8000089585E893E00E94350D21E0892B09F443
:101A900020E0822F0895FC01A48DA80FB92FB11D5D
:101AA000A35ABF4F2C91848D90E001968F73992794
:101AB000848FA689B7892C93A089B1898C91837072
:101AC00080648C93938D848D981306C00288F3896B
:101AD000E02D80818F7D80830895EF92FF920F9398
:101AE0001F93CF93DF93EC0181E0888F9B8D8C8DCA
:101AF00098131AC0E889F989808185FF15C09FB7BE
:101B0000F894EE89FF896083E889F9898081837080
:101B1000806480839FBF81E090E0DF91CF911F912F
:101B20000F91FF90EF900895F62E0B8D10E00F5F50
:101B30001F4F0F731127E02E8C8D8E110CC00FB626
:101B400007FCFACFE889F989808185FFF5CFCE01BE
:101B50000E944B0DF1CFEB8DEC0FFD2FF11DE35AE1
:101B6000FF4FF0829FB7F8940B8FEA89FB89808141
:101B70008062CFCF0F931F93CF93DF938C01D0E080
:101B8000C0E0F801EC0FFD1F6491662341F085E889
:101B900093E00E946D0D892B11F02196F2CFCE01BA
:101BA000DF91CF911F910F910895CF93DF93EC01B7
:101BB000888D8823B9F0AA89BB89E889F9898C9135
:101BC00085FD03C0808186FD0DC00FB607FCF7CFF1
:101BD0008C9185FFF2CF808185FFEDCFCE010E94F1
:101BE0004B0DE9CFDF91CF91089580E090E0892BF4
:101BF00029F00E94410D81110E94000080E090E0D8
:101C0000892B49F080E090E0892B29F00E940000A8
:101C100081110E94000080E090E0892B49F080E073
:101C200090E0892B29F00E94000081110E940000A1
:101C300080E090E0892B49F080E090E0892B29F04A
:101C40000E94000081110C9400000895CF92DF9251
:101C5000EF92FF921F93CF93DF93EC016A017B0118
:101C60008C810E942F0811E0892B09F410E08B85EC
:101C7000181721F0CD8ADE8AEF8AF88E8D899E8929
:101C8000AF89B88DB701A601481B590B6A0B7B0BB6
:101C9000898D90E0B0E0A0E084179507A607B7070C
:101CA00098F48C85181781F01C878A851817A9F07D
:101CB000CA8EDB8EEC8EFD8EEAA1FBA1309721F05F
:101CC000B701A601898519951B87DF91CF911F91D7
:101CD000FF90EF90DF90CF900895CE8EDF8EE8A238
:101CE000F9A2ECA1FDA1309779F389851995ECCF84
:101CF000FC01158213861486158616861786108AAF
:101D0000118A128A138A148A158A168A138E86817A
:101D1000882311F0848183830895CF92DF92EF921C
:101D2000FF920F931F93CF93DF93EC018E8181116C
:101D300003C08D89882369F18C810D851E852F85CF
:101D400038896A017B01C01AD10AE20AF30A9701B5
:101D5000860137FD18C009891A892B893C89401BE7
:101D6000510B620B730B14161506160617065CF062
:101D700061E0DF91CF911F910F91FF90EF90DF9085
:101D8000CF900C94580860E00E9458088D8981110A
:101D90001D8ADF91CF911F910F91FF90EF90DF90FF
:101DA000CF900895CF93DF93EC0161E088810E948A
:101DB000580881E08C870E941C096D877E878F8779
:101DC000988BDF91CF910895CF92DF92EF92FF929F
:101DD000CF93DF93EC016A017B0169857A858B855E
:101DE0009C850E94A93B9B01AC0160E070E080E80B
:101DF0009FE30E94983D20E030E040E05FE30E94D6
:101E00000A3C20E030E04AE754E40E940A3CCD8ED0
:101E1000DE8EEF8EF8A220E030E040E05FE30E942B
:101E20002C3D0E94113EC60ED71EE81EF91EC9A207
:101E3000DAA2EBA2FCA28FA191E089278FA3DF9108
:101E4000CF91FF90EF90DF90CF900895CF92DF92E7
:101E5000EF92FF92CF93DF93EC016A017B018D89B2
:101E60009E89AF89B88DAB019601281B390B4A0BAF
:101E70005B0BDA01C901B7FD49C0898D9A8DAB8D25
:101E8000BC8DAB019601281B390B4A0B5B0BDA01A9
:101E9000C901181619061A061B06C4F18EA188235B
:101EA000A9F189859A85AB85BC850197A105B10506
:101EB00051F461E08C81DF91CF91FF90EF90DF9042
:101EC000CF900C94580889A19AA1ABA1BCA1AB01F9
:101ED0009601281B390B4A0B5B0BDA01C901B7FDD0
:101EE00004C0A601CE010E94E40E8C819FA199231B
:101EF00011F061E0E0CF60E00E9458081FA2DF917E
:101F0000CF91FF90EF90DF90CF90089560E08C81AB
:101F10000E9458081FA2898D9A8DAB8DBC8DC81A5E
:101F2000D90AEA0AFB0A8EA1882331F01C141D0489
:101F30001E041F040CF41EA288A5882301F31C14A0
:101F40001D041E041F04DCF618A6D9CF8F929F92A1
:101F5000AF92BF92CF92DF92EF92FF920F931F93B7
:101F6000CF93DF93EC018E81811104C088A1882377
:101F700009F445C07B0189899A89AB89BC894A01EA
:101F80005B01881A990AAA0ABB0AC501B40197FD28
:101F900053C00D891E892F89388D4A015701801A37
:101FA000910AA20AB30A95018401101611061206BD
:101FB00013060CF441C02A8D2223A9F10C8D1D8D2E
:101FC0002E8D3F8D200F311F2115310511F421E099
:101FD00030E0FB8C50E040E00E94FA3C6017710753
:101FE000D8F4F1100AC069857A8520E030E0A901B3
:101FF0008C810E948D0981E08B8F81E0898FDF9138
:10200000CF911F910F91FF90EF90DF90CF90BF90F5
:10201000AF909F908F900895FF2079F38C810E945C
:1020200048091B8EEACF69857A8520E030E0A90156
:102030008C810E948D09E1CF898D882301F38C81E9
:102040000E944809198E1B8E88A18823C1F218A20C
:10205000D6CF6F3FA9F0E62FE295EF7044E0E49F02
:1020600090011124DC01ED91FC91E20FF31F6F70E0
:1020700082819381B6E06B9F800D911D112408959C
:1020800090E080E00895982F80336CF08A3324F03C
:102090008F3524F08B3724F481E0089581341CF0CF
:1020A00081E09B350CF080E00895FC018285811170
:1020B0000AC0A781B085CD010196908787838C9156
:1020C000818781E08287818508951F93CF93DF9375
:1020D000EC01162F0E945510811306C01A8681E06C
:1020E000DF91CF911F91089580E0FACF0F931F9356
:1020F000CF93DF938C01EB018991882369F0C801AC
:102100000E945510882379F0FE0131979081981331
:102110000DC0F8011286F0CF90E080E0DF91CF9102
:102120001F910F91089582E090E0F8CF83E090E056
:10213000F5CFCF93DF93EC01CE010E9455108B3089
:102140004CF489305CF4882359F081E08E8390E070
:1021500080E00BC08D3011F08032B9F71A86ECCFD9
:102160008E81811105C081E090E0DF91CF910895CB
:1021700082E090E0FACFDC0152969C915297915008
:1021800084E0989F900111245096ED91FC91E20F0C
:10219000F31F228133812115310579F0418180813E
:1021A000481758F481E0840F818386E0489F200D12
:1021B000311D11242115310521F460E070E08FEF0D
:1021C0000895B901892F8295807F840F0895DF9249
:1021D000EF92FF920F931F93CF93DF93EC017B015C
:1021E000D12C688979898A89D816E0F484E0D89E50
:1021F00080011124060F171FD80112966D917C9152
:102200006115710541F0D701ED91FC910280F381D8
:10221000E02DC7011995F8011382128210821182F4
:10222000D394DFCF1A8A8FEF8C8BC617D70761F054
:10223000D701ED91FC910280F381E02DC701199542
:10224000D98BC88B84E08B8BDF91CF911F910F913D
:10225000FF90EF90DF900895CF92EF920F931F932E
:10226000CF93DF93C0910802D091090240910A02F6
:1022700050910B0260910C0270910D02C09000020F
:10228000E09001020091020220910E02CE010E9414
:102290003A078091B604823020F1C357D64009F046
:1022A0006FC040914A0350914B0360914C03709171
:1022B0004D03009152031091530320915403309128
:1022C0005503009377041093780420937904309396
:1022D0007A0440938204509383046093840470933F
:1022E000850490915603992309F453C0833018F064
:1022F00083E080938A041092560481E0809357040F
:10230000809358048093590480935A0410925B047C
:1023100010925C041092720494E69093730480937C
:10232000F9041092B70487E08093B80489E08093A1
:10233000B90480913F0690914006A0914106B0916A
:1023400042068093BA049093BB04A093BC04B0935C
:10235000BD0480913B0690913C06A0913D06B09152
:102360003E068093BE049093BF04A093C004B09334
:10237000C104DF91CF911F910F91EF90CF900895FD
:1023800040914E0350914F0360915003709151035F
:1023900090CF10925804EDCF4F925F926F927F9240
:1023A0008F929F92AF92BF92CF92DF92EF92FF9265
:1023B0000F931F93CF93DF9300D01F921F92CDB73F
:1023C000DEB7DC012C912B32E1F12D32D9F50196EB
:1023D000EE24E394FC01208130ED320F3A3010F00E
:1023E0002E3291F58C0160E070E0CB01F801219173
:1023F00030ED832E820E39E0381508F444C06A3976
:1024000049E97407840749E1940708F046C0AAE047
:10241000B0E09B01AC010E94E73C912CB12CA12CB7
:1024200024013501409450946094709446165706E8
:102430006806790690F1680D791D8A1D9B1D8F0134
:10244000D5CF0196E12CC6CF198229813A814B81E3
:102450005C816D8170E080E090E00F900F900F90B4
:102460000F900F90DF91CF911F910F91FF90EF9000
:10247000DF90CF90BF90AF909F908F907F906F90A4
:102480005F904F900895211108C0EE2051F1613006
:102490007105810550E89507A0F0F12CBAE08B2E6C
:1024A000912CA12CB12C6115710530E883079105A1
:1024B000F8F0A50194010E94FA3CCA01B901F39415
:1024C000F2CF22E029839B01AC0188279927DC0108
:1024D000821B930BA40BB50B8A839B83AC83BD83B8
:1024E000B4CF23E029836A837B838C839D83ADCF24
:1024F000F801D8012D918D0130ED320F3A3010F4F2
:10250000F394F6CF2E3201F58F010F5F1F4FF801C4
:102510000F5F1F4F2081A0EDDA2ED20EB9E0BD155E
:1025200098F06C3CECEC7E07ECE08E07910578F7B8
:10253000AAE0B0E09B01AC010E94E73C6D0D711D6B
:10254000811D911DFA94E3CF20812F7D10E000E0E2
:10255000253409F050C021812D32B1F53296CC24BA
:10256000C394DF0110E000E02F2D0F2C000C330B83
:10257000EAE0BE2EFD01DD9040ED4D0D4A30B0F594
:10258000B09EA001B19E500D11240D2DDD0C110B3C
:1025900000531109040F151FA801420F531F4732A2
:1025A000510544F3CC20B9F080E090E0A0E0B0E821
:1025B000E11003C080E090E0DC0121E029838A8300
:1025C0009B83AC83BD8341CF2B3219F03196C12C54
:1025D000C8CF3296FCCF80E090E0A0E8BFEFE110DA
:1025E000ECCF80E090E0A0E8BFE7E7CFCC2019F087
:1025F0001195019511092081211126CF0F0D111D73
:10260000F7FC1A950E94A93B48E1A42E42E0B42EA3
:10261000101611063CF011950195110950E0A52EF8
:1026200052E0B52ED12CC12C01151105E9F0F6E0D0
:10263000CF16D104A9F000FF0DC0F601EE0FFF1F69
:10264000EE0FFF1FEA0DFB1D259135914591549129
:102650000E940A3C159507952FEFC21AD20AE4CFC3
:1026600060E070E080EC9FE7E110905821E0298362
:102670006A837B838C839D83E8CECF92DF92EF9237
:10268000FF920F931F93CF93DF937C016B018A011D
:10269000FC01C081D1814F3F510509F0B0F4E881C0
:1026A000F9810480F581E02D4B5F5F4FCE011995D4
:1026B000009759F0FC010383DF91CF911F910F9197
:1026C000FF90EF90DF90CF900895E881F98102802C
:1026D000F381E02DB601CE01199581E0F7018283E7
:1026E00090E080E0E9CF1F93CF93DF93EC01162FAA
:1026F0006A817B816115710589F04C815D81FB01E7
:1027000083818417150651F4440F551F4F5F5F4FA7
:10271000888199810E943D139B838A838A819B8152
:10272000009759F02C813D81A9014F5F5F4F5D8378
:102730004C83820F931FFC011483DF91CF911F9173
:1027400008959F92AF92BF92CF92DF92EF92FF9245
:102750000F931F93CF93DF9300D01F921F92CDB79B
:10276000DEB78C010E945510D82EF8011286F12C8C
:10277000E12C60EFC62EC8010E945510F8011286A8
:10278000D81609F4B3C0811113C082E090E00F9015
:102790000F900F900F900F90DF91CF911F910F919D
:1027A000FF90EF90DF90CF90BF90AF909F900895F3
:1027B0008C3509F099C0C8010E945510882329F36F
:1027C000E6EAF2E0853709F083C0F801128654E0AA
:1027D000952EB12CA12CC8010E9455108823A9F276
:1027E000813434F48053803130F083E090E0CFCFF7
:1027F0008F7D8753F8CF44E0AA0CBB1C4A95E1F7C4
:10280000A82AF80112869A949110E5CFC501985D27
:102810008115944020F47501F3E0FF22ACCFC5018F
:102820009C5D81159440A8F483E0B822B701762F0F
:102830006627770F770F6A297B2990E080E0019661
:10284000603871058105910540F4C8010E94731339
:1028500092CFB50190E080E0F3CF1982262F2F733D
:1028600020682A8326E096958795779567952A951F
:10287000D1F76032710580F4606C6B835E01E4E037
:10288000AE0EB11CF50162915F01662309F473CFAE
:10289000C8010E947313F6CF262F2F7320682B8355
:1028A00086E0769567958A95E1F76031710538F491
:1028B000606E6C835E01F5E0AF0EB11CE3CF606823
:1028C0006C83CD825E0126E0A20EB11CDBCF329676
:1028D0009081992309F489CF8913F9CF81818823C5
:1028E00009F483CFF8011286682FAFCF82819381DC
:1028F000892B19F484E090E04ACF90E080E047CF44
:102900006F927F928F929F92AF92BF92CF92DF92FF
:10291000EF92FF920F931F93CF93DF93EC012A81E5
:102920003B812C5F3F4F4C815D814430510588F5E0
:102930008901F90180E0942FB22FAE2FA21BA917B5
:1029400030F4F190A1E0F110A0E08A2BF6CF8111D4
:1029500020C082E0EB018C83FB01802F8B1B891749
:1029600028F4E80189918E018193F7CF640F751FD8
:10297000FB011082DF91CF911F910F91FF90EF909B
:10298000DF90CF90BF90AF909F908F907F906F908F
:1029900008958B01F901E40FF51F10828881998158
:1029A0004C815D81DC011396ED91FC913A01E89434
:1029B00077F86901C60CD71C3097C1F0A381A61522
:1029C000170481F449017F01B4E0EB0EF11C8C1473
:1029D0009D0429F1D401AD904D01D701BD907D0139
:1029E000AB14A9F30190F081E02DE6CF6A817B81E1
:1029F0000E943D13FC01A881B98113968D919C9191
:102A00001497918380831496FC93EE9313971B8203
:102A10001A8285E0E8018C83F983E883ABCF828159
:102A20008F5F8283F6CFDB01ED91FC9111970280DD
:102A3000F381E02DBC01CD011994AF92BF92CF92EA
:102A4000DF92EF92FF920F931F93CF93DF93EC01EE
:102A50008B018C8180FF24C0A881B981FB01838117
:102A6000948130E020E00097D9F0A817B907D1F59C
:102A7000F8016081718112968C91129781501296A3
:102A80008C93129781110CC08D919C9111972115F7
:102A9000310529F1F90191838083CD010E9413153D
:102AA0008C81807631F1209721F1F8805801F5E191
:102AB000AF0EB11C8FEFF816D1F06F2DC5010E943B
:102AC00029106C01FC01E580B8010E941D15F80178
:102AD000818DF6018083F801F18EFE2CEBCF94837B
:102AE0008383DBCF9C01FC0180819181BCCFF88284
:102AF000F9821C82DF91CF911F910F91FF90EF908F
:102B0000DF90CF90BF90AF9008950F931F93CF9316
:102B1000DF93EC01088119818B819C81009749F03A
:102B2000FC01208131813C832B83B8010E94131565
:102B3000F3CF68817981CE010596DF91CF911F9106
:102B40000F910C94E710FC0101900020E9F73197F8
:102B5000AF01481B590BBC0185E893E00C94D70CDE
:102B60008F929F92AF92BF920F931F93CF93DF9359
:102B7000CDB7DEB7A1970FB6F894DEBF0FBECDBFBD
:102B800019A2423008F44AE08E010F5D1F4F842ED7
:102B9000912CB12CA12CA50194010E94FA3CE62FA6
:102BA000B901CA01EA30F4F4E05DD801EE938D0179
:102BB000232B242B252B79F790E080E0109719F038
:102BC000CD010E94A315A1960FB6F894DEBF0FBEEB
:102BD000CDBFDF91CF911F910F91BF90AF909F908C
:102BE0008F900895E95CE1CF4AE00C94B015CF9244
:102BF000DF92EF92FF92CF93DF936C01990FEE0873
:102C0000FF08F7FE19C06DE285E893E00E946D0DA4
:102C1000EC0166277727CB016C197D098E099F0986
:102C20004AE00E94B0158C0F9D1FDF91CF91FF905D
:102C3000EF90DF90CF9008954AE0C701B601DF9191
:102C4000CF91FF90EF90DF90CF900C94B015CF9381
:102C5000DF930E94BA0DEC0189EB92E00E94A3156C
:102C60008C0F9D1FDF91CF910895CF93C82F809334
:102C70000E0689EE9BE00E94BA0D80910C06082E8C
:102C8000000C990B0E94F7158FED9BE00E94BA0D86
:102C90008DEC9BE0CC2311F086ED9BE00E94BA0DF9
:102CA0008CED9BE0CF910C9427160F931F93CF933D
:102CB0008C01C62FFC01638384EB97E00E94BA0D60
:102CC000F8018081082E000C990B0E94F7158AEA02
:102CD00097E00E94BA0D88E997E0CC2311F081EAD1
:102CE00097E00E94BA0D87EA97E0CF911F910F916C
:102CF0000C942716EF92FF920F931F93CF93DF93BD
:102D00007C018B01EA018EE797E00E94BA0DC701B2
:102D10000E94BA0D82E797E00E94BA0DC8010E9496
:102D2000BA0D86E697E00E94BA0DCE010E94BA0D58
:102D300083E697E0DF91CF911F910F91FF90EF9085
:102D40000C942716CF93DF936DE785E893E00E94FC
:102D50006D0DEC0189EB92E00E94A3158C0F9D1F75
:102D6000DF91CF9108954F925F926F927F928F92F1
:102D70009F92AF92BF92EF92FF920F931F93CF93C8
:102D8000DF932A013B0148015901853009F480C0D5
:102D900008F061C0843009F46FC0E0912C04F09118
:102DA0002D041481CBE5DDE04AE7E42E4DE0F42E5E
:102DB0008BEB9DE00E94BA0DC7010E94BA0D82EB19
:102DC0009DE00E94BA0D812F110F990B0E94F715FB
:102DD00087EA9DE00E94BA0DCE010E94BA0D82E9F9
:102DE0009DE00E94BA0D8091FA059091FB05A0919B
:102DF000FC05B091FD05A3019201281B390B4A0B7C
:102E00005B0BCA01B9010E94F41580E89DE00E94A5
:102E1000BA0D8091FA059091FB05A091FC05B09147
:102E2000FD05A5019401281B390B4A0B5B0BCA0158
:102E3000B9010E94F415DF91CF911F910F91FF907E
:102E4000EF90BF90AF909F908F907F906F905F902A
:102E50004F900C94A216863039F1873009F09DCF3F
:102E6000E0913404F09135041481CFE3DDE080E695
:102E7000E82E8DE0F82E9CCFE0912E04F0912F04E7
:102E80001481C6E5DDE034E7E32E3DE0F32E90CF7C
:102E9000E0913004F09131041481CDE4DDE02DE6C1
:102EA000E22E2DE0F22E84CFE0913204F091330433
:102EB0001481C4E4DDE096E6E92E9DE0F92E78CF9A
:102EC000CF92DF92EF92FF920F931F93CF93DF93F6
:102ED000EC018881813009F4D1C06A017B01813025
:102EE00090F08230D1F488E394E00E94780E86E579
:102EF00094E0DF91CF911F910F91FF90EF90DF90C1
:102F0000CF900C94780E8981853009F47DC070F4DF
:102F10008330F1F1843009F45AC0DF91CF911F91D1
:102F20000F91FF90EF90DF90CF900895863009F4D5
:102F300088C0873091F7E0913404F09135043097E0
:102F400061F38681882349F385A18111E6CF8F81C2
:102F50009885A985BA85C58AD68AE78AF08E8C0DB0
:102F60009D1DAE1DBF1D818F928FA38FB48F81E0F9
:102F700086A3CF010E94E40E0F81188529853A852A
:102F80000C0D1D1D2E1D3F1DB701A60187E01CC0A5
:102F9000E0912C04F0912D04309709F4BECF868186
:102FA000882309F4BACF0F81188529853A85C18A0B
:102FB000D28AE38AF48A0C0D1D1D2E1D3F1D058B40
:102FC000168B278B308F83E00E94B316A6CFE0913B
:102FD0002E04F0912F04309709F49FCF8681882327
:102FE00009F49BCF0F81188529853A85C18AD28A39
:102FF000E38AF48A0C0D1D1D2E1D3F1D058B168BBB
:10300000278B308F84E0E0CFE0913004F0913104E1
:10301000309709F482CF8681882309F47ECF0F810F
:10302000188529853A85C586D686E786F08A0C0DEF
:103030001D1D2E1D3F1D018B128B238B348B85E0B4
:10304000C3CFE0913204F0913304309709F465CF97
:103050008681882309F461CF0F81188529853A85F7
:10306000C586D686E786F08A0C0D1D1D2E1D3F1DD8
:10307000018B128B238B348B86E0A6CF8981E09164
:103080002604F0912704882339F0813009F045CFD8
:10309000E0912804F0912904309709F43ECFCF80C5
:1030A000D884E984FA844C0D5D1D6E1D7F1D418B13
:1030B000528B638B748B31CF2F923F924F925F92E2
:1030C0006F927F928F929F92AF92BF92CF92DF9238
:1030D000EF92FF920F931F93CF93DF9300D01F9235
:1030E000CDB7DEB72A013B0103E4809F9001112494
:1030F000912C8901C9018A549B4F9A8389834BE0A3
:10310000842E19019EE4290E311CE981FA81808107
:10311000981608F0A0C0A92CB12CC801899C800D7C
:10312000911D11248A5D9B4FFC01E25BFF4F2081C2
:10313000233039F1805B9F4FFC018081893021F081
:1031400090910B0689131DC08A9CF0018B9CF00D99
:103150001124E00FF11FE958FB4FC080D180E280BD
:10316000F380C114D104E104F10469F4B301A201B4
:10317000C101989C800D911D11248A5D9B4F0E9476
:1031800060179394C2CFC40CD51CE61CF71CE9E071
:10319000F5E090E080E02081211125C024E0880F37
:1031A000991F2A95E1F7DC01A650BB4F8A9CF001DC
:1031B0008B9CF00D1124E00FF11FEC58FB4F282DD4
:1031C00001900D922A95E1F78A5D9B4FFC01E15237
:1031D000FF4FC082D182E282F3828D519F4F21E066
:1031E000FC012083CECF019670968031910599F62F
:1031F0008DEC9CE00E94BA0D8A9CC0018B9C900DC6
:103200001124800F911F8A5D9B4F9C838B83FC014F
:10321000E25BFF4F608170E090E080E04AE00E9456
:10322000B01582EC9CE00E94BA0DEB81FC81E15B61
:10323000FF4F608170E090E080E04AE00E94B015AE
:1032400081EB9CE00E94BA0DC701B6010E94F41503
:103250000E94A21696CF0F900F900F900F90DF91C3
:10326000CF911F910F91FF90EF90DF90CF90BF9083
:10327000AF909F908F907F906F905F904F903F9016
:103280002F9008950F931F93CF93DF938C01D62F28
:10329000C42F88EC98E00E94BA0DC8010E94BA0DB4
:1032A0008DEB98E00E94BA0D83EA98E0DD2311F0DF
:1032B00089EA98E00E94BA0D8EEA98E00E94BA0D61
:1032C00088E998E0CC2311F08EE998E00E94BA0DCD
:1032D000DF91CF911F910F910C94A2160F931F9322
:1032E000CF938C01C62F8EE798E00E94BA0DC801DB
:1032F0000E94BA0D83E798E00E94BA0D88E698E034
:10330000CC2311F08EE698E00E94BA0DCF911F9168
:103310000F910C94A216CF92DF92EF92FF920F932F
:103320001F93CF938C01C62F69017A018EE498E038
:103330000E94BA0DC8010E94BA0D83E498E00E9471
:10334000BA0D8BE298E0CC2311F081E398E00E9463
:10335000BA0D86E398E00E94BA0DC701B6010E943B
:10336000F415CF911F910F91FF90EF90DF90CF90C8
:103370000C94A2167F928F929F92AF92BF92CF929F
:10338000DF92EF92FF920F931F93CF93DF93EC01A5
:10339000762E49015A016701780181E198E00E9487
:1033A000BA0DCE010E94BA0D86E098E00E94BA0DD7
:1033B00080EE97E0772011F086EE97E00E94BA0D3C
:1033C00088EF97E00E94BA0DC501B4010E94F41580
:1033D0008BEE97E00E94BA0DC701B6010E94F4156A
:1033E000DF91CF911F910F91FF90EF90DF90CF90E1
:1033F000BF90AF909F908F907F900C94A216EF9209
:10340000FF920F931F93CF937C018B01C42F89E40C
:1034100097E00E94BA0DC7010E94BA0D8DE397E0B4
:103420000E94BA0DC8010E94BA0D82E397E00E9483
:10343000BA0D87E297E0CC2311F08DE297E00E946D
:10344000BA0DCF911F910F91FF90EF900C94A2169F
:10345000CF92DF92EF92FF920F931F93CF93DF9360
:103460008C01EB0169017A018DE097E00E94BA0DB1
:10347000C8010E94BA0D81E097E00E94BA0DCE010A
:103480000E94BA0D86EF96E00E94BA0DC701B60100
:103490000E94F415DF91CF911F910F91FF90EF9053
:1034A000DF90CF900C94A216009711F00C94A31506
:1034B00090E080E00895EF92FF920F931F93CF93D7
:1034C000DF93C0912604D0912704882321F0C09176
:1034D0002804D0912904209709F472C0613009F4BE
:1034E00069C008F464C0623009F467C09EE0E92E48
:1034F0009CE0F92E811104C087E1E82E8CE0F82EC3
:103500008FE79CE00E94BA0DC7010E94BA0D86E7C2
:103510009CE00E94BA0D6C8170E090E080E04AE08F
:103520000E94B0158BE59CE00E94BA0DC8010E9474
:10353000BA0D86E49CE00E94BA0D6A8D7B8D8C8D5D
:103540009D8D0091FA051091FB052091FC053091AD
:10355000FD05601B710B820B930B0E94F41584E335
:103560009CE00E94BA0D6E8D7F8D88A199A100917B
:10357000FA051091FB052091FC053091FD05601BBB
:10358000710B820B930B0E94F41583E29CE00E9466
:10359000BA0DCE010D960E94541A80E29CE0DF9194
:1035A000CF911F910F91FF90EF900C9427160AEA8C
:1035B0001CE09CCF01EA1CE099CF09E91CE096CF02
:1035C000DF91CF911F910F91FF90EF90089590910F
:1035D0000206911104C090910306992371F0909115
:1035E000040691110AC060910906882321F08130F8
:1035F00021F460910A060C945B1A0895CF93DF932F
:10360000EC016E8389EA96E00E94BA0D8F8198855D
:103610000E94541A80EA96E00E94BA0D8C81082E0E
:10362000000C990B0E94F71586E996E00E94BA0DEE
:103630008E8181110AC084E896E00E94BA0D83E968
:1036400096E0DF91CF910C9427168DE896E0F5CFA8
:1036500060E080910F02909110020E94FE1A60E0DB
:1036600080911102909112020E94FE1A60E08091F6
:103670001302909114020E94FE1A60E080911502DC
:10368000909116020E94FE1A60E0809117029091BC
:1036900018020E94FE1A60E08091190290911A02AD
:1036A0000E94FE1A60E080911B0290911C020E9411
:1036B000FE1A80911D0290911E02009719F060E0A1
:1036C0000E94FE1A60E080911F02909120020C94EB
:1036D00055161F93CF93DF93EC01162F8E8188230D
:1036E00021F060E0CE010E94FE1A8D81813021F42C
:1036F00060E08C810E9458081C836D81812F0E949C
:1037000086088D81813021F460E08C810E94580808
:103710008CED96E00E94BA0D8F8198850E94541A14
:1037200083EC96E00E94BA0D8C81082E000C990B58
:103730000E94F715DF91CF911F910C94A216CF93A1
:10374000DF93EC010E94691B8C810E942F0821E00D
:10375000892B09F420E02A878C810E942F0821E020
:10376000892B09F420E02B878C810E942F0821E00F
:10377000892B09F420E02C871D8A1E8A1F8A188E47
:10378000DF91CF9108959F92AF92BF92CF92DF9237
:10379000EF92FF920F931F93CF93DF938A01452BF4
:1037A00009F468C0E9016B016596FC016081CE01F6
:1037B0000E942910FC01BB24BA94892B09F0B58022
:1037C0007601E894F7F8AA24A3946701C00ED11EED
:1037D00099249394309709F44DC0AA2009F43FC06E
:1037E0008481843069F0853049F1823079F5DF01D8
:1037F0000D900020E9F71197CD018E1B9F0B07C09C
:103800000190F081E02D90E080E0309781F79F7784
:10381000E816F90621F5D801AC15BD05E1F46B2DCC
:10382000CE01DF91CF911F910F91FF90EF90DF902C
:10383000CF90BF90AF909F900C942910A081B18140
:10384000FD01349613968C9190E0E2CF90E080E0F9
:10385000F0E0E0E0DDCF9D9181919817E9F2A92495
:103860006B2DCE010E942910FC01892B09F4B2CFE7
:10387000B580B0CF90E080E0DF91CF911F910F91A4
:10388000FF90EF90DF90CF90BF90AF909F90089502
:10389000FC0120813181C9014A96428153816481B2
:1038A0007581009759F0D9015E96EC91E03211F0E4
:1038B00090E080E0009711F00C94C31B90E080E052
:1038C0000895CF93DF93EB010E94481C009741F0CD
:1038D000FC012481263021F48081DF91CF9108956D
:1038E0008881FBCFCF92DF92EF92FF92CF93DF934D
:1038F00000D01F921F92CDB7DEB70E94481CDC019A
:10390000892B09F44BC01496EC911497E250ED30DA
:1039100008F044C0F0E08827EF56F34E8F4F0C9428
:10392000453EBD1CCE1CD21CD51C9E1CCE1CCE1CE4
:10393000CE1CAE1CCE1CB31CCE1CD91C6C9170E0EE
:1039400090E080E00F900F900F900F900F90DF911C
:10395000CF91FF90EF90DF90CF9008956D917D9182
:103960008D919C91EFCF8D919D910D90BC91A02D4B
:10397000B7FD14C0BC01CD01E5CFCD010E94CC1133
:103980003A834B835C836D83CA80DB80EC80FD804F
:10399000223059F1233059F1213079F060E070E0A4
:1039A000CB01D0CF8D919C91E9CF8D919C910496C4
:1039B000E5CFCD90DD90ED90FC9020E030E0A901C6
:1039C000C701B6010E94403E87FDE8CF2FEF3FEFD1
:1039D0004FE75FE4C701B6010E94A43B1816F4F25A
:1039E000C701B6010E94113EADCFF7FCD7CFC7018A
:1039F000B601A8CF8F929F92AF92BF92CF92DF92E3
:103A0000EF92FF920F931F93CF93DF9300D000D0DC
:103A1000CDB7DEB749015A0167017801FB0101907A
:103A20000020E9F73197E61BF70B9A8389837C83A3
:103A30006B83ED838F2F8F778E83CE0101960E944B
:103A4000481C0097B9F0FC0124812A3041F02C3049
:103A500089F480819181A281B381B7FD0BC0CE0131
:103A600001960E94721C86169706A806B90610F4E5
:103A70004B015C01C501B401C616D706E806F9067C
:103A800010F4C701B60126960FB6F894DEBF0FBE3C
:103A9000CDBFDF91CF911F910F91FF90EF90DF90FD
:103AA000CF90BF90AF909F908F900895CF92DF926C
:103AB000EF92FF92CF93DF9300D01F921F92CDB76A
:103AC000DEB70E94481CDC01892B09F448C014961B
:103AD000EC911497E250ED3008F041C0F0E08827F7
:103AE000EB58F24E8F4F0C94453EB21DAF1DC41DD6
:103AF000C71D821DAF1DAF1DAF1D911DAF1D9E1DAA
:103B0000AF1DCB1D6C9170E0CB010F900F900F900B
:103B10000F900F90DF91CF91FF90EF90DF90CF90BB
:103B200008958D919D910D90BC91A02D811520E857
:103B30009207A105B10598F4BC01E6CF8D919D9146
:103B40000D90BC91A02D6C017D0120E8D20EE11CEE
:103B5000F11CC114D10421E0E206F10468F370E025
:103B600060E0D2CFCD010E94CC113A834B835C83BD
:103B70006D83CA80DB80EC80FD80223049F12330E8
:103B800099F1213061F70BC08D919C91ECCF8D9113
:103B90009C910496E8CFCD90DD90ED90FC9020E0D4
:103BA00030E040E057ECC701B6010E94403E87FD7F
:103BB000D6CF20E03EEF4FEF56E4C701B6010E949A
:103BC000A43B181664F2C701B6010E940A3E9CCFBE
:103BD000D701C6019058AF4FBF4F0097A140B10524
:103BE00008F0BDCFB60190CFC11480E8D806E1043B
:103BF000F104C0F3B4CF0F931F93CF93DF93EC0185
:103C00008B010E94481CFC01892B29F084818A3099
:103C100051F08C30C1F0F80180819181DF91CF911A
:103C20001F910F91089580819181A281B3818115A7
:103C30009048A105B10578F7CE01DF91CF911F9192
:103C40000F910C94561D80819181A281B38190586F
:103C5000AF4FBF4F0097A140B105E8F6EDCF4F92AF
:103C60005F926F927F92AF92BF92CF92DF92EF926C
:103C7000FF920F931F93CF93DF93909102069111C0
:103C800005C090910306992309F4EAC090910406B7
:103C90009111E6C0823008F0E3C080930B068111D9
:103CA0000AC0E0912604F0912704309759F481E08E
:103CB00080930906D5C0E0912804F091290430973B
:103CC00009F487C09089992309F480C00189128979
:103CD00023893489041715072607370708F482C09B
:103CE000882309F4CCC082E080930A06B9C08F898A
:103CF0008F5F8F8B9D89891708F4ADC08FA584369F
:103D000058F40E944C3BA30192010E94C83C8FA52D
:103D1000681710F01F8A9FC01F8A888D882351F072
:103D20009D899501281B31099217130609F05CF44F
:103D3000890F8D8B8B89823008F08DC0B701A60169
:103D40000E945C1888C083E392E00E94BA0D6D89DE
:103D500070E090E080E04AE00E94B01580E392E0DD
:103D60000E942716E7CFCD8EDE8EEF8EF8A273C0AD
:103D70008DA5811170C089A19AA1ABA1BCA1A70199
:103D80009601281B390B4A0B5B0BDA01C901B7FD01
:103D900062C08DA19EA1AFA1B8A58C199D09AE09E5
:103DA000BF09181619061A061B060CF054C08FA579
:103DB000843610F00DA7BECF0E944C3BA3019201A8
:103DC0000E94C83C8FA56817A8F345C0882309F452
:103DD0006ECF81E089CF10920906E0912604F09120
:103DE000270408C08823B9F310920A06E09128043A
:103DF000F0912904309781F00091FE051091FF05A4
:103E00002091000630910106040F151F261F371F51
:103E1000018B128B238B348B6A017B01182FC6E236
:103E2000D4E0AA24AA94B12C94E6492E512C612CFA
:103E3000712C01E08C89882371F08EA5893011F0F6
:103E4000181309C08A89813009F48DCF08F44FCF47
:103E5000823009F48DCF6E9634E0C236D30751F725
:103E6000DF91CF911F910F91FF90EF90DF90CF9056
:103E7000BF90AF907F906F905F904F90089582E0D9
:103E800017CFBF92CF92DF92EF92FF920F931F93C3
:103E9000CF93DF93EC01198D1F3F81F0612F459681
:103EA0000E942910FC018081898F309709F477C026
:103EB00014828FEF8583BF01812F76C06C0135E0BE
:103EC000C30ED11CE880F9808F89882341F0C60198
:103ED0000E94BB10E62FF72F182F309749F71F8944
:103EE000988D191324C0103109F459C0110F6D8930
:103EF0007E89D701ED91FC91B4E01B9FA0011124B4
:103F0000C616D70609F044C00190F081E02DBA0131
:103F1000C7011995009709F442C020E1F601DC01C0
:103F200001900D922A95E1F79E8B8D8B188F0D894C
:103F30001E898F8921E0280F2F8BE4E08E9FC0011E
:103F40001124080F191F90E1B92E203111F48FE0D0
:103F5000B82EF6E0BF9EB0011124D701ED91FC917F
:103F60000190F081E02DC7011995F80193838283B8
:103F7000892B09F4B12CD801BC9211961C92012B0B
:103F800071F0C6010E94BB10E62FF72F182F8DCFBE
:103F90000480F581E02DC7011995009729F681E08D
:103FA0008A8360E070E08FEFDF91CF911F910F91D6
:103FB000FF90EF90DF90CF90BF9008954F925F9267
:103FC0006F927F928F929F92AF92BF92CF92DF9229
:103FD000EF92FF920F931F93CF93DF9300D01F9226
:103FE0001F92CDB7DEB78C017B01B42E0E949910D1
:103FF0006C01892B09F048C0C8010E945510863613
:1040000009F4A9C124F5873229F08B3561F1823298
:1040100009F0A8C1D80115961C921E921497129609
:104020008D919C911397892B39F48D919C910E94CD
:104030001F07F80193838283C8010E94A1136C01BA
:10404000892B11F5B701C8010E9480141DC0843767
:1040500009F460C18B3709F47BC08E3609F082C148
:1040600064ED72E060C180E4D70114968C931497DC
:10407000E114F10421F08FEF8C9311968C93B11021
:104080001AC025E0C22ED12CC6010F900F900F90C0
:104090000F900F90DF91CF911F910F91FF90EF90B4
:1040A000DF90CF90BF90AF909F908F907F906F9058
:1040B0005F904F900895F8011286C8010E949910F0
:1040C000009751F56DE5C8010E9465108111DCCFA4
:1040D000BA94D8011B966D907C90C3010E94411F39
:1040E000A82E4B01672B21F494E0C92ED12CCCCF04
:1040F000F70161816F3F91F0C30145960E9429103D
:10410000DC011596AC92F701A1824B2DB401C801D8
:104110000E94DE1F009739F06C01B6CFD7018C9357
:1041200011968C93F2CFC8010E9499100097A1F7C5
:104130006DE5C8010E9465108111A6CF6CE2C8012F
:104140000E9465108111C5CF83E0C82ED12C9CCF71
:1041500080E2F7018483E114F10419F08FEF80838A
:104160008183BB2009F48DCFD8011A961C92C80117
:104170000E949910009781F66DE7C8010E946510B2
:10418000811182CFBA94F8011582148282819381C1
:10419000892B49F4808191810E941F07D8011396D1
:1041A0009C938E931297C8010E9455108732F9F0A4
:1041B0008232E9F0C8010E945510D82E0E944310A7
:1041C000882311F2F80112866D2DC8010E94731325
:1041D000C8010E945510D82E0E9443108111F2CFC1
:1041E000D80112968D919C91892B41F47DCFC80105
:1041F0000E94A1136C01892B09F046CFC8010E94CF
:1042000099106C01892B09F03FCF6AE3C8010E9425
:104210006510882309F498CFD8011296ED91FC918E
:10422000139714968D919C911597E80FF91F14829E
:1042300014966D917C9115977F771B966D907C906D
:104240001C9712968D919C910496272F2F77BA2D4B
:10425000B078AB2EA22AE894A7F89301AC017A2D8E
:10426000C7010E94C31B6C01009761F5C3010E9446
:10427000411F482E4B01672B09F436CFC3010E9422
:10428000411F582E962FC92ED72EC114D10409F4E0
:104290002BCFF4015582D70111966C916F3F71F0CD
:1042A000C30145960E942910FC014582D701119651
:1042B0005C92B401C8010E94801407C0F7014082DB
:1042C0005182F7CFB3010E941D154B2DB601C801D5
:1042D0000E94DE1F6C01892B09F0D6CEC8010E9416
:1042E00099106C01892B09F0CFCE6DE7C8010E94AF
:1042F00065108111C9CE6CE2C8010E946510882347
:1043000009F422CFC8010E9499106C01892B09F48D
:104310003ACFBACE86E0D70114968C93149781E0F9
:104320008C9369EC72E0C8010F900F900F900F9082
:104330000F90DF91CF911F910F91FF90EF90DF9041
:10434000CF90BF90AF909F908F907F906F905F9035
:104350004F900C94761086E0F701848310826EEC07
:1043600072E0E1CFC8010E9455104801FDE08F0EB8
:10437000911CB12C782CA92C803384F08A3384F4DE
:104380003FE3B316A9F0D8011A961C92B394F40136
:1043900081934F01C8010E945510EECF8B3281F3FB
:1043A00093ED980F923060F3982F9F7D953441F3F1
:1043B0000B0D111DD8011D961C92872D9A2D0E9460
:1043C000CC113A834B835C836D838A819B81AC8162
:1043D000BD812230A9F0233059F0213009F0B4CE4C
:1043E0002EE0F701248380839183A283B3834CCE94
:1043F0002AE0F701248380839183A283B38344CE90
:104400002CE0F7CF4F925F926F927F928F929F92A4
:10441000AF92BF92CF92DF92EF92FF920F931F93D2
:10442000CF93DF93CDB7DEB7CF5FD1090FB6F89446
:10443000DEBF0FBECDBF6E012EECC20ED11C85E0DB
:1044400092E0F60191838083128214821382C60166
:104450000596968B858B178A84E0808F8FEF818FEE
:10446000168E878F9E012F5F3F4F790110E000E08D
:104470000E941C0960938D0370938E0380938F03B9
:104480009093900385E893E00E94130D97FD02C07E
:104490000C94EF2F0E941C0980908D0390908E0346
:1044A000A0908F03B0909003681979098A099B093D
:1044B0008090890390908A03A0908B03B0908C0326
:1044C000681579058A059B05E8F20F37110561F437
:1044D00085E893E00E94350D892B31F085E893E063
:1044E0000E94130D0A97A1F7E1E0F0E0EC0FFD1F29
:1044F000E00FF11F10820530110578F045E050E023
:1045000069ED72E0CE0101960E945340892B29F497
:1045100083EE98E00E94271678C5F60160817181CC
:10452000C60105960E94E710F601128200811181F2
:10453000F60183819481009751F0FC012081318143
:10454000F60134832383B8010E941315F1CF168E30
:10455000CF57DF4FD982C882C158D040CD57DF4FE7
:1045600019821882C358D040CB57DF4F1982188266
:10457000C558D040C957DF4F1882C758D04021E0F6
:1045800030E02C0F3D1FC857DF4F39832883C858B0
:10459000D040C557DF4F1882CB58D040C457DF4FAB
:1045A000D982C882CC58D0404AE0B601665E7F4FBF
:1045B000CE018F579F4F0E94DE1F8C01892B69F41B
:1045C000C657DF4F8881CA58D040882331F0F601A2
:1045D000868D83FF02C003E010E0CD57DF4F888156
:1045E0009981C358D040009751F0CF57DF4FE881F1
:1045F000F981C158D040608171810E941315011565
:104600001105F1F08CE696E00E94BA0DF801EE0F6C
:10461000FF1FE05CFA4F859194910E94BA0D89E6E4
:1046200096E00E94271685E893E00E94350D181643
:1046300019060CF0EAC485E893E00E94130DF3CF4D
:10464000CF57DF4FD982C882C158D0408FED92E05A
:10465000CD57DF4F99838883C358D04083E0CB5731
:10466000DF4F8883C558D040CA57DF4F1881C658DE
:10467000D04010781068CA57DF4F1883C658D04012
:10468000CE018F579F4F0E94481C009709F4BDC46C
:10469000FC018481882309F4B8C41068CA57DF4F2D
:1046A0001883C658D040CE018F579F4F0E94561D89
:1046B0008C01893DF1E09F0709F482C00CF02FC105
:1046C000883731E0930709F44FC60CF07EC087337A
:1046D000914009F428C5083381E01807DCF50D3254
:1046E00091E0190709F43EC434F560E00C32F1E0C2
:1046F0001F0709F438C4073EF1E01F0709F4B8C3E7
:104700000CF09EC30B3C110509F4B5C70CF0D9C2DF
:104710000636110511F40C94AE2D0CF04CC2043683
:10472000110511F40C94172D0536110509F4DBC79A
:104730008CE495E0EFCE0F3221E0120709F4CFC4EC
:1047400060E0063331E01307B1F6809115029091D5
:1047500016020DC4033741E0140709F40BC434F505
:10476000093381E0180739F60091150210911602FD
:104770000E941C09F801618B728B838B948B85845A
:104780009684A784B088DC01CB01880D991DAA1DF1
:10479000BB1D858B968BA78BB08F81E080A349EEE4
:1047A00054E06FEE74E084EF94E0BAC4043791E013
:1047B000190709F445C40537E1E01E0709F09BCF4E
:1047C000083D114009F47DC020C48139F1E09F0704
:1047D00009F4C9C4CCF58E3731E0930709F4A5C4B8
:1047E0001CF58D37914009F086CFEE24EA94FE2C1B
:1047F00000E010E021E030E040E050E063EE72E0E5
:10480000C6010E94FA1C9B01AC01E0911502F091D7
:104810001602218732874387548767E075E081E17C
:1048200095E00E94281AF1C3023881E0180709F4C4
:10483000B0C560E0003991E0190709F05CCF8091C4
:1048400017029091180293C38B39E1E09E0709F497
:10485000AEC47CF4833921E0920709F486C460E099
:104860008A39914009F047CF8091190290911A023C
:104870007EC38D3941E0940709F4BBC4883D914063
:1048800009F039CF10ECE12E17E2F12E09E010E02B
:1048900021E030E040E050E06DEE72E0C6010E94A1
:1048A000FA1C9B01AC01E0911702F09118022187DC
:1048B0003287438754876BED74E084EE94E00E9466
:1048C000281ACF57DF4FD982C882C158D0408DEE09
:1048D00092E0CD57DF4F99838883C358D04088E05A
:1048E000CB57DF4F8883C558D040CA57DF4F8881E8
:1048F000C658D04080788068CA57DF4F8883C65832
:10490000D040CE018F579F4F0E94721C6093380297
:104910007093390280933A0290933B02DDC30F39C2
:1049200082E0180709F49BC40CF088C0053FE1E061
:104930001E0709F480C474F5023E21E0120709F451
:1049400038C4C4F40C3D41E0140709F0D4CE15E39B
:10495000E12EF12C00E010E022E030E040E050E0F9
:1049600066EF72E0C6010E94FA1C809117029091D6
:1049700018020CC5063E51E0150709F41DC560E09C
:10498000043F81E0180709F0B6CE80911B02909198
:104990001C02EDC2083592E0190709F457C4C4F4AB
:1049A0000034F2E01F0709F0A6CE15E3E12EF12C4A
:1049B00000E010E022E030E040E050E066EF72E01E
:1049C000C6010E94FA1C80911B0290911C02DEC459
:1049D000093522E0120709F430C40B3532E0130721
:1049E00009F089CE00911D0210911E0201151105DA
:1049F00009F40BC30E941C09AB01BC01F801458BF3
:104A0000568B678B708F85859685A785B089840FB7
:104A1000951FA61FB71F818F928FA38FB48FFF247E
:104A2000F394F6A2C8010E94E40EF801F0A64AE948
:104A300054E060EA74E085EA94E072C3043843E02D
:104A4000140709F48FC40CF075C0043A82E018070B
:104A500009F4C5C40CF054C0003AE2E01E0709F0A6
:104A60004ACE10ECE12E17E2F12E09E010E021E031
:104A700030E040E050E06DEE72E0C6010E94FA1CAA
:104A80009B01AC01E0911D02F0911E02309751F0A4
:104A9000258736874787508B6BE774E084E894E07E
:104AA0000E94281ACF57DF4FD982C882C158D04000
:104AB0008DEE92E0CD57DF4F99838883C358D04065
:104AC00088E0CB57DF4F8883C558D040CA57DF4FA7
:104AD0008881C658D04080788068CA57DF4F888365
:104AE000C658D040CE018F579F4F0E94721C6093D2
:104AF0003402709335028093360290933702ECC2F1
:104B0000093AF2E01F0709F413C40A3A22E0120737
:104B100009F0F1CDE0911D02F0911E02309709F4E9
:104B200074C281E085A34EE454E06AE574E08FE549
:104B300094E0F6C2003D33E0130709F46AC4BCF404
:104B4000053853E0150709F405C4073883E0180752
:104B500009F0D1CD80911F02909120020E94D20EC7
:104B600048E354E06EE374E083E494E0D9C2043394
:104B700094E0190709F483C40036E5E01E0709F044
:104B8000BACD8091110290911202892B09F43DC295
:104B900015E3E12EF12C00E010E022E030E040E0EF
:104BA00050E066EF72E0C6010E94FA1C809111028B
:104BB000909112027DC40836110511F40C94D82D81
:104BC0000CF4D8C70936110509F0B2CDC251DF4F38
:104BD0001882CE5ED040CF57DF4FD982C882C158ED
:104BE000D04086E193E0CD57DF4F99838883C35847
:104BF000D04086E0CB57DF4F8883C558D040CA5796
:104C0000DF4F8881C658D04080788068CA57DF4F10
:104C10008883C658D040BE0162517F4FCE018F5766
:104C20009F4F0E94611C182F0E941C094B015C01C0
:104C300080910206882311F40C94F62E109304063A
:104C4000112311F40C94752E80920506909206069D
:104C5000A0920706B09208060E94BF07E0912C04BC
:104C6000F0912D04309719F084810E944809E09159
:104C70002E04F0912F04309719F084810E94480986
:104C800080911B068823B9F080912906811113C0F9
:104C900088E196E00E94D20E80922A0690922B061E
:104CA000A0922C06B0922D0681E080932906F894FC
:104CB00010921A067894412F6FE875E08EE995E01E
:104CC000B6C4033831E0130709F4D2C00CF058C061
:104CD000093751E0150709F4CBC00A3781E01807FE
:104CE00009F45CC00D3D110509F022CDC251DF4F22
:104CF0001882CE5ED040CF57DF4FD982C882C158CC
:104D0000D04080E093E0CD57DF4F99838883C3582C
:104D1000D04085E0CB57DF4F8883C558D040CA5775
:104D2000DF4F8881C658D04080788068CA57DF4FEF
:104D30008883C658D040BE0162517F4FCE018F5745
:104D40009F4F0E94611C182F89E896E0112311F0F3
:104D500083E796E0909309028093080285E01111A1
:104D600086E080930E020E942C1147EF55E011233C
:104D700011F04CEF55E062E076E08EE096E0D0C1B5
:104D80000D3D91E0190709F473C00E3DE1E01E07E7
:104D900029F00438F1E01F0709F0CACCC251DF4FF7
:104DA00019821882CE5ED040CF57DF4FD982C88299
:104DB000C158D0408DE193E0CD57DF4F9983888370
:104DC000C358D04086E0CB57DF4F8883C558D040CA
:104DD000CA57DF4F8881C658D04080788068CA574C
:104DE000DF4F8883C658D040BE0162517F4FCE014D
:104DF0008F579F4F0E94FB1D4C01B12C81309105B4
:104E000031F0BB24B394029711F029E0B22E0A3797
:104E100051E0150711F00C94FB2EB09202020E9493
:104E20002C11E1E0BE120C940C2FB092F10694010B
:104E3000990C440B550B67E775E084E895E0F1CCDD
:104E4000093324E0120709F4E4C30CF063C00C3A00
:104E500042E0140709F4D5C30CF04CC0083E81E0D1
:104E6000180709F49BCF013A92E0190709F060CCCA
:104E7000CF57DF4FD982C882C158D0408AEF92E025
:104E8000CD57DF4F99838883C358D04085E0CB57F7
:104E9000DF4F8883C558D040CA57DF4F8881C65836
:104EA000D04080788068CA57DF4F8883C658D0408A
:104EB000CE018F579F4F0E94721C6136EAEE7E072B
:104EC0008105910520F060E67AEE80E090E0013AFD
:104ED000F2E01F0709F06EC360933F06709340062F
:104EE000809341069093420680915603882309F4EB
:104EF0008CC0F2C0093EE3E01E0709F486C3083304
:104F0000F4E01F0709F496C3083E134009F010CCE3
:104F100060E07CC3043135E0130709F493C384F4E3
:104F20000D3454E0150709F47FC7083984E01807E9
:104F300009F47EC70C34144009F0FACB80E075C741
:104F40000436E5E01E0709F48EC30536F5E01F07B9
:104F500009F47AC30531154009F0EACB61E081EE2E
:104F600096E005C061E080911302909114020E94C6
:104F7000FE1A4BC0EE24EA94FE2C00E010E021E083
:104F800030E040E050E063EE72E0C6010E94FA1C9F
:104F90009B01AC01E0911302F0911402218732874A
:104FA0004387548762E375E08CE395E00E94281AFA
:104FB000CF57DF4FD982C882C158D04083EE92E0EC
:104FC000CD57DF4F99838883C358D04089E0CB57B2
:104FD000DF4F8883C558D040CA57DF4F8881C658F5
:104FE000D04080788068CA57DF4F8883C658D04049
:104FF000CE018F579F4F0E94721C60933C027093AA
:105000003D0280933E0290933F02C6010E948515A7
:10501000C150DF4F0FB6F894DEBF0FBECDBFDF919A
:10502000CF911F910F91FF90EF90DF90CF90BF90A5
:10503000AF909F908F907F906F905F904F9008956A
:1050400010ECE12E17E2F12E09E010E021E030E053
:1050500040E050E06DEE72E0C6010E94FA1C9B0138
:10506000AC01E0911302F09114022587368747873F
:10507000508B65E275E08EE295E00E94281ACF57CA
:10508000DF4FD982C882C158D0408DEE92E0CD5713
:10509000DF4F99838883C358D04088E0CB57DF4FD8
:1050A0008883C558D040CA57DF4F8881C658D04042
:1050B00080788068CA57DF4F8883C658D040CE01B9
:1050C0008F579F4F0E94721C609340027093410261
:1050D00080934202909343020E942C1196CF00913C
:1050E0001302109114020E941C09F801618B728B4B
:1050F000838B948B85849684A784B088DC01CB0154
:10510000880D991DAA1DBB1D858B968BA78BB08F13
:1051100081E080A346E155E06CE175E081E295E035
:105120000E947A1672CF61E010CB10ECE12E17E2EC
:10513000F12E09E010E021E030E040E050E06DEEBB
:1051400072E0C6010E94FA1C9B01AC01E0911502BD
:10515000F0911602258736874787508B69EF74E0F8
:1051600082E095E05ECB61E06ACB0091170210917E
:1051700018020E941C09F801658776878787908B43
:1051800081849284A384B484DC01CB01880D991DB1
:10519000AA1DBB1D818B928BA38BB48B81E0858B69
:1051A0004BEC54E061ED74E086ED94E0B9CF61E042
:1051B0005BCB10ECE12E17E2F12E09E010E021E0CC
:1051C00030E040E050E06DEE72E0C6010E94FA1C53
:1051D0009B01AC01E0911902F0911A0221873287FC
:1051E000438754876CEB74E085EC94E00E94281AA6
:1051F00073CF0091190210911A020E941C09F80144
:10520000658776878787908B81849284A384B48412
:10521000DC01CB01880D991DAA1DBB1D818B928BD2
:10522000A38BB48B81E0858B4BEA54E061EB74E097
:1052300086EB94E075CF61E0A8CB80911D02909140
:105240001E0261E0009709F092CEDFCE80911D0230
:1052500090911E0260E0009709F089CED6CEEE2430
:10526000EA94FE2C00E010E021E030E040E050E065
:1052700063EE72E0C6010E94FA1C9B01AC01E09152
:105280001D02F0911E02309779F02115310541057C
:10529000510521F021873287438754876AE874E0FB
:1052A00084E994E00E94281ACF57DF4FD982C88240
:1052B000C158D04083EE92E0CD57DF4F9983888369
:1052C000C358D04089E0CB57DF4F8883C558D040C2
:1052D000CA57DF4F8881C658D04080788068CA5747
:1052E000DF4F8883C658D040CE018F579F4F0E9412
:1052F000481CDC01892B09F4EDC01496EC9114973D
:10530000E250ED3008F0E6C0F0E08827E557F64DB2
:105310008F4F0C94453E782A6A2AA32AA62A5B2A34
:105320006A2A6A2A6A2A5F2A6A2A6C2A6A2AAA2AA6
:10533000E0911D02F0911E02309749F015A245E65A
:1053400054E060E774E085E794E00E947A161092DA
:105350005603C2CE61E080911F02909120020E940C
:10536000551653CE60E0F7CF15E3E12EF12C00E0A7
:1053700010E022E030E040E050E066EF72E0C6016D
:105380000E94FA1C80911302909114020E94691BE2
:105390003CCE15E3E12EF12C00E010E022E030E0FD
:1053A00040E050E066EF72E0C6010E94FA1C809176
:1053B000150290911602EACF15E3E12EF12C00E0E0
:1053C00010E022E030E040E050E066EF72E0C6011D
:1053D0000E94FA1C8091190290911A02D7CF8091F5
:1053E0001D0290911E02892B09F40FCE15E3E12EC8
:1053F000F12C00E010E022E030E040E050E066EF09
:1054000072E0C6010E94FA1C80911D0290911E025A
:10541000BDCF15E3E12EF12C00E010E022E030E0FA
:1054200040E050E066EF72E0C6010E94FA1CF62EE2
:1054300000911F0210912002F8018485882331F029
:1054400060E080810E945808F8011486F801F0821B
:1054500061E08F2D0E94860860E0F80180810E9443
:10546000580884EF93E00E94BA0DF8018081082E5D
:10547000000C990B0E94F7150E94A216C6CD8091D0
:105480000F0290911002892B09F4BFCD15E3E12E94
:10549000F12C00E010E022E030E040E050E066EF68
:1054A00072E0C6010E94FA1C80910F0290911002D6
:1054B0000E949F1BAACD8C9080923302A6CD8D9026
:1054C0009D90AD90BC902FEF82169104A104B10481
:1054D00099F390F3812CF0CF8D909D90AD90BC907E
:1054E0003FEF83169104A104B10431F328F3F2CF06
:1054F000CD010E94CC11C251DF4F2883CE5ED04037
:10550000C151DF4F3883CF5ED040C051DF4F488359
:10551000C05FD040CF50DF4F5883C15FD040CE50E6
:10552000DF4F6883C25FD040C151DF4F88809980D0
:10553000AA80BB80CF5ED040223051F1233089F168
:10554000213041F60BC08D919C91D3CF8D919C91D0
:105550000496CFCF8D909D90AD90BC9020E030E030
:10556000A901C501B4010E94403E87FDB3CF20E0F0
:1055700030E04FE753E4C501B4010E94A43B181684
:105580000CF4A8CFC501B4010E94113E862E94CF21
:105590004FEF84169104A104B10409F008F48CCFF4
:1055A00099CF5FEF85169104A104B10409F008F4C6
:1055B00083CF90CF093721E0120749F4609352035B
:1055C00070935303809354039093550385CD033810
:1055D00031E0130709F419CD0D3D114049F46093F2
:1055E0004E0370934F03809350039093510374CDF7
:1055F00060934A0370934B0380934C0390934D0345
:105600006BCD81E08093560367CD61E087E097E042
:10561000AECC81E08093170787E097E09093040277
:105620008093030241E065E576E080E696E00E9423
:10563000FF19EBCC1092170740E061E476E08CE4B0
:1056400096E0F5CF60E08BCC81E08093F10681EEAF
:1056500096E0909304028093030241E06DE276E0CD
:1056600088E396E0E4CF1092F10640E069E176E04D
:1056700084E296E0DCCFCF57DF4FD982C882C15891
:10568000D04086E093E0CD57DF4F99838883C3589D
:10569000D04088E0CB57DF4F8883C558D040CA57E9
:1056A000DF4F8881C658D04080788068CA57DF4F66
:1056B0008883C658D040CE018F579F4F0E94721CDE
:1056C0004B015C0180920A0290920B02A0920C02A4
:1056D000B0920D020E942C11A50194016AED75E0B3
:1056E0008CEE95E09EC80E941C094B015C018092E3
:1056F000460390924703A0924803B092490388E181
:1057000096E00E94D20E1092030610920406809238
:10571000FA059092FB05A092FC05B092FD0581E090
:105720008093020688E394E00E94780E86E594E078
:105730000E94780E32E6E32E34E0F32E06E214E007
:10574000F8018489882341F08289813009F040C1C1
:10575000858E968EA78EB0A2025E1F4FE016F106D0
:1057600079F7E9E0F5E01082709626E0E930F2077B
:10577000D1F7E0912604F0912704309721F0118AA7
:10578000128A138A148AE0912804F0912904309730
:1057900021F0118A128A138A148AE0913404F0915C
:1057A00035043097A9F0158A168A178A108E118E43
:1057B000128E138E148E158E168E178E10A211A2B5
:1057C00012A213A214A216A217A210A681E081A70A
:1057D00080EB93E00E94271684E693E00E94BA0DC6
:1057E00080910302909104028750974009F41CC1F4
:1057F00087EF92E00E94BA0D81E693E00E9427169F
:10580000E0904002F0904102009142021091430268
:1058100020913C0230913D0240913E0250913F0266
:105820006091C6068DE593E00E94BA19E090AC063F
:10583000F090AD060091AE061091AF062091A8063B
:105840003091A9064091AA065091AB066091A50639
:1058500088E593E00E94BA1920913802309139020C
:1058600040913A0250913B0260918F0683E593E0AC
:105870000E948B1920917C0630917D0640917E0616
:1058800050917F06609179068DE493E00E948B1918
:10589000E0903402F0903502009136021091370208
:1058A0002091330230E050E040E06091340687E41C
:1058B00093E00E94BA1960915E0682E493E00E9430
:1058C0006E1960911B0687E393E00E946E19609148
:1058D0000E0683E393E00E946E19409117076091D2
:1058E0000D078AE293E00E9442194091F10660910F
:1058F000E70681E293E00E9442198DEF92E00E9458
:10590000BA0D60910A0270910B0280910C02909185
:105910000D020E94F4150E94A216809146039091F8
:105920004703A0914803B0914903E0910F02F09121
:10593000100280839183A283B383E0911102F091DE
:10594000120280839183A283B383E0911302F091CA
:10595000140280839183A283B383E0911502F091B6
:10596000160280839183A283B383E0911702F091A2
:10597000180280839183A283B383E0911902F0918E
:105980001A0280839183A283B383E0911B02F0917A
:105990001C0280839183A283B383E0911D02F09166
:1059A0001E02309721F080839183A283B383E0911C
:1059B0001F02F091200280879187A287B38780938E
:1059C000130690931406A0931506B09316061DCBEC
:1059D000823009F0C1CE41A452A463A474A460E053
:1059E00070E0CB01141415041604170434F40E945B
:1059F0004C3BA30192010E94C83C680D791D8A1D91
:105A00009B1DF80161A372A383A394A381A592A512
:105A1000A3A5B4A5880D991DAA1DBB1D85A396A39A
:105A2000A7A3B0A715A698CE8AEF92E0E3CE809107
:105A30007B038111EACA0E941C094B015C01809220
:105A4000770390927803A0927903B0927A038091C1
:105A50001B068823B9F080912906811113C088E1C3
:105A600096E00E94D20E80922A0690922B06A09277
:105A70002C06B0922D0681E080932906F8941092AE
:105A80001A0678948090770390907803A090790319
:105A9000B0907A031092020610920406E9E0F5E055
:105AA00089E096E0108270968E179F07D9F788E3F9
:105AB00094E00E94780E86E594E00E94780EE091D2
:105AC0002C04F0912D04309709F044C0E0912E048D
:105AD000F0912F04309719F084810E944809E091D9
