:100000000C94CA070C94FC340C94D1340C94A63490
:100010000C947B340C9450340C9425340C94FA33A7
:100020000C94CF330C94E7350C94FB070C94FB072E
:100030000C94FB070C9427350C94FB070C94FB07DE
:100040000C94FB070C94FB070C94FB070C94FB0728
:100050000C94FB070C94FB070C94FB070C94853362
:100060000C94FB070C94B1350C9487350C94FB076A
:100070000C94FB070C94FB070C94FB070C94FB07F8
:100080000C94FB070C94FB070C94FB070C94FB07E8
:100090000C94FB070C94FB070C94FB070C94FB07D8
:1000A0000C94FB070C94FB070C94FB070C94FB07C8
:1000B0000C94FB070C94FB070C94FB070C94FB07B8
:1000C0000C94FB070C94FB070C94FB070C94FB07A8
:1000D0000C94FB070C94FB070C94FB070C94FB0798
:1000E0000C94FB070C94952D0C945D0B0C94361F0F
:1000F0000C94C02D0C9460080C947F330C94211F39
:100100000C94511F0C94300A0C94551F0C94581FDA
:100110000C9405200C942D0A0C944E0A0C941B0A86
:100120000C94400A0C944A200C94250A0C947C2DC3
:100130000C94210A0C9447200C9485090C948A088D
:100140000C94782D0C9412100C94290A0C94671DB1
:100150000C94C32D0C9467080C9486090C94872D7D
:100160000C94600A0C94440A0C94720F0C94500F77
:100170000C94892D0C944E200C94311F0C94140F68
:100180000C946E080C9414200C942C220C94401F98
:100190000C945C0A0C94AA0F0C9482330C94560AAB
:1001A0000C9459080C945C1F0C943A0A0C94640F3C
:1001B0000C94480A0C94410F0C945B0A0C94360A78
:1001C0000C9475080C9435200C9496360C943220BF
:1001D0000C94520A0C947C080C9483080C942120F3
:1001E0000C94C72D0C947B33546F6F44656570007D
:1001F0004E6F4D656D6F727900496E76616C696402
:10020000496E70757400496E636F6D706C657465CE
:10021000496E70757400456D707479496E707574AF
:10022000004F6B00CDCCCC3D0AD7233C17B7D1385B
:1002300077CC2B329595E6241FB14F0A0000204160
:100240000000C84200401C4620BCBE4CCA1B0E5ACF
:10025000AEC59D74227D007B226C6576656C223A6A
:1002600022303031222C22646576696365223A227D
:10027000434F4E54524F4C4C4552222C22646573CE
:1002800063223A225052207468726573686F6C64FE
:100290002063617070656420617420004C480052D6
:1002A00048007B226C6576656C223A223030302221
:1002B0002C226F6D697373696F6E5F696E746572FE
:1002C00076616C223A004C455645525F4C48004CD2
:1002D000455645525F524800534C4D004D494352DC
:1002E0004F53434F5045004C49434B004C415345FD
:1002F000520050554D50320050554D500043554519
:10030000320043554500227D00736F667477617239
:10031000650065787465726E616C007B226C657631
:10032000656C223A22303030222C22646576696373
:1003300065223A22434F4E54524F4C4C4552222C88
:1003400022706172616469676D223A224F4D495390
:1003500053494F4E222C226163746976655F6C6548
:10036000766572223A2200227D007B226C657665DA
:100370006C223A22303037222C226465766963651C
:10038000223A22434F4E54524F4C4C4552222C227B
:100390006576656E74223A225354415254222C22BF
:1003A00074696D657374616D70223A302C22736FBD
:1003B00075726365223A22007D007B226C6576654A
:1003C0006C223A22303036222C2264657363223A42
:1003D00022436F6D6D616E64206E6F7420666F7561
:1003E0006E64222C22636F6D6D616E64223A007B15
:1003F000226C6576656C223A22303036222C2264DB
:100400006576696365223A224558545F54524947DC
:10041000474552222C226572726F725F636F64656A
:10042000223A224558545F50494E5F494E56414C3E
:100430004944222C2264657363223A22457874650C
:10044000726E616C20747269676765722070696E84
:10045000206D7573742062652031382C2031392C61
:10046000203230206F72203231222C22676F7422AA
:100470003A007B226C6576656C223A22303030225D
:100480002C22646576696365223A224558545F548C
:10049000524947474552222C22706172616D223ABF
:1004A0002270696E222C2276616C7565223A007B7F
:1004B000226C6576656C223A22303030222C226420
:1004C0006576696365223A22534C4D222C22706175
:1004D00072616D223A2274696D657374616D705F2B
:1004E00070696E222C2276616C7565223A007B223F
:1004F0006C6576656C223A22303036222C22646597
:1005000076696365223A22534C4D222C2265727221
:100510006F72223A2270696E5F6E6F745F706369EA
:100520006E7430222C2276616C7565223A007B2233
:100530006C6576656C223A22303037222C22646555
:1005400076696365223A22434F4E54524F4C4C45D4
:1005500052222C226576656E74223A22454E442240
:100560002C2274696D657374616D70223A007B2270
:100570006C6576656C223A22303030222C2264651C
:1005800076696365223A224D4943524F53434F5097
:1005900045222C22706172616D223A227472696761
:1005A0006765725F70696E222C2276616C756522B8
:1005B0003A0046495245440074657374004D4943FE
:1005C000524F53434F504500494E444550454E44C9
:1005D000454E54006D6F6465004C415345520043D5
:1005E0004F4E54494E47454E54006D6F6465004C64
:1005F00041534552006475726174696F6E004C41DD
:10060000534552006672657175656E6379004C41A1
:100610005345520046495245440074657374004C7A
:100620004153455200464952454400746573740075
:1006300050554D5032006475726174696F6E005090
:10064000554D50320046495245440074657374005C
:1006500050554D50006475726174696F6E0050554D
:100660004D5000464952454400746573740043552B
:100670004532006475726174696F6E00435545328E
:10068000006672657175656E637900435545320089
:1006900046495245440074657374004355450064EF
:1006A00075726174696F6E004355450066726571BD
:1006B00075656E63790043554500210216020602F6
:1006C000F901F001E8016475726174696F6E00539D
:1006D0004C4D006672657175656E637900534C4DC3
:1006E000006C657665725F66696C74657200434F75
:1006F0004E54524F4C4C45520073657373696F6E84
:100700005F70617573656400434F4E54524F4C4C9B
:10071000455200746573745F6D6F646500434F4E9E
:1007200054524F4C4C455200464952454400746562
:1007300073745F636861696E00434F4E54524F4C4F
:100740004C4552006F6D697373696F6E5F696E74AB
:10075000657276616C00434F4E54524F4C4C45527B
:100760000050554D500050554D5032006163746932
:1007700076655F70756D7000434F4E54524F4C4C10
:100780004552007265696E666F72636564004C4520
:100790005645525F4C48007265696E666F726365BC
:1007A00064004C455645525F4C48007265696E6660
:1007B0006F72636564004C455645525F5248007243
:1007C00065696E666F72636564004C455645525F9D
:1007D000524800227D007B226C6576656C223A22AD
:1007E000303036222C2264657363223A2200444959
:1007F0005341524D45440041524D454400227D0035
:100800002C2264657363223A2200222C2270696EC6
:10081000223A007B226C6576656C223A22303031B8
:10082000222C22646576696365223A2200222C22FA
:10083000706172616D223A2270696E222C2276619B
:100840006C7565223A007B226C6576656C223A22D3
:10085000303030222C22646576696365223A2200AA
:10086000222C2276616C7565223A00222C2270615E
:1008700072616D223A22007B226C6576656C223AA9
:1008800022303030222C22646576696365223A2258
:100890000066616C7365007472756500222C2276A7
:1008A000616C7565223A00222C22706172616D22A2
:1008B0003A22007B226C6576656C223A2230303019
:1008C000222C22646576696365223A2200227D002B
:1008D000222C2276616C7565223A2200222C22702D
:1008E0006172616D223A22007B226C6576656C2212
:1008F0003A22303030222C22646576696365223AD0
:10090000220044495341524D45440041524D454413
:1009100000227D002C2264657363223A22007B2230
:100920006C6576656C223A22303031222C22646567
:1009300076696365223A224D4943524F53434F50E3
:1009400045222C2270696E223A0066616C73650044
:1009500074727565002C226475726174696F6E2201
:100960003A002C226672657175656E6379223A00D1
:10097000222C2261726D6564223A007B226C6576BE
:10098000656C223A22303030222C2264657669630D
:1009900065223A220066616C7365007472756500A9
:1009A0002C226475726174696F6E223A00222C22C7
:1009B00061726D6564223A007B226C6576656C22FB
:1009C0003A22303030222C22646576696365223AFF
:1009D000220066616C7365007472756500222C22BA
:1009E00061726D6564223A007B226C6576656C22CB
:1009F0003A22303030222C22646576696365223ACF
:100A0000220066616C736500747275650066616CC6
:100A100073650074727565002C227265696E666F6D
:100A200072636564223A00222C2261726D65642231
:100A30003A007B226C6576656C223A223030302297
:100A40002C22646576696365223A2200027B226C5F
:100A50006576656C223A22303030222C226465762D
:100A6000696365223A22434F4E54524F4C4C4552D3
:100A7000222C22736B65746368223A226F6D69734E
:100A800073696F6E2E696E6F222C227665727369A0
:100A90006F6E223A2276332E342E302D62657461C9
:100AA0002E34222C22626175645F72617465223A71
:100AB0003131353230302C227363686564756C6572
:100AC000223A224F4D495353494F4E227D002C224A
:100AD000656E645F74696D657374616D70223A0050
:100AE0002C226576656E74223A224C49434B222CA7
:100AF0002273746172745F74696D657374616D7073
:100B0000223A00222C2270696E223A007B226C6508
:100B100076656C223A22303037222C226465766961
:100B20006365223A22002C22656E645F74696D65EC
:100B30007374616D70223A002C226576656E7422A2
:100B40003A225354494D222C2273746172745F749B
:100B5000696D657374616D70223A007B226C6576F5
:100B6000656C223A22303037222C22646576696324
:100B700065223A224C41534552222C2270696E2242
:100B80003A002C226D6973736564223A002C226549
:100B900076656E74223A2254494D455354414D5066
:100BA000222C2274696D657374616D70223A007B2A
:100BB000226C6576656C223A22303038222C226411
:100BC0006576696365223A224D4943524F53434F3C
:100BD0005045222C2270696E223A002C22657665DF
:100BE0006E74223A2254494D455354414D50222CA3
:100BF0002274696D657374616D70223A007B226C9A
:100C00006576656C223A22303039222C2264657672
:100C1000696365223A22534C4D222C2270696E2260
:100C20003A0000002100240027002A002D00300097
:100C3000330001010000040107010A010000220045
:100C4000250028002B002E00310034000201000096
:100C5000050108010B0100000A0B02090C0D0E082A
:100C60000703040100000000000000000000000075
:100C70000000000000000000000000000000000074
:100C80000000121110000000000000000000000031
:100C90000000000000000000000000004449534133
:100CA000524D45440041524D454400227D002C22C6
:100CB00064657363223A22007B226C6576656C2240
:100CC0003A22303031222C22646576696365223AFB
:100CD00022534C4D222C2270696E223A0044495313
:100CE00041524D45440041524D454400222C227052
:100CF000696E223A007B226C6576656C223A22305E
:100D00003031222C22646576696365223A22455887
:100D1000545F54524947474552222C226576656EEE
:100D200074223A22000102102020080810204010EE
:100D3000204080020102010804020101020408109F
:100D400020408080402010080402018004020180BD
:100D500040201008040201080402010102040810E6
:100D60002040800102040810204080000020002361
:100D700000260029002C002F003200000100000393
:100D8000010601090105050505070508080808020F
:100D90000202020A0A080804040404010101010114
:100DA0000101010303030303030303040707070C03
:100DB0000C0C0C0C0C0C0C020202020606060606B9
:100DC0000606060B0B0B0B0B0B0B0B4C455645523B
:100DD0005F4C48004C455645525F524800227D000A
:100DE0002C226F7269656E746174696F6E223A228B
:100DF000002C22656E645F74696D657374616D703B
:100E0000223A00222C2273746172745F74696D65DA
:100E10007374616D70223A002C226576656E7422BF
:100E20003A225052455353222C22636C6173732231
:100E30003A2200222C2270696E223A007B226C65D5
:100E400076656C223A22303037222C22646576692E
:100E50006365223A220054494D454F555400494E8E
:100E600041435449564500414354495645002C22BC
:100E70007363686564756C65645F6174223A002C05
:100E800022746172676574223A007B226C65766514
:100E90006C223A22303036222C226572726F725FD9
:100EA000636F6465223A22455F50454E44494E4780
:100EB0005F46554C4C222C2264657363223A2250C3
:100EC000656E64696E6720616374696F6E20717509
:100ED0006575652066756C6C20E280942061637492
:100EE000696F6E2064726F70706564222C2261637A
:100EF00074696F6E5F74797065223A005354494D7E
:100F000000494E465553494F4E00494E46555349A8
:100F10004F4E00544F4E4500544F4E45004C4153E8
:100F200045520050554D505F320050554D505F3185
:100F3000004355455F32004355455F31002C226523
:100F40006E645F74696D657374616D70223A00221E
:100F50002C2273746172745F74696D657374616D52
:100F600070223A002C226576656E74223A220022A5
:100F70002C2270696E223A007B226C6576656C22A9
:100F80003A22303037222C22646576696365223A32
:100F90002200963611241FBECFEFD1E2DEBFCDBFB7
:100FA00000E00CBF13E0A0E0B2E0E2E0F8E800E00F
:100FB0000BBF02C007900D92A834B107D9F727E004
:100FC000A8E4B3E001C01D92A534B207E1F717E031
:100FD000CAECD7E000E006C021970109802FFE018E
:100FE0000E94CC41C93CD10780E00807A9F70E94C4
:100FF000F6390C94FF430C94000090911406292FAD
:10100000092E000C330BF901EB57F24FE491F0E09D
:10101000EE0FFF1FE559F24F45915491509316067C
:1010200040931506F901EB5DF24FE491E09317064A
:1010300040916B0086EF890F843080F4265031098F
:1010400081E001C0880F2A95EAF7842B80936B001A
:1010500080916800816080936800089588E09233F1
:10106000A1F384E0933389F382E0943371F39E53C8
:1010700081E0983050F72E533109E2CFE82FF0E0AD
:10108000DF01AA0FBB1FAC5DBD4F11967C936E9321
:10109000883008F045C08827EF5AF74F8F4F0C94DF
:1010A000CC4175087C085908600867086E088308F9
:1010B0008A0880916900836080936900E89A0895A6
:1010C000809169008C6080936900E99A089580910D
:1010D0006900806380936900EA9A089580916900AD
:1010E000806C80936900EB9A089580916A00836018
:1010F00080936A00EC9A089580916A008C608093D6
:101100006A00ED9A089580916A00806380936A0076
:10111000EE9A089580916A00806C80936A00EF9A3D
:101120000895CF93DF93EC0188819981DC01ED91E3
:10113000FC910190F081E02D64E270E01995009738
:1011400041F02FE1FC01238321E02283DF91CF9145
:10115000089521E02A83FACFAF92CF92EF920F93B6
:10116000FC0191E090933C0410923D0490933E0466
:1011700040934304509344046093450470934604A1
:1011800010924704109248041092490410924A04A5
:1011900089E08093580484E68093590410925C049B
:1011A00094E09093BA041092780483E080937904D9
:1011B00000937A0410927B0410927C0410927D04B8
:1011C00010927E044091E1065091E2066091E306A0
:1011D0007091E40640937F045093800460938104EF
:1011E000709382041092830490938404E0928504A7
:1011F0001092860410928704109288041092890439
:101200008091C0069091C106A091C206B091C3061C
:1012100080938A0490938B04A0938C04B0938D04E4
:1012200010928E0420938F04263009F0AC2CA092EB
:1012300090041092910410929204109293041092D0
:10124000940481859285A385B485809395049093B9
:101250009604A0939704B09398041092990487E0A1
:1012600080939A0489E080939B0410929C041092CE
:101270009D0410929E0410929F0480914F069091BD
:101280005006A0915106B09152068093A00490930D
:10129000A104A093A204B093A3040F91EF90CF9068
:1012A000AF90089590911106923039F1933049F141
:1012B0008EEE890F8430A0F487E1891B8430A9F079
:1012C0008530B9F0833069F0E89882E090E0880FCB
:1012D000991FFC01EC5DFD4F85E899E091838083C7
:1012E0000895E99883E090E0F2CFEA9884E090E0F6
:1012F000EECFEB9885E090E0EACFEC9890E080E0CC
:10130000E6CFED9881E090E0E2CF0895E0912404EB
:10131000F0912504309729F08281882311F081E033
:101320008183089590911106923061F0933061F0BD
:101330008EEE890F843050F487E1891B66E879E0EE
:101340000C943E0880E0FACF81E0F8CF0895E09158
:101350001002F09111026083718382839383E09184
:101360001202F09113026083718382839383E09170
:101370001402F09115026083718382839383E0915C
:101380001602F09117026083718382839383E09148
:101390001802F09119026083718382839383E09134
:1013A0001A02F0911B026083718382839383E09120
:1013B0001C02F0911D026083718382839383E0910C
:1013C0001E02F0911F02309721F0608371838283A7
:1013D0009383E0912002F0912102309721F0618700
:1013E0007287838794870895EDE0F5E01082709608
:1013F00086E0ED30F807D1F708958150823108F08A
:101400005AC0E82FF0E08827E75FF54F8F4F0C9424
:10141000CC41290A2D0A1B0A210A250A5B0A300A37
:10142000360A3A0A400A440A480A4E0A520A5B0A35
:10143000560A5C0A600A809180008F778093800052
:101440000895809180008F7DF9CF80918000877F03
:10145000F5CF84B58F7784BD089584B58F7DFBCF9C
:101460008091B0008F778093B00008958091B00094
:101470008F7DF9CF809190008F77809390000895B1
:10148000809190008F7DF9CF80919000877FF5CF7C
:101490008091A0008F778093A00008958091A00094
:1014A0008F7DF9CF8091A000877FF5CF80912001BB
:1014B0008F77809320010895809120018F7DF9CF4F
:1014C00080912001877FF5CFCF93DF93282F30E0E5
:1014D000F901EA5AF34F8491F901EB5DF24FD4918F
:1014E000F901EB57F24FC491CC23A1F081110E9476
:1014F000FD09EC2FF0E0EE0FFF1FE559F24FA5912B
:10150000B491EC91ED2381E090E009F480E0DF916B
:10151000CF91089580E090E0FACF1F93CF93DF93AF
:10152000282F30E0F901EA5AF34F8491F901EB5D7D
:10153000F24FD491F901EB57F24FC491CC23A9F0AB
:10154000162F81110E94FD09EC2FF0E0EE0FFF1F16
:10155000E45CF34FA591B4918FB7F894EC9111111D
:1015600008C0D095DE23DC938FBFDF91CF911F9110
:101570000895DE2BF8CFCF93DF9390E0FC01EB5D75
:10158000F24F24918B57924FFC0184918823C9F02C
:1015900090E0880F991FFC01EE5DF34FA591B49187
:1015A000FC01E45CF34FC591D49161110DC09FB76C
:1015B000F8948C91209582238C938881282328830A
:1015C0009FBFDF91CF910895623051F49FB7F89497
:1015D0003C91822F809583238C93E8812E2BEFCF33
:1015E0008FB7F894EC912E2B2C938FBFEACF3FB797
:1015F000F8948091830390918403A0918503B09126
:10160000860326B5A89B05C02F3F19F00196A11DA2
:10161000B11D3FBFBA2FA92F982F8827BC01CD013C
:10162000620F711D811D911D42E0660F771F881F9B
:10163000991F4A95D1F708958F929F92AF92BF92CA
:10164000CF92DF92EF92FF920E94F70A4B015C016A
:1016500084E6C82ED12CE12CF12C0E94F70A6819DF
:1016600079098A099B09683E734081059105A8F3B1
:1016700021E0C21AD108E108F10888EE880E83E063
:10168000981EA11CB11CC114D104E104F10429F776
:10169000FF90EF90DF90CF90BF90AF909F908F9092
:1016A00008952FB7F89460917F0370918003809123
:1016B0008103909182032FBF08950F931F93CF93BF
:1016C000DF93C0912804D09129042097C9F08A8122
:1016D000882331F08B818F3F19F08B818F5F8B8353
:1016E00081E08A830E94510B09851A852B853C85F0
:1016F000601B710B820B930B6D837E838F839887A6
:10170000DF91CF911F910F91089590910802891355
:101710000DC0ECE4FAE0E4919FEF90930802E23010
:10172000E1F038F4EE2381F0E13089F060E00C94D0
:101730008D0AE43049F110F1E530C1F79091730062
:101740009D7F90937300F2CF10926E00EFCF909137
:101750006F009D7F90936F00E9CF909170009D7F07
:101760009093700091E09093B0009091B100987FB9
:1017700094609093B1001092B300D8CF9091710013
:101780009D7F90937100D2CF909172009D7F909336
:101790007200CCCF4F925F926F927F928F929F9206
:1017A000AF92BF92CF92DF92EF92FF920F931F936F
:1017B000CF93DF9300D01F921F92CDB7DEB78B017E
:1017C00029013A01909108028917C9F09F3F09F455
:1017D00091C00F900F900F900F900F90DF91CF91CD
:1017E0001F910F91FF90EF90DF90CF90BF90AF903F
:1017F0009F908F907F906F905F904F900895ECE452
:10180000FAE024912D8327FDE4CF61E00E94BB0A1A
:101810002D81222321F08D81823009F005C24801FB
:10182000B12CA12C60E072E18AE790E0A50198015B
:101830000E944F4029833A834B835C8369017A017C
:1018400091E0C91AD108E108F1082FEFC216D104BE
:10185000E104F10409F00CF4B6C160E472E48FE035
:1018600090E0A50198010E944F4069017A0181E052
:10187000C81AD108E108F1089D81923009F026C10B
:1018800082E02FEFC216D104E104F10409F00CF458
:101890006CC160E970ED83E090E0A50198010E94C1
:1018A0004F4069017A0181E0C81AD108E108F108C6
:1018B00083E09FEFC916D104E104F10409F00CF4B0
:1018C00054C168E478EE81E090E0A50198010E949F
:1018D0004F4069017A0181E0C81AD108E108F10896
:1018E0009FEFC916D104E104F10411F00CF044C1DA
:1018F00084E03BC180930802ECE4FAE094919D837C
:101900009F3F09F466CF923009F474C058F49923CC
:1019100099F1913009F44CC097FD5BCF61E00E94D2
:10192000BB0A79CF2D81243009F4AEC008F488C0F9
:10193000253091F710922001109221019091210100
:1019400098609093210190912101916090932101E1
:10195000282F30E0F901EB57F24FE491F0E0EE0F61
:10196000FF1FE45CF34F45915491F901EB5DF24F99
:10197000E491E093550349CF14BC15BC94B5926033
:1019800094BD95B5916095BD282F30E0F901EB57D6
:10199000F24FE491F0E0EE0FFF1FE45CF34F45914E
:1019A0005491F901EB5DF24FE491E09359032DCF8F
:1019B0001092800010928100909181009860909325
:1019C000810090918100916090938100282F30E0F8
:1019D000F901EB57F24FE491F0E0EE0FFF1FE45CEA
:1019E000F34F45915491F901EB5DF24FE491E0938F
:1019F00058030BCF1092B0001092B1009091B0003C
:101A000092609093B0009091B10091609093B1007A
:101A1000282F30E0F901EB57F24FE491F0E0EE0FA0
:101A2000FF1FE45CF34F4591549150936F03409333
:101A30006E03F901EB5DF24FE491E0937003E5CEA4
:101A40001092900010929100909191009860909364
:101A5000910090919100916090939100282F30E037
:101A6000F901EB57F24FE491F0E0EE0FFF1FE45C59
:101A7000F34F45915491F901EB5DF24FE491E093FE
:101A8000570393E09D83C1CE1092A0001092A10055
:101A90009091A10098609093A1009091A100916015
:101AA0009093A100282F30E0F901EB57F24FE49119
:101AB000F0E0EE0FFF1FE45CF34F45915491F90104
:101AC000EB5DF24FE491E09356039FCE2FEFC216E9
:101AD000D104E104F10409F00CF4A4C068E478EE48
:101AE00081E090E0A50198010E944F4069017A01D0
:101AF00081E0C81AD108E108F1089D81992309F411
:101B000089C19FEFC916D104E104F10409F00CF476
:101B1000EFCE62E17AE780E090E0A50194010E94B7
:101B20004F4069017A0181E0C81AD108E108F10843
:101B30009D81992309F453C186E09FEFC916D10412
:101B4000E104F10491F088F0C980DA80EB80FC8038
:101B50008AE0F594E794D794C7948A95D1F781E009
:101B6000C81AD108E108F10887E09091B100987F88
:101B7000892B8093B1002FC064E274EF80E090E085
:101B8000A50194010E944F4069017A0181E0C81AC1
:101B9000D108E108F10885E09FEFC916D104E104FE
:101BA000F10419F310F362E17AE780E090E0A50117
:101BB00094010E944F4069017A0181E0C81AD1085E
:101BC000E108F108B9CF81E02D812111CECF95B583
:101BD000987F892B85BD2FEF3FEFA9014114510458
:101BE0006104710409F049C09D81923009F4E7C095
:101BF0000CF0CEC0992309F4D3C0913009F0E9CD9F
:101C0000D0928900C09288002093660330936703C6
:101C1000409368035093690380916F0082608093C2
:101C20006F00D7CD82E0D0CFB12CA12C60E072E163
:101C30008AE790E0A50198010E944F4069017A016E
:101C400081E0C81AD108E108F108C114D10491E07B
:101C5000E906F10404F591E02D81213069F58091C8
:101C60008100887F892B809381002FEF3FEFA901AE
:101C7000411451046104710419F2D801AA0FBB1F69
:101C8000A30192010E946E4028EE33E040E050E054
:101C90000E948140A9CF68E478EE81E090E0A50140
:101CA00098010E944F4069017A0181E0C81AD10869
:101CB000E108F10893E0D0CF8D81833001F5809168
:101CC0009100887F892B809391002FEF3FEFA9012E
:101CD000411451046104710481F6D0929900C092BC
:101CE00098002093620330936303409364035093FE
:101CF0006503809171008260809371006ACD2D81AF
:101D0000243009F58091A100887F892B8093A10060
:101D10002FEF3FEFA901411451046104710409F050
:101D2000ACCFD092A900C092A80020935E0330935C
:101D30005F0340936003509361038091720082605F
:101D40008093720046CD8D81853009F044CF80911B
:101D50002101887F892B809321012FEF3FEFA9017B
:101D6000411451046104710409F087CFD092290114
:101D7000C092280120935A0330935B0340935C0385
:101D800050935D038091730082608093730021CD36
:101D90008D81843031F20CF4A0CF853039F319CD28
:101DA000C7BC20936A0330936B0340936C0350933A
:101DB0006D0380916E00826080936E000ACDC092A8
:101DC000B3002093710330937203409373035093D5
:101DD000740380917000826080937000FACC84E07C
:101DE0002FEFC216D104E104F10409F008F4EFCE9C
:101DF000C980DA80EB80FC809AE0F594E794D79470
:101E0000C7949A95D1F791E0C91AD108E108F10871
:101E100085E0DDCE83E02FEFC216D104E104F104AA
:101E200011F00CF076CED3CEAF92BF92CF92DF926C
:101E3000EF92FF920F931F93CF93DF936C017B017F
:101E40008B01040F151FEB015E01AE18BF08C01710
:101E5000D10759F06991D601ED91FC910190F08183
:101E6000E02DC6011995892B79F7C501DF91CF9136
:101E70001F910F91FF90EF90DF90CF90BF90AF90A8
:101E80000895FC01538D448D252F30E0842F90E080
:101E9000821B930B541710F0CF9608950197089565
:101EA000FC01918D828D981761F0A28DAE0FBF2F2E
:101EB000B11D5D968C91928D9F5F9F73928F90E084
:101EC00008958FEF9FEF0895FC01918D828D9817F3
:101ED00031F0828DE80FF11D858D90E008958FEF30
:101EE0009FEF0895FC01918D228D892F90E0805CF9
:101EF0009F4F821B91098F739927089587E893E07C
:101F00000E94720F21E0892B09F420E0822F0895AE
:101F1000FC01A48DA80FB92FB11DA35ABF4F2C915E
:101F2000848D90E001968F739927848FA689B78955
:101F30002C93A089B1898C91837080648C93938D4C
:101F4000848D981306C00288F389E02D80818F7DEF
:101F500080830895EF92FF920F931F93CF93DF93A7
:101F6000EC0181E0888F9B8D8C8D98131AC0E889D5
:101F7000F989808185FF15C09FB7F894EE89FF89A4
:101F80006083E889F98980818370806480839FBF42
:101F900081E090E0DF91CF911F910F91FF90EF9042
:101FA0000895F62E0B8D10E00F5F1F4F0F73112752
:101FB000E02E8C8D8E110CC00FB607FCFACFE8898D
:101FC000F989808185FFF5CFCE010E94880FF1CF7E
:101FD000EB8DEC0FFD2FF11DE35AFF4FF0829FB701
:101FE000F8940B8FEA89FB8980818062CFCF0F93B1
:101FF0001F93CF93DF938C01D0E0C0E0F801EC0F8A
:10200000FD1F6491662341F087E893E00E94AA0FC8
:10201000892B11F02196F2CFCE01DF91CF911F9144
:102020000F910895CF93DF93EC01888D8823B9F049
:10203000AA89BB89E889F9898C9185FD03C08081D3
:1020400086FD0DC00FB607FCF7CF8C9185FFF2CF50
:10205000808185FFEDCFCE010E94880FE9CFDF910F
:10206000CF91089580E090E0892B29F00E947E0FA7
:1020700081110E94000080E090E0892B49F080E00F
:1020800090E0892B29F00E94000081110E9400003D
:1020900080E090E0892B49F080E090E0892B29F0E6
:1020A0000E94000081110E94000080E090E0892BD6
:1020B00049F080E090E0892B29F00E940000811116
:1020C0000C9400000895CF92DF92EF92FF921F933D
:1020D000CF93DF93EC016A017B018C810E94640A3B
:1020E00011E0892B09F410E08B85181721F0CD8AB7
:1020F000DE8AEF8AF88E8D899E89AF89B88DB70107
:10210000A601481B590B6A0B7B0B898D90E0B0E050
:10211000A0E084179507A607B70798F48C851817D1
:1021200081F01C878A851817A9F0CA8EDB8EEC8E89
:10213000FD8EEAA1FBA1309721F0B701A6018985A8
:1021400019951B87DF91CF911F91FF90EF90DF9042
:10215000CF900895CE8EDF8EE8A2F9A2ECA1FDA16A
:10216000309779F389851995ECCFFC011582138698
:102170001486158616861786108A118A128A138A83
:10218000148A158A168A138E8681882311F0848119
:1021900083830895CF92DF92EF92FF920F931F9364
:1021A000CF93DF93EC018E81811103C08D89882349
:1021B00069F18C810D851E852F8538896A017B0127
:1021C000C01AD10AE20AF30A9701860137FD18C046
:1021D00009891A892B893C89401B510B620B730BAF
:1021E00014161506160617065CF061E0DF91CF9114
:1021F0001F910F91FF90EF90DF90CF900C948D0A7C
:1022000060E00E948D0A8D8981111D8ADF91CF9136
:102210001F910F91FF90EF90DF90CF900895CF9393
:10222000DF93EC0161E088810E948D0A81E08D8757
:102230000E94510B6E877F87888B998BDF91CF919E
:102240000895CF92DF92EF92FF92CF93DF93EC014C
:1022500089859A85AB85BC850097A105B10581F478
:102260004D8F5E8F6F8F78A349A35AA36BA37CA376
:102270001FA2DF91CF91FF90EF90DF90CF90089554
:102280006A017B01CD8EDE8EEF8EF8A2BC01CD01FE
:102290000E94303F9B01AC0160E070E080E89FE36A
:1022A0000E941F4120E030E040E05FE30E94913F48
:1022B00020E030E04AE754E40E94913F20E030E023
:1022C00040E05FE30E94B3400E949841C60ED71ED3
:1022D000E81EF91EC9A2DAA2EBA2FCA28FA191E02E
:1022E00089278FA3C6CFCF92DF92EF92FF92CF9331
:1022F000DF93EC016A017B018D899E89AF89B88DDE
:10230000AB019601281B390B4A0B5B0BDA01C901A3
:10231000B7FD49C0898D9A8DAB8DBC8DAB019601FF
:10232000281B390B4A0B5B0BDA01C9011816190679
:102330001A061B06C4F18EA18823A9F189859A8506
:10234000AB85BC850197A105B10551F461E08C8195
:10235000DF91CF91FF90EF90DF90CF900C948D0A9A
:1023600089A19AA1ABA1BCA1AB019601281B390B95
:102370004A0B5B0BDA01C901B7FD04C0A601CE010F
:102380000E9421118C819FA1992311F061E0E0CF7F
:1023900060E00E948D0A1FA2DF91CF91FF90EF9025
:1023A000DF90CF90089560E08C810E948D0A1FA27B
:1023B000898D9A8DAB8DBC8DC81AD90AEA0AFB0AA1
:1023C0008EA1882331F01C141D041E041F040CF47C
:1023D0001EA288A5882301F31C141D041E041F04DB
:1023E000DCF618A6D9CF8F929F92AF92BF92CF9270
:1023F000DF92EF92FF920F931F93CF93DF93EC0145
:102400008E81811104C088A1882309F445C07B0115
:1024100089899A89AB89BC894A015B01881A990A22
:10242000AA0ABB0AC501B40197FD53C00D891E89D4
:102430002F89388D4A015701801A910AA20AB30ADE
:102440009501840110161106120613060CF441C002
:102450002A8D2223A9F10C8D1D8D2E8D3F8D200FED
:10246000311F2115310511F421E030E0FB8C50E0E3
:1024700040E00E94814060177107D8F4F1100AC053
:1024800069857A8520E030E0A9018C810E94CA0B21
:1024900081E08B8F81E0898FDF91CF911F910F9128
:1024A000FF90EF90DF90CF90BF90AF909F908F9074
:1024B0000895FF2079F38C810E94850B1B8EEACF53
:1024C00069857A8520E030E0A9018C810E94CA0BE1
:1024D000E1CF898D882301F38C810E94850B198EB1
:1024E0001B8E88A18823C1F218A2D6CF6F3FA9F016
:1024F000E62FE295EF7044E0E49F90011124DC01A7
:10250000ED91FC91E20FF31F6F7082819381B6E031
:102510006B9F800D911D1124089590E080E0089537
:10252000982F80336CF08A3324F08F3524F08B376A
:1025300024F481E0089581341CF081E09B350CF097
:1025400080E00895FC01828581110AC0A781B085D1
:10255000CD010196908787838C91818781E0828766
:10256000818508951F93CF93DF93EC01162F0E946E
:10257000A212811306C01A8681E0DF91CF911F91CC
:10258000089580E0FACF0F931F93CF93DF938C01D0
:10259000EB018991882369F0C8010E94A212882367
:1025A00079F0FE013197908198130DC0F8011286E1
:1025B000F0CF90E080E0DF91CF911F910F910895CF
:1025C00082E090E0F8CF83E090E0F5CFCF93DF9307
:1025D000EC01CE010E94A2128B304CF489305CF4E5
:1025E000882359F081E08E8390E080E00BC08D302D
:1025F00011F08032B9F71A86ECCF8E81811105C0B7
:1026000081E090E0DF91CF91089582E090E0FACFF1
:10261000DC0152969C915297915084E0989F9001D2
:1026200011245096ED91FC91E20FF31F228133812A
:102630002115310579F041818081481758F481E0F6
:10264000840F818386E0489F200D311D11242115C0
:10265000310521F460E070E08FEF0895B901892F12
:102660008295807F840F0895DF92EF92FF920F93FF
:102670001F93CF93DF93EC017B01D12C688979897B
:102680008A89D816E0F484E0D89E80011124060FD0
:10269000171FD80112966D917C916115710541F05B
:1026A000D701ED91FC910280F381E02DC7011995CE
:1026B000F8011382128210821182D394DFCF1A8A1A
:1026C0008FEF8C8BC617D70761F0D701ED91FC9186
:1026D0000280F381E02DC7011995D98BC88B84E066
:1026E0008B8BDF91CF911F910F91FF90EF90DF9037
:1026F0000895AF92CF92EF920F931F93CF93DF93F2
:10270000C0910902D0910A0240910B0250910C0233
:1027100060910D0270910E02A0900002C090010223
:10272000E09002020091030220910F02CE010E946C
:10273000AC088091BA048430E0F1C758D64009F063
:1027400088C0409148035091490360914A037091B9
:102750004B0300915003109151032091520330918B
:10276000530300937B0410937C0420937D043093E7
:102770007E0400938604109387042093880430938A
:10278000890440939104509392046093930470934E
:1027900094044091530650915406609155067091EF
:1027A000560640939C0450939D0460939E0470933E
:1027B0009F0490915403992309F454C0843018F075
:1027C00083E08093990410925A0481E080935B0423
:1027D00080935C0480935D0480935E0410925F0498
:1027E000109260041092760494E69093770480939C
:1027F000FD041092BB0487E08093BC0489E08093C1
:10280000BD048091530690915406A0915506B09155
:1028100056068093BE049093BF04A093C004B09367
:10282000C10480914F0690915006A0915106B0913D
:1028300052068093C2049093C304A093C404B0933F
:10284000C504DF91CF911F910F91EF90CF90AF9082
:10285000089540914C0350914D0360914E03709147
:102860004F0377CF10925C04ECCF4F925F926F9240
:102870007F928F929F92AF92BF92CF92DF92EF9210
:10288000FF920F931F93CF93DF9300D01F921F925D
:10289000CDB7DEB7DC012C912B32E1F12D32D9F529
:1028A0000196EE24E394FC01208130ED320F3A30A2
:1028B00010F02E3291F58C0160E070E0CB01F80150
:1028C000219130ED832E820E39E0381508F444C092
:1028D0006A3949E97407840749E1940708F046C05A
:1028E000AAE0B0E09B01AC010E946E40912CB12C9B
:1028F000A12C2401350140945094609470944616A4
:1029000057066806790690F1680D791D8A1D9B1D92
:102910008F01D5CF0196E12CC6CF198229813A814A
:102920004B815C816D8170E080E090E00F900F90B2
:102930000F900F900F90DF91CF911F910F91FF900B
:10294000EF90DF90CF90BF90AF909F908F907F904F
:102950006F905F904F900895211108C0EE2051F1C3
:1029600061307105810550E89507A0F0F12CBAE0BF
:102970008B2E912CA12CB12C6115710530E88307A9
:102980009105F8F0A50194010E948140CA01B901A6
:10299000F394F2CF22E029839B01AC018827992789
:1029A000DC01821B930BA40BB50B8A839B83AC8346
:1029B000BD83B4CF23E029836A837B838C839D838B
:1029C000ADCFF801D8012D918D0130ED320F3A30A5
:1029D00010F4F394F6CF2E3201F58F010F5F1F4FE5
:1029E000F8010F5F1F4F2081A0EDDA2ED20EB9E063
:1029F000BD1598F06C3CECEC7E07ECE08E07910581
:102A000078F7AAE0B0E09B01AC010E946E406D0D2A
:102A1000711D811D911DFA94E3CF20812F7D10E05F
:102A200000E0253409F050C021812D32B1F53296F5
:102A3000CC24C394DF0110E000E02F2D0F2C000CFC
:102A4000330BEAE0BE2EFD01DD9040ED4D0D4A3026
:102A5000B0F5B09EA001B19E500D11240D2DDD0CDE
:102A6000110B00531109040F151FA801420F531F2A
:102A70004732510544F3CC20B9F080E090E0A0E06B
:102A8000B0E8E11003C080E090E0DC0121E02983A0
:102A90008A839B83AC83BD8341CF2B3219F031965F
:102AA000C12CC8CF3296FCCF80E090E0A0E8BFEF09
:102AB000E110ECCF80E090E0A0E8BFE7E7CFCC20CA
:102AC00019F01195019511092081211126CF0F0DC3
:102AD000111DF7FC1A950E94303F4CE3A42E42E0F2
:102AE000B42E101611063CF011950195110954E20F
:102AF000A52E52E0B52ED12CC12C01151105E9F0FF
:102B0000F6E0CF16D104A9F000FF0DC0F601EE0FDC
:102B1000FF1FEE0FFF1FEA0DFB1D2591359145911B
:102B200054910E94913F159507952FEFC21AD20A32
:102B3000E4CF60E070E080EC9FE7E110905821E086
:102B400029836A837B838C839D83E8CECF92DF9237
:102B5000EF92FF920F931F93CF93DF937C016B0152
:102B60008A01FC01C081D1814F3F510509F0B0F4C9
:102B7000E881F9810480F581E02D4B5F5F4FCE0144
:102B80001995009759F0FC010383DF91CF911F91B4
:102B90000F91FF90EF90DF90CF900895E881F98139
:102BA0000280F381E02DB601CE01199581E0F70195
:102BB000828390E080E0E9CF1F93CF93DF93EC0115
:102BC000162F6A817B816115710589F04C815D81C9
:102BD000FB0183818417150651F4440F551F4F5F85
:102BE0005F4F888199810E94A6159B838A838A8181
:102BF0009B81009759F02C813D81A9014F5F5F4F68
:102C00005D834C83820F931FFC011483DF91CF916E
:102C10001F9108959F92AF92BF92CF92DF92EF9251
:102C2000FF920F931F93CF93DF9300D01F921F92B9
:102C3000CDB7DEB78C010E94A212D82EF801128601
:102C4000F12CE12C60EFC62EC8010E94A212F801FF
:102C50001286D81609F4B3C0811113C082E090E047
:102C60000F900F900F900F900F90DF91CF911F91C9
:102C70000F91FF90EF90DF90CF90BF90AF909F901B
:102C800008958C3509F099C0C8010E94A2128823CA
:102C900029F3E7EAF2E0853709F083C0F8011286EC
:102CA00054E0952EB12CA12CC8010E94A2128823B9
:102CB000A9F2813434F48053803130F083E090E025
:102CC000CFCF8F7D8753F8CF44E0AA0CBB1C4A9529
:102CD000E1F7A82AF80112869A949110E5CFC50170
:102CE000985D8115944020F47501F3E0FF22ACCF8C
:102CF000C5019C5D81159440A8F483E0B822B7011A
:102D0000762F6627770F770F6A297B2990E080E07E
:102D10000196603871058105910540F4C8010E9453
:102D2000DC1592CFB50190E080E0F3CF1982262F19
:102D30002F7320682A8326E0969587957795679567
:102D40002A95D1F76032710580F4606C6B835E0167
:102D5000E4E0AE0EB11CF50162915F01662309F457
:102D600073CFC8010E94DC15F6CF262F2F73206881
:102D70002B8386E0769567958A95E1F7603171053A
:102D800038F4606E6C835E01F5E0AF0EB11CE3CFEA
:102D900060686C83CD825E0126E0A20EB11CDBCFA1
:102DA00032969081992309F489CF8913F9CF8181D3
:102DB000882309F483CFF8011286682FAFCF828170
:102DC0009381892B19F484E090E04ACF90E080E071
:102DD00047CF6F927F928F929F92AF92BF92CF9286
:102DE000DF92EF92FF920F931F93CF93DF93EC014B
:102DF0002A813B812C5F3F4F4C815D8144305105DE
:102E000088F58901F90180E0942FB22FAE2FA21B23
:102E1000A91730F4F190A1E0F110A0E08A2BF6CFD1
:102E2000811120C082E0EB018C83FB01802F8B1B82
:102E3000891728F4E80189918E018193F7CF640FF7
:102E4000751FFB011082DF91CF911F910F91FF90B1
:102E5000EF90DF90CF90BF90AF909F908F907F903A
:102E60006F9008958B01F901E40FF51F108288819E
:102E700099814C815D81DC011396ED91FC913A01C1
:102E8000E89477F86901C60CD71C3097C1F0A3818C
:102E9000A615170481F449017F01B4E0EB0EF11C83
:102EA0008C149D0429F1D401AD904D01D701BD9042
:102EB0007D01AB14A9F30190F081E02DE6CF6A818A
:102EC0007B810E94A615FC01A881B98113968D9182
:102ED0009C911497918380831496FC93EE9313979F
:102EE0001B821A8285E0E8018C83F983E883ABCFEB
:102EF00082818F5F8283F6CFDB01ED91FC91119788
:102F00000280F381E02DBC01CD011994AF92BF92F4
:102F1000CF92DF92EF92FF920F931F93CF93DF93A5
:102F2000EC018B018C8180FF24C0A881B981FB0159
:102F30008381948130E020E00097D9F0A817B90789
:102F4000D1F5F8016081718112968C9112978150B0
:102F500012968C93129781110CC08D919C911197B0
:102F60002115310529F1F90191838083CD010E945A
:102F70007C178C81807631F1209721F1F8805801FF
:102F8000F5E1AF0EB11C8FEFF816D1F06F2DC50132
:102F90000E9476126C01FC01E580B8010E94861740
:102FA000F801818DF6018083F801F18EFE2CEBCFC4
:102FB00094838383DBCF9C01FC0180819181BCCF12
:102FC000F882F9821C82DF91CF911F910F91FF90BF
:102FD000EF90DF90CF90BF90AF9008950F931F9325
:102FE000CF93DF93EC01088119818B819C8100973D
:102FF00049F0FC01208131813C832B83B8010E9480
:103000007C17F3CF68817981CE010596DF91CF914E
:103010001F910F910C943413FC0101900020E9F7EB
:103020003197AF01481B590BBC0187E893E00C9422
:10303000140F8F929F92AF92BF920F931F93CF93D3
:10304000DF93CDB7DEB7A1970FB6F894DEBF0FBE02
:10305000CDBF19A2423008F44AE08E010F5D1F4F28
:10306000842E912CB12CA12CA50194010E948140A9
:10307000E62FB901CA01EA30F4F4E05DD801EE931D
:103080008D01232B242B252B79F790E080E01097DE
:1030900019F0CD010E940C18A1960FB6F894DEBF6E
:1030A0000FBECDBFDF91CF911F910F91BF90AF9019
:1030B0009F908F900895E95CE1CF4AE00C94191835
:1030C000682F70E090E080E04AE00C941918CF92ED
:1030D000DF92EF92FF92CF93DF936C01990FEE088E
:1030E000FF08F7FE19C06DE287E893E00E94AA0F7F
:1030F000EC0166277727CB016C197D098E099F09A2
:103100004AE00E9419188C0F9D1FDF91CF91FF900C
:10311000EF90DF90CF9008954AE0C701B601DF91AC
:10312000CF91FF90EF90DF90CF900C941918CF9330
:10313000DF930E94F70FEC018AEB92E00E940C18DB
:103140008C0F9D1FDF91CF910895CF93C82F80934F
:10315000190688EB9CE00E94F70F80911406082E58
:10316000000C990B0E9467188EEA9CE00E94F70FF2
:103170008CE99CE0CC2311F085EA9CE00E94F70FDB
:103180008BEA9CE0CF910C9497180F931F93CF93E9
:103190008C01C62FFC0164838EE199E00E94F70F39
:1031A000F8018081082E000C990B0E94671884E1B9
:1031B00099E00E94F70F82E099E0CC2311F08BE0B8
:1031C00099E00E94F70F81E199E0CF911F910F9153
:1031D0000C949718EF92FF920F931F93CF93DF9366
:1031E0007C018B01EA0188EE98E00E94F70FC7018D
:1031F0000E94F70F8CED98E00E94F70FC8010E9423
:10320000F70F80ED98E00E94F70FCE010E94F70FB4
:103210008DEC98E0DF91CF911F910F91FF90EF908F
:103220000C949718CF93DF936DE787E893E00E94A3
:10323000AA0FEC018AEB92E00E940C188C0F9D1FE4
:10324000DF91CF9108954F925F926F927F928F920C
:103250009F92AF92BF92EF92FF920F931F93CF93E3
:10326000DF932A013B0148015901853009F480C0F0
:1032700008F061C0843009F46FC0E0913004F0912F
:1032800031041481C8E1DFE047E3E42E4FE0F42E7F
:1032900088E79FE00E94F70FC7010E94F70F8FE6B3
:1032A0009FE00E94F70F812F110F990B0E94671862
:1032B00084E69FE00E94F70FCE010E94F70F8FE493
:1032C0009FE00E94F70F8091FE059091FF05A0916D
:1032D0000006B0910106A3019201281B390B4A0B8D
:1032E0005B0BCA01B9010E945D188DE39FE00E944B
:1032F000F70F8091FE059091FF05A0910006B09117
:103300000106A5019401281B390B4A0B5B0BCA016E
:10331000B9010E945D18DF91CF911F910F91FF902D
:10332000EF90BF90AF909F908F907F906F905F9045
:103330004F900C941219863039F1873009F09DCFE7
:10334000E0913804F09139041481CCEFDEE08DE196
:10335000E82E8FE0F82E9CCFE0913204F0913304F8
:103360001481C3E1DFE031E3E32E3FE0F32E90CFA1
:10337000E0913404F09135041481CAE0DFE02AE2E0
:10338000E22E2FE0F22E84CFE0913604F091370444
:103390001481C1E0DFE093E2E92E9FE0F92E78CFBF
:1033A000CF92DF92EF92FF920F931F93CF93DF9311
:1033B000EC018881813009F4D1C06A017B01813040
:1033C00090F08230D1F48CE394E00E94B5108AE54D
:1033D00094E0DF91CF911F910F91FF90EF90DF90DC
:1033E000CF900C94B5108981853009F47DC070F4BC
:1033F0008330F1F1843009F45AC0DF91CF911F91ED
:103400000F91FF90EF90DF90CF900895863009F4F0
:1034100088C0873091F7E0913804F09139043097F3
:1034200061F38681882349F385A18111E6CF8F81DD
:103430009885A985BA85C58AD68AE78AF08E8C0DCB
:103440009D1DAE1DBF1D818F928FA38FB48F81E014
:1034500086A3CF010E9421110F81188529853A8505
:103460000C0D1D1D2E1D3F1DB701A60187E01CC0C0
:10347000E0913004F0913104309709F4BECF868199
:10348000882309F4BACF0F81188529853A85C18A26
:10349000D28AE38AF48A0C0D1D1D2E1D3F1D058B5B
:1034A000168B278B308F83E00E942319A6CFE091E3
:1034B0003204F0913304309709F49FCF868188233A
:1034C00009F49BCF0F81188529853A85C18AD28A54
:1034D000E38AF48A0C0D1D1D2E1D3F1D058B168BD6
:1034E000278B308F84E0E0CFE0913404F0913504F5
:1034F000309709F482CF8681882309F47ECF0F812B
:10350000188529853A85C586D686E786F08A0C0D0A
:103510001D1D2E1D3F1D018B128B238B348B85E0CF
:10352000C3CFE0913604F0913704309709F465CFAA
:103530008681882309F461CF0F81188529853A8512
:10354000C586D686E786F08A0C0D1D1D2E1D3F1DF3
:10355000018B128B238B348B86E0A6CF8981E0917F
:103560002A04F0912B04882339F0813009F045CFEB
:10357000E0912C04F0912D04309709F43ECFCF80D8
:10358000D884E984FA844C0D5D1D6E1D7F1D418B2E
:10359000528B638B748B31CF2F923F924F925F92FD
:1035A0006F927F928F929F92AF92BF92CF92DF9253
:1035B000EF92FF920F931F93CF93DF9300D01F9250
:1035C000CDB7DEB72A013B0103E4809F90011124AF
:1035D000312C8901C90186549B4F9A8389834BE022
:1035E000242E49019EE4890E911CE981FA81808193
:1035F000381608F098C0A32CB12CC801239C800D6C
:10360000911D1124865D9B4FFC01E25BFF4F2081E1
:10361000233039F1805B9F4FFC018081893021F09C
:103620009091100689131DC02A9CF0012B9CF00D6F
:103630001124E00FF11FE558FB4FC080D180E280DC
:10364000F380C114D104E104F10469F4B301A201CF
:10365000C401329C800D911D1124865D9B4F0E94F8
:10366000D0193394C2CFC40CD51CE61CF71CEDE076
:10367000F5E090E080E02081211125C024E0880F52
:10368000991F2A95E1F7DC01A250BB4F2A9CF0015B
:103690002B9CF00D1124E00FF11FE858FB4F222D59
:1036A00001900D922A95E1F7865D9B4FFC01E15256
:1036B000FF4FC082D182E282F3828D519F4F21E081
:1036C000FC012083CECF019670968031910599F64A
:1036D0008AE89EE00E94F70F2A9CC0012B9C900D67
:1036E0001124800F911F865D9B4F9C838B83FC016F
:1036F000E25BFF4F80810E9460188FE79EE00E948E
:10370000F70FEB81FC81E15BFF4F80810E94601825
:103710008EE69EE00E94F70FC701B6010E945D1879
:103720000E9412199ECF0F900F900F900F90DF9173
:10373000CF911F910F91FF90EF90DF90CF90BF90AE
:10374000AF909F908F907F906F905F904F903F9041
:103750002F90089585EF9CE00E94F70F809113064B
:10376000811111C08DED9CE00E94F70F8CEE9CE062
:103770000E94F70F80911106082E000C990B0E94F1
:1037800067180C94121986EE9CE0EECF0F931F93EE
:10379000CF93DF938C01D62FC42F82E39AE00E944F
:1037A000F70FC8010E94F70F87E29AE00E94F70F17
:1037B0008DE09AE0DD2311F083E19AE00E94F70F9B
:1037C00088E19AE00E94F70F82E09AE0CC2311F0A2
:1037D00088E09AE00E94F70FDF91CF911F910F913F
:1037E0000C9412190F931F93CF938C01C62F88EE60
:1037F00099E00E94F70FC8010E94F70F8DED99E044
:103800000E94F70F82ED99E0CC2311F088ED99E04A
:103810000E94F70FCF911F910F910C941219CF9224
:10382000DF92EF92FF920F931F93CF938C01C62FDD
:1038300069017A0188EB99E00E94F70FC8010E94A4
:10384000F70F8DEA99E00E94F70F85E999E0CC2304
:1038500011F08BE999E00E94F70F80EA99E00E944D
:10386000F70FC701B6010E945D18CF911F910F910C
:10387000FF90EF90DF90CF900C9412197F928F926F
:103880009F92AF92BF92CF92DF92EF92FF920F93EF
:103890001F93CF93DF93EC01762E49015A01670104
:1038A00078018BE799E00E94F70FCE010E94F70F95
:1038B00080E799E00E94F70F8AE499E0772011F001
:1038C00080E599E00E94F70F82E699E00E94F70FE9
:1038D000C501B4010E945D1885E599E00E94F70FCB
:1038E000C701B6010E945D18DF91CF911F910F9122
:1038F000FF90EF90DF90CF90BF90AF909F908F9010
:103900007F900C941219EF92FF920F931F93CF9315
:103910007C018B01C42F83EB98E00E94F70FC70155
:103920000E94F70F87EA98E00E94F70FC8010E94F3
:10393000F70F8CE998E00E94F70F81E998E0CC231B
:1039400011F087E998E00E94F70FCF911F910F9136
:10395000FF90EF900C941219CF92DF92EF92FF92AA
:103960000F931F93CF93DF938C01EB0169017A01D1
:1039700087E798E00E94F70FC8010E94F70F8BE6D7
:1039800098E00E94F70FCE010E94F70F80E698E0C2
:103990000E94F70FC701B6010E945D18DF91CF9119
:1039A0001F910F91FF90EF90DF90CF900C94121920
:1039B000009711F00C940C1890E080E00895EF92BD
:1039C000FF920F931F93CF93DF93C0912A04D0915E
:1039D0002B04882321F0C0912C04D0912D04209732
:1039E00009F46EC0613009F465C008F460C062304B
:1039F00009F463C09BECE92E9DE0F92E811104C00F
:103A000084EDE82E8DE0F82E8CE39EE00E94F70F07
:103A1000C7010E94F70F83E39EE00E94F70F8C819D
:103A20000E94601888E19EE00E94F70FC8010E9482
:103A3000F70F83E09EE00E94F70F6A8D7B8D8C8DDF
:103A40009D8D0091FE051091FF052091000630919B
:103A50000106601B710B820B930B0E945D1881EFB6
:103A60009DE00E94F70F6E8D7F8D88A199A1009136
:103A7000FE051091FF052091000630910106601BA4
:103A8000710B820B930B0E945D1880EE9DE00E94EB
:103A9000F70FCE010D960E94D81C8DED9DE0DF91B1
:103AA000CF911F910F91FF90EF900C94971807E61C
:103AB0001EE0A0CF0EE51EE09DCF06E51EE09ACFEA
:103AC000DF91CF911F910F91FF90EF90089590910A
:103AD0000706911104C090910806992371F0909106
:103AE000090691110AC060910E06882321F08130E9
:103AF00021F460910F060C94DF1C0895CF93DF939F
:103B0000EC016E8383E198E00E94F70F8F81988526
:103B10000E94D81C8AE098E00E94F70F8C81082E42
:103B2000000C990B0E94671880E098E00E94F70F44
:103B30008E8181110AC08EEE97E00E94F70F8DEF03
:103B400097E0DF91CF910C94971887EF97E0F5CF2E
:103B500060E080911002909111020E947E1D60E051
:103B600080911202909113020E947E1D60E080916C
:103B70001402909115020E947E1D60E08091160251
:103B8000909117020E947E1D60E080911802909132
:103B900019020E947E1D60E080911A0290911B0222
:103BA0000E947E1D60E080911C0290911D020E9487
:103BB0007E1D80911E0290911F02009719F060E017
:103BC0000E947E1D8091200290912102009719F0A1
:103BD00060E00C94C51808951F93CF93DF93EC0118
:103BE000162F8E81882321F060E0CE010E947E1D79
:103BF0008D81813021F460E08C810E948D0A1C83CC
:103C00006D81812F0E94BB0A8D81813021F460E09B
:103C10008C810E948D0A86E498E00E94F70F8F81C4
:103C200098850E94D81C8DE298E00E94F70F8C8145
:103C3000082E000C990B0E946718DF91CF911F91FD
:103C40000C941219CF93DF93EC010E94EC1D8C8130
:103C50000E94640A21E0892B09F420E02A878C81E4
:103C60000E94640A21E0892B09F420E02B878C81D3
:103C70000E94640A21E0892B09F420E02C871D8A28
:103C80001E8A1F8A188EDF91CF9108959F92AF925E
:103C9000BF92CF92DF92EF92FF920F931F93CF9339
:103CA000DF938A01452B09F468C0E9016B01659631
:103CB000FC016081CE010E947612FC01BB24BA9403
:103CC000892B09F0B5807601E894F7F8AA24A3942B
:103CD0006701C00ED11E99249394309709F44DC00A
:103CE000AA2009F43FC08481843069F0853049F10D
:103CF000823079F5DF010D900020E9F71197CD01B1
:103D00008E1B9F0B07C00190F081E02D90E080E0BA
:103D1000309781F79F77E816F90621F5D801AC15A1
:103D2000BD05E1F46B2DCE01DF91CF911F910F9175
:103D3000FF90EF90DF90CF90BF90AF909F900C944A
:103D40007612A081B181FD01349613968C9190E09A
:103D5000E2CF90E080E0F0E0E0E0DDCF9D91819166
:103D60009817E9F2A9246B2DCE010E947612FC016E
:103D7000892B09F4B2CFB580B0CF90E080E0DF911D
:103D8000CF911F910F91FF90EF90DF90CF90BF9058
:103D9000AF909F900895FC0120813181C9014A961E
:103DA0004281538164817581009759F0D9015E96F3
:103DB000EC91E03211F090E080E0009711F00C946B
:103DC000461E90E080E00895CF93DF93EB010E94C0
:103DD000CB1E009741F0FC012481263021F4808124
:103DE000DF91CF9108958881FBCFCF92DF92EF9240
:103DF000FF92CF93DF9300D01F921F92CDB7DEB713
:103E00000E94CB1EDC01892B09F44BC01496EC9167
:103E10001497E250ED3008F044C0F0E08827EC5EE3
:103E2000F04E8F4F0C94CC41401F511F551F581F0F
:103E3000211F511F511F511F311F511F361F511F6D
:103E40005C1F6C9170E090E080E00F900F900F90FD
:103E50000F900F90DF91CF91FF90EF90DF90CF9078
:103E600008956D917D918D919C91EFCF8D919D9154
:103E70000D90BC91A02DB7FD14C0BC01CD01E5CFC4
:103E8000CD010E9435143A834B835C836D83CA80D5
:103E9000DB80EC80FD80223059F1233059F1213054
:103EA00079F060E070E0CB01D0CF8D919C91E9CFAB
:103EB0008D919C910496E5CFCD90DD90ED90FC9096
:103EC00020E030E0A901C701B6010E94C74187FD8B
:103ED000E8CF2FEF3FEF4FE75FE4C701B6010E9445
:103EE0002B3F1816F4F2C701B6010E949841ADCFDE
:103EF000F7FCD7CFC701B601A8CF8F929F92AF92A0
:103F0000BF92CF92DF92EF92FF920F931F93CF93C6
:103F1000DF9300D000D0CDB7DEB749015A01670169
:103F20007801FB0101900020E9F73197E61BF70BC0
:103F30009A8389837C836B83ED838F2F8F778E8326
:103F4000CE0101960E94CB1E0097B9F0FC0124819E
:103F50002A3041F02C3089F480819181A281B38193
:103F6000B7FD0BC0CE0101960E94F51E861697067E
:103F7000A806B90610F44B015C01C501B401C616D0
:103F8000D706E806F90610F4C701B60126960FB663
:103F9000F894DEBF0FBECDBFDF91CF911F910F917F
:103FA000FF90EF90DF90CF90BF90AF909F908F9059
:103FB0000895CF92DF92EF92FF92CF93DF9300D0DC
:103FC0001F921F92CDB7DEB70E94CB1EDC01892B5A
:103FD00009F448C01496EC911497E250ED3008F0C3
:103FE00041C0F0E08827E850F04E8F4F0C94CC4150
:103FF0003520322047204A2005203220322032202E
:1040000014203220212032204E206C9170E0CB0110
:104010000F900F900F900F900F90DF91CF91FF9026
:10402000EF90DF90CF9008958D919D910D90BC9170
:10403000A02D811520E89207A105B10598F4BC01D7
:10404000E6CF8D919D910D90BC91A02D6C017D01CD
:1040500020E8D20EE11CF11CC114D10421E0E206DB
:10406000F10468F370E060E0D2CFCD010E94351416
:104070003A834B835C836D83CA80DB80EC80FD8058
:10408000223049F1233099F1213061F70BC08D9135
:104090009C91ECCF8D919C910496E8CFCD90DD90D2
:1040A000ED90FC9020E030E040E057ECC701B60115
:1040B0000E94C74187FDD6CF20E03EEF4FEF56E488
:1040C000C701B6010E942B3F181664F2C701B60162
:1040D0000E9491419CCFD701C6019058AF4FBF4F6E
:1040E0000097A140B10508F0BDCFB60190CFC11433
:1040F00080E8D806E104F104C0F3B4CF0F931F9316
:10410000CF93DF93EC018B010E94CB1EFC01892B26
:1041100029F084818A3051F08C30C1F0F80180811F
:104120009181DF91CF911F910F91089580819181AD
:10413000A281B38181159048A105B10578F7CE0120
:10414000DF91CF911F910F910C94D91F80819181A4
:10415000A281B3819058AF4FBF4F0097A140B105E6
:10416000E8F6EDCF8F929F92AF92BF92CF92DF92FF
:10417000EF92FF920F931F93CF93DF93182F0E941C
:10418000510B6B017C01C0927503D0927603E092D3
:104190007703F09278038BE296E00E940F11109261
:1041A000080610920906C092FE05D092FF05E09223
:1041B0000006F092010681E0809307068CE394E00C
:1041C0000E94B5108AE594E00E94B510CAE2D4E0DE
:1041D0008C89882341F08A89813009F00FC1CD8E06
:1041E000DE8EEF8EF8A26E9624E0C636D20781F7F7
:1041F000EDE0F5E01082709686E0ED30F807D1F73B
:10420000E0912A04F0912B04309721F0118A128A50
:10421000138A148AE0912C04F0912D04309721F038
:10422000118A128A138A148AE0913804F0913904B1
:104230003097A9F0158A168A178A108E118E128E61
:10424000138E148E158E168E178E10A211A212A226
:1042500013A214A216A217A210A681E081A70E94A1
:1042600079138AE693E00E94F70F89E093E0112327
:1042700011F082E193E00E94F70F87E693E00E943D
:1042800097188BE193E00E94F70F809104029091C0
:1042900005028B51974009F4DCC08CE992E00E9442
:1042A000F70F86E093E00E949718E0904102F090AB
:1042B0004202009143021091440220913D0230914C
:1042C0003E0240913F02509140026091DA0682E046
:1042D00093E00E943E1CE090C006F090C106009161
:1042E000C2061091C3062091BC063091BD064091D4
:1042F000BE065091BF066091B9068DEF92E00E9414
:104300003E1C2091390230913A0240913B0250917B
:104310003C026091A30688EF92E00E940F1C20915E
:1043200090063091910640919206509193066091CB
:104330008D0682EF92E00E940F1CE0903502F09013
:10434000360200913702109138022091340230E099
:1043500050E040E0609148068CEE92E00E943E1CE6
:104360006091720687EE92E00E94F21B60912F0628
:104370008CED92E00E94F21BE0902706F090280658
:104380000091290610912A062091230630912406D7
:1043900040912506509126066091190688ED92E01D
:1043A0000E943E1C40912B07609121078FEC92E008
:1043B0000E94C61B409105076091FB0686EC92E0C7
:1043C0000E94C61B82EA92E00E94F70F60910B02E6
:1043D00070910C0280910D0290910E020E945D1866
:1043E000DF91CF911F910F91FF90EF90DF90CF90D1
:1043F000BF90AF909F908F900C941219823009F06B
:10440000F2CE89A49AA4ABA4BCA460E070E0CB0176
:10441000181419041A041B0434F40E94D33EA50195
:1044200094010E944F406C0D7D1D8E1D9F1D69A340
:104430007AA38BA39CA389A59AA5ABA5BCA58C0D3B
:104440009D1DAE1DBF1D8DA39EA3AFA3B8A71DA626
:10445000CACE8FE992E023CF2F923F924F925F9284
:104460006F927F928F929F92AF92BF92CF92DF9284
:10447000EF92FF920F931F93CF93DF9390910706D4
:10448000911105C090910806992309F44BC07090D2
:104490000906711047C0823008F044C080931006AE
:1044A000811153C0E0912A04F0912B04309709F058
:1044B00052C091E090930E06911134C06A017B01C5
:1044C000182FCAE2D4E0612C512C22242A94312CDA
:1044D00094E6892E912CA12CB12C442443940C8970
:1044E000002389F08A89823009F4702E9EA59930C4
:1044F00011F0191308C0813009F490C008F443C0CA
:10450000823009F490C06E9654E0C636D50739F76C
:10451000772009F4C6C06110C4C081E01111BEC08B
:1045200080930E06DF91CF911F910F91FF90EF9036
:10453000DF90CF90BF90AF909F908F907F906F90C3
:104540005F904F903F902F900895E0912C04F09150
:104550002D043097B1F09089992361F00189128977
:104560002389348992E0041715072607370718F4C2
:1045700090E001C091E0882309F49CCF90930F064E
:104580009BCF91E0FBCF8F898F5F8F8B9D898917A0
:1045900008F4B9CF8FA5843658F40E94D33EA50104
:1045A00094010E944F408FA5681710F01F8AABCF6F
:1045B0001F8A288D222351F03D89C101821B910958
:1045C0003817190609F0F4F4230F2D8B8B898230EC
:1045D00008F058C043E4489F90011124F901E654C3
:1045E000FB4F408128583B4F90E0491709F44AC0DF
:1045F000255F3F4FF9013B975081513009F441C08D
:104600009F5FF3CF87E592E00E94F70F8D890E94AC
:10461000601884E592E00E949718D8CFCD8EDE8E88
:10462000EF8EF8A270CF8DA581116DCF89A19AA1CF
:10463000ABA1BCA1A7019601281B390B4A0B5B0B50
:10464000DA01C901B7FD5FCF8DA19EA1AFA1B8A5C9
:104650008C199D09AE09BF09181619061A061B0602
:104660000CF051CF8FA5843610F04DA6AFCF0E942D
:10467000D33EA50194010E944F408FA56817A8F36F
:1046800042CF502E9A89923009F4602E823008F081
:104690003ACFB701A6010E94CC1A35CF80930F06FE
:1046A00041CF80910606882319F0552009F43ACFAE
:1046B000E0912A04F0912B04112321F0E0912C04C5
:1046C000F0912D04309709F42DCF409102065091BE
:1046D00003066091040670910506C40ED51EE61E01
:1046E000F71EC18AD28AE38AF48A1CCFBF92CF9286
:1046F000DF92EF92FF920F931F93CF93DF93EC0122
:10470000198D1F3F81F0612F45960E947612FC01A2
:104710008081898F309709F477C014828FEF858369
:10472000BF01812F76C06C0135E0C30ED11CE8803B
:10473000F9808F89882341F0C6010E940813E62F73
:10474000F72F182F309749F71F89988D191324C018
:10475000103109F459C0110F6D897E89D701ED918F
:10476000FC91B4E01B9FA0011124C616D70609F0E6
:1047700044C00190F081E02DBA01C701199500975E
:1047800009F442C020E1F601DC0101900D922A9566
:10479000E1F79E8B8D8B188F0D891E898F8921E003
:1047A000280F2F8BE4E08E9FC0011124080F191FE2
:1047B00090E1B92E203111F48FE0B82EF6E0BF9EC3
:1047C000B0011124D701ED91FC910190F081E02D11
:1047D000C7011995F80193838283892B09F4B12CC1
:1047E000D801BC9211961C92012B71F0C6010E9457
:1047F0000813E62FF72F182F8DCF0480F581E02DB9
:10480000C7011995009729F681E08A8360E070E07E
:104810008FEFDF91CF911F910F91FF90EF90DF907D
:10482000CF90BF9008954F925F926F927F928F9238
:104830009F92AF92BF92CF92DF92EF92FF920F932F
:104840001F93CF93DF9300D01F921F92CDB7DEB797
:104850008C017B01B42E0E94E6126C01892B09F0B9
:1048600048C0C8010E94A212863609F4A9C124F5E5
:10487000873229F08B3561F1823209F0A8C1D80165
:1048800015961C921E92149712968D919C911397D7
:10489000892B39F48D919C910E949108F8019383A2
:1048A0008283C8010E940A166C01892B11F5B70199
:1048B000C8010E94E9161DC0843709F460C18B3716
:1048C00009F47BC08E3609F082C165ED72E060C1EB
:1048D00080E4D70114968C931497E114F10421F02D
:1048E0008FEF8C9311968C93B1101AC025E0C22ED5
:1048F000D12CC6010F900F900F900F900F90DF9169
:10490000CF911F910F91FF90EF90DF90CF90BF90CC
:10491000AF909F908F907F906F905F904F90089591
:10492000F8011286C8010E94E612009751F56DE564
:10493000C8010E94B2128111DCCFBA94D8011B9633
:104940006D907C90C3010E947623A82E4B01672BAB
:1049500021F494E0C92ED12CCCCFF70161816F3FB7
:1049600091F0C30145960E947612DC011596AC9237
:10497000F701A1824B2DB401C8010E9413240097B6
:1049800039F06C01B6CFD7018C9311968C93F2CF8E
:10499000C8010E94E6120097A1F76DE5C8010E94C8
:1049A000B2128111A6CF6CE2C8010E94B21281112D
:1049B000C5CF83E0C82ED12C9CCF80E2F701848341
:1049C000E114F10419F08FEF80838183BB2009F497
:1049D0008DCFD8011A961C92C8010E94E61200974A
:1049E00081F66DE7C8010E94B212811182CFBA949C
:1049F000F8011582148282819381892B49F4808188
:104A000091810E949108D80113969C938E931297DE
:104A1000C8010E94A2128732F9F08232E9F0C8017F
:104A20000E94A212D82E0E949012882311F2F8013F
:104A300012866D2DC8010E94DC15C8010E94A212C9
:104A4000D82E0E9490128111F2CFD80112968D912A
:104A50009C91892B41F47DCFC8010E940A166C01FC
:104A6000892B09F046CFC8010E94E6126C01892B00
:104A700009F03FCF6AE3C8010E94B212882309F40B
:104A800098CFD8011296ED91FC91139714968D91C1
:104A90009C911597E80FF91F148214966D917C91E3
:104AA00015977F771B966D907C901C9712968D9131
:104AB0009C910496272F2F77BA2DB078AB2EA22A7F
:104AC000E894A7F89301AC017A2DC7010E94461E15
:104AD0006C01009761F5C3010E947623482E4B01BB
:104AE000672B09F436CFC3010E947623582E962FE8
:104AF000C92ED72EC114D10409F42BCFF40155824D
:104B0000D70111966C916F3F71F0C30145960E94D9
:104B10007612FC014582D70111965C92B401C8015E
:104B20000E94E91607C0F70140825182F7CFB30116
:104B30000E9486174B2DB601C8010E9413246C01F8
:104B4000892B09F0D6CEC8010E94E6126C01892B90
:104B500009F0CFCE6DE7C8010E94B2128111C9CE13
:104B60006CE2C8010E94B212882309F422CFC80166
:104B70000E94E6126C01892B09F43ACFBACE86E086
:104B8000D70114968C93149781E08C936AEC72E0B1
:104B9000C8010F900F900F900F900F90DF91CF9161
:104BA0001F910F91FF90EF90DF90CF90BF90AF904B
:104BB0009F908F907F906F905F904F900C94C31256
:104BC00086E0F701848310826FEC72E0E1CFC801C8
:104BD0000E94A2124801FDE08F0E911CB12C782C8E
:104BE000A92C803384F08A3384F43FE3B316A9F010
:104BF000D8011A961C92B394F40181934F01C80115
:104C00000E94A212EECF8B3281F393ED980F923077
:104C100060F3982F9F7D953441F30B0D111DD80142
:104C20001D961C92872D9A2D0E9435143A834B8332
:104C30005C836D838A819B81AC81BD812230A9F028
:104C4000233059F0213009F0B4CE2EE0F70124834F
:104C500080839183A283B3834CCE2AE0F70124831F
:104C600080839183A283B38344CE2CE0F7CF4F920D
:104C70005F926F927F928F929F92AF92BF92CF92EC
:104C8000DF92EF92FF920F931F93CF93DF93CDB7F5
:104C9000DEB7C25FD1090FB6F894DEBF0FBECDBF3D
:104CA0006E012EECC20ED11C86E092E0F6019183DB
:104CB0008083128214821382C6010596968B858B9F
:104CC000178A84E0808F8FEF818F168E878F9E01E9
:104CD0002F5F3F4F590110E000E00E94510B60939D
:104CE0008F0370939003809391039093920387E8CE
:104CF00093E00E94500F97FD02C00C946A330E940B
:104D0000510B40908F0350909003609091037090EE
:104D10009203641975098609970940908B03509096
:104D20008C0360908D0370908E0364157505860565
:104D30009705E8F20F37110561F487E893E00E94C8
:104D4000720F892B31F087E893E00E94500F0A9789
:104D5000A1F7E1E0F0E0EC0FFD1FE00FF11F108282
:104D60000530110578F045E050E06AED72E0CE01C3
:104D700001960E94DA43892B29F48DE49AE00E947F
:104D800097184CC4F60160817181C60105960E9496
:104D90003413F601128200811181F601838194811E
:104DA000009751F0FC0120813181F6013483238387
:104DB000B8010E947C17F1CF168ECF57DF4FD982F2
:104DC000C882C158D040CD57DF4F19821882C358CE
:104DD000D040CB57DF4F19821882C558D040C957F1
:104DE000DF4F1882C758D04021E030E02C0F3D1F24
:104DF000C857DF4F39832883C858D040C557DF4F85
:104E00001882CB58D040C457DF4FD982C882CC58C3
:104E1000D0404AE0B601665E7F4FCE018F579F4F6C
:104E20000E9413248C01892B69F4C657DF4F8881B7
:104E3000CA58D040882331F0F601868D83FF02C026
:104E400003E010E0CD57DF4F88819981C358D040EF
:104E5000009751F0CF57DF4FE881F981C158D0401A
:104E6000608171810E947C1701151105F1F086EDBA
:104E700097E00E94F70FF801EE0FFF1FE654F94F7D
:104E8000859194910E94F70F83ED97E00E94971807
:104E900087E893E00E94720F181619060CF0BEC343
:104EA00087E893E00E94500FF3CFCF57DF4FD982AE
:104EB000C882C158D04080EE92E0CD57DF4F998331
:104EC0008883C358D04083E0CB57DF4F8883C558D1
:104ED000D040CA57DF4F1881C658D04010781068AC
:104EE000CA57DF4F1883C658D040CE018F579F4F07
:104EF0000E94CB1E009709F491C3FC018481882392
:104F000009F48CC31068CA57DF4F1883C658D040C5
:104F1000CE018F579F4F0E94D91F8C01893DF1E030
:104F20009F0709F42AC10CF0D7C1883731E09307F5
:104F300009F434C50CF026C18733914009F4FCC351
:104F4000083381E018070CF0E1C00D3291E0190739
:104F500009F411C30CF0CAC060E00C32F1E01F0785
:104F600009F40AC3013A52E0150709F497C60CF098
:104F70003EC70D3D110511F40C943D300CF079C67F
:104F80000736110511F40C94B1300CF030C605361B
:104F9000110511F40C94883014F00C94A5300436EB
:104FA000110509F0E7C480917D03811137C3809119
:104FB0001306882351F0109213060E945209F894A8
:104FC0001092120678940E94AA1B0E94510B4B016A
:104FD0005C018092790390927A03A0927B03B09255
:104FE0007C0380912F068823C9F080913D068111B2
:104FF00015C08BE296E00E940F1180923E069092BF
:105000003F06A0924006B092410681E080933D06A3
:10501000F89410922D0610922E06789480907903C1
:1050200090907A03A0907B03B0907C0310920706C7
:1050300010920906EDE0F5E01082709656E0ED3032
:10504000F507D1F78CE394E00E94B5108AE594E06F
:105050000E94B510E0913004F0913104309711F0C6
:105060000C94A030E0913204F0913304309719F0A1
:1050700084810E94850BE0913404F09135043097CF
:1050800021F060E084810E948D0AE0913604F09165
:105090003704309721F060E084810E948D0AE0910E
:1050A0003804F0913904309729F011A660E084812A
:1050B0000E948D0A8EE295E00E94F70F80917503A1
:1050C00090917603A0917703B0917803A5019401A4
:1050D000281B390B4A0B5B0BCA01B9010E945D18F2
:1050E0000E94121981E080937D0398C20F3221E063
:1050F000120709F4FDC260E0063331E0130709F03E
:1051000031CF80911602909117023AC2033741E0E5
:10511000140709F438C23CF5093381E0180709F097
:1051200021CF00911602109117020E94510BF80135
:10513000618B728B838B948B85849684A784B088D3
:10514000DC01CB01880D991DAA1DBB1D858B968B9B
:10515000A78BB08F81E080A343E656E069E676E056
:105160008EE696E0E6C2043791E0190709F471C2B1
:105170000537E1E01E0709F0F5CE083D114009F4BE
:105180007DC04CC28139F1E09F0709F4F5C2CCF52E
:105190008E3731E0930709F4D1C21CF58D37914069
:1051A00009F0E0CEEE24EA94FE2C00E010E021E0CD
:1051B00030E040E050E064EE72E0C6010E947D1FE6
:1051C0009B01AC01E0911602F09117022187328712
:1051D0004387548761E876E08BE896E00E94AC1C38
:1051E0001DC2023881E0180709F4EDC360E0003900
:1051F00091E0190709F0B6CE80911802909119023A
:10520000BFC18B39E1E09E0709F4DAC27CF483392F
:1052100021E0920709F4B2C260E08A39914009F0B6
:10522000A1CE80911A0290911B02AAC18D3941E052
:10523000940709F4E7C2883D914009F093CE10EC41
:10524000E12E17E2F12E09E010E021E030E040E02D
:1052500050E06EEE72E0C6010E947D1F9B01AC0122
:10526000E0911802F0911902218732874387548711
:1052700065E576E08EE596E00E94AC1CCF57DF4FE7
:10528000D982C882C158D0408EEE92E0CD57DF4F10
:1052900099838883C358D04088E0CB57DF4F8883F9
:1052A000C558D040CA57DF4F8881C658D040807853
:1052B0008068CA57DF4F8883C658D040CE018F57C9
:1052C0009F4F0E94F51E6093390270933A028093BB
:1052D0003B0290933C0209C20F3982E0180709F49F
:1052E000C7C20CF088C0053FE1E01E0709F4ACC25C
:1052F00074F5023E21E0120709F464C2C4F40C3DC7
:1053000041E0140709F02ECE15E3E12EF12C00E068
:1053100010E022E030E040E050E067EF72E0C601CC
:105320000E947D1F809118029091190249C3063E88
:1053300051E0150709F45AC360E0043F81E0180703
:1053400009F010CE80911C0290911D0219C1083500
:1053500092E0190709F483C2C4F40034F2E01F0795
:1053600009F000CE15E3E12EF12C00E010E022E080
:1053700030E040E050E067EF72E0C6010E947D1F20
:1053800080911C0290911D021BC3093522E0120777
:1053900009F45CC20B3532E0130709F0E3CD00914C
:1053A0001E0210911F020115110509F437C10E9458
:1053B000510BAB01BC01F801458B568B678B708F8D
:1053C00085859685A785B089840F951FA61FB71F71
:1053D000818F928FA38FB48FBB24B394B6A2C801E0
:1053E0000E942111F801B0A644E156E06AE176E09E
:1053F0008FE196E09EC1043843E0140709F4C4C26B
:105400000CF075C0043A82E0180709F402C30CF0EE
:1054100054C0003AE2E01E0709F0A4CD10ECE12EE2
:1054200017E2F12E09E010E021E030E040E050E02A
:105430006EEE72E0C6010E947D1F9B01AC01E091FF
:105440001E02F0911F02309751F02587368747875B
:10545000508B65EF75E08EEF95E00E94AC1CCF5746
:10546000DF4FD982C882C158D0408EEE92E0CD572E
:10547000DF4F99838883C358D04088E0CB57DF4FF4
:105480008883C558D040CA57DF4F8881C658D0405E
:1054900080788068CA57DF4F8883C658D040CE01D5
:1054A0008F579F4F0E94F51E60933502709336020E
:1054B000809337029093380218C1093AF2E01F072F
:1054C00009F43FC20A3A22E0120709F04BCDE091FD
:1054D0001E02F0911F02309709F4A0C081E085A35D
:1054E00048EC55E064ED75E089ED95E022C1003DA2
:1054F00033E0130709F4A7C2D4F4053853E01507C5
:1055000009F431C2073883E0180709F02BCD8091E8
:10551000200290912102009709F42CC20E940F11E1
:1055200042EB55E068EB75E08DEB95E002C104338A
:1055300094E0190709F4C0C20036E5E01E0709F03F
:1055400011CD8091120290911302892B09F466C04B
:1055500015E3E12EF12C00E010E022E030E040E025
:1055600050E067EF72E0C6010E947D1F8091120239
:1055700090911302BAC261E08091140290911502D9
:105580000E947E1D4BC0EE24EA94FE2C00E010E049
:1055900021E030E040E050E064EE72E0C6010E949D
:1055A0007D1F9B01AC01E0911402F091150221874F
:1055B0003287438754876CEA76E086EB96E00E9458
:1055C000AC1CCF57DF4FD982C882C158D04084EE7F
:1055D00092E0CD57DF4F99838883C358D04089E04C
:1055E000CB57DF4F8883C558D040CA57DF4F8881DB
:1055F000C658D04080788068CA57DF4F8883C65825
:10560000D040CE018F579F4F0E94F51E60933D0200
:1056100070933E0280933F0290934002C6010E9425
:10562000EE17CE50DF4F0FB6F894DEBF0FBECDBFE2
:10563000DF91CF911F910F91FF90EF90DF90CF906E
:10564000BF90AF909F908F907F906F905F904F90A2
:10565000089510ECE12E17E2F12E09E010E021E0B0
:1056600030E040E050E06EEE72E0C6010E947D1F27
:105670009B01AC01E0911402F09115022587368759
:105680004787508B6FE976E088EA96E00E94AC1C71
:10569000CF57DF4FD982C882C158D0408EEE92E0FA
:1056A000CD57DF4F99838883C358D04088E0CB57CC
:1056B000DF4F8883C558D040CA57DF4F8881C6580E
:1056C000D04080788068CA57DF4F8883C658D04062
:1056D000CE018F579F4F0E94F51E60934102709339
:1056E000420280934302909344020E94791396CF22
:1056F00000911402109115020E94510BF801618B68
:10570000728B838B948B85849684A784B088DC010C
:10571000CB01880D991DAA1DBB1D858B968BA78B70
:10572000B08F81E080A340E956E066E976E08BE93E
:1057300096E00E94EA1872CF61E0E3CC10ECE12E13
:1057400017E2F12E09E010E021E030E040E050E007
:105750006EEE72E0C6010E947D1F9B01AC01E091DC
:105760001602F0911702258736874787508B63E72B
:1057700076E08CE796E032CD61E03ECD00911802F4
:10578000109119020E94510BF8016587768787876F
:10579000908B81849284A384B484DC01CB01880D36
:1057A000991DAA1DBB1D818B928BA38BB48B81E0AD
:1057B000858B45E456E06BE476E080E596E0B9CF72
:1057C00061E02FCD10ECE12E17E2F12E09E010E0A0
:1057D00021E030E040E050E06EEE72E0C6010E9451
:1057E0007D1F9B01AC01E0911A02F0911B02218701
:1057F00032874387548766E376E08FE396E00E9422
:10580000AC1C73CF00911A0210911B020E94510B25
:10581000F801658776878787908B81849284A3843B
:10582000B484DC01CB01880D991DAA1DBB1D818BA1
:10583000928BA38BB48B81E0858B45E256E06BE2C3
:1058400076E080E396E075CF61E07CCD80911E022A
:1058500090911F0261E0009709F092CEDFCE809117
:105860001E0290911F0260E0009709F089CED6CE0B
:10587000EE24EA94FE2C00E010E021E030E040E06D
:1058800050E064EE72E0C6010E947D1F9B01AC01F6
:10589000E0911E02F0911F02309779F02115310539
:1058A0004105510521F0218732874387548764E001
:1058B00076E08EE096E00E94AC1CCF57DF4FD98295
:1058C000C882C158D04084EE92E0CD57DF4F998313
:1058D0008883C358D04089E0CB57DF4F8883C558B1
:1058E000D040CA57DF4F8881C658D0408078806842
:1058F000CA57DF4F8883C658D040CE018F579F4F7D
:105900000E94CB1EDC01892B09F401C11496EC9195
:105910001497E250ED3008F0FAC0F0E08827EC561A
:10592000F34D8F4F0C94CC41952D872DC02DC32D59
:10593000782D872D872D872D7C2D872D892D872DDF
:10594000C72DE0911E02F0911F02309749F015A279
:105950004FED55E06AEE75E08FEE95E00E94EA1893
:1059600010925403C2CE809120029091210261E0F6
:10597000009789F48AEB93E00E94F70FC8010E9418
:10598000671888EB93E0FBC9809120029091210277
:10599000009781F360E00E94C51840CE15E3E12E28
:1059A000F12C00E010E022E030E040E050E067EF52
:1059B00072E0C6010E947D1F809114029091150231
:1059C0000E94EC1D2BCE15E3E12EF12C00E010E03F
:1059D00022E030E040E050E067EF72E0C6010E9454
:1059E0007D1F8091160290911702EACF15E3E12EF8
:1059F000F12C00E010E022E030E040E050E067EF02
:105A000072E0C6010E947D1F80911A0290911B02D4
:105A1000D7CF80911E0290911F02892B09F4FECDF1
:105A200015E3E12EF12C00E010E022E030E040E050
:105A300050E067EF72E0C6010E947D1F80911E0258
:105A400090911F02BDCF8091200290912102892B5D
:105A500009F490CF15E3E12EF12C00E010E022E0F4
:105A600030E040E050E067EF72E0C6010E947D1F29
:105A7000B62E0091200210912102F801858588231D
:105A800031F060E080810E948D0AF8011586F801EE
:105A9000B08261E08B2D0E94BB0A60E0F80180813A
:105AA0000E948D0A8EE695E00E94F70FF801808132
:105AB000082E000C990B75C2809110029091110272
:105AC000892B09F4ABCD15E3E12EF12C00E010E0B9
:105AD00022E030E040E050E067EF72E0C6010E9453
