:100000000C94EE060C94CA310C949F310C9474310C
:100010000C9449310C941E310C94F3300C94C8307C
:100020000C949D300C94B5320C941F070C941F0750
:100030000C941F070C94F5310C941F070C941F07A8
:100040000C941F070C941F070C941F070C941F0798
:100050000C941F070C941F070C941F070C9453302B
:100060000C941F070C947F320C9455320C941F078C
:100070000C941F070C941F070C941F070C941F0768
:100080000C941F070C941F070C941F070C941F0758
:100090000C941F070C941F070C941F070C941F0748
:1000A0000C941F070C941F070C941F070C941F0738
:1000B0000C941F070C941F070C941F070C941F0728
:1000C0000C941F070C941F070C941F070C941F0718
:1000D0000C941F070C941F070C941F070C941F0708
:1000E0000C941F070C9424080C943F0D0C94D52AF3
:1000F0000C94610D0C94FA1D0C94D11C0C940908FD
:100100000C94FE1D0C9449080C9444080C940F08A0
:100110000C94E11C0C943C080C949C2A0C94051D36
:100120000C944E080C94E61C0C94530D0C94011D79
:100130000C941A1B0C94912A0C940C1D0C94E51D24
:100140000C94D82A0C9436080C94DC2A0C94D11DFB
:100150000C948D2A0C944D300C9450300C94F71D57
:100160000C944A080C9449300C9440080C94621E7C
:100170000C94E21D0C949E2A0C94B51D0C9413084B
:100180000C9473090C9428080C941B080C94030D10
:100190000C94F01C0C941E080C94010E0C9417087F
:1001A0000C94081D0C9467330C94300D0C944B097F
:1001B0000C94C41D0C9432080C94AA2A0C942E089A
:1001C0000C94990D546F6F44656570004E6F4D65CA
:1001D0006D6F727900496E76616C6964496E7075F5
:1001E0007400496E636F6D706C657465496E7075EF
:1001F0007400456D707479496E707574004F6B00B2
:10020000CDCCCC3D0AD7233C17B7D13877CC2B3295
:100210009595E6241FB14F0A000020410000C84216
:1002200000401C4620BCBE4CCA1B0E5AAEC59D7475
:10023000227D007B226C6576656C223A223030315B
:10024000222C22646576696365223A22434F4E541C
:10025000524F4C4C4552222C2264657363223A2241
:100260005052207468726573686F6C6420636170AB
:1002700070656420617420007B226C6576656C2259
:100280003A22303030222C22646576696365223A46
:1002900022534C4D222C22706172616D223A2274DD
:1002A000696D657374616D705F70696E222C227662
:1002B000616C7565223A007B226C6576656C223A2A
:1002C00022303037222C22646576696365223A2217
:1002D000434F4E54524F4C4C4552222C226576656A
:1002E0006E74223A22454E44222C2274696D657345
:1002F00074616D70223A004C48005248007B226CB9
:100300006576656C223A22303030222C226F6D697E
:100310007373696F6E5F696E74657276616C223A91
:10032000004C455645525F4C48004C455645525F7F
:10033000524800534C4D004D4943524F53434F5088
:1003400045004C49434B004C415345520050554DDC
:1003500050320050554D50004355453200435545ED
:1003600000227D007B226C6576656C223A2230305B
:1003700030222C22646576696365223A22434F4E0F
:1003800054524F4C4C4552222C2270617261646968
:10039000676D223A224F4D495353494F4E222C222A
:1003A0006163746976655F6C65766572223A2200D6
:1003B0007B226C6576656C223A22303037222C2203
:1003C000646576696365223A22434F4E54524F4C1E
:1003D0004C4552222C226576656E74223A22535483
:1003E000415254222C2274696D657374616D7022C0
:1003F0003A307D007B226C6576656C223A22303083
:1004000030222C22646576696365223A224D494385
:10041000524F53434F5045222C22706172616D221E
:100420003A22747269676765725F70696E222C2266
:1004300076616C7565223A00464952454400746500
:100440007374004D4943524F53434F504500494E3A
:10045000444550454E44454E54006D6F6465004C14
:100460004153455200434F4E54494E47454E540068
:100470006D6F6465004C4153455200647572617440
:10048000696F6E004C415345520066726571756527
:100490006E6379004C415345520046495245440031
:1004A00074657374004C41534552004649524544AB
:1004B00000746573740050554D503200647572615C
:1004C00074696F6E0050554D503200464952454494
:1004D00000746573740050554D50006475726174FA
:1004E000696F6E0050554D500046495245440074A6
:1004F0006573740043554532006475726174696FA9
:100500006E0043554532006672657175656E63799C
:1005100000435545320046495245440074657374A2
:1005200000435545006475726174696F6E004355F0
:1005300045006672657175656E63790043554500C7
:10054000FD01F201E201D501CC01C4017B226C6501
:1005500076656C223A22303036222C226465736331
:10056000223A22436F6D6D616E64206E6F74206657
:100570006F756E64227D006C657665725F66696C6E
:1005800074657200434F4E54524F4C4C45520073A9
:10059000657373696F6E5F70617573656400434F57
:1005A0004E54524F4C4C455200746573745F6D6FDE
:1005B000646500434F4E54524F4C4C4552004649DF
:1005C00052454400746573745F636861696E0043EB
:1005D0004F4E54524F4C4C4552006F6D69737369C6
:1005E0006F6E5F696E74657276616C00434F4E5436
:1005F000524F4C4C45520050554D500050554D50A7
:1006000032006163746976655F70756D7000434F89
:100610004E54524F4C4C4552007265696E666F7273
:10062000636564004C455645525F4C4800726569ED
:100630006E666F72636564004C455645525F4C4868
:10064000007265696E666F72636564004C4556455D
:10065000525F5248007265696E666F72636564002E
:100660004C455645525F524800227D007B226C6506
:1006700076656C223A22303036222C226465736310
:10068000223A220044495341524D45440041524DC3
:10069000454400227D002C2264657363223A2200C7
:1006A000222C2270696E223A007B226C6576656C82
:1006B000223A22303031222C226465766963652229
:1006C0003A2200222C22706172616D223A227069F6
:1006D0006E222C2276616C7565223A007B226C6555
:1006E00076656C223A22303030222C22646576699D
:1006F0006365223A2200222C2276616C7565223ACB
:1007000000222C22706172616D223A22007B226CE1
:100710006576656C223A22303030222C2264657670
:10072000696365223A220066616C736500747275B4
:100730006500222C2276616C7565223A00222C22FB
:10074000706172616D223A22007B226C6576656C65
:10075000223A22303030222C226465766963652289
:100760003A2200227D00222C2276616C7565223AA5
:100770002200222C22706172616D223A22007B22BB
:100780006C6576656C223A22303030222C2264650A
:1007900076696365223A220044495341524D4544EB
:1007A0000041524D454400227D002C226465736354
:1007B000223A22007B226C6576656C223A22303028
:1007C00031222C22646576696365223A224D4943C1
:1007D000524F53434F5045222C2270696E223A00EB
:1007E00066616C73650074727565002C22647572A5
:1007F0006174696F6E223A002C22667265717565AC
:100800006E6379223A00222C2261726D6564223A6D
:10081000007B226C6576656C223A22303030222CC7
:1008200022646576696365223A220066616C7365AD
:100830000074727565002C226475726174696F6E44
:10084000223A00222C2261726D6564223A007B22DA
:100850006C6576656C223A22303030222C22646539
:1008600076696365223A220066616C736500747272
:10087000756500222C2261726D6564223A007B222C
:100880006C6576656C223A22303030222C22646509
:1008900076696365223A220066616C736500747242
:1008A00075650066616C73650074727565002C2255
:1008B0007265696E666F72636564223A00222C224B
:1008C00061726D6564223A007B226C6576656C22EC
:1008D0003A22303030222C22646576696365223AF0
:1008E0002200027B226C6576656C223A2230303021
:1008F000222C22646576696365223A22434F4E5466
:10090000524F4C4C4552222C22736B657463682203
:100910003A226F6D697373696F6E2E696E6F222C48
:100920002276657273696F6E223A2276332E302EEC
:1009300031222C22626175645F72617465223A31E2
:1009400031353230302C227363686564756C6522F2
:100950003A224F4D495353494F4E227D002C226578
:100960006E645F74696D657374616D70223A002CFA
:10097000226576656E74223A224C49434B222C2222
:1009800073746172745F74696D657374616D7022E4
:100990003A00222C2270696E223A007B226C657626
:1009A000656C223A22303037222C226465766963E6
:1009B00065223A22002C22656E645F74696D65734E
:1009C00074616D70223A002C226576656E74223A4D
:1009D000225354494D222C2273746172745F7469DE
:1009E0006D657374616D70223A007B226C6576656B
:1009F0006C223A22303037222C2264657669636596
:100A0000223A224C41534552222C2270696E223ADE
:100A1000002C226D6973736564223A002C2265767E
:100A2000656E74223A2254494D455354414D50222B
:100A30002C2274696D657374616D70223A007B229B
:100A40006C6576656C223A22303038222C2264653F
:100A500076696365223A224D4943524F53434F50C2
:100A600045222C2270696E223A002C226576656E32
:100A700074223A2254494D455354414D50222C2260
:100A800074696D657374616D70223A007B226C65C8
:100A900076656C223A22303039222C2264657669E0
:100AA0006365223A22534C4D222C2270696E223A01
:100AB0000000002100240027002A002D0030003310
:100AC0000001010000040107010A010000220025C5
:100AD0000028002B002E0031003400020100000528
:100AE0000108010B01000020002300260029002C32
:100AF000002F00320000010000030106010901057A
:100B0000050505070508080808020202020A0A0886
:100B100008040404040101010101010101030303AC
:100B20000303030303040707070C0C0C0C0C0C0C49
:100B30000C0202020206060606060606060B0B0B50
:100B40000B0B0B0B0B01021020200808102040108B
:100B50002040800201020108040201010204081081
:100B6000204080804020100804020180040201809F
:100B700040201008040201080402010102040810C8
:100B8000204080010204081020408000000A0B026F
:100B9000090C0D0E0807030401000000000000000E
:100BA0000000000000000000000000000000000045
:100BB0000000000000000012111000000000000002
:100BC0000000000000000000000000000000000025
:100BD0000044495341524D45440041524D45440063
:100BE000227D002C2264657363223A22007B226CF2
:100BF0006576656C223A22303031222C226465768B
:100C0000696365223A22534C4D222C2270696E2270
:100C10003A004C455645525F4C48004C45564552AB
:100C20005F524800227D002C226F7269656E7461EC
:100C300074696F6E223A22002C22656E645F7469BB
:100C40006D657374616D70223A00222C2273746199
:100C500072745F74696D657374616D70223A002CF3
:100C6000226576656E74223A225052455353222CE7
:100C700022636C617373223A2200222C2270696E07
:100C8000223A007B226C6576656C223A223030373E
:100C9000222C22646576696365223A220054494D0C
:100CA000454F555400494E41435449564500414330
:100CB00054495645002C227363686564756C6564FD
:100CC0005F6174223A002C22746172676574223A63
:100CD000007B226C6576656C223A22303036222CFD
:100CE000226572726F725F636F6465223A22455F9C
:100CF00050454E44494E475F46554C4C222C226489
:100D0000657363223A2250656E64696E6720616381
:100D100074696F6E2071756575652066756C6C20E1
:100D2000E2809420616374696F6E2064726F7070EA
:100D30006564222C22616374696F6E5F74797065DB
:100D4000223A005354494D00494E465553494F4E9F
:100D500000494E465553494F4E00544F4E4500549E
:100D60004F4E45004C415345520050554D505F3257
:100D70000050554D505F31004355455F320043559B
:100D8000455F31002C22656E645F74696D65737414
:100D9000616D70223A00222C2273746172745F7448
:100DA000696D657374616D70223A002C22657665F9
:100DB0006E74223A2200222C2270696E223A007B45
:100DC000226C6576656C223A22303037222C226400
:100DD0006576696365223A220000673311241FBEDD
:100DE000CFEFD1E2DEBFCDBF00E00CBF13E0A0E04B
:100DF000B2E0E4EAF1E800E00BBF02C007900D9218
:100E0000A834B107D9F727E0A8E4B3E001C01D92E8
:100E1000A433B207E1F716E0CEEED6E000E006C05C
:100E200021970109802FFE010E949D3ECD3ED107F2
:100E300080E00807A9F70E94F4360C94D0400C9487
:100E40000000CF93DF93EC0188819981DC01ED9163
:100E5000FC910190F081E02D64E270E0199500971B
:100E600041F02FE1FC01238321E02283DF91CF9128
:100E7000089521E02A83FACFAF92CF92EF920F9399
:100E8000FC0191E090933A0410923B0490933C044F
:100E9000409341045093420460934304709344048C
:100EA0001092450410924604109247041092480490
:100EB00089E08093560484E68093570410925A0484
:100EC00094E09093B8041092760483E080937704C2
:100ED000009378041092790410927A0410927B04A3
:100EE00010927C044091D0065091D1066091D206B8
:100EF0007091D30640937D0450937E0460937F04E9
:100F0000709380041092810490938204E092830491
:100F10001092840410928504109286041092870423
:100F20008091AF069091B006A091B106B091B20643
:100F30008093880490938904A0938A04B0938B04CF
:100F400010928C0420938D04263009F0AC2CA092D2
:100F50008E0410928F0410929004109291041092BB
:100F6000920481859285A385B485809393049093A0
:100F70009404A0939504B09396041092970487E08C
:100F80008093980489E08093990410929A041092B7
:100F90009B0410929C0410929D0480913E069091B7
:100FA0003F06A0914006B091410680939E04909325
:100FB0009F04A093A004B093A1040F91EF90CF9051
:100FC000AF900895EBE0F5E01082709686E0EB308C
:100FD000F807D1F708958150823108F05AC0E82F00
:100FE000F0E08827E950F84F8F4F0C949D3E17088A
:100FF0001B0809080F08130849081E0824082808B8
:101000002E08320836083C084008490844084A08B7
:101010004E08809180008F778093800008958091A2
:1010200080008F7DF9CF80918000877FF5CF84B5D8
:101030008F7784BD089584B58F7DFBCF8091B000FC
:101040008F778093B00008958091B0008F7DF9CFA5
:10105000809190008F778093900008958091900008
:101060008F7DF9CF80919000877FF5CF8091A00090
:101070008F778093A00008958091A0008F7DF9CF95
:101080008091A000877FF5CF809120018F7780939A
:1010900020010895809120018F7DF9CF809120015A
:1010A000877FF5CFCF93DF93282F30E0F901E55705
:1010B000F44F8491F901EB5BF44FD491F901E150C5
:1010C000F54FC491CC23A1F081110E94EB07EC2FC6
:1010D000F0E0EE0FFF1FEB51F54FA591B491EC91AD
:1010E000ED2381E090E009F480E0DF91CF91089555
:1010F00080E090E0FACF1F93CF93DF93282F30E06A
:10110000F901E557F44F8491F901EB5BF44FD49169
:10111000F901E150F54FC491CC23A9F0162F8111AC
:101120000E94EB07EC2FF0E0EE0FFF1FE553F54FA9
:10113000A591B4918FB7F894EC91111108C0D09596
:10114000DE23DC938FBFDF91CF911F910895DE2BBB
:10115000F8CFCF93DF9390E0FC01EB5BF44F249149
:101160008150954FFC0184918823C9F090E0880F4D
:10117000991FFC01EF54F54FA591B491FC01E55383
:10118000F54FC591D49161110DC09FB7F8948C9122
:10119000209582238C938881282328839FBFDF9109
:1011A000CF910895623051F49FB7F8943C91822F0B
:1011B000809583238C93E8812E2BEFCF8FB7F89403
:1011C000EC912E2B2C938FBFEACF3FB7F8948091F0
:1011D000830390918403A0918503B091860326B583
:1011E000A89B05C02F3F19F00196A11DB11D3FBF5F
:1011F000BA2FA92F982F8827BC01CD01620F711D2E
:10120000811D911D42E0660F771F881F991F4A9527
:10121000D1F708958F929F92AF92BF92CF92DF92B3
:10122000EF92FF920E94E5084B015C0184E6C82E14
:10123000D12CE12CF12C0E94E508681979098A0962
:101240009B09683E734081059105A8F321E0C21A0D
:10125000D108E108F10888EE880E83E0981EA11CF1
:10126000B11CC114D104E104F10429F7FF90EF90FF
:10127000DF90CF90BF90AF909F908F9008952FB741
:10128000F89460917F037091800380918103909125
:1012900082032FBF08950F931F93CF93DF93C091C5
:1012A0002604D09127042097C9F08A81882331F041
:1012B0008B818F3F19F08B818F5F8B8381E08A83D5
:1012C0000E943F0909851A852B853C85601B710B9F
:1012D000820B930B6D837E838F839887DF91CF91F1
:1012E0001F910F91089508959091080289130DC0E0
:1012F000E2EEF8E0E4919FEF90930802E230E1F033
:1013000038F4EE2381F0E13089F060E00C947B0842
:10131000E43049F110F1E530C1F7909173009D7F01
:1013200090937300F2CF10926E00EFCF90916F0008
:101330009D7F90936F00E9CF909170009D7F909377
:10134000700091E09093B0009091B100987F94600C
:101350009093B1001092B300D8CF909171009D7F0F
:1013600090937100D2CF909172009D7F9093720004
:10137000CCCF4F925F926F927F928F929F92AF925B
:10138000BF92CF92DF92EF92FF920F931F93CF9372
:10139000DF9300D01F921F92CDB7DEB78B012901DA
:1013A0003A01909108028917C9F09F3F09F491C052
:1013B0000F900F900F900F900F90DF91CF911F9192
:1013C0000F91FF90EF90DF90CF90BF90AF909F90E4
:1013D0008F907F906F905F904F900895E2EEF8E0CD
:1013E00024912D8327FDE4CF61E00E94A9082D817F
:1013F000222321F08D81823009F005C24801B12CF1
:10140000A12C60E072E18AE790E0A50198010E94BA
:10141000203D29833A834B835C8369017A0191E003
:10142000C91AD108E108F1082FEFC216D104E1046E
:10143000F10409F00CF4B6C160E472E48FE090E0CE
:10144000A50198010E94203D69017A0181E0C81A36
:10145000D108E108F1089D81923009F026C182E0AF
:101460002FEFC216D104E104F10409F00CF46CC1B1
:1014700060E970ED83E090E0A50198010E94203DB5
:1014800069017A0181E0C81AD108E108F10883E016
:101490009FEFC916D104E104F10409F00CF454C122
:1014A00068E478EE81E090E0A50198010E94203D7B
:1014B00069017A0181E0C81AD108E108F1089FEFBB
:1014C000C916D104E104F10411F00CF044C184E028
:1014D0003BC180930802E2EEF8E094919D839F3F28
:1014E00009F466CF923009F474C058F4992399F145
:1014F000913009F44CC097FD5BCF61E00E94A908D0
:1015000079CF2D81243009F4AEC008F488C025308D
:1015100091F7109220011092210190912101986081
:101520009093210190912101916090932101282FA6
:1015300030E0F901E150F54FE491F0E0EE0FFF1FCC
:10154000E553F54F45915491F901EB5BF44FE4916C
:10155000E093590349CF14BC15BC94B5926094BD77
:1015600095B5916095BD282F30E0F901E150F54F18
:10157000E491F0E0EE0FFF1FE553F54F45915491D4
:10158000F901EB5BF44FE491E0935D032DCF1092F2
:10159000800010928100909181009860909381006A
:1015A00090918100916090938100282F30E0F901A3
:1015B000E150F54FE491F0E0EE0FFF1FE553F54FDA
:1015C00045915491F901EB5BF44FE491E0935C0396
:1015D0000BCF1092B0001092B1009091B0009260C9
:1015E0009093B0009091B10091609093B100282F3A
:1015F00030E0F901E150F54FE491F0E0EE0FFF1F0C
:10160000E553F54F45915491509373034093720302
:10161000F901EB5BF44FE491E0937403E5CE109293
:101620009000109291009091910098609093910099
:1016300090919100916090939100282F30E0F901F2
:10164000E150F54FE491F0E0EE0FFF1FE553F54F49
:1016500045915491F901EB5BF44FE491E0935B0306
:1016600093E09D83C1CE1092A0001092A1009091B2
:10167000A10098609093A1009091A1009160909337
:10168000A100282F30E0F901E150F54FE491F0E09E
:10169000EE0FFF1FE553F54F45915491F901EB5BB8
:1016A000F44FE491E0935A039FCE2FEFC216D1047A
:1016B000E104F10409F00CF4A4C068E478EE81E0E0
:1016C00090E0A50198010E94203D69017A0181E026
:1016D000C81AD108E108F1089D81992309F489C14C
:1016E0009FEFC916D104E104F10409F00CF4EFCE28
:1016F00062E17AE780E090E0A50194010E94203D3C
:1017000069017A0181E0C81AD108E108F1089D81D8
:10171000992309F453C186E09FEFC916D104E1046F
:10172000F10491F088F0C980DA80EB80FC808AE0D7
:10173000F594E794D794C7948A95D1F781E0C81AB5
:10174000D108E108F10887E09091B100987F892BDA
:101750008093B1002FC064E274EF80E090E0A501B7
:1017600094010E94203D69017A0181E0C81AD108E4
:10177000E108F10885E09FEFC916D104E104F10406
:1017800019F310F362E17AE780E090E0A50194019B
:101790000E94203D69017A0181E0C81AD108E10860
:1017A000F108B9CF81E02D812111CECF95B5987F79
:1017B000892B85BD2FEF3FEFA9014114510461042E
:1017C000710409F049C09D81923009F4E7C00CF022
:1017D000CEC0992309F4D3C0913009F0E9CDD0925D
:1017E0008900C092880020936A0330936B03409372
:1017F0006C0350936D0380916F00826080936F0043
:10180000D7CD82E0D0CFB12CA12C60E072E18AE785
:1018100090E0A50198010E94203D69017A0181E0D4
:10182000C81AD108E108F108C114D10491E0E90611
:10183000F10404F591E02D81213069F5809181005A
:10184000887F892B809381002FEF3FEFA9014114FE
:1018500051046104710419F2D801AA0FBB1FA3013E
:1018600092010E943F3D28EE33E040E050E00E94AC
:10187000523DA9CF68E478EE81E090E0A50198019F
:101880000E94203D69017A0181E0C81AD108E1086F
:10189000F10893E0D0CF8D81833001F580919100E4
:1018A000887F892B809391002FEF3FEFA90141148E
:1018B00051046104710481F6D0929900C09298009D
:1018C0002093660330936703409368035093690342
:1018D000809171008260809371006ACD2D812430E7
:1018E00009F58091A100887F892B8093A1002FEFBB
:1018F0003FEFA901411451046104710409F0ACCF18
:10190000D092A900C092A800209362033093630391
:1019100040936403509365038091720082608093CA
:10192000720046CD8D81853009F044CF8091210130
:10193000887F892B809321012FEF3FEFA90141146C
:1019400051046104710409F087CFD0922901C0923B
:10195000280120935E0330935F034093600350930C
:1019600061038091730082608093730021CD8D812B
:10197000843031F20CF4A0CF853039F319CDC7BCD7
:1019800020936E0330936F03409370035093710361
:1019900080916E00826080936E000ACDC092B30089
:1019A0002093750330937603409377035093780325
:1019B00080917000826080937000FACC84E02FEFF9
:1019C000C216D104E104F10409F008F4EFCEC98095
:1019D000DA80EB80FC809AE0F594E794D794C79482
:1019E0009A95D1F791E0C91AD108E108F10885E08C
:1019F000DDCE83E02FEFC216D104E104F10411F033
:101A00000CF076CED3CEAF92BF92CF92DF92EF9210
:101A1000FF920F931F93CF93DF936C017B018B0198
:101A2000040F151FEB015E01AE18BF08C017D107E8
:101A300059F06991D601ED91FC910190F081E02D72
:101A4000C6011995892B79F7C501DF91CF911F91B7
:101A50000F91FF90EF90DF90CF90BF90AF900895DF
:101A6000FC01538D448D252F30E0842F90E0821BA4
:101A7000930B541710F0CF96089501970895FC0129
:101A8000918D828D981761F0A28DAE0FBF2FB11D81
:101A90005D968C91928D9F5F9F73928F90E00895D9
:101AA0008FEF9FEF0895FC01918D828D981731F093
:101AB000828DE80FF11D858D90E008958FEF9FEFE7
:101AC0000895FC01918D228D892F90E0805C9F4FBD
:101AD000821B91098F739927089587E893E00E94EC
:101AE000610D21E0892B09F420E0822F0895FC018B
:101AF000A48DA80FB92FB11DA35ABF4F2C91848D6F
:101B000090E001968F739927848FA689B7892C93CB
:101B1000A089B1898C91837080648C93938D848D1E
:101B2000981306C00288F389E02D80818F7D808321
:101B30000895EF92FF920F931F93CF93DF93EC01E1
:101B400081E0888F9B8D8C8D98131AC0E889F98964
:101B5000808185FF15C09FB7F894EE89FF89608367
:101B6000E889F98980818370806480839FBF81E0E8
:101B700090E0DF91CF911F910F91FF90EF9008952A
:101B8000F62E0B8D10E00F5F1F4F0F731127E02E05
:101B90008C8D8E110CC00FB607FCFACFE889F9893D
:101BA000808185FFF5CFCE010E94770DF1CFEB8DBF
:101BB000EC0FFD2FF11DE35AFF4FF0829FB7F89411
:101BC0000B8FEA89FB8980818062CFCF0F931F93AF
:101BD000CF93DF938C01D0E0C0E0F801EC0FFD1F44
:101BE0006491662341F087E893E00E94990D892B68
:101BF00011F02196F2CFCE01DF91CF911F910F917D
:101C00000895CF93DF93EC01888D8823B9F0AA89DA
:101C1000BB89E889F9898C9185FD03C0808186FDA7
:101C20000DC00FB607FCF7CF8C9185FFF2CF8081F6
:101C300085FFEDCFCE010E94770DE9CFDF91CF91E7
:101C4000089580E090E0892B29F00E946D0D8111AC
:101C50000E94000080E090E0892B49F080E090E055
:101C6000892B29F00E94000081110E94000080E071
:101C700090E0892B49F080E090E0892B29F00E94C8
:101C8000000081110E94000080E090E0892B49F063
:101C900080E090E0892B29F00E94000081110C94D3
:101CA00000000895CF92DF92EF92FF921F93CF939F
:101CB000DF93EC016A017B018C810E94520811E0E4
:101CC000892B09F410E08B85181721F0CD8ADE8A64
:101CD000EF8AF88E8D899E89AF89B88DB701A601EC
:101CE000481B590B6A0B7B0B898D90E0B0E0A0E09C
:101CF00084179507A607B70798F48C85181781F005
:101D00001C878A851817A9F0CA8EDB8EEC8EFD8E93
:101D1000EAA1FBA1309721F0B701A60189851995A9
:101D20001B87DF91CF911F91FF90EF90DF90CF90B5
:101D30000895CE8EDF8EE8A2F9A2ECA1FDA1309726
:101D400079F389851995ECCFFC01158213861486E9
:101D5000158616861786108A118A128A138A148AA3
:101D6000158A168A138E8681882311F084818383D5
:101D70000895CF92DF92EF92FF920F931F93CF932C
:101D8000DF93EC018E81811103C08D89882369F175
:101D90008C810D851E852F8538896A017B01C01ACB
:101DA000D10AE20AF30A9701860137FD18C00989B2
:101DB0001A892B893C89401B510B620B730B14163B
:101DC0001506160617065CF061E0DF91CF911F91B2
:101DD0000F91FF90EF90DF90CF900C947B0860E024
:101DE0000E947B088D8981111D8ADF91CF911F91FF
:101DF0000F91FF90EF90DF90CF900895CF93DF93F6
:101E0000EC0161E088810E947B0881E08D870E945F
:101E10003F096E877F87888B998BDF91CF910895DB
:101E2000CF92DF92EF92FF92CF93DF93EC016A01A2
:101E30007B0169857A858B859C850E94013C9B018D
:101E4000AC0160E070E080E89FE30E94F03D20E09C
:101E500030E040E05FE30E94623C20E030E04AE78F
:101E600054E40E94623CCD8EDE8EEF8EF8A220E01C
:101E700030E040E05FE30E94843D0E94693EC60E70
:101E8000D71EE81EF91EC9A2DAA2EBA2FCA28FA1FE
:101E900091E089278FA3DF91CF91FF90EF90DF90A2
:101EA000CF900895CF92DF92EF92FF92CF93DF937E
:101EB000EC016A017B018D899E89AF89B88DAB01E8
:101EC0009601281B390B4A0B5B0BDA01C901B7FDE0
:101ED00049C0898D9A8DAB8DBC8DAB019601281BB5
:101EE000390B4A0B5B0BDA01C901181619061A06E1
:101EF0001B06C4F18EA18823A9F189859A85AB853B
:101F0000BC850197A105B10551F461E08C81DF9199
:101F1000CF91FF90EF90DF90CF900C947B0889A138
:101F20009AA1ABA1BCA1AB019601281B390B4A0BAE
:101F30005B0BDA01C901B7FD04C0A601CE010E9406
:101F4000100F8C819FA1992311F061E0E0CF60E038
:101F50000E947B081FA2DF91CF91FF90EF90DF904E
:101F6000CF90089560E08C810E947B081FA2898D2C
:101F70009A8DAB8DBC8DC81AD90AEA0AFB0A8EA1CC
:101F8000882331F01C141D041E041F040CF41EA22F
:101F900088A5882301F31C141D041E041F04DCF60D
:101FA00018A6D9CF8F929F92AF92BF92CF92DF9215
:101FB000EF92FF920F931F93CF93DF93EC018E81EB
:101FC000811104C088A1882309F445C07B01898957
:101FD0009A89AB89BC894A015B01881A990AAA0AC5
:101FE000BB0AC501B40197FD53C00D891E892F8915
:101FF000388D4A015701801A910AA20AB30A950145
:10200000840110161106120613060CF441C02A8D25
:102010002223A9F10C8D1D8D2E8D3F8D200F311F98
:102020002115310511F421E030E0FB8C50E040E057
:102030000E94523D60177107D8F4F1100AC06985FB
:102040007A8520E030E0A9018C810E94B90981E005
:102050008B8F81E0898FDF91CF911F910F91FF903E
:10206000EF90DF90CF90BF90AF909F908F900895AA
:10207000FF2079F38C810E9474091B8EEACF698559
:102080007A8520E030E0A9018C810E94B909E1CF76
:10209000898D882301F38C810E947409198E1B8E0F
:1020A00088A18823C1F218A2D6CF6F3FA9F0E62FEE
:1020B000E295EF7044E0E49F90011124DC01ED9182
:1020C000FC91E20FF31F6F7082819381B6E06B9FEA
:1020D000800D911D1124089590E080E00895982FBF
:1020E00080336CF08A3324F08F3524F08B3724F45E
:1020F00081E0089581341CF081E09B350CF080E094
:102100000895FC01828581110AC0A781B085CD01A7
:102110000196908787838C91818781E08287818572
:1021200008951F93CF93DF93EC01162F0E94811027
:10213000811306C01A8681E0DF91CF911F91089527
:1021400080E0FACF0F931F93CF93DF938C01EB01C5
:102150008991882369F0C8010E948110882379F051
:10216000FE013197908198130DC0F8011286F0CFCF
:1021700090E080E0DF91CF911F910F91089582E070
:1021800090E0F8CF83E090E0F5CFCF93DF93EC01C0
:10219000CE010E9481108B304CF489305CF488238E
:1021A00059F081E08E8390E080E00BC08D3011F01B
:1021B0008032B9F71A86ECCF8E81811105C081E09B
:1021C00090E0DF91CF91089582E090E0FACFDC01BA
:1021D00052969C915297915084E0989F90011124BF
:1021E0005096ED91FC91E20FF31F2281338121156E
:1021F000310579F041818081481758F481E0840FDE
:10220000818386E0489F200D311D11242115310561
:1022100021F460E070E08FEF0895B901892F829575
:10222000807F840F0895DF92EF92FF920F931F93A8
:10223000CF93DF93EC017B01D12C688979898A895E
:10224000D816E0F484E0D89E80011124060F171FF1
:10225000D80112966D917C916115710541F0D701FD
:10226000ED91FC910280F381E02DC7011995F801F1
:102270001382128210821182D394DFCF1A8A8FEFD9
:102280008C8BC617D70761F0D701ED91FC910280C6
:10229000F381E02DC7011995D98BC88B84E08B8B16
:1022A000DF91CF911F910F91FF90EF90DF900895F4
:1022B000AF92CF92EF920F931F93CF93DF93C09182
:1022C0000902D0910A0240910B0250910C026091D8
:1022D0000D0270910E02A0900002C0900102E090E9
:1022E00002020091030220910F02CE010E943C07DE
:1022F0008091B804843060F1C657D64009F078C0A8
:1023000040914C0350914D0360914E0370914F03E7
:1023100000915403109155032091560330915703B7
:102320000093790410937A0420937B0430937C0407
:1023300000938404109385042093860430938704CB
:1023400040938F045093900460939104709392048F
:1023500090915803992309F454C0843018F083E015
:10236000809397041092580481E0809359048093DD
:102370005A0480935B0480935C0410925D04109275
:102380005E041092740494E6909375048093FB04A9
:102390001092B90487E08093BA0489E08093BB046B
:1023A0008091420690914306A0914406B091450663
:1023B0008093BC049093BD04A093BE04B093BF046B
:1023C00080913E0690913F06A0914006B091410653
:1023D0008093C0049093C104A093C204B093C3043B
:1023E000DF91CF911F910F91EF90CF90AF90089513
:1023F00040915003509151036091520370915303E7
:1024000087CF10925A04ECCF4F925F926F927F92D7
:102410008F929F92AF92BF92CF92DF92EF92FF92F4
:102420000F931F93CF93DF9300D01F921F92CDB7CE
:10243000DEB7DC012C912B32E1F12D32D9F501967A
:10244000EE24E394FC01208130ED320F3A3010F09D
:102450002E3291F58C0160E070E0CB01F801219102
:1024600030ED832E820E39E0381508F444C06A3905
:1024700049E97407840749E1940708F046C0AAE0D7
:10248000B0E09B01AC010E943F3D912CB12CA12CEE
:102490002401350140945094609470944616570678
:1024A0006806790690F1680D791D8A1D9B1D8F01C4
:1024B000D5CF0196E12CC6CF198229813A814B8173
:1024C0005C816D8170E080E090E00F900F900F9044
:1024D0000F900F90DF91CF911F910F91FF90EF9090
:1024E000DF90CF90BF90AF909F908F907F906F9034
:1024F0005F904F900895211108C0EE2051F1613096
:102500007105810550E89507A0F0F12CBAE08B2EFB
:10251000912CA12CB12C6115710530E88307910530
:10252000F8F0A50194010E94523DCA01B901F3944B
:10253000F2CF22E029839B01AC0188279927DC0197
:10254000821B930BA40BB50B8A839B83AC83BD8347
:10255000B4CF23E029836A837B838C839D83ADCFB3
:10256000F801D8012D918D0130ED320F3A3010F481
:10257000F394F6CF2E3201F58F010F5F1F4FF80154
:102580000F5F1F4F2081A0EDDA2ED20EB9E0BD15EE
:1025900098F06C3CECEC7E07ECE08E07910578F748
:1025A000AAE0B0E09B01AC010E943F3D6D0D711DA2
:1025B000811D911DFA94E3CF20812F7D10E000E072
:1025C000253409F050C021812D32B1F53296CC244A
:1025D000C394DF0110E000E02F2D0F2C000C330B13
:1025E000EAE0BE2EFD01DD9040ED4D0D4A30B0F524
:1025F000B09EA001B19E500D11240D2DDD0C110BCC
:1026000000531109040F151FA801420F531F473231
:10261000510544F3CC20B9F080E090E0A0E0B0E8B0
:10262000E11003C080E090E0DC0121E029838A838F
:102630009B83AC83BD8341CF2B3219F03196C12CE3
:10264000C8CF3296FCCF80E090E0A0E8BFEFE11069
:10265000ECCF80E090E0A0E8BFE7E7CFCC2019F016
:102660001195019511092081211126CF0F0D111D02
:10267000F7FC1A950E94013C48E1A42E42E0B42EDA
:10268000101611063CF011950195110950E0A52E88
:1026900052E0B52ED12CC12C01151105E9F0F6E060
:1026A000CF16D104A9F000FF0DC0F601EE0FFF1FF9
:1026B000EE0FFF1FEA0DFB1D2591359145915491B9
:1026C0000E94623C159507952FEFC21AD20AE4CFFB
:1026D00060E070E080EC9FE7E110905821E02983F2
:1026E0006A837B838C839D83E8CECF92DF92EF92C7
:1026F000FF920F931F93CF93DF937C016B018A01AD
:10270000FC01C081D1814F3F510509F0B0F4E8814F
:10271000F9810480F581E02D4B5F5F4FCE01199563
:10272000009759F0FC010383DF91CF911F910F9126
:10273000FF90EF90DF90CF900895E881F9810280BB
:10274000F381E02DB601CE01199581E0F701828376
:1027500090E080E0E9CF1F93CF93DF93EC01162F39
:102760006A817B816115710589F04C815D81FB0176
:1027700083818417150651F4440F551F4F5F5F4F37
:10278000888199810E9475139B838A838A819B81AA
:10279000009759F02C813D81A9014F5F5F4F5D8308
:1027A0004C83820F931FFC011483DF91CF911F9103
:1027B00008959F92AF92BF92CF92DF92EF92FF92D5
:1027C0000F931F93CF93DF9300D01F921F92CDB72B
:1027D000DEB78C010E948110D82EF8011286F12CF0
:1027E000E12C60EFC62EC8010E948110F80112860C
:1027F000D81609F4B3C0811113C082E090E00F90A5
:102800000F900F900F900F90DF91CF911F910F912C
:10281000FF90EF90DF90CF90BF90AF909F90089582
:102820008C3509F099C0C8010E948110882329F3D2
:10283000E7EAF2E0853709F083C0F801128654E038
:10284000952EB12CA12CC8010E9481108823A9F2D9
:10285000813434F48053803130F083E090E0CFCF86
:102860008F7D8753F8CF44E0AA0CBB1C4A95E1F753
:10287000A82AF80112869A949110E5CFC501985DB7
:102880008115944020F47501F3E0FF22ACCFC5011F
:102890009C5D81159440A8F483E0B822B701762F9F
:1028A0006627770F770F6A297B2990E080E00196F1
:1028B000603871058105910540F4C8010E94AB1391
:1028C00092CFB50190E080E0F3CF1982262F2F73CD
:1028D00020682A8326E096958795779567952A95AF
:1028E000D1F76032710580F4606C6B835E01E4E0C7
:1028F000AE0EB11CF50162915F01662309F473CF3E
:10290000C8010E94AB13F6CF262F2F7320682B83AC
:1029100086E0769567958A95E1F76031710538F420
:10292000606E6C835E01F5E0AF0EB11CE3CF6068B2
:102930006C83CD825E0126E0A20EB11CDBCF329605
:102940009081992309F489CF8913F9CF8181882354
:1029500009F483CFF8011286682FAFCF828193816B
:10296000892B19F484E090E04ACF90E080E047CFD3
:102970006F927F928F929F92AF92BF92CF92DF928F
:10298000EF92FF920F931F93CF93DF93EC012A8175
:102990003B812C5F3F4F4C815D814430510588F570
:1029A0008901F90180E0942FB22FAE2FA21BA91745
:1029B00030F4F190A1E0F110A0E08A2BF6CF811164
:1029C00020C082E0EB018C83FB01802F8B1B8917D9
:1029D00028F4E80189918E018193F7CF640F751F68
:1029E000FB011082DF91CF911F910F91FF90EF902B
:1029F000DF90CF90BF90AF909F908F907F906F901F
:102A000008958B01F901E40FF51F108288819981E7
:102A10004C815D81DC011396ED91FC913A01E894C3
:102A200077F86901C60CD71C3097C1F0A381A615B1
:102A3000170481F449017F01B4E0EB0EF11C8C1402
:102A40009D0429F1D401AD904D01D701BD907D01C8
:102A5000AB14A9F30190F081E02DE6CF6A817B8170
:102A60000E947513FC01A881B98113968D919C91E8
:102A70001497918380831496FC93EE9313971B8293
:102A80001A8285E0E8018C83F983E883ABCF8281E9
:102A90008F5F8283F6CFDB01ED91FC91119702806D
:102AA000F381E02DBC01CD011994AF92BF92CF927A
:102AB000DF92EF92FF920F931F93CF93DF93EC017E
:102AC0008B018C8180FF24C0A881B981FB018381A7
:102AD000948130E020E00097D9F0A817B907D1F52C
:102AE000F8016081718112968C9112978150129633
:102AF0008C93129781110CC08D919C911197211587
:102B0000310529F1F90191838083CD010E944B1594
:102B10008C81807631F1209721F1F8805801F5E120
:102B2000AF0EB11C8FEFF816D1F06F2DC5010E94CA
:102B300055106C01FC01E580B8010E945515F801A3
:102B4000818DF6018083F801F18EFE2CEBCF94830A
:102B50008383DBCF9C01FC0180819181BCCFF88213
:102B6000F9821C82DF91CF911F910F91FF90EF901E
:102B7000DF90CF90BF90AF9008950F931F93CF93A6
:102B8000DF93EC01088119818B819C81009749F0CA
:102B9000FC01208131813C832B83B8010E944B15BD
:102BA000F3CF68817981CE010596DF91CF911F9196
:102BB0000F910C941311FC0101900020E9F731975B
:102BC000AF01481B590BBC0187E893E00C94030D3F
:102BD0008F929F92AF92BF920F931F93CF93DF93E9
:102BE000CDB7DEB7A1970FB6F894DEBF0FBECDBF4D
:102BF00019A2423008F44AE08E010F5D1F4F842E67
:102C0000912CB12CA12CA50194010E94523DE62FDC
:102C1000B901CA01EA30F4F4E05DD801EE938D0108
:102C2000232B242B252B79F790E080E0109719F0C7
:102C3000CD010E94DB15A1960FB6F894DEBF0FBE42
:102C4000CDBFDF91CF911F910F91BF90AF909F901B
:102C50008F900895E95CE1CF4AE00C94E815682F65
:102C600070E090E080E04AE00C94E815CF92DF92AB
:102C7000EF92FF92CF93DF936C01990FEE08FF085C
:102C8000F7FE19C06DE287E893E00E94990DEC0110
:102C900066277727CB016C197D098E099F094AE0C9
:102CA0000E94E8158C0F9D1FDF91CF91FF90EF9050
:102CB000DF90CF9008954AE0C701B601DF91CF9130
:102CC000FF90EF90DF90CF900C94E815CF93DF93B7
:102CD0000E94E60DEC018AEB92E00E94DB158C0F5E
:102CE0009D1FDF91CF910895CF93C82F8093100639
:102CF0008DEE9BE00E94E60D80910E06082E000CE2
:102D0000990B0E94361683EE9BE00E94E60D81ED42
:102D10009BE0CC2311F08AED9BE00E94E60D80EE53
:102D20009BE0CF910C9466160F931F93CF938C0169
:102D3000C62FFC01648384EB97E00E94E60DF80146
:102D40008081082E000C990B0E9436168AEA97E0C3
:102D50000E94E60D88E997E0CC2311F081EA97E024
:102D60000E94E60D87EA97E0CF911F910F910C9496
:102D70006616EF92FF920F931F93CF93DF937C0120
:102D80008B01EA018EE797E00E94E60DC7010E94E1
:102D9000E60D82E797E00E94E60DC8010E94E60D6D
:102DA00086E697E00E94E60DCE010E94E60D83E6DE
:102DB00097E0DF91CF911F910F91FF90EF900C94CE
:102DC0006616CF93DF936DE787E893E00E94990D35
:102DD000EC018AEB92E00E94DB158C0F9D1FDF91C6
:102DE000CF9108954F925F926F927F928F929F92B0
:102DF000AF92BF92EF92FF920F931F93CF93DF9307
:102E00002A013B0148015901853009F480C008F0CE
:102E100061C0843009F46FC0E0912E04F0912F045A
:102E20001481CFE5DDE04EE7E42E4DE0F42E8FEB8C
:102E30009DE00E94E60DC7010E94E60D86EB9DE035
:102E40000E94E60D812F110F990B0E9436168BEA16
:102E50009DE00E94E60DCE010E94E60D86E99DE010
:102E60000E94E60D8091FC059091FD05A091FE0564
:102E7000B091FF05A3019201281B390B4A0B5B0B94
:102E8000CA01B9010E942C1684E89DE00E94E60D5B
:102E90008091FC059091FD05A091FE05B091FF0584
:102EA000A5019401281B390B4A0B5B0BCA01B90120
:102EB0000E942C16DF91CF911F910F91FF90EF9000
:102EC000BF90AF909F908F907F906F905F904F904A
:102ED0000C94E116863039F1873009F09DCFE091EE
:102EE0003604F09137041481C3E4DDE084E6E82E73
:102EF0008DE0F82E9CCFE0913004F09131041481E4
:102F0000CAE5DDE038E7E32E3DE0F32E90CFE09117
:102F10003204F09133041481C1E5DDE021E7E22EB3
:102F20002DE0F22E84CFE0913404F0913504148129
:102F3000C8E4DDE09AE6E92E9DE0F92E78CFCF9245
:102F4000DF92EF92FF920F931F93CF93DF93EC01E9
:102F50008881813009F4D1C06A017B01813090F011
:102F60008230D1F48AE394E00E94A40E88E594E0D4
:102F7000DF91CF911F910F91FF90EF90DF90CF9055
:102F80000C94A40E8981853009F47DC070F48330DF
:102F9000F1F1843009F45AC0DF91CF911F910F9164
:102FA000FF90EF90DF90CF900895863009F488C0AD
:102FB000873091F7E0913604F0913704309761F350
:102FC0008681882349F385A18111E6CF8F81988579
:102FD000A985BA85C58AD68AE78AF08E8C0D9D1D93
:102FE000AE1DBF1D818F928FA38FB48F81E086A30A
:102FF000CF010E94100F0F81188529853A850C0D8D
:103000001D1D2E1D3F1DB701A60187E01CC0E091CC
:103010002E04F0912F04309709F4BECF86818823C7
:1030200009F4BACF0F81188529853A85C18AD28AD9
:10303000E38AF48A0C0D1D1D2E1D3F1D058B168B7A
:10304000278B308F83E00E94F216A6CFE0913004E8
:10305000F0913104309709F49FCF8681882309F4D9
:103060009BCF0F81188529853A85C18AD28AE38A48
:10307000F48A0C0D1D1D2E1D3F1D058B168B278BF5
:10308000308F84E0E0CFE0913204F0913304309748
:1030900009F482CF8681882309F47ECF0F811885B9
:1030A00029853A85C586D686E786F08A0C0D1D1DD2
:1030B0002E1D3F1D018B128B238B348B85E0C3CFDC
:1030C000E0913404F0913504309709F465CF86819E
:1030D000882309F461CF0F81188529853A85C58633
:1030E000D686E786F08A0C0D1D1D2E1D3F1D018B17
:1030F000128B238B348B86E0A6CF8981E091280444
:10310000F0912904882339F0813009F045CFE0910E
:103110002A04F0912B04309709F43ECFCF80D88455
:10312000E984FA844C0D5D1D6E1D7F1D418B528B11
:10313000638B748B31CF2F923F924F925F926F923D
:103140007F928F929F92AF92BF92CF92DF92EF9237
:10315000FF920F931F93CF93DF9300D01F92CDB7B1
:10316000DEB72A013B0103E4809F90011124312C3A
:103170008901C90188549B4F9A8389834BE0242E8F
:1031800049019EE4890E911CE981FA8180813816FB
:1031900008F098C0A32CB12CC801239C800D911D70
:1031A0001124885D9B4FFC01E25BFF4F208123309F
:1031B00039F1805B9F4FFC018081893021F0909133
:1031C0000D0689131DC02A9CF0012B9CF00D1124C3
:1031D000E00FF11FE758FB4FC080D180E280F38001
:1031E000C114D104E104F10469F4B301A201C401E2
:1031F000329C800D911D1124885D9B4F0E949F176A
:103200003394C2CFC40CD51CE61CF71CEBE0F5E0F0
:1032100090E080E02081211125C024E0880F991FD3
:103220002A95E1F7DC01A450BB4F2A9CF0012B9CAE
:10323000F00D1124E00FF11FEA58FB4F222D0190F1
:103240000D922A95E1F7885D9B4FFC01E152FF4FFB
:10325000C082D182E282F3828D519F4F21E0FC0136
:103260002083CECF019670968031910599F681ED3D
:103270009CE00E94E60D2A9CC0012B9C900D11241D
:10328000800F911F885D9B4F9C838B83FC01E25BC9
:10329000FF4F80810E942F1686EC9CE00E94E60D75
:1032A000EB81FC81E15BFF4F80810E942F1685EB53
:1032B0009CE00E94E60DC701B6010E942C160E94F8
:1032C000E1169ECF0F900F900F900F90DF91CF914E
:1032D0001F910F91FF90EF90DF90CF90BF90AF9034
:1032E0009F908F907F906F905F904F903F902F9026
:1032F00008950F931F93CF93DF938C01D62FC42F84
:1033000088EC98E00E94E60DC8010E94E60D8DEB66
:1033100098E00E94E60D83EA98E0DD2311F089EA47
:1033200098E00E94E60D8EEA98E00E94E60D88E99A
:1033300098E0CC2311F08EE998E00E94E60DDF9131
:10334000CF911F910F910C94E1160F931F93CF9380
:103350008C01C62F8EE798E00E94E60DC8010E94FE
:10336000E60D83E798E00E94E60D88E698E0CC231E
:1033700011F08EE698E00E94E60DCF911F910F911B
:103380000C94E116CF92DF92EF92FF920F931F936E
:10339000CF938C01C62F69017A018EE498E00E94D8
:1033A000E60DC8010E94E60D83E498E00E94E60D58
:1033B0008BE298E0CC2311F081E398E00E94E60DC7
:1033C00086E398E00E94E60DC701B6010E942C1624
:1033D000CF911F910F91FF90EF90DF90CF900C94C1
:1033E000E1167F928F929F92AF92BF92CF92DF921F
:1033F000EF92FF920F931F93CF93DF93EC01762E02
:1034000049015A016701780181E198E00E94E60DC7
:10341000CE010E94E60D86E098E00E94E60D80EE67
:1034200097E0772011F086EE97E00E94E60D88EF96
:1034300097E00E94E60DC501B4010E942C168BEEA8
:1034400097E00E94E60DC701B6010E942C16DF919D
:10345000CF911F910F91FF90EF90DF90CF90BF9091
:10346000AF909F908F907F900C94E116EF92FF9217
:103470000F931F93CF937C018B01C42F89E497E0B6
:103480000E94E60DC7010E94E60D8DE397E00E94C1
:10349000E60DC8010E94E60D82E397E00E94E60D6A
:1034A00087E297E0CC2311F08DE297E00E94E60DD1
:1034B000CF911F910F91FF90EF900C94E116CF9256
:1034C000DF92EF92FF920F931F93CF93DF938C01C4
:1034D000EB0169017A018DE097E00E94E60DC801D9
:1034E0000E94E60D81E097E00E94E60DCE010E9469
:1034F000E60D86EF96E00E94E60DC701B6010E9438
:103500002C16DF91CF911F910F91FF90EF90DF90DC
:10351000CF900C94E116009711F00C94DB1590E01D
:1035200080E00895EF92FF920F931F93CF93DF9364
:10353000C0912804D0912904882321F0C0912A0445
:10354000D0912B04209709F46EC0613009F465C056
:1035500008F460C0623009F463C092E1E92E9CE097
:10356000F92E811104C08BE1E82E8CE0F82E83E85F
:103570009CE00E94E60DC7010E94E60D8AE79CE0F0
:103580000E94E60D8C810E942F168FE59CE00E9420
:10359000E60DC8010E94E60D8AE49CE00E94E60D5B
:1035A0006A8D7B8D8C8D9D8D0091FC051091FD05A4
:1035B0002091FE053091FF05601B710B820B930B70
:1035C0000E942C1688E39CE00E94E60D6E8D7F8D94
:1035D00088A199A10091FC051091FD052091FE059F
:1035E0003091FF05601B710B820B930B0E942C1610
:1035F00087E29CE00E94E60DCE010D960E948B1A98
:1036000084E29CE0DF91CF911F910F91FF90EF90AA
:103610000C9466160EEA1CE0A0CF05EA1CE09DCFD4
:103620000DE91CE09ACFDF91CF911F910F91FF9090
:10363000EF90089590910406911104C090910506B1
:10364000992371F09091060691110AC060910B06C2
:10365000882321F0813021F460910C060C94921A99
:103660000895CF93DF93EC016E8389EA96E00E9480
:10367000E60D8F8198850E948B1A80EA96E00E9461
:10368000E60D8C81082E000C990B0E94361686E9F7
:1036900096E00E94E60D8E8181110AC084E896E0D2
:1036A0000E94E60D83E996E0DF91CF910C946616B7
:1036B0008DE896E0F5CF60E08091100290911102C4
:1036C0000E94311B60E080911202909113020E94CF
:1036D000311B60E080911402909115020E94311B11
:1036E00060E080911602909117020E94311B60E009
:1036F00080911802909119020E94311B60E0809124
:103700001A0290911B020E94311B60E080911C0202
:1037100090911D020E94311B80911E0290911F0208
:10372000009719F060E00E94311B60E08091200258
:10373000909121020C9494161F93CF93DF93EC0188
:10374000162F8E81882321F060E0CE010E94311B6C
:103750008D81813021F460E08C810E947B081C8384
:103760006D81812F0E94A9088D81813021F460E054
:103770008C810E947B088CED96E00E94E60D8F8183
:1037800098850E948B1A83EC96E00E94E60D8C814E
:10379000082E000C990B0E943616DF91CF911F91D5
:1037A0000C94E116CF93DF93EC010E949C1B8C815B
:1037B0000E94520821E0892B09F420E02A878C819D
:1037C0000E94520821E0892B09F420E02B878C818C
:1037D0000E94520821E0892B09F420E02C871D8AE1
:1037E0001E8A1F8A188EDF91CF9108959F92AF9203
:1037F000BF92CF92DF92EF92FF920F931F93CF93DE
:10380000DF938A01452B09F468C0E9016B016596D5
:10381000FC016081CE010E945510FC01BB24BA94CA
:10382000892B09F0B5807601E894F7F8AA24A394CF
:103830006701C00ED11E99249394309709F44DC0AE
:10384000AA2009F43FC08481843069F0853049F1B1
:10385000823079F5DF010D900020E9F71197CD0155
:103860008E1B9F0B07C00190F081E02D90E080E05F
:10387000309781F79F77E816F90621F5D801AC1546
:10388000BD05E1F46B2DCE01DF91CF911F910F911A
:10389000FF90EF90DF90CF90BF90AF909F900C94EF
:1038A0005510A081B181FD01349613968C9190E062
:1038B000E2CF90E080E0F0E0E0E0DDCF9D9181910B
:1038C0009817E9F2A9246B2DCE010E945510FC0136
:1038D000892B09F4B2CFB580B0CF90E080E0DF91C2
:1038E000CF911F910F91FF90EF90DF90CF90BF90FD
:1038F000AF909F900895FC0120813181C9014A96C3
:103900004281538164817581009759F0D9015E9697
:10391000EC91E03211F090E080E0009711F00C940F
:10392000F61B90E080E00895CF93DF93EB010E94B7
:103930007B1C009741F0FC012481263021F480811A
:10394000DF91CF9108958881FBCFCF92DF92EF92E4
:10395000FF92CF93DF9300D01F921F92CDB7DEB7B7
:103960000E947B1CDC01892B09F44BC01496EC915E
:103970001497E250ED3008F044C0F0E08827EC5393
:10398000F34E8F4F0C949D3EF01C011D051D081D2C
:10399000D11C011D011D011DE11C011DE61C011DA5
:1039A0000C1D6C9170E090E080E00F900F900F90F4
:1039B0000F900F90DF91CF91FF90EF90DF90CF901D
:1039C00008956D917D918D919C91EFCF8D919D91F9
:1039D0000D90BC91A02DB7FD14C0BC01CD01E5CF69
:1039E000CD010E9404123A834B835C836D83CA80AD
:1039F000DB80EC80FD80223059F1233059F12130F9
:103A000079F060E070E0CB01D0CF8D919C91E9CF4F
:103A10008D919C910496E5CFCD90DD90ED90FC903A
:103A200020E030E0A901C701B6010E94983E87FD61
:103A3000E8CF2FEF3FEF4FE75FE4C701B6010E94E9
:103A4000FC3B1816F4F2C701B6010E94693EADCFE7
:103A5000F7FCD7CFC701B601A8CF8F929F92AF9244
:103A6000BF92CF92DF92EF92FF920F931F93CF936B
:103A7000DF9300D000D0CDB7DEB749015A0167010E
:103A80007801FB0101900020E9F73197E61BF70B65
:103A90009A8389837C836B83ED838F2F8F778E83CB
:103AA000CE0101960E947B1C0097B9F0FC01248195
:103AB0002A3041F02C3089F480819181A281B38138
:103AC000B7FD0BC0CE0101960E94A51C8616970675
:103AD000A806B90610F44B015C01C501B401C61675
:103AE000D706E806F90610F4C701B60126960FB608
:103AF000F894DEBF0FBECDBFDF91CF911F910F9124
:103B0000FF90EF90DF90CF90BF90AF909F908F90FD
:103B10000895CF92DF92EF92FF92CF93DF9300D080
:103B20001F921F92CDB7DEB70E947B1CDC01892B50
:103B300009F448C01496EC911497E250ED3008F067
:103B400041C0F0E08827E855F24E8F4F0C949D3E1F
:103B5000E51DE21DF71DFA1DB51DE21DE21DE21D6A
:103B6000C41DE21DD11DE21DFE1D6C9170E0CB0154
:103B70000F900F900F900F900F90DF91CF91FF90CB
:103B8000EF90DF90CF9008958D919D910D90BC9115
:103B9000A02D811520E89207A105B10598F4BC017C
:103BA000E6CF8D919D910D90BC91A02D6C017D0172
:103BB00020E8D20EE11CF11CC114D10421E0E20680
:103BC000F10468F370E060E0D2CFCD010E940412EE
:103BD0003A834B835C836D83CA80DB80EC80FD80FD
:103BE000223049F1233099F1213061F70BC08D91DA
:103BF0009C91ECCF8D919C910496E8CFCD90DD9077
:103C0000ED90FC9020E030E040E057ECC701B601B9
:103C10000E94983E87FDD6CF20E03EEF4FEF56E45E
:103C2000C701B6010E94FC3B181664F2C701B60139
:103C30000E94623E9CCFD701C6019058AF4FBF4F44
:103C40000097A140B10508F0BDCFB60190CFC114D7
:103C500080E8D806E104F104C0F3B4CF0F931F93BA
:103C6000CF93DF93EC018B010E947B1CFC01892B1D
:103C700029F084818A3051F08C30C1F0F8018081C4
:103C80009181DF91CF911F910F9108958081918152
:103C9000A281B38181159048A105B10578F7CE01C5
:103CA000DF91CF911F910F910C94891D808191819B
:103CB000A281B3819058AF4FBF4F0097A140B1058B
:103CC000E8F6EDCF4F925F926F927F92AF92BF92E4
:103CD000CF92DF92EF92FF920F931F93CF93DF93D8
:103CE00090910406911105C090910506992309F45D
:103CF000E6C0909106069111E2C0823008F0DFC064
:103D000080930D0681110AC0E0912804F0912904E6
:103D1000309759F481E080930B06D1C0E0912A04DA
:103D2000F0912B04309709F483C09089992309F40A
:103D30007CC0018912892389348904171507260755
:103D4000370708F47EC0882309F4C8C082E0809356
:103D50000C06B5C08F898F5F8F8B9D89891708F4FA
:103D6000A9C08FA5843658F40E94A43BA3019201F8
:103D70000E94203D8FA5681710F01F8A9BC01F8AE4
:103D8000888D882351F09D899501281B3109921750
:103D9000130609F05CF4890F8D8B8B89823008F053
:103DA00089C0B701A6010E949B1884C083E392E0FA
:103DB0000E94E60D8D890E942F1680E392E00E94FA
:103DC0006616EBCFCD8EDE8EEF8EF8A273C08DA57A
:103DD000811170C089A19AA1ABA1BCA1A7019601D4
:103DE000281B390B4A0B5B0BDA01C901B7FD62C016
:103DF0008DA19EA1AFA1B8A58C199D09AE09BF09DF
:103E0000181619061A061B060CF054C08FA5843626
:103E100010F00DA7C2CF0E94A43BA30192010E9403
:103E2000203D8FA56817A8F345C0882309F472CFF9
:103E300081E08DCF10920B06E0912804F0912904C7
:103E400008C08823B9F310920C06E0912A04F0917F
:103E50002B04309781F0009100061091010620910B
:103E6000020630910306040F151F261F371F018B12
:103E7000128B238B348B6A017B01182FC8E2D4E0AC
:103E8000AA24AA94B12C94E6492E512C612C712CB1
:103E900001E08C89882371F08EA5893011F0181308
:103EA00009C08A89813009F48DCF08F453CF82305C
:103EB00009F48DCF6E9634E0C436D30751F7DF9105
:103EC000CF911F910F91FF90EF90DF90CF90BF9017
:103ED000AF907F906F905F904F90089582E01BCFDE
:103EE000BF92CF92DF92EF92FF920F931F93CF93E7
:103EF000DF93EC01198D1F3F81F0612F45960E94E1
:103F00005510FC018081898F309709F477C01482A5
:103F10008FEF8583BF01812F76C06C0135E0C30E22
:103F2000D11CE880F9808F89882341F0C6010E9466
:103F3000E710E62FF72F182F309749F71F89988D34
:103F4000191324C0103109F459C0110F6D897E89ED
:103F5000D701ED91FC91B4E01B9FA0011124C6167E
:103F6000D70609F044C00190F081E02DBA01C701E5
:103F70001995009709F442C020E1F601DC01019097
:103F80000D922A95E1F79E8B8D8B188F0D891E89D6
:103F90008F8921E0280F2F8BE4E08E9FC001112430
:103FA000080F191F90E1B92E203111F48FE0B82EBF
:103FB000F6E0BF9EB0011124D701ED91FC91019074
:103FC000F081E02DC7011995F80193838283892B35
:103FD00009F4B12CD801BC9211961C92012B71F0FE
:103FE000C6010E94E710E62FF72F182F8DCF04800F
:103FF000F581E02DC7011995009729F681E08A83A4
:1040000060E070E08FEFDF91CF911F910F91FF90F3
:10401000EF90DF90CF90BF9008954F925F926F9294
:104020007F928F929F92AF92BF92CF92DF92EF9248
:10403000FF920F931F93CF93DF9300D01F921F9295
:10404000CDB7DEB78C017B01B42E0E94C5106C0188
:10405000892B09F048C0C8010E948110863609F4F6
:10406000A9C124F5873229F08B3561F1823209F03C
:10407000A8C1D80115961C921E92149712968D9184
:104080009C911397892B39F48D919C910E94210763
:10409000F80193838283C8010E94D9136C01892B94
:1040A00011F5B701C8010E94B8141DC0843709F486
:1040B00060C18B3709F47BC08E3609F082C165ED93
:1040C00072E060C180E4D70114968C931497E114D8
:1040D000F10421F08FEF8C9311968C93B1101AC0DC
:1040E00025E0C22ED12CC6010F900F900F900F909B
:1040F0000F90DF91CF911F910F91FF90EF90DF9084
:10410000CF90BF90AF909F908F907F906F905F9077
:104110004F900895F8011286C8010E94C5100097BB
:1041200051F56DE5C8010E9491108111DCCFBA9460
:10413000D8011B966D907C90C3010E94701FA82E21
:104140004B01672B21F494E0C92ED12CCCCFF70181
:1041500061816F3F91F0C30145960E945510DC01CB
:104160001596AC92F701A1824B2DB401C8010E94B3
:104170000D20009739F06C01B6CFD7018C931196C2
:104180008C93F2CFC8010E94C5100097A1F76DE58E
:10419000C8010E9491108111A6CF6CE2C8010E9453
:1041A00091108111C5CF83E0C82ED12C9CCF80E225
:1041B000F7018483E114F10419F08FEF8083818388
:1041C000BB2009F48DCFD8011A961C92C8010E9419
:1041D000C510009781F66DE7C8010E94911081110A
:1041E00082CFBA94F8011582148282819381892B3F
:1041F00049F4808191810E942107D80113969C93F4
:104200008E931297C8010E9481108732F9F0823292
:10421000E9F0C8010E948110D82E0E946F108823F7
:1042200011F2F80112866D2DC8010E94AB13C8016E
:104230000E948110D82E0E946F108111F2CFD801F8
:1042400012968D919C91892B41F47DCFC8010E94DB
:10425000D9136C01892B09F046CFC8010E94C51003
:104260006C01892B09F03FCF6AE3C8010E949110CD
:10427000882309F498CFD8011296ED91FC911397F9
:1042800014968D919C911597E80FF91F148214963E
:104290006D917C9115977F771B966D907C901C9704
:1042A00012968D919C910496272F2F77BA2DB07876
:1042B000AB2EA22AE894A7F89301AC017A2DC7018E
:1042C0000E94F61B6C01009761F5C3010E94701FEC
:1042D000482E4B01672B09F436CFC3010E94701F93
:1042E000582E962FC92ED72EC114D10409F42BCFE6
:1042F000F4015582D70111966C916F3F71F0C301A3
:1043000045960E945510FC014582D70111965C929A
:10431000B401C8010E94B81407C0F701408251825D
:10432000F7CFB3010E9455154B2DB601C8010E946D
:104330000D206C01892B09F0D6CEC8010E94C51052
:104340006C01892B09F0CFCE6DE7C8010E94911056
:104350008111C9CE6CE2C8010E949110882309F432
:1043600022CFC8010E94C5106C01892B09F43ACFF5
:10437000BACE86E0D70114968C93149781E08C9383
:104380006AEC72E0C8010F900F900F900F900F90A1
:10439000DF91CF911F910F91FF90EF90DF90CF9021
:1043A000BF90AF909F908F907F906F905F904F9055
:1043B0000C94A21086E0F701848310826FEC72E007
:1043C000E1CFC8010E9481104801FDE08F0E911CD1
:1043D000B12C782CA92C803384F08A3384F43FE309
:1043E000B316A9F0D8011A961C92B394F4018193E4
:1043F0004F01C8010E948110EECF8B3281F393ED03
:10440000980F923060F3982F9F7D953441F30B0DF8
:10441000111DD8011D961C92872D9A2D0E94041201
:104420003A834B835C836D838A819B81AC81BD81A0
:104430002230A9F0233059F0213009F0B4CE2EE01B
:10444000F701248380839183A283B3834CCE2AE037
:10445000F701248380839183A283B38344CE2CE02D
:10446000F7CF4F925F926F927F928F929F92AF920F
:10447000BF92CF92DF92EF92FF920F931F93CF9351
:10448000DF93CDB7DEB7CF5FD1090FB6F894DEBFAB
:104490000FBECDBF6E012EECC20ED11C86E092E0A5
:1044A000F60191838083128214821382C6010596DD
:1044B000968B858B178A84E0808F8FEF818F168E85
:1044C000878F9E012F5F3F4F790110E000E00E942F
:1044D0003F0960938F0370939003809391039093AF
:1044E000920387E893E00E943F0D97FD02C00C9471
:1044F00038300E943F0980908F0390909003A090E5
:104500009103B0909203681979098A099B098090F8
:104510008B0390908C03A0908D03B0908E03681550
:1045200079058A059B05E8F20F37110561F487E8E4
:1045300093E00E94610D892B31F087E893E00E949F
:104540003F0D0A97A1F7E1E0F0E0EC0FFD1FE00F4F
:10455000F11F10820530110578F045E050E06AED5A
:1045600072E0CE0101960E94AB40892B29F483EEC4
:1045700098E00E9466167BC5F60160817181C601D4
:1045800005960E941311F601128200811181F60135
:1045900083819481009751F0FC0120813181F601E3
:1045A00034832383B8010E944B15F1CF168ECF5769
:1045B000DF4FD982C882C158D040CD57DF4F198212
:1045C0001882C358D040CB57DF4F19821882C55884
:1045D000D040C957DF4F1882C758D04021E030E0A3
:1045E0002C0F3D1FC857DF4F39832883C858D04050
:1045F000C557DF4F1882CB58D040C457DF4FD98200
:10460000C882CC58D0404AE0B601665E7F4FCE01EA
:104610008F579F4F0E940D208C01892B69F4C6573C
:10462000DF4F8881CA58D040882331F0F601868D4B
:1046300083FF02C003E010E0CD57DF4F88819981EE
:10464000C358D040009751F0CF57DF4FE881F98130
:10465000C158D040608171810E944B150115110530
:10466000F1F08CE696E00E94E60DF801EE0FFF1FD8
:10467000E05CFA4F859194910E94E60D89E696E000
:104680000E94661687E893E00E94610D18161906CD
:104690000CF0EDC487E893E00E943F0DF3CFCF57B5
:1046A000DF4FD982C882C158D04080EE92E0CD570A
:1046B000DF4F99838883C358D04083E0CB57DF4FC7
:1046C0008883C558D040CA57DF4F1881C658D0409C
:1046D00010781068CA57DF4F1883C658D040CE01F3
:1046E0008F579F4F0E947B1C009709F4C0C4FC01A8
:1046F0008481882309F4BBC41068CA57DF4F18832C
:10470000C658D040CE018F579F4F0E94891D8C0103
:10471000893DF1E09F0709F482C00CF02FC1883772
:1047200031E0930709F452C60CF07EC08733914004
:1047300009F42BC5083381E01807DCF50D3291E050
:10474000190709F441C434F560E00C32F1E01F07A9
:1047500009F43BC4073EF1E01F0709F4BBC30CF0AA
:10476000A1C30B3C110509F4B8C70CF0DCC2063636
:10477000110511F40C94ED2D0CF04CC2043611050A
:1047800011F40C94542D0536110509F4DEC78CE4A0
:1047900095E0EFCE0F3221E0120709F4D2C460E0B9
:1047A000063331E01307B1F680911602909117029B
:1047B00010C4033741E0140709F40EC434F509337B
:1047C00081E0180739F600911602109117020E9435
:1047D0003F09F801618B728B838B948B858496845F
:1047E000A784B088DC01CB01880D991DAA1DBB1DD3
:1047F000858B968BA78BB08F81E080A349EE54E028
:104800006FEE74E084EF94E0BDC4043791E01907C3
:1048100009F448C40537E1E01E0709F09BCF083DC5
:10482000114009F47DC023C48139F1E09F0709F4E8
:10483000CCC4CCF58E3731E0930709F4A8C41CF53D
:104840008D37914009F086CFEE24EA94FE2C00E0EB
:1048500010E021E030E040E050E064EE72E0C6019C
:104860000E942D1D9B01AC01E0911602F0911702F0
:10487000218732874387548767E075E081E195E0BF
:104880000E945F1AF4C3023881E0180709F4B3C527
:1048900060E0003991E0190709F05CCF80911802BF
:1048A0009091190296C38B39E1E09E0709F4B1C4D7
:1048B0007CF4833921E0920709F489C460E08A39E5
:1048C000914009F047CF80911A0290911B0281C359
:1048D0008D3941E0940709F4BEC4883D914009F048
:1048E00039CF10ECE12E17E2F12E09E010E021E0C3
:1048F00030E040E050E06EEE72E0C6010E942D1DF7
:104900009B01AC01E0911802F091190221873287D6
:10491000438754876BED74E084EE94E00E945F1A45
:10492000CF57DF4FD982C882C158D0408EEE92E077
:10493000CD57DF4F99838883C358D04088E0CB5749
:10494000DF4F8883C558D040CA57DF4F8881C6588B
:10495000D04080788068CA57DF4F8883C658D040DF
:10496000CE018F579F4F0E94A51C60933902709310
:104970003A0280933B0290933C02E0C30F3982E0FD
:10498000180709F49EC40CF088C0053FE1E01E073B
:1049900009F483C474F5023E21E0120709F43BC414
:1049A000C4F40C3D41E0140709F0D4CE15E3E12E28
:1049B000F12C00E010E022E030E040E050E067EF52
:1049C00072E0C6010E942D1D80911802909119027B
:1049D0000FC5063E51E0150709F420C560E0043F0D
:1049E00081E0180709F0B6CE80911C0290911D025B
:1049F000F0C2083592E0190709F45AC4C4F400342F
:104A0000F2E01F0709F0A6CE15E3E12EF12C00E03D
:104A100010E022E030E040E050E067EF72E0C601D5
:104A20000E942D1D80911C0290911D02E1C4093548
:104A300022E0120709F433C40B3532E0130709F002
:104A400089CE00911E0210911F020115110509F473
:104A50000EC30E943F09AB01BC01F801458B568B88
:104A6000678B708F85859685A785B089840F951F84
:104A7000A61FB71F818F928FA38FB48FFF24F3944B
:104A8000F6A2C8010E94100FF801F0A64AE954E00E
:104A900060EA74E085EA94E075C3043843E01407E3
:104AA00009F492C40CF075C0043A82E0180709F4C6
:104AB000C8C40CF054C0003AE2E01E0709F04ACE28
:104AC00010ECE12E17E2F12E09E010E021E030E0D9
:104AD00040E050E06EEE72E0C6010E942D1D9B0189
:104AE000AC01E0911E02F0911F02309751F0258732
:104AF00036874787508B6BE774E084E894E00E9428
:104B00005F1ACF57DF4FD982C882C158D0408EEE8E
:104B100092E0CD57DF4F99838883C358D04088E017
:104B2000CB57DF4F8883C558D040CA57DF4F8881A5
:104B3000C658D04080788068CA57DF4F8883C658EF
:104B4000D040CE018F579F4F0E94A51C6093350225
:104B5000709336028093370290933802EFC2093A7D
:104B6000F2E01F0709F416C40A3A22E0120709F01E
:104B7000F1CDE0911E02F0911F02309709F477C247
:104B800081E085A34EE454E06AE574E08FE594E0AB
:104B9000F9C2003D33E0130709F46DC4BCF40538D5
:104BA00053E0150709F408C4073883E0180709F033
:104BB000D1CD80912002909121020E94FE0E48E307
:104BC00054E06EE374E083E494E0DCC2043394E0E8
:104BD000190709F486C40036E5E01E0709F0BACDCE
:104BE0008091120290911302892B09F440C215E3BF
:104BF000E12EF12C00E010E022E030E040E050E057
:104C000067EF72E0C6010E942D1D80911202909103
:104C1000130280C40836110511F40C94172E14F4F5
:104C20000C94F92D0936110509F0B1CDC251DF4FB1
:104C30001882CE5ED040CF57DF4FD982C882C1588C
:104C4000D04087E193E0CD57DF4F99838883C358E5
:104C5000D04086E0CB57DF4F8883C558D040CA5735
:104C6000DF4F8881C658D04080788068CA57DF4FB0
:104C70008883C658D040BE0162517F4FCE018F5706
:104C80009F4F0E94941C182F0E943F094B015C010A
:104C900080910406882311F40C94372F1093060694
:104CA000112311F40C94B42E8092070690920806FA
:104CB000A0920906B0920A060E94E207E0912E0433
:104CC000F0912F04309719F084810E947409E091CB
:104CD0003004F0913104309719F084810E947409F6
:104CE00080911E068823C9F080912C06811115C081
:104CF0008AE196E00E94FE0E80922D0690922E068A
:104D0000A0922F06B092300681E080932C06F89492
:104D100010921C0610921D067894412F6FE875E0E2
:104D20008EE995E0B6C4033831E0130709F4D2C028
:104D30000CF058C0093751E0150709F4CBC00A3709
:104D400081E0180709F45CC00D3D110509F01FCD85
:104D5000C251DF4F1882CE5ED040CF57DF4FD9828D
:104D6000C882C158D04081E093E0CD57DF4F99838E
:104D70008883C358D04085E0CB57DF4F8883C55820
:104D8000D040CA57DF4F8881C658D04080788068AD
:104D9000CA57DF4F8883C658D040BE0162517F4F4B
:104DA000CE018F579F4F0E94941C182F8CE896E0DD
:104DB000112311F086E796E090930A02809309028E
:104DC00085E0111186E080930F020E94581147EF91
:104DD00055E0112311F04CEF55E062E076E08EE0F3
:104DE00096E0D0C10D3D91E0190709F473C00E3D66
:104DF000E1E01E0729F00438F1E01F0709F0C7CCF5
:104E0000C251DF4F19821882CE5ED040CF57DF4F9C
:104E1000D982C882C158D0408EE193E0CD57DF4F90
:104E200099838883C358D04086E0CB57DF4F88836F
:104E3000C558D040CA57DF4F8881C658D0408078C7
:104E40008068CA57DF4F8883C658D040BE01625180
:104E50007F4FCE018F579F4F0E942E1E4C01B12CC9
:104E60008130910531F0BB24B394029711F029E011
:104E7000B22E0A3751E0150711F00C943C2FB09276
:104E800003020E945811F1E0BF120C94552FB0920A
:104E9000F4069401990C440B550B67E775E084E820
:104EA00095E0EECC093324E0120709F4E4C30CF0DA
:104EB00063C00C3A42E0140709F4D5C30CF04CC0AF
:104EC000083E81E0180709F49BCF013A92E01907E8
:104ED00009F05DCCCF57DF4FD982C882C158D0408E
:104EE0008BEF92E0CD57DF4F99838883C358D04032
:104EF00085E0CB57DF4F8883C558D040CA57DF4F76
:104F00008881C658D04080788068CA57DF4F888330
:104F1000C658D040CE018F579F4F0E94A51C6136C6
:104F2000EAEE7E078105910520F060E67AEE80E0EA
:104F300090E0013AF2E01F0709F06EC36093420669
:104F400070934306809344069093450680915803DE
:104F5000882309F48CC0F2C0093EE3E01E0709F47F
:104F600086C30833F4E01F0709F496C3083E1340D4
:104F700009F00DCC60E07CC3043135E0130709F47F
:104F800093C384F40D3454E0150709F496C7083927
:104F900084E0180709F495C70C34144009F0F7CBE6
:104FA00080E08CC70436E5E01E0709F48EC30536A1
:104FB000F5E01F0709F47AC30531154009F0E7CB86
:104FC00061E084EE96E005C061E08091140290916A
:104FD00015020E94311B4BC0EE24EA94FE2C00E027
:104FE00010E021E030E040E050E064EE72E0C60105
:104FF0000E942D1D9B01AC01E0911402F09115025D
:10500000218732874387548762E375E08CE395E01C
:105010000E945F1ACF57DF4FD982C882C158D04053
:1050200084EE92E0CD57DF4F99838883C358D040F8
:1050300089E0CB57DF4F8883C558D040CA57DF4F30
:105040008881C658D04080788068CA57DF4F8883EF
:10505000C658D040CE018F579F4F0E94A51C609329
:105060003D0270933E0280933F0290934002C6013E
:105070000E94BD15C150DF4F0FB6F894DEBF0FBEC2
:10508000CDBFDF91CF911F910F91FF90EF90DF90F7
:10509000CF90BF90AF909F908F907F906F905F90D8
:1050A0004F90089510ECE12E17E2F12E09E010E088
:1050B00021E030E040E050E06EEE72E0C6010E9478
:1050C0002D1D9B01AC01E0911402F0911502258782
:1050D00036874787508B65E275E08EE295E00E9447
:1050E0005F1ACF57DF4FD982C882C158D0408EEEA9
:1050F00092E0CD57DF4F99838883C358D04088E032
:10510000CB57DF4F8883C558D040CA57DF4F8881BF
:10511000C658D04080788068CA57DF4F8883C65809
:10512000D040CE018F579F4F0E94A51C6093410233
:105130007093420280934302909344020E9458115C
:1051400096CF00911402109115020E943F09F801B8
:10515000618B728B838B948B85849684A784B088B3
:10516000DC01CB01880D991DAA1DBB1D858B968B7B
:10517000A78BB08F81E080A346E155E06CE175E03C
:1051800081E295E00E94B91672CF61E00DCB10EC80
:10519000E12E17E2F12E09E010E021E030E040E0DE
:1051A00050E06EEE72E0C6010E942D1D9B01AC0125
:1051B000E0911602F0911702258736874787508BBA
:1051C00069EF74E082E095E05BCB61E067CB009132
:1051D0001802109119020E943F09F801658776872D
:1051E0008787908B81849284A384B484DC01CB0173
:1051F000880D991DAA1DBB1D818B928BA38BB48B2F
:1052000081E0858B4BEC54E061ED74E086ED94E039
:10521000B9CF61E058CB10ECE12E17E2F12E09E096
:1052200010E021E030E040E050E06EEE72E0C601B8
:105230000E942D1D9B01AC01E0911A02F0911B020E
:1052400021873287438754876CEB74E085EC94E0C8
:105250000E945F1A73CF00911A0210911B020E94E4
:105260003F09F801658776878787908B81849284D0
:10527000A384B484DC01CB01880D991DAA1DBB1D3C
:10528000818B928BA38BB48B81E0858B4BEA54E0AE
:1052900061EB74E086EB94E075CF61E0A5CB809183
:1052A0001E0290911F0261E0009709F092CEDFCEBE
:1052B00080911E0290911F0260E0009709F089CE54
:1052C000D6CEEE24EA94FE2C00E010E021E030E09F
:1052D00040E050E064EE72E0C6010E942D1D9B018B
:1052E000AC01E0911E02F0911F02309779F0211578
:1052F00031054105510521F02187328743875487C5
:105300006AE874E084E994E00E945F1ACF57DF4FA7
:10531000D982C882C158D04084EE92E0CD57DF4F89
:1053200099838883C358D04089E0CB57DF4F888367
:10533000C558D040CA57DF4F8881C658D0408078C2
:105340008068CA57DF4F8883C658D040CE018F5738
:105350009F4F0E947B1CDC01892B09F4EDC0149641
:10536000EC911497E250ED3008F0E6C0F0E08827A9
:10537000E354F64D8F4F0C949D3EAA2A9C2AD52AC1
:10538000D82A8D2A9C2A9C2A9C2A912A9C2A9E2AC9
:105390009C2ADC2AE0911E02F0911F02309749F00E
:1053A00015A245E654E060E774E085E794E00E94CA
:1053B000B91610925803C2CE61E0809120029091FC
:1053C00021020E94941653CE60E0F7CF15E3E12E40
:1053D000F12C00E010E022E030E040E050E067EF28
:1053E00072E0C6010E942D1D809114029091150259
:1053F0000E949C1B3CCE15E3E12EF12C00E010E056
:1054000022E030E040E050E067EF72E0C6010E9429
:105410002D1D8091160290911702EACF15E3E12E1F
:10542000F12C00E010E022E030E040E050E067EFD7
:1054300072E0C6010E942D1D80911A0290911B02FC
:10544000D7CF80911E0290911F02892B09F40FCEB5
:1054500015E3E12EF12C00E010E022E030E040E026
:1054600050E067EF72E0C6010E942D1D80911E0280
:1054700090911F02BDCF15E3E12EF12C00E010E06A
:1054800022E030E040E050E067EF72E0C6010E94A9
:105490002D1DF62E0091200210912102F801858524
:1054A000882331F060E080810E947B08F801158636
:1054B000F801F08261E08F2D0E94A90860E0F801F8
:1054C00080810E947B0884EF93E00E94E60DF80142
:1054D0008081082E000C990B0E9436160E94E1165E
:1054E000C6CD8091100290911102892B09F4BFCD95
:1054F00015E3E12EF12C00E010E022E030E040E086
:1055000050E067EF72E0C6010E942D1D80911002ED
:10551000909111020E94D21BAACD8C9080923402ED
:10552000A6CD8D909D90AD90BC902FEF82169104EA
:10553000A104B10499F390F3812CF0CF8D909D904C
:10554000AD90BC903FEF83169104A104B10431F3F8
:1055500028F3F2CFCD010E940412C251DF4F2883FD
:10556000CE5ED040C151DF4F3883CF5ED040C051B6
:10557000DF4F4883C05FD040CF50DF4F5883C15FBB
:10558000D040CE50DF4F6883C25FD040C151DF4F63
:1055900088809980AA80BB80CF5ED040223051F1B4
:1055A000233089F1213041F60BC08D919C91D3CFEE
:1055B0008D919C910496CFCF8D909D90AD90BC9095
:1055C00020E030E0A901C501B4010E94983E87FDAA
:1055D000B3CF20E030E04FE753E4C501B4010E94AF
:1055E000FC3B18160CF4A8CFC501B4010E94693E1B
:1055F000862E94CF4FEF84169104A104B10409F0D4
:1056000008F48CCF99CF5FEF85169104A104B10403
:1056100009F008F483CF90CF093721E0120749F44D
:1056200060935403709355038093560390935703EC
:1056300085CD033831E0130709F419CD0D3D114034
:1056400049F46093500370935103809352039093F5
:10565000530374CD60934C0370934D0380934E03BA
:1056600090934F036BCD81E08093580367CD61E049
:105670008AE097E0AECC81E080931A078AE097E059
:10568000909305028093040241E065E576E080E6B0
:1056900096E00E94361AEBCC10921A0740E061E4C3
:1056A00076E08CE496E0F5CF60E08BCC81E08093EF
:1056B000F40684EE96E0909305028093040241E0A4
:1056C0006DE276E088E396E0E4CF1092F40640E0E5
:1056D00069E176E084E296E0DCCFCF57DF4FD982F4
:1056E000C882C158D04087E093E0CD57DF4F9983FF
:1056F0008883C358D04088E0CB57DF4F8883C55894
:10570000D040CA57DF4F8881C658D0408078806823
:10571000CA57DF4F8883C658D040CE018F579F4F5E
:105720000E94A51C4B015C0180920B0290920C021E
:10573000A0920D02B0920E020E945811A501940190
:105740006AED75E08CEE95E09BC889E080930302DA
:105750008093020280930102809300020E943F091D
:105760004B015C018092480390924903A0924A0346
:10577000B0924B038AE196E00E94FE0E109205065D
:10578000109206068092FC059092FD05A092FE05FF
:10579000B092FF0581E0809304068AE394E00E94C2
:1057A000A40E88E594E00E94A40E34E6E32E34E0D3
:1057B000F32E08E214E0F8018489882341F08289FD
:1057C000813009F042C1858E968EA78EB0A2025E0E
:1057D0001F4FE016F10679F7EBE0F5E010827096C6
:1057E00026E0EB30F207D1F7E0912804F09129048C
:1057F000309721F0118A128A138A148AE0912A04C0
:10580000F0912B04309721F0118A128A138A148A9E
:10581000E0913604F09137043097A9F0158A168A82
:10582000178A108E118E128E138E148E158E168E70
:10583000178E10A211A212A213A214A216A217A2CE
:1058400010A681E081A70E94581180EB93E00E948E
:10585000661684E693E00E94E60D80910402909122
:1058600005028A50974009F41CC187EF92E00E941C
:10587000E60D81E693E00E946616E0904102F0900A
:105880004202009143021091440220913D02309166
:105890003E0240913F02509140026091C9068DE561
:1058A00093E00E94F119E090AF06F090B0060091ED
:1058B000B1061091B2062091AB063091AC06409132
:1058C000AD065091AE066091A80688E593E00E946F
:1058D000F1192091390230913A0240913B025091E6
:1058E0003C026091920683E593E00E94C2192091E8
:1058F0007F0630918006409181065091820660912A
:105900007C068DE493E00E94C219E0903502F0908D
:10591000360200913702109138022091340230E0B3
:1059200050E040E06091370687E493E00E94F1196F
:105930006091610682E493E00E94A51960911E06C1
:1059400087E393E00E94A5196091100683E393E03A
:105950000E94A51940911A07609110078AE293E00E
:105960000E9479194091F4066091EA0681E293E081
:105970000E9479198DEF92E00E94E60D60910B0272
:1059800070910C0280910D0290910E020E942C16D3
:105990000E94E1168091480390914903A0914A0327
:1059A000B0914B03E0911002F0911102808391833A
:1059B000A283B383E0911202F0911302808391835A
:1059C000A283B383E0911402F09115028083918346
:1059D000A283B383E0911602F09117028083918332
:1059E000A283B383E0911802F0911902808391831E
:1059F000A283B383E0911A02F0911B02808391830A
:105A0000A283B383E0911C02F0911D0280839183F5
:105A1000A283B383E0911E02F0911F02309721F020
:105A200080839183A283B383E0912002F0912102CD
:105A300081879287A387B487809315069093160673
:105A4000A0931706B093180612CB823009F0BFCE90
:105A500041A452A463A474A460E070E0CB011414C8
:105A600015041604170434F40E94A43BA301920108
:105A70000E94203D680D791D8A1D9B1DF80161A3C0
:105A800072A383A394A381A592A5A3A5B4A5880D11
:105A9000991DAA1DBB1D85A396A3A7A3B0A715A6F4
:105AA00096CE8AEF92E0E3CE80917D038111DFCA2A
:105AB0000E943F094B015C018092790390927A0326
:105AC000A0927B03B0927C0380911E068823C9F0CC
:105AD00080912C06811115C08AE196E00E94FE0E8D
