:100000000C94B6080C94B1360C9486360C945B367E
:100010000C9430360C9405360C94DA350C94AF35CC
:100020000C9484350C949C370C94E7080C94E708E6
:100030000C94E7080C94DC360C94E7080C94E70861
:100040000C94E7080C94E7080C94E7080C94E70874
:100050000C94E7080C94E7080C94E7080C943A35E4
:100060000C94E7080C9466370C943C370C94E70822
:100070000C94E7080C94E7080C94E7080C94E70844
:100080000C94E7080C94E7080C94E7080C94E70834
:100090000C94E7080C94E7080C94E7080C94E70824
:1000A0000C94E7080C94E7080C94E7080C94E70814
:1000B0000C94E7080C94E7080C94E7080C94E70804
:1000C0000C94E7080C94E7080C94E7080C94E708F4
:1000D0000C94E7080C94E7080C94E7080C94E708E4
:1000E0000C94E7080C94C11E0C9450090C94CF1F7B
:1000F0000C946E090C9460090C947D0A0C94CB1F2F
:100100000C94A81D0C94D61E0C94951F0C944B1E99
:100110000C94861F0C94B31F0C9464090C94930EDA
:100120000C94DD1E0C94A21E0C9480090C94471EA6
:100130000C9468090C9445090C949A1D0C942F1E7C
:100140000C9441090C94C81B0C94B71E0C945A09CA
:100150000C944E380C94350E0C94620E0C9472096B
:100160000C94321E0C944D090C94710E0C94490998
:100170000C94441E0C94B61F0C9437350C94161E28
:100180000C9430350C94330F0C94CA1D0C94A50AB2
:100190000C94CB0E0C94CE1D0C94C51D0C94C81F52
:1001A0000C9434350C94D21E0C947C090C94760972
:1001B0000C947B090C94A21F0C9456090C94C71D37
:1001C0000C94251E0C94B21E0C943B090C94D91E61
:1001D0000C94C0130C94B41D0C94850E546F6F4492
:1001E000656570004E6F4D656D6F727900496E7672
:1001F000616C6964496E70757400496E636F6D70EF
:100200006C657465496E70757400456D70747949DC
:100210006E707574004F6B00CDCCCC3D0AD7233C7B
:1002200017B7D13877CC2B329595E6241FB14F0AFA
:10023000000020410000C84200401C4620BCBE4CCB
:10024000CA1B0E5AAEC59D747B226C6576656C2206
:100250003A22303037222C22646576696365223A6F
:1002600022434F4E54524F4C4C4552222C2265761D
:10027000656E74223A22454E44222C2274696D65C3
:100280007374616D70223A007B226C6576656C2216
:100290003A22303030222C22646576696365223A36
:1002A00022534C4D222C22706172616D223A2274CD
:1002B000696D657374616D705F70696E222C227652
:1002C000616C7565223A0066616C736500747275C5
:1002D00065004C455645525F4C48004C45564552CA
:1002E0005F524800534C4D004D4943524F53434FCA
:1002F0005045004C49434B004C415345520050552A
:100300004D50320050554D50004355453200435535
:1003100045002C226974695F6D6178223A002C22B5
:100320006974695F6D696E223A002C226974695F95
:100330006D65616E223A002C22636F6E73756D706D
:1003400074696F6E5F6D73223A002C227472616360
:10035000655F696E74657276616C223A002C226367
:1003600075655F6475726174696F6E223A002C2244
:1003700063735F6D696E75735F66726571223A00B3
:100380007B226C6576656C223A22303030222C223A
:1003900063735F706C75735F66726571223A002CCF
:1003A00022636F756E74657262616C616E63652243
:1003B0003A002C2263735F6D696E75735F70726FA4
:1003C00062223A002C2263735F706C75735F7072E7
:1003D0006F62223A002C2263735F6D696E75735FE2
:1003E000636F756E74223A007B226C6576656C22B1
:1003F0003A22303030222C22646576696365223AD5
:1004000022434F4E54524F4C4C4552222C22706185
:1004100072616469676D223A225041564C4F5649C9
:10042000414E222C2263735F706C75735F636F752E
:100430006E74223A007B226C6576656C223A22301B
:100440003037222C22646576696365223A22434F55
:100450004E54524F4C4C4552222C226576656E7498
:10046000223A225354415254222C2274696D6573EE
:1004700074616D70223A307D007B226C6576656C0C
:10048000223A22303030222C22646576696365225C
:100490003A224D4943524F53434F5045222C22702C
:1004A0006172616D223A22747269676765725F706A
:1004B000696E222C2276616C7565223A004649529B
:1004C00045440074657374004D4943524F53434F84
:1004D000504500494E444550454E44454E54006DEC
:1004E0006F6465004C4153455200434F4E54494E92
:1004F00047454E54006D6F6465004C4153455200B2
:100500006475726174696F6E004C415345520066A8
:1005100072657175656E6379004C415345520046B2
:10052000495245440074657374004C415345520070
:10053000464952454400746573740050554D50321D
:10054000006475726174696F6E0050554D503200D1
:10055000464952454400746573740050554D50002F
:100560006475726174696F6E0050554D5000464954
:1005700052454400746573740043554532006475F8
:10058000726174696F6E0043554532006672657121
:1005900075656E63790043554532004649524544BE
:1005A0000074657374004355450064757261746925
:1005B0006F6E00435545006672657175656E6379AF
:1005C000004355450015020A02FA01ED01E401DC81
:1005D000017B226C6576656C223A22303036222C03
:1005E0002264657363223A22436F6D6D616E6420ED
:1005F0006E6F7420666F756E64227D006475726123
:1006000074696F6E00534C4D006672657175656E4E
:10061000637900534C4D0073657373696F6E5F703F
:10062000617573656400434F4E54524F4C4C4552B4
:10063000006F6E7365745F64656C6179004C415343
:10064000455200435545006C617365725F70686187
:100650007365004C41534552005245574152440086
:100660006C617365725F7068617365004C415345DE
:10067000520043535F424F544800747269616C5F8B
:1006800066696C746572004C415345520043535F78
:100690004D494E555300747269616C5F66696C74A4
:1006A0006572004C415345520043535F504C5553C3
:1006B00000747269616C5F66696C746572004C41AC
:1006C0005345520070756C73655F6F6666004355E5
:1006D00045320070756C73655F6F6E00435545322F
:1006E0000070756C73655F6F6666004355450070FA
:1006F000756C73655F6F6E004355450070756C7364
:10070000655F6F666600435545320070756C7365B2
:100710005F6F6E0043554532006974695F6D6178A3
:1007200000434F4E54524F4C4C4552006974695F20
:100730006D696E00434F4E54524F4C4C4552006908
:1007400074695F6D65616E00434F4E54524F4C4C5F
:10075000455200636F6E73756D7074696F6E004300
:100760004F4E54524F4C4C45520074726163655F5A
:10077000696E74657276616C00434F4E54524F4CF3
:100780004C4552006375655F6475726174696F6E84
:1007900000434F4E54524F4C4C455200636F756EA0
:1007A00074657262616C616E636500434F4E5452B2
:1007B0004F4C4C4552007B226C6576656C223A2288
:1007C000303036222C22646576696365223A2243F2
:1007D0004F4E54524F4C4C4552222C226465736349
:1007E000223A2243616E6E6F74206368616E6765A2
:1007F00020636F756E74657262616C616E636520F3
:10080000647572696E6720616374697665207365CB
:100810007373696F6E227D0063735F6D696E7573AC
:100820005F6672657100434F4E54524F4C4C4552B7
:100830000063735F706C75735F6672657100434F20
:100840004E54524F4C4C45520063735F6D696E7548
:10085000735F636F756E7400434F4E54524F4C4C30
:100860004552007B226C6576656C223A2230303628
:10087000222C22646576696365223A22434F4E54E6
:10088000524F4C4C4552222C2264657363223A220B
:1008900043616E6E6F74206368616E6765204353B9
:1008A0002D20636F756E7420647572696E672061A8
:1008B00063746976652073657373696F6E227D005A
:1008C00063735F706C75735F636F756E7400434F15
:1008D0004E54524F4C4C4552007B226C6576656CF1
:1008E000223A22303036222C2264657669636522F2
:1008F0003A22434F4E54524F4C4C4552222C2264C4
:10090000657363223A2243616E6E6F74206368617F
:100910006E67652043532B20636F756E742064757A
:1009200072696E672061637469766520736573739D
:10093000696F6E227D0063735F6D696E75735F70A2
:10094000726F6200434F4E54524F4C4C45520063FD
:10095000735F706C75735F70726F6200434F4E54BB
:10096000524F4C4C455200227D007B226C657665CF
:100970006C223A22303036222C2264657363223A8C
:10098000220044495341524D45440041524D454493
:1009900000227D002C2264657363223A2200222CFF
:1009A0002270696E223A007B226C6576656C223A71
:1009B00022303031222C22646576696365223A2226
:1009C00000222C22706172616D223A2270696E22BF
:1009D0002C2276616C7565223A007B226C65766507
:1009E0006C223A22303030222C22646576696365AD
:1009F000223A2200222C2276616C7565223A00226E
:100A00002C22706172616D223A22007B226C657625
:100A1000656C223A22303030222C2264657669637C
:100A200065223A220066616C736500747275650018
:100A3000222C2276616C7565223A00222C2270618C
:100A400072616D223A22007B226C6576656C223AD7
:100A500022303030222C22646576696365223A2286
:100A600000227D00222C2276616C7565223A2200DC
:100A7000222C22706172616D223A22007B226C6509
:100A800076656C223A22303030222C2264657669F9
:100A90006365223A220044495341524D4544004186
:100AA000524D454400227D002C2264657363223A36
:100AB00022007B226C6576656C223A22303031222E
:100AC0002C22646576696365223A224D4943524F70
:100AD00053434F5045222C2270696E223A006661C2
:100AE0006C73650074727565002C22647572617494
:100AF000696F6E223A002C226672657175656E63AD
:100B000079223A00222C2261726D6564223A007BC0
:100B1000226C6576656C223A22303030222C2264B9
:100B20006576696365223A220066616C73650074BC
:100B3000727565002C226475726174696F6E223A59
:100B400000222C2261726D6564223A007B226C6562
:100B500076656C223A22303030222C226465766928
:100B60006365223A220066616C7365007472756574
:100B700000222C2261726D6564223A007B226C6532
:100B800076656C223A22303030222C2264657669F8
:100B90006365223A220066616C7365007472756544
:100BA0000066616C73650074727565002C22726555
:100BB000696E666F72636564223A00222C2261724C
:100BC0006D6564223A007B226C6576656C223A2260
:100BD000303030222C22646576696365223A220027
:100BE000027B226C6576656C223A22303030222CF2
:100BF00022646576696365223A22434F4E54524F10
:100C00004C4C4552222C22736B65746368223A2245
:100C10007061766C6F7669616E2E696E6F222C2220
:100C200076657273696F6E223A2276332E302E32D9
:100C3000222C22626175645F72617465223A3131DF
:100C4000353230302C227363686564756C65223AE6
:100C5000225041564C4F5649414E227D002C226570
:100C60006E645F74696D657374616D70223A002CF7
:100C7000226576656E74223A224C49434B222C221F
:100C800073746172745F74696D657374616D7022E1
:100C90003A00222C2270696E223A007B226C657623
:100CA000656C223A22303037222C226465766963E3
:100CB00065223A22002C22656E645F74696D65734B
:100CC00074616D70223A002C226576656E74223A4A
:100CD000225354494D222C2273746172745F7469DB
:100CE0006D657374616D70223A007B226C65766568
:100CF0006C223A22303037222C2264657669636593
:100D0000223A224C41534552222C2270696E223ADB
:100D10000066616C73650074727565002C227469DD
:100D20006D657374616D70223A002C226974695F7D
:100D30006D73223A0043535F504C55530043535F49
:100D40004D494E555300222C227265776172645FC3
:100D50007363686564756C6564223A002C22747252
:100D600069616C5F74797065223A22007B226C6540
:100D700076656C223A22303037222C2264657669FF
:100D80006365223A225041564C4F56222C226576FA
:100D9000656E74223A22545249414C5F5354415279
:100DA00054222C22747269616C223A00414C4C5FCF
:100DB000545249414C535F434F4D504C45544500AC
:100DC0005245574152445F4F4D4954544544005297
:100DD00045574152445F44454C49564552454400AD
:100DE00054524143455F5354415254002C226D6983
:100DF00073736564223A002C226576656E74223A1C
:100E00002254494D455354414D50222C2274696D52
:100E1000657374616D70223A007B226C6576656C37
:100E2000223A22303038222C2264657669636522AA
:100E30003A224D4943524F53434F5045222C227082
:100E4000696E223A002C226576656E74223A22542D
:100E5000494D455354414D50222C2274696D6573A0
:100E600074616D70223A007B226C6576656C223A63
:100E700022303039222C22646576696365223A2259
:100E8000534C4D222C2270696E223A000000210042
:100E9000240027002A002D0030003300010100004B
:100EA000040107010A0100002200250028002B0090
:100EB0002E003100340002010000050108010B0181
:100EC000000020002300260029002C002F00320003
:100ED00000010000030106010901050505050705DC
:100EE00008080808020202020A0A080804040404A6
:100EF00001010101010101010303030303030303D2
:100F0000040707070C0C0C0C0C0C0C0C0202020260
:100F100006060606060606060B0B0B0B0B0B0B0B49
:100F200001021020200808102040102040800201FB
:100F300002010804020101020408102040808040E0
:100F400020100804020180040201804020100804DF
:100F5000020108040201010204081020408001027D
:100F600004081020408000000A0B02090C0D0E0836
:100F70000703040100000000000000000000000062
:100F80000000000000000000000000000000000061
:100F9000000012111000000000000000000000001E
:100FA0000000000000000000000000004449534120
:100FB000524D45440041524D454400227D002C22B3
:100FC00064657363223A22007B226C6576656C222D
:100FD0003A22303031222C22646576696365223AE8
:100FE00022534C4D222C2270696E223A00227D0041
:100FF0002C2274696D657374616D70223A00222C25
:1010000022747269616C223A007B226C6576656C91
:10101000223A22303037222C2264657669636522B9
:101020003A225041564C4F56222C226576656E74FA
:10103000223A22005354494D554C4154494F4E00D9
:10104000494E465553494F4E00494E465553494F18
:101050004E00544F4E4500544F4E45004C415345B1
:10106000520050554D505F320050554D5000435581
:10107000455F3200435545002C22656E645F7469FC
:101080006D657374616D70223A00222C2273746155
:1010900072745F74696D657374616D70223A002CAF
:1010A000226576656E74223A2200222C2270696EC7
:1010B000223A007B226C6576656C223A223030370A
:1010C000222C22646576696365223A220054494DD8
:1010D000454F555400494E414354495645004143FC
:1010E0005449564500227D002C226F7269656E744A
:1010F0006174696F6E223A22002C22656E645F74FF
:10110000696D657374616D70223A00222C227374CC
:101110006172745F74696D657374616D70223A00F9
:101120002C226576656E74223A2250524553532222
:101130002C22636C617373223A22007B226C6576E9
:10114000656C223A22303037222C2264657669633E
:1011500065223A225357495443485F4C45564552FD
:10116000222C2270696E223A00004E3811241FBED4
:10117000CFEFD1E2DEBFCDBF00E00CBF13E0A0E0B7
:10118000B2E0E0ECFEE800E00BBF02C007900D9279
:10119000AC34B107D9F725E0ACE4B3E001C01D924F
:1011A000A53AB207E1F718E0C6EBD8E000E006C0C8
:1011B00021970109802FFE010E942B45C53BD107D5
:1011C00080E00807A9F70E94153C0C945E470C9438
:1011D000000090915D04891798F4E82FE695E69554
:1011E000E695F0E0E959FB4F208130E08770A901D6
:1011F00002C0559547958A95E2F7CA018170089516
:1012000080E00895CF93DF93EC0188819981DC0120
:10121000ED91FC910190F081E02D64E270E0199570
:10122000009741F02FE1FC01238321E02283DF912D
:10123000CF91089521E02A83FACF8150823108F0BE
:101240005AC0E82FF0E08827E75DF64F8F4F0C94E7
:101250002B4549094D093B09410945097B095009BD
:1012600056095A096009640968096E0972097B09FF
:1012700076097C098009809180008F7780938000B7
:101280000895809180008F7DF9CF80918000877FC5
:10129000F5CF84B58F7784BD089584B58F7DFBCF5E
:1012A0008091B0008F778093B00008958091B00056
:1012B0008F7DF9CF809190008F7780939000089573
:1012C000809190008F7DF9CF80919000877FF5CF3E
:1012D0008091A0008F778093A00008958091A00056
:1012E0008F7DF9CF8091A000877FF5CF809120017D
:1012F0008F77809320010895809120018F7DF9CF11
:1013000080912001877FF5CFCF93DF93282F30E0A6
:10131000F901EA59F04F8491F901E05EF04FD49160
:10132000F901E652F14FC491CC23A1F081110E9442
:101330001D09EC2FF0E0EE0FFF1FE054F14FA591D7
:10134000B491EC91ED2381E090E009F480E0DF912D
:10135000CF91089580E090E0FACF1F93CF93DF9371
:10136000282F30E0F901EA59F04F8491F901E05E4D
:10137000F04FD491F901E652F14FC491CC23A9F07A
:10138000162F81110E941D09EC2FF0E0EE0FFF1FB8
:10139000EA55F14FA591B4918FB7F894EC911111E2
:1013A00008C0D095DE23DC938FBFDF91CF911F91D2
:1013B0000895DE2BF8CFCF93DF9390E0FC01E05E41
:1013C000F04F24918652914FFC0184918823C9F0FB
:1013D00090E0880F991FFC01E457F14FA591B4915B
:1013E000FC01EA55F14FC591D49161110DC09FB731
:1013F000F8948C91209582238C93888128232883CC
:101400009FBFDF91CF910895623051F49FB7F89458
:101410003C91822F809583238C93E8812E2BEFCFF4
:101420008FB7F894EC912E2B2C938FBFEACF3FB758
:10143000F89480917F0390918003A0918103B091F3
:10144000820326B5A89B05C02F3F19F00196A11D68
:10145000B11D3FBFBA2FA92F982F8827BC01CD01FE
:10146000620F711D811D911D42E0660F771F881F5D
:10147000991F4A95D1F708958F929F92AF92BF928C
:10148000CF92DF92EF92FF920E94170A4B015C010C
:1014900084E6C82ED12CE12CF12C0E94170A681981
:1014A00079098A099B09683E734081059105A8F373
:1014B00021E0C21AD108E108F10888EE880E83E025
:1014C000981EA11CB11CC114D104E104F10429F738
:1014D000FF90EF90DF90CF90BF90AF909F908F9054
:1014E00008952FB7F89460917B0370917C038091ED
:1014F0007D0390917E032FBF08950F931F93CF9389
:10150000DF93C0912204D09123042097C9F08A81EF
:10151000882331F08B818F3F19F08B818F5F8B8314
:1015200081E08A830E94710A09851A852B853C8592
:10153000601B710B820B930B6D837E838F83988767
:10154000DF91CF911F910F910895089590912802F6
:1015500089130DC0E0EEFBE0E4919FEF9093280229
:10156000E230E1F038F4EE2381F0E13089F060E020
:101570000C94AD09E43049F110F1E530C1F79091D8
:1015800073009D7F90937300F2CF10926E00EFCFA7
:1015900090916F009D7F90936F00E9CF90917000C4
:1015A0009D7F9093700091E09093B0009091B10076
:1015B000987F94609093B1001092B300D8CF90912F
:1015C00071009D7F90937100D2CF909172009D7FAA
:1015D00090937200CCCF4F925F926F927F928F92D6
:1015E0009F92AF92BF92CF92DF92EF92FF920F93B2
:1015F0001F93CF93DF9300D01F921F92CDB7DEB71A
:101600008B0129013A01909128028917C9F09F3F67
:1016100009F491C00F900F900F900F900F90DF91F1
:10162000CF911F910F91FF90EF90DF90CF90BF90DF
:10163000AF909F908F907F906F905F904F900895A4
:10164000E0EEFBE024912D8327FDE4CF61E00E94D2
:10165000DB092D81222321F08D81823009F005C222
:101660004801B12CA12C60E072E18AE790E0A5016D
:1016700098010E949A4329833A834B835C836901D2
:101680007A0191E0C91AD108E108F1082FEFC216DA
:10169000D104E104F10409F00CF4B6C160E472E491
:1016A0008FE090E0A50198010E949A4369017A01B8
:1016B00081E0C81AD108E108F1089D81923009F053
:1016C00026C182E02FEFC216D104E104F10409F033
:1016D0000CF46CC160E970ED83E090E0A501980125
:1016E0000E949A4369017A0181E0C81AD108E10891
:1016F000F10883E09FEFC916D104E104F10409F079
:101700000CF454C168E478EE81E090E0A501980102
:101710000E949A4369017A0181E0C81AD108E10860
:10172000F1089FEFC916D104E104F10411F00CF0A7
:1017300044C184E03BC180932802E0EEFBE0949139
:101740009D839F3F09F466CF923009F474C058F42A
:10175000992399F1913009F44CC097FD5BCF61E07A
:101760000E94DB0979CF2D81243009F4AEC008F442
:1017700088C0253091F7109220011092210190919C
:1017800021019860909321019091210191609093A3
:101790002101282F30E0F901E652F14FE491F0E009
:1017A000EE0FFF1FEA55F14F45915491F901E05EAC
:1017B000F04FE491E0935A0349CF14BC15BC94B5A3
:1017C000926094BD95B5916095BD282F30E0F901E8
:1017D000E652F14FE491F0E0EE0FFF1FEA55F14FB2
:1017E00045915491F901E05EF04FE491E0935E037E
:1017F0002DCF10928000109281009091810098600E
:101800009093810090918100916090938100282FA6
:1018100030E0F901E652F14FE491F0E0EE0FFF1FE6
:10182000EA55F14F45915491F901E05EF04FE49192
:10183000E0935D030BCF1092B0001092B100909135
:10184000B00092609093B0009091B100916090933D
:10185000B100282F30E0F901E652F14FE491F0E0B9
:10186000EE0FFF1FEA55F14F4591549150937403C9
:1018700040937303F901E05EF04FE491E093750348
:10188000E5CE109290001092910090919100986096
:101890009093910090919100916090939100282FE6
:1018A00030E0F901E652F14FE491F0E0EE0FFF1F56
:1018B000EA55F14F45915491F901E05EF04FE49102
:1018C000E0935C0393E09D83C1CE1092A000109240
:1018D000A1009091A10098609093A1009091A10027
:1018E00091609093A100282F30E0F901E652F14F6A
:1018F000E491F0E0EE0FFF1FEA55F14F459154914E
:10190000F901E05EF04FE491E0935B039FCE2FEF8F
:10191000C216D104E104F10409F00CF4A4C068E497
:1019200078EE81E090E0A50198010E949A43690158
:101930007A0181E0C81AD108E108F1089D81992354
:1019400009F489C19FEFC916D104E104F10409F03B
:101950000CF4EFCE62E17AE780E090E0A50194011B
:101960000E949A4369017A0181E0C81AD108E1080E
:10197000F1089D81992309F453C186E09FEFC916B0
:10198000D104E104F10491F088F0C980DA80EB80A1
:10199000FC808AE0F594E794D794C7948A95D1F7B0
:1019A00081E0C81AD108E108F10887E09091B10000
:1019B000987F892B8093B1002FC064E274EF80E0A0
:1019C00090E0A50194010E949A4369017A0181E0A7
:1019D000C81AD108E108F10885E09FEFC916D104C3
:1019E000E104F10419F310F362E17AE780E090E09A
:1019F000A50194010E949A4369017A0181E0C81A05
:101A0000D108E108F108B9CF81E02D812111CECFB5
:101A100095B5987F892B85BD2FEF3FEFA901411424
:101A200051046104710409F049C09D81923009F4A8
:101A3000E7C00CF0CEC0992309F4D3C0913009F06F
:101A4000E9CDD0928900C092880020936B03309337
:101A50006C0340936D0350936E0380916F0082601E
:101A600080936F00D7CD82E0D0CFB12CA12C60E065
:101A700072E18AE790E0A50198010E949A4369010A
:101A80007A0181E0C81AD108E108F108C114D10433
:101A900091E0E906F10404F591E02D81213069F52A
:101AA00080918100887F892B809381002FEF3FEF09
:101AB000A901411451046104710419F2D801AA0F5B
:101AC000BB1FA30192010E94B94328EE33E040E01E
:101AD00050E00E94CC43A9CF68E478EE81E090E02A
:101AE000A50198010E949A4369017A0181E0C81A10
:101AF000D108E108F10893E0D0CF8D81833001F562
:101B000080919100887F892B809391002FEF3FEF88
:101B1000A901411451046104710481F6D092990025
:101B2000C092980020936703309368034093690341
:101B300050936A03809171008260809371006ACD36
:101B40002D81243009F58091A100887F892B809315
:101B5000A1002FEF3FEFA90141145104610471046A
:101B600009F0ACCFD092A900C092A80020936303E3
:101B70003093640340936503509366038091720031
:101B800082608093720046CD8D81853009F044CF0C
:101B900080912101887F892B809321012FEF3FEFD6
:101BA000A901411451046104710409F087CFD09256
:101BB0002901C092280120935F0330936003409372
:101BC000610350936203809173008260809373007D
:101BD00021CD8D81843031F20CF4A0CF853039F3E2
:101BE00019CDC7BC20936F033093700340937103EA
:101BF0005093720380916E00826080936E000ACDD4
:101C0000C092B30020937603309377034093780318
:101C10005093790380917000826080937000FACCB9
:101C200084E02FEFC216D104E104F10409F008F4B6
:101C3000EFCEC980DA80EB80FC809AE0F594E794DF
:101C4000D794C7949A95D1F791E0C91AD108E108C1
:101C5000F10885E0DDCE83E02FEFC216D104E10468
:101C6000F10411F00CF076CED3CEAF92BF92CF92AA
:101C7000DF92EF92FF920F931F93CF93DF936C014C
:101C80007B018B01040F151FEB015E01AE18BF082D
:101C9000C017D10759F06991D601ED91FC910190DF
:101CA000F081E02DC6011995892B79F7C501DF91E7
:101CB000CF911F910F91FF90EF90DF90CF90BF9049
:101CC000AF900895FC01538D448D252F30E0842F73
:101CD00090E0821B930B541710F0CF960895019754
:101CE0000895FC01918D828D981761F0A28DAE0F41
:101CF000BF2FB11D5D968C91928D9F5F9F73928FC8
:101D000090E008958FEF9FEF0895FC01918D828DF3
:101D1000981731F0828DE80FF11D858D90E00895C0
:101D20008FEF9FEF0895FC01918D228D892F90E018
:101D3000805C9F4F821B91098F739927089583E8D8
:101D400093E00E94930E21E0892B09F420E0822F7A
:101D50000895FC01A48DA80FB92FB11DA35ABF4F40
:101D60002C91848D90E001968F739927848FA6899A
:101D7000B7892C93A089B1898C91837080648C93EE
:101D8000938D848D981306C00288F389E02D80819D
:101D90008F7D80830895EF92FF920F931F93CF93CF
:101DA000DF93EC0181E0888F9B8D8C8D98131AC096
:101DB000E889F989808185FF15C09FB7F894EE897D
:101DC000FF896083E889F9898081837080648083DA
:101DD0009FBF81E090E0DF91CF911F910F91FF9025
:101DE000EF900895F62E0B8D10E00F5F1F4F0F73CD
:101DF0001127E02E8C8D8E110CC00FB607FCFACF88
:101E0000E889F989808185FFF5CFCE010E94A90E6E
:101E1000F1CFEB8DEC0FFD2FF11DE35AFF4FF08258
:101E20009FB7F8940B8FEA89FB8980818062CFCFBE
:101E30000F931F93CF93DF938C01D0E0C0E0F801A4
:101E4000EC0FFD1F6491662341F083E893E00E944C
:101E5000CB0E892B11F02196F2CFCE01DF91CF91DD
:101E60001F910F910895CF93DF93EC01888D882304
:101E7000B9F0AA89BB89E889F9898C9185FD03C0ED
:101E8000808186FD0DC00FB607FCF7CF8C9185FFD2
:101E9000F2CF808185FFEDCFCE010E94A90EE9CF60
:101EA000DF91CF91089580E090E0892B29F00E9486
:101EB0009F0E81110E94000080E090E0892B49F084
:101EC00080E090E0892B29F00E94000081110E949F
:101ED000000080E090E0892B49F080E090E0892BC1
:101EE00029F00E94000081110E94000080E090E033
:101EF000892B49F080E090E0892B29F00E940000B6
:101F000081110C9400000895CF92DF92EF92FF921E
:101F10001F93CF93DF93EC016A017B018C810E94B8
:101F2000840911E0892B09F410E08B85181721F042
:101F3000CD8ADE8AEF8AF88E8D899E89AF89B88D29
:101F4000B701A601481B590B6A0B7B0B898D90E0EA
:101F5000B0E0A0E084179507A607B70798F48C8532
:101F6000181781F01C878A851817A9F0CA8EDB8E96
:101F7000EC8EFD8EEAA1FBA1309721F0B701A601FE
:101F8000898519951B87DF91CF911F91FF90EF9065
:101F9000DF90CF900895CE8EDF8EE8A2F9A2ECA15B
:101FA000FDA1309779F389851995ECCFCF92DF9217
:101FB000EF92FF920F931F93CF93DF93EC018E81EB
:101FC000811103C08D89882369F18C810D851E855F
:101FD0002F8538896A017B01C01AD10AE20AF30A07
:101FE0009701860137FD18C009891A892B893C8918
:101FF000401B510B620B730B1416150616061706C1
:102000005CF061E0DF91CF911F910F91FF90EF9015
:10201000DF90CF900C94AD0960E00E94AD098D89EE
:1020200081111D8ADF91CF911F910F91FF90EF9049
:10203000DF90CF900895CF93DF93EC0161E088812A
:102040000E94AD0981E08D870E94710A6E877F87AB
:10205000888B998BDF91CF910895CF92DF92EF9289
:10206000FF92CF93DF93EC016A017B0169857A854A
:102070008B859C850E947B429B01AC0160E070E0F7
:1020800080E89FE30E946A4420E030E040E05FE3A4
:102090000E94DC4220E030E04AE754E40E94DC4247
:1020A000CD8EDE8EEF8EF8A220E030E040E05FE3E0
:1020B0000E94FE430E94E344C60ED71EE81EF91E8E
:1020C000C9A2DAA2EBA2FCA28FA191E089278FA37B
:1020D000DF91CF91FF90EF90DF90CF900895CF9256
:1020E000DF92EF92FF92CF93DF93EC016A017B01C5
:1020F0008D899E89AF89B88DAB019601281B390B5C
:102100004A0B5B0BDA01C901B7FD49C0898D9A8D75
:10211000AB8DBC8DAB019601281B390B4A0B5B0BB9
:10212000DA01C901181619061A061B06C4F18EA198
:102130008823A9F189859A85AB85BC850197A1057E
:10214000B10551F461E08C81DF91CF91FF90EF9068
:10215000DF90CF900C94AD0989A19AA1ABA1BCA14D
:10216000AB019601281B390B4A0B5B0BDA01C90145
:10217000B7FD04C0A601CE010E942D108C819FA145
:10218000992311F061E0E0CF60E00E94AD091FA249
:10219000DF91CF91FF90EF90DF90CF90089560E0B6
:1021A0008C810E94AD091FA2898D9A8DAB8DBC8D4B
:1021B000C81AD90AEA0AFB0A8EA1882331F01C1436
:1021C0001D041E041F040CF41EA288A5882301F31D
:1021D0001C141D041E041F04DCF618A6D9CF8F9210
:1021E0009F92AF92BF92CF92DF92EF92FF920F93A6
:1021F0001F93CF93DF93EC018E81811104C088A1DE
:10220000882309F445C07B0189899A89AB89BC89F7
:102210004A015B01881A990AAA0ABB0AC501B401DE
:1022200097FD53C00D891E892F89388D4A015701AA
:10223000801A910AA20AB30A9501840110161106A8
:10224000120613060CF441C02A8D2223A9F10C8D2D
:102250001D8D2E8D3F8D200F311F2115310511F45D
:1022600021E030E0FB8C50E040E00E94CC4360175E
:102270007107D8F4F1100AC069857A8520E030E052
:10228000A9018C810E94EB0A81E08B8F81E0898F0C
:10229000DF91CF911F910F91FF90EF90DF90CF9042
:1022A000BF90AF909F908F900895FF2079F38C811D
:1022B0000E94A60A1B8EEACF69857A8520E030E06D
:1022C000A9018C810E94EB0AE1CF898D882301F35B
:1022D0008C810E94A60A198E1B8E88A18823C1F2C8
:1022E00018A2D6CF6F3FA9F0E62FE295EF7044E039
:1022F000E49F90011124DC01ED91FC91E20FF31FAA
:102300006F7082819381B6E06B9F800D911D1124C7
:10231000089590E080E00895982F80336CF08A3320
:1023200024F08F3524F08B3724F481E00895813434
:102330001CF081E09B350CF080E00895FC01828563
:1023400081110AC0A781B085CD010196908787834E
:102350008C91818781E08287818508951F93CF9337
:10236000DF93EC01162F0E949E11811306C01A867E
:1023700081E0DF91CF911F91089580E0FACF0F9314
:102380001F93CF93DF938C01EB018991882369F030
:10239000C8010E949E11882379F0FE013197908137
:1023A00098130DC0F8011286F0CF90E080E0DF9125
:1023B000CF911F910F91089582E090E0F8CF83E0D4
:1023C00090E0F5CFCF93DF93EC01CE010E949E11F8
:1023D0008B304CF489305CF4882359F081E08E8393
:1023E00090E080E00BC08D3011F08032B9F71A8692
:1023F000ECCF8E81811105C081E090E0DF91CF911B
:10240000089582E090E0FACFDC0152969C915297B9
:10241000915084E0989F900111245096ED91FC9189
:10242000E20FF31F228133812115310579F04181BB
:102430008081481758F481E0840F818386E0489FAB
:10244000200D311D11242115310521F460E070E0CB
:102450008FEF0895B901892F8295807F840F0895A9
:10246000DF92EF92FF920F931F93CF93DF93EC01D4
:102470007B01D12C688979898A89D816E0F484E0B7
:10248000D89E80011124060F171FD80112966D9156
:102490007C916115710541F0D701ED91FC910280AD
:1024A000F381E02DC7011995F80113821282108281
:1024B0001182D394DFCF1A8A8FEF8C8BC617D70780
:1024C00061F0D701ED91FC910280F381E02DC7010D
:1024D0001995D98BC88B84E08B8BDF91CF911F919D
:1024E0000F91FF90EF90DF9008952F923F924F92BF
:1024F0005F926F927F928F929F92AF92BF92CF9294
:10250000DF92EF92FF920F931F93CF93DF9300D050
:102510001F92CDB7DEB720915903309116028091FA
:10252000080290910902A0910A02B0910B02C0909A
:102530000C02D0900D02E0900E02F0900F0240913C
:102540001002509111025A834983E0911202F091D6
:102550001302FC83EB8380901C0290901D02A090DC
:102560001E02B0901F024090220250902302609001
:10257000240270902502E0912002F0912102309710
:1025800011F4E1E0F0E04091040250910502609105
:10259000060270910702481759076A077B0710F473
:1025A000AC01BD0110913C04112309F46BC0F09300
:1025B0004A04E0934904EB81FC81F0934C04E093DE
:1025C0004B04E981FA81F0934E04E0934D0480932B
:1025D000530490935404A0935504B093560440932D
:1025E0005704509358046093590470935A04C816C2
:1025F000D906EA06FB0648F0D701C6014817590775
:102600006A077B0710F4DB01CA0180934F049093A3
:102610005004A0935104B0935204353608F034E6C8
:1026200030934604253608F024E620934704E091D1
:102630002A04F0912B04309721F04186528663865C
:102640007486E0912C04F0912D04309721F081865E
:102650009286A386B4860F900F900F900F90DF9113
:10266000CF911F910F91FF90EF90DF90CF90BF908F
:10267000AF909F908F907F906F905F904F903F9022
:102680002F9008952090150227FE02C010E8212EF9
:1026900030905803009114022092440410E812195B
:1026A000011708F4102F10934504F0934A04E093A7
:1026B0004904EB81FC81F0934C04E0934B04E981E5
:1026C000FA81F0934E04E0934D0480935304909369
:1026D0005404A0935504B093560440935704509368
:1026E00058046093590470935A04C816D906EA0630
:1026F000FB0648F0D701C601481759076A077B0750
:1027000010F4DB01CA0180934F0490935004A0930E
:102710005104B0935204353608F034E63093460441
:10272000253608F024E62093470430924804E091CF
:102730002A04F0912B04309759F041865286638623
:102740007486128E88EC90E0958F848F978F868F99
:10275000E0912C04F0912D04309709F47CCF818610
:102760009286A386B486E0912C04F0912D0481E03A
:10277000828F88EC90E0958F848F978F868F6BCFB8
:1027800090913C049923E9F090913D04911119C076
:102790008230B8F481110BC081E020912404309183
:1027A0002504232B09F080E080934204089581E002
:1027B0002091260430912704232B09F080E0809398
:1027C000430408954F925F926F927F928F929F92EF
:1027D000AF92BF92CF92DF92EF92FF920F931F932F
:1027E000CF93DF9300D01F921F92CDB7DEB7DC01ED
:1027F0002C912B32E1F12D32D9F50196EE24E394A0
:10280000FC01208130ED320F3A3010F02E3291F57C
:102810008C0160E070E0CB01F801219130ED832E56
:10282000820E39E0381508F444C06A3949E9740762
:10283000840749E1940708F046C0AAE0B0E09B0194
:10284000AC010E94B943912CB12CA12C240135017B
:102850004094509460947094461657066806790622
:1028600090F1680D791D8A1D9B1D8F01D5CF0196B2
:10287000E12CC6CF198229813A814B815C816D811F
:1028800070E080E090E00F900F900F900F900F900D
:10289000DF91CF911F910F91FF90EF90DF90CF903C
:1028A000BF90AF909F908F907F906F905F904F9070
:1028B0000895211108C0EE2051F1613071058105A4
:1028C00050E89507A0F0F12CBAE08B2E912CA12CAA
:1028D000B12C6115710530E883079105F8F0A50169
:1028E00094010E94CC43CA01B901F394F2CF22E0D3
:1028F00029839B01AC0188279927DC01821B930B5C
:10290000A40BB50B8A839B83AC83BD83B4CF23E038
:1029100029836A837B838C839D83ADCFF801D801A3
:102920002D918D0130ED320F3A3010F4F394F6CF43
:102930002E3201F58F010F5F1F4FF8010F5F1F4F00
:102940002081A0EDDA2ED20EB9E0BD1598F06C3CD6
:10295000ECEC7E07ECE08E07910578F7AAE0B0E09A
:102960009B01AC010E94B9436D0D711D811D911D2C
:10297000FA94E3CF20812F7D10E000E0253409F0A8
:1029800050C021812D32B1F53296CC24C394DF01A1
:1029900010E000E02F2D0F2C000C330BEAE0BE2ED0
:1029A000FD01DD9040ED4D0D4A30B0F5B09EA00127
:1029B000B19E500D11240D2DDD0C110B005311098A
:1029C000040F151FA801420F531F4732510544F34E
:1029D000CC20B9F080E090E0A0E0B0E8E11003C0C6
:1029E00080E090E0DC0121E029838A839B83AC8333
:1029F000BD8341CF2B3219F03196C12CC8CF32960E
:102A0000FCCF80E090E0A0E8BFEFE110ECCF80E0E9
:102A100090E0A0E8BFE7E7CFCC2019F01195019531
:102A200011092081211126CF0F0D111DF7FC1A95D8
:102A30000E947B4240E3A42E42E0B42E1016110601
:102A40003CF011950195110958E1A52E52E0B52EE3
:102A5000D12CC12C01151105E9F0F6E0CF16D104F7
:102A6000A9F000FF0DC0F601EE0FFF1FEE0FFF1FD4
:102A7000EA0DFB1D25913591459154910E94DC4250
:102A8000159507952FEFC21AD20AE4CF60E070E0E7
:102A900080EC9FE7E110905821E029836A837B83D3
:102AA0008C839D83E8CECF92DF92EF92FF920F93BB
:102AB0001F93CF93DF937C016B018A01FC01C081DE
:102AC000D1814F3F510509F0B0F4E881F9810480CC
:102AD000F581E02D4B5F5F4FCE011995009759F0BE
:102AE000FC010383DF91CF911F910F91FF90EF9035
:102AF000DF90CF900895E881F9810280F381E02D85
:102B0000B601CE01199581E0F701828390E080E063
:102B1000E9CF1F93CF93DF93EC01162F6A817B815E
:102B20006115710589F04C815D81FB0183818417FA
:102B3000150651F4440F551F4F5F5F4F88819981EF
:102B40000E9453159B838A838A819B81009759F049
:102B50002C813D81A9014F5F5F4F5D834C83820FC4
:102B6000931FFC011483DF91CF911F9108959F92D1
:102B7000AF92BF92CF92DF92EF92FF920F931F938B
:102B8000CF93DF9300D01F921F92CDB7DEB78C0199
:102B90000E949E11D82EF8011286F12CE12C60EFD4
:102BA000C62EC8010E949E11F8011286D81609F49B
:102BB000B3C0811113C082E090E00F900F900F908E
:102BC0000F900F90DF91CF911F910F91FF90EF9099
:102BD000DF90CF90BF90AF909F9008958C3509F013
:102BE00099C0C8010E949E11882329F3E3E7F2E00F
:102BF000853709F083C0F801128654E0952EB12C78
:102C0000A12CC8010E949E118823A9F2813434F4BA
:102C10008053803130F083E090E0CFCF8F7D8753B9
:102C2000F8CF44E0AA0CBB1C4A95E1F7A82AF801AA
:102C300012869A949110E5CFC501985D8115944054
:102C400020F47501F3E0FF22ACCFC5019C5D811536
:102C50009440A8F483E0B822B701762F6627770F57
:102C6000770F6A297B2990E080E001966038710532
:102C70008105910540F4C8010E94891592CFB501E4
:102C800090E080E0F3CF1982262F2F7320682A83EB
:102C900026E096958795779567952A95D1F76032C6
:102CA000710580F4606C6B835E01E4E0AE0EB11CD4
:102CB000F50162915F01662309F473CFC8010E9498
:102CC0008915F6CF262F2F7320682B8386E0769503
:102CD00067958A95E1F76031710538F4606E6C8311
:102CE0005E01F5E0AF0EB11CE3CF60686C83CD826E
:102CF0005E0126E0A20EB11CDBCF329690819923B3
:102D000009F489CF8913F9CF8181882309F483CF0E
:102D1000F8011286682FAFCF82819381892B19F435
:102D200084E090E04ACF90E080E047CF6F927F92BE
:102D30008F929F92AF92BF92CF92DF92EF92FF92CB
:102D40000F931F93CF93DF93EC012A813B812C5F7C
:102D50003F4F4C815D814430510588F58901F9016F
:102D600080E0942FB22FAE2FA21BA91730F4F19060
:102D7000A1E0F110A0E08A2BF6CF811120C082E003
:102D8000EB018C83FB01802F8B1B891728F4E80152
:102D900089918E018193F7CF640F751FFB0110821B
:102DA000DF91CF911F910F91FF90EF90DF90CF9027
:102DB000BF90AF909F908F907F906F9008958B0100
:102DC000F901E40FF51F1082888199814C815D81A2
:102DD000DC011396ED91FC913A01E89477F86901D2
:102DE000C60CD71C3097C1F0A381A615170481F437
:102DF00049017F01B4E0EB0EF11C8C149D0429F114
:102E0000D401AD904D01D701BD907D01AB14A9F364
:102E10000190F081E02DE6CF6A817B810E945315FD
:102E2000FC01A881B98113968D919C91149791838F
:102E300080831496FC93EE9313971B821A8285E08D
:102E4000E8018C83F983E883ABCF82818F5F828333
:102E5000F6CFDB01ED91FC9111970280F381E02D1B
:102E6000BC01CD011994AF92BF92CF92DF92EF9245
:102E7000FF920F931F93CF93DF93EC018B018C8113
:102E800080FF24C0A881B981FB018381948130E057
:102E900020E00097D9F0A817B907D1F5F8016081B3
:102EA000718112968C911297815012968C93129781
:102EB00081110CC08D919C9111972115310529F13B
:102EC000F90191838083CD010E9429178C8180763E
:102ED00031F1209721F1F8805801F5E1AF0EB11CD6
:102EE0008FEFF816D1F06F2DC5010E9472116C01A1
:102EF000FC01E580B8010E943317F801818DF601CD
:102F00008083F801F18EFE2CEBCF94838383DBCF9B
:102F10009C01FC0180819181BCCFF882F9821C82E6
:102F2000DF91CF911F910F91FF90EF90DF90CF90A5
:102F3000BF90AF9008950F931F93CF93DF93EC0151
:102F4000088119818B819C81009749F0FC012081C7
:102F500031813C832B83B8010E942917F3CF68810C
:102F60007981CE010596DF91CF911F910F910C943D
:102F70003012FC0101900020E9F73197AF01481BA6
:102F8000590BBC0183E893E00C94350E8F929F920D
:102F9000AF92BF920F931F93CF93DF93CDB7DEB75E
:102FA000A1970FB6F894DEBF0FBECDBF19A2423075
:102FB00008F44AE08E010F5D1F4F842E912CB12C36
:102FC000A12CA50194010E94CC43E62FB901CA01AE
:102FD000EA30F4F4E05DD801EE938D01232B242B2D
:102FE000252B79F790E080E0109719F0CD010E9431
:102FF000B917A1960FB6F894DEBF0FBECDBFDF9113
:10300000CF911F910F91BF90AF909F908F90089597
:10301000E95CE1CFCF92DF92EF92FF92CF93DF9303
:103020006C01990FEE08FF08F7FE19C06DE283E806
:1030300093E00E94CB0EEC0166277727CB016C1939
:103040007D098E099F094AE00E94C6178C0F9D1FBB
:10305000DF91CF91FF90EF90DF90CF9008954AE0FD
:10306000C701B601DF91CF91FF90EF90DF90CF9035
:103070000C94C6174AE00C94C617682F70E090E0D5
:1030800080E04AE00C94C617CF93DF936DE783E8A6
:1030900093E00E94CB0EEC0186E892E00E94B91703
:1030A0008C0F9D1FDF91CF9108954F925F926F9289
:1030B0007F928F929F92AF92BF92EF92FF920F9367
:1030C0001F93CF93DF932A013B01480159018530BB
:1030D00009F480C008F061C0843009F46FC0E09149
:1030E0002A04F0912B041481C7E5D0E144E7E42ED3
:1030F00040E1F42E83EB90E10E94180FC7010E947B
:10310000180F8AEA90E10E94180F812F110F990B76
:103110000E940A188FE990E10E94180FCE010E94C8
:10312000180F8AE890E10E94180F8091380490915E
:103130003904A0913A04B0913B04A3019201281BE9
:10314000390B4A0B5B0BCA01B9010E943A1888E798
:1031500090E10E94180F8091380490913904A09159
:103160003A04B0913B04A5019401281B390B4A0B8A
:103170005B0BCA01B9010E943A18DF91CF911F91F0
:103180000F91FF90EF90BF90AF909F908F907F90A6
:103190006F905F904F900C944418863039F18730CF
:1031A00009F09DCFE0913204F09133041481C4E31F
:1031B000D0E18CE5E82E80E1F82E9CCFE0912C0444
:1031C000F0912D041481C2E5D0E13EE6E32E30E11A
:1031D000F32E90CFE0912E04F0912F041481C9E4D6
:1031E000D0E129E6E22E20E1F22E84CFE0913004F6
:1031F000F09131041481C0E4D0E192E6E92E90E12F
:10320000F92E78CF0F931F93CF93DF938C01D62F96
:10321000C42F86EC9BE00E94180FC8010E94180F73
:103220008BEB9BE00E94180F81EA9BE0DD2311F0FD
:1032300087EA9BE00E94180F8CEA9BE00E94180F1F
:1032400086E99BE0CC2311F08CE99BE00E94180FEB
:10325000DF91CF911F910F910C9444180F931F93FE
:10326000CF938C01C62F8CE79BE00E94180FC801FA
:103270000E94180F81E79BE00E94180F86E69BE0F2
:10328000CC2311F08CE69BE00E94180FCF911F9188
:103290000F910C944418CF92DF92EF92FF920F930C
:1032A0001F93CF938C01C62F69017A018CE49BE0B8
:1032B0000E94180FC8010E94180F81E49BE00E9431
:1032C000180F89E29BE0CC2311F08FE29BE00E9473
:1032D000180F84E39BE00E94180FC701B6010E94FB
:1032E0003A18CF911F910F91FF90EF90DF90CF9000
:1032F0000C9444187F928F929F92AF92BF92CF927C
:10330000DF92EF92FF920F931F93CF93DF93EC0125
:10331000762E49015A01670178018FE09BE00E94F7
:10332000180FCE010E94180F84E09BE00E94180F36
:103330008EED9AE0772011F084EE9AE00E94180F4B
:1033400086EF9AE00E94180FC501B4010E943A1856
:1033500089EE9AE00E94180FC701B6010E943A1840
:10336000DF91CF911F910F91FF90EF90DF90CF9061
:10337000BF90AF909F908F907F900C944418EF92E5
:10338000FF920F931F93CF937C018B01C42F87E48F
:103390009AE00E94180FC7010E94180F8BE39AE071
:1033A0000E94180FC8010E94180F80E39AE00E9443
:1033B000180F85E29AE0CC2311F08BE29AE00E948C
:1033C000180FCF911F910F91FF90EF900C9444181C
:1033D000CF92DF92EF92FF920F931F93CF93DF93E1
:1033E0008C01EB0169017A018BE09AE00E94180FD1
:1033F000C8010E94180F8FEF99E00E94180FCE01AC
:103400000E94180F84EF99E00E94180FC701B601BF
:103410000E943A18DF91CF911F910F91FF90EF908A
:10342000DF90CF900C944418CF92DF92EF92FF92EE
:103430000E94710A6B017C01C0924C03D0924D0333
:10344000E0924E03F0924F0380918F048823C9F0DD
:1034500080919D04811115C08BE894E00E941B109F
:10346000C0929E04D0929F04E092A004F092A10426
:1034700081E080939D04F89410928D0410928E0444
:103480007894C0904C03D0904D03E0904E03F090A0
:103490004F0310923C0410923D0410925B04E091A3
:1034A0002A04F0912B04309719F084810E94A60A17
:1034B000E0912C04F0912D04309719F084810E9442
:1034C000A60AE0912E04F0912F04309721F060E0DD
:1034D00084810E94AD09E0913004F091310430976D
:1034E00021F060E084810E94AD09E0913204F09106
:1034F0003304309729F011A660E084810E94AD0961
:1035000060E086E00E94AD0988E492E00E94180F16
:103510008091500390915103A0915203B0915303B5
:10352000A7019601281B390B4A0B5B0BCA01B90195
:103530000E943A18FF90EF90DF90CF900C944418BF
:10354000CF93DF930E94180FEC0186E892E00E946F
:10355000B9178C0F9D1FDF91CF910895CF92DF9205
:10356000EF92FF92CF93DF93EC016A017B0189E038
:1035700090E10E94180FCE010E94180F8EEF9FE07D
:103580000E94180FC4E2D4E088AD0E943D1880EF7D
:103590009FE00E94180F8C899D89AE89BF89A70181
:1035A0009601281B390B4A0B5B0BCA01B9010E941B
:1035B0003A188DEE9FE0DF91CF91FF90EF90DF9072
:1035C000CF900C94A01ACF93C82F8093790488ECE5
:1035D0009FE00E94180F80917704082E000C990B31
:1035E0000E940A188EEB9FE00E94180F8CEA9FE061
:1035F000CC2311F085EB9FE00E94180F8BEB9FE02E
:10360000CF910C94A01A0F931F93CF938C01C62FC8
:10361000FC01648382EB9AE00E94180FF80180811C
:10362000082E000C990B0E940A1888EA9AE00E9462
:10363000180F86E99AE0CC2311F08FE99AE00E94F6
:10364000180F85EA9AE0CF911F910F910C94A01A60
:10365000EF92FF920F931F93CF93DF937C018B0127
:10366000EA018CE79AE00E94180FC7010E94180F28
:1036700080E79AE00E94180FC8010E94180F84E6A4
:103680009AE00E94180FCE010E94180F81E69AE07E
:10369000DF91CF911F910F91FF90EF900C94A01AA2
:1036A000009711F00C94B91790E080E008950F9303
:1036B0001F93CF93DF93C0912404D09125048823D6
:1036C00021F0C0912604D0912704209709F45BC013
:1036D000613009F452C008F44DC0623009F450C0A2
:1036E0008BE391E10E94180F8C810E943D1880E2CB
:1036F00091E10E94180FC8010E94180F8BE091E120
:103700000E94180F6A8D7B8D8C8D9D8D00913804E1
:103710001091390420913A0430913B04601B710BE5
:10372000820B930B0E943A1889EF90E10E94180FC8
:103730006E8D7F8D88A199A1009138041091390474
:1037400020913A0430913B04601B710B820B930B68
:103750000E943A1888EE90E10E94180FCE010D9653
:103760000E94501B85EE90E1DF91CF911F910F9148
:103770000C94A01A0EED10E1B3CF05ED10E1B0CF1F
:103780000DEC10E1ADCFDF91CF911F910F91089516
:1037900090913C04992371F090913D0491110AC0DD
:1037A00060914204882321F0813021F46091430428
:1037B0000C94571B0895CF93DF93EC016E8387EA37
:1037C00099E00E94180F8F8198850E94501B8EE906
:1037D00099E00E94180F8C81082E000C990B0E9412
:1037E0000A1884E999E00E94180F8E8181110AC09D
:1037F00082E899E00E94180F81E999E0DF91CF916A
:103800000C94A01A8BE899E0F5CF60E08091290232
:1038100090912A020E94DB1B60E080912B02909124
:103820002C020E94DB1B60E080912D0290912E0201
:103830000E94DB1B60E080912F02909130020E9479
:10384000DB1B60E080913102909132020E94DB1B11
:1038500060E080913302909134020E94DB1B60E0B3
:1038600080913502909136020E94DB1B80913702D5
:1038700090913802009719F060E00E94DB1B60E035
:103880008091390290913A020C94031B1F93CF93BD
:10389000DF93EC01162F8E81882321F060E0CE01AA
:1038A0000E94DB1B8D81813021F460E08C810E94BD
:1038B000AD091C836D81812F0E94DB098D818130D0
:1038C00021F460E08C810E94AD098AED99E00E94AC
:1038D000180F8F8198850E94501B81EC99E00E94FF
:1038E000180F8C81082E000C990B0E940A18DF918A
:1038F000CF911F910C944418CF93DF93EC010E9459
:10390000461C8C810E94840921E0892B09F420E067
:103910002A878C810E94840921E0892B09F420E008
:103920002B878C810E94840921E0892B09F420E0F7
:103930002C871D8A1E8A1F8A188EDF91CF910895C9
:103940009F92AF92BF92CF92DF92EF92FF920F932E
:103950001F93CF93DF938A01452B09F468C0E901D7
:103960006B016596FC016081CE010E947211FC0121
:10397000BB24BA94892B09F0B5807601E894F7F856
:10398000AA24A3946701C00ED11E99249394309762
:1039900009F44DC0AA2009F43FC08481843069F045
:1039A000853049F1823079F5DF010D900020E9F78B
:1039B0001197CD018E1B9F0B07C00190F081E02D68
:1039C00090E080E0309781F79F77E816F90621F5BF
:1039D000D801AC15BD05E1F46B2DCE01DF91CF917F
:1039E0001F910F91FF90EF90DF90CF90BF90AF901D
:1039F0009F900C947211A081B181FD0134961396B1
:103A00008C9190E0E2CF90E080E0F0E0E0E0DDCF6C
:103A10009D9181919817E9F2A9246B2DCE010E9406
:103A20007211FC01892B09F4B2CFB580B0CF90E0C0
:103A300080E0DF91CF911F910F91FF90EF90DF9089
:103A4000CF90BF90AF909F900895FC01208131816D
:103A5000C9014A964281538164817581009759F06A
:103A6000D9015E96EC91E03211F090E080E0009791
:103A700011F00C94A01C90E080E00895CF930E9478
:103A8000251DFC01892B41F194819A30E1F040F42D
:103A9000992311F19630A9F0C1E08C2FCF910895B0
:103AA0009C3089F09E30C1F7C1E020E030E0A901F0
:103AB00060817181828193810E9476428111EDCF74
:103AC0000BC0C081EACFC1E080819181A281B38126
:103AD000892B8A2B8B2B09F7C0E0DFCFCF92DF92A7
:103AE000EF92FF92CF93DF9300D01F921F92CDB73A
:103AF000DEB70E94251DDC01892B09F446C014960F
:103B0000EC911497E250ED3008F03FC0F0E08827C8
:103B1000E357F24E8F4F0C942B45B41DC51DC71DA6
:103B2000CA1D9A1DC51DC51DC51DA81DC51DA81DE5
:103B3000C51DCE1DCC908C2D0F900F900F900F9027
:103B40000F90DF91CF91FF90EF90DF90CF9008958D
:103B5000CD90DD90ED90FC908FEFC816D104E1047C
:103B6000F10449F340F311C0CD010E94E2133A83FE
:103B70004B835C836D83CA80DB80EC80FD802230C8
:103B800059F3233049F3213069F0C12CD4CF8D9102
:103B90009C91EBCF8D919C910496E7CFCD90DD90D9
:103BA000ED90FC9020E030E0A901C701B6010E9431
:103BB000124587FDEACF20E030E04FE753E4C7012C
:103BC000B6010E947642181604F3C701B6010E949E
:103BD000E344C62EB0CFCF92DF92EF92FF92CF9305
:103BE000DF9300D01F921F92CDB7DEB70E94251D34
:103BF000DC01892B09F433C01496EC911497E25040
:103C0000ED3068F5F0E08827E75FF14E8F4F0C94B8
:103C10002B45321E2F1E441E471E161E2F1E2F1E02
:103C20002F1E251E2F1E251E2F1E4B1E6C9170E071
:103C3000CB010F900F900F900F900F90DF91CF91CD
:103C4000FF90EF90DF90CF9008958D919D910D9012
:103C5000BC91A02DBC010097A140B10548F370E0D4
:103C600060E0E6CFCD010E94E2133A834B835C8390
:103C70006D83CA80DB80EC80FD80223041F12330EF
:103C800071F1213061F70BC08D919C91ECCF8D913A
:103C90009C910496E8CFCD90DD90ED90FC9020E0D3
:103CA00030E0A901C701B6010E94124587FDD7CFB8
:103CB00020E03FEF4FE757E4C701B6010E9476428C
:103CC00018166CF2C701B6010E94E344B1CFC114CB
:103CD000D10481E0E806F10410F6B601A9CFC114C1
:103CE000D10421E0E206F104C0F3B9CFCF92DF9214
:103CF000EF92FF92CF93DF9300D01F921F92CDB728
:103D0000DEB70E94251DDC01892B09F44BC01496F7
:103D1000EC911497E250ED3008F044C0F0E08827B1
:103D2000EB56F14E8F4F0C942B45C11ED21ED61E62
:103D3000D91EA21ED21ED21ED21EB21ED21EB71E67
:103D4000D21EDD1E6C9170E090E080E00F900F902D
:103D50000F900F900F90DF91CF91FF90EF90DF9039
:103D6000CF9008956D917D918D919C91EFCF8D9124
:103D70009D910D90BC91A02DB7FD14C0BC01CD014B
:103D8000E5CFCD010E94E2133A834B835C836D83C0
:103D9000CA80DB80EC80FD80223059F1233059F15C
:103DA000213079F060E070E0CB01D0CF8D919C9113
:103DB000E9CF8D919C910496E5CFCD90DD90ED906B
:103DC000FC9020E030E0A901C701B6010E94124535
:103DD00087FDE8CF2FEF3FEF4FE75FE4C701B60164
:103DE0000E9476421816F4F2C701B6010E94E3441D
:103DF000ADCFF7FCD7CFC701B601A8CF8F929F9266
:103E0000AF92BF92CF92DF92EF92FF920F931F93E8
:103E1000CF93DF9300D000D0CDB7DEB749015A0170
:103E200067017801FB0101900020E9F73197E61B5B
:103E3000F70B9A8389837C836B83ED838F2F8F7736
:103E40008E83CE0101960E94251D0097B9F0FC01DA
:103E500024812A3041F02C3089F480819181A28123
:103E6000B381B7FD0BC0CE0101960E94761E861667
:103E70009706A806B90610F44B015C01C501B40110
:103E8000C616D706E806F90610F4C701B60126964D
:103E90000FB6F894DEBF0FBECDBFDF91CF911F915B
:103EA0000F91FF90EF90DF90CF90BF90AF909F90D9
:103EB0008F900895CF92DF92EF92FF92CF93DF938E
:103EC00000D01F921F92CDB7DEB70E94251DDC01E6
:103ED000892B09F448C01496EC911497E250ED3008
:103EE00008F041C0F0E08827E758F04E8F4F0C945F
:103EF0002B45B61FB31FC81FCB1F861FB31FB31F91
:103F0000B31F951FB31FA21FB31FCF1F6C9170E08B
:103F1000CB010F900F900F900F900F90DF91CF91EA
:103F2000FF90EF90DF90CF9008958D919D910D902F
:103F3000BC91A02D811520E89207A105B10598F448
:103F4000BC01E6CF8D919D910D90BC91A02D6C018F
:103F50007D0120E8D20EE11CF11CC114D10421E046
:103F6000E206F10468F370E060E0D2CFCD010E9478
:103F7000E2133A834B835C836D83CA80DB80EC80E1
:103F8000FD80223049F1233099F1213061F70BC0D7
:103F90008D919C91ECCF8D919C910496E8CFCD9022
:103FA000DD90ED90FC9020E030E040E057ECC70160
:103FB000B6010E94124587FDD6CF20E03EEF4FEFBD
:103FC00056E4C701B6010E947642181664F2C70192
:103FD000B6010E94DC449CCFD701C6019058AF4F78
:103FE000BF4F0097A140B10508F0BDCFB60190CFFB
:103FF000C11480E8D806E104F104C0F3B4CF0F93F4
:104000001F93CF93DF93EC018B010E94251DFC01D0
:10401000892B29F084818A3051F08C30C1F0F8016D
:1040200080819181DF91CF911F910F9108958081BF
:104030009181A281B38181159048A105B10578F7DE
:10404000CE01DF91CF911F910F910C945A1F808167
:104050009181A281B3819058AF4FBF4F0097A1408B
:10406000B105E8F6EDCF0F931F93CF93DF93EC01EB
:104070008B010E94251DFC01892B29F084818A3047
:1040800051F08C30B9F0F80180819181DF91CF91AE
:104090001F910F91089580819181A281B381009732
:1040A000A140B10580F7CE01DF91CF911F910F9113
:1040B0000C94EB1D80819181A281B381B7FDE3CF88
:1040C0000097A140B105FCF6EECF4F925F926F9240
:1040D0007F928F929F92AF92BF92CF92DF92EF9298
:1040E000FF920E941E4220E137E240E050E00E9431
:1040F0009A436F5F7F4F8F4F9F4F90E080E00E9409
:104100007B426B017C01812C912C540120E030E03A
:1041100040E050E4C701B6010E94124587FD15C07A
:1041200020E030E040E05FE3C701B6010E94DC42DE
:104130006B017C0128E132E741E35FE3C501B40193
:104140000E94FE434B015C01E1CF20E030E040E8FB
:104150005FE3C701B6010E94FD436B017C0120E0D3
:1041600030E040E05FE30E94DC42A70196010E943C
:10417000DC429B01AC01C701B6010E94FD432B014B
:104180003C012FE93AEA4AEA5EE3C701B6010E9420
:10419000DC42A70196010E94DC42A70196010E9421
:1041A000DC429B01AC01C301B2010E94FE43A501A8
:1041B00094010E94FE439B01AC016DE87DE583E123
:1041C00091E40E94FD43FF90EF90DF90CF90BF906D
:1041D000AF909F908F907F906F905F904F900895D9
:1041E000BF92CF92DF92EF92FF920F931F93CF93E4
:1041F000DF93EC01198D1F3F81F0612F45960E94DE
:104200007211FC018081898F309709F477C0148284
:104210008FEF8583BF01812F76C06C0135E0C30E1F
:10422000D11CE880F9808F89882341F0C6010E9463
:104230000412E62FF72F182F309749F71F89988D12
:10424000191324C0103109F459C0110F6D897E89EA
:10425000D701ED91FC91B4E01B9FA0011124C6167B
:10426000D70609F044C00190F081E02DBA01C701E2
:104270001995009709F442C020E1F601DC01019094
:104280000D922A95E1F79E8B8D8B188F0D891E89D3
:104290008F8921E0280F2F8BE4E08E9FC00111242D
:1042A000080F191F90E1B92E203111F48FE0B82EBC
:1042B000F6E0BF9EB0011124D701ED91FC91019071
:1042C000F081E02DC7011995F80193838283892B32
:1042D00009F4B12CD801BC9211961C92012B71F0FB
:1042E000C6010E940412E62FF72F182F8DCF0480ED
:1042F000F581E02DC7011995009729F681E08A83A1
:1043000060E070E08FEFDF91CF911F910F91FF90F0
:10431000EF90DF90CF90BF9008954F925F926F9291
:104320007F928F929F92AF92BF92CF92DF92EF9245
:10433000FF920F931F93CF93DF9300D01F921F9292
:10434000CDB7DEB78C017B01B42E0E94E2116C0167
:10435000892B09F048C0C8010E949E11863609F4D5
:10436000A9C124F5873229F08B3561F1823209F039
:10437000A8C1D80115961C921E92149712968D9181
:104380009C911397892B39F48D919C910E9402097D
:10439000F80193838283C8010E94B7156C01892BB1
:1043A00011F5B701C8010E9496161DC0843709F4A3
:1043B00060C18B3709F47BC08E3609F082C161EA97
:1043C00072E060C180E4D70114968C931497E114D5
:1043D000F10421F08FEF8C9311968C93B1101AC0D9
:1043E00025E0C22ED12CC6010F900F900F900F9098
:1043F0000F90DF91CF911F910F91FF90EF90DF9081
:10440000CF90BF90AF909F908F907F906F905F9074
:104410004F900895F8011286C8010E94E21100979A
:1044200051F56DE5C8010E94AE118111DCCFBA943F
:10443000D8011B966D907C90C3010E94F020A82E9D
:104440004B01672B21F494E0C92ED12CCCCFF7017E
:1044500061816F3F91F0C30145960E947211DC01AA
:104460001596AC92F701A1824B2DB401C8010E94B0
:104470008D21009739F06C01B6CFD7018C9311963E
:104480008C93F2CFC8010E94E2110097A1F76DE56D
:10449000C8010E94AE118111A6CF6CE2C8010E9432
:1044A000AE118111C5CF83E0C82ED12C9CCF80E204
:1044B000F7018483E114F10419F08FEF8083818385
:1044C000BB2009F48DCFD8011A961C92C8010E9416
:1044D000E211009781F66DE7C8010E94AE118111CB
:1044E00082CFBA94F8011582148282819381892B3C
:1044F00049F4808191810E940209D80113969C930E
:104500008E931297C8010E949E118732F9F0823271
:10451000E9F0C8010E949E11D82E0E948C118823B8
:1045200011F2F80112866D2DC8010E948915C8018B
:104530000E949E11D82E0E948C118111F2CFD801B9
:1045400012968D919C91892B41F47DCFC8010E94D8
:10455000B7156C01892B09F046CFC8010E94E21102
:104560006C01892B09F03FCF6AE3C8010E94AE11AC
:10457000882309F498CFD8011296ED91FC911397F6
:1045800014968D919C911597E80FF91F148214963B
:104590006D917C9115977F771B966D907C901C9701
:1045A00012968D919C910496272F2F77BA2DB07873
:1045B000AB2EA22AE894A7F89301AC017A2DC7018B
:1045C0000E94A01C6C01009761F5C3010E94F020BD
:1045D000482E4B01672B09F436CFC3010E94F0200F
:1045E000582E962FC92ED72EC114D10409F42BCFE3
:1045F000F4015582D70111966C916F3F71F0C301A0
:1046000045960E947211FC014582D70111965C9279
:10461000B401C8010E94961607C0F701408251827A
:10462000F7CFB3010E9433174B2DB601C8010E948A
:104630008D216C01892B09F0D6CEC8010E94E211B0
:104640006C01892B09F0CFCE6DE7C8010E94AE1135
:104650008111C9CE6CE2C8010E94AE11882309F411
:1046600022CFC8010E94E2116C01892B09F43ACFD4
:10467000BACE86E0D70114968C93149781E08C9380
:1046800066E972E0C8010F900F900F900F900F90A5
:10469000DF91CF911F910F91FF90EF90DF90CF901E
:1046A000BF90AF909F908F907F906F905F904F9052
:1046B0000C94BF1186E0F701848310826BE972E0ED
:1046C000E1CFC8010E949E114801FDE08F0E911CB0
:1046D000B12C782CA92C803384F08A3384F43FE306
:1046E000B316A9F0D8011A961C92B394F4018193E1
:1046F0004F01C8010E949E11EECF8B3281F393EDE2
:10470000980F923060F3982F9F7D953441F30B0DF5
:10471000111DD8011D961C92872D9A2D0E94E2131F
:104720003A834B835C836D838A819B81AC81BD819D
:104730002230A9F0233059F0213009F0B4CE2EE018
:10474000F701248380839183A283B3834CCE2AE034
:10475000F701248380839183A283B38344CE2CE02A
:10476000F7CF2F923F924F925F926F927F928F92EC
:104770009F92AF92BF92CF92DF92EF92FF920F93F0
:104780001F93CF93DF93CDB7DEB7C250D1400FB6A2
:10479000F894DEBF0FBECDBF6E012EECC20ED11C51
:1047A00086E292E0F6019183808312821482138262
:1047B000C6010596968B858B178A84E0808F8FEFD4
:1047C000818F168E878F9E012F5F3F4F790110E0FA
:1047D00000E00E94710A60938B0370938C038093B6
:1047E0008D0390938E0383E893E00E94710E97FDF2
:1047F00002C00C9416350E94710A80908B03909031
:104800008C03A0908D03B0908E03681979098A09F2
:104810009B098090870390908803A0908903B090B3
:104820008A03681579058A059B05E8F20F3711059B
:1048300061F483E893E00E94930E892B31F083E8C2
:1048400093E00E94710E0A97A1F7E1E0F0E0EC0F0F
:10485000FD1FE00FF11F10820530110570F045E0DB
:1048600050E066EA72E0CE0101960E943947892B3A
:1048700021F481EE9BE00C947F2CF6016081718124
:10488000C60105960E943012F60112820081118144
:10489000F60183819481009751F0FC0120813181E0
:1048A000F60134832383B8010E942917F1CF168EB5
:1048B000CF57DF4FD982C882C158D040CD57DF4F84
:1048C00019821882C358D040CB57DF4F1982188203
:1048D000C558D040C957DF4F1882C758D04021E093
:1048E00030E02C0F3D1FC857DF4F39832883C8584D
:1048F000D040C557DF4F1882CB58D040C457DF4F48
:10490000D982C882CC58D0404AE0B601665E7F4F5B
:10491000CE018F579F4F0E948D218C01892B69F406
:10492000C657DF4F8881CA58D040882331F0F6013E
:10493000868D83FF02C003E010E0CD57DF4F8881F2
:104940009981C358D040009751F0CF57DF4FE8818D
:10495000F981C158D040608171810E9429170115E9
:104960001105F1F08AE699E00E94180FF801EE0FA8
:10497000FF1FEB53FA4F859194910E94180F87E621
:1049800099E00E94A01A83E893E00E94930E181603
:1049900019060CF011C683E893E00E94710EF3CF64
:1049A000CF57DF4FD982C882C158D0408CEA92E0FD
:1049B000CD57DF4F99838883C358D04083E0CB57CE
:1049C000DF4F8883C558D040CA57DF4F1881C6587B
:1049D000D04010781068CA57DF4F1883C658D040AF
:1049E000CE018F579F4F0E94251D009709F4E4C503
:1049F000FC018481882309F4DFC51068CA57DF4FA2
:104A00001883C658D040CE018F579F4F0E945A1F1F
:104A1000893DF1E09F0709F48EC00CF044C188374E
:104A200031E0930709F454C60CF08EC0873351E08F
:104A3000950709F42FC50CF047C08D32F1E09F07B0
:104A400009F465C494F560E08C3231E0930709F411
:104A50005FC4863731E0930711F40C94A32E0CF059
:104A60005AC3823D910509F4B3C70CF083C289365D
:104A7000910511F40C9428330CF061C28536910530
:104A800011F40C94E92F8636910511F40C941C3323
:104A90008436910509F05CC280913C0481110E942A
:104AA000141A0E94051C80E0E3C38F3241E0940792
:104AB00009F4CCC460E0863351E0950751F680914B
:104AC0002F029091300228C48337E1E09E0709F459
:104AD00026C43CF5893321E0920709F0BACF009152
:104AE0002F02109130020E94710AF801618B728BC3
:104AF000838B948B85849684A784B088DC01CB015A
:104B0000880D991DAA1DBB1D858B968BA78BB08F19
:104B100081E080A34EE655E064E775E089E795E023
:104B2000B6C4843731E0930709F447C4853741E0C0
:104B3000940709F08ECF8D37F1E09F07B1F18E37E2
:104B4000914009F437C438C5813951E0950709F41B
:104B5000C3C40CF068C08E37F1E09F0709F49CC411
:104B60000CF051C08D3731E0930709F072CFEE247D
:104B7000EA94FE2C00E010E021E030E040E050E05C
:104B800060EB72E0C6010E94FE1E9B01AC01E09149
:104B90002F02F091300221873287438754876CE8D7
:104BA00075E086E995E00E94E819CF57DF4FD9827A
:104BB000C882C158D04080EB92E0CD57DF4F998337
:104BC0008883C358D04089E0CB57DF4F8883C558CE
:104BD000D040CA57DF4F8881C658D040807880685F
:104BE000CA57DF4F8883C658D040CE018F579F4F9A
:104BF0000E94761E60931C0270931D0280931E0219
:104C000090931F02D7C3823841E0940709F475C519
:104C100060E0803951E0950709F01BCF80913102A7
:104C20009091320279C38B39E1E09E0709F478C490
:104C300084F4833921E0920709F450C460E08A3992
:104C400031E0930709F005CF80913302909134024F
:104C500063C38D3941E0940709F482C4883D51E073
:104C6000950709F0F6CE10ECE12E17E2F12E09E0DF
:104C700010E021E030E040E050E06AEB72E0C60175
:104C80000E94FE1E9B01AC01E0913102F0913202C4
:104C9000218732874387548760E675E089E695E08F
:104CA0000E94E81989C48F39E2E09E0709F4AAC47A
:104CB0000CF088C0853F21E0920709F473C474F5B5
:104CC000823E41E0940709F42DC4C4F48C3DE1E038
:104CD0009E0709F0BECE15E3E12EF12C00E010E0B6
:104CE00022E030E040E050E063EC72E0C6010E9458
:104CF000FE1E8091310290913202FCC4863EF1E0AA
:104D00009F0709F40DC560E0843F21E0920709F098
:104D1000A0CE8091350290913602FEC2883532E0F5
:104D2000930709F466C4C4F4803452E0950709F08F
:104D300090CE15E3E12EF12C00E010E022E030E00F
:104D400040E050E063EC72E0C6010E94FE1E8091DC
:104D5000350290913602CEC48935E2E09E0709F40F
:104D600023C48B35F2E09F0709F073CE0091370220
:104D7000109138020115110509F41EC40E94710A30
:104D8000AB01BC01F801458B568B678B708F858515
:104D90009685A785B089840F951FA61FB71F818FA1
:104DA000928FA38FB48FFF24F394F6A2C8010E94C0
:104DB0002D10F801F0A64FE155E065E275E08AE2BA
:104DC00095E065C3843823E0920709F47FC40CF0B2
:104DD00075C0843A42E0940709F4B5C40CF054C09D
:104DE000803AE2E09E0709F034CE10ECE12E17E2A3
:104DF000F12E09E010E021E030E040E050E06AEB05
:104E000072E0C6010E94FE1E9B01AC01E0913702D8
:104E1000F0913802309751F0258736874787508BBD
:104E200060E075E089E095E00E94E819CF57DF4F18
:104E3000D982C882C158D0408AEB92E0CD57DF4F6B
:104E400099838883C358D04088E0CB57DF4F88834D
:104E5000C558D040CA57DF4F8881C658D0408078A7
:104E60008068CA57DF4F8883C658D040CE018F571D
:104E70009F4F0E94761E60931702709318028093D2
:104E8000190290931A0298C3893AF2E09F0709F435
:104E900006C48A3A22E0920709F0DBCDE09137029E
:104EA000F0913802309709F487C381E085A343ED80
:104EB00054E06FED74E084EE94E0E9C2803D33E0AD
:104EC000930709F45AC4BCF4853853E0950709F4F4
:104ED000F5C38738E3E09E0709F0BBCD8091390226
:104EE00090913A020E941B104DEB54E063EC74E089
:104EF00088EC94E0CCC28433F4E09F0709F473C4D7
:104F0000803625E0920709F0A4CD80912B02909184
:104F10002C02892B09F450C315E3E12EF12C00E09B
:104F200010E022E030E040E050E063EC72E0C601C7
:104F30000E94FE1E80912B0290912C026DC48F3C2A
:104F4000910509F4A3C43CF48E3C910509F46BC4AB
:104F500081ED95E0D4C4803D910509F4CAC4813D3A
:104F60009105B1F780913C04882309F4FEC483E6DF
:104F700098E0C5C4873D910509F407C60CF041C00F
:104F8000843D910509F494C50CF45AC5853D9105FD
:104F900009F4C7C5863D9105D9F6CF57DF4FD982B1
:104FA000C882C158D04088EE92E0CD57DF4F998338
:104FB0008883C358D04088E0CB57DF4F8883C558DB
:104FC000D040CA57DF4F8881C658D040807880686B
:104FD000CA57DF4F8883C658D040CE018F579F4FA6
:104FE0000E94EB1D8C0190931302809312020E9489
:104FF0007512980150E040E06AE677E089E797E0B3
:105000004FCE893D910509F42CC60CF4F2C58A3DBA
:10501000910509F45FC68B3D910509F099CF08EC25
:1050200010E0C251DF4F19830883CE5ED040CF57C6
:10503000DF4FD982C882C158D0408AE093E0CD5773
:10504000DF4F99838883C358D04088E0CB57DF4F28
:105050008883C558D040CA57DF4F8881C658D04092
:1050600080788068CA57DF4F8883C658D040BE0119
:1050700062517F4FCE018F579F4F0E9433207C019A
:10508000C251DF4F19830883CE5ED040CF57DF4F28
:10509000D982C882C158D04083E193E0CD57DF4F19
:1050A00099838883C358D04089E0CB57DF4F8883EA
:1050B000C558D040CA57DF4F8881C658D040807845
:1050C0008068CA57DF4F8883C658D040BE016251FE
:1050D0007F4FCE018F579F4F0E9433208C0181E07C
:1050E00080932D05F0923005E0922F051093320544
:1050F00000933105970150E040E06BE077E084E1F8
:1051000097E00E94E819980150E040E06CEF76E0EB
:1051100086E097E0C5CD873B52E0950709F40FC7BD
:105120000CF087C0813AF2E09F0709F412C70CF037
:105130005BC0803831E0930709F452C6813841E002
:10514000940709F49AC68737914009F001CFC251FC
:10515000DF4F19821882CE5ED040CF57DF4FD98201
:10516000C882C158D04083E193E0CD57DF4F998387
:105170008883C358D04089E0CB57DF4F8883C55818
:10518000D040CA57DF4F8881C658D04080788068A9
:10519000CA57DF4F8883C658D040BE0162517F4F47
:1051A000CE018F579F4F0E943320909355038093D9
:1051B0005403209156033091570341E021153105E6
:1051C00009F440E040934E0530935105209350057B
:1051D00090935305809352059C0150E040E061EEAE
:1051E00076E08BEE96E05CCD843BE2E09E0709F42E
:1051F00092C66CF4833B924009F0AACE109236041A
:1052000049EA56E061EB76E08EEB96E040C1853BE3
:1052100032E0930709F489C6863B924009F098CEA4
:105220001092370449E556E060E676E08CE696E0B9
:105230002EC18E3454E0950711F40C940D34DCF437
:10524000893EF3E09F0709F4EAC244F460E0883E37
:10525000934009F07DCE8BE795E05EC08C3444E04E
:10526000940709F420CC8D34944009F071CE81E08C
:105270000E94E31AA1C18839E4E09E0711F40C945E
:105280004234C4F58F34944009F062CECF57DF4FDB
:10529000D982C882C158D0408AEB92E0CD57DF4F07
:1052A00099838883C358D04088E0CB57DF4F8883E9
:1052B000C558D040CA57DF4F8881C658D040807843
:1052C0008068CA57DF4F8883C658D040CE018F57B9
:1052D0009F4F0E94761E9B01AC0120938704309360
:1052E00088044093890450938A046CEF75E085E04C
:1052F00096E0D6CC843135E0930709F492C261E0A0
:105300008531954009F024CE85E595E005C061E042
:1053100080912D0290912E020E94DB1B4DC1EE2444
:10532000EA94FE2C00E010E021E030E040E050E0A4
:1053300060EB72E0C6010E94FE1E9B01AC01E09191
:105340002D02F0912E02218732874387548767EB25
:1053500075E081EC95E00E94E819CF57DF4FD982C4
:10536000C882C158D04080EB92E0CD57DF4F99837F
:105370008883C358D04089E0CB57DF4F8883C55816
:10538000D040CA57DF4F8881C658D04080788068A7
:10539000CA57DF4F8883C658D040CE018F579F4FE2
:1053A0000E94761E6093220270932302809324024F
:1053B000909325020E947512FFC010ECE12E17E2B7
:1053C000F12E09E010E021E030E040E050E06AEB2F
:1053D00072E0C6010E94FE1E9B01AC01E0912D020D
:1053E000F0912E02258736874787508B6AEA75E051
:1053F00083EB95E00E94E819CF57DF4FD982C8822E
:10540000C158D0408AEB92E0CD57DF4F9983888313
:10541000C358D04088E0CB57DF4F8883C558D04071
:10542000CA57DF4F8881C658D04080788068CA57F5
:10543000DF4F8883C658D040CE018F579F4F0E94C0
:10544000EB1D9093210280932002B4CF00912D0296
:1054500010912E020E94710AF801618B728B838B6E
:10546000948B85849684A784B088DC01CB01880D59
:10547000991DAA1DBB1D858B968BA78BB08F81E0D4
:1054800080A34BE955E061EA75E086EA95E00E9469
:10549000281B92C061E013CB10ECE12E17E2F12E35
:1054A00009E010E021E030E040E050E06AEB72E01B
:1054B000C6010E94FE1E9B01AC01E0912F02F091FB
:1054C0003002258736874787508B6EE775E087E87F
:1054D00095E00E94E8196ECF61E0A0CB0091310207
:1054E000109132020E94710AF801658776878787DA
:1054F000908B81849284A384B484DC01CB01880DD9
:10550000991DAA1DBB1D818B928BA38BB48B81E04F
:10551000858B40E555E066E575E08BE595E0B7CF16
:1055200061E092CB10ECE12E17E2F12E09E010E0E1
:1055300021E030E040E050E06AEB72E0C6010E94FA
:10554000FE1E9B01AC01E0913302F09134022187F1
:1055500032874387548761E475E08AE495E0A0CB05
:1055600000913302109134020E94710AF80165879C
:1055700076878787908B81849284A384B484DC01AE
:10558000CB01880D991DAA1DBB1D818B928BA38B0E
:10559000B48B81E0858B40E355E066E375E08BE3F7
:1055A00095E075CF61E0B5CB8091370290913802DC
:1055B00061E0009709F0B0CEC6010E949B17CE5F54
:1055C000DE4F0FB6F894DEBF0FBECDBFDF91CF9197
:1055D0001F910F91FF90EF90DF90CF90BF90AF9011
:1055E0009F908F907F906F905F904F903F902F9003
:1055F0000895809137029091380260E0009709F099
:105600008BCEDACFEE24EA94FE2C00E010E021E00D
:1056100030E040E050E060EB72E0C6010E94FE1E08
:105620009B01AC01E0913702F0913802309779F09C
:10563000211531054105510521F021873287438726
:1056400054876FE075E089E195E00E94E819CF5733
:10565000DF4FD982C882C158D04080EB92E0CD574D
:10566000DF4F99838883C358D04089E0CB57DF4F01
:105670008883C558D040CA57DF4F8881C658D0406C
:1056800080788068CA57DF4F8883C658D040CE01E3
:105690008F579F4F0E946E1D80931B028DCFE0910C
:1056A0003702F0913802309709F486CF15A24AEEFE
:1056B00054E065EF74E08AEF94E0E9CE61E0809118
:1056C000390290913A020E94031B76CF60E0F7CF37
:1056D00015E3E12EF12C00E010E022E030E040E0A4
:1056E00050E063EC72E0C6010E94FE1E80912D0224
:1056F00090912E020E94461C5FCF15E3E12EF12C03
:1057000000E010E022E030E040E050E063EC72E0C6
:10571000C6010E94FE1E80912F0290913002EACFB6
:1057200015E3E12EF12C00E010E022E030E040E053
:1057300050E063EC72E0C6010E94FE1E80913302CD
:1057400090913402D7CF8091370290913802892B03
:1057500009F432CF15E3E12EF12C00E010E022E055
:1057600030E040E050E063EC72E0C6010E94FE1EB3
:105770008091370290913802BDCF15E3E12EF12CD4
:1057800000E010E022E030E040E050E063EC72E046
:10579000C6010E94FE1EF62E0091390210913A02B7
:1057A000F8018585882331F060E080810E94AD0991
:1057B000F8011586F801F08261E08F2D0E94DB0967
:1057C00060E0F80180810E94AD0989E794E00E94C1
:1057D000180FF8018081082E000C990B0E940A18FE
:1057E0000E944418E9CE8091290290912A02892BC7
:1057F00009F4E2CE15E3E12EF12C00E010E022E006
:1058000030E040E050E063EC72E0C6010E94FE1E12
:105810008091290290912A020E947C1CCDCE61E0E9
:105820001ACD60E071CDCF57DF4FD982C882C15801
:10583000D04087EC92E0CD57DF4F99838883C358DF
:10584000D0408BE0CB57DF4F8883C558D040CA5734
:10585000DF4F8881C658D04080788068CA57DF4FB4
:105860008883C658D040CE018F579F4F0E946E1D2F
:10587000182F809316020E947512212F30E050E0FD
:1058800040E06FE479E08CE599E00ACACF57DF4F3A
:10589000D982C882C158D04087EC92E0CD57DF4F03
:1058A00099838883C358D0408BE0CB57DF4F8883E0
:1058B000C558D040CA57DF4F8881C658D04080783D
:1058C0008068CA57DF4F8883C658D040CE018F57B3
:1058D0009F4F0E946E1D182F809359030E947512CE
:1058E000212F30E050E040E066E379E084E499E085
:1058F000D7C980913C04882329F089ED98E00E9463
:10590000A01A5ACECF57DF4FD982C882C158D04093
:1059100083ED92E0CD57DF4F99838883C358D04001
:1059200085E0CB57DF4F8883C558D040CA57DF4F3B
:105930008881C658D04080788068CA57DF4F8883F6
:10594000C658D040CE018F579F4F0E946E1D182F12
:10595000809315020E947512212F30E050E040E044
:1059600060EC78E08EEC98E09BC9CF57DF4FD9828E
:10597000C882C158D04083ED92E0CD57DF4F998364
:105980008883C358D04085E0CB57DF4F8883C55804
:10599000D040CA57DF4F8881C658D0408078806891
:1059A000CA57DF4F8883C658D040CE018F579F4FCC
:1059B0000E946E1D182F809314020E947512212FD1
:1059C00030E050E040E069E478E088E598E068C9BC
:1059D000CF57DF4FD982C882C158D04080EB92E0C8
:1059E000CD57DF4F99838883C358D04089E0CB5788
:1059F000DF4F8883C558D040CA57DF4F8881C658CB
:105A0000D04080788068CA57DF4F8883C658D0401E
:105A1000CE018F579F4F0E94761E4B015C018092F2
:105A2000220290922302A0922402B09225020E94A8
:105A30007512A501940161E378E08EE398E030C926
:105A4000CF57DF4FD982C882C158D04080EB92E057
:105A5000CD57DF4F99838883C358D04089E0CB5717
:105A6000DF4F8883C558D040CA57DF4F8881C6585A
:105A7000D04080788068CA57DF4F8883C658D040AE
:105A8000CE018F579F4F0E94761E4B015C01809282
:105A90001C0290921D02A0921E02B0921F020E9450
:105AA0007512A501940168E178E086E298E0F8C8F3
:105AB00080913C04882319F086EB97E020CFCF57E4
:105AC000DF4FD982C882C158D04089ED92E0CD57CE
:105AD000DF4F99838883C358D0408EE0CB57DF4F88
