:100000000C942C070C9488340C945D340C9432348A
:100010000C9407340C94DC330C94B1330C94863379
:100020000C945B330C9473350C945D070C945D0752
:100030000C945D070C94B3340C945D070C945D072D
:100040000C945D070C945D070C945D070C945D07A0
:100050000C945D070C945D070C945D070C941133B0
:100060000C945D070C943D350C9413350C945D078E
:100070000C945D070C945D070C945D070C945D0770
:100080000C945D070C945D070C945D070C945D0760
:100090000C945D070C945D070C945D070C945D0750
:1000A0000C945D070C945D070C945D070C945D0740
:1000B0000C945D070C945D070C945D070C945D0730
:1000C0000C945D070C945D070C945D070C945D0720
:1000D0000C945D070C945D070C945D070C945D0710
:1000E0000C945D070C94F0080C94D8080C94531FE2
:1000F0000C94C7080C94891F0C94E00D0C940B33DE
:100100000C94601F0C94DE080C94FE080C948D1F58
:100110000C94711F0C94D4080C94F4080C94101EC9
:100120000C947F1E0C94E31D0C94441F0C94171E1A
:100130000C94751E0C94FA080C94601E0C94B9086B
:100140000C949B1E0C94971E0C94F11F0C940E1E85
:100150000C94FB090C94110E0C94B30D0C940E33FB
:100160000C94F11D0C94941E0C94CB080C94EC0888
:100170000C9407330C942C1C0C94741F0C94B10E2B
:100180000C94230A0C94BF080C9425360C94E608B2
:100190000C94E2080C94030E0C94FD1D0C94701E3C
:1001A0000C94490E0C94131E0C94861F0C94901EF4
:1001B0000C94CE080C94EF0D0C94C3080C94F90821
:1001C000546F6F44656570004E6F4D656D6F727949
:1001D00000496E76616C6964496E70757400496E91
:1001E000636F6D706C657465496E70757400456DF4
:1001F000707479496E707574004F6B00CDCCCC3D36
:100200000AD7233C17B7D13877CC2B329595E62403
:100210001FB14F0A000020410000C84200401C46A8
:1002200020BCBE4CCA1B0E5AAEC59D74227D007BFD
:10023000226C6576656C223A22303031222C2264A1
:100240006576696365223A22434F4E54524F4C4CB7
:100250004552222C2264657363223A225052207444
:1002600068726573686F6C64206361707065642088
:10027000617420007B226C6576656C223A223030F6
:1002800030222C22646576696365223A22534C4DF4
:10029000222C22706172616D223A2274696D65733D
:1002A00074616D705F70696E222C2276616C756569
:1002B000223A007B226C6576656C223A2230303718
:1002C000222C22646576696365223A22434F4E549C
:1002D000524F4C4C4552222C226576656E74223A60
:1002E00022454E44222C2274696D657374616D70D1
:1002F000223A004C48005248007B226C6576656CBF
:10030000223A22303030222C2270725F7374657072
:10031000223A004C455645525F4C48004C455645E4
:10032000525F524800534C4D004D4943524F534386
:100330004F5045004C49434B004C415345520050EF
:10034000554D50320050554D5000435545320043F5
:10035000554500222C2274726163655F696E746575
:100360007276616C223A002C226163746976655F53
:100370006C65766572223A22007B226C6576656C2C
:10038000223A22303030222C22646576696365225D
:100390003A22434F4E54524F4C4C4552222C22701D
:1003A0006172616469676D223A2250524F4752452B
:1003B00053534956455F524154494F222C22746988
:1003C0006D656F7574223A007B226C6576656C22D0
:1003D0003A22303037222C22646576696365223AEE
:1003E00022434F4E54524F4C4C4552222C2265769C
:1003F000656E74223A225354415254222C2274695D
:100400006D657374616D70223A307D007B226C657E
:1004100076656C223A22303030222C22646576696F
:100420006365223A224D4943524F53434F50452270
:100430002C22706172616D223A227472696767655D
:10044000725F70696E222C2276616C7565223A00AB
:1004500046495245440074657374004D4943524FF8
:1004600053434F504500494E444550454E44454E38
:1004700054006D6F6465004C4153455200434F4E2C
:1004800054494E47454E54006D6F6465004C4153CE
:100490004552006475726174696F6E004C4153453A
:1004A00052006672657175656E6379004C41534503
:1004B000520046495245440074657374004C4153E0
:1004C00045520046495245440074657374005055C6
:1004D0004D5032006475726174696F6E0050554DF5
:1004E00050320046495245440074657374005055BB
:1004F0004D50006475726174696F6E0050554D50B7
:1005000000464952454400746573740043554532B2
:10051000006475726174696F6E0043554532006600
:1005200072657175656E63790043554532004649C1
:1005300052454400746573740043554500647572F8
:100540006174696F6E00435545006672657175652B
:100550006E63790043554500F901EE01DE01D101DA
:10056000C801C0017B226C6576656C223A2230306E
:1005700036222C2264657363223A22436F6D6D61CB
:100580006E64206E6F7420666F756E64227D006CE1
:10059000657665725F66696C74657200434F4E5490
:1005A000524F4C4C45520073657373696F6E5F70A8
:1005B000617573656400434F4E54524F4C4C455225
:1005C00000746573745F6D6F646500434F4E5452E1
:1005D0004F4C4C4552004649524544007465737473
:1005E0005F636861696E00434F4E54524F4C4C45F7
:1005F000520050554D500050554D503200616374BB
:100600006976655F70756D7000434F4E54524F4C64
:100610004C45520074726163655F696E74657276F1
:10062000616C00434F4E54524F4C4C455200707217
:100630005F7374657000434F4E54524F4C4C45529B
:1006400000726174696F00434F4E54524F4C4C45D9
:1006500052007265696E666F72636564004C455640
:1006600045525F4C48007265696E666F72636564DF
:10067000004C455645525F4C4800726174696F00EA
:100680004C455645525F4C480074696D656F7574F2
:10069000004C455645525F4C48007265696E666F66
:1006A00072636564004C455645525F52480072655E
:1006B000696E666F72636564004C455645525F52C1
:1006C0004800726174696F004C455645525F52484C
:1006D0000074696D656F7574004C455645525F52E4
:1006E0004800227D007B226C6576656C223A2230C0
:1006F0003036222C2264657363223A220044495327
:1007000041524D45440041524D454400227D002C4C
:100710002264657363223A2200222C2270696E22C1
:100720003A007B226C6576656C223A2230303122A9
:100730002C22646576696365223A2200222C22709D
:100740006172616D223A2270696E222C2276616C90
:100750007565223A007B226C6576656C223A223000
:100760003030222C22646576696365223A220022A9
:100770002C2276616C7565223A00222C22706172FF
:10078000616D223A22007B226C6576656C223A22EA
:10079000303030222C22646576696365223A22006B
:1007A00066616C7365007472756500222C22766137
:1007B0006C7565223A00222C22706172616D223ABA
:1007C00022007B226C6576656C223A223030302222
:1007D0002C22646576696365223A2200227D00221C
:1007E0002C2276616C7565223A2200222C227061DF
:1007F00072616D223A22007B226C6576656C223A2A
:1008000022303030222C22646576696365223A22D8
:100810000044495341524D45440041524D45440026
:10082000227D002C2264657363223A22007B226CB5
:100830006576656C223A22303031222C226465764E
:10084000696365223A224D4943524F53434F504505
:10085000222C2270696E223A0066616C7365007406
:10086000727565002C226475726174696F6E223A2C
:10087000002C226672657175656E6379223A0022DA
:100880002C2261726D6564223A007B226C6576656C
:100890006C223A22303030222C22646576696365FE
:1008A000223A220066616C73650074727565002CD3
:1008B000226475726174696F6E223A00222C226183
:1008C000726D6564223A007B226C6576656C223A13
:1008D00022303030222C22646576696365223A2208
:1008E0000066616C7365007472756500222C22616C
:1008F000726D6564223A007B226C6576656C223AE3
:1009000022303030222C22646576696365223A22D7
:100910000066616C736500747275650066616C7366
:10092000650074727565002C227265696E666F725F
:10093000636564223A00222C2261726D6564223A5A
:10094000007B226C6576656C223A22303030222C96
:1009500022646576696365223A2200027B226C6517
:1009600076656C223A22303030222C22646576691A
:100970006365223A22434F4E54524F4C4C4552220B
:100980002C22736B65746368223A2270722E696E32
:100990006F222C2276657273696F6E223A2276334B
:1009A0002E302E32222C22626175645F7261746572
:1009B000223A3131353230302C22736368656475E8
:1009C0006C65223A2250524F47524553534956457F
:1009D0005F524154494F227D002C22656E645F7442
:1009E000696D657374616D70223A002C22657665BD
:1009F0006E74223A224C49434B222C22737461724A
:100A0000745F74696D657374616D70223A00222C95
:100A10002270696E223A007B226C6576656C223A00
:100A200022303037222C22646576696365223A22AF
:100A3000002C22656E645F74696D657374616D70FE
:100A4000223A002C226576656E74223A225354496C
:100A50004D222C2273746172745F74696D657374B6
:100A6000616D70223A007B226C6576656C223A22B9
:100A7000303037222C22646576696365223A224C35
:100A800041534552222C2270696E223A002C226D6D
:100A90006973736564223A002C226576656E742250
:100AA0003A2254494D455354414D50222C227469E9
:100AB0006D657374616D70223A007B226C6576659A
:100AC0006C223A22303038222C22646576696365C4
:100AD000223A224D4943524F53434F5045222C2234
:100AE00070696E223A002C226576656E74223A2275
:100AF00054494D455354414D50222C2274696D6523
:100B00007374616D70223A007B226C6576656C228D
:100B10003A22303039222C22646576696365223AA4
:100B200022534C4D222C2270696E223A0000002183
:100B300000240027002A002D0030003300010100AE
:100B400000040107010A0100002200250028002BF3
:100B5000002E003100340002010000050108010BE5
:100B600001000020002300260029002C002F003265
:100B70000000010000030106010901050505050744
:100B80000508080808020202020A0A080804040408
:100B90000401010101010101010303030303030334
:100BA00003040707070C0C0C0C0C0C0C0C020202C3
:100BB0000206060606060606060B0B0B0B0B0B0BB6
:100BC0000B01021020200808102040102040800255
:100BD0000102010804020101020408102040808083
:100BE0004020100804020180040201804020100807
:100BF00004020108040201010204081020408001DF
:100C00000204081020408000000A0B02090C0D0E9F
:100C100008070304010000000000000000000000BD
:100C200000000000000000000000000000000000C4
:100C30000000001211100000000000000000000081
:100C400000000000000000000000000000444953C4
:100C500041524D45440041524D454400227D002CF7
:100C60002264657363223A22007B226C6576656C90
:100C7000223A22303031222C226465766963652263
:100C80003A22534C4D222C2270696E223A004C4578
:100C90005645525F4C48004C455645525F524800FD
:100CA000227D002C226F7269656E746174696F6EAB
:100CB000223A22002C22656E645F74696D6573743C
:100CC000616D70223A00222C2273746172745F7419
:100CD000696D657374616D70223A002C22657665CA
:100CE0006E74223A225052455353222C22636C6177
:100CF0007373223A2200222C2270696E223A007B02
:100D0000226C6576656C223A22303037222C2264C0
:100D10006576696365223A220054494D454F555422
:100D200000494E41435449564500414354495645B4
:100D3000002C227363686564756C65645F6174225E
:100D40003A002C22746172676574223A007B226C2F
:100D50006576656C223A22303036222C226572721A
:100D60006F725F636F6465223A22455F50454E445F
:100D7000494E475F46554C4C222C226465736322D2
:100D80003A2250656E64696E6720616374696F6EA4
:100D90002071756575652066756C6C20E280942005
:100DA000616374696F6E2064726F70706564222C69
:100DB00022616374696F6E5F74797065223A0053C3
:100DC00054494D00494E465553494F4E00494E46F1
:100DD0005553494F4E00544F4E4500544F4E450019
:100DE0004C415345520050554D505F320050554DC7
:100DF000505F31004355455F32004355455F310038
:100E00002C22656E645F74696D657374616D702208
:100E10003A00222C2273746172745F74696D657379
:100E200074616D70223A002C226576656E74223AE8
:100E30002200222C2270696E223A007B226C657699
:100E4000656C223A22303037222C22646576696341
:100E500065223A220000253611241FBECFEFD1E2D1
:100E6000DEBFCDBF00E00CBF13E0A0E0B2E0E8EED3
:100E7000F6E800E00BBF02C007900D92AC35B10759
:100E8000D9F727E0ACE5B3E001C01D92AD34B2075D
:100E9000E1F717E0CCE2D7E000E006C021970109B6
:100EA000802FFE010E943F41CB32D10780E008072E
:100EB000A9F70E94B2390C9472430C940000CF93AE
:100EC000DF93EC0188819981DC01ED91FC91019027
:100ED000F081E02D64E270E01995009741F02FE178
:100EE000FC01238321E02283DF91CF91089521E04B
:100EF0002A83FACF8F929F92AF92BF92CF92EF92B6
:100F0000FF920F931F93CF93DF93CDB7DEB738894E
:100F1000109253041092540451E05093550460937E
:100F2000560460935704109258044093590449E0C2
:100F300040936F0444E6409370041092730445E0BC
:100F40004093D10410928F0443E040939004A09208
:100F500091041092920410929304109294041092AF
:100F600095044091E9065091EA066091EB06709174
:100F7000EC06409396045093970460939804709302
:100F8000990410929A04E4E0E0939B0480929C04FC
:100F900010929D0410929E0410929F041092A0043F
:100FA0008090C8069090C906A090CA06B090CB0663
:100FB0008092A1049092A204A092A304B092A404EF
:100FC0001092A504C092A604E6E0CE123F853093AD
:100FD000A7044E0D5F1D601F711F4093A80450931E
:100FE000A9046093AA047093AB04FC0181859285E7
:100FF000A385B4858093AC049093AD04A093AE0414
:10100000B093AF041092B00487E08093B10489E0FC
:101010008093B2044093B3045093B4046093B50436
:101020007093B60440915706509158066091590646
:1010300070915A064093B7045093B8046093B90472
:101040007093BA0491E09093BB042093BC04809306
:10105000BD041092BE041092BF041092C0041092FE
:10106000C1048091190690911A06A0911B06B091B7
:101070001C068093C2049093C304A093C404B0934D
:10108000C504DF91CF911F910F91FF90EF90CF900A
:10109000BF90AF909F908F900895609319067093C2
:1010A0001A0680931B0690931C063091D104EFE83A
:1010B000F4E020E023130DC030911405E2EDF4E0DC
:1010C00020E02317B1F04081413071F02F5F3B9653
:1010D000F8CF4081413019F02F5F3B96EBCF67830B
:1010E000708781879287F8CF67837087818792871F
:1010F000EDCF089590915304992339F090917104A4
:1011000021E030E0992319F0089530E020E09EE1DD
:10111000929FF001939FF00D1124EF5BFB4F858BA5
:10112000178AF2CFE4E2F5E01082709686E0E432AE
:10113000F807D1F708958150823108F05AC0E82F9E
:10114000F0E08827E955F74F8F4F0C943F41C708CF
:10115000CB08B908BF08C308F908CE08D408D808D6
:10116000DE08E208E608EC08F008F908F408FA08D6
:10117000FE08809180008F77809380000895809191
:1011800080008F7DF9CF80918000877FF5CF84B577
:101190008F7784BD089584B58F7DFBCF8091B0009B
:1011A0008F778093B00008958091B0008F7DF9CF44
:1011B000809190008F7780939000089580919000A7
:1011C0008F7DF9CF80919000877FF5CF8091A0002F
:1011D0008F778093A00008958091A0008F7DF9CF34
:1011E0008091A000877FF5CF809120018F77809339
:1011F00020010895809120018F7DF9CF80912001F9
:10120000877FF5CFCF93DF93282F30E0F901E95F97
:10121000F34F8491F901EF53F44FD491F901E5585C
:10122000F44FC491CC23A1F081110E949B08EC2FB4
:10123000F0E0EE0FFF1FEF59F44FA591B491EC9140
:10124000ED2381E090E009F480E0DF91CF910895F3
:1012500080E090E0FACF1F93CF93DF93282F30E008
:10126000F901E95FF34F8491F901EF53F44FD49101
:10127000F901E558F44FC491CC23A9F0162F811140
:101280000E949B08EC2FF0E0EE0FFF1FE95BF44F8C
:10129000A591B4918FB7F894EC91111108C0D09535
:1012A000DE23DC938FBFDF91CF911F910895DE2B5A
:1012B000F8CFCF93DF9390E0FC01EF53F44F2491EC
:1012C0008558944FFC0184918823C9F090E0880FE1
:1012D000991FFC01E35DF44FA591B491FC01E95B1A
:1012E000F44FC591D49161110DC09FB7F8948C91C2
:1012F000209582238C938881282328839FBFDF91A8
:10130000CF910895623051F49FB7F8943C91822FA9
:10131000809583238C93E8812E2BEFCF8FB7F894A1
:10132000EC912E2B2C938FBFEACF3FB7F89480918E
:101330009C0390919D03A0919E03B0919F0326B5BD
:10134000A89B05C02F3F19F00196A11DB11D3FBFFD
:10135000BA2FA92F982F8827BC01CD01620F711DCC
:10136000811D911D42E0660F771F881F991F4A95C6
:10137000D1F708958F929F92AF92BF92CF92DF9252
:10138000EF92FF920E9495094B015C0184E6C82E02
:10139000D12CE12CF12C0E949509681979098A0950
:1013A0009B09683E734081059105A8F321E0C21AAC
:1013B000D108E108F10888EE880E83E0981EA11C90
:1013C000B11CC114D104E104F10429F7FF90EF909E
:1013D000DF90CF90BF90AF909F908F9008952FB7E0
:1013E000F894609198037091990380919A03909179
:1013F0009B032FBF08950F931F93CF93DF93C0914B
:101400003F04D09140042097C9F08A81882331F0AD
:101410008B818F3F19F08B818F5F8B8381E08A8373
:101420000E94EF0909851A852B853C85601B710B8D
:10143000820B930B6D837E838F839887DF91CF918F
:101440001F910F91089508959091080289130DC07E
:10145000EBE5F9E0E4919FEF90930802E230E1F0D0
:1014600038F4EE2381F0E13089F060E00C942B0930
:10147000E43049F110F1E530C1F7909173009D7FA0
:1014800090937300F2CF10926E00EFCF90916F00A7
:101490009D7F90936F00E9CF909170009D7F909316
:1014A000700091E09093B0009091B100987F9460AB
:1014B0009093B1001092B300D8CF909171009D7FAE
:1014C00090937100D2CF909172009D7F90937200A3
:1014D000CCCF4F925F926F927F928F929F92AF92FA
:1014E000BF92CF92DF92EF92FF920F931F93CF9311
:1014F000DF9300D01F921F92CDB7DEB78B01290179
:101500003A01909108028917C9F09F3F09F491C0F0
:101510000F900F900F900F900F90DF91CF911F9130
:101520000F91FF90EF90DF90CF90BF90AF909F9082
:101530008F907F906F905F904F900895EBE5F9E06A
:1015400024912D8327FDE4CF61E00E9459092D816C
:10155000222321F08D81823009F005C24801B12C8F
:10156000A12C60E072E18AE790E0A50198010E9459
:10157000C23F29833A834B835C8369017A0191E0FE
:10158000C91AD108E108F1082FEFC216D104E1040D
:10159000F10409F00CF4B6C160E472E48FE090E06D
:1015A000A50198010E94C23F69017A0181E0C81A31
:1015B000D108E108F1089D81923009F026C182E04E
:1015C0002FEFC216D104E104F10409F00CF46CC150
:1015D00060E970ED83E090E0A50198010E94C23FB0
:1015E00069017A0181E0C81AD108E108F10883E0B5
:1015F0009FEFC916D104E104F10409F00CF454C1C1
:1016000068E478EE81E090E0A50198010E94C23F75
:1016100069017A0181E0C81AD108E108F1089FEF59
:10162000C916D104E104F10411F00CF044C184E0C6
:101630003BC180930802EBE5F9E094919D839F3FC5
:1016400009F466CF923009F474C058F4992399F1E3
:10165000913009F44CC097FD5BCF61E00E945909BD
:1016600079CF2D81243009F4AEC008F488C025302C
:1016700091F7109220011092210190912101986020
:101680009093210190912101916090932101282F45
:1016900030E0F901E558F44FE491F0E0EE0FFF1F60
:1016A000E95BF44F45915491F901EF53F44FE49104
:1016B000E0936E0349CF14BC15BC94B5926094BD01
:1016C00095B5916095BD282F30E0F901E558F44FAC
:1016D000E491F0E0EE0FFF1FE95BF44F4591549168
:1016E000F901EF53F44FE491E09372032DCF109280
:1016F0008000109281009091810098609093810009
:1017000090918100916090938100282F30E0F90141
:10171000E558F44FE491F0E0EE0FFF1FE95BF44F62
:1017200045915491F901EF53F44FE491E093710323
:101730000BCF1092B0001092B1009091B000926067
:101740009093B0009091B10091609093B100282FD8
:1017500030E0F901E558F44FE491F0E0EE0FFF1F9F
:10176000E95BF44F4591549150938803409387036C
:10177000F901EF53F44FE491E0938903E5CE109221
:101780009000109291009091910098609093910038
:1017900090919100916090939100282F30E0F90191
:1017A000E558F44FE491F0E0EE0FFF1FE95BF44FD2
:1017B00045915491F901EF53F44FE491E093700394
:1017C00093E09D83C1CE1092A0001092A100909151
:1017D000A10098609093A1009091A10091609093D6
:1017E000A100282F30E0F901E558F44FE491F0E032
:1017F000EE0FFF1FE95BF44F45915491F901EF5350
:10180000F44FE491E0936F039FCE2FEFC216D10403
:10181000E104F10409F00CF4A4C068E478EE81E07E
:1018200090E0A50198010E94C23F69017A0181E020
:10183000C81AD108E108F1089D81992309F489C1EA
:101840009FEFC916D104E104F10409F00CF4EFCEC6
:1018500062E17AE780E090E0A50194010E94C23F36
:1018600069017A0181E0C81AD108E108F1089D8177
:10187000992309F453C186E09FEFC916D104E1040E
:10188000F10491F088F0C980DA80EB80FC808AE076
:10189000F594E794D794C7948A95D1F781E0C81A54
:1018A000D108E108F10887E09091B100987F892B79
:1018B0008093B1002FC064E274EF80E090E0A50156
:1018C00094010E94C23F69017A0181E0C81AD108DF
:1018D000E108F10885E09FEFC916D104E104F104A5
:1018E00019F310F362E17AE780E090E0A50194013A
:1018F0000E94C23F69017A0181E0C81AD108E1085B
:10190000F108B9CF81E02D812111CECF95B5987F17
:10191000892B85BD2FEF3FEFA901411451046104CC
:10192000710409F049C09D81923009F4E7C00CF0C0
:10193000CEC0992309F4D3C0913009F0E9CDD092FB
:101940008900C092880020937F03309380034093E6
:1019500081035093820380916F00826080936F00B7
:10196000D7CD82E0D0CFB12CA12C60E072E18AE724
:1019700090E0A50198010E94C23F69017A0181E0CF
:10198000C81AD108E108F108C114D10491E0E906B0
:10199000F10404F591E02D81213069F580918100F9
:1019A000887F892B809381002FEF3FEFA90141149D
:1019B00051046104710419F2D801AA0FBB1FA301DD
:1019C00092010E94E13F28EE33E040E050E00E94A7
:1019D000F43FA9CF68E478EE81E090E0A50198019A
:1019E0000E94C23F69017A0181E0C81AD108E1086A
:1019F000F10893E0D0CF8D81833001F58091910083
:101A0000887F892B809391002FEF3FEFA90141142C
:101A100051046104710481F6D0929900C09298003B
:101A200020937B0330937C0340937D0350937E038C
:101A3000809171008260809371006ACD2D81243085
:101A400009F58091A100887F892B8093A1002FEF59
:101A50003FEFA901411451046104710409F0ACCFB6
:101A6000D092A900C092A800209377033093780306
:101A70004093790350937A0380917200826080933F
:101A8000720046CD8D81853009F044CF80912101CF
:101A9000887F892B809321012FEF3FEFA90141140B
:101AA00051046104710409F087CFD0922901C092DA
:101AB000280120937303309374034093750350936C
:101AC00076038091730082608093730021CD8D81B5
:101AD000843031F20CF4A0CF853039F319CDC7BC76
:101AE00020938303309384034093850350938603AC
:101AF00080916E00826080936E000ACDC092B30028
:101B000020938A0330938B0340938C0350938D036F
:101B100080917000826080937000FACC84E02FEF97
:101B2000C216D104E104F10409F008F4EFCEC98033
:101B3000DA80EB80FC809AE0F594E794D794C79420
:101B40009A95D1F791E0C91AD108E108F10885E02A
:101B5000DDCE83E02FEFC216D104E104F10411F0D1
:101B60000CF076CED3CEAF92BF92CF92DF92EF92AF
:101B7000FF920F931F93CF93DF936C017B018B0137
:101B8000040F151FEB015E01AE18BF08C017D10787
:101B900059F06991D601ED91FC910190F081E02D11
:101BA000C6011995892B79F7C501DF91CF911F9156
:101BB0000F91FF90EF90DF90CF90BF90AF9008957E
:101BC000FC01538D448D252F30E0842F90E0821B43
:101BD000930B541710F0CF96089501970895FC01C8
:101BE000918D828D981761F0A28DAE0FBF2FB11D20
:101BF0005D968C91928D9F5F9F73928F90E0089578
:101C00008FEF9FEF0895FC01918D828D981731F031
:101C1000828DE80FF11D858D90E008958FEF9FEF85
:101C20000895FC01918D228D892F90E0805C9F4F5B
:101C3000821B91098F739927089580EA93E00E948F
:101C4000110E21E0892B09F420E0822F0895FC0178
:101C5000A48DA80FB92FB11DA35ABF4F2C91848D0D
:101C600090E001968F739927848FA689B7892C936A
:101C7000A089B1898C91837080648C93938D848DBD
:101C8000981306C00288F389E02D80818F7D8083C0
:101C90000895EF92FF920F931F93CF93DF93EC0180
:101CA00081E0888F9B8D8C8D98131AC0E889F98903
:101CB000808185FF15C09FB7F894EE89FF89608306
:101CC000E889F98980818370806480839FBF81E087
:101CD00090E0DF91CF911F910F91FF90EF900895C9
:101CE000F62E0B8D10E00F5F1F4F0F731127E02EA4
:101CF0008C8D8E110CC00FB607FCFACFE889F989DC
:101D0000808185FFF5CFCE010E94270EF1CFEB8DAC
:101D1000EC0FFD2FF11DE35AFF4FF0829FB7F894AF
:101D20000B8FEA89FB8980818062CFCF0F931F934D
:101D3000CF93DF938C01D0E0C0E0F801EC0FFD1FE2
:101D40006491662341F080EA93E00E94490E892B5A
:101D500011F02196F2CFCE01DF91CF911F910F911B
:101D60000895CF93DF93EC01888D8823B9F0AA8979
:101D7000BB89E889F9898C9185FD03C0808186FD46
:101D80000DC00FB607FCF7CF8C9185FFF2CF808195
:101D900085FFEDCFCE010E94270EE9CFDF91CF91D5
:101DA000089580E090E0892B29F00E941D0E81119A
:101DB0000E94000080E090E0892B49F080E090E0F4
:101DC000892B29F00E94000081110E94000080E010
:101DD00090E0892B49F080E090E0892B29F00E9467
:101DE000000081110E94000080E090E0892B49F002
:101DF00080E090E0892B29F00E94000081110C9472
:101E000000000895CF92DF92EF92FF921F93CF933D
:101E1000DF93EC016A017B018C810E94020911E0D1
:101E2000892B09F410E08B85181721F0CD8ADE8A02
:101E3000EF8AF88E8D899E89AF89B88DB701A6018A
:101E4000481B590B6A0B7B0B898D90E0B0E0A0E03A
:101E500084179507A607B70798F48C85181781F0A3
:101E60001C878A851817A9F0CA8EDB8EEC8EFD8E32
:101E7000EAA1FBA1309721F0B701A6018985199548
:101E80001B87DF91CF911F91FF90EF90DF90CF9054
:101E90000895CE8EDF8EE8A2F9A2ECA1FDA13097C5
:101EA00079F389851995ECCFFC0115821386148688
:101EB000158616861786108A118A128A138A148A42
:101EC000158A168A138E8681882311F08481838374
:101ED0000895CF92DF92EF92FF920F931F93CF93CB
:101EE000DF93EC018E81811103C08D89882369F114
:101EF0008C810D851E852F8538896A017B01C01A6A
:101F0000D10AE20AF30A9701860137FD18C0098950
:101F10001A892B893C89401B510B620B730B1416D9
:101F20001506160617065CF061E0DF91CF911F9150
:101F30000F91FF90EF90DF90CF900C942B0960E011
:101F40000E942B098D8981111D8ADF91CF911F91EC
:101F50000F91FF90EF90DF90CF900895CF93DF9394
:101F6000EC0161E088810E942B0981E08D870E944D
:101F7000EF096E877F87888B998BDF91CF910895CA
:101F8000CF92DF92EF92FF92CF93DF93EC016A0141
:101F90007B0169857A858B859C850E94A33E9B0188
:101FA000AC0160E070E080E89FE30E94924020E096
:101FB00030E040E05FE30E94043F20E030E04AE789
:101FC00054E40E94043FCD8EDE8EEF8EF8A220E016
:101FD00030E040E05FE30E9426400E940B41C60EC5
:101FE000D71EE81EF91EC9A2DAA2EBA2FCA28FA19D
:101FF00091E089278FA3DF91CF91FF90EF90DF9041
:10200000CF900895CF92DF92EF92FF92CF93DF931C
:10201000EC016A017B018D899E89AF89B88DAB0186
:102020009601281B390B4A0B5B0BDA01C901B7FD7E
:1020300049C0898D9A8DAB8DBC8DAB019601281B53
:10204000390B4A0B5B0BDA01C901181619061A067F
:102050001B06C4F18EA18823A9F189859A85AB85D9
:10206000BC850197A105B10551F461E08C81DF9138
:10207000CF91FF90EF90DF90CF900C942B0989A126
:102080009AA1ABA1BCA1AB019601281B390B4A0B4D
:102090005B0BDA01C901B7FD04C0A601CE010E94A5
:1020A000C00F8C819FA1992311F061E0E0CF60E027
:1020B0000E942B091FA2DF91CF91FF90EF90DF903C
:1020C000CF90089560E08C810E942B091FA2898D1A
:1020D0009A8DAB8DBC8DC81AD90AEA0AFB0A8EA16B
:1020E000882331F01C141D041E041F040CF41EA2CE
:1020F00088A5882301F31C141D041E041F04DCF6AC
:1021000018A6D9CF8F929F92AF92BF92CF92DF92B3
:10211000EF92FF920F931F93CF93DF93EC018E8189
:10212000811104C088A1882309F445C07B018989F5
:102130009A89AB89BC894A015B01881A990AAA0A63
:10214000BB0AC501B40197FD53C00D891E892F89B3
:10215000388D4A015701801A910AA20AB30A9501E3
:10216000840110161106120613060CF441C02A8DC4
:102170002223A9F10C8D1D8D2E8D3F8D200F311F37
:102180002115310511F421E030E0FB8C50E040E0F6
:102190000E94F43F60177107D8F4F1100AC06985F6
:1021A0007A8520E030E0A9018C810E94690A81E0F3
:1021B0008B8F81E0898FDF91CF911F910F91FF90DD
:1021C000EF90DF90CF90BF90AF909F908F90089549
:1021D000FF2079F38C810E94240A1B8EEACF698547
:1021E0007A8520E030E0A9018C810E94690AE1CF64
:1021F000898D882301F38C810E94240A198E1B8EFD
:1022000088A18823C1F218A2D6CF6F3FA9F0E62F8C
:10221000E295EF7044E0E49F90011124DC01ED9120
:10222000FC91E20FF31F6F7082819381B6E06B9F88
:10223000800D911D1124089590E080E00895982F5D
:1022400080336CF08A3324F08F3524F08B3724F4FC
:1022500081E0089581341CF081E09B350CF080E032
:102260000895FC01828581110AC0A781B085CD0146
:102270000196908787838C91818781E08287818511
:1022800008951F93CF93DF93EC01162F0E94311115
:10229000811306C01A8681E0DF91CF911F910895C6
:1022A00080E0FACF0F931F93CF93DF938C01EB0164
:1022B0008991882369F0C8010E943111882379F03F
:1022C000FE013197908198130DC0F8011286F0CF6E
:1022D00090E080E0DF91CF911F910F91089582E00F
:1022E00090E0F8CF83E090E0F5CFCF93DF93EC015F
:1022F000CE010E9431118B304CF489305CF488237C
:1023000059F081E08E8390E080E00BC08D3011F0B9
:102310008032B9F71A86ECCF8E81811105C081E039
:1023200090E0DF91CF91089582E090E0FACFDC0158
:1023300052969C915297915084E0989F900111245D
:102340005096ED91FC91E20FF31F2281338121150C
:10235000310579F041818081481758F481E0840F7C
:10236000818386E0489F200D311D11242115310500
:1023700021F460E070E08FEF0895B901892F829514
:10238000807F840F0895DF92EF92FF920F931F9347
:10239000CF93DF93EC017B01D12C688979898A89FD
:1023A000D816E0F484E0D89E80011124060F171F90
:1023B000D80112966D917C916115710541F0D7019C
:1023C000ED91FC910280F381E02DC7011995F80190
:1023D0001382128210821182D394DFCF1A8A8FEF78
:1023E0008C8BC617D70761F0D701ED91FC91028065
:1023F000F381E02DC7011995D98BC88B84E08B8BB5
:10240000DF91CF911F910F91FF90EF90DF90089592
:102410008F92AF92CF92DF92EF92FF920F931F9322
:10242000CF93DF93C0910902D0910A02E0908E030E
:10243000F0908F03009190031091910321E080911F
:102440000402909105028352974009F420E08091A4
:1024500000028F93809101028F9380900202A090DE
:102460000302C0900C0240910B0260915604CE0111
:102470000E947A07E091D1040F900F90E43008F4A5
:1024800074C0CF58D64009F0C5C0C0906103D09049
:102490006203E0906303F09064038091690390917C
:1024A0006A03A0916B03B0916C0340919204509128
:1024B00093046091940470919504480F591F6A1F0A
:1024C0007B1F409392045093930460939404709301
:1024D000950400919D0410919E0420919F043091D9
:1024E000A004080F191F2A1F3B1F00939D0410937F
:1024F0009E0420939F043093A0044091A80450911F
:10250000A9046091AA047091AB04480F591F6A1F77
:102510007B1F4C0D5D1D6E1D7F1D4093A8045093C5
:10252000A9046093AA047093AB0440915B06509198
:102530005C0660915D0670915E06840F951FA61F74
:10254000B71F4091B3045091B4046091B5047091E9
:10255000B604840F951FA61FB71F8093B3049093F2
:10256000B404A093B504B093B60480916D0388239E
:1025700009F459C0E43018F083E08093B00410925D
:10258000710481E0809372048093730480937404D7
:1025900080937504109276041092770490916003F2
:1025A00090938D0494E690938E048093140510927A
:1025B000D20487E08093D30489E08093D40480918F
:1025C0005B0690915C06A0915D06B0915E068093DB
:1025D000D5049093D604A093D704B093D8048091E7
:1025E000570690915806A0915906B0915A068093CB
:1025F000D9049093DA04A093DB04B093DC04DF9158
:10260000CF911F910F91FF90EF90DF90CF90AF90FF
:102610008F900895C0906503D0906603E0906703A3
:10262000F09068033ACF10927304E9CF4F925F9213
:102630006F927F928F929F92AF92BF92CF92DF92D2
:10264000EF92FF920F931F93CF93DF9300D01F92CF
:102650001F92CDB7DEB7DC012C912B32E1F12D3288
:10266000D9F50196EE24E394FC01208130ED320F80
:102670003A3010F02E3291F58C0160E070E0CB0121
:10268000F801219130ED832E820E39E0381508F4DF
:1026900044C06A3949E97407840749E1940708F09E
:1026A00046C0AAE0B0E09B01AC010E94E13F912C42
:1026B000B12CA12C24013501409450946094709465
:1026C000461657066806790690F1680D791D8A1D31
:1026D0009B1D8F01D5CF0196E12CC6CF1982298190
:1026E0003A814B815C816D8170E080E090E00F90D9
:1026F0000F900F900F900F90DF91CF911F910F913E
:10270000FF90EF90DF90CF90BF90AF909F908F9011
:102710007F906F905F904F900895211108C0EE2038
:1027200051F161307105810550E89507A0F0F12C59
:10273000BAE08B2E912CA12CB12C6115710530E8DB
:1027400083079105F8F0A50194010E94F43FCA01A6
:10275000B901F394F2CF22E029839B01AC018827D1
:102760009927DC01821B930BA40BB50B8A839B83F7
:10277000AC83BD83B4CF23E029836A837B838C83BE
:102780009D83ADCFF801D8012D918D0130ED320F31
:102790003A3010F4F394F6CF2E3201F58F010F5F2B
:1027A0001F4FF8010F5F1F4F2081A0EDDA2ED20ED0
:1027B000B9E0BD1598F06C3CECEC7E07ECE08E07C0
:1027C000910578F7AAE0B0E09B01AC010E94E13FDF
:1027D0006D0D711D811D911DFA94E3CF20812F7D18
:1027E00010E000E0253409F050C021812D32B1F510
:1027F0003296CC24C394DF0110E000E02F2D0F2C83
:10280000000C330BEAE0BE2EFD01DD9040ED4D0DD6
:102810004A30B0F5B09EA001B19E500D11240D2D8F
:10282000DD0C110B00531109040F151FA801420FF5
:10283000531F4732510544F3CC20B9F080E090E0BB
:10284000A0E0B0E8E11003C080E090E0DC0121E00E
:1028500029838A839B83AC83BD8341CF2B3219F0BC
:102860003196C12CC8CF3296FCCF80E090E0A0E832
:10287000BFEFE110ECCF80E090E0A0E8BFE7E7CF4A
:10288000CC2019F01195019511092081211126CF35
:102890000F0D111DF7FC1A950E94A33E44E1A42ED2
:1028A00042E0B42E101611063CF011950195110965
:1028B0005CEFA52E51E0B52ED12CC12C01151105D0
:1028C000E9F0F6E0CF16D104A9F000FF0DC0F60143
:1028D000EE0FFF1FEE0FFF1FEA0DFB1D2591359137
:1028E000459154910E94043F159507952FEFC21A08
:1028F000D20AE4CF60E070E080EC9FE7E1109058EE
:1029000021E029836A837B838C839D83E8CECF92E9
:10291000DF92EF92FF920F931F93CF93DF937C018F
:102920006B018A01FC01C081D1814F3F510509F043
:10293000B0F4E881F9810480F581E02D4B5F5F4FB1
:10294000CE011995009759F0FC010383DF91CF91D7
:102950001F910F91FF90EF90DF90CF900895E88145
:10296000F9810280F381E02DB601CE01199581E055
:10297000F701828390E080E0E9CF1F93CF93DF934C
:10298000EC01162F6A817B816115710589F04C81FC
:102990005D81FB0183818417150651F4440F551F97
:1029A0004F5F5F4F888199810E9487149B838A8340
:1029B0008A819B81009759F02C813D81A9014F5F4D
:1029C0005F4F5D834C83820F931FFC011483DF9163
:1029D000CF911F9108959F92AF92BF92CF92DF92B5
:1029E000EF92FF920F931F93CF93DF9300D01F922C
:1029F0001F92CDB7DEB78C010E943111D82EF8019D
:102A00001286F12CE12C60EFC62EC8010E94311114
:102A1000F8011286D81609F4B3C0811113C082E000
:102A200090E00F900F900F900F900F90DF91CF914B
:102A30001F910F91FF90EF90DF90CF90BF90AF90DC
:102A40009F9008958C3509F099C0C8010E943111FA
:102A5000882329F3E8EAF2E0853709F083C0F8011A
:102A6000128654E0952EB12CA12CC8010E94311180
:102A70008823A9F2813434F48053803130F083E02C
:102A800090E0CFCF8F7D8753F8CF44E0AA0CBB1CDA
:102A90004A95E1F7A82AF80112869A949110E5CF99
:102AA000C501985D8115944020F47501F3E0FF2283
:102AB000ACCFC5019C5D81159440A8F483E0B82299
:102AC000B701762F6627770F770F6A297B2990E069
:102AD00080E00196603871058105910540F4C801D8
:102AE0000E94BD1492CFB50190E080E0F3CF19822F
:102AF000262F2F7320682A8326E096958795779551
:102B000067952A95D1F76032710580F4606C6B830C
:102B10005E01E4E0AE0EB11CF50162915F01662337
:102B200009F473CFC8010E94BD14F6CF262F2F736E
:102B300020682B8386E0769567958A95E1F760316A
:102B4000710538F4606E6C835E01F5E0AF0EB11C68
:102B5000E3CF60686C83CD825E0126E0A20EB11CDB
:102B6000DBCF32969081992309F489CF8913F9CF6D
:102B70008181882309F483CFF8011286682FAFCFB3
:102B800082819381892B19F484E090E04ACF90E010
:102B900080E047CF6F927F928F929F92AF92BF92C9
:102BA000CF92DF92EF92FF920F931F93CF93DF9319
:102BB000EC012A813B812C5F3F4F4C815D81443089
:102BC000510588F58901F90180E0942FB22FAE2FCD
:102BD000A21BA91730F4F190A1E0F110A0E08A2B1C
:102BE000F6CF811120C082E0EB018C83FB01802FA6
:102BF0008B1B891728F4E80189918E018193F7CF07
:102C0000640F751FFB011082DF91CF911F910F910F
:102C1000FF90EF90DF90CF90BF90AF909F908F90FC
:102C20007F906F9008958B01F901E40FF51F1082DA
:102C3000888199814C815D81DC011396ED91FC9135
:102C40003A01E89477F86901C60CD71C3097C1F0B7
:102C5000A381A615170481F449017F01B4E0EB0EAE
:102C6000F11C8C149D0429F1D401AD904D01D701C4
:102C7000BD907D01AB14A9F30190F081E02DE6CF6A
:102C80006A817B810E948714FC01A881B981139617
:102C90008D919C911497918380831496FC93EE936D
:102CA00013971B821A8285E0E8018C83F983E883FD
:102CB000ABCF82818F5F8283F6CFDB01ED91FC91F8
:102CC00011970280F381E02DBC01CD011994AF92E0
:102CD000BF92CF92DF92EF92FF920F931F93CF9309
:102CE000DF93EC018B018C8180FF24C0A881B98126
:102CF000FB018381948130E020E00097D9F0A81790
:102D0000B907D1F5F8016081718112968C91129703
:102D1000815012968C93129781110CC08D919C91C9
:102D200011972115310529F1F90191838083CD0196
:102D30000E945D168C81807631F1209721F1F88018
:102D40005801F5E1AF0EB11C8FEFF816D1F06F2DE1
:102D5000C5010E9405116C01FC01E580B8010E94CB
:102D60006716F801818DF6018083F801F18EFE2C43
:102D7000EBCF94838383DBCF9C01FC018081918125
:102D8000BCCFF882F9821C82DF91CF911F910F9105
:102D9000FF90EF90DF90CF90BF90AF9008950F938A
:102DA0001F93CF93DF93EC01088119818B819C8164
:102DB000009749F0FC01208131813C832B83B801CD
:102DC0000E945D16F3CF68817981CE010596DF916F
:102DD000CF911F910F910C94C311FC010190002021
:102DE000E9F73197AF01481B590BBC0180EA93E02A
:102DF0000C94B30D8F929F92AF92BF920F931F933B
:102E0000CF93DF93CDB7DEB7A1970FB6F894DEBFAF
:102E10000FBECDBF19A2423008F44AE08E010F5D0B
:102E20001F4F842E912CB12CA12CA50194010E943E
:102E3000F43FE62FB901CA01EA30F4F4E05DD801AD
:102E4000EE938D01232B242B252B79F790E080E046
:102E5000109719F0CD010E94ED16A1960FB6F894C7
:102E6000DEBF0FBECDBFDF91CF911F910F91BF90FD
:102E7000AF909F908F900895E95CE1CF4AE00C9469
:102E8000FA16682F70E090E080E04AE00C94FA16A1
:102E9000CF92DF92EF92FF92CF93DF936C01990F65
:102EA000EE08FF08F7FE19C06DE280EA93E00E9489
:102EB000490EEC0166277727CB016C197D098E0935
:102EC0009F094AE00E94FA168C0F9D1FDF91CF9157
:102ED000FF90EF90DF90CF9008954AE0C701B601D0
:102EE000DF91CF91FF90EF90DF90CF900C94FA1686
:102EF000CF93DF930E94960EEC018BEB92E00E9441
:102F0000ED168C0F9D1FDF91CF910895CF93C82FA1
:102F10008093290689E69CE00E94960E8091270600
:102F2000082E000C990B0E9448178FE59CE00E9428
:102F3000960E8DE49CE0CC2311F086E59CE00E9487
:102F4000960E8CE59CE0CF910C9478170F931F930D
:102F5000CF938C01C62FFC0164838DE298E00E9420
:102F6000960EF8018081082E000C990B0E944817DC
:102F700083E298E00E94960E81E198E0CC2311F064
:102F80008AE198E00E94960E80E298E0CF911F912E
:102F90000F910C947817EF92FF920F931F93CF939A
:102FA000DF937C018B01EA0187EF97E00E94960E88
:102FB000C7010E94960E8BEE97E00E94960EC80104
:102FC0000E94960E8FED97E00E94960ECE010E9411
:102FD000960E8CED97E0DF91CF911F910F91FF90AE
:102FE000EF900C947817CF93DF936DE780EA93E02E
:102FF0000E94490EEC018BEB92E00E94ED168C0FC3
:103000009D1FDF91CF9108954F925F926F927F92B3
:103010008F929F92AF92BF92EF92FF920F931F9366
:10302000CF93DF932A013B0148015901853009F410
:1030300080C008F061C0843009F46FC0E09147049B
:10304000F09148041481CBEDDDE04AEFE42E4DE031
:10305000F42E8BE39EE00E94960EC7010E94960E0E
:1030600082E39EE00E94960E812F110F990B0E9421
:10307000481787E29EE00E94960ECE010E94960EAF
:1030800082E19EE00E94960E8091150690911606B0
:10309000A0911706B0911806A3019201281B390BC5
:1030A0004A0B5B0BCA01B9010E943E1780E09EE00B
:1030B0000E94960E8091150690911606A091170613
:1030C000B0911806A5019401281B390B4A0B5B0B24
:1030D000CA01B9010E943E17DF91CF911F910F9154
:1030E000FF90EF90BF90AF909F908F907F906F90E8
:1030F0005F904F900C94F317863039F1873009F0C8
:103100009DCFE0914F04F09150041481CFEBDDE0AE
:1031100080EEE82E8DE0F82E9CCFE0914904F091EE
:103120004A041481C6EDDDE034EFE32E3DE0F32EDA
:1031300090CFE0914B04F0914C041481CDECDDE094
:103140002DEEE22E2DE0F22E84CFE0914D04F09191
:103150004E041481C4ECDDE096EEE92E9DE0F92EDC
:1031600078CFCF92DF92EF92FF920F931F93CF937E
:10317000DF93EC018881813009F4D1C06A017B01C1
:10318000813090F08230D1F483E594E00E94540FB6
:1031900081E794E0DF91CF911F910F91FF90EF9025
:1031A000DF90CF900C94540F8981853009F47DC055
:1031B00070F48330F1F1843009F45AC0DF91CF917B
:1031C0001F910F91FF90EF90DF90CF900895863080
:1031D00009F488C0873091F7E0914F04F0915004D2
:1031E000309761F38681882349F385A18111E6CF69
:1031F0008F819885A985BA85C58AD68AE78AF08E97
:103200008C0D9D1DAE1DBF1D818F928FA38FB48F1E
:1032100081E086A3CF010E94C00F0F811885298508
:103220003A850C0D1D1D2E1D3F1DB701A60187E01F
:103230001CC0E0914704F0914804309709F4BECFD8
:103240008681882309F4BACF0F81188529853A85AC
:10325000C18AD28AE38AF48A0C0D1D1D2E1D3F1DE2
:10326000058B168B278B308F83E00E940418A6CF26
:10327000E0914904F0914A04309709F49FCF868188
:10328000882309F49BCF0F81188529853A85C18A47
:10329000D28AE38AF48A0C0D1D1D2E1D3F1D058B5D
:1032A000168B278B308F84E0E0CFE0914B04F091B8
:1032B0004C04309709F482CF8681882309F47ECFAD
:1032C0000F81188529853A85C586D686E786F08AD6
:1032D0000C0D1D1D2E1D3F1D018B128B238B348B5E
:1032E00085E0C3CFE0914D04F0914E04309709F48E
:1032F00065CF8681882309F461CF0F8118852985E0
:103300003A85C586D686E786F08A0C0D1D1D2E1DD2
:103310003F1D018B128B238B348B86E0A6CF8981D6
:10332000E0914104F0914204882339F0813009F0A2
:1033300045CFE0914304F0914404309709F43ECF27
:10334000CF80D884E984FA844C0D5D1D6E1D7F1DED
:10335000418B528B638B748B31CF2F923F924F9264
:103360005F926F927F928F929F92AF92BF92CF9215
:10337000DF92EF92FF920F931F93CF93DF9300D0D2
:103380001F92CDB7DEB72A013B0103E4809F900175
:103390001124312C8901C9018F529B4F9A83898353
:1033A0004BE0242E49019EE4890E911CE981FA81AB
:1033B0008081381608F098C0A32CB12CC801239C3A
:1033C000800D911D11248F5B9B4FFC01E25BFF4F31
:1033D0002081233039F1805B9F4FFC01808189304F
:1033E00021F09091260689131DC02A9CF0012B9C88
:1033F000F00D1124E00FF11FEE56FB4FC080D1807D
:10340000E280F380C114D104E104F10469F4B30152
:10341000A201C401329C800D911D11248F5B9B4F32
:103420000E94B1183394C2CFC40CD51CE61CF71C03
:10343000E4E2F5E090E080E02081211125C024E065
:10344000880F991F2A95E1F7DC01AB5EBA4F2A9CE1
:10345000F0012B9CF00D1124E00FF11FE157FB4F01
:10346000222D01900D922A95E1F78F5B9B4FFC0175
:10347000E152FF4FC082D182E282F3828D519F4F91
:1034800021E0FC012083CECF01967096803191051A
:1034900099F68DE49DE00E94960E2A9CC0012B9C1B
:1034A000900D1124800F911F8F5B9B4F9C838B830A
:1034B000FC01E25BFF4F80810E94411782E49DE0A6
:1034C0000E94960EEB81FC81E15BFF4F80810E94A0
:1034D000411781E39DE00E94960EC701B6010E944C
:1034E0003E170E94F3179ECF0F900F900F900F90F2
:1034F000DF91CF911F910F91FF90EF90DF90CF90D0
:10350000BF90AF909F908F907F906F905F904F9003
:103510003F902F9008950F931F93CF93DF938C01CB
:10352000D62FC42F81E499E00E94960EC8010E9414
:10353000960E86E399E00E94960E8CE199E0DD23D9
:1035400011F082E299E00E94960E87E299E00E94D3
:10355000960E81E199E0CC2311F087E199E00E9479
:10356000960EDF91CF911F910F910C94F3170F934B
:103570001F93CF938C01C62F87EF98E00E94960E81
:10358000C8010E94960E8CEE98E00E94960E81EE85
:1035900098E0CC2311F087EE98E00E94960ECF9130
:1035A0001F910F910C94F317CF92DF92EF92FF923D
:1035B0000F931F93CF938C01C62F69017A0187EC7B
:1035C00098E00E94960EC8010E94960E8CEB98E03F
:1035D0000E94960E84EA98E0CC2311F08AEA98E0E3
:1035E0000E94960E8FEA98E00E94960EC701B601DF
:1035F0000E943E17CF911F910F91FF90EF90DF90A7
:10360000CF900C94F3177F928F929F92AF92BF92BC
:10361000CF92DF92EF92FF920F931F93CF93DF939E
:10362000EC01762E49015A01670178018AE898E099
:103630000E94960ECE010E94960E8FE798E00E949F
:10364000960E89E598E0772011F08FE598E00E94CA
:10365000960E81E798E00E94960EC501B4010E9483
:103660003E1784E698E00E94960EC701B6010E94BC
:103670003E17DF91CF911F910F91FF90EF90DF9058
:10368000CF90BF90AF909F908F907F900C94F31746
:10369000EF92FF920F931F93CF937C018B01C42F66
:1036A00082EC97E00E94960EC7010E94960E86EB70
:1036B00097E00E94960EC8010E94960E8BEA97E052
:1036C0000E94960E80EA97E0CC2311F086EA97E0FC
:1036D0000E94960ECF911F910F91FF90EF900C9446
:1036E000F317CF92DF92EF92FF920F931F93CF9336
:1036F000DF938C01EB0169017A0186E897E00E9473
:10370000960EC8010E94960E8AE797E00E94960ED8
:10371000CE010E94960E8FE697E00E94960EC7019A
:10372000B6010E943E17DF91CF911F910F91FF903C
:10373000EF90DF90CF900C94F317009711F00C945A
:10374000ED1690E080E00895EF92FF920F931F93A3
:10375000CF93DF93C0914104D0914204882321F09C
:10376000C0914304D0914404209709F46EC06130A5
:1037700009F465C008F460C0623009F463C09EE8D3
:10378000E92E9CE0F92E811104C087E9E82E8CE037
:10379000F82E8FEF9CE00E94960EC7010E94960EB5
:1037A00086EF9CE00E94960E8C810E9441178BED63
:1037B0009CE00E94960EC8010E94960E86EC9CE04A
:1037C0000E94960E6A8D7B8D8C8D9D8D00911506C5
:1037D000109116062091170630911806601B710B88
:1037E000820B930B0E943E1784EB9CE00E94960E86
:1037F0006E8D7F8D88A199A10091150610911606F6
:103800002091170630911806601B710B820B930BE9
:103810000E943E1783EA9CE00E94960ECE010D9610
:103820000E949D1B80EA9CE0DF91CF911F910F9138
:10383000FF90EF900C9478170AE21DE0A0CF01E210
:103840001DE09DCF09E11DE09ACFDF91CF911F913F
:103850000F91FF90EF90089590911D06911104C073
:1038600090911E06992371F090911F0691110AC044
:1038700060912406882321F0813021F4609125068F
:103880000C94A41B0895CF93DF93EC016E8382E226
:1038900097E00E94960E8F8198850E949D1B89E17A
:1038A00097E00E94960E8C81082E000C990B0E94C6
:1038B00048178FE097E00E94960E8E8181110AC012
:1038C0008DEF96E00E94960E8CE097E0DF91CF910D
:1038D0000C94781786E097E0F5CF60E080911102B4
:1038E000909112020E94431C60E08091130290911B
:1038F00014020E94431C60E0809115029091160210
:103900000E94431C60E080911702909118020E946F
:10391000431C60E08091190290911A020E94431C9E
:1039200060E080911B0290911C020E94431C60E0A9
:1039300080911D0290911E020E94431C80911F02E3
:1039400090912002009719F060E00E94431C60E013
:1039500080912102909122020C94A6171F93CF937D
:10396000DF93EC01162F8E81882321F060E0CE01D9
:103970000E94431C8D81813021F460E08C810E9483
:103980002B091C836D81812F0E9459098D81813003
:1039900021F460E08C810E942B0985E597E00E946C
:1039A000960E8F8198850E949D1B8CE397E00E9464
:1039B000960E8C81082E000C990B0E944817DF91FF
:1039C000CF911F910C94F317CF93DF93EC010E94DA
:1039D000AE1C8C810E94020921E0892B09F420E0B1
:1039E0002A878C810E94020921E0892B09F420E0BA
:1039F0002B878C810E94020921E0892B09F420E0A9
:103A00002C871D8A1E8A1F8A188EDF91CF910895F8
:103A10009F92AF92BF92CF92DF92EF92FF920F935D
:103A20001F93CF93DF938A01452B09F468C0E90106
:103A30006B016596FC016081CE010E940511FC01BD
:103A4000BB24BA94892B09F0B5807601E894F7F885
:103A5000AA24A3946701C00ED11E99249394309791
:103A600009F44DC0AA2009F43FC08481843069F074
:103A7000853049F1823079F5DF010D900020E9F7BA
:103A80001197CD018E1B9F0B07C00190F081E02D97
:103A900090E080E0309781F79F77E816F90621F5EE
:103AA000D801AC15BD05E1F46B2DCE01DF91CF91AE
:103AB0001F910F91FF90EF90DF90CF90BF90AF904C
:103AC0009F900C940511A081B181FD01349613964D
:103AD0008C9190E0E2CF90E080E0F0E0E0E0DDCF9C
:103AE0009D9181919817E9F2A9246B2DCE010E9436
:103AF0000511FC01892B09F4B2CFB580B0CF90E05D
:103B000080E0DF91CF911F910F91FF90EF90DF90B8
:103B1000CF90BF90AF909F900895FC01208131819C
:103B2000C9014A964281538164817581009759F099
:103B3000D9015E96EC91E03211F090E080E00097C0
:103B400011F00C94081D90E080E00895CF93DF936E
:103B5000EB010E948D1D009741F0FC01248126306D
:103B600021F48081DF91CF9108958881FBCFCF929E
:103B7000DF92EF92FF92CF93DF9300D01F921F92BC
:103B8000CDB7DEB70E948D1DDC01892B09F446C03C
:103B90001496EC911497E250ED3008F03FC0F0E03D
:103BA0008827EA52F24E8F4F0C943F41FD1D0E1EA6
:103BB000101E131EE31D0E1E0E1E0E1EF11D0E1EE8
:103BC000F11D0E1E171ECC908C2D0F900F900F9094
:103BD0000F900F90DF91CF91FF90EF90DF90CF90FB
:103BE0000895CD90DD90ED90FC908FEFC816D10434
:103BF000E104F10449F340F311C0CD010E94161312
:103C00003A834B835C836D83CA80DB80EC80FD80CC
:103C1000223059F3233049F3213069F0C12CD4CF3D
:103C20008D919C91EBCF8D919C910496E7CFCD9097
:103C3000DD90ED90FC9020E030E0A901C701B601D5
:103C40000E943A4187FDEACF20E030E04FE753E49D
:103C5000C701B6010E949E3E181604F3C701B601C3
:103C60000E940B41C62EB0CFCF92DF92EF92FF920F
:103C7000CF93DF9300D01F921F92CDB7DEB70E9483
:103C80008D1DDC01892B09F44BC01496EC9114971F
:103C9000E250ED3008F044C0F0E08827ED5AF14ED4
:103CA0008F4F0C943F417F1E901E941E971E601EE6
:103CB000901E901E901E701E901E751E901E9B1EC4
:103CC0006C9170E090E080E00F900F900F900F905B
:103CD0000F90DF91CF91FF90EF90DF90CF900895FC
:103CE0006D917D918D919C91EFCF8D919D910D90D6
:103CF000BC91A02DB7FD14C0BC01CD01E5CFCD0115
:103D00000E9416133A834B835C836D83CA80DB80E9
:103D1000EC80FD80223059F1233059F1213079F0C7
:103D200060E070E0CB01D0CF8D919C91E9CF8D9177
:103D30009C910496E5CFCD90DD90ED90FC9020E035
:103D400030E0A901C701B6010E943A4187FDE8CFE2
:103D50002FEF3FEF4FE75FE4C701B6010E949E3EA1
:103D60001816F4F2C701B6010E940B41ADCFF7FC63
:103D7000D7CFC701B601A8CF8F929F92AF92BF92C3
:103D8000CF92DF92EF92FF920F931F93CF93DF9327
:103D900000D000D0CDB7DEB749015A0167017801E4
:103DA000FB0101900020E9F73197E61BF70B9A839E
:103DB00089837C836B83ED838F2F8F778E83CE01F6
:103DC00001960E948D1D0097B9F0FC0124812A30D4
:103DD00041F02C3089F480819181A281B381B7FDBB
:103DE0000BC0CE0101960E94341E86169706A806C7
:103DF000B90610F44B015C01C501B401C616D70623
:103E0000E806F90610F4C701B60126960FB6F89435
:103E1000DEBF0FBECDBFDF91CF911F910F91FF90FD
:103E2000EF90DF90CF90BF90AF909F908F900895CC
:103E3000CF92DF92EF92FF92CF93DF9300D01F9249
:103E40001F92CDB7DEB70E948D1DDC01892B09F4CE
:103E500048C01496EC911497E250ED3008F041C040
:103E6000F0E08827E95CF04E8F4F0C943F41741FBF
:103E7000711F861F891F441F711F711F711F531FE0
:103E8000711F601F711F8D1F6C9170E0CB010F902F
:103E90000F900F900F900F90DF91CF91FF90EF90C8
:103EA000DF90CF9008958D919D910D90BC91A02DA4
:103EB000811520E89207A105B10598F4BC01E6CF71
:103EC0008D919D910D90BC91A02D6C017D0120E8FC
:103ED000D20EE11CF11CC114D10421E0E206F10470
:103EE00068F370E060E0D2CFCD010E9416133A83F0
:103EF0004B835C836D83CA80DB80EC80FD80223045
:103F000049F1233099F1213061F70BC08D919C91DB
:103F1000ECCF8D919C910496E8CFCD90DD90ED9003
:103F2000FC9020E030E040E057ECC701B6010E9471
:103F30003A4187FDD6CF20E03EEF4FEF56E4C70170
:103F4000B6010E949E3E181664F2C701B6010E9497
:103F500004419CCFD701C6019058AF4FBF4F009787
:103F6000A140B10508F0BDCFB60190CFC11480E8E3
:103F7000D806E104F104C0F3B4CF0F931F93CF939D
:103F8000DF93EC018B010E948D1DFC01892B29F030
:103F900084818A3051F08C30C1F0F80180819181A8
:103FA000DF91CF911F910F91089580819181A2811E
:103FB000B38181159048A105B10578F7CE01DF9155
:103FC000CF911F910F910C94181F80819181A28134
:103FD000B3819058AF4FBF4F0097A140B105E8F6AD
:103FE000EDCF4F925F926F927F92AF92BF92CF923E
:103FF000DF92EF92FF920F931F93CF93DF939091F5
:104000001D06911105C090911E06992309F4E6C082
:1040100090911F069111E2C0823008F0DFC08093BA
:10402000260681110AC0E0914104F09142043097C4
:1040300059F481E080932406D1C0E0914304F091CB
:104040004404309709F483C09089992309F47CC013
:104050000189128923893489041715072607370730
:1040600008F47EC0882309F4C8C082E08093250646
:10407000B5C08F898F5F8F8B9D89891708F4A9C080
:104080008FA5843658F40E94463EA30192010E94F7
:10409000C23F8FA5681710F01F8A9BC01F8A888DAA
:1040A000882351F09D899501281B31099217130629
:1040B00009F05CF4890F8D8B8B89823008F089C000
:1040C000B701A6010E94AD1984C08FE292E00E9460
:1040D000960E8D890E9441178CE292E00E9478171B
:1040E000EBCFCD8EDE8EEF8EF8A273C08DA5811141
:1040F00070C089A19AA1ABA1BCA1A7019601281B00
:10410000390B4A0B5B0BDA01C901B7FD62C08DA107
:104110009EA1AFA1B8A58C199D09AE09BF091816BB
:1041200019061A061B060CF054C08FA5843610F031
:104130000DA7C2CF0E94463EA30192010E94C23F3A
:104140008FA56817A8F345C0882309F472CF81E0D2
:104150008DCF10922406E0914104F091420408C0F2
:104160008823B9F310922506E0914304F0914404AA
:10417000309781F00091190610911A0620911B06C4
:1041800030911C06040F151F261F371F018B128B41
:10419000238B348B6A017B01182FC1E4D4E0AA245D
:1041A000AA94B12C94E6492E512C612C712C01E07B
:1041B0008C89882371F08EA5893011F0181309C0FD
:1041C0008A89813009F48DCF08F453CF823009F405
:1041D0008DCF6E9634E0CD37D30751F7DF91CF9175
:1041E0001F910F91FF90EF90DF90CF90BF90AF9015
:1041F0007F906F905F904F90089582E01BCFBF92A9
:10420000CF92DF92EF92FF920F931F93CF93DF93A2
:10421000EC01198D1F3F81F0612F45960E94051119
:10422000FC018081898F309709F477C014828FEF69
:104230008583BF01812F76C06C0135E0C30ED11C90
:10424000E880F9808F89882341F0C6010E94971188
:10425000E62FF72F182F309749F71F89988D1913DC
:1042600024C0103109F459C0110F6D897E89D7011E
:10427000ED91FC91B4E01B9FA0011124C616D70656
:1042800009F044C00190F081E02DBA01C7011995F1
:10429000009709F442C020E1F601DC0101900D9283
:1042A0002A95E1F79E8B8D8B188F0D891E898F893A
:1042B00021E0280F2F8BE4E08E9FC0011124080F0E
:1042C000191F90E1B92E203111F48FE0B82EF6E0DD
:1042D000BF9EB0011124D701ED91FC910190F081B6
:1042E000E02DC7011995F80193838283892B09F486
:1042F000B12CD801BC9211961C92012B71F0C60111
:104300000E949711E62FF72F182F8DCF0480F5818B
:10431000E02DC7011995009729F681E08A8360E0B6
:1043200070E08FEFDF91CF911F910F91FF90EF9091
:10433000DF90CF90BF9008954F925F926F927F92DF
:104340008F929F92AF92BF92CF92DF92EF92FF92A5
:104350000F931F93CF93DF9300D01F921F92CDB77F
:10436000DEB78C017B01B42E0E9475116C01892B84
:1043700009F048C0C8010E943111863609F4A9C16C
:1043800024F5873229F08B3561F1823209F0A8C11A
:10439000D80115961C921E92149712968D919C919D
:1043A0001397892B39F48D919C910E945F07F80136
:1043B00093838283C8010E94EB146C01892B11F551
:1043C000B701C8010E94CA151DC0843709F460C135
:1043D0008B3709F47BC08E3609F082C166ED72E03E
:1043E00060C180E4D70114968C931497E114F10412
:1043F00021F08FEF8C9311968C93B1101AC025E0A9
:10440000C22ED12CC6010F900F900F900F900F90DD
:10441000DF91CF911F910F91FF90EF90DF90CF90A0
:10442000BF90AF909F908F907F906F905F904F90D4
:104430000895F8011286C8010E947511009751F580
:104440006DE5C8010E9441118111DCCFBA94D801F9
:104450001B966D907C90C3010E94FF20A82E4B01FB
:10446000672B21F494E0C92ED12CCCCFF7016181C8
:104470006F3F91F0C30145960E940511DC0115962E
:10448000AC92F701A1824B2DB401C8010E949C217E
:10449000009739F06C01B6CFD7018C9311968C93AD
:1044A000F2CFC8010E9475110097A1F76DE5C80110
:1044B0000E9441118111A6CF6CE2C8010E944111F6
:1044C0008111C5CF83E0C82ED12C9CCF80E2F701AB
:1044D0008483E114F10419F08FEF80838183BB2082
:1044E00009F48DCFD8011A961C92C8010E9475114B
:1044F000009781F66DE7C8010E944111811182CFBA
:10450000BA94F8011582148282819381892B49F42F
:10451000808191810E945F07D80113969C938E93AE
:104520001297C8010E9431118732F9F08232E9F006
:10453000C8010E943111D82E0E941F11882311F248
:10454000F80112866D2DC8010E94BD14C8010E9499
:104550003111D82E0E941F118111F2CFD80112966D
:104560008D919C91892B41F47DCFC8010E94EB1461
:104570006C01892B09F046CFC8010E9475116C01AE
:10458000892B09F03FCF6AE3C8010E9441118823BB
:1045900009F498CFD8011296ED91FC9113971496D7
:1045A0008D919C911597E80FF91F148214966D91C7
:1045B0007C9115977F771B966D907C901C97129637
:1045C0008D919C910496272F2F77BA2DB078AB2E22
:1045D000A22AE894A7F89301AC017A2DC7010E94A2
:1045E000081D6C01009761F5C3010E94FF20482E51
:1045F0004B01672B09F436CFC3010E94FF20582ED0
:10460000962FC92ED72EC114D10409F42BCFF40153
:104610005582D70111966C916F3F71F0C301459699
:104620000E940511FC014582D70111965C92B401EC
:10463000C8010E94CA1507C0F70140825182F7CF16
:10464000B3010E9467164B2DB601C8010E949C2140
:104650006C01892B09F0D6CEC8010E9475116C013E
:10466000892B09F0CFCE6DE7C8010E94411181115D
:10467000C9CE6CE2C8010E944111882309F422CFFF
:10468000C8010E9475116C01892B09F43ACFBACE8A
:1046900086E0D70114968C93149781E08C936BEC91
:1046A00072E0C8010F900F900F900F900F90DF9164
:1046B000CF911F910F91FF90EF90DF90CF90BF901F
:1046C000AF909F908F907F906F905F904F900C94E1
:1046D000521186E0F7018483108260ED72E0E1CF31
:1046E000C8010E9431114801FDE08F0E911CB12CD0
:1046F000782CA92C803384F08A3384F43FE3B316FA
:10470000A9F0D8011A961C92B394F40181934F0139
:10471000C8010E943111EECF8B3281F393ED980FD7
:10472000923060F3982F9F7D953441F30B0D111D4E
:10473000D8011D961C92872D9A2D0E9416133A833C
:104740004B835C836D838A819B81AC81BD812230E8
:10475000A9F0233059F0213009F0B4CE2EE0F70152
:10476000248380839183A283B3834CCE2AE0F70114
:10477000248380839183A283B38344CE2CE0F7CF3C
:104780004F925F926F927F928F929F92AF92BF9261
:10479000CF92DF92EF92FF920F931F93CF93DF930D
:1047A000CDB7DEB7CF5FD1090FB6F894DEBF0FBE2D
:1047B000CDBF6E012EECC20ED11C86E092E0F60158
:1047C00091838083128214821382C6010596968B90
:1047D000858B178A84E0808F8FEF818F168E878F6D
:1047E0009E012F5F3F4F790110E000E00E94EF092A
:1047F0006093A8037093A9038093AA039093AB03DB
:1048000080EA93E00E94EF0D97FD02C00C94F6320F
:104810000E94EF098090A8039090A903A090AA039A
:10482000B090AB03681979098A099B098090A403A9
:104830009090A503A090A603B090A70368157905F2
:104840008A059B05E8F20F37110561F480EA93E0D1
:104850000E94110E892B31F080EA93E00E94EF0D47
:104860000A97A1F7E1E0F0E0EC0FFD1FE00FF11F68
:1048700010820530110578F045E050E06BED72E0F4
:10488000CE0101960E944D43892B29F48CE599E0D5
:104890000E947817A6C5F60160817181C601059650
:1048A0000E94C311F601128200811181F6018381F9
:1048B0009481009751F0FC0120813181F60134830D
:1048C0002383B8010E945D16F1CF168ECF57DF4FBC
:1048D000D982C882C158D040CD57DF4F1982188283
:1048E000C358D040CB57DF4F19821882C558D040EB
:1048F000C957DF4F1882C758D04021E030E02C0F55
:104900003D1FC857DF4F39832883C858D040C5574B
:10491000DF4F1882CB58D040C457DF4FD982C882AE
:10492000CC58D0404AE0B601665E7F4FCE018F572B
:104930009F4F0E949C218C01892B69F4C657DF4F41
:104940008881CA58D040882331F0F601868D83FFD4
:1049500002C003E010E0CD57DF4F88819981C35832
:10496000D040009751F0CF57DF4FE881F981C1580F
:10497000D040608171810E945D1601151105F1F032
:1049800085EE96E00E94960EF801EE0FFF1FE85AA2
:10499000FA4F859194910E94960E82EE96E00E94C5
:1049A000781780EA93E00E94110E181619060CF091
:1049B00018C580EA93E00E94EF0DF3CFCF57DF4F89
:1049C000D982C882C158D04081EE92E0CD57DF4FE6
:1049D00099838883C358D04083E0CB57DF4F8883C7
:1049E000C558D040CA57DF4F1881C658D0401078FC
:1049F0001068CA57DF4F1883C658D040CE018F5772
:104A00009F4F0E948D1D009709F4EBC4FC01848127
:104A1000882309F4E6C41068CA57DF4F1883C658C4
:104A2000D040CE018F579F4F0E94181F8C01893DA7
:104A3000F1E09F0709F488C00CF035C1883731E0F8
:104A4000930709F461C60CF084C08733914009F4E0
:104A500056C5083381E018070CF040C00D3291E0D4
:104A6000190709F46BC45CF560E00C32F1E01F0734
:104A700009F465C4083EF1E01F0709F40DC30CF00A
:104A8000A5C30C3D110511F40C94A92D0CF099C28D
:104A90000736110511F40C9442300CF050C2053663
:104AA000110511F40C94E22D14F00C9436300436F8
:104AB000110511F40C949D2F84E695E0E9CE0F3298
:104AC00021E0120709F4F7C460E0063331E0130770
:104AD00089F6809117029091180235C4033741E09E
:104AE000140709F433C434F5093381E0180711F6CB
:104AF00000911702109118020E94EF09F801618BD2
:104B0000728B838B948B85849684A784B088DC0118
:104B1000CB01880D991DAA1DBB1D858B968BA78B7C
:104B2000B08F81E080A341E055E067E075E08CE064
:104B300095E0E2C4043791E0190709F46DC4053724
:104B4000E1E01E0709F096CF083D114009F47DC051
:104B500048C48139F1E09F0709F4F1C4CCF58E37E0
:104B600031E0930709F4CDC41CF58D37914009F06D
:104B700081CFEE24EA94FE2C00E010E021E030E04A
:104B800040E050E065EE72E0C6010E94BC1E9B0151
:104B9000AC01E0911702F091180221873287438718
:104BA00054876FE175E089E295E00E94711B19C49A
:104BB000023881E0180709F4BCC560E0003991E0D3
:104BC000190709F057CF8091190290911A02BBC3BF
:104BD0008B39E1E09E0709F4D6C47CF4833921E0E7
:104BE000920709F4AEC460E08A39914009F042CFDF
:104BF00080911B0290911C02A6C38D3941E094075D
:104C000009F4E3C4883D914009F034CF10ECE12E63
:104C100017E2F12E09E010E021E030E040E050E042
:104C20006FEE72E0C6010E94BC1E9B01AC01E091D8
:104C30001902F0911A02218732874387548763EF64
:104C400074E08CEF94E00E94711BCF57DF4FD98244
:104C5000C882C158D0408FEE92E0CD57DF4F998384
:104C60008883C358D04088E0CB57DF4F8883C5582E
:104C7000D040CA57DF4F8881C658D04080788068BE
:104C8000CA57DF4F8883C658D040CE018F579F4FF9
:104C90000E94341E60933A0270933B0280933C0260
:104CA00090933D0205C40F3982E0180709F4C3C48C
:104CB0000CF088C0053FE1E01E0709F4A8C474F5B4
:104CC000023E21E0120709F460C4C4F40C3D41E047
:104CD000140709F0CFCE15E3E12EF12C00E010E02F
:104CE00022E030E040E050E068EF72E0C6010E9450
:104CF000BC1E8091190290911A0218C5063E51E01F
:104D0000150709F429C560E0043F81E0180709F0A0
:104D1000B1CE80911D0290911E0215C3083592E01C
:104D2000190709F47FC4C4F40034F2E01F0709F046
:104D3000A1CE15E3E12EF12C00E010E022E030E0FE
:104D400040E050E068EF72E0C6010E94BC1E809116
:104D50001D0290911E02EAC4093522E0120709F4EF
:104D600058C40B3532E0130709F084CE00911F02BE
:104D7000109120020115110509F433C30E94EF09B7
:104D8000AB01BC01F801458B568B678B708F858515
:104D90009685A785B089840F951FA61FB71F818FA1
:104DA000928FA38FB48FFF24F394F6A2C8010E94C0
:104DB000C00FF801F0A642EB54E068EB74E08DEB15
:104DC00094E09AC3043843E0140709F49BC40CF040
:104DD00075C0043A82E0180709F4D1C40CF054C03D
:104DE000003AE2E01E0709F045CE10ECE12E17E292
:104DF000F12E09E010E021E030E040E050E06FEEFD
:104E000072E0C6010E94BC1E9B01AC01E0911F0232
:104E1000F0912002309751F0258736874787508BD5
:104E200063E974E08CE994E00E94711BCF57DF4F77
:104E3000D982C882C158D0408FEE92E0CD57DF4F63
:104E400099838883C358D04088E0CB57DF4F88834D
:104E5000C558D040CA57DF4F8881C658D0408078A7
:104E60008068CA57DF4F8883C658D040CE018F571D
:104E70009F4F0E94341E60933602709337028093D6
:104E800038029093390214C3093AF2E01F0709F47B
:104E90001FC40A3A22E0120709F0ECCDE0911F028C
:104EA000F0912002309709F49CC281E085A346E688
:104EB00054E062E774E087E794E01EC3003D33E00E
:104EC000130709F476C4BCF4053853E0150709F458
:104ED00011C4073883E0180709F0CCCD8091210276
:104EE000909122020E94AE0F40E554E066E574E026
:104EF0008BE594E001C3043394E0190709F48FC4EF
:104F00000036E5E01E0709F0B5CD809113029091BF
:104F10001402892B09F465C215E3E12EF12C00E09F
:104F200010E022E030E040E050E068EF72E0C601BF
:104F30000E94BC1E809113029091140289C409360C
:104F4000110511F40C94FD3014F40C946030093CFC
:104F5000110509F4ACC50D3C110509F0ADCDCF57D5
:104F6000DF4FD982C882C158D04080E193E0CD574D
:104F7000DF4F99838883C358D04084E0CB57DF4FFD
:104F80008883C558D040CA57DF4F8881C658D04063
:104F900080788068CA57DF4F8883C658D040CE01DA
:104FA0008F579F4F0E94B71D80930B028093590427
:104FB000282F30E050E040E06EE276E086E396E0B5
:104FC000F4CD033831E0130709F4C2C00CF058C027
:104FD000093751E0150709F4BBC00A3781E018070B
:104FE00009F45AC00D3D110509F066CDC251DF4FDD
:104FF0001882CE5ED040CF57DF4FD982C882C158C9
:10500000D0408EE193E0CD57DF4F99838883C3581A
:10501000D04085E0CB57DF4F8883C558D040CA5772
:10502000DF4F8881C658D04080788068CA57DF4FEC
:105030008883C658D040BE0162517F4FCE018F5742
:105040009F4F0E94A61D182F85EA96E0112311F0AC
:105050008FE896E090930A028093090285E011118F
:1050600086E080930C020E94081242EF55E0112363
:1050700011F047EF55E06DEF75E089E096E03CC236
:105080000D3D91E0190709F463C00CF057C00438D6
:10509000F1E01F0709F010CDC251DF4F19821882CD
:1050A000CE5ED040CF57DF4FD982C882C158D040A2
:1050B00082E393E0CD57DF4F99838883C358D04074
:1050C00086E0CB57DF4F8883C558D040CA57DF4FA3
:1050D0008881C658D04080788068CA57DF4F88835F
:1050E000C658D040BE0162517F4FCE018F579F4FAF
:1050F0000E94BD1F5C01F12C8130910531F0FF242D
:10510000F394029711F029E0F22E0A3751E01507C7
:1051100011F00C94F931F09203020E940812F1E0B0
:10512000FF120C941232F0920D079501BB0C440B48
:10513000550B6FE875E08CE995E037CD0E3D21E029
:10514000120709F4A9CF073E31E0130709F0B4CCE8
:10515000CF57DF4FD982C882C158D0408CEF92E040
:10516000CD57DF4F99838883C358D04085E0CB5714
:10517000DF4F8883C558D040CA57DF4F8881C65853
:10518000D04080788068CA57DF4F8883C658D040A7
:10519000CE018F579F4F0E94341E613C27E2720759
:1051A00029E08207910520F060EC77E289E090E049
:1051B000013A32E0130709F04EC360935B06709327
:1051C0005C0680935D0690935E0672C1093344E0ED
:1051D000140709F4FFC3ACF5083E83E0180709F48F
:1051E0006DC384F40C3AE2E01E0709F45BC30D3A88
:1051F000F2E01F0709F45CC3013A22E0120709F04C
:105200005BCCA6CF023334E0130709F459C344F44E
:1052100061E0093E134009F04FCC83E297E093C070
:10522000033384E0180709F483C30833144009F0FA
:1052300043CC1092330740E06AE976E085EA96E0D5
:10524000D7C30531E5E01E0709F4D5C3ECF40D34EE
:1052500024E0120711F40C941A3244F480E00C3468
:10526000144009F029CC0E948617BBC0083954E0CD
:10527000150711F40C941D3260E00431154009F05B
:105280001BCC8DEF96E05FC00F3595E0190709F450
:10529000B4C3E4F50E35154009F00ECCCF57DF4FFF
:1052A000D982C882C158D04082E093E0CD57DF4F09
:1052B00099838883C358D04087E0CB57DF4F8883DA
:1052C000C558D040CA57DF4F8881C658D040807833
:1052D0008068CA57DF4F8883C658D040CE018F57A9
:1052E0009F4F0E94341E4B015C0180920D029092F0
:1052F0000E02A0920F02B09210020E944D08A5016A
:10530000940169E876E081E996E04FCC043625E027
:10531000120709F4C4C30536154009F0CDCB81E06E
:1053200080930D078DEF96E0909305028093040221
:1053300041E066E676E081E796E05AC361E080915D
:105340001502909116020E94431C4BC0EE24EA9471
:10535000FE2C00E010E021E030E040E050E065EE9F
:1053600072E0C6010E94BC1E9B01AC01E0911502D7
:10537000F091160221873287438754876AE475E0EB
:1053800084E595E00E94711BCF57DF4FD982C88218
:10539000C158D04085EE92E0CD57DF4F9983888386
:1053A000C358D04089E0CB57DF4F8883C558D040E1
:1053B000CA57DF4F8881C658D04080788068CA5766
:1053C000DF4F8883C658D040CE018F579F4F0E9431
:1053D000341E60933E0270933F028093400290938C
:1053E0004102C6010E94CF16C150DF4F0FB6F8949C
:1053F000DEBF0FBECDBFDF91CF911F910F91FF9008
:10540000EF90DF90CF90BF90AF909F908F907F9064
:105410006F905F904F90089510ECE12E17E2F12EFF
:1054200009E010E021E030E040E050E06FEE72E093
:10543000C6010E94BC1E9B01AC01E0911502F091D7
:105440001602258736874787508B6DE375E086E423
:1054500095E00E94711BCF57DF4FD982C882C15897
:10546000D0408FEE92E0CD57DF4F99838883C358A9
:10547000D04088E0CB57DF4F8883C558D040CA570B
:10548000DF4F8881C658D04080788068CA57DF4F88
:105490008883C658D040CE018F579F4F0E94341E3C
:1054A00060934202709343028093440290934502BA
:1054B0000E94081296CF00911502109116020E94C8
:1054C000EF09F801618B728B838B948B85849684B2
:1054D000A784B088DC01CB01880D991DAA1DBB1DD6
:1054E000858B968BA78BB08F81E080A34EE255E031
:1054F00064E375E089E395E00E94CB1772CF61E029
:10550000E8CA10ECE12E17E2F12E09E010E021E0EC
:1055100030E040E050E06FEE72E0C6010E94BC1E39
:105520009B01AC01E0911702F091180225873687A4
:105530004787508B61E175E08AE195E036CB61E009
:1055400042CB0091190210911A020E94EF09F80152
:10555000658776878787908B81849284A384B484BF
:10556000DC01CB01880D991DAA1DBB1D818B928B7F
:10557000A38BB48B81E0858B43EE54E069EE74E03D
:105580008EEE94E0B9CF61E033CB10ECE12E17E260
:10559000F12E09E010E021E030E040E050E06FEE55
:1055A00072E0C6010E94BC1E9B01AC01E0911B028F
:1055B000F0911C02218732874387548764ED74E0A1
:1055C0008DED94E00E94711B73CF00911B0210912E
:1055D0001C020E94EF09F801658776878787908B08
:1055E00081849284A384B484DC01CB01880D991D4D
:1055F000AA1DBB1D818B928BA38BB48B81E0858B05
:1056000043EC54E069EC74E08EEC94E075CF61E01B
:1056100080CB80911F029091200261E0009709F0F9
:1056200092CEDFCE80911F029091200260E0009721
:1056300009F089CED6CEEE24EA94FE2C00E010E0EC
:1056400021E030E040E050E065EE72E0C6010E94EB
:10565000BC1E9B01AC01E0911F02F091200230972B
:1056600079F0211531054105510521F02187328757
:105670004387548762EA74E08CEA94E00E94711BCD
:10568000CF57DF4FD982C882C158D04085EE92E013
:10569000CD57DF4F99838883C358D04089E0CB57DB
:1056A000DF4F8883C558D040CA57DF4F8881C6581E
:1056B000D04080788068CA57DF4F8883C658D04072
:1056C000CE018F579F4F0E94B71D8093350289CE20
:1056D000E0911F02F0912002309749F015A24DE7AA
:1056E00054E068E874E08DE894E00E94CB171092D3
:1056F0006D03DECE61E080912102909122020E9432
:10570000A6176FCE60E0F7CF15E3E12EF12C00E095
:1057100010E022E030E040E050E068EF72E0C601C7
:105720000E94BC1E80911502909116020E94AE1C30
:1057300058CE15E3E12EF12C00E010E022E030E03D
:1057400040E050E068EF72E0C6010E94BC1E80910C
:10575000170290911802EACF15E3E12EF12C00E038
:1057600010E022E030E040E050E068EF72E0C60177
:105770000E94BC1E80911B0290911C02D7CF809189
:105780001F0290912002892B09F42BCE15E3E12E04
:10579000F12C00E010E022E030E040E050E068EF63
:1057A00072E0C6010E94BC1E80911F0290912002EF
:1057B000BDCF15E3E12EF12C00E010E022E030E057
:1057C00040E050E068EF72E0C6010E94BC1EF62E79
:1057D0000091210210912202F8018585882331F081
:1057E00060E080810E942B09F8011586F801F082A3
:1057F00061E08F2D0E94590960E0F80180810E94CC
:105800002B098CE094E00E94960EF8018081082E0E
:10581000000C990B0E9448170E94F317E2CD80916B
:10582000110290911202892B09F4DBCD15E3E12ED0
:10583000F12C00E010E022E030E040E050E068EFC2
:1058400072E0C6010E94BC1E80911102909112026A
:105850000E94E41CC6CD093741E0140749F4609367
:10586000690370936A0380936B0390936C0320CE5B
:10587000033851E0150709F4B4CD0D3D114049F44A
:105880006093650370936603809367039093680346
:105890000FCE6093610370936203809363039093D0
:1058A000640306CE81E080936D031092600300CE06
:1058B00081E080936D0380936003FACD60E0ADCC0E
:1058C000CF57DF4FD982C882C158D04082E093E0E1
:1058D000CD57DF4F99838883C358D04087E0CB579B
:1058E000DF4F8883C558D040CA57DF4F8881C658DC
:1058F000D04080788068CA57DF4F8883C658D04030
:10590000CE018F579F4F0E94341E4B015C01809245
:105910000D0290920E02A0920F02B09210020E940D
:105920004D08A501940161ED76E089ED96E03DC951
:10593000CF57DF4FD982C882C158D0406AE0E62EE7
:1059400063E0F62ECD57DF4FF982E882C358D0408E
:1059500015E0CB57DF4F1883C558D040CA57DF4FEB
:105960008881C658D04080788068CA57DF4F8883C6
:10597000C658D040CE018F579F4F0E94B71D0E943E
:105980007A08CF57DF4FD982C882C158D040CD574F
:10599000DF4FF982E882C358D040CB57DF4F1883DE
:1059A000C558D040CA57DF4F8881C658D04080784C
:1059B0008068CA57DF4F8883C658D040CE018F57C2
:1059C0009F4F0E94341E9B01AC0162EC76E088EC94
:1059D00096E0EBC881E08093330783E297E09093F1
:1059E00005028093040241E06EEA76E089EB96E0DE
:1059F0000E94481BF6CC61E044CCCF57DF4FD982E0
:105A0000C882C158D0405AE0E52E53E0F52ECD575C
:105A1000DF4FF982E882C358D04015E0CB57DF4F03
:105A20001883C558D040CA57DF4F8881C658D04028
:105A300080788068CA57DF4F8883C658D040CE012F
:105A40008F579F4F0E94B71D0E947A08CF57DF4F94
:105A5000D982C882C158D040CD57DF4FF982E88241
:105A6000C358D040CB57DF4F1883C558D040CA57D2
:105A7000DF4F8881C658D04080788068CA57DF4F92
:105A80008883C658D040CE018F579F4F0E94341E46
:105A90009B01AC016AE776E080E896E086C8109248
:105AA0000D0740E062E576E08DE596E0A1CFCF57A7
:105AB000DF4FD982C882C158D0404AE0E42E43E08B
:105AC000F42ECD57DF4FF982E882C358D04015E05D
:105AD000CB57DF4F1883C558D040CA57DF4F888156
