:100000000C942A070C940C340C94E1330C94B63302
:100010000C948B330C9460330C9435330C940A336A
:100020000C94DF320C94F7340C945B070C945B0750
:100030000C945B070C9437340C945B070C945B07AF
:100040000C945B070C945B070C945B070C945B07A8
:100050000C945B070C945B070C945B070C94953233
:100060000C945B070C94C1340C9497340C945B078C
:100070000C945B070C945B070C945B070C945B0778
:100080000C945B070C945B070C945B070C945B0768
:100090000C945B070C945B070C945B070C945B0758
:1000A0000C945B070C945B070C945B070C945B0748
:1000B0000C945B070C945B070C945B070C945B0738
:1000C0000C945B070C945B070C945B070C945B0728
:1000D0000C945B070C945B070C945B070C945B0718
:1000E0000C945B070C941D1F0C94B9080C943C1ED7
:1000F0000C941B0E0C949D1D0C940C1F0C94A908C1
:100100000C94471E0C94391F0C94E30D0C94C31DE2
:100110000C94351F0C94431E0C94D9080C94AF0812
:100120000C94401E0C949D1F0C94BC1D0C949A08BA
:100130000C94A91D0C949E080C94CF080C941C1EC2
:100140000C94BF1D0C94850D0C94211E0C94C708B3
:100150000C948B320C940C1E0C9492320C942B1E2B
:100160000C948F1D0C94FF1E0C94321F0C94BA1D1E
:100170000C94D6090C94D4080C94F5090C94D81B53
:100180000C94201F0C948F320C94B20D0C94C10D62
:100190000C94B3080C94D5080C94BD080C94A935A4
:1001A0000C94830E0C94A2080C94CB080C94F01EB3
:1001B0000C94D50D0C94C1080C9494080C94A608CA
:1001C000546F6F44656570004E6F4D656D6F727949
:1001D00000496E76616C6964496E70757400496E91
:1001E000636F6D706C657465496E70757400456DF4
:1001F000707479496E707574004F6B00CDCCCC3D36
:100200000AD7233C17B7D13877CC2B329595E62403
:100210001FB14F0A000020410000C84200401C46A8
:1002200020BCBE4CCA1B0E5AAEC59D74227D007BFD
:10023000226C6576656C223A22303031222C2264A1
:100240006576696365223A22434F4E54524F4C4CB7
:100250004552222C2264657363223A225052207444
:1002600068726573686F6C64206361707065642088
:10027000617420007B226C6576656C223A223030F6
:1002800030222C22646576696365223A22534C4DF4
:10029000222C22706172616D223A2274696D65733D
:1002A00074616D705F70696E222C2276616C756569
:1002B000223A007B226C6576656C223A2230303718
:1002C000222C22646576696365223A22434F4E549C
:1002D000524F4C4C4552222C226576656E74223A60
:1002E00022454E44222C2274696D657374616D70D1
:1002F000223A004C48005248007B226C6576656CBF
:10030000223A22303030222C2270725F7374657072
:10031000223A004C455645525F4C48004C455645E4
:10032000525F524800534C4D004D4943524F534386
:100330004F5045004C49434B004C415345520050EF
:10034000554D50320050554D5000435545320043F5
:10035000554500222C2274726163655F696E746575
:100360007276616C223A002C226163746976655F53
:100370006C65766572223A22007B226C6576656C2C
:10038000223A22303030222C22646576696365225D
:100390003A22434F4E54524F4C4C4552222C22701D
:1003A0006172616469676D223A2250524F4752452B
:1003B00053534956455F524154494F222C22746988
:1003C0006D656F7574223A007B226C6576656C22D0
:1003D0003A22303037222C22646576696365223AEE
:1003E00022434F4E54524F4C4C4552222C2265769C
:1003F000656E74223A225354415254222C2274695D
:100400006D657374616D70223A307D007B226C657E
:1004100076656C223A22303030222C22646576696F
:100420006365223A224D4943524F53434F50452270
:100430002C22706172616D223A227472696767655D
:10044000725F70696E222C2276616C7565223A00AB
:1004500046495245440074657374004D4943524FF8
:1004600053434F504500494E444550454E44454E38
:1004700054006D6F6465004C4153455200434F4E2C
:1004800054494E47454E54006D6F6465004C4153CE
:100490004552006475726174696F6E004C4153453A
:1004A00052006672657175656E6379004C41534503
:1004B000520046495245440074657374004C4153E0
:1004C00045520046495245440074657374005055C6
:1004D0004D5032006475726174696F6E0050554DF5
:1004E00050320046495245440074657374005055BB
:1004F0004D50006475726174696F6E0050554D50B7
:1005000000464952454400746573740043554532B2
:10051000006475726174696F6E0043554532006600
:1005200072657175656E63790043554532004649C1
:1005300052454400746573740043554500647572F8
:100540006174696F6E00435545006672657175652B
:100550006E63790043554500F901EE01DE01D101DA
:10056000C801C0017B226C6576656C223A2230306E
:1005700036222C2264657363223A22436F6D6D61CB
:100580006E64206E6F7420666F756E64227D006CE1
:10059000657665725F66696C74657200434F4E5490
:1005A000524F4C4C45520073657373696F6E5F70A8
:1005B000617573656400434F4E54524F4C4C455225
:1005C00000746573745F6D6F646500434F4E5452E1
:1005D0004F4C4C4552004649524544007465737473
:1005E0005F636861696E00434F4E54524F4C4C45F7
:1005F000520050554D500050554D503200616374BB
:100600006976655F70756D7000434F4E54524F4C64
:100610004C45520074726163655F696E74657276F1
:10062000616C00434F4E54524F4C4C455200707217
:100630005F7374657000434F4E54524F4C4C45529B
:1006400000726174696F00434F4E54524F4C4C45D9
:1006500052007265696E666F72636564004C455640
:1006600045525F4C48007265696E666F72636564DF
:10067000004C455645525F4C4800726174696F00EA
:100680004C455645525F4C480074696D656F7574F2
:10069000004C455645525F4C48007265696E666F66
:1006A00072636564004C455645525F52480072655E
:1006B000696E666F72636564004C455645525F52C1
:1006C0004800726174696F004C455645525F52484C
:1006D0000074696D656F7574004C455645525F52E4
:1006E0004800227D007B226C6576656C223A2230C0
:1006F0003036222C2264657363223A220044495327
:1007000041524D45440041524D454400227D002C4C
:100710002264657363223A2200222C2270696E22C1
:100720003A007B226C6576656C223A2230303122A9
:100730002C22646576696365223A2200222C22709D
:100740006172616D223A2270696E222C2276616C90
:100750007565223A007B226C6576656C223A223000
:100760003030222C22646576696365223A220022A9
:100770002C2276616C7565223A00222C22706172FF
:10078000616D223A22007B226C6576656C223A22EA
:10079000303030222C22646576696365223A22006B
:1007A00066616C7365007472756500222C22766137
:1007B0006C7565223A00222C22706172616D223ABA
:1007C00022007B226C6576656C223A223030302222
:1007D0002C22646576696365223A2200227D00221C
:1007E0002C2276616C7565223A2200222C227061DF
:1007F00072616D223A22007B226C6576656C223A2A
:1008000022303030222C22646576696365223A22D8
:100810000044495341524D45440041524D45440026
:10082000227D002C2264657363223A22007B226CB5
:100830006576656C223A22303031222C226465764E
:10084000696365223A224D4943524F53434F504505
:10085000222C2270696E223A0066616C7365007406
:10086000727565002C226475726174696F6E223A2C
:10087000002C226672657175656E6379223A0022DA
:100880002C2261726D6564223A007B226C6576656C
:100890006C223A22303030222C22646576696365FE
:1008A000223A220066616C73650074727565002CD3
:1008B000226475726174696F6E223A00222C226183
:1008C000726D6564223A007B226C6576656C223A13
:1008D00022303030222C22646576696365223A2208
:1008E0000066616C7365007472756500222C22616C
:1008F000726D6564223A007B226C6576656C223AE3
:1009000022303030222C22646576696365223A22D7
:100910000066616C736500747275650066616C7366
:10092000650074727565002C227265696E666F725F
:10093000636564223A00222C2261726D6564223A5A
:10094000007B226C6576656C223A22303030222C96
:1009500022646576696365223A2200027B226C6517
:1009600076656C223A22303030222C22646576691A
:100970006365223A22434F4E54524F4C4C4552220B
:100980002C22736B65746368223A2270722E696E32
:100990006F222C2276657273696F6E223A2276334B
:1009A0002E302E302D616C7068612E31222C226227
:1009B0006175645F72617465223A3131353230306D
:1009C0002C227363686564756C65223A2250524F1D
:1009D00047524553534956455F524154494F227D32
:1009E000002C22656E645F74696D657374616D704F
:1009F000223A002C226576656E74223A224C4943D5
:100A00004B222C2273746172745F74696D65737408
:100A1000616D70223A00222C2270696E223A007BAE
:100A2000226C6576656C223A22303037222C2264A3
:100A30006576696365223A22002C22656E645F74D4
:100A4000696D657374616D70223A002C226576655C
:100A50006E74223A225354494D222C2273746172CF
:100A6000745F74696D657374616D70223A007B22E6
:100A70006C6576656C223A22303037222C22646510
:100A800076696365223A224C41534552222C2270EA
:100A9000696E223A002C226576656E74223A2254E1
:100AA000494D455354414D50222C2274696D657354
:100AB00074616D70223A007B226C6576656C223A17
:100AC00022303038222C22646576696365223A220E
:100AD0004D4943524F53434F5045222C2270696E6B
:100AE000223A002C226576656E74223A2254494DD2
:100AF000455354414D50222C2274696D65737461C5
:100B00006D70223A007B226C6576656C223A223049
:100B10003039222C22646576696365223A22534C6F
:100B20004D222C2270696E223A0000002100240020
:100B300027002A002D0030003300010100000401CD
:100B400007010A0100002200250028002B002E00CA
:100B50003100340002010000050108010B01000012
:100B600020002300260029002C002F003200000165
:100B70000000030106010901050505050705080830
:100B80000808020202020A0A080804040404010117
:100B9000010101010101030303030303030304072C
:100BA00007070C0C0C0C0C0C0C0C020202020606C3
:100BB0000606060606060B0B0B0B0B0B0B0B0102B6
:100BC000102020080810204010204080020102015F
:100BD0000804020101020408102040808040201017
:100BE0000804020180040201804020100804020170
:100BF00008040201010204081020408001020408D8
:100C00001020408000000A0B02090C0D0E0807039B
:100C100004010000000000000000000000000000CF
:100C200000000000000000000000000000000000C4
:100C30001211100000000000000000000000000081
:100C40000000000000000000000044495341524DE4
:100C500045440041524D454400227D002C226465EC
:100C60007363223A22007B226C6576656C223A22FD
:100C7000303031222C22646576696365223A225332
:100C80004C4D222C2270696E223A004C455645523A
:100C90005F4C48004C455645525F524800227D004B
:100CA0002C226F7269656E746174696F6E223A22CC
:100CB000002C22656E645F74696D657374616D707C
:100CC000223A00222C2273746172745F74696D651C
:100CD0007374616D70223A002C226576656E742201
:100CE0003A225052455353222C22636C6173732273
:100CF0003A2200222C2270696E223A007B226C6517
:100D000076656C223A22303037222C22646576696F
:100D10006365223A220054494D454F555400494ECF
:100D200041435449564500414354495645002C22FD
:100D30007363686564756C65645F6174223A002C46
:100D400022746172676574223A007B226C65766555
:100D50006C223A22303036222C226572726F725F1A
:100D6000636F6465223A22455F50454E44494E47C1
:100D70005F46554C4C222C2264657363223A225004
:100D8000656E64696E6720616374696F6E2071754A
:100D90006575652066756C6C20E2809420616374D3
:100DA000696F6E2064726F70706564222C226163BB
:100DB00074696F6E5F74797065223A005354494DBF
:100DC00000494E465553494F4E00494E46555349EA
:100DD0004F4E00544F4E4500544F4E45004C41532A
:100DE00045520050554D505F320050554D505F31C7
:100DF000004355455F32004355455F31002C226565
:100E00006E645F74696D657374616D70223A00225F
:100E10002C2273746172745F74696D657374616D93
:100E200070223A002C226576656E74223A220022E6
:100E30002C2270696E223A007B226C6576656C22EA
:100E40003A22303037222C22646576696365223A73
:100E50002200A93511241FBECFEFD1E2DEBFCDBFE6
:100E600000E00CBF13E0A0E0B2E0E2ECF5E800E047
:100E70000BBF02C007900D92AA35B107D9F727E042
:100E8000AAE5B3E001C01D92A934B207E1F717E06B
:100E9000CAE2D7E000E006C021970109802FFE01D9
:100EA0000E94AC40C932D10780E00807A9F70E9430
:100EB00034390C94DF420C940000CF93DF93EC01A3
:100EC00088819981DC01ED91FC910190F081E02D08
:100ED00064E270E01995009741F02FE1FC01238353
:100EE00021E02283DF91CF91089521E02A83FACF78
:100EF0008F92AF92CF92EF92FF920F931F93CF9367
:100F0000DF93CDB7DEB73D851092500410925104A7
:100F100051E0509352046093530460935404109230
:100F200055044093560449E040936C0444E64093D2
:100F30006D041092700444E04093CE0410928C042F
:100F400043E040938D04A0928E0410928F0410927F
:100F5000900410929104109292044091E5065091F1
:100F6000E6066091E7067091E8064093930450937B
:100F70009404609395047093960410929704C09221
:100F80009804E6E0CE12382D309399044E0D5F1D83
:100F9000601F711F40939A0450939B0460939C04BC
:100FA00070939D04FC0181859285A385B48580930F
:100FB0009E0490939F04A093A004B093A104109268
:100FC000A20487E08093A30489E08093A404409363
:100FD000A5045093A6046093A7047093A8044091BD
:100FE00053065091540660915506709156064093F1
:100FF000A9045093AA046093AB047093AC0491E0ED
:101000009093AD042093AE048093AF041092B0048B
:101010001092B1041092B2041092B304809116069B
:1010200090911706A0911806B09119068093B40408
:101030009093B504A093B604B093B704DF91CF9119
:101040001F910F91FF90EF90CF90AF908F900895E8
:1010500060931606709317068093180690931906EE
:101060003091CE04ECE8F4E020E023130DC0309181
:101070001105EFECF4E020E02317B1F0408141309E
:1010800071F02F5F3B96F8CF4081413019F02F5F10
:101090003B96EBCF6783708781879287F8CF678312
:1010A000708781879287EDCF08959091500499239E
:1010B00039F090916E0421E030E0992319F0089501
:1010C00030E020E09EE1929FF001939FF00D11240B
:1010D000E25CFB4F858B178AF2CFE1E2F5E01082EC
:1010E000709686E0E132F807D1F708958150823199
:1010F00008F05AC0E82FF0E08827EE57F74F8F4FDF
:101100000C94AC40A208A60894089A089E08D4083B
:10111000A908AF08B308B908BD08C108C708CB08BB
:10112000D408CF08D508D908809180008F778093A4
:1011300080000895809180008F7DF9CF809180009C
:10114000877FF5CF84B58F7784BD089584B58F7D73
:10115000FBCF8091B0008F778093B000089580918D
:10116000B0008F7DF9CF809190008F7780939000B1
:101170000895809190008F7DF9CF80919000877FB6
:10118000F5CF8091A0008F778093A0000895809183
:10119000A0008F7DF9CF8091A000877FF5CF80914F
:1011A00020018F77809320010895809120018F7D09
:1011B000F9CF80912001877FF5CFCF93DF93282F40
:1011C00030E0F901EC5FF34F8491F901E254F44F00
:1011D000D491F901E858F44FC491CC23A1F08111C6
:1011E0000E947608EC2FF0E0EE0FFF1FE25AF44F5A
:1011F000A591B491EC91ED2381E090E009F480E0B9
:10120000DF91CF91089580E090E0FACF1F93CF93C4
:10121000DF93282F30E0F901EC5FF34F8491F9015F
:10122000E254F44FD491F901E858F44FC491CC231F
:10123000A9F0162F81110E947608EC2FF0E0EE0F36
:10124000FF1FEC5BF44FA591B4918FB7F894EC912C
:10125000111108C0D095DE23DC938FBFDF91CF91B1
:101260001F910895DE2BF8CFCF93DF9390E0FC0120
:10127000E254F44F24918858944FFC0184918823C0
:10128000C9F090E0880F991FFC01E65DF44FA5912D
:10129000B491FC01EC5BF44FC591D49161110DC088
:1012A0009FB7F8948C91209582238C938881282372
:1012B00028839FBFDF91CF910895623051F49FB78B
:1012C000F8943C91822F809583238C93E8812E2B78
:1012D000EFCF8FB7F894EC912E2B2C938FBFEACFE2
:1012E0003FB7F8948091990390919A03A0919B0342
:1012F000B0919C0326B5A89B05C02F3F19F001961D
:10130000A11DB11D3FBFBA2FA92F982F8827BC015F
:10131000CD01620F711D811D911D42E0660F771F87
:10132000881F991F4A95D1F708958F929F92AF9287
:10133000BF92CF92DF92EF92FF920E9470094B0111
:101340005C0184E6C82ED12CE12CF12C0E9470099E
:10135000681979098A099B09683E734081059105DE
:10136000A8F321E0C21AD108E108F10888EE880E3E
:1013700083E0981EA11CB11CC114D104E104F10446
:1013800029F7FF90EF90DF90CF90BF90AF909F90A4
:101390008F9008952FB7F8946091950370919603FC
:1013A00080919703909198032FBF08950F931F93F7
:1013B000CF93DF93C0913C04D0913D04209781F0FE
:1013C00081E08A830E94CA09088519852A853B85A0
:1013D000601B710B820B930B6C837D838E839F83C9
:1013E000DF91CF911F910F91089508959091070279
:1013F00089130DC0EBE5F9E0E4919FEF90930702AC
:10140000E230E1F038F4EE2381F0E13089F060E081
:101410000C940609E43049F110F1E530C1F79091E0
:1014200073009D7F90937300F2CF10926E00EFCF08
:1014300090916F009D7F90936F00E9CF9091700025
:101440009D7F9093700091E09093B0009091B100D7
:10145000987F94609093B1001092B300D8CF909190
:1014600071009D7F90937100D2CF909172009D7F0B
:1014700090937200CCCF4F925F926F927F928F9237
:101480009F92AF92BF92CF92DF92EF92FF920F9313
:101490001F93CF93DF9300D01F921F92CDB7DEB77B
:1014A0008B0129013A01909107028917C9F09F3FEA
:1014B00009F491C00F900F900F900F900F90DF9153
:1014C000CF911F910F91FF90EF90DF90CF90BF9041
:1014D000AF909F908F907F906F905F904F90089506
:1014E000EBE5F9E024912D8327FDE4CF61E00E9434
:1014F00034092D81222321F08D81823009F005C22B
:101500004801B12CA12C60E072E18AE790E0A501CE
:1015100098010E942F3F29833A834B835C836901A2
:101520007A0191E0C91AD108E108F1082FEFC2163B
:10153000D104E104F10409F00CF4B6C160E472E4F2
:101540008FE090E0A50198010E942F3F69017A0188
:1015500081E0C81AD108E108F1089D81923009F0B4
:1015600026C182E02FEFC216D104E104F10409F094
:101570000CF46CC160E970ED83E090E0A501980186
:101580000E942F3F69017A0181E0C81AD108E10861
:10159000F10883E09FEFC916D104E104F10409F0DA
:1015A0000CF454C168E478EE81E090E0A501980164
:1015B0000E942F3F69017A0181E0C81AD108E10831
:1015C000F1089FEFC916D104E104F10411F00CF009
:1015D00044C184E03BC180930702EBE5F9E09491BC
:1015E0009D839F3F09F466CF923009F474C058F48C
:1015F000992399F1913009F44CC097FD5BCF61E0DC
:101600000E94340979CF2D81243009F4AEC008F44A
:1016100088C0253091F710922001109221019091FD
:101620002101986090932101909121019160909304
:101630002101282F30E0F901E858F44FE491F0E05F
:10164000EE0FFF1FEC5BF44F45915491F901E2540A
:10165000F44FE491E0936B0349CF14BC15BC94B5EF
:10166000926094BD95B5916095BD282F30E0F90149
:10167000E858F44FE491F0E0EE0FFF1FEC5BF44FFD
:1016800045915491F901E254F44FE491E0936F03D2
:101690002DCF10928000109281009091810098606F
:1016A0009093810090918100916090938100282F08
:1016B00030E0F901E858F44FE491F0E0EE0FFF1F3D
:1016C000EC5BF44F45915491F901E254F44FE491ED
:1016D000E0936E030BCF1092B0001092B100909186
:1016E000B00092609093B0009091B100916090939F
:1016F000B100282F30E0F901E858F44FE491F0E010
:10170000EE0FFF1FEC5BF44F45915491509385030E
:1017100040938403F901E254F44FE491E09386038B
:10172000E5CE1092900010929100909191009860F7
:101730009093910090919100916090939100282F47
:1017400030E0F901E858F44FE491F0E0EE0FFF1FAC
:10175000EC5BF44F45915491F901E254F44FE4915C
:10176000E0936D0393E09D83C1CE1092A000109290
:10177000A1009091A10098609093A1009091A10088
:1017800091609093A100282F30E0F901E858F44FC0
:10179000E491F0E0EE0FFF1FEC5BF44F45915491A4
:1017A000F901E254F44FE491E0936C039FCE2FEFE4
:1017B000C216D104E104F10409F00CF4A4C068E4F9
:1017C00078EE81E090E0A50198010E942F3F690129
:1017D0007A0181E0C81AD108E108F1089D819923B6
:1017E00009F489C19FEFC916D104E104F10409F09D
:1017F0000CF4EFCE62E17AE780E090E0A50194017D
:101800000E942F3F69017A0181E0C81AD108E108DE
:10181000F1089D81992309F453C186E09FEFC91611
:10182000D104E104F10491F088F0C980DA80EB8002
:10183000FC808AE0F594E794D794C7948A95D1F711
:1018400081E0C81AD108E108F10887E09091B10061
:10185000987F892B8093B1002FC064E274EF80E001
:1018600090E0A50194010E942F3F69017A0181E077
:10187000C81AD108E108F10885E09FEFC916D10424
:10188000E104F10419F310F362E17AE780E090E0FB
:10189000A50194010E942F3F69017A0181E0C81AD5
:1018A000D108E108F108B9CF81E02D812111CECF17
:1018B00095B5987F892B85BD2FEF3FEFA901411486
:1018C00051046104710409F049C09D81923009F40A
:1018D000E7C00CF0CEC0992309F4D3C0913009F0D1
:1018E000E9CDD0928900C092880020937C03309388
:1018F0007D0340937E0350937F0380916F0082604D
:1019000080936F00D7CD82E0D0CFB12CA12C60E0C6
:1019100072E18AE790E0A50198010E942F3F6901DA
:101920007A0181E0C81AD108E108F108C114D10494
:1019300091E0E906F10404F591E02D81213069F58B
:1019400080918100887F892B809381002FEF3FEF6A
:10195000A901411451046104710419F2D801AA0FBC
:10196000BB1FA30192010E944E3F28EE33E040E0EE
:1019700050E00E94613FA9CF68E478EE81E090E0FA
:10198000A50198010E942F3F69017A0181E0C81AE0
:10199000D108E108F10893E0D0CF8D81833001F5C3
:1019A00080919100887F892B809391002FEF3FEFEA
:1019B000A901411451046104710481F6D092990087
:1019C000C0929800209378033093790340937A0370
:1019D00050937B03809171008260809371006ACD87
:1019E0002D81243009F58091A100887F892B809377
:1019F000A1002FEF3FEFA9014114510461047104CC
:101A000009F0ACCFD092A900C092A8002093740333
:101A1000309375034093760350937703809172005F
:101A200082608093720046CD8D81853009F044CF6D
:101A300080912101887F892B809321012FEF3FEF37
:101A4000A901411451046104710409F087CFD092B7
:101A50002901C092280120937003309371034093B1
:101A600072035093730380917300826080937300BC
:101A700021CD8D81843031F20CF4A0CF853039F343
:101A800019CDC7BC20938003309381034093820318
:101A90005093830380916E00826080936E000ACD24
:101AA000C092B30020938703309388034093890347
:101AB00050938A0380917000826080937000FACC0A
:101AC00084E02FEFC216D104E104F10409F008F418
:101AD000EFCEC980DA80EB80FC809AE0F594E79441
:101AE000D794C7949A95D1F791E0C91AD108E10823
:101AF000F10885E0DDCE83E02FEFC216D104E104CA
:101B0000F10411F00CF076CED3CEAF92BF92CF920B
:101B1000DF92EF92FF920F931F93CF93DF936C01AD
:101B20007B018B01040F151FEB015E01AE18BF088E
:101B3000C017D10759F06991D601ED91FC91019040
:101B4000F081E02DC6011995892B79F7C501DF9148
:101B5000CF911F910F91FF90EF90DF90CF90BF90AA
:101B6000AF900895FC01538D448D252F30E0842FD4
:101B700090E0821B930B541710F0CF9608950197B5
:101B80000895FC01918D828D981761F0A28DAE0FA2
:101B9000BF2FB11D5D968C91928D9F5F9F73928F29
:101BA00090E008958FEF9FEF0895FC01918D828D55
:101BB000981731F0828DE80FF11D858D90E0089522
:101BC0008FEF9FEF0895FC01918D228D892F90E07A
:101BD000805C9F4F821B91098F73992708958DE92F
:101BE00093E00E94E30D21E0892B09F420E0822F8D
:101BF0000895FC01A48DA80FB92FB11DA35ABF4FA2
:101C00002C91848D90E001968F739927848FA689FB
:101C1000B7892C93A089B1898C91837080648C934F
:101C2000938D848D981306C00288F389E02D8081FE
:101C30008F7D80830895EF92FF920F931F93CF9330
:101C4000DF93EC0181E0888F9B8D8C8D98131AC0F7
:101C5000E889F989808185FF15C09FB7F894EE89DE
:101C6000FF896083E889F98980818370806480833B
:101C70009FBF81E090E0DF91CF911F910F91FF9086
:101C8000EF900895F62E0B8D10E00F5F1F4F0F732E
:101C90001127E02E8C8D8E110CC00FB607FCFACFE9
:101CA000E889F989808185FFF5CFCE010E94F90D81
:101CB000F1CFEB8DEC0FFD2FF11DE35AFF4FF082BA
:101CC0009FB7F8940B8FEA89FB8980818062CFCF20
:101CD0000F931F93CF93DF938C01D0E0C0E0F80106
:101CE000EC0FFD1F6491662341F08DE993E00E94A3
:101CF0001B0E892B11F02196F2CFCE01DF91CF91EF
:101D00001F910F910895CF93DF93EC01888D882365
:101D1000B9F0AA89BB89E889F9898C9185FD03C04E
:101D2000808186FD0DC00FB607FCF7CF8C9185FF33
:101D3000F2CF808185FFEDCFCE010E94F90DE9CF72
:101D4000DF91CF91089580E090E0892B29F00E94E7
:101D5000EF0D81110E94000080E090E0892B49F096
:101D600080E090E0892B29F00E94000081110E9400
:101D7000000080E090E0892B49F080E090E0892B22
:101D800029F00E94000081110E94000080E090E094
:101D9000892B49F080E090E0892B29F00E94000017
:101DA00081110C9400000895CF92DF92EF92FF9280
:101DB0001F93CF93DF93EC016A017B018C810E941A
:101DC000DD0811E0892B09F410E08B85181721F04C
:101DD000CD8ADE8AEF8AF88E8D899E89AF89B88D8B
:101DE000B701A601481B590B6A0B7B0B898D90E04C
:101DF000B0E0A0E084179507A607B70798F48C8594
:101E0000181781F01C878A851817A9F0CA8EDB8EF7
:101E1000EC8EFD8EEAA1FBA1309721F0B701A6015F
:101E2000898519951B87DF91CF911F91FF90EF90C6
:101E3000DF90CF900895CE8EDF8EE8A2F9A2ECA1BC
:101E4000FDA1309779F389851995ECCFFC011582B6
:101E500013861486158616861786108A118A128AAA
:101E6000138A148A158A168A138E8681882311F0A4
:101E7000848183830895CF92DF92EF92FF920F9334
:101E80001F93CF93DF93EC018E81811103C08D8965
:101E9000882369F18C810D851E852F8538896A011B
:101EA0007B01C01AD10AE20AF30A9701860137FDC5
:101EB00018C009891A892B893C89401B510B620B78
:101EC000730B14161506160617065CF061E0DF9119
:101ED000CF911F910F91FF90EF90DF90CF900C94D6
:101EE000060960E00E9406098D8981111D8ADF9133
:101EF000CF911F910F91FF90EF90DF90CF900895B9
:101F0000CF93DF93EC0161E088810E94060981E0B4
:101F10008C870E94CA096D877E878F87988BDF9197
:101F2000CF910895CF92DF92EF92FF92CF93DF93FC
:101F3000EC016A017B0169857A858B859C850E940D
:101F4000103E9B01AC0160E070E080E89FE30E94DE
:101F5000FF3F20E030E040E05FE30E94713E20E080
:101F600030E04AE754E40E94713ECD8EDE8EEF8E63
:101F7000F8A220E030E040E05FE30E94933F0E943F
:101F80007840C60ED71EE81EF91EC9A2DAA2EBA23F
:101F9000FCA28FA191E089278FA3DF91CF91FF90C1
:101FA000EF90DF90CF900895CF92DF92EF92FF9263
:101FB000CF93DF93EC016A017B018D899E89AF8904
:101FC000B88DAB019601281B390B4A0B5B0BDA016C
:101FD000C901B7FD49C0898D9A8DAB8DBC8DAB0110
:101FE0009601281B390B4A0B5B0BDA01C901181645
:101FF00019061A061B06C4F18EA18823A9F189854A
:102000009A85AB85BC850197A105B10551F461E0C6
:102010008C81DF91CF91FF90EF90DF90CF900C9467
:10202000060989A19AA1ABA1BCA1AB019601281B0D
:10203000390B4A0B5B0BDA01C901B7FD04C0A601DD
:10204000CE010E94920F8C819FA1992311F061E033
:10205000E0CF60E00E9406091FA2DF91CF91FF90C0
:10206000EF90DF90CF90089560E08C810E94060988
:102070001FA2898D9A8DAB8DBC8DC81AD90AEA0A28
:10208000FB0A8EA1882331F01C141D041E041F04BA
:102090000CF41EA288A5882301F31C141D041E0441
:1020A0001F04DCF618A6D9CF8F929F92AF92BF92F1
:1020B000CF92DF92EF92FF920F931F93CF93DF9314
:1020C000EC018E81811104C088A1882309F445C0E8
:1020D0007B0189899A89AB89BC894A015B01881A8D
:1020E000990AAA0ABB0AC501B40197FD53C00D891C
:1020F0001E892F89388D4A015701801A910AA20A38
:10210000B30A9501840110161106120613060CF489
:1021100041C02A8D2223A9F10C8D1D8D2E8D3F8D5E
:10212000200F311F2115310511F421E030E0FB8C27
:1021300050E040E00E94613F60177107D8F4F11051
:102140000AC069857A8520E030E0A9018C810E946F
:102150003B0A81E08B8F81E0898FDF91CF911F91C6
:102160000F91FF90EF90DF90CF90BF90AF909F9036
:102170008F900895FF2079F38C810E94F6091B8EC1
:10218000EACF69857A8520E030E0A9018C810E9440
:102190003B0AE1CF898D882301F38C810E94F609E7
:1021A000198E1B8E88A18823C1F218A2D6CF6F3F4B
:1021B000A9F0E62FE295EF7044E0E49F900111242E
:1021C000DC01ED91FC91E20FF31F6F70828193812E
:1021D000B6E06B9F800D911D1124089590E080E082
:1021E0000895982F80336CF08A3324F08F3524F0D3
:1021F0008B3724F481E0089581341CF081E09B3515
:102200000CF080E00895FC01828581110AC0A7814D
:10221000B085CD010196908787838C91818781E07D
:102220008287818508951F93CF93DF93EC01162F4A
:102230000E940311811306C01A8681E0DF91CF91BD
:102240001F91089580E0FACF0F931F93CF93DF93F0
:102250008C01EB018991882369F0C8010E94031168
:10226000882379F0FE013197908198130DC0F80111
:102270001286F0CF90E080E0DF91CF911F910F9117
:10228000089582E090E0F8CF83E090E0F5CFCF931F
:10229000DF93EC01CE010E9403118B304CF48930A6
:1022A0005CF4882359F081E08E8390E080E00BC0DD
:1022B0008D3011F08032B9F71A86ECCF8E81811102
:1022C00005C081E090E0DF91CF91089582E090E039
:1022D000FACFDC0152969C915297915084E0989FDE
:1022E000900111245096ED91FC91E20FF31F228191
:1022F00033812115310579F041818081481758F4E7
:1023000081E0840F818386E0489F200D311D1124D8
:102310002115310521F460E070E08FEF0895B901D7
:10232000892F8295807F840F0895DF92EF92FF922C
:102330000F931F93CF93DF93EC017B01D12C68891E
:1023400079898A89D816E0F484E0D89E8001112426
:10235000060F171FD80112966D917C9161157105BA
:1023600041F0D701ED91FC910280F381E02DC7018E
:102370001995F8011382128210821182D394DFCF53
:102380001A8A8FEF8C8BC617D70761F0D701ED91B2
:10239000FC910280F381E02DC7011995D98BC88B80
:1023A00084E08B8BDF91CF911F910F91FF90EF9085
:1023B000DF9008958F92AF92CF92DF92EF92FF92CB
:1023C0000F931F93CF93DF93C0910802D09109021E
:1023D000E0908B03F0908C0300918D0310918E039D
:1023E00021E080910302909104028F51974009F4FB
:1023F00020E0809100028F9380900102A090020261
:10240000C0900B0240910A0260915304CE010E94D9
:102410007807E091CE040F90E33008F454C0CB5815
:10242000D64009F0A3C0C0905E03D0905F03E09057
:102430006003F090610340916603509167036091DF
:1024400068037091690300918F04109190042091AA
:10245000910430919204040F151F261F371F00931B
:102460008F041093900420939104309392048091F0
:102470009A0490919B04A0919C04B0919D04840FB8
:10248000951FA61FB71F8C0D9D1DAE1DBF1D8093F0
:102490009A0490939B04A0939C04B0939D04809114
:1024A000A5049091A604A091A704B091A804840F5C
:1024B000951FA61FB71F8093A5049093A604A09311
:1024C000A704B093A80480916A03882309F457C035
:1024D000E33018F083E08093A20410926E0481E050
:1024E00080936F04809370048093710480937204CE
:1024F000109273041092740410928A0494E69093DC
:102500008B04809311051092CF0487E08093D00450
:1025100089E08093D1048091570690915806A0914C
:102520005906B0915A068093D2049093D304A09395
:10253000D404B093D5048091530690915406A09191
:102540005506B09156068093D6049093D704A09375
:10255000D804B093D904DF91CF911F910F91FF90D0
:10256000EF90DF90CF90AF908F900895C09062036E
:10257000D0906303E0906403F09065035CCF109209
:102580007004E9CF4F925F926F927F928F929F92E9
:10259000AF92BF92CF92DF92EF92FF920F931F9371
:1025A000CF93DF9300D01F921F92CDB7DEB7DC012F
:1025B0002C912B32E1F12D32D9F50196EE24E394E2
:1025C000FC01208130ED320F3A3010F02E3291F5BF
:1025D0008C0160E070E0CB01F801219130ED832E99
:1025E000820E39E0381508F444C06A3949E97407A5
:1025F000840749E1940708F046C0AAE0B0E09B01D7
:10260000AC010E944E3F912CB12CA12C240135012C
:102610004094509460947094461657066806790664
:1026200090F1680D791D8A1D9B1D8F01D5CF0196F4
:10263000E12CC6CF198229813A814B815C816D8161
:1026400070E080E090E00F900F900F900F900F904F
:10265000DF91CF911F910F91FF90EF90DF90CF907E
:10266000BF90AF909F908F907F906F905F904F90B2
:102670000895211108C0EE2051F1613071058105E6
:1026800050E89507A0F0F12CBAE08B2E912CA12CEC
:10269000B12C6115710530E883079105F8F0A501AB
:1026A00094010E94613FCA01B901F394F2CF22E084
:1026B00029839B01AC0188279927DC01821B930B9E
:1026C000A40BB50B8A839B83AC83BD83B4CF23E07B
:1026D00029836A837B838C839D83ADCFF801D801E6
:1026E0002D918D0130ED320F3A3010F4F394F6CF86
:1026F0002E3201F58F010F5F1F4FF8010F5F1F4F43
:102700002081A0EDDA2ED20EB9E0BD1598F06C3C18
:10271000ECEC7E07ECE08E07910578F7AAE0B0E0DC
:102720009B01AC010E944E3F6D0D711D811D911DDD
:10273000FA94E3CF20812F7D10E000E0253409F0EA
:1027400050C021812D32B1F53296CC24C394DF01E3
:1027500010E000E02F2D0F2C000C330BEAE0BE2E12
:10276000FD01DD9040ED4D0D4A30B0F5B09EA00169
:10277000B19E500D11240D2DDD0C110B00531109CC
:10278000040F151FA801420F531F4732510544F390
:10279000CC20B9F080E090E0A0E0B0E8E11003C008
:1027A00080E090E0DC0121E029838A839B83AC8375
:1027B000BD8341CF2B3219F03196C12CC8CF329650
:1027C000FCCF80E090E0A0E8BFEFE110ECCF80E02C
:1027D00090E0A0E8BFE7E7CFCC2019F01195019574
:1027E00011092081211126CF0F0D111DF7FC1A951B
:1027F0000E94103E44E1A42E42E0B42E10161106B1
:102800003CF01195019511095CEFA52E51E0B52E14
:10281000D12CC12C01151105E9F0F6E0CF16D10439
:10282000A9F000FF0DC0F601EE0FFF1FEE0FFF1F16
:10283000EA0DFB1D25913591459154910E94713E01
:10284000159507952FEFC21AD20AE4CF60E070E029
:1028500080EC9FE7E110905821E029836A837B8315
:102860008C839D83E8CECF92DF92EF92FF920F93FD
:102870001F93CF93DF937C016B018A01FC01C08120
:10288000D1814F3F510509F0B0F4E881F98104800E
:10289000F581E02D4B5F5F4FCE011995009759F000
:1028A000FC010383DF91CF911F910F91FF90EF9077
:1028B000DF90CF900895E881F9810280F381E02DC7
:1028C000B601CE01199581E0F701828390E080E0A6
:1028D000E9CF1F93CF93DF93EC01162F6A817B81A1
:1028E0006115710589F04C815D81FB01838184173D
:1028F000150651F4440F551F4F5F5F4F8881998132
:102900000E9433149B838A838A819B81009759F0AC
:102910002C813D81A9014F5F5F4F5D834C83820F06
:10292000931FFC011483DF91CF911F9108959F9213
:10293000AF92BF92CF92DF92EF92FF920F931F93CD
:10294000CF93DF9300D01F921F92CDB7DEB78C01DB
:102950000E940311D82EF8011286F12CE12C60EFB1
:10296000C62EC8010E940311F8011286D81609F478
:10297000B3C0811113C082E090E00F900F900F90D0
:102980000F900F90DF91CF911F910F91FF90EF90DB
:10299000DF90CF90BF90AF909F9008958C3509F055
:1029A00099C0C8010E940311882329F3E7EAF2E0E5
:1029B000853709F083C0F801128654E0952EB12CBA
:1029C000A12CC8010E9403118823A9F2813434F498
:1029D0008053803130F083E090E0CFCF8F7D8753FC
:1029E000F8CF44E0AA0CBB1C4A95E1F7A82AF801ED
:1029F00012869A949110E5CFC501985D8115944097
:102A000020F47501F3E0FF22ACCFC5019C5D811578
:102A10009440A8F483E0B822B701762F6627770F99
:102A2000770F6A297B2990E080E001966038710574
:102A30008105910540F4C8010E94691492CFB50147
:102A400090E080E0F3CF1982262F2F7320682A832D
:102A500026E096958795779567952A95D1F7603208
:102A6000710580F4606C6B835E01E4E0AE0EB11C16
:102A7000F50162915F01662309F473CFC8010E94DA
:102A80006914F6CF262F2F7320682B8386E0769566
:102A900067958A95E1F76031710538F4606E6C8353
:102AA0005E01F5E0AF0EB11CE3CF60686C83CD82B0
:102AB0005E0126E0A20EB11CDBCF329690819923F5
:102AC00009F489CF8913F9CF8181882309F483CF51
:102AD000F8011286682FAFCF82819381892B19F478
:102AE00084E090E04ACF90E080E047CF6F927F9201
:102AF0008F929F92AF92BF92CF92DF92EF92FF920E
:102B00000F931F93CF93DF93EC012A813B812C5FBE
:102B10003F4F4C815D814430510588F58901F901B1
:102B200080E0942FB22FAE2FA21BA91730F4F190A2
:102B3000A1E0F110A0E08A2BF6CF811120C082E045
:102B4000EB018C83FB01802F8B1B891728F4E80194
:102B500089918E018193F7CF640F751FFB0110825D
:102B6000DF91CF911F910F91FF90EF90DF90CF9069
:102B7000BF90AF909F908F907F906F9008958B0142
:102B8000F901E40FF51F1082888199814C815D81E4
:102B9000DC011396ED91FC913A01E89477F8690114
:102BA000C60CD71C3097C1F0A381A615170481F479
:102BB00049017F01B4E0EB0EF11C8C149D0429F156
:102BC000D401AD904D01D701BD907D01AB14A9F3A7
:102BD0000190F081E02DE6CF6A817B810E94331461
:102BE000FC01A881B98113968D919C9114979183D2
:102BF00080831496FC93EE9313971B821A8285E0D0
:102C0000E8018C83F983E883ABCF82818F5F828375
:102C1000F6CFDB01ED91FC9111970280F381E02D5D
:102C2000BC01CD011994AF92BF92CF92DF92EF9287
:102C3000FF920F931F93CF93DF93EC018B018C8155
:102C400080FF24C0A881B981FB018381948130E099
:102C500020E00097D9F0A817B907D1F5F8016081F5
:102C6000718112968C911297815012968C931297C3
:102C700081110CC08D919C9111972115310529F17D
:102C8000F90191838083CD010E9409168C818076A1
:102C900031F1209721F1F8805801F5E1AF0EB11C18
:102CA0008FEFF816D1F06F2DC5010E94D7106C017F
:102CB000FC01E580B8010E941316F801818DF60130
:102CC0008083F801F18EFE2CEBCF94838383DBCFDE
:102CD0009C01FC0180819181BCCFF882F9821C8229
:102CE000DF91CF911F910F91FF90EF90DF90CF90E8
:102CF000BF90AF9008950F931F93CF93DF93EC0194
:102D0000088119818B819C81009749F0FC01208109
:102D100031813C832B83B8010E940916F3CF68816F
:102D20007981CE010596DF91CF911F910F910C947F
:102D30009511FC0101900020E9F73197AF01481B84
:102D4000590BBC018DE993E00C94850D8F929F92F5
:102D5000AF92BF920F931F93CF93DF93CDB7DEB7A0
:102D6000A1970FB6F894DEBF0FBECDBF19A24230B7
:102D700008F44AE08E010F5D1F4F842E912CB12C78
:102D8000A12CA50194010E94613FE62FB901CA015F
:102D9000EA30F4F4E05DD801EE938D01232B242B6F
:102DA000252B79F790E080E0109719F0CD010E9473
:102DB0009916A1960FB6F894DEBF0FBECDBFDF9176
:102DC000CF911F910F91BF90AF909F908F900895DA
:102DD000E95CE1CF4AE00C94A616682F70E090E021
:102DE00080E04AE00C94A616CF92DF92EF92FF9219
:102DF000CF93DF936C01990FEE08FF08F7FE19C01F
:102E00006DE28DE993E00E941B0EEC0166277727A7
:102E1000CB016C197D098E099F094AE00E94A61614
:102E20008C0F9D1FDF91CF91FF90EF90DF90CF909F
:102E300008954AE0C701B601DF91CF91FF90EF906E
:102E4000DF90CF900C94A616CF93DF930E94680E6C
:102E5000EC018AEB92E00E9499168C0F9D1FDF9186
:102E6000CF910895CF93C82F8093260686E69CE0E5
:102E70000E94680E80912406082E000C990B0E9477
:102E8000F4168CE59CE00E94680E8AE49CE0CC235A
:102E900011F083E59CE00E94680E89E59CE0CF91EB
:102EA0000C9424170F931F93CF938C01C62FFC0112
:102EB00063838DE298E00E94680EF8018081082EFD
:102EC000000C990B0E94F41683E298E00E94680EB1
:102ED00081E198E0CC2311F08AE198E00E94680E2D
:102EE00080E298E0CF911F910F910C942417EF92FC
:102EF000FF920F931F93CF93DF937C018B01EA0125
:102F000087EF97E00E94680EC7010E94680E8BEE63
:102F100097E00E94680EC8010E94680E8FED97E04E
:102F20000E94680ECE010E94680E8CED97E0DF9142
:102F3000CF911F910F91FF90EF900C942417CF9396
:102F4000DF936DE78DE993E00E941B0EEC018AEBA5
:102F500092E00E9499168C0F9D1FDF91CF910895EA
:102F60004F925F926F927F928F929F92AF92BF9299
:102F7000EF92FF920F931F93CF93DF932A013B01B0
:102F800048015901853009F480C008F061C08430DF
:102F900009F46FC0E0914404F09145041481C8ED38
:102FA000DDE047EFE42E4DE0F42E88E39EE00E9442
:102FB000680EC7010E94680E8FE29EE00E94680EB4
:102FC000812F110F990B0E94F41684E29EE00E945B
:102FD000680ECE010E94680E8FE09EE00E94680E8F
:102FE0008091120690911306A0911406B0911506D7
:102FF000A3019201281B390B4A0B5B0BCA01B901D3
:103000000E94EA168DEF9DE00E94680E80911206E4
:1030100090911306A0911406B0911506A501940194
:10302000281B390B4A0B5B0BCA01B9010E94EA1637
:10303000DF91CF911F910F91FF90EF90BF90AF90D4
:103040009F908F907F906F905F904F900C949F1700
:10305000863039F1873009F09DCFE0914C04F09132
:103060004D041481CCEBDDE08DEDE82E8DE0F82EE3
:103070009CCFE0914604F09147041481C3EDDDE05C
:1030800031EFE32E3DE0F32E90CFE0914804F09134
:1030900049041481CAECDDE02AEEE22E2DE0F22E86
:1030A00084CFE0914A04F0914B041481C1ECDDE03F
:1030B00093EEE92E9DE0F92E78CFCF92DF92EF923A
:1030C000FF920F931F93CF93DF93EC0188818130A0
:1030D00009F4D1C06A017B01813090F08230D1F4D3
:1030E00080E594E00E94260F8EE694E0DF91CF9178
:1030F0001F910F91FF90EF90DF90CF900C94260FCF
:103100008981853009F47DC070F48330F1F1843019
:1031100009F45AC0DF91CF911F910F91FF90EF906A
:10312000DF90CF900895863009F488C0873091F7FA
:10313000E0914C04F0914D04309761F3868188232F
:1031400049F385A18111E6CF8F819885A985BA853C
:10315000C58AD68AE78AF08E8C0D9D1DAE1DBF1DD7
:10316000818F928FA38FB48F81E086A3CF010E94BD
:10317000920F0F81188529853A850C0D1D1D2E1D76
:103180003F1DB701A60187E01CC0E0914404F09107
:103190004504309709F4BECF8681882309F4BACF5D
:1031A0000F81188529853A85C18AD28AE38AF48AF3
:1031B0000C0D1D1D2E1D3F1D058B168B278B308F73
:1031C00083E00E94B017A6CFE0914604F091470437
:1031D000309709F49FCF8681882309F49BCF0F8114
:1031E000188529853A85C18AD28AE38AF48A0C0D2A
:1031F0001D1D2E1D3F1D058B168B278B308F84E0E8
:10320000E0CFE0914804F0914904309709F482CF6F
:103210008681882309F47ECF0F81188529853A8518
:10322000C586D686E786F08A0C0D1D1D2E1D3F1D16
:10323000018B128B238B348B85E0C3CFE0914A0442
:10324000F0914B04309709F465CF8681882309F407
:1032500061CF0F81188529853A85C586D686E78690
:10326000F08A0C0D1D1D2E1D3F1D018B128B238B13
:10327000348B86E0A6CF8981E0913E04F0913F0433
:10328000882339F0813009F045CFE0914004F09176
:103290004104309709F43ECFCF80D884E984FA8482
:1032A0004C0D5D1D6E1D7F1D418B528B638B748B8E
:1032B00031CF2F923F924F925F926F927F928F9277
:1032C0009F92AF92BF92CF92DF92EF92FF920F93B5
:1032D0001F93CF93DF9300D01F92CDB7DEB72A01A3
:1032E0003B0103E4809F90011124312C8901C90125
:1032F00082539B4F9A8389834BE0242E49019EE49D
:10330000890E911CE981FA818081381608F098C0F5
:10331000A32CB12CC801239C800D911D1124825C2B
:103320009B4FFC01E25BFF4F2081233039F1805B32
:103330009F4FFC018081893021F0909123068913F1
:103340001DC02A9CF0012B9CF00D1124E00FF11FF1
:10335000E157FB4FC080D180E280F380C114D104DB
:10336000E104F10469F4B301A201C401329C800DAF
:10337000911D1124825C9B4F0E945D183394C2CF33
:10338000C40CD51CE61CF71CE1E2F5E090E080E0FF
:103390002081211125C024E0880F991F2A95E1F78B
:1033A000DC01AE5EBA4F2A9CF0012B9CF00D11247B
:1033B000E00FF11FE457FB4F222D01900D922A954B
:1033C000E1F7825C9B4FFC01E152FF4FC082D1824A
:1033D000E282F3828D519F4F21E0FC012083CECF0A
:1033E000019670968031910599F68AE49DE00E94DD
:1033F000680E2A9CC0012B9C900D1124800F911FF8
:10340000825C9B4F9C838B83FC01E25BFF4F80813E
:103410000E94ED168FE39DE00E94680EEB81FC8117
:10342000E15BFF4F80810E94ED168EE29DE00E94DD
:10343000680EC701B6010E94EA160E949F179ECF30
:103440000F900F900F900F90DF91CF911F910F91E0
:10345000FF90EF90DF90CF90BF90AF909F908F90B4
:103460007F906F905F904F903F902F9008950F93B3
:103470001F93CF93DF938C01D62FC42F81E499E063
:103480000E94680EC8010E94680E86E399E00E94BF
:10349000680E8CE199E0DD2311F082E299E00E9450
:1034A000680E87E299E00E94680E81E199E0CC23E2
:1034B00011F087E199E00E94680EDF91CF911F9192
:1034C0000F910C949F170F931F93CF938C01C62FCE
:1034D00087EF98E00E94680EC8010E94680E8CEE8B
:1034E00098E00E94680E81EE98E0CC2311F087EE00
:1034F00098E00E94680ECF911F910F910C949F1736
:10350000CF92DF92EF92FF920F931F93CF938C0194
:10351000C62F69017A0187EC98E00E94680EC80105
:103520000E94680E8CEB98E00E94680E84EA98E096
:10353000CC2311F08AEA98E00E94680E8FEA98E0A6
:103540000E94680EC701B6010E94EA16CF911F9132
:103550000F91FF90EF90DF90CF900C949F177F9288
:103560008F929F92AF92BF92CF92DF92EF92FF9293
:103570000F931F93CF93DF93EC01762E49015A01ED
:10358000670178018AE898E00E94680ECE010E94E7
:10359000680E8FE798E00E94680E89E598E0772032
:1035A00011F08FE598E00E94680E81E798E00E9494
:1035B000680EC501B4010E94EA1684E698E00E94F4
:1035C000680EC701B6010E94EA16DF91CF911F91E4
:1035D0000F91FF90EF90DF90CF90BF90AF909F90B2
:1035E0008F907F900C949F17EF92FF920F931F93F1
:1035F000CF937C018B01C42F82EC97E00E94680E70
:10360000C7010E94680E86EB97E00E94680EC80111
:103610000E94680E8BEA97E00E94680E80EA97E0AD
:10362000CC2311F086EA97E00E94680ECF911F919B
:103630000F91FF90EF900C949F17CF92DF92EF9233
:10364000FF920F931F93CF93DF938C01EB016901DE
:103650007A0186E897E00E94680EC8010E94680E11
:103660008AE797E00E94680ECE010E94680E8FE6FE
:1036700097E00E94680EC701B6010E94EA16DF912A
:10368000CF911F910F91FF90EF90DF90CF900C940E
:103690009F17009711F00C94991690E080E0089520
:1036A000EF92FF920F931F93CF93DF93C0913E044D
:1036B000D0913F04882321F0C0914004D09141046F
:1036C000209709F46EC0613009F465C008F460C049
:1036D000623009F463C09BE8E92E9CE0F92E811169
:1036E00004C084E9E82E8CE0F82E8CEF9CE00E9468
:1036F000680EC7010E94680E83EF9CE00E94680E6E
:103700008C810E94ED1688ED9CE00E94680EC80135
:103710000E94680E83EC9CE00E94680E6A8D7B8D8F
:103720008C8D9D8D00911206109113062091140628
:1037300030911506601B710B820B930B0E94EA16E9
:1037400081EB9CE00E94680E6E8D7F8D88A199A10F
:10375000009112061091130620911406309115065F
:10376000601B710B820B930B0E94EA1680EA9CE0AF
:103770000E94680ECE010D960E94491B8DE99CE0C7
:10378000DF91CF911F910F91FF90EF900C94241730
:1037900007E21DE0A0CF0EE11DE09DCF06E11DE098
:1037A0009ACFDF91CF911F910F91FF90EF900895E5
:1037B00090911A06911104C090911B06992371F003
:1037C00090911C0691110AC060912106882321F076
:1037D000813021F4609122060C94501B0895CF9300
:1037E000DF93EC016E8382E297E00E94680E8F8186
:1037F00098850E94491B89E197E00E94680E8C81A0
:10380000082E000C990B0E94F4168FE097E00E949E
:10381000680E8E8181110AC08DEF96E00E94680EBD
:103820008CE097E0DF91CF910C94241786E097E02D
:10383000F5CF60E080911002909111020E94EF1B81
:1038400060E080911202909113020E94EF1B60E0F1
:1038500080911402909115020E94EF1B60E080910C
:103860001602909117020E94EF1B60E080911802EF
:10387000909119020E94EF1B60E080911A029091D2
:103880001B020E94EF1B60E080911C0290911D02C0
:103890000E94EF1B80911E0290911F02009719F069
:1038A00060E00E94EF1B60E0809120029091210275
:1038B0000C9452171F93CF93DF93EC01162F8E8138
:1038C000882321F060E0CE010E94EF1B8D818130C2
:1038D00021F460E08C810E9406091C836D81812F98
:1038E0000E9434098D81813021F460E08C810E9436
:1038F000060985E597E00E94680E8F8198850E94F1
:10390000491B8CE397E00E94680E8C81082E000C06
:10391000990B0E94F416DF91CF911F910C949F1781
:10392000CF93DF93EC010E945A1C8C810E94DD082A
:1039300021E0892B09F420E02A878C810E94DD0890
:1039400021E0892B09F420E02B878C810E94DD087F
:1039500021E0892B09F420E02C871D8A1E8A1F8A0A
:10396000188EDF91CF9108959F92AF92BF92CF9220
:10397000DF92EF92FF920F931F93CF93DF938A0111
:10398000452B09F468C0E9016B016596FC01608173
:10399000CE010E94D710FC01BB24BA94892B09F0F8
:1039A000B5807601E894F7F8AA24A3946701C00EC5
:1039B000D11E99249394309709F44DC0AA2009F49C
:1039C0003FC08481843069F0853049F1823079F5D7
:1039D000DF010D900020E9F71197CD018E1B9F0BA1
:1039E00007C00190F081E02D90E080E0309781F7F2
:1039F0009F77E816F90621F5D801AC15BD05E1F46D
:103A00006B2DCE01DF91CF911F910F91FF90EF9021
:103A1000DF90CF90BF90AF909F900C94D710A08173
:103A2000B181FD01349613968C9190E0E2CF90E045
:103A300080E0F0E0E0E0DDCF9D9181919817E9F220
:103A4000A9246B2DCE010E94D710FC01892B09F40B
:103A5000B2CFB580B0CF90E080E0DF91CF911F91E1
:103A60000F91FF90EF90DF90CF90BF90AF909F901D
:103A70000895FC0120813181C9014A964281538118
:103A800064817581009759F0D9015E96EC91E0321E
:103A900011F090E080E0009711F00C94B41C90E0DD
:103AA00080E00895CF93DF93EB010E94391D0097CA
:103AB00041F0FC012481263021F48081DF91CF91F7
:103AC00008958881FBCFCF92DF92EF92FF92CF9340
:103AD000DF9300D01F921F92CDB7DEB70E94391D31
:103AE000DC01892B09F446C01496EC911497E2503E
:103AF000ED3008F03FC0F0E08827EE57F24E8F4FD0
:103B00000C94AC40A91DBA1DBC1DBF1D8F1DBA1D54
:103B1000BA1DBA1D9D1DBA1D9D1DBA1DC31DCC9099
:103B20008C2D0F900F900F900F900F90DF91CF91F1
:103B3000FF90EF90DF90CF900895CD90DD90ED90C5
:103B4000FC908FEFC816D104E104F10449F340F36F
:103B500011C0CD010E94C2123A834B835C836D83F6
:103B6000CA80DB80EC80FD80223059F3233049F39A
:103B7000213069F0C12CD4CF8D919C91EBCF8D91E8
:103B80009C910496E7CFCD90DD90ED90FC9020E0E5
:103B900030E0A901C701B6010E94A74087FDEACF26
:103BA00020E030E04FE753E4C701B6010E940B3E2E
:103BB000181604F3C701B6010E947840C62EB0CF94
:103BC000CF92DF92EF92FF92CF93DF9300D01F92BC
:103BD0001F92CDB7DEB70E94391DDC01892B09F495
:103BE0004BC01496EC911497E250ED3008F044C0AD
:103BF000F0E08827E150F24E8F4F0C94AC402B1E22
:103C00003C1E401E431E0C1E3C1E3C1E3C1E1C1E29
:103C10003C1E211E3C1E471E6C9170E090E080E02F
:103C20000F900F900F900F900F90DF91CF91FF901A
:103C3000EF90DF90CF9008956D917D918D919C9143
:103C4000EFCF8D919D910D90BC91A02DB7FD14C02B
:103C5000BC01CD01E5CFCD010E94C2123A834B8356
:103C60005C836D83CA80DB80EC80FD80223059F15B
:103C7000233059F1213079F060E070E0CB01D0CFF2
:103C80008D919C91E9CF8D919C910496E5CFCD903B
:103C9000DD90ED90FC9020E030E0A901C701B60175
:103CA0000E94A74087FDE8CF2FEF3FEF4FE75FE48B
:103CB000C701B6010E940B3E1816F4F2C701B60107
:103CC0000E947840ADCFF7FCD7CFC701B601A8CF8F
:103CD0008F929F92AF92BF92CF92DF92EF92FF921C
:103CE0000F931F93CF93DF9300D000D0CDB7DEB7F3
:103CF00049015A0167017801FB0101900020E9F7B1
:103D00003197E61BF70B9A8389837C836B83ED8362
:103D10008F2F8F778E83CE0101960E94391D0097D9
:103D2000B9F0FC0124812A3041F02C3089F48081E3
:103D30009181A281B381B7FD0BC0CE0101960E9493
:103D4000E01D86169706A806B90610F44B015C0123
:103D5000C501B401C616D706E806F90610F4C70176
:103D6000B60126960FB6F894DEBF0FBECDBFDF9129
:103D7000CF911F910F91FF90EF90DF90CF90BF9068
:103D8000AF909F908F900895CF92DF92EF92FF9225
:103D9000CF93DF9300D01F921F92CDB7DEB70E9462
:103DA000391DDC01892B09F448C01496EC91149755
:103DB000E250ED3008F041C0F0E08827ED51F14EBF
:103DC0008F4F0C94AC40201F1D1F321F351FF01E5B
:103DD0001D1F1D1F1D1FFF1E1D1F0C1F1D1F391F17
:103DE0006C9170E0CB010F900F900F900F900F909F
:103DF000DF91CF91FF90EF90DF90CF9008958D915C
:103E00009D910D90BC91A02D811520E89207A105F0
:103E1000B10598F4BC01E6CF8D919D910D90BC91B8
:103E2000A02D6C017D0120E8D20EE11CF11CC11413
:103E3000D10421E0E206F10468F370E060E0D2CF43
:103E4000CD010E94C2123A834B835C836D83CA808A
:103E5000DB80EC80FD80223049F1233099F1213064
:103E600061F70BC08D919C91ECCF8D919C91049644
:103E7000E8CFCD90DD90ED90FC9020E030E040E088
:103E800057ECC701B6010E94A74087FDD6CF20E0BE
:103E90003EEF4FEF56E4C701B6010E940B3E1816E5
:103EA00064F2C701B6010E9471409CCFD701C601E0
:103EB0009058AF4FBF4F0097A140B10508F0BDCF5C
:103EC000B60190CFC11480E8D806E104F104C0F334
:103ED000B4CF0F931F93CF93DF93EC018B010E941C
:103EE000391DFC01892B29F084818A3051F08C30F6
:103EF000C1F0F80180819181DF91CF911F910F91E5
:103F0000089580819181A281B38181159048A10596
:103F1000B10578F7CE01DF91CF911F910F910C94ED
:103F2000C41E80819181A281B3819058AF4FBF4F51
:103F30000097A140B105E8F6EDCF4F925F926F92E6
:103F40007F92AF92BF92CF92DF92EF92FF920F9348
:103F50001F93CF93DF9390911A06911105C0909112
:103F60001B06992309F4E6C090911C069111E2C04A
:103F7000823008F0DFC08093230681110AC0E091EF
:103F80003E04F0913F04309759F481E0809321067C
:103F9000D1C0E0914004F0914104309709F483C00E
:103FA0009089992309F47CC0018912892389348975
:103FB000041715072607370708F47EC0882309F47D
:103FC000C8C082E080932206B5C08F898F5F8F8B37
:103FD0009D89891708F4A9C08FA5843658F40E94DA
:103FE000B33DA30192010E942F3F8FA5681710F0E7
:103FF0001F8A9BC01F8A888D882351F09D89950157
:10400000281B31099217130609F05CF4890F8D8B78
:104010008B89823008F089C0B701A6010E94591926
:1040200084C08FE292E00E94680E8D890E94ED1696
:104030008CE292E00E942417EBCFCD8EDE8EEF8EC5
:10404000F8A273C08DA5811170C089A19AA1ABA1FE
:10405000BCA1A7019601281B390B4A0B5B0BDA01A7
:10406000C901B7FD62C08DA19EA1AFA1B8A58C19F1
:104070009D09AE09BF09181619061A061B060CF091
:1040800054C08FA5843610F00DA7C2CF0E94B33D57
:10409000A30192010E942F3F8FA56817A8F345C086
:1040A000882309F472CF81E08DCF10922106E09130
:1040B0003E04F0913F0408C08823B9F31092220611
:1040C000E0914004F0914104309781F00091160690
:1040D000109117062091180630911906040F151F2C
:1040E000261F371F018B128B238B348B6A017B01B8
:1040F000182FCEE3D4E0AA24AA94B12C94E6492E3A
:10410000512C612C712C01E08C89882371F08EA5D3
:10411000893011F0181309C08A89813009F48DCFD4
:1041200008F453CF823009F48DCF6E9634E0CA374D
:10413000D30751F7DF91CF911F910F91FF90EF902F
:10414000DF90CF90BF90AF907F906F905F904F9037
:10415000089582E01BCFBF92CF92DF92EF92FF9241
:104160000F931F93CF93DF93EC01198D1F3F81F0C5
:10417000612F45960E94D710FC018081898F30976E
:1041800009F477C014828FEF8583BF01812F76C039
:104190006C0135E0C30ED11CE880F9808F8988233B
:1041A00041F0C6010E946911E62FF72F182F3097B2
:1041B00049F71F89988D191324C0103109F459C08B
:1041C000110F6D897E89D701ED91FC91B4E01B9FA1
:1041D000A0011124C616D70609F044C00190F08151
:1041E000E02DBA01C7011995009709F442C020E1FA
:1041F000F601DC0101900D922A95E1F79E8B8D8BE3
:10420000188F0D891E898F8921E0280F2F8BE4E0FC
:104210008E9FC0011124080F191F90E1B92E203183
:1042200011F48FE0B82EF6E0BF9EB0011124D70143
:10423000ED91FC910190F081E02DC7011995F801F5
:1042400093838283892B09F4B12CD801BC921196F7
:104250001C92012B71F0C6010E946911E62FF72F05
:10426000182F8DCF0480F581E02DC7011995009797
:1042700029F681E08A8360E070E08FEFDF91CF91D3
:104280001F910F91FF90EF90DF90CF90BF90089516
:104290004F925F926F927F928F929F92AF92BF9256
:1042A000CF92DF92EF92FF920F931F93CF93DF9302
:1042B00000D01F921F92CDB7DEB78C017B01B42EC8
:1042C0000E9447116C01892B09F048C0C8010E9467
:1042D0000311863609F4A9C124F5873229F08B35FC
:1042E00061F1823209F0A8C1D80115961C921E9284
:1042F000149712968D919C911397892B39F48D9177
:104300009C910E945D07F80193838283C8010E94FB
:1043100097146C01892B11F5B701C8010E9476151D
:104320001DC0843709F460C18B3709F47BC08E3619
:1043300009F082C165ED72E060C180E4D701149696
:104340008C931497E114F10421F08FEF8C93119664
:104350008C93B1101AC025E0C22ED12CC6010F904B
:104360000F900F900F900F90DF91CF911F910F91B1
:10437000FF90EF90DF90CF90BF90AF909F908F9085
:104380007F906F905F904F900895F8011286C8015A
:104390000E944711009751F56DE5C8010E94131165
:1043A0008111DCCFBA94D8011B966D907C90C3012B
:1043B0000E94AB20A82E4B01672B21F494E0C92E5C
:1043C000D12CCCCFF70161816F3F91F0C3014596AD
:1043D0000E94D710DC011596AC92F701A1824B2DFB
:1043E000B401C8010E944821009739F06C01B6CF92
:1043F000D7018C9311968C93F2CFC8010E9447117C
:104400000097A1F76DE5C8010E9413118111A6CF95
:104410006CE2C8010E9413118111C5CF83E0C82E40
:10442000D12C9CCF80E2F7018483E114F10419F0D0
:104430008FEF80838183BB2009F48DCFD8011A963A
:104440001C92C8010E944711009781F66DE7C801D0
:104450000E941311811182CFBA94F801158214823F
:1044600082819381892B49F4808191810E945D072B
:10447000D80113969C938E931297C8010E94031142
:104480008732F9F08232E9F0C8010E940311D82E78
:104490000E94F110882311F2F80112866D2DC801D7
:1044A0000E946914C8010E940311D82E0E94F110C5
:1044B0008111F2CFD80112968D919C91892B41F4F4
:1044C0007DCFC8010E9497146C01892B09F046CF5B
:1044D000C8010E9447116C01892B09F03FCF6AE3A4
:1044E000C8010E941311882309F498CFD8011296AD
:1044F000ED91FC91139714968D919C911597E80F6F
:10450000F91F148214966D917C9115977F771B96F5
:104510006D907C901C9712968D919C910496272FFC
:104520002F77BA2DB078AB2EA22AE894A7F8930182
:10453000AC017A2DC7010E94B41C6C01009761F593
:10454000C3010E94AB20482E4B01672B09F436CFE4
:10455000C3010E94AB20582E962FC92ED72EC1140E
:10456000D10409F42BCFF4015582D70111966C9137
:104570006F3F71F0C30145960E94D710FC01458240
:10458000D70111965C92B401C8010E94761507C04C
:10459000F70140825182F7CFB3010E9413164B2DD1
:1045A000B601C8010E9448216C01892B09F0D6CEC2
:1045B000C8010E9447116C01892B09F0CFCE6DE72D
:1045C000C8010E9413118111C9CE6CE2C8010E947A
:1045D0001311882309F422CFC8010E9447116C01EE
:1045E000892B09F43ACFBACE86E0D70114968C9382
:1045F000149781E08C936AEC72E0C8010F900F90E1
:104600000F900F900F90DF91CF911F910F91FF901E
:10461000EF90DF90CF90BF90AF909F908F907F9062
:104620006F905F904F900C94241186E0F701848383
:1046300010826FEC72E0E1CFC8010E9403114801C3
:10464000FDE08F0E911CB12C782CA92C803384F0C6
:104650008A3384F43FE3B316A9F0D8011A961C926A
:10466000B394F40181934F01C8010E940311EECF6E
:104670008B3281F393ED980F923060F3982F9F7DEA
:10468000953441F30B0D111DD8011D961C92872DF9
:104690009A2D0E94C2123A834B835C836D838A8178
:1046A0009B81AC81BD812230A9F0233059F02130AB
:1046B00009F0B4CE2EE0F701248380839183A28396
:1046C000B3834CCE2AE0F701248380839183A283B5
:1046D000B38344CE2CE0F7CF4F925F926F927F92DC
:1046E0008F929F92AF92BF92CF92DF92EF92FF9202
:1046F0000F931F93CF93DF93CDB7DEB7CF5FD10971
:104700000FB6F894DEBF0FBECDBF6E012EECC20E09
:10471000D11C85E092E0F60191838083128214829D
:104720001382C6010596968B858B178A84E0808F4D
:104730008FEF818F168E878F9E012F5F3F4F7901FC
:1047400010E000E00E94CA096093A5037093A603DD
:104750008093A7039093A8038DE993E00E94C10D75
:1047600097FD02C00C947A320E94CA098090A5037A
:104770009090A603A090A703B090A80368197909A8
:104780008A099B098090A1039090A203A090A303A3
:10479000B090A403681579058A059B05E8F20F37E8
:1047A000110561F48DE993E00E94E30D892B31F04E
:1047B0008DE993E00E94C10D0A97A1F7E1E0F0E0D6
:1047C000EC0FFD1FE00FF11F10820530110578F08E
:1047D00045E050E06AED72E0CE0101960E94BA42D7
:1047E000892B29F48CE599E00E942417E0C5F60195
:1047F00060817181C60105960E949511F6011282B1
:1048000000811181F60183819481009751F0FC01B0
:1048100020813181F60134832383B8010E94091677
:10482000F1CF168ECF57DF4FD982C882C158D04002
:10483000CD57DF4F19821882C358D040CB57DF4F76
:1048400019821882C558D040C957DF4F1882C758FF
:10485000D04021E030E02C0F3D1FC857DF4F398397
:104860002883C858D040C557DF4F1882CB58D04056
:10487000C457DF4FD982C882CC58D0404AE0B60135
:10488000665E7F4FCE018F579F4F0E9448218C015B
:10489000892B69F4C657DF4F8881CA58D0408823D6
:1048A00031F0F601868D83FF02C003E010E0CD57A2
:1048B000DF4F88819981C358D040009751F0CF577E
:1048C000DF4FE881F981C158D040608171810E9439
:1048D000091601151105F1F085EE96E00E94680EAB
:1048E000F801EE0FFF1FE85AFA4F859194910E944C
:1048F000680E82EE96E00E9424178DE993E00E94F4
:10490000E30D181619060CF052C58DE993E00E94CC
:10491000C10DF3CFCF57DF4FD982C882C158D040E5
:1049200080EE92E0CD57DF4F99838883C358D04003
:1049300083E0CB57DF4F8883C558D040CA57DF4F3D
:104940001881C658D04010781068CA57DF4F1883B6
:10495000C658D040CE018F579F4F0E94391D0097F7
:1049600009F425C5FC018481882309F420C5106859
:10497000CA57DF4F1883C658D040CE018F579F4F7C
:104980000E94C41E8C01893DF1E09F0709F488C094
:104990000CF035C1883731E0930709F49BC60CF061
:1049A00084C08733914009F490C5083381E018072B
:1049B0000CF040C00D3291E0190709F4A5C45CF574
:1049C00060E00C32F1E01F0709F49FC4083EF1E0FB
:1049D0001F0709F40DC30CF0A9C30C3D110511F418
:1049E0000C944C2D0CF099C20736110511F40C945F
:1049F000D72F0CF050C20536110511F40C94852DFB
:104A000014F00C94CB2F0436110511F40C943E2FA6
:104A100084E695E0E9CE0F3221E0120709F431C5B2
:104A200060E0063331E0130789F680911602909119
:104A300017026FC4033741E0140709F46DC434F55D
:104A4000093381E0180711F6009116021091170240
:104A50000E94CA09F801618B728B838B948B8584C9
:104A60009684A784B088DC01CB01880D991DAA1D0E
:104A7000BB1D858B968BA78BB08F81E080A341E017
:104A800055E067E075E08CE095E01CC5043791E0E7
:104A9000190709F4A7C40537E1E01E0709F096CF0E
:104AA000083D114009F47DC082C48139F1E09F07BF
:104AB00009F42BC5CCF58E3731E0930709F407C50F
:104AC0001CF58D37914009F081CFEE24EA94FE2C3D
:104AD00000E010E021E030E040E050E064EE72E001
:104AE000C6010E94681E9B01AC01E0911602F09184
:104AF000170221873287438754876FE175E089E287
:104B000095E00E941D1B53C4023881E0180709F488
:104B1000F6C560E0003991E0190709F057CF8091A0
:104B2000180290911902F5C38B39E1E09E0709F450
:104B300010C57CF4833921E0920709F4E8C460E0F1
:104B40008A39914009F042CF80911A0290911B025C
:104B5000E0C38D3941E0940709F41DC5883D9140BB
:104B600009F034CF10ECE12E17E2F12E09E010E04D
:104B700021E030E040E050E06EEE72E0C6010E94BD
:104B8000681E9B01AC01E0911802F0911902218787
:104B900032874387548763EF74E08CEF94E00E9480
:104BA0001D1BCF57DF4FD982C882C158D0408EEE2F
:104BB00092E0CD57DF4F99838883C358D04088E077
:104BC000CB57DF4F8883C558D040CA57DF4F888105
:104BD000C658D04080788068CA57DF4F8883C6584F
:104BE000D040CE018F579F4F0E94E01D6093390245
:104BF00070933A0280933B0290933C023FC40F397A
:104C000082E0180709F4FDC40CF088C0053FE1E01C
:104C10001E0709F4E2C474F5023E21E0120709F40C
:104C20009AC4C4F40C3D41E0140709F0CFCE15E35B
:104C3000E12EF12C00E010E022E030E040E050E016
:104C400067EF72E0C6010E94681E80911802909181
:104C5000190252C5063E51E0150709F463C560E02C
:104C6000043F81E0180709F0B1CE80911C029091B9
:104C70001D024FC3083592E0190709F4B9C4C4F402
:104C80000034F2E01F0709F0A1CE15E3E12EF12C6C
:104C900000E010E022E030E040E050E067EF72E03A
:104CA000C6010E94681E80911C0290911D0224C5BD
:104CB000093522E0120709F492C40B3532E01307DC
:104CC00009F084CE00911E0210911F0201151105FA
:104CD00009F46DC30E94CA09AB01BC01F801458B00
:104CE000568B678B708F85859685A785B089840FD5
:104CF000951FA61FB71F818F928FA38FB48FFF249C
:104D0000F394F6A2C8010E94920FF801F0A642EBBC
:104D100054E068EB74E08DEB94E0D4C3043843E0D6
:104D2000140709F4D5C40CF075C0043A82E01807E2
:104D300009F40BC50CF054C0003AE2E01E0709F07C
:104D400045CE10ECE12E17E2F12E09E010E021E053
:104D500030E040E050E06EEE72E0C6010E94681E56
:104D60009B01AC01E0911E02F0911F02309751F0BF
:104D7000258736874787508B63E974E08CE994E098
:104D80000E941D1BCF57DF4FD982C882C158D04027
:104D90008EEE92E0CD57DF4F99838883C358D04081
:104DA00088E0CB57DF4F8883C558D040CA57DF4FC4
:104DB0008881C658D04080788068CA57DF4F888382
:104DC000C658D040CE018F579F4F0E94E01D609380
:104DD00035027093360280933702909338024EC3A7
:104DE000093AF2E01F0709F459C40A3A22E012070F
:104DF00009F0ECCDE0911E02F0911F02309709F40A
:104E0000D6C281E085A346E654E062E774E087E716
:104E100094E058C3003D33E0130709F4B0C4BCF478
:104E2000053853E0150709F44BC4073883E0180729
:104E300009F0CCCD80912002909121020E94800F38
:104E400040E554E066E574E08BE594E03BC3043351
:104E500094E0190709F4C9C40036E5E01E0709F01B
:104E6000B5CD8091120290911302892B09F49FC253
:104E700015E3E12EF12C00E010E022E030E040E00C
:104E800050E067EF72E0C6010E94681E8091120236
:104E900090911302C3C40936110511F40C94923099
:104EA00014F40C94F52F093C110509F4A3C50D3C2D
:104EB000110509F0ADCDCF57DF4FD982C882C15857
:104EC000D0408FE093E0CD57DF4F99838883C3585C
:104ED000D04084E0CB57DF4F8883C558D040CA57B5
:104EE000DF4F8881C658D04080788068CA57DF4F2E
:104EF0008883C658D040CE018F579F4F0E94631DB4
:104F000080930A0280935604282F30E050E040E05E
:104F10006EE276E086E396E0F4CD033831E01307E5
:104F200009F4C2C00CF058C0093751E0150709F464
:104F3000BBC00A3781E0180709F45AC00D3D1105BE
:104F400009F066CDC251DF4F1882CE5ED040CF57F8
:104F5000DF4FD982C882C158D0408DE193E0CD5750
:104F6000DF4F99838883C358D04085E0CB57DF4F0C
:104F70008883C558D040CA57DF4F8881C658D04073
:104F800080788068CA57DF4F8883C658D040BE01FA
:104F900062517F4FCE018F579F4F0E94521D182F95
:104FA00081EA96E0112311F08BE896E090930902D4
:104FB0008093080285E0111186E080930B020E9425
:104FC000DA1142EF55E0112311F047EF55E06DEF94
:104FD00075E089E096E076C20D3D91E0190709F48D
:104FE00063C00CF057C00438F1E01F0709F010CD82
:104FF000C251DF4F19821882CE5ED040CF57DF4FAB
:10500000D982C882C158D04081E393E0CD57DF4FA9
:1050100099838883C358D04086E0CB57DF4F88837D
:10502000C558D040CA57DF4F8881C658D0408078D5
:105030008068CA57DF4F8883C658D040BE0162518E
:105040007F4FCE018F579F4F0E94691F5C01F12C4B
:105050008130910531F0FF24F394029711F029E09B
:10506000F22E0A3751E0150711F00C948B31F092B3
:1050700002020E94DA11E1E0FE120C949C31F092DF
:1050800009079501BB0C440B550B6FE875E08CE9E3
:1050900095E037CD0E3D21E0120709F4A9CF073E78
:1050A00031E0130709F0B4CCCF57DF4FD982C88263
:1050B000C158D0408BEF92E0CD57DF4F9983888362
:1050C000C358D04085E0CB57DF4F8883C558D040C8
:1050D000CA57DF4F8881C658D04080788068CA5749
:1050E000DF4F8883C658D040CE018F579F4F0E9414
:1050F000E01D61362AEE72078105910520F060E619
:105100007AEE80E090E0013A32E0130709F089C3BB
:1051100060935706709358068093590690935A06E9
:1051200080916A03882309F442C1A8C10C3444E089
:10513000140711F40C94A4310CF073C0093E83E001
:10514000180709F499C38CF40C3AE2E01E0709F43D
:105150008FC360E0083EF3E01F0709F48EC3013AF5
:1051600022E0120709F054CC9FCF033334E0130739
:1051700009F486C3E4F50233144009F049CCCF5753
:10518000DF4FD982C882C158D04081E093E0CD572B
:10519000DF4F99838883C358D04087E0CB57DF4FD8
:1051A0008883C558D040CA57DF4F8881C658D04041
:1051B00080788068CA57DF4F8883C658D040CE01B8
:1051C0008F579F4F0E94E01D4B015C0180920C02A3
:1051D00090920D02A0920E02B0920F020E94280837
:1051E000A501940161ED76E089ED96E08ACC083363
:1051F00084E0180709F496C30933144009F008CC79
:1052000081E080932F078FE197E0909304028093D1
:10521000030241E06EEA76E089EB96E00E94F41A20
:10522000C6C00531E5E01E0709F484C39CF40839C3
:1052300024E0120711F40C94A731043135E0130770
:1052400009F47CC30D34144009F0E2CB81E00E94E4
:105250003217ADC00F3555E0150709F471C3E4F5F9
:105260000E35154009F0D4CBCF57DF4FD982C88215
:10527000C158D04081E093E0CD57DF4F99838883B8
:10528000C358D04087E0CB57DF4F8883C558D04004
:10529000CA57DF4F8881C658D04080788068CA5787
:1052A000DF4F8883C658D040CE018F579F4F0E9452
:1052B000E01D4B015C0180920C0290920D02A092C5
:1052C0000E02B0920F020E942808A501940169E81D
:1052D00076E081E996E015CC0436E5E01E0709F496
:1052E00081C30536154009F093CB81E0809309070F
:1052F00089EF96E0909304028093030241E066E612
:1053000076E081E796E08ACF61E080911402909187
:1053100015020E94EF1B4BC0EE24EA94FE2C00E025
:1053200010E021E030E040E050E064EE72E0C601C1
:105330000E94681E9B01AC01E0911402F0911502DD
:1053400021873287438754876AE475E084E595E0D6
:105350000E941D1BCF57DF4FD982C882C158D04051
:1053600084EE92E0CD57DF4F99838883C358D040B5
:1053700089E0CB57DF4F8883C558D040CA57DF4FED
:105380008881C658D04080788068CA57DF4F8883AC
:10539000C658D040CE018F579F4F0E94E01D6093AA
:1053A0003D0270933E0280933F0290934002C601FB
:1053B0000E947B16C150DF4F0FB6F894DEBF0FBEC0
:1053C000CDBFDF91CF911F910F91FF90EF90DF90B4
:1053D000CF90BF90AF909F908F907F906F905F9095
:1053E0004F90089510ECE12E17E2F12E09E010E045
:1053F00021E030E040E050E06EEE72E0C6010E9435
:10540000681E9B01AC01E0911402F0911502258702
:1054100036874787508B6DE375E086E495E00E9400
:105420001D1BCF57DF4FD982C882C158D0408EEEA6
:1054300092E0CD57DF4F99838883C358D04088E0EE
:10544000CB57DF4F8883C558D040CA57DF4F88817C
:10545000C658D04080788068CA57DF4F8883C658C6
:10546000D040CE018F579F4F0E94E01D60934102B4
:105470007093420280934302909344020E94DA1197
:1054800096CF00911402109115020E94CA09F801EA
:10549000618B728B838B948B85849684A784B08870
:1054A000DC01CB01880D991DAA1DBB1D858B968B38
:1054B000A78BB08F81E080A34EE255E064E375E0F6
:1054C00089E395E00E94771772CF61E0AECA10ECD5
:1054D000E12E17E2F12E09E010E021E030E040E09B
:1054E00050E06EEE72E0C6010E94681E9B01AC01A6
:1054F000E0911602F0911702258736874787508B77
:1055000061E175E08AE195E0FCCA61E008CB0091B9
:105510001802109119020E94CA09F801658776875E
:105520008787908B81849284A384B484DC01CB012F
:10553000880D991DAA1DBB1D818B928BA38BB48BEB
:1055400081E0858B43EE54E069EE74E08EEE94E0EA
:10555000B9CF61E0F9CA10ECE12E17E2F12E09E0B3
:1055600010E021E030E040E050E06EEE72E0C60175
:105570000E94681E9B01AC01E0911A02F0911B028F
:10558000218732874387548764ED74E08DED94E082
:105590000E941D1B73CF00911A0210911B020E94E2
:1055A000CA09F801658776878787908B8184928402
:1055B000A384B484DC01CB01880D991DAA1DBB1DF9
:1055C000818B928BA38BB48B81E0858B43EC54E071
:1055D00069EC74E08EEC94E075CF61E046CB80918D
:1055E0001E0290911F0261E0009709F092CEDFCE7B
:1055F00080911E0290911F0260E0009709F089CE11
:10560000D6CEEE24EA94FE2C00E010E021E030E05B
:1056100040E050E064EE72E0C6010E94681E9B010B
:10562000AC01E0911E02F0911F02309779F0211534
:1056300031054105510521F0218732874387548781
:1056400062EA74E08CEA94E00E941D1BCF57DF4FA2
:10565000D982C882C158D04084EE92E0CD57DF4F46
:1056600099838883C358D04089E0CB57DF4F888324
:10567000C558D040CA57DF4F8881C658D04080787F
:105680008068CA57DF4F8883C658D040CE018F57F5
:105690009F4F0E94631D8093340289CEE0911E02C9
:1056A000F0911F02309749F015A24DE754E068E8E9
:1056B00074E08DE894E00E94771710926A03DECEC2
:1056C00061E080912002909121020E9452176FCEDA
:1056D00060E0F7CF15E3E12EF12C00E010E022E0CE
:1056E00030E040E050E067EF72E0C6010E94681EC3
:1056F00080911402909115020E945A1C58CE15E315
:10570000E12EF12C00E010E022E030E040E050E03B
:1057100067EF72E0C6010E94681E809116029091A8
:105720001702EACF15E3E12EF12C00E010E022E0B1
:1057300030E040E050E067EF72E0C6010E94681E72
:1057400080911A0290911B02D7CF80911E029091F6
:105750001F02892B09F42BCE15E3E12EF12C00E07A
:1057600010E022E030E040E050E067EF72E0C60178
:105770000E94681E80911E0290911F02BDCF15E30A
:10578000E12EF12C00E010E022E030E040E050E0BB
:1057900067EF72E0C6010E94681EF62E009120029B
:1057A00010912102F8018485882331F060E0808126
:1057B0000E940609F8011486F801F08261E08F2D3D
:1057C0000E94340960E0F80180810E9406098CE0A3
:1057D00094E00E94680EF8018081082E000C990B5D
:1057E0000E94F4160E949F17E2CD809110029091C2
:1057F0001102892B09F4DBCD15E3E12EF12C00E039
:1058000010E022E030E040E050E067EF72E0C601D7
:105810000E94681E80911002909111020E94901CBB
:10582000C6CD093741E0140749F4609366037093CD
:105830006703809368039093690320CE033851E097
:10584000150709F4B4CD0D3D114049F4609362038E
:105850007093630380936403909365030FCE60930A
:105860005E0370935F03809360039093610306CEA1
:1058700081E080936A0302CE61E08FE197E049CD39
:10588000CF57DF4FD982C882C158D04069E0E62E99
:1058900063E0F62ECD57DF4FF982E882C358D0403F
:1058A00015E0CB57DF4F1883C558D040CA57DF4F9C
:1058B0008881C658D04080788068CA57DF4F888377
:1058C000C658D040CE018F579F4F0E94631D0E9443
:1058D0005508CF57DF4FD982C882C158D040CD5725
:1058E000DF4FF982E882C358D040CB57DF4F18838F
:1058F000C558D040CA57DF4F8881C658D0408078FD
:105900008068CA57DF4F8883C658D040CE018F5772
:105910009F4F0E94E01D9B01AC0162EC76E088EC99
:1059200096E0EFC810922F0740E06AE976E085EA3A
:1059300096E074CC61E089EF96E0EBCC60E0FBCFC1
:10594000CF57DF4FD982C882C158D04059E0E52EE9
:1059500053E0F52ECD57DF4FF982E882C358D0408F
:1059600015E0CB57DF4F1883C558D040CA57DF4FDB
:105970008881C658D04080788068CA57DF4F8883B6
:10598000C658D040CE018F579F4F0E94631D0E9482
:105990005508CF57DF4FD982C882C158D040CD5764
:1059A000DF4FF982E882C358D040CB57DF4F1883CE
:1059B000C558D040CA57DF4F8881C658D04080783C
:1059C0008068CA57DF4F8883C658D040CE018F57B2
:1059D0009F4F0E94E01D9B01AC016AE776E080E8E2
:1059E00096E08FC81092090740E062E576E08DE509
:1059F00096E014CCCF57DF4FD982C882C158D0402F
:105A000049E0E42E43E0F42ECD57DF4FF982E882DF
:105A1000C358D04015E0CB57DF4F1883C558D0404E
:105A2000CA57DF4F8881C658D04080788068CA57EF
:105A3000DF4F8883C658D040CE018F579F4F0E94BA
:105A4000631D0E945508CF57DF4FD982C882C158C5
:105A5000D040CD57DF4FF982E882C358D040CB57B2
:105A6000DF4F1883C558D040CA57DF4F8881C658CA
:105A7000D04080788068CA57DF4F8883C658D040AE
:105A8000CE018F579F4F0E94E01D9B01AC0161E446
:105A900076E087E496E035C8CF57DF4FD982C882D9
:105AA000C158D04084E193E0CD57DF4F998388837C
:105AB000C358D04088E0CB57DF4F8883C558D040CB
:105AC000CA57DF4F8881C658D04080788068CA574F
:105AD000DF4F8883C658D040CE018F579F4F0E941A
