:100000000C944E070C94E1340C94B6340C948B345D
:100010000C9460340C9435340C940A340C94DF3313
:100020000C94B4330C94CC350C947F070C947F075C
:100030000C947F070C940C350C947F070C947F076D
:100040000C947F070C947F070C947F070C947F0718
:100050000C947F070C947F070C947F070C946A33F1
:100060000C947F070C9496350C946C350C947F0798
:100070000C947F070C947F070C947F070C947F07E8
:100080000C947F070C947F070C947F070C947F07D8
:100090000C947F070C947F070C947F070C947F07C8
:1000A0000C947F070C947F070C947F070C947F07B8
:1000B0000C947F070C947F070C947F070C947F07A8
:1000C0000C947F070C947F070C947F070C947F0798
:1000D0000C947F070C947F070C947F070C947F0788
:1000E0000C947F070C9460330C94670E0C94EC1EF8
:1000F0000C94E21F0C94070F0C9415090C94991F93
:100100000C94090E0C9464330C94C91F0C949F0E2C
:100110000C94381E0C942A090C94521E0C94CA1E7E
:100120000C94C51E0C940F090C94510A0C94F01EEB
:100130000C94B51F0C9434090C942E090C947B3646
:100140000C94631E0C94450E0C9442090C945009B7
:100150000C9419090C94790A0C9454090C94A81F56
:100160000C946C1E0C94DE1F0C941D090C94461EFE
:100170000C947E1C0C9446090C9446200C943C096B
:100180000C94681E0C9421090C94590E0C94C61FF3
:100190000C94DB1F0C94B51E0C94E91E0C944A09B8
:1001A0000C9438090C9467330C94651E0C94E51E6E
:1001B0000C9424090C94D41E0C94360E0C944F0904
:1001C000546F6F44656570004E6F4D656D6F727949
:1001D00000496E76616C6964496E70757400496E91
:1001E000636F6D706C657465496E70757400456DF4
:1001F000707479496E707574004F6B00CDCCCC3D36
:100200000AD7233C17B7D13877CC2B329595E62403
:100210001FB14F0A000020410000C84200401C46A8
:1002200020BCBE4CCA1B0E5AAEC59D74227D007BFD
:10023000226C6576656C223A22303031222C2264A1
:100240006576696365223A22434F4E54524F4C4CB7
:100250004552222C2264657363223A225052207444
:1002600068726573686F6C64206361707065642088
:10027000617420007D007B226C6576656C223A22D9
:10028000303036222C2264657363223A22436F6D2C
:100290006D616E64206E6F7420666F756E64222CC3
:1002A00022636F6D6D616E64223A007B226C65760D
:1002B000656C223A22303030222C226465766963E4
:1002C00065223A22534C4D222C22706172616D22BC
:1002D0003A2274696D657374616D705F70696E2226
:1002E0002C2276616C7565223A007B226C657665FE
:1002F0006C223A22303036222C226465766963659E
:10030000223A22534C4D222C226572726F72223A8D
:100310002270696E5F6E6F745F7063696E743022F5
:100320002C2276616C7565223A007B226C657665BD
:100330006C223A22303037222C226465766963655C
:10034000223A22434F4E54524F4C4C4552222C22BB
:100350006576656E74223A22454E44222C227469D9
:100360006D657374616D70223A004C48005248000C
:100370007B226C6576656C223A22303030222C224A
:1003800070725F73746570223A004C455645525F37
:100390004C48004C455645525F524800534C4D0066
:1003A0004D4943524F53434F5045004C49434B0036
:1003B0004C415345520050554D50320050554D5010
:1003C00000435545320043554500227D002C2261F3
:1003D00063746976655F6C65766572223A22007B8C
:1003E000226C6576656C223A22303030222C2264F1
:1003F0006576696365223A22434F4E54524F4C4C06
:100400004552222C22706172616469676D223A2222
:1004100050524F47524553534956455F52415449F4
:100420004F222C2274696D656F7574223A007B220D
:100430006C6576656C223A22303037222C22646556
:1004400076696365223A22434F4E54524F4C4C45D5
:1004500052222C226576656E74223A225354415200
:1004600054222C2274696D657374616D70223A3068
:100470007D007B226C6576656C223A22303030221A
:100480002C22646576696365223A224D4943524FB6
:1004900053434F5045222C22706172616D223A22E3
:1004A000747269676765725F70696E222C2276616B
:1004B0006C7565223A004649524544007465737470
:1004C000004D4943524F53434F504500494E444518
:1004D00050454E44454E54006D6F6465004C415389
:1004E000455200434F4E54494E47454E54006D6FA0
:1004F0006465004C41534552006475726174696FC4
:100500006E004C41534552006672657175656E63AD
:1005100079004C41534552004649524544007465A8
:100520007374004C4153455200464952454400748F
:100530006573740050554D50320064757261746972
:100540006F6E0050554D503200464952454400747C
:100550006573740050554D50006475726174696F15
:100560006E0050554D500046495245440074657325
:10057000740043554532006475726174696F6E0092
:1005800043554532006672657175656E6379004347
:100590005545320046495245440074657374004322
:1005A0005545006475726174696F6E00435545006E
:1005B0006672657175656E63790043554500F90192
:1005C000EE01DE01D101C801C00164757261746978
:1005D0006F6E00534C4D006672657175656E637980
:1005E00000534C4D006C657665725F66696C74658E
:1005F0007200434F4E54524F4C4C4552007365733A
:1006000073696F6E5F70617573656400434F4E541C
:10061000524F4C4C455200746573745F6D6F646546
:1006200000434F4E54524F4C4C45520046495245A0
:100630004400746573745F636861696E00434F4E74
:1006400054524F4C4C45520050554D500050554D52
:100650005032006163746976655F70756D70004338
:100660004F4E54524F4C4C45520070725F7374653C
:100670007000434F4E54524F4C4C455200726174BF
:10068000696F00434F4E54524F4C4C4552007265B7
:10069000696E666F72636564004C455645525F4CE7
:1006A00048007265696E666F72636564004C4556FA
:1006B00045525F4C4800726174696F004C45564565
:1006C000525F4C480074696D656F7574004C4556F7
:1006D00045525F4C48007265696E666F726365646F
:1006E000004C455645525F5248007265696E666F10
:1006F00072636564004C455645525F524800726112
:1007000074696F004C455645525F52480074696DDC
:10071000656F7574004C455645525F524800227D06
:10072000007B226C6576656C223A22303036222CB2
:100730002264657363223A220044495341524D4575
:10074000440041524D454400227D002C22646573D3
:1007500063223A2200222C2270696E223A007B2208
:100760006C6576656C223A22303031222C22646529
:1007700076696365223A2200222C22706172616DD3
:10078000223A2270696E222C2276616C7565223ABB
:10079000007B226C6576656C223A22303030222C48
:1007A00022646576696365223A2200222C227661F2
:1007B0006C7565223A00222C22706172616D223ABA
:1007C00022007B226C6576656C223A223030302222
:1007D0002C22646576696365223A220066616C7337
:1007E00065007472756500222C2276616C75652235
:1007F0003A00222C22706172616D223A22007B2223
:100800006C6576656C223A22303030222C22646589
:1008100076696365223A2200227D00222C227661CD
:100820006C7565223A2200222C22706172616D2261
:100830003A22007B226C6576656C223A2230303099
:10084000222C22646576696365223A22004449536A
:1008500041524D45440041524D454400227D002CFB
:100860002264657363223A22007B226C6576656C94
:10087000223A22303031222C226465766963652267
:100880003A224D4943524F53434F5045222C227038
:10089000696E223A0066616C73650074727565005A
:1008A0002C226475726174696F6E223A002C226684
:1008B00072657175656E6379223A00222C2261722D
:1008C0006D6564223A007B226C6576656C223A2263
:1008D000303030222C22646576696365223A22002A
:1008E00066616C73650074727565002C22647572A4
:1008F0006174696F6E223A00222C2261726D656408
:10090000223A007B226C6576656C223A22303030C8
:10091000222C22646576696365223A220066616C46
:100920007365007472756500222C2261726D6564B6
:10093000223A007B226C6576656C223A2230303098
:10094000222C22646576696365223A220066616C16
:10095000736500747275650066616C73650074720E
:100960007565002C227265696E666F72636564221C
:100970003A00222C2261726D6564223A007B226C5F
:100980006576656C223A22303030222C22646576FE
:10099000696365223A2200027B226C6576656C22CF
:1009A0003A22303030222C22646576696365223A1F
:1009B00022434F4E54524F4C4C4552222C22736BC3
:1009C00065746368223A2270722E696E6F222C223F
:1009D00076657273696F6E223A2276332E342E302A
:1009E0002D616C7068612E38222C22626175645F03
:1009F00072617465223A3131353230302C227363A2
:100A0000686564756C65223A2250524F47524553CF
:100A1000534956455F524154494F227D002C22656F
:100A20006E645F74696D657374616D70223A002C39
:100A3000226576656E74223A224C49434B222C2261
:100A400073746172745F74696D657374616D702223
:100A50003A00222C2270696E223A007B226C657665
:100A6000656C223A22303037222C22646576696325
:100A700065223A22002C22656E645F74696D65738D
:100A800074616D70223A002C226576656E74223A8C
:100A9000225354494D222C2273746172745F74691D
:100AA0006D657374616D70223A007B226C657665AA
:100AB0006C223A22303037222C22646576696365D5
:100AC000223A224C41534552222C2270696E223A1E
:100AD000002C226D6973736564223A002C226576BE
:100AE000656E74223A2254494D455354414D50226B
:100AF0002C2274696D657374616D70223A007B22DB
:100B00006C6576656C223A22303038222C2264657E
:100B100076696365223A224D4943524F53434F5001
:100B200045222C2270696E223A002C226576656E71
:100B300074223A2254494D455354414D50222C229F
:100B400074696D657374616D70223A007B226C6507
:100B500076656C223A22303039222C22646576691F
:100B60006365223A22534C4D222C2270696E223A40
:100B70000000002100240027002A002D003000334F
:100B80000001010000040107010A01000022002504
:100B90000028002B002E0031003400020100000567
:100BA0000108010B0100000A0B02090C0D0E0807D9
:100BB000030401000000000000000000000000002D
:100BC0000000000000000000000000000000000025
:100BD00000121110000000000000000000000000E2
:100BE0000000000000000000000000444953415292
:100BF0004D45440041524D454400227D002C226465
:100C0000657363223A22007B226C6576656C223A1A
:100C100022303031222C22646576696365223A22C3
:100C2000534C4D222C2270696E223A000102102092
:100C30002008081020401020408002010201080412
:100C400002010102040810204080804020100804A6
:100C500002018004020180402010080402010804FF
:100C60000201010204081020408001020408102043
:100C70004080000020002300260029002C002F00C7
:100C80003200000100000301060109010505050508
:100C9000070508080808020202020A0A08080404F4
:100CA0000404010101010101010103030303030322
:100CB0000303040707070C0C0C0C0C0C0C0C0202B1
:100CC000020206060606060606060B0B0B0B0B0BAE
:100CD0000B0B4C455645525F4C48004C455645520F
:100CE0005F524800227D002C226F7269656E74612C
:100CF00074696F6E223A22002C22656E645F7469FB
:100D00006D657374616D70223A00222C22737461D8
:100D100072745F74696D657374616D70223A002C32
:100D2000226576656E74223A225052455353222C26
:100D300022636C617373223A2200222C2270696E46
:100D4000223A007B226C6576656C223A223030377D
:100D5000222C22646576696365223A220054494D4B
:100D6000454F555400494E4143544956450041436F
:100D700054495645002C227363686564756C65643C
:100D80005F6174223A002C22746172676574223AA2
:100D9000007B226C6576656C223A22303036222C3C
:100DA000226572726F725F636F6465223A22455FDB
:100DB00050454E44494E475F46554C4C222C2264C8
:100DC000657363223A2250656E64696E67206163C1
:100DD00074696F6E2071756575652066756C6C2021
:100DE000E2809420616374696F6E2064726F70702A
:100DF0006564222C22616374696F6E5F747970651B
:100E0000223A005354494D00494E465553494F4EDE
:100E100000494E465553494F4E00544F4E450054DD
:100E20004F4E45004C415345520050554D505F3296
:100E30000050554D505F31004355455F32004355DA
:100E4000455F31002C22656E645F74696D65737453
:100E5000616D70223A00222C2273746172745F7487
:100E6000696D657374616D70223A002C2265766538
:100E70006E74223A2200222C2270696E223A007B84
:100E8000226C6576656C223A22303037222C22643F
:100E90006576696365223A2200007B3611241FBE05
:100EA000CFEFD1E2DEBFCDBF00E00CBF13E0A0E08A
:100EB000B2E0E0E8F7E800E00BBF02C007900D9257
:100EC000A235B107D9F727E0A2E5B3E001C01D9232
:100ED000AA34B207E1F717E0CEE4D7E000E006C09D
:100EE00021970109802FFE010E948B41CD34D1074B
:100EF00080E00807A9F70E94073A0C94BE430C94BF
:100F0000000090911906292F092E000C330BF901CE
:100F1000E457F34FE491F0E0EE0FFF1FEE58F34F6C
:100F20004591549150931B0640931A06F901E45DD4
:100F3000F34FE491E0931C0640916B0086EF890F1C
:100F4000843080F42650310981E001C0880F2A9551
:100F5000EAF7842B80936B00809168008160809316
:100F60006800089588E09233A1F384E0933389F315
:100F700082E0943371F39E5381E0983050F72E5302
:100F80003109E2CFCF93DF93EC0188819981DC01B5
:100F9000ED91FC910190F081E02D64E270E01995F3
:100FA000009741F02FE1FC01238321E02283DF91B0
:100FB000CF91089521E02A83FACF8F92AF92CF92FA
:100FC000EF920F93CF93DF93CDB7DEB71092450426
:100FD0001092460431E030934704609348046093D4
:100FE000490410924A0440934B0439E03093610461
:100FF00034E6309362041092650435E03093C30404
:101000001092810433E030938204E09283041092C2
:1010100084041092850410928604109287044091F3
:10102000E6065091E7066091E8067091E906409364
:1010300088045093890460938A0470938B041092FF
:101040008C0434E030938D04C0928E0410928F048F
:101050001092900410929104109292044091C5064F
:101060005091C6066091C7067091C80640939304DC
:10107000509394046093950470939604109297048F
:1010800000939804063009F08A2C809299041092FB
:101090009A0410929B0410929C0410929D04FC01EF
:1010A00081859285A385B48580939E0490939F0447
:1010B000A093A004B093A1041092A20487E08093AF
:1010C000A30489E08093A4041092A5041092A604BE
:1010D0001092A7041092A80440915406509155060E
:1010E00060915606709157064093A9045093AA0444
:1010F0006093AB047093AC0491E09093AD042093A3
:10110000AE048093AF041092B0041092B104109218
:10111000B2041092B30480910B0690910C06A0913A
:101120000D06B0910E068093B4049093B504A0937D
:10113000B604B093B704DF91CF910F91EF90CF90A9
:10114000AF908F90089560930B0670930C06809378
:101150000D0690930E063091C304E1E8F4E020E020
:1011600023130DC030910605E4ECF4E020E02317D2
:10117000B1F04081413071F02F5F3B96F8CF408154
:10118000413019F02F5F3B96EBCF678370878187E3
:101190009287F8CF6783708781879287EDCF089514
:1011A00090914504992339F09091630421E030E057
:1011B000992319F0089530E020E09EE1929FF0011C
:1011C000939FF00D1124ED5CFB4F858B178AF2CFB6
:1011D000E6E1F5E01082709686E0E631F807D1F797
:1011E00008958150823108F05AC0E82FF0E0882736
:1011F000E350F74F8F4F0C948B411D0921090F09C4
:10120000150919094F0924092A092E093409380931
:101210003C09420946094F094A095009540980917D
:1012200080008F77809380000895809180008F7D6B
:10123000F9CF80918000877FF5CF84B58F7784BD0B
:10124000089584B58F7DFBCF8091B0008F77809318
:10125000B00008958091B0008F7DF9CF809190000B
:101260008F77809390000895809190008F7DF9CFC3
:1012700080919000877FF5CF8091A0008F77809339
:10128000A00008958091A0008F7DF9CF8091A000EB
:10129000877FF5CF809120018F778093200108957B
:1012A000809120018F7DF9CF80912001877FF5CF3C
:1012B000CF93DF93282F30E0F901EB55F44F849161
:1012C000F901E45DF34FD491F901E457F34FC49170
:1012D000CC23A1F081110E94F108EC2FF0E0EE0F79
:1012E000FF1FEE58F34FA591B491EC91ED2381E0EF
:1012F00090E009F480E0DF91CF91089580E090E0E4
:10130000FACF1F93CF93DF93282F30E0F901EB55ED
:10131000F44F8491F901E45DF34FD491F901E4575E
:10132000F34FC491CC23A9F0162F81110E94F1082C
:10133000EC2FF0E0EE0FFF1FE557F44FA591B491AD
:101340008FB7F894EC91111108C0D095DE23DC938F
:101350008FBFDF91CF911F910895DE2BF8CFCF93F0
:10136000DF9390E0FC01E45DF34F24918457934FA9
:10137000FC0184918823C9F090E0880F991FFC013B
:10138000EF58F44FA591B491FC01E557F44FC59186
:10139000D49161110DC09FB7F8948C912095822350
:1013A0008C938881282328839FBFDF91CF91089554
:1013B000623051F49FB7F8943C91822F809583233B
:1013C0008C93E8812E2BEFCF8FB7F894EC912E2BD6
:1013D0002C938FBFEACF3FB7F89480918E03909102
:1013E0008F03A0919003B091910326B5A89B05C0EF
:1013F0002F3F19F00196A11DB11D3FBFBA2FA92F94
:10140000982F8827BC01CD01620F711D811D911D90
:1014100042E0660F771F881F991F4A95D1F70895FC
:101420008F929F92AF92BF92CF92DF92EF92FF92F4
:101430000E94EB094B015C0184E6C82ED12CE12C03
:10144000F12C0E94EB09681979098A099B09683E09
:10145000734081059105A8F321E0C21AD108E10883
:10146000F10888EE880E83E0981EA11CB11CC114FF
:10147000D104E104F10429F7FF90EF90DF90CF90C1
:10148000BF90AF909F908F9008952FB7F894609180
:101490008A0370918B0380918C0390918D032FBFF1
:1014A00008950F931F93CF93DF93C0913104D09190
:1014B00032042097C9F08A81882331F08B818F3FD5
:1014C00019F08B818F5F8B8381E08A830E94450AAC
:1014D00009851A852B853C85601B710B820B930B4C
:1014E0006D837E838F839887DF91CF911F910F91BA
:1014F000089508959091080289130DC0E7E9F9E075
:10150000E4919FEF90930802E230E1F038F4EE238B
:1015100081F0E13089F060E00C948109E43049F118
:1015200010F1E530C1F7909173009D7F90937300A7
:10153000F2CF10926E00EFCF90916F009D7F90934D
:101540006F00E9CF909170009D7F9093700091E0C3
:101550009093B0009091B100987F94609093B10007
:101560001092B300D8CF909171009D7F909371003D
:10157000D2CF909172009D7F90937200CCCF4F920A
:101580005F926F927F928F929F92AF92BF92CF9213
:10159000DF92EF92FF920F931F93CF93DF9300D0D0
:1015A0001F921F92CDB7DEB78B0129013A019091AE
:1015B00008028917C9F09F3F09F491C00F900F905E
:1015C0000F900F900F90DF91CF911F910F91FF908F
:1015D000EF90DF90CF90BF90AF909F908F907F90D3
:1015E0006F905F904F900895E7E9F9E024912D8383
:1015F00027FDE4CF61E00E94AF092D81222321F075
:101600008D81823009F005C24801B12CA12C60E027
:1016100072E18AE790E0A50198010E940E402983BB
:101620003A834B835C8369017A0191E0C91AD1083E
:10163000E108F1082FEFC216D104E104F10409F02A
:101640000CF4B6C160E472E48FE090E0A50198016B
:101650000E940E4069017A0181E0C81AD108E108B0
:10166000F1089D81923009F026C182E02FEFC21669
:10167000D104E104F10409F00CF46CC160E970EDEF
:1016800083E090E0A50198010E940E4069017A0173
:1016900081E0C81AD108E108F10883E09FEFC9167C
:1016A000D104E104F10409F00CF454C168E478EECB
:1016B00081E090E0A50198010E940E4069017A0145
:1016C00081E0C81AD108E108F1089FEFC916D104DA
:1016D000E104F10411F00CF044C184E03BC18093BB
:1016E0000802E7E9F9E094919D839F3F09F466CFF2
:1016F000923009F474C058F4992399F1913009F4A7
:101700004CC097FD5BCF61E00E94AF0979CF2D817E
:10171000243009F4AEC008F488C0253091F7109247
:101720002001109221019091210198609093210154
:1017300090912101916090932101282F30E0F901CF
:10174000E457F34FE491F0E0EE0FFF1FE557F44F3D
:1017500045915491F901E45DF34FE491E093640302
:1017600049CF14BC15BC94B5926094BD95B59160F9
:1017700095BD282F30E0F901E457F34FE491F0E0F4
:10178000EE0FFF1FE557F44F45915491F901E45DC9
:10179000F34FE491E09368032DCF109280001092F4
:1017A00081009091810098609093810090918100D8
:1017B000916090938100282F30E0F901E457F34FB6
:1017C000E491F0E0EE0FFF1FE557F44F459154917F
:1017D000F901E45DF34FE491E09367030BCF1092BE
:1017E000B0001092B1009091B00092609093B00060
:1017F0009091B10091609093B100282F30E0F901F1
:10180000E457F34FE491F0E0EE0FFF1FE557F44F7C
:101810004591549150937E0340937D03F901E45D1B
:10182000F34FE491E0937F03E5CE10929000109285
:101830009100909191009860909391009091910007
:10184000916090939100282F30E0F901E457F34F15
:10185000E491F0E0EE0FFF1FE557F44F45915491EE
:10186000F901E45DF34FE491E093660393E09D8317
:10187000C1CE1092A0001092A1009091A10098609A
:101880009093A1009091A10091609093A100282FC6
:1018900030E0F901E457F34FE491F0E0EE0FFF1F61
:1018A000E557F44F45915491F901E45DF34FE4910C
:1018B000E09365039FCE2FEFC216D104E104F1043B
:1018C00009F00CF4A4C068E478EE81E090E0A50192
:1018D00098010E940E4069017A0181E0C81AD1087E
:1018E000E108F1089D81992309F489C19FEFC91688
:1018F000D104E104F10409F00CF4EFCE62E17AE7DF
:1019000080E090E0A50194010E940E4069017A01F7
:1019100081E0C81AD108E108F1089D81992309F4F2
:1019200053C186E09FEFC916D104E104F10491F0A0
:1019300088F0C980DA80EB80FC808AE0F594E79437
:10194000D794C7948A95D1F781E0C81AD108E108E5
:10195000F10887E09091B100987F892B8093B100C6
:101960002FC064E274EF80E090E0A50194010E9432
:101970000E4069017A0181E0C81AD108E108F10836
:1019800085E09FEFC916D104E104F10419F310F3C7
:1019900062E17AE780E090E0A50194010E940E40A8
:1019A00069017A0181E0C81AD108E108F108B9CFCC
:1019B00081E02D812111CECF95B5987F892B85BDF2
:1019C0002FEF3FEFA901411451046104710409F0A4
:1019D00049C09D81923009F4E7C00CF0CEC0992334
:1019E00009F4D3C0913009F0E9CDD0928900C092BA
:1019F00088002093750330937603409377035093C8
:101A0000780380916F00826080936F00D7CD82E071
:101A1000D0CFB12CA12C60E072E18AE790E0A50163
:101A200098010E940E4069017A0181E0C81AD1082C
:101A3000E108F108C114D10491E0E906F10404F5CC
:101A400091E02D81213069F580918100887F892B7B
:101A5000809381002FEF3FEFA901411451046104ED
:101A6000710419F2D801AA0FBB1FA30192010E94B1
:101A70002D4028EE33E040E050E00E944040A9CFE6
:101A800068E478EE81E090E0A50198010E940E40A4
:101A900069017A0181E0C81AD108E108F10893E0F0
:101AA000D0CF8D81833001F580919100887F892B83
:101AB000809391002FEF3FEFA9014114510461047D
:101AC000710481F6D0929900C0929800209371031E
:101AD00030937203409373035093740380917100A9
:101AE0008260809371006ACD2D81243009F5809148
:101AF000A100887F892B8093A1002FEF3FEFA901E0
:101B0000411451046104710409F0ACCFD092A900D2
:101B1000C092A80020936D0330936E0340936F032F
:101B2000509370038091720082608093720046CD62
:101B30008D81853009F044CF80912101887F892BE8
:101B4000809321012FEF3FEFA9014114510461045B
:101B5000710409F087CFD0922901C0922801209307
:101B6000690330936A0340936B0350936C03809135
:101B7000730082608093730021CD8D81843031F2B7
:101B80000CF4A0CF853039F319CDC7BC209379036D
:101B900030937A0340937B0350937C0380916E00D3
:101BA000826080936E000ACDC092B30020938003C0
:101BB000309381034093820350938303809170009C
:101BC000826080937000FACC84E02FEFC216D104BB
:101BD000E104F10409F008F4EFCEC980DA80EB806B
:101BE000FC809AE0F594E794D794C7949A95D1F73E
:101BF00091E0C91AD108E108F10885E0DDCE83E063
:101C00002FEFC216D104E104F10411F00CF076CEEE
:101C1000D3CEAF92BF92CF92DF92EF92FF920F930B
:101C20001F93CF93DF936C017B018B01040F151F72
:101C3000EB015E01AE18BF08C017D10759F06991DA
:101C4000D601ED91FC910190F081E02DC60119952E
:101C5000892B79F7C501DF91CF911F910F91FF90EB
:101C6000EF90DF90CF90BF90AF900895FC01538D1F
:101C7000448D252F30E0842F90E0821B930B541766
:101C800010F0CF96089501970895FC01918D828DF3
:101C9000981761F0A28DAE0FBF2FB11D5D968C918C
:101CA000928D9F5F9F73928F90E008958FEF9FEFCB
:101CB0000895FC01918D828D981731F0828DE80F87
:101CC000F11D858D90E008958FEF9FEF0895FC0141
:101CD000918D228D892F90E0805C9F4F821B91090E
:101CE0008F739927089582E993E00E94670E21E09F
:101CF000892B09F420E0822F0895FC01A48DA80F00
:101D0000B92FB11DA35ABF4F2C91848D90E001963D
:101D10008F739927848FA689B7892C93A089B1895D
:101D20008C91837080648C93938D848D981306C0FE
:101D30000288F389E02D80818F7D80830895EF9262
:101D4000FF920F931F93CF93DF93EC0181E0888F75
:101D50009B8D8C8D98131AC0E889F989808185FF45
:101D600015C09FB7F894EE89FF896083E889F989E7
:101D700080818370806480839FBF81E090E0DF91E9
:101D8000CF911F910F91FF90EF900895F62E0B8D3C
:101D900010E00F5F1F4F0F731127E02E8C8D8E11F7
:101DA0000CC00FB607FCFACFE889F989808185FF5E
:101DB000F5CFCE010E947D0EF1CFEB8DEC0FFD2F04
:101DC000F11DE35AFF4FF0829FB7F8940B8FEA8919
:101DD000FB8980818062CFCF0F931F93CF93DF93D6
:101DE0008C01D0E0C0E0F801EC0FFD1F6491662388
:101DF00041F082E993E00E949F0E892B11F0219619
:101E0000F2CFCE01DF91CF911F910F910895CF9323
:101E1000DF93EC01888D8823B9F0AA89BB89E88912
:101E2000F9898C9185FD03C0808186FD0DC00FB6B8
:101E300007FCF7CF8C9185FFF2CF808185FFEDCF36
:101E4000CE010E947D0EE9CFDF91CF91089580E011
:101E500090E0892B29F00E94730E81110E940000EE
:101E600080E090E0892B49F080E090E0892B29F018
:101E70000E94000081110E94000080E090E0892B08
:101E800049F080E090E0892B29F00E940000811148
:101E90000E94000080E090E0892B49F080E090E013
:101EA000892B29F00E94000081110C9400000895F4
:101EB000CF92DF92EF92FF921F93CF93DF93EC01CB
:101EC0006A017B018C810E94580911E0892B09F479
:101ED00010E08B85181721F0CD8ADE8AEF8AF88E04
:101EE0008D899E89AF89B88DB701A601481B590B12
:101EF0006A0B7B0B898D90E0B0E0A0E0841795071A
:101F0000A607B70798F48C85181781F01C878A8577
:101F10001817A9F0CA8EDB8EEC8EFD8EEAA1FBA10C
:101F2000309721F0B701A601898519951B87DF91AC
:101F3000CF911F91FF90EF90DF90CF900895CE8EBC
:101F4000DF8EE8A2F9A2ECA1FDA1309779F3898593
:101F50001995ECCFFC01158213861486158616861A
:101F60001786108A118A128A138A148A158A168A89
:101F7000138E8681882311F0848183830895CF9204
:101F8000DF92EF92FF920F931F93CF93DF93EC01B9
:101F90008E81811103C08D89882369F18C810D8523
:101FA0001E852F8538896A017B01C01AD10AE20A91
:101FB000F30A9701860137FD18C009891A892B8910
:101FC0003C89401B510B620B730B14161506160649
:101FD00017065CF061E0DF91CF911F910F91FF90A8
:101FE000EF90DF90CF900C94810960E00E9481090E
:101FF0008D8981111D8ADF91CF911F910F91FF90E3
:10200000EF90DF90CF900895CF93DF93EC0161E0E4
:1020100088810E94810981E08D870E94450A6E8730
:102020007F87888B998BDF91CF910895CF92DF9234
:10203000EF92FF92CF93DF93EC0189859A85AB8570
:10204000BC850097A105B10581F44D8F5E8F6F8F20
:1020500078A349A35AA36BA37CA31FA2DF91CF91BE
:10206000FF90EF90DF90CF9008956A017B01CD8EB5
:10207000DE8EEF8EF8A2BC01CD010E94EF3E9B01E7
:10208000AC0160E070E080E89FE30E94DE4020E069
:1020900030E040E05FE30E94503F20E030E04AE75C
:1020A00054E40E94503F20E030E040E05FE30E94B3
:1020B00072400E945741C60ED71EE81EF91EC9A2E3
:1020C000DAA2EBA2FCA28FA191E089278FA3C6CF51
:1020D000CF92DF92EF92FF92CF93DF93EC016A01F0
:1020E0007B018D899E89AF89B88DAB019601281B34
:1020F000390B4A0B5B0BDA01C901B7FD49C0898D69
:102100009A8DAB8DBC8DAB019601281B390B4A0B08
:102110005B0BDA01C901181619061A061B06C4F171
:102120008EA18823A9F189859A85AB85BC85019705
:10213000A105B10551F461E08C81DF91CF91FF9051
:10214000EF90DF90CF900C94810989A19AA1ABA167
:10215000BCA1AB019601281B390B4A0B5B0BDA01C2
:10216000C901B7FD04C0A601CE010E9416108C81E2
:102170009FA1992311F061E0E0CF60E00E94810906
:102180001FA2DF91CF91FF90EF90DF90CF90089545
:1021900060E08C810E9481091FA2898D9A8DAB8D90
:1021A000BC8DC81AD90AEA0AFB0A8EA1882331F02D
:1021B0001C141D041E041F040CF41EA288A58823F1
:1021C00001F31C141D041E041F04DCF618A6D9CF4D
:1021D0008F929F92AF92BF92CF92DF92EF92FF9237
:1021E0000F931F93CF93DF93EC018E81811104C075
:1021F00088A1882309F445C07B0189899A89AB8924
:10220000BC894A015B01881A990AAA0ABB0AC5015E
:10221000B40197FD53C00D891E892F89388D4A015D
:102220005701801A910AA20AB30A95018401101677
:102230001106120613060CF441C02A8D2223A9F1BF
:102240000C8D1D8D2E8D3F8D200F311F21153105D9
:1022500011F421E030E0FB8C50E040E00E9440406F
:1022600060177107D8F4F1100AC069857A8520E0FB
:1022700030E0A9018C810E94BF0A81E08B8F81E050
:10228000898FDF91CF911F910F91FF90EF90DF9099
:10229000CF90BF90AF909F908F900895FF2079F3DB
:1022A0008C810E947A0A1B8EEACF69857A8520E0AC
:1022B00030E0A9018C810E94BF0AE1CF898D88237B
:1022C00001F38C810E947A0A198E1B8E88A18823C3
:1022D000C1F218A2D6CF6F3FA9F0E62FE295EF70BA
:1022E00044E0E49F90011124DC01ED91FC91E20FA8
:1022F000F31F6F7082819381B6E06B9F800D911DFB
:102300001124089590E080E00895982F80336CF0B8
:102310008A3324F08F3524F08B3724F481E008953C
:1023200081341CF081E09B350CF080E00895FC01C5
:10233000828581110AC0A781B085CD010196908761
:1023400087838C91818781E08287818508951F939F
:10235000CF93DF93EC01162F0E949711811306C0D3
:102360001A8681E0DF91CF911F91089580E0FACF26
:102370000F931F93CF93DF938C01EB0189918823F7
:1023800069F0C8010E949711882379F0FE01319706
:10239000908198130DC0F8011286F0CF90E080E094
:1023A000DF91CF911F910F91089582E090E0F8CFD7
:1023B00083E090E0F5CFCF93DF93EC01CE010E9454
:1023C00097118B304CF489305CF4882359F081E00C
:1023D0008E8390E080E00BC08D3011F08032B9F731
:1023E0001A86ECCF8E81811105C081E090E0DF91EB
:1023F000CF91089582E090E0FACFDC0152969C9153
:102400005297915084E0989F900111245096ED913D
:10241000FC91E20FF31F228133812115310579F000
:1024200041818081481758F481E0840F818386E0E0
:10243000489F200D311D11242115310521F460E044
:1024400070E08FEF0895B901892F8295807F840F06
:102450000895DF92EF92FF920F931F93CF93DF9334
:10246000EC017B01D12C688979898A89D816E0F43E
:1024700084E0D89E80011124060F171FD801129600
:102480006D917C916115710541F0D701ED91FC9141
:102490000280F381E02DC7011995F80113821282A1
:1024A00010821182D394DFCF1A8A8FEF8C8BC617DC
:1024B000D70761F0D701ED91FC910280F381E02D07
:1024C000C7011995D98BC88B84E08B8BDF91CF9195
:1024D0001F910F91FF90EF90DF9008958F92AF9230
:1024E000CF92DF92EF92FF920F931F93CF93DF93E0
:1024F000C0910902D0910A0221E0809104029091DA
:1025000005028052974009F420E080900002A090DC
:102510000102C0900202E090030200910C0240917F
:102520000B0260914804CE010E94DD07E091C304D4
:10253000E43008F46CC0CC58D64009F0BDC0C0905F
:102540005703D0905803E0905903F0905A038091BC
:102550005F0390916003A0916103B09162030091C9
:102560008404109185042091860430918704080F1B
:10257000191F2A1F3B1F0093840410938504209386
:1025800086043093870440918F04509190046091A9
:10259000910470919204840F951FA61FB71F80931A
:1025A0008F0490939004A0939104B093920480912F
:1025B0009A0490919B04A0919C04B0919D048C0D71
:1025C0009D1DAE1DBF1D80939A0490939B04A09304
:1025D0009C04B0939D048091A5049091A604A091C1
:1025E000A704B091A80440915806509159066091F3
:1025F0005A0670915B06840F951FA61FB71F809324
:10260000A5049093A604A093A704B093A804809176
:102610006303882309F459C0E43018F083E0809301
:10262000A2041092630481E08093640480936504A3
:102630008093660480936704109268041092690482
:102640009091560390937F0494E690938004809336
:1026500006051092C40487E08093C50489E0809346
:10266000C6048091580690915906A0915A06B091DF
:102670005B068093C7049093C804A093C904B093E9
:10268000CA048091540690915506A0915606B091C7
:1026900057068093CB049093CC04A093CD04B093C1
:1026A000CE04DF91CF911F910F91FF90EF90DF90BB
:1026B000CF90AF908F900895C0905B03D0905C0353
:1026C000E0905D03F0905E0342CF10926504E9CF85
:1026D0004F925F926F927F928F929F92AF92BF9232
:1026E000CF92DF92EF92FF920F931F93CF93DF93DE
:1026F00000D01F921F92CDB7DEB7DC012C912B3298
:10270000E1F12D32D9F50196EE24E394FC0120810C
:1027100030ED320F3A3010F02E3291F58C0160E03E
:1027200070E0CB01F801219130ED832E820E39E06B
:10273000381508F444C06A3949E97407840749E147
:10274000940708F046C0AAE0B0E09B01AC010E94EB
:102750002D40912CB12CA12C240135014094509492
:1027600060947094461657066806790690F1680DD5
:10277000791D8A1D9B1D8F01D5CF0196E12CC6CFF7
:10278000198229813A814B815C816D8170E080E002
:1027900090E00F900F900F900F900F90DF91CF91DE
:1027A0001F910F91FF90EF90DF90CF90BF90AF906F
:1027B0009F908F907F906F905F904F900895211120
:1027C00008C0EE2051F161307105810550E8950790
:1027D000A0F0F12CBAE08B2E912CA12CB12C61151C
:1027E000710530E883079105F8F0A50194010E9476
:1027F0004040CA01B901F394F2CF22E029839B0142
:10280000AC0188279927DC01821B930BA40BB50B25
:102810008A839B83AC83BD83B4CF23E029836A83FF
:102820007B838C839D83ADCFF801D8012D918D01E1
:1028300030ED320F3A3010F4F394F6CF2E3201F52A
:102840008F010F5F1F4FF8010F5F1F4F2081A0ED19
:10285000DA2ED20EB9E0BD1598F06C3CECEC7E0798
:10286000ECE08E07910578F7AAE0B0E09B01AC019F
:102870000E942D406D0D711D811D911DFA94E3CFB5
:1028800020812F7D10E000E0253409F050C0218127
:102890002D32B1F53296CC24C394DF0110E000E074
:1028A0002F2D0F2C000C330BEAE0BE2EFD01DD9026
:1028B00040ED4D0D4A30B0F5B09EA001B19E500DD7
:1028C00011240D2DDD0C110B00531109040F151FE0
:1028D000A801420F531F4732510544F3CC20B9F0F1
:1028E00080E090E0A0E0B0E8E11003C080E090E07C
:1028F000DC0121E029838A839B83AC83BD8341CFA4
:102900002B3219F03196C12CC8CF3296FCCF80E023
:1029100090E0A0E8BFEFE110ECCF80E090E0A0E80D
:10292000BFE7E7CFCC2019F011950195110920815F
:10293000211126CF0F0D111DF7FC1A950E94EF3EB5
:1029400044E1A42E42E0B42E101611063CF011957D
:10295000019511095CEFA52E51E0B52ED12CC12CAB
:1029600001151105E9F0F6E0CF16D104A9F000FF3A
:102970000DC0F601EE0FFF1FEE0FFF1FEA0DFB1D4E
:1029800025913591459154910E94503F1595079599
:102990002FEFC21AD20AE4CF60E070E080EC9FE72C
:1029A000E110905821E029836A837B838C839D8387
:1029B000E8CECF92DF92EF92FF920F931F93CF93C7
:1029C000DF937C016B018A01FC01C081D1814F3F03
:1029D000510509F0B0F4E881F9810480F581E02D1A
:1029E0004B5F5F4FCE011995009759F0FC010383AF
:1029F000DF91CF911F910F91FF90EF90DF90CF90DB
:102A00000895E881F9810280F381E02DB601CE01BD
:102A1000199581E0F701828390E080E0E9CF1F9370
:102A2000CF93DF93EC01162F6A817B8161157105CD
:102A300089F04C815D81FB0183818417150651F477
:102A4000440F551F4F5F5F4F888199810E94D914B1
:102A50009B838A838A819B81009759F02C813D81D9
:102A6000A9014F5F5F4F5D834C83820F931FFC0171
:102A70001483DF91CF911F9108959F92AF92BF92DF
:102A8000CF92DF92EF92FF920F931F93CF93DF933A
:102A900000D01F921F92CDB7DEB78C010E94971114
:102AA000D82EF8011286F12CE12C60EFC62EC80159
:102AB0000E949711F8011286D81609F4B3C081114B
:102AC00013C082E090E00F900F900F900F900F9046
:102AD000DF91CF911F910F91FF90EF90DF90CF90FA
:102AE000BF90AF909F9008958C3509F099C0C801B0
:102AF0000E949711882329F3E8EAF2E0853709F06C
:102B000083C0F801128654E0952EB12CA12CC80187
:102B10000E9497118823A9F2813434F480538031C4
:102B200030F083E090E0CFCF8F7D8753F8CF44E043
:102B3000AA0CBB1C4A95E1F7A82AF80112869A94C0
:102B40009110E5CFC501985D8115944020F4750181
:102B5000F3E0FF22ACCFC5019C5D81159440A8F441
:102B600083E0B822B701762F6627770F770F6A299F
:102B70007B2990E080E00196603871058105910520
:102B800040F4C8010E940F1592CFB50190E080E09B
:102B9000F3CF1982262F2F7320682A8326E096957B
:102BA0008795779567952A95D1F76032710580F4FE
:102BB000606C6B835E01E4E0AE0EB11CF5016291C6
:102BC0005F01662309F473CFC8010E940F15F6CF89
:102BD000262F2F7320682B8386E0769567958A953C
:102BE000E1F76031710538F4606E6C835E01F5E0E9
:102BF000AF0EB11CE3CF60686C83CD825E0126E02E
:102C0000A20EB11CDBCF32969081992309F489CFB3
:102C10008913F9CF8181882309F483CFF8011286C3
:102C2000682FAFCF82819381892B19F484E090E0E3
:102C30004ACF90E080E047CF6F927F928F929F9231
:102C4000AF92BF92CF92DF92EF92FF920F931F93BA
:102C5000CF93DF93EC012A813B812C5F3F4F4C8166
:102C60005D814430510588F58901F90180E0942F98
:102C7000B22FAE2FA21BA91730F4F190A1E0F110F2
:102C8000A0E08A2BF6CF811120C082E0EB018C837B
:102C9000FB01802F8B1B891728F4E80189918E0195
:102CA0008193F7CF640F751FFB011082DF91CF91E5
:102CB0001F910F91FF90EF90DF90CF90BF90AF905A
:102CC0009F908F907F906F9008958B01F901E40F92
:102CD000F51F1082888199814C815D81DC011396FA
:102CE000ED91FC913A01E89477F86901C60CD71C84
:102CF0003097C1F0A381A615170481F449017F0123
:102D0000B4E0EB0EF11C8C149D0429F1D401AD90BC
:102D10004D01D701BD907D01AB14A9F30190F08165
:102D2000E02DE6CF6A817B810E94D914FC01A88145
:102D3000B98113968D919C911497918380831496F9
:102D4000FC93EE9313971B821A8285E0E8018C8333
:102D5000F983E883ABCF82818F5F8283F6CFDB017B
:102D6000ED91FC9111970280F381E02DBC01CD0122
:102D70001994AF92BF92CF92DF92EF92FF920F938E
:102D80001F93CF93DF93EC018B018C8180FF24C0D4
:102D9000A881B981FB018381948130E020E0009714
:102DA000D9F0A817B907D1F5F801608171811296A1
:102DB0008C911297815012968C93129781110CC0AE
:102DC0008D919C9111972115310529F1F90191837C
:102DD0008083CD010E94AF168C81807631F12097DF
:102DE00021F1F8805801F5E1AF0EB11C8FEFF81614
:102DF000D1F06F2DC5010E946B116C01FC01E580C3
:102E0000B8010E94B916F801818DF6018083F8019E
:102E1000F18EFE2CEBCF94838383DBCF9C01FC01EE
:102E200080819181BCCFF882F9821C82DF91CF91A1
:102E30001F910F91FF90EF90DF90CF90BF90AF90D8
:102E400008950F931F93CF93DF93EC0108811981AD
:102E50008B819C81009749F0FC01208131813C836A
:102E60002B83B8010E94AF16F3CF68817981CE0120
:102E70000596DF91CF911F910F910C942912FC01BF
:102E800001900020E9F73197AF01481B590BBC01B5
:102E900082E993E00C94090E8F929F92AF92BF92B9
:102EA0000F931F93CF93DF93CDB7DEB7A1970FB6E4
:102EB000F894DEBF0FBECDBF19A2423008F44AE03D
:102EC0008E010F5D1F4F842E912CB12CA12CA501DA
:102ED00094010E944040E62FB901CA01EA30F4F49F
:102EE000E05DD801EE938D01232B242B252B79F760
:102EF00090E080E0109719F0CD010E943F17A19655
:102F00000FB6F894DEBF0FBECDBFDF91CF911F91FA
:102F10000F91BF90AF909F908F900895E95CE1CFA3
:102F20004AE00C944C17682F70E090E080E04AE093
:102F30000C944C17CF92DF92EF92FF92CF93DF93D6
:102F40006C01990FEE08FF08F7FE19C06DE282E9E7
:102F500093E00E949F0EEC0166277727CB016C1946
:102F60007D098E099F094AE00E944C178C0F9D1F16
:102F7000DF91CF91FF90EF90DF90CF9008954AE0DE
:102F8000C701B601DF91CF91FF90EF90DF90CF9016
:102F90000C944C17CF93DF930E94EC0EEC018BEB5B
:102FA00092E00E943F178C0F9D1FDF91CF910895F3
:102FB000CF93C82F80931E0687E09CE00E94EC0E02
:102FC00080911906082E000C990B0E949A178DEF1C
:102FD0009BE00E94EC0E8BEE9BE0CC2311F084EF83
:102FE0009BE00E94EC0E8AEF9BE0CF910C94CA17F5
:102FF0000F931F93CF938C01C62FFC01648389E646
:1030000098E00E94EC0EF8018081082E000C990BCC
:103010000E949A178FE598E00E94EC0E8DE498E0EC
:10302000CC2311F086E598E00E94EC0E8CE598E048
:10303000CF911F910F910C94CA17EF92FF920F93AB
:103040001F93CF93DF937C018B01EA0183E398E028
:103050000E94EC0EC7010E94EC0E87E298E00E94ED
:10306000EC0EC8010E94EC0E8BE198E00E94EC0E81
:10307000CE010E94EC0E88E198E0DF91CF911F9184
:103080000F91FF90EF900C94CA17CF93DF936DE7E9
:1030900082E993E00E949F0EEC018BEB92E00E948C
:1030A0003F178C0F9D1FDF91CF9108954F925F9234
:1030B0006F927F928F929F92AF92BF92EF92FF9208
:1030C0000F931F93CF93DF932A013B0148015901CE
:1030D000853009F480C008F061C0843009F46FC005
:1030E000E0913904F0913A041481CFE1DEE04EE33F
:1030F000E42E4EE0F42E8FE79EE00E94EC0EC70116
:103100000E94EC0E86E79EE00E94EC0E812F110FCC
:10311000990B0E949A178BE69EE00E94EC0ECE015E
:103120000E94EC0E86E59EE00E94EC0E8091070660
:1031300090910806A0910906B0910A06A301920198
:10314000281B390B4A0B5B0BCA01B9010E9490176F
:1031500084E49EE00E94EC0E8091070690910806A0
:10316000A0910906B0910A06A5019401281B390B0C
:103170004A0B5B0BCA01B9010E949017DF91CF91F6
:103180001F910F91FF90EF90BF90AF909F908F9005
:103190007F906F905F904F900C944518863039F176
:1031A000873009F09DCFE0914104F09142041481F1
:1031B000C3E0DEE084E2E82E8EE0F82E9CCFE091C2
:1031C0003B04F0913C041481CAE1DEE038E3E32ED5
:1031D0003EE0F32E90CFE0913D04F0913E04148147
:1031E000C1E1DEE021E3E22E2EE0F22E84CFE09179
:1031F0003F04F09140041481C8E0DEE09AE2E92E39
:103200009EE0F92E78CFCF92DF92EF92FF920F934C
:103210001F93CF93DF93EC018881813009F4D1C0F3
:103220006A017B01813090F08230D1F485E494E032
:103230000E94AA0F83E694E0DF91CF911F910F9136
:10324000FF90EF90DF90CF900C94AA0F898185308A
:1032500009F47DC070F48330F1F1843009F45AC070
:10326000DF91CF911F910F91FF90EF90DF90CF9062
:103270000895863009F488C0873091F7E0914104C1
:10328000F0914204309761F38681882349F385A148
:103290008111E6CF8F819885A985BA85C58AD68A9E
:1032A000E78AF08E8C0D9D1DAE1DBF1D818F928F04
:1032B000A38FB48F81E086A3CF010E9416100F81E7
:1032C000188529853A850C0D1D1D2E1D3F1DB70142
:1032D000A60187E01CC0E0913904F0913A043097D0
:1032E00009F4BECF8681882309F4BACF0F811885EF
:1032F00029853A85C18AD28AE38AF48A0C0D1D1D7C
:103300002E1D3F1D058B168B278B308F83E00E946F
:103310005618A6CFE0913B04F0913C04309709F495
:103320009FCF8681882309F49BCF0F81188529853B
:103330003A85C18AD28AE38AF48A0C0D1D1D2E1D9E
:103340003F1D058B168B278B308F84E0E0CFE091FB
:103350003D04F0913E04309709F482CF86818823A2
:1033600009F47ECF0F81188529853A85C586D686D2
:10337000E786F08A0C0D1D1D2E1D3F1D018B128B43
:10338000238B348B85E0C3CFE0913F04F091400460
:10339000309709F465CF8681882309F461CF0F81C6
:1033A000188529853A85C586D686E786F08A0C0D6C
:1033B0001D1D2E1D3F1D018B128B238B348B86E030
:1033C000A6CF8981E0913304F0913404882339F049
:1033D000813009F045CFE0913504F0913604309703
:1033E00009F43ECFCF80D884E984FA844C0D5D1D6A
:1033F0006E1D7F1D418B528B638B748B31CF2F924F
:103400003F924F925F926F927F928F929F92AF9274
:10341000BF92CF92DF92EF92FF920F931F93CF93C1
:10342000DF9300D01F92CDB7DEB72A013B0103E442
:10343000809F90011124312C8901C9018D539B4F2C
:103440009A8389834BE0242E49019EE4890E911CC6
:10345000E981FA818081381608F098C0A32CB12C3C
:10346000C801239C800D911D11248D5C9B4FFC0194
:10347000E25BFF4F2081233039F1805B9F4FFC01DD
:103480008081893021F09091180689131DC02A9CF3
:10349000F0012B9CF00D1124E00FF11FEC57FB4FB6
:1034A000C080D180E280F380C114D104E104F10432
:1034B00069F4B301A201C401329C800D911D112455
:1034C0008D5C9B4F0E9403193394C2CFC40CD51C52
:1034D000E61CF71CE6E1F5E090E080E02081211198
:1034E00025C024E0880F991F2A95E1F7DC01A95F28
:1034F000BA4F2A9CF0012B9CF00D1124E00FF11F14
:10350000EF57FB4F222D01900D922A95E1F78D5C2C
:103510009B4FFC01E152FF4FC082D182E282F382D5
:103520008D519F4F21E0FC012083CECF01967096F4
:103530008031910599F681E99DE00E94EC0E2A9C6C
:10354000C0012B9C900D1124800F911F8D5C9B4F0F
:103550009C838B83FC01E25BFF4F80810E94931769
:1035600086E89DE00E94EC0EEB81FC81E15BFF4F61
:1035700080810E94931785E79DE00E94EC0EC701B1
:10358000B6010E9490170E9445189ECF0F900F9091
:103590000F900F90DF91CF911F910F91FF90EF90BF
:1035A000DF90CF90BF90AF909F908F907F906F9063
:1035B0005F904F903F902F9008950F931F93CF935C
:1035C000DF938C01D62FC42F8DE799E00E94EC0E7B
:1035D000C8010E94EC0E82E799E00E94EC0E88E59B
:1035E00099E0DD2311F08EE599E00E94EC0E83E670
:1035F00099E00E94EC0E8DE499E0CC2311F083E574
:1036000099E00E94EC0EDF91CF911F910F910C94E5
:1036100045180F931F93CF938C01C62F83E399E036
:103620000E94EC0EC8010E94EC0E88E299E00E9414
:10363000EC0E8DE199E0CC2311F083E299E00E9439
:10364000EC0ECF911F910F910C944518CF92DF9201
:10365000EF92FF920F931F93CF938C01C62F6901B6
:103660007A0183E099E00E94EC0EC8010E94EC0E02
:1036700088EF98E00E94EC0E80EE98E0CC2311F0E9
:1036800086EE98E00E94EC0E8BEE98E00E94EC0E25
:10369000C701B6010E949017CF911F910F91FF9023
:1036A000EF90DF90CF900C9445187F928F929F926D
:1036B000AF92BF92CF92DF92EF92FF920F931F9340
:1036C000CF93DF93EC01762E49015A01670178010F
:1036D00086EC98E00E94EC0ECE010E94EC0E8BEB83
:1036E00098E00E94EC0E85E998E0772011F08BE9D4
:1036F00098E00E94EC0E8DEA98E00E94EC0EC50165
:10370000B4010E94901780EA98E00E94EC0EC70175
:10371000B6010E949017DF91CF911F910F91FF90FA
:10372000EF90DF90CF90BF90AF909F908F907F9061
:103730000C944518EF92FF920F931F93CF937C0147
:103740008B01C42F8EEF97E00E94EC0EC7010E9400
:10375000EC0E82EF97E00E94EC0EC8010E94EC0E86
:1037600087EE97E00E94EC0E8CED97E0CC2311F0F1
:1037700082EE97E00E94EC0ECF911F910F91FF9087
:10378000EF900C944518CF92DF92EF92FF920F9337
:103790001F93CF93DF938C01EB0169017A0182ECD7
:1037A00097E00E94EC0EC8010E94EC0E86EB97E0B9
:1037B0000E94EC0ECE010E94EC0E8BEA97E00E9474
:1037C000EC0EC701B6010E949017DF91CF911F91B7
:1037D0000F91FF90EF90DF90CF900C9445180097D9
:1037E00011F00C943F1790E080E00895EF92FF9263
:1037F0000F931F93CF93DF93C0913304D091340480
:10380000882321F0C0913504D0913604209709F423
:103810006EC0613009F465C008F460C0623009F41C
:1038200063C092EDE92E9CE0F92E811104C08BED6E
:10383000E82E8CE0F82E83E49DE00E94EC0EC70198
:103840000E94EC0E8AE39DE00E94EC0E8C810E94A7
:1038500093178FE19DE00E94EC0EC8010E94EC0ED0
:103860008AE09DE00E94EC0E6A8D7B8D8C8D9D8D93
:1038700000910706109108062091090630910A066A
:10388000601B710B820B930B0E94901788EF9CE0DA
:103890000E94EC0E6E8D7F8D88A199A10091070684
:1038A000109108062091090630910A06601B710BE1
:1038B000820B930B0E94901787EE9CE00E94EC0E07
:1038C000CE010D960E94EF1B84EE9CE0DF91CF911C
:1038D0001F910F91FF90EF900C94CA170EE61DE018
:1038E000A0CF05E61DE09DCF0DE51DE09ACFDF914D
:1038F000CF911F910F91FF90EF90089590910F0637
:10390000911104C090911006992371F090911106C5
:1039100091110AC060911606882321F0813021F4AC
:10392000609117060C94F61B0895CF93DF93EC017A
:103930006E838EE597E00E94EC0E8F8198850E9441
:10394000EF1B85E597E00E94EC0E8C81082E000CA1
:10395000990B0E949A178BE497E00E94EC0E8E81DF
:1039600081110AC089E397E00E94EC0E88E497E099
:10397000DF91CF910C94CA1782E497E0F5CF60E015
:1039800080911102909112020E94951C60E080913A
:103990001302909114020E94951C60E08091150220
:1039A000909116020E94951C60E080911702909100
:1039B00018020E94951C60E08091190290911A02F1
:1039C0000E94951C60E080911B0290911C020E9455
:1039D000951C60E080911D0290911E020E94951C32
:1039E00080911F0290912002009719F060E00E94E0
:1039F000951C8091210290912202009719F060E0BD
:103A00000C94F81708951F93CF93DF93EC01162FB2
:103A10008E81882321F060E0CE010E94951C8D816B
:103A2000813021F460E08C810E9481091C836D81CA
:103A3000812F0E94AF098D81813021F460E08C815B
:103A40000E94810981E997E00E94EC0E8F819885A0
:103A50000E94EF1B88E797E00E94EC0E8C81082EF5
:103A6000000C990B0E949A17DF91CF911F910C9433
:103A70004518CF93DF93EC010E94031D8C810E94B7
:103A8000580921E0892B09F420E02A878C810E94C3
:103A9000580921E0892B09F420E02B878C810E94B2
:103AA000580921E0892B09F420E02C871D8A1E8A01
:103AB0001F8A188EDF91CF9108959F92AF92BF9287
:103AC000CF92DF92EF92FF920F931F93CF93DF93EA
:103AD0008A01452B09F468C0E9016B016596FC0178
:103AE0006081CE010E946B11FC01BB24BA94892B2A
:103AF00009F0B5807601E894F7F8AA24A394670149
:103B0000C00ED11E99249394309709F44DC0AA2079
:103B100009F43FC08481843069F0853049F18230F6
:103B200079F5DF010D900020E9F71197CD018E1B8B
:103B30009F0B07C00190F081E02D90E080E030976E
:103B400081F79F77E816F90621F5D801AC15BD0578
:103B5000E1F46B2DCE01DF91CF911F910F91FF907A
:103B6000EF90DF90CF90BF90AF909F900C946B112F
:103B7000A081B181FD01349613968C9190E0E2CF43
:103B800090E080E0F0E0E0E0DDCF9D91819198173A
:103B9000E9F2A9246B2DCE010E946B11FC01892B47
:103BA00009F4B2CFB580B0CF90E080E0DF91CF9143
:103BB0001F910F91FF90EF90DF90CF90BF90AF904B
:103BC0009F900895FC0120813181C9014A9642816C
:103BD000538164817581009759F0D9015E96EC910B
:103BE000E03211F090E080E0009711F00C945D1D40
:103BF00090E080E00895CF93DF93EB010E94E21DF7
:103C0000009741F0FC012481263021F48081DF916E
:103C1000CF9108958881FBCFCF92DF92EF92FF92F0
:103C2000CF93DF9300D01F921F92CDB7DEB70E94D3
:103C3000E21DDC01892B09F446C01496EC9114971F
:103C4000E250ED3008F03FC0F0E08827E55DF14E2E
:103C50008F4F0C948B41521E631E651E681E381ECA
:103C6000631E631E631E461E631E461E631E6C1E7D
:103C7000CC908C2D0F900F900F900F900F90DF91A4
:103C8000CF91FF90EF90DF90CF900895CD90DD9091
:103C9000ED90FC908FEFC816D104E104F10449F3D4
:103CA00040F311C0CD010E9468133A834B835C83BB
:103CB0006D83CA80DB80EC80FD80223059F3233095
:103CC00049F3213069F0C12CD4CF8D919C91EBCF79
:103CD0008D919C910496E7CFCD90DD90ED90FC9076
:103CE00020E030E0A901C701B6010E94864187FDAE
:103CF000EACF20E030E04FE753E4C701B6010E946D
:103D0000EA3E181604F3C701B6010E945741C62EB9
:103D1000B0CFCF92DF92EF92FF92CF93DF9300D09C
:103D20001F921F92CDB7DEB70E94E21DDC01892BE6
:103D300009F44BC01496EC911497E250ED3008F062
:103D400044C0F0E08827E855F14E8F4F0C948B412A
:103D5000D41EE51EE91EEC1EB51EE51EE51EE51E81
:103D6000C51EE51ECA1EE51EF01E6C9170E090E0B7
:103D700080E00F900F900F900F900F90DF91CF91F8
:103D8000FF90EF90DF90CF9008956D917D918D9190
:103D90009C91EFCF8D919D910D90BC91A02DB7FD81
:103DA00014C0BC01CD01E5CFCD010E9468133A8358
:103DB0004B835C836D83CA80DB80EC80FD80223086
:103DC00059F1233059F1213079F060E070E0CB01F6
:103DD000D0CF8D919C91E9CF8D919C910496E5CFA8
:103DE000CD90DD90ED90FC9020E030E0A901C7017E
:103DF000B6010E94864187FDE8CF2FEF3FEF4FE7E6
:103E00005FE4C701B6010E94EA3E1816F4F2C7014A
:103E1000B6010E945741ADCFF7FCD7CFC701B6011D
:103E2000A8CF8F929F92AF92BF92CF92DF92EF92E4
:103E3000FF920F931F93CF93DF9300D000D0CDB7A5
:103E4000DEB749015A0167017801FB0101900020AA
:103E5000E9F73197E61BF70B9A8389837C836B83A1
:103E6000ED838F2F8F778E83CE0101960E94E21D06
:103E70000097B9F0FC0124812A3041F02C3089F4FC
:103E800080819181A281B381B7FD0BC0CE010196E3
:103E90000E94891E86169706A806B90610F44B01E3
:103EA0005C01C501B401C616D706E806F90610F490
:103EB000C701B60126960FB6F894DEBF0FBECDBF80
:103EC000DF91CF911F910F91FF90EF90DF90CF90F6
:103ED000BF90AF909F908F900895CF92DF92EF9216
:103EE000FF92CF93DF9300D01F921F92CDB7DEB722
:103EF0000E94E21DDC01892B09F448C01496EC9164
:103F00001497E250ED3008F041C0F0E08827E45704
:103F1000F04E8F4F0C948B41C91FC61FDB1FDE1F55
:103F2000991FC61FC61FC61FA81FC61FB51FC61FC5
:103F3000E21F6C9170E0CB010F900F900F900F90EB
:103F40000F90DF91CF91FF90EF90DF90CF90089589
:103F50008D919D910D90BC91A02D811520E8920727
:103F6000A105B10598F4BC01E6CF8D919D910D900E
:103F7000BC91A02D6C017D0120E8D20EE11CF11C4A
:103F8000C114D10421E0E206F10468F370E060E0BE
:103F9000D2CFCD010E9468133A834B835C836D833B
:103FA000CA80DB80EC80FD80223049F1233099F11A
:103FB000213061F70BC08D919C91ECCF8D919C913C
:103FC0000496E8CFCD90DD90ED90FC9020E030E0BD
:103FD00040E057ECC701B6010E94864187FDD6CF6D
:103FE00020E03EEF4FEF56E4C701B6010E94EA3EE3
:103FF000181664F2C701B6010E9450419CCFD70148
:10400000C6019058AF4FBF4F0097A140B10508F0CF
:10401000BDCFB60190CFC11480E8D806E104F10409
:10402000C0F3B4CF0F931F93CF93DF93EC018B01B9
:104030000E94E21DFC01892B29F084818A3051F015
:104040008C30C1F0F80180819181DF91CF911F9177
:104050000F91089580819181A281B381811590484B
:10406000A105B10578F7CE01DF91CF911F910F9196
:104070000C946D1F80819181A281B3819058AF4FC4
:10408000BF4F0097A140B105E8F6EDCF4F925F9288
:104090006F927F92AF92BF92CF92DF92EF92FF9298
:1040A0000F931F93CF93DF9390910F06911105C04B
:1040B00090911006992309F4E6C090911106911190
:1040C000E2C0823008F0DFC08093180681110AC078
:1040D000E0913304F0913404309759F481E08093F7
:1040E0001606D1C0E0913504F0913604309709F4FA
:1040F00083C09089992309F47CC00189128923899E
:104100003489041715072607370708F47EC088236B
:1041100009F4C8C082E080931706B5C08F898F5F0D
:104120008F8B9D89891708F4A9C08FA5843658F410
:104130000E94923EA30192010E940E408FA5681733
:1041400010F01F8A9BC01F8A888D882351F09D899B
:104150009501281B31099217130609F05CF4890FA9
:104160008D8B8B89823008F089C0B701A6010E942F
:10417000FF1984C08FE292E00E94EC0E8D890E94AC
:1041800093178CE292E00E94CA17EBCFCD8EDE8EA1
:10419000EF8EF8A273C08DA5811170C089A19AA17C
:1041A000ABA1BCA1A7019601281B390B4A0B5B0BE5
:1041B000DA01C901B7FD62C08DA19EA1AFA1B8A56A
:1041C0008C199D09AE09BF09181619061A061B0697
:1041D0000CF054C08FA5843610F00DA7C2CF0E94FA
:1041E000923EA30192010E940E408FA56817A8F38A
:1041F00045C0882309F472CF81E08DCF1092160656
:10420000E0913304F091340408C08823B9F310928C
:104210001706E0913504F0913604309781F0009153
:104220000B0610910C0620910D0630910E06040F1E
:10423000151F261F371F018B128B238B348B6A01AE
:104240007B01182FC3E3D4E0AA24AA94B12C94E6EE
:10425000492E512C612C712C01E08C89882371F03E
:104260008EA5893011F0181309C08A89813009F4AC
:104270008DCF08F453CF823009F48DCF6E9634E0A1
:10428000CF36D30751F7DF91CF911F910F91FF9058
:10429000EF90DF90CF90BF90AF907F906F905F9046
:1042A0004F90089582E01BCFBF92CF92DF92EF92A2
:1042B000FF920F931F93CF93DF93EC01198D1F3F54
:1042C00081F0612F45960E946B11FC018081898FDE
:1042D000309709F477C014828FEF8583BF01812F57
:1042E00076C06C0135E0C30ED11CE880F9808F895F
:1042F000882341F0C6010E94FD11E62FF72F182FE9
:10430000309749F71F89988D191324C0103109F48B
:1043100059C0110F6D897E89D701ED91FC91B4E0F0
:104320001B9FA0011124C616D70609F044C00190B6
:10433000F081E02DBA01C7011995009709F442C038
:1043400020E1F601DC0101900D922A95E1F79E8BA8
:104350008D8B188F0D891E898F8921E0280F2F8B57
:10436000E4E08E9FC0011124080F191F90E1B92EBF
:10437000203111F48FE0B82EF6E0BF9EB001112479
:10438000D701ED91FC910190F081E02DC7011995C5
:10439000F80193838283892B09F4B12CD801BC9254
:1043A00011961C92012B71F0C6010E94FD11E62F9F
:1043B000F72F182F8DCF0480F581E02DC7011995B7
:1043C000009729F681E08A8360E070E08FEFDF914B
:1043D000CF911F910F91FF90EF90DF90CF90BF9002
:1043E00008954F925F926F927F928F929F92AF92B9
:1043F000BF92CF92DF92EF92FF920F931F93CF93D2
:10440000DF9300D01F921F92CDB7DEB78C017B01E6
:10441000B42E0E94DB116C01892B09F048C0C80141
:104420000E949711863609F4A9C124F5873229F034
:104430008B3561F1823209F0A8C1D80115961C9222
:104440001E92149712968D919C911397892B39F493
:104450008D919C910E94C207F80193838283C801C9
:104460000E943D156C01892B11F5B701C8010E940E
:104470001C161DC0843709F460C18B3709F47BC05A
:104480008E3609F082C166ED72E060C180E4D7012A
:1044900014968C931497E114F10421F08FEF8C9310
:1044A00011968C93B1101AC025E0C22ED12CC601F2
:1044B0000F900F900F900F900F90DF91CF911F9161
:1044C0000F91FF90EF90DF90CF90BF90AF909F90B3
:1044D0008F907F906F905F904F900895F8011286B3
:1044E000C8010E94DB11009751F56DE5C8010E94DB
:1044F000A7118111DCCFBA94D8011B966D907C90E6
:10450000C3010E945421A82E4B01672B21F494E093
:10451000C92ED12CCCCFF70161816F3F91F0C3013F
:1045200045960E946B11DC011596AC92F701A182B1
:104530004B2DB401C8010E94F121009739F06C01A4
:10454000B6CFD7018C9311968C93F2CFC8010E94FD
:10455000DB110097A1F76DE5C8010E94A711811139
:10456000A6CF6CE2C8010E94A7118111C5CF83E0DC
:10457000C82ED12C9CCF80E2F7018483E114F10492
:1045800019F08FEF80838183BB2009F48DCFD80190
:104590001A961C92C8010E94DB11009781F66DE704
:1045A000C8010E94A711811182CFBA94F801158227
:1045B000148282819381892B49F4808191810E94A8
:1045C000C207D80113969C938E931297C8010E943C
:1045D00097118732F9F08232E9F0C8010E949711F1
:1045E000D82E0E948511882311F2F80112866D2DB4
:1045F000C8010E940F15C8010E949711D82E0E9471
:1046000085118111F2CFD80112968D919C91892B41
:1046100041F47DCFC8010E943D156C01892B09F042
:1046200046CFC8010E94DB116C01892B09F03FCFF6
:104630006AE3C8010E94A711882309F498CFD80122
:104640001296ED91FC91139714968D919C9115976C
:10465000E80FF91F148214966D917C9115977F775E
:104660001B966D907C901C9712968D919C91049650
:10467000272F2F77BA2DB078AB2EA22AE894A7F86F
:104680009301AC017A2DC7010E945D1D6C0100975A
:1046900061F5C3010E945421482E4B01672B09F498
:1046A00036CFC3010E945421582E962FC92ED72EE3
:1046B000C114D10409F42BCFF4015582D70111960E
:1046C0006C916F3F71F0C30145960E946B11FC0124
:1046D0004582D70111965C92B401C8010E941C1654
:1046E00007C0F70140825182F7CFB3010E94B9168B
:1046F0004B2DB601C8010E94F1216C01892B09F0F4
:10470000D6CEC8010E94DB116C01892B09F0CFCEF7
:104710006DE7C8010E94A7118111C9CE6CE2C801E2
:104720000E94A711882309F422CFC8010E94DB113F
:104730006C01892B09F43ACFBACE86E0D7011496E2
:104740008C93149781E08C936BEC72E0C8010F900E
:104750000F900F900F900F90DF91CF911F910F91BD
:10476000FF90EF90DF90CF90BF90AF909F908F9091
:104770007F906F905F904F900C94B81186E0F70196
:104780008483108260ED72E0E1CFC8010E9497112E
:104790004801FDE08F0E911CB12C782CA92C8033A0
:1047A00084F08A3384F43FE3B316A9F0D8011A9653
:1047B0001C92B394F40181934F01C8010E94971198
:1047C000EECF8B3281F393ED980F923060F3982FF8
:1047D0009F7D953441F30B0D111DD8011D961C9240
:1047E000872D9A2D0E9468133A834B835C836D83D7
:1047F0008A819B81AC81BD812230A9F0233059F0A0
:10480000213009F0B4CE2EE0F70124838083918318
:10481000A283B3834CCE2AE0F70124838083918363
:10482000A283B38344CE2CE0F7CF4F925F926F9276
:104830007F928F929F92AF92BF92CF92DF92EF9230
:10484000FF920F931F93CF93DF93CDB7DEB7CF5E69
:10485000D1090FB6F894DEBF0FBECDBF6E012EECAE
:10486000C20ED11C86E092E0F60191838083128211
:1048700014821382C6010596968B858B178A84E075
:10488000808F8FEF818F168E878F9E012F5F3F4F16
:10489000790110E000E00E94450A60939A0370934A
:1048A0009B0380939C0390939D0382E993E00E9475
:1048B000450E97FD02C00C944F330E94450A80902C
:1048C0009A0390909B03A0909C03B0909D0368195D
:1048D00079098A099B098090960390909703A0908C
:1048E0009803B0909903681579058A059B05E8F24D
:1048F0000F37110561F482E993E00E94670E892B5E
:1049000031F082E993E00E94450E0A97A1F7E1E0B9
:10491000F0E0EC0FFD1FE00FF11F108205301105D4
:1049200078F045E050E06BED72E0CE0101960E9418
:104930009943892B29F488E999E00E94CA173EC45B
:10494000F60160817181C60105960E942912F60167
:10495000128200811181F60183819481009751F0C8
:10496000FC0120813181F60134832383B8010E9448
:10497000AF16F1CF168ECF57DF4FD982C882C158FC
:10498000D040CD57DF4F19821882C358D040CB5743
:10499000DF4F19821882C558D040C957DF4F18829F
:1049A000C758D04021E030E02C0F3D1FC857DF4FE3
:1049B00039832883C858D040C557DF4F1882CB5859
:1049C000D040C457DF4FD982C882CC58D0404AE08B
:1049D000B601665E7F4FCE018F579F4F0E94F12137
:1049E0008C01892B69F4C657DF4F8881CA58D040A3
:1049F000882331F0F601868D83FF02C003E010E0CA
:104A0000CD57DF4F88819981C358D040009751F02E
:104A1000CF57DF4FE881F981C158D0406081718163
:104A20000E94AF1601151105F1F081E297E00E9496
:104A3000EC0EF801EE0FFF1FE254FA4F85919491AE
:104A40000E94EC0E8EE197E00E94CA1782E993E083
:104A50000E94670E181619060CF0B0C382E993E0A5
:104A60000E94450EF3CFCF57DF4FD982C882C1587D
:104A7000D04081EE92E0CD57DF4F99838883C358B1
:104A8000D04083E0CB57DF4F8883C558D040CA570A
:104A9000DF4F1881C658D04010781068CA57DF4FD2
:104AA0001883C658D040CE018F579F4F0E94E21DF9
:104AB000009709F483C3FC018481882309F47EC331
:104AC0001068CA57DF4F1883C658D040CE018F57A1
:104AD0009F4F0E946D1F8C01893DF1E09F0709F4F3
:104AE0001CC10CF0C9C1883731E0930709F40AC52D
:104AF0000CF018C18733914009F4EEC3083381E00C
:104B000018070CF0D3C00D3291E0190709F403C364
:104B10000CF0BCC060E00C32F1E01F0709F4FCC2ED
:104B20000C3AF2E01F0709F4C5C70CF097C60D3D1B
:104B3000110511F40C94652E0CF0CEC50736110545
:104B400011F40C9482300CF087C50536110511F470
:104B50000C94B02E14F00C9476300436110509F044
:104B6000BDC480918803811129C30E94450A4B016D
:104B70005C018092840390928503A0928603B09298
:104B80008703809134068823C9F080914206811101
:104B900015C080E396E00E94041080924306909234
:104BA0004406A0924506B092460681E080934206F4
:104BB000F894109232061092330678948090840311
:104BC00090908503A0908603B090870310920F0603
:104BD00010921106E6E1F5E01082709626E0E631CB
:104BE000F207D1F785E494E00E94AA0F83E694E0EF
:104BF0000E94AA0FE0913904F0913A04309711F025
:104C00000C947130E0913B04F0913C04309719F022
:104C100084810E947A0AE0913D04F0913E0430972D
:104C200021F060E084810E948109E0913F04F091CD
:104C30004004309721F060E084810E948109E09176
:104C40004104F0914204309729F011A660E084817C
:104C50000E9481098AE293E00E94EC0E8091520347
:104C600090915303A0915403B0915503A501940171
:104C7000281B390B4A0B5B0BCA01B9010E94901724
:104C80000E94451881E08093880398C20F3221E08A
:104C9000120709F4FDC260E0063331E0130709F0A2
:104CA0003FCF80911702909118023AC2033741E03A
:104CB000140709F438C23CF5093381E0180709F0FC
:104CC0002FCF00911702109118020E94450AF80197
:104CD000618B728B838B948B85849684A784B08838
:104CE000DC01CB01880D991DAA1DBB1D858B968B00
:104CF000A78BB08F81E080A347E655E06DE675E0B5
:104D000082E795E0E6C2043791E0190709F471C221
:104D10000537E1E01E0709F003CF083D114009F413
:104D20007DC04CC28139F1E09F0709F4F5C2CCF592
:104D30008E3731E0930709F4D1C21CF58D379140CD
:104D400009F0EECEEE24EA94FE2C00E010E021E023
:104D500030E040E050E065EE72E0C6010E94111FB5
:104D60009B01AC01E0911702F09118022187328774
:104D70004387548765E875E08FE895E00E94C31B80
:104D80001DC2023881E0180709F4D1C360E0003980
:104D900091E0190709F0C4CE8091190290911A028E
:104DA000BFC18B39E1E09E0709F4DAC27CF4833994
:104DB00021E0920709F4B2C260E08A39914009F01B
:104DC000AFCE80911B0290911C02AAC18D3941E0A7
:104DD000940709F4E7C2883D914009F0A1CE10EC98
:104DE000E12E17E2F12E09E010E021E030E040E092
:104DF00050E06FEE72E0C6010E94111F9B01AC01F2
:104E0000E0911902F0911A02218732874387548773
:104E100069E575E082E695E00E94C31BCF57DF4F3E
:104E2000D982C882C158D0408FEE92E0CD57DF4F73
:104E300099838883C358D04088E0CB57DF4F88835D
:104E4000C558D040CA57DF4F8881C658D0408078B7
:104E50008068CA57DF4F8883C658D040CE018F572D
:104E60009F4F0E94891E60933A0270933B02809389
:104E70003C0290933D0209C20F3982E0180709F401
:104E8000C7C20CF088C0053FE1E01E0709F4ACC2C0
:104E900074F5023E21E0120709F464C2C4F40C3D2B
:104EA00041E0140709F03CCE15E3E12EF12C00E0BF
:104EB00010E022E030E040E050E068EF72E0C60130
:104EC0000E94111F8091190290911A022DC3063E73
:104ED00051E0150709F43EC360E0043F81E0180784
:104EE00009F01ECE80911D0290911E0219C1083555
:104EF00092E0190709F483C2C4F40034F2E01F07FA
:104F000009F00ECE15E3E12EF12C00E010E022E0D6
:104F100030E040E050E068EF72E0C6010E94111FEF
:104F200080911D0290911E02FFC2093522E01207F6
:104F300009F45CC20B3532E0130709F0F1CD0091A2
:104F40001F02109120020115110509F437C10E94BA
:104F5000450AAB01BC01F801458B568B678B708FFE
:104F600085859685A785B089840F951FA61FB71FD5
:104F7000818F928FA38FB48FFF24F394F6A2C80180
:104F80000E941610F801F0A648E155E06EE175E0C8
:104F900083E295E09EC1043843E0140709F4A8C2F7
:104FA0000CF075C0043A82E0180709F4E6C20CF070
:104FB00054C0003AE2E01E0709F0B2CD10ECE12E39
:104FC00017E2F12E09E010E021E030E040E050E08F
:104FD0006FEE72E0C6010E94111F9B01AC01E091CF
:104FE0001F02F0912002309751F0258736874787BE
:104FF000508B69EF74E082E095E00E94C31BCF57AD
:10500000DF4FD982C882C158D0408FEE92E0CD5791
:10501000DF4F99838883C358D04088E0CB57DF4F58
:105020008883C558D040CA57DF4F8881C658D040C2
:1050300080788068CA57DF4F8883C658D040CE0139
:105040008F579F4F0E94891E6093360270933702DC
:10505000809338029093390218C1093AF2E01F0791
:1050600009F423C20A3A22E0120709F059CDE0916F
:105070001F02F0912002309709F4A0C081E085A3BF
:105080004CEC54E068ED74E08DED94E022C1003DFD
:1050900033E0130709F48BC2D4F4053853E0150745
:1050A00009F415C2073883E0180709F039CD80915B
:1050B000210290912202009709F410C20E9404106C
:1050C00046EB54E06CEB74E081EC94E002C10433F5
:1050D00094E0190709F4A4C20036E5E01E0709F0C0
:1050E0001FCD8091130290911402892B09F466C0A0
:1050F00015E3E12EF12C00E010E022E030E040E08A
:1051000050E068EF72E0C6010E94111F8091130207
:10511000909114029EC261E0809115029091160256
:105120000E94951C4BC0EE24EA94FE2C00E010E097
:1051300021E030E040E050E065EE72E0C6010E9400
:10514000111F9B01AC01E0911502F091160221871D
:1051500032874387548760EB75E08AEB95E00E94C5
:10516000C31BCF57DF4FD982C882C158D04085EECC
:1051700092E0CD57DF4F99838883C358D04089E0B0
:10518000CB57DF4F8883C558D040CA57DF4F88813F
:10519000C658D04080788068CA57DF4F8883C65889
:1051A000D040CE018F579F4F0E94891E60933E02D0
:1051B00070933F028093400290934102C6010E9487
:1051C0002117C151DF4F0FB6F894DEBF0FBECDBF20
:1051D000DF91CF911F910F91FF90EF90DF90CF90D3
:1051E000BF90AF909F908F907F906F905F904F9007
:1051F000089510ECE12E17E2F12E09E010E021E015
:1052000030E040E050E06FEE72E0C6010E94111FF6
:105210009B01AC01E0911502F091160225873687BB
:105220004787508B63EA75E08CEA95E00E94C31BC8
:10523000CF57DF4FD982C882C158D0408FEE92E05D
:10524000CD57DF4F99838883C358D04088E0CB5730
:10525000DF4F8883C558D040CA57DF4F8881C65872
:10526000D04080788068CA57DF4F8883C658D040C6
:10527000CE018F579F4F0E94891E60934202709308
:10528000430280934402909345020E946E1296CF8F
:1052900000911502109116020E94450AF801618BD7
:1052A000728B838B948B85849684A784B088DC0171
:1052B000CB01880D991DAA1DBB1D858B968BA78BD5
:1052C000B08F81E080A344E955E06AE975E08FE999
:1052D00095E00E941D1872CF61E0E3CC10ECE12E46
:1052E00017E2F12E09E010E021E030E040E050E06C
:1052F0006FEE72E0C6010E94111F9B01AC01E091AC
:105300001702F0911802258736874787508B67E789
:1053100075E080E895E032CD61E03ECD0091190264
:1053200010911A020E94450AF801658776878787DF
:10533000908B81849284A384B484DC01CB01880D9A
:10534000991DAA1DBB1D818B928BA38BB48B81E011
:10535000858B49E455E06FE475E084E595E0B9CFCD
:1053600061E02FCD10ECE12E17E2F12E09E010E004
:1053700021E030E040E050E06FEE72E0C6010E94B4
:10538000111F9B01AC01E0911B02F0911C022187CF
:105390003287438754876AE375E083E495E00E948F
:1053A000C31B73CF00911B0210911C020E94450A7F
:1053B000F801658776878787908B81849284A384A0
:1053C000B484DC01CB01880D991DAA1DBB1D818B06
:1053D000928BA38BB48B81E0858B49E255E06FE221
:1053E00075E084E395E075CF61E07CCD80911F028C
:1053F0009091200261E0009709F092CEDFCE80917B
:105400001F029091200260E0009709F089CED6CE6D
:10541000EE24EA94FE2C00E010E021E030E040E0D1
:1054200050E065EE72E0C6010E94111F9B01AC01C5
:10543000E0911F02F0912002309779F0211531059B
:105440004105510521F0218732874387548768E061
:1054500075E082E195E00E94C31BCF57DF4FD982F0
:10546000C882C158D04085EE92E0CD57DF4F998376
:105470008883C358D04089E0CB57DF4F8883C55815
:10548000D040CA57DF4F8881C658D04080788068A6
:10549000CA57DF4F8883C658D040CE018F579F4FE1
:1054A0000E940C1E8093350289CEE0911F02F0917C
:1054B0002002309749F015A243EE54E06EEE74E0FE
:1054C00083EF94E00E941D1810926303DECE80915A
:1054D00021029091220261E0009789F486E792E030
:1054E0000E94EC0EC8010E949A1784E792E025CA38
:1054F0008091210290912202009781F360E00E9446
:10550000F8175CCE15E3E12EF12C00E010E022E06C
:1055100030E040E050E068EF72E0C6010E94111FE9
:1055200080911502909116020E94031D47CE15E34B
:10553000E12EF12C00E010E022E030E040E050E00D
:1055400068EF72E0C6010E94111F809117029091CE
:105550001802EACF15E3E12EF12C00E010E022E082
:1055600030E040E050E068EF72E0C6010E94111F99
:1055700080911B0290911C02D7CF80911F029091C5
:105580002002892B09F41ACE15E3E12EF12C00E05C
:1055900010E022E030E040E050E068EF72E0C60149
:1055A0000E94111F80911F0290912002BDCF809117
:1055B000210290912202892B09F490CF15E3E12E6C
:1055C000F12C00E010E022E030E040E050E068EF35
:1055D00072E0C6010E94111FF62E00912102109167
:1055E0002202F8018585882331F060E080810E94E5
:1055F0008109F8011586F801F08261E08F2D0E9483
:10560000AF0960E0F80180810E94810982E794E09F
:105610000E94EC0EF8018081082E000C990B8FC7B8
:105620008091110290911202892B09F4C7CD15E3E4
:10563000E12EF12C00E010E022E030E040E050E00C
:1056400068EF72E0C6010E94111F809111029091D3
:1056500012020E94391DB2CD0936110509F40DC69A
:105660000CF46EC5093C110509F4DDC20D3C1105B1
:1056700009F034CFCF57DF4FD982C882C158D0400C
:1056800080E193E0CD57DF4F99838883C358D040A2
:1056900084E0CB57DF4F8883C558D040CA57DF4FCF
:1056A0008881C658D04080788068CA57DF4F888389
:1056B000C658D040CE018F579F4F0E940C1E80933A
:1056C0000B0280934B04282F30E050E040E06AE664
:1056D00076E082E796E052CB0D3D31E0130771F0A2
:1056E0000CF0A5C00A3751E0150709F44FC00CF0C3
:1056F00043C0093791E0190709F0F0CECF57DF4FCB
:10570000D982C882C158D0408CEF92E0CD57DF4F8C
:1057100099838883C358D04085E0CB57DF4F888377
:10572000C558D040CA57DF4F8881C658D0408078CE
:105730008068CA57DF4F8883C658D040CE018F5744
:105740009F4F0E94891E613CE7E27E07E9E08E07D9
:10575000910520F060EC77E289E090E0013AF2E018
:105760001F0709F080C16093580670935906809313
:105770005A0690935B0689CD0338E1E01E0709F4D1
:10578000BDCF0438F1E01F0709F0A8CEC251DF4FAA
:1057900019821882CE5ED040CF57DF4FD982C8829F
:1057A000C158D04089E293E0CD57DF4F9983888379
:1057B000C358D04086E0CB57DF4F8883C558D040D0
:1057C000CA57DF4F8881C658D04080788068CA5752
:1057D000DF4F8883C658D040BE0162517F4FCE0153
:1057E0008F579F4F0E9412205C01F12C019741F0CE
:1057F00089E0F82E42E0A416B10411F4FF24F394DA
:105800000A3751E0150709F034C6F09203020E94EE
:105810006E12F1E0FF1242C6F0920A079501BB0C2E
:10582000440B550B65EE75E082EF95E0A7CA073E85
:1058300021E0120709F462CF34F40E3D41E0140771
:1058400009F4A4CF4BCE083E51E0150709F49ECFD2
:10585000013A82E0180709F451CF40CE0D3494E0AC
:10586000190709F421C60CF087C00233F4E01F07C2
:1058700009F42CC1ACF4083E33E0130709F424C149
:10588000093E43E0140709F41BC10D3A52E0150725
:1058900009F024CE81E08093630380935603F5CC16
:1058A000083384E0180709F45AC10CF057C00333D9
:1058B000E4E01E0709F012CECF57DF4FD982C8822D
:1058C000C158D0404AE0E42E43E0F42ECD57DF4FDC
:1058D000F982E882C358D04015E0CB57DF4F1883D8
:1058E000C558D040CA57DF4F8881C658D04080780D
:1058F0008068CA57DF4F8883C658D040CE018F5783
:105900009F4F0E940C1E0E94D008CF57DF4FD982B4
:10591000C882C158D040CD57DF4FF982E882C358C2
:10592000D040CB57DF4F1883C558D040CA57DF4F00
:105930008881C658D04080788068CA57DF4F8883F6
:10594000C658D040CE018F579F4F0E94891E9B01A1
:10595000AC016EEF76E084E097E010CA0933F4E022
:105960001F0709F4EBC080E00C3424E0120709F0B3
:10597000B5CD0E94D81722CC053135E0130709F4C4
:10598000F6C0ACF40F3454E0150709F453C60CF418
:105990001CC6083994E0190709F488C560E0043191
:1059A000E5E01E0709F09ACD8AEF96E0B9CB0F35F6
:1059B000F5E01F0709F4DDC0ECF50E3535E01307FF
:1059C00009F08CCDCF57DF4FD982C882C158D04063
:1059D00082E093E0CD57DF4F99838883C358D0404E
:1059E00087E0CB57DF4F8883C558D040CA57DF4F79
:1059F0008881C658D04080788068CA57DF4F888336
:105A0000C658D040CE018F579F4F0E94891E4B0130
:105A10005C0180920D0290920E02A0920F02B09251
:105A200010020E94A308A501940165EC76E08DECBC
:105A300096E0A4C9043645E0140709F4ECC0053625
:105A400055E0150709F04ACD81E080930A078AEFF7
:105A500096E0909305028093040241E062EA76E0CA
:105A60008DEA96E079C0093721E0120749F4609386
:105A70005F0370936003809361039093620305CC8E
:105A8000033831E0130709F499CB0D3D114049F477
:105A900060935B0370935C0380935D0390935E035C
:105AA000F4CB6093570370935803809359039093FA
:105AB0005A03EBCB81E08093630310925603E5CB4E
:105AC00061E080E297E02CCB60E0FBCFCF57DF4F67
:105AD000D982C882C158D04082E093E0CD57DF4FD1
