:100000000C9402080C94A0360C9475360C944A3665
:100010000C941F360C94F4350C94C9350C949E3511
:100020000C9473350C948B370C9433080C94330870
:100030000C9433080C94CB360C9433080C9433088E
:100040000C9433080C9433080C9433080C94330844
:100050000C9433080C9433080C9433080C94293511
:100060000C9433080C9455370C942B370C943308AC
:100070000C9433080C9433080C9433080C94330814
:100080000C9433080C9433080C9433080C94330804
:100090000C9433080C9433080C9433080C943308F4
:1000A0000C9433080C9433080C9433080C943308E4
:1000B0000C9433080C9433080C9433080C943308D4
:1000C0000C9433080C9433080C9433080C943308C4
:1000D0000C9433080C9433080C9433080C943308B4
:1000E0000C9433080C94D80A0C94E00A0C94DC0AA3
:1000F0000C9498080C94E80F0C94B30A0C94D90F44
:100100000C9442100C94D20A0C94AC0F0C948721DE
:100110000C940A100C94F30A0C94F50B0C94AA207E
:100120000C948B200C949F210C94B1200C94C50A44
:100130000C94FC0F0C9413200C9426350C949520F1
:100140000C9469210C945A210C94EA0A0C94C2086C
:100150000C94AA100C94F1090C949F080C94242080
:100160000C94E60A0C94A6200C9426200C9476217C
:100170000C94F40A0C9486200C943F1E0C94A60850
:100180000C949C210C94F80A0C948A210C94F0098C
:100190000C94AD200C9491080C9476200C94A3211F
:1001A0000C94B90A0C9497230C9407200C942920E2
:1001B0000C94AD080C9423350C94BD0A0C94CE0A13
:1001C0000C94F91F0C94C10A0C943A380C94EE0A62
:1001D0000C941F350C942D200C94B4080C94BB087F
:1001E0000C94C80A546F6F44656570004E6F4D657E
:1001F0006D6F727900496E76616C6964496E7075D5
:100200007400496E636F6D706C657465496E7075CE
:100210007400456D707479496E707574004F6B0091
:10022000CDCCCC3D0AD7233C17B7D13877CC2B3275
:100230009595E6241FB14F0A000020410000C842F6
:1002400000401C4620BCBE4CCA1B0E5AAEC59D7455
:10025000227D007B226C6576656C223A223030313B
:10026000222C22646576696365223A22434F4E54FC
:10027000524F4C4C4552222C2264657363223A2221
:100280005052207468726573686F6C64206361708B
:1002900070656420617420004C48005248007B2245
:1002A0006C6576656C223A22303030222C227661E1
:1002B000726961626C655F696E74657276616C22E9
:1002C0003A004C455645525F4C48004C4556455205
:1002D0005F524800534C4D004D4943524F53434FDA
:1002E0005045004C49434B004C415345520050553A
:1002F0004D50320050554D50004355453200435546
:100300004500227D00736F667477617265006578C1
:100310007465726E616C002C226163746976655F2E
:100320006C65766572223A22002C2274696D656FC5
:1003300075745F6D6F6465223A007B226C6576652B
:100340006C223A22303030222C2264657669636553
:10035000223A22434F4E54524F4C4C4552222C22AB
:10036000706172616469676D223A22564152494157
:10037000424C455F494E54455256414C222C227402
:10038000696D656F7574223A00227D007B226C6571
:1003900076656C223A22303037222C2264657669E9
:1003A0006365223A22434F4E54524F4C4C455222E1
:1003B0002C226576656E74223A225354415254229F
:1003C0002C2274696D657374616D70223A302C2231
:1003D000736F75726365223A22007D007B226C6523
:1003E00076656C223A22303036222C2264657363A3
:1003F000223A22436F6D6D616E64206E6F742066C9
:100400006F756E64222C22636F6D6D616E64223A8B
:10041000007B226C6576656C223A22303036222CC5
:1004200022646576696365223A224558545F5452C6
:100430004947474552222C226572726F725F636F83
:100440006465223A224558545F50494E5F494E56E2
:10045000414C4944222C2264657363223A22457838
:100460007465726E616C2074726967676572207062
:10047000696E206D7573742062652031382C2031CF
:10048000392C203230206F72203231222C22676FBB
:1004900074223A007B226C6576656C223A223030F9
:1004A00030222C22646576696365223A22455854CD
:1004B0005F54524947474552222C22706172616D48
:1004C000223A2270696E222C2276616C7565223A7E
:1004D000007B226C6576656C223A22303030222C0B
:1004E00022646576696365223A22534C4D222C22A0
:1004F000706172616D223A2274696D657374616D09
:10050000705F70696E222C2276616C7565223A00EC
:100510007B226C6576656C223A22303036222C22A2
:10052000646576696365223A22534C4D222C22651C
:1005300072726F72223A2270696E5F6E6F745F70B2
:1005400063696E7430222C2276616C7565223A00E4
:100550007B226C6576656C223A22303037222C2261
:10056000646576696365223A22434F4E54524F4C7C
:100570004C4552222C226576656E74223A22454EF5
:1005800044222C2274696D657374616D70223A0087
:100590007B226C6576656C223A22303030222C2228
:1005A000646576696365223A224D4943524F53434D
:1005B0004F5045222C22706172616D223A22747272
:1005C00069676765725F70696E222C2276616C754F
:1005D00065223A0046495245440074657374004DE3
:1005E0004943524F53434F504500494E44455045AF
:1005F0004E44454E54006D6F6465004C4153455266
:1006000000434F4E54494E47454E54006D6F64654C
:10061000004C41534552006475726174696F6E00FD
:100620004C41534552006672657175656E63790081
:100630004C41534552004649524544007465737419
:10064000004C41534552004649524544007465737D
:10065000740050554D5032006475726174696F6E4C
:100660000050554D50320046495245440074657360
:10067000740050554D50006475726174696F6E005E
:1006800050554D50004649524544007465737400FE
:1006900043554532006475726174696F6E0043554D
:1006A0004532006672657175656E63790043554524
:1006B0003200464952454400746573740043554501
:1006C000006475726174696F6E004355450066720F
:1006D000657175656E637900435545001D02120210
:1006E0000202F501EC01E4016475726174696F6ED8
:1006F00000534C4D006672657175656E63790053E9
:100700004C4D006C657665725F66696C746572004D
:10071000434F4E54524F4C4C4552007365737369AE
:100720006F6E5F70617573656400434F4E54524F36
:100730004C4C455200746573745F6D6F6465004383
:100740004F4E54524F4C4C4552004649524544007E
:10075000746573745F636861696E00434F4E5452F1
:100760004F4C4C45520050554D500050554D503255
:10077000006163746976655F70756D7000434F4EFC
:1007800054524F4C4C45520076695F696E746572E5
:1007900076616C00434F4E54524F4C4C45520072A0
:1007A00065696E666F72636564004C455645525FBD
:1007B0004C48007265696E666F72636564004C45F3
:1007C0005645525F4C480074696D656F75745F6D76
:1007D0006F6465004C455645525F4C480074696D26
:1007E000656F7574004C455645525F4C4800726504
:1007F000696E666F72636564004C455645525F5280
:1008000048007265696E666F72636564004C455698
:1008100045525F52480074696D656F75745F6D6F06
:100820006465004C455645525F52480074696D65D9
:100830006F7574004C455645525F524800227D004A
:100840007B226C6576656C223A22303036222C226F
:1008500064657363223A220044495341524D454432
:100860000041524D454400227D002C226465736393
:10087000223A2200222C2270696E223A007B226CDE
:100880006576656C223A22303031222C22646576FE
:10089000696365223A2200222C22706172616D2206
:1008A0003A2270696E222C2276616C7565223A00BC
:1008B0007B226C6576656C223A22303030222C2205
:1008C000646576696365223A2200222C2276616C87
:1008D0007565223A00222C22706172616D223A22E3
:1008E000007B226C6576656C223A22303030222CF7
:1008F00022646576696365223A220066616C7365DD
:10090000007472756500222C2276616C7565223A3E
:1009100000222C22706172616D223A22007B226CCF
:100920006576656C223A22303030222C226465765E
:10093000696365223A2200227D00222C2276616CB6
:100940007565223A2200222C22706172616D223A72
:1009500022007B226C6576656C223A223030302290
:100960002C22646576696365223A2200444953412A
:10097000524D45440041524D454400227D002C22F9
:1009800064657363223A22007B226C6576656C2273
:100990003A22303031222C22646576696365223A2E
:1009A000224D4943524F53434F5045222C227069E8
:1009B0006E223A0066616C73650074727565002C76
:1009C000226475726174696F6E223A002C2266721D
:1009D000657175656E6379223A00222C2261726D11
:1009E0006564223A007B226C6576656C223A22307F
:1009F0003030222C22646576696365223A220066D3
:100A0000616C73650074727565002C226475726187
:100A100074696F6E223A00222C2261726D65642225
:100A20003A007B226C6576656C223A2230303022A7
:100A30002C22646576696365223A220066616C73D4
:100A400065007472756500222C2261726D656422E6
:100A50003A007B226C6576656C223A223030302277
:100A60002C22646576696365223A220066616C73A4
:100A70006500747275650066616C736500747275EB
:100A800065002C227265696E666F72636564223A36
:100A900000222C2261726D6564223A007B226C6513
:100AA00076656C223A22303030222C2264657669D9
:100AB0006365223A2200027B226C6576656C223ADD
:100AC00022303030222C22646576696365223A2216
:100AD000434F4E54524F4C4C4552222C22736B655F
:100AE000746368223A2276692E696E6F222C227610
:100AF000657273696F6E223A2276332E342E302D52
:100B0000616C7068612E3131222C22626175645FE4
:100B100072617465223A3131353230302C22736380
:100B2000686564756C65223A225641524941424CCF
:100B3000455F494E54455256414C227D002C22655A
:100B40006E645F74696D657374616D70223A002C18
:100B5000226576656E74223A224C49434B222C2240
:100B600073746172745F74696D657374616D702202
:100B70003A00222C2270696E223A007B226C657644
:100B8000656C223A22303037222C22646576696304
:100B900065223A22002C22656E645F74696D65736C
:100BA00074616D70223A002C226576656E74223A6B
:100BB000225354494D222C2273746172745F7469FC
:100BC0006D657374616D70223A007B226C65766589
:100BD0006C223A22303037222C22646576696365B4
:100BE000223A224C41534552222C2270696E223AFD
:100BF000002C226D6973736564223A002C2265769D
:100C0000656E74223A2254494D455354414D502249
:100C10002C2274696D657374616D70223A007B22B9
:100C20006C6576656C223A22303038222C2264655D
:100C300076696365223A224D4943524F53434F50E0
:100C400045222C2270696E223A002C226576656E50
:100C500074223A2254494D455354414D50222C227E
:100C600074696D657374616D70223A007B226C65E6
:100C700076656C223A22303039222C2264657669FE
:100C80006365223A22534C4D222C2270696E223A1F
:100C90000000002100240027002A002D003000332E
:100CA0000001010000040107010A010000220025E3
:100CB0000028002B002E0031003400020100000546
:100CC0000108010B0100000A0B02090C0D0E0807B8
:100CD000030401000000000000000000000000000C
:100CE0000000000000000000000000000000000004
:100CF00000121110000000000000000000000000C1
:100D00000000000000000000000000444953415270
:100D10004D45440041524D454400227D002C226443
:100D2000657363223A22007B226C6576656C223AF9
:100D300022303031222C22646576696365223A22A2
:100D4000534C4D222C2270696E223A004449534183
:100D5000524D45440041524D454400222C227069B9
:100D60006E223A007B226C6576656C223A22303026
:100D700031222C22646576696365223A22455854F3
:100D80005F54524947474552222C226576656E745E
:100D9000223A2200010210202008081020401020D2
:100DA000408002010201080402010102040810202F
:100DB000408080402010080402018004020180402D
:100DC0002010080402010804020101020408102096
:100DD0004080010204081020408000002000230011
:100DE000260029002C002F00320000010000030122
:100DF000060109010505050507050808080802029E
:100E000002020A0A080804040404010101010101A4
:100E100001010303030303030303040707070C0C87
:100E20000C0C0C0C0C0C020202020606060606064E
:100E300006060B0B0B0B0B0B0B0B4C455645525F71
:100E40004C48004C455645525F524800227D002CCC
:100E5000226F7269656E746174696F6E223A220046
:100E60002C22656E645F74696D657374616D7022A8
:100E70003A00222C2273746172745F74696D657319
:100E800074616D70223A002C226576656E74223A88
:100E9000225052455353222C22636C617373223AC1
:100EA0002200222C2270696E223A007B226C657629
:100EB000656C223A22303037222C226465766963D1
:100EC00065223A220054494D454F555400494E4140
:100ED000435449564500414354495645002C22731A
:100EE00063686564756C65645F6174223A002C22E6
:100EF000746172676574223A007B226C6576656C5A
:100F0000223A22303036222C226572726F725F6371
:100F10006F6465223A22455F50454E44494E475F13
:100F200046554C4C222C2264657363223A2250654C
:100F30006E64696E6720616374696F6E2071756598
:100F400075652066756C6C20E2809420616374691D
:100F50006F6E2064726F70706564222C22616374FE
:100F6000696F6E5F74797065223A005354494D0081
:100F7000494E465553494F4E00494E465553494FE9
:100F80004E00544F4E4500544F4E45004C41534582
:100F9000520050554D505F320050554D505F31005A
:100FA0004355455F32004355455F31002C22656E45
:100FB000645F74696D657374616D70223A00222CF0
:100FC0002273746172745F74696D657374616D709E
:100FD000223A002C226576656E74223A2200222C79
:100FE0002270696E223A007B226C6576656C223A2B
:100FF00022303037222C22646576696365223A22DA
:1010000000003A3811241FBECFEFD1E2DEBFCDBFC2
:1010100000E00CBF13E0A0E0B2E0E6E1FBE800E096
:101020000BBF02C007900D92A036B107D9F727E099
:10103000A0E6B3E001C01D92AE35B207E1F718E0BB
:10104000C2E0D8E000E006C021970109802FFE0130
:101050000E945643C130D10780E00807A9F70E94DB
:101060009A3B0C9489450C94000090912D06292FF1
:10107000092E000C330BF901EC50F24FE491F0E033
:10108000EE0FFF1FE652F24F4591549150932F06F9
:1010900040932E06F901EC56F24FE491E0933006AE
:1010A00040916B0086EF890F843080F4265031091F
:1010B00081E001C0880F2A95EAF7842B80936B00AA
:1010C00080916800816080936800089588E0923381
:1010D000A1F384E0933389F382E0943371F39E5358
:1010E00081E0983050F72E533109E2CFE82FF0E03D
:1010F000DF01AA0FBB1FA85DBD4F11967C936E93B5
:10110000883008F045C08827E757F74F8F4F0C9479
:101110005643AD08B408910898089F08A608BB0874
:10112000C20880916900836080936900E89A0895FD
:10113000809169008C6080936900E99A089580919C
:101140006900806380936900EA9A0895809169003C
:10115000806C80936900EB9A089580916A008360A7
:1011600080936A00EC9A089580916A008C60809365
:101170006A00ED9A089580916A00806380936A0006
:10118000EE9A089580916A00806C80936A00EF9ACD
:101190000895CF93DF93EC0188819981DC01ED9173
:1011A000FC910190F081E02D64E270E019950097C8
:1011B00041F02FE1FC01238321E02283DF91CF91D5
:1011C000089521E02A83FACF8F92AF92CF92EF92C7
:1011D0000F93CF93DF93CDB7DEB732E03093550452
:1011E0001092560431E03093570440936C045093AE
:1011F0006D0460936E0470936F04109264041092F7
:1012000065041092660410926704109268041092AC
:10121000690410926A0410926B041092700439E011
:101220003093710434E6309372041092750435E003
:101230003093D3041092910433E030939204E092FF
:1012400093041092940410929504109296041092B4
:1012500097044091FA065091FB066091FC0670914C
:10126000FD06409398045093990460939A047093F8
:101270009B0410929C0434E030939D04C0929E0421
:1012800010929F041092A0041092A1041092A20444
:101290004091D9065091DA066091DB067091DC0628
:1012A0004093A3045093A4046093A5047093A604F0
:1012B0001092A7040093A804063009F08A2C8092AB
:1012C000A9041092AA041092AB041092AC041092DC
:1012D000AD04FC0181859285A385B4858093AE041D
:1012E0009093AF04A093B004B093B1041092B204F1
:1012F00087E08093B30489E08093B4041092B5042E
:101300001092B6041092B7041092B8044091680687
:101310005091690660916A0670916B064093B9041A
:101320005093BA046093BB047093BC0491E0909313
:10133000BD042093BE048093BF041092C004109299
:10134000C1041092C2041092C30480911B069091B4
:101350001C06A0911D06B0911E068093C4049093B4
:10136000C504A093C604B093C704DF91CF910F9139
:10137000EF90CF90AF908F90089590912A06923081
:1013800039F1933049F18EEE890F8430A0F487E172
:10139000891B8430A9F08530B9F0833069F0E89872
:1013A00082E090E0880F991FFC01E85DFD4F80EF1F
:1013B00099E0918380830895E99883E090E0F2CFEB
:1013C000EA9884E090E0EECFEB9885E090E0EACFF9
:1013D000EC9890E080E0E6CFED9881E090E0E2CFFD
:1013E0000895E0913D04F0913E04309729F0828108
:1013F000882311F081E08183089590912A0692302C
:1014000061F0933061F08EEE890F843050F487E103
:10141000891B61EF79E00C94760880E0FACF81E0D7
:10142000F8CF089560931B0670931C0680931D06E9
:1014300090931E063091D304E1E9F4E020E02313F9
:101440000DC030911605E4EDF4E020E02317B1F073
:101450004081413071F02F5F3B96F8CF40814130A1
:1014600019F02F5F3B96EBCF678370878187928758
:10147000F8CF6783708781879287EDCF0895E091D9
:101480001402F09115026083718382839383E0914B
:101490001602F09117026083718382839383E09137
:1014A0001802F09119026083718382839383E09123
:1014B0001A02F0911B026083718382839383E0910F
:1014C0001C02F0911D026083718382839383E091FB
:1014D0001E02F0911F026083718382839383E091E7
:1014E0002002F09121026083718382839383E091D3
:1014F0002202F0912302309721F06083718382836E
:101500009383E0912402F0912502309721F06187C6
:101510007287838794870895E6E2F5E010827096DB
:1015200086E0E632F807D1F708958150823108F05D
:101530005AC0E82FF0E08827EF55F54F8F4F0C94F5
:101540005643C10AC50AB30AB90ABD0AF30AC80A52
:10155000CE0AD20AD80ADC0AE00AE60AEA0AF30A44
:10156000EE0AF40AF80A809180008F778093800059
:101570000895809180008F7DF9CF80918000877FD2
:10158000F5CF84B58F7784BD089584B58F7DFBCF6B
:101590008091B0008F778093B00008958091B00063
:1015A0008F7DF9CF809190008F7780939000089580
:1015B000809190008F7DF9CF80919000877FF5CF4B
:1015C0008091A0008F778093A00008958091A00063
:1015D0008F7DF9CF8091A000877FF5CF809120018A
:1015E0008F77809320010895809120018F7DF9CF1E
:1015F00080912001877FF5CFCF93DF93282F30E0B4
:10160000F901EB53F34F8491F901EC56F24FD49169
:10161000F901EC50F24FC491CC23A1F081110E944A
:10162000950AEC2FF0E0EE0FFF1FE652F24FA59166
:10163000B491EC91ED2381E090E009F480E0DF913A
:10164000CF91089580E090E0FACF1F93CF93DF937E
:10165000282F30E0F901EB53F34F8491F901EC5658
:10166000F24FD491F901EC50F24FC491CC23A9F080
:10167000162F81110E94950AEC2FF0E0EE0FFF1F4C
:10168000E555F34FA591B4918FB7F894EC911111F2
:1016900008C0D095DE23DC938FBFDF91CF911F91DF
:1016A0000895DE2BF8CFCF93DF9390E0FC01EC564A
:1016B000F24F24918C50924FFC0184918823C9F001
:1016C00090E0880F991FFC01EF56F34FA591B4915C
:1016D000FC01E555F34FC591D49161110DC09FB741
:1016E000F8948C91209582238C93888128232883D9
:1016F0009FBFDF91CF910895623051F49FB7F89466
:101700003C91822F809583238C93E8812E2BEFCF01
:101710008FB7F894EC912E2B2C938FBFEACF3FB765
:10172000F89480919C0390919D03A0919E03B091A9
:101730009F0326B5A89B05C02F3F19F00196A11D58
:10174000B11D3FBFBA2FA92F982F8827BC01CD010B
:10175000620F711D811D911D42E0660F771F881F6A
:10176000991F4A95D1F708958F929F92AF92BF9299
:10177000CF92DF92EF92FF920E948F0B4B015C01A0
:1017800084E6C82ED12CE12CF12C0E948F0B681915
:1017900079098A099B09683E734081059105A8F380
:1017A00021E0C21AD108E108F10888EE880E83E032
:1017B000981EA11CB11CC114D104E104F10429F745
:1017C000FF90EF90DF90CF90BF90AF909F908F9061
:1017D00008952FB7F89460919803709199038091C0
:1017E0009A0390919B032FBF08950F931F93CF935C
:1017F000DF93C0914104D09142042097C9F08A81BF
:10180000882331F08B818F3F19F08B818F5F8B8321
:1018100081E08A830E94E90B09851A852B853C8526
:10182000601B710B820B930B6D837E838F83988774
:10183000DF91CF911F910F91089590910802891324
:101840000DC0E6EBFAE0E4919FEF90930802E230DE
:10185000E1F038F4EE2381F0E13089F060E00C949F
:10186000250BE43049F110F1E530C1F79091730098
:101870009D7F90937300F2CF10926E00EFCF909106
:101880006F009D7F90936F00E9CF909170009D7FD6
:101890009093700091E09093B0009091B100987F88
:1018A00094609093B1001092B300D8CF90917100E2
:1018B0009D7F90937100D2CF909172009D7F909305
:1018C0007200CCCF4F925F926F927F928F929F92D5
:1018D000AF92BF92CF92DF92EF92FF920F931F933E
:1018E000CF93DF9300D01F921F92CDB7DEB78B014D
:1018F00029013A01909108028917C9F09F3F09F424
:1019000091C00F900F900F900F900F90DF91CF919B
:101910001F910F91FF90EF90DF90CF90BF90AF900D
:101920009F908F907F906F905F904F900895E6EB1F
:10193000FAE024912D8327FDE4CF61E00E94530B50
:101940002D81222321F08D81823009F005C24801CA
:10195000B12CA12C60E072E18AE790E0A50198012A
:101960000E94D94129833A834B835C8369017A01C0
:1019700091E0C91AD108E108F1082FEFC216D1048D
:10198000E104F10409F00CF4B6C160E472E48FE004
:1019900090E0A50198010E94D94169017A0181E096
:1019A000C81AD108E108F1089D81923009F026C1DA
:1019B00082E02FEFC216D104E104F10409F00CF427
:1019C0006CC160E970ED83E090E0A50198010E9490
:1019D000D94169017A0181E0C81AD108E108F1080A
:1019E00083E09FEFC916D104E104F10409F00CF47F
:1019F00054C168E478EE81E090E0A50198010E946E
:101A0000D94169017A0181E0C81AD108E108F108D9
:101A10009FEFC916D104E104F10411F00CF044C1A8
:101A200084E03BC180930802E6EBFAE094919D8349
:101A30009F3F09F466CF923009F474C058F499239B
:101A400099F1913009F44CC097FD5BCF61E00E94A1
:101A5000530B79CF2D81243009F4AEC008F488C02F
:101A6000253091F7109220011092210190912101CF
:101A700098609093210190912101916090932101B0
:101A8000282F30E0F901EC50F24FE491F0E0EE0F36
:101A9000FF1FE555F34F45915491F901EC56F24F74
:101AA000E491E0936D0349CF14BC15BC94B59260EA
:101AB00094BD95B5916095BD282F30E0F901EC50AB
:101AC000F24FE491F0E0EE0FFF1FE555F34F459123
:101AD0005491F901EC56F24FE491E09371032DCF4C
:101AE00010928000109281009091810098609093F4
:101AF000810090918100916090938100282F30E0C7
:101B0000F901EC50F24FE491F0E0EE0FFF1FE555C4
:101B1000F34F45915491F901EC56F24FE491E09363
:101B200070030BCF1092B0001092B1009091B000F2
:101B300092609093B0009091B10091609093B10049
:101B4000282F30E0F901EC50F24FE491F0E0EE0F75
:101B5000FF1FE555F34F45915491509387034093F0
:101B60008603F901EC56F24FE491E0938803E5CE49
:101B70001092900010929100909191009860909333
:101B8000910090919100916090939100282F30E006
:101B9000F901EC50F24FE491F0E0EE0FFF1FE55534
:101BA000F34F45915491F901EC56F24FE491E093D3
:101BB0006F0393E09D83C1CE1092A0001092A1000C
:101BC0009091A10098609093A1009091A1009160E4
:101BD0009093A100282F30E0F901EC50F24FE491EE
:101BE000F0E0EE0FFF1FE555F34F45915491F901D9
:101BF000EC56F24FE491E0936E039FCE2FEFC216A6
:101C0000D104E104F10409F00CF4A4C068E478EE16
:101C100081E090E0A50198010E94D94169017A0113
:101C200081E0C81AD108E108F1089D81992309F4DF
:101C300089C19FEFC916D104E104F10409F00CF445
:101C4000EFCE62E17AE780E090E0A50194010E9486
:101C5000D94169017A0181E0C81AD108E108F10887
:101C60009D81992309F453C186E09FEFC916D104E1
:101C7000E104F10491F088F0C980DA80EB80FC8007
:101C80008AE0F594E794D794C7948A95D1F781E0D8
:101C9000C81AD108E108F10887E09091B100987F57
:101CA000892B8093B1002FC064E274EF80E090E054
:101CB000A50194010E94D94169017A0181E0C81A05
:101CC000D108E108F10885E09FEFC916D104E104CD
:101CD000F10419F310F362E17AE780E090E0A501E6
:101CE00094010E94D94169017A0181E0C81AD108A2
:101CF000E108F108B9CF81E02D812111CECF95B552
:101D0000987F892B85BD2FEF3FEFA9014114510426
:101D10006104710409F049C09D81923009F4E7C063
:101D20000CF0CEC0992309F4D3C0913009F0E9CD6D
:101D3000D0928900C092880020937E0330937F0365
:101D4000409380035093810380916F008260809361
:101D50006F00D7CD82E0D0CFB12CA12C60E072E132
:101D60008AE790E0A50198010E94D94169017A01B2
:101D700081E0C81AD108E108F108C114D10491E04A
:101D8000E906F10404F591E02D81213069F5809197
:101D90008100887F892B809381002FEF3FEFA9017D
:101DA000411451046104710419F2D801AA0FBB1F38
:101DB000A30192010E94F84128EE33E040E050E098
:101DC0000E940B42A9CF68E478EE81E090E0A50183
:101DD00098010E94D94169017A0181E0C81AD108AD
:101DE000E108F10893E0D0CF8D81833001F5809137
:101DF0009100887F892B809391002FEF3FEFA901FD
:101E0000411451046104710481F6D0929900C0928A
:101E1000980020937A0330937B0340937C03509384
:101E20007D03809171008260809371006ACD2D8165
:101E3000243009F58091A100887F892B8093A1002F
:101E40002FEF3FEFA901411451046104710409F01F
:101E5000ACCFD092A900C092A80020937603309313
:101E600077034093780350937903809172008260E6
:101E70008093720046CD8D81853009F044CF8091EA
:101E80002101887F892B809321012FEF3FEFA9014A
:101E9000411451046104710409F087CFD0922901E3
:101EA000C09228012093720330937303409374030C
:101EB000509375038091730082608093730021CDED
:101EC0008D81843031F20CF4A0CF853039F319CDF7
:101ED000C7BC2093820330938303409384035093C1
:101EE000850380916E00826080936E000ACDC0925F
:101EF000B3002093890330938A0340938B0350935C
:101F00008C0380917000826080937000FACC84E032
:101F10002FEFC216D104E104F10409F008F4EFCE6A
:101F2000C980DA80EB80FC809AE0F594E794D7943E
:101F3000C7949A95D1F791E0C91AD108E108F10840
:101F400085E0DDCE83E02FEFC216D104E104F10479
:101F500011F00CF076CED3CEAF92BF92CF92DF923B
:101F6000EF92FF920F931F93CF93DF936C017B014E
:101F70008B01040F151FEB015E01AE18BF08C017DF
:101F8000D10759F06991D601ED91FC910190F08152
:101F9000E02DC6011995892B79F7C501DF91CF9105
:101FA0001F910F91FF90EF90DF90CF90BF90AF9077
:101FB0000895FC01538D448D252F30E0842F90E04F
:101FC000821B930B541710F0CF9608950197089534
:101FD000FC01918D828D981761F0A28DAE0FBF2FFD
:101FE000B11D5D968C91928D9F5F9F73928F90E053
:101FF00008958FEF9FEF0895FC01918D828D9817C2
:1020000031F0828DE80FF11D858D90E008958FEFFE
:102010009FEF0895FC01918D228D892F90E0805CC7
:102020009F4F821B91098F739927089580EA93E04F
:102030000E940A1021E0892B09F420E0822F0895E4
:10204000FC01A48DA80FB92FB11DA35ABF4F2C912D
:10205000848D90E001968F739927848FA689B78924
:102060002C93A089B1898C91837080648C93938D1B
:10207000848D981306C00288F389E02D80818F7DBE
:1020800080830895EF92FF920F931F93CF93DF9376
:10209000EC0181E0888F9B8D8C8D98131AC0E889A4
:1020A000F989808185FF15C09FB7F894EE89FF8973
:1020B0006083E889F98980818370806480839FBF11
:1020C00081E090E0DF91CF911F910F91FF90EF9011
:1020D0000895F62E0B8D10E00F5F1F4F0F73112721
:1020E000E02E8C8D8E110CC00FB607FCFACFE8895C
:1020F000F989808185FFF5CFCE010E942010F1CFB4
:10210000EB8DEC0FFD2FF11DE35AFF4FF0829FB7CF
:10211000F8940B8FEA89FB8980818062CFCF0F937F
:102120001F93CF93DF938C01D0E0C0E0F801EC0F58
:10213000FD1F6491662341F080EA93E00E94421003
:10214000892B11F02196F2CFCE01DF91CF911F9113
:102150000F910895CF93DF93EC01888D8823B9F018
:10216000AA89BB89E889F9898C9185FD03C08081A2
:1021700086FD0DC00FB607FCF7CF8C9185FFF2CF1F
:10218000808185FFEDCFCE010E942010E9CFDF9145
:10219000CF91089580E090E0892B29F00E941610DD
:1021A00081110E94000080E090E0892B49F080E0DE
:1021B00090E0892B29F00E94000081110E9400000C
:1021C00080E090E0892B49F080E090E0892B29F0B5
:1021D0000E94000081110E94000080E090E0892BA5
:1021E00049F080E090E0892B29F00E9400008111E5
:1021F0000C9400000895CF92DF92EF92FF921F930C
:10220000CF93DF93EC016A017B018C810E94FC0A71
:1022100011E0892B09F410E08B85181721F0CD8A85
:10222000DE8AEF8AF88E8D899E89AF89B88DB701D5
:10223000A601481B590B6A0B7B0B898D90E0B0E01F
:10224000A0E084179507A607B70798F48C851817A0
:1022500081F01C878A851817A9F0CA8EDB8EEC8E58
:10226000FD8EEAA1FBA1309721F0B701A601898577
:1022700019951B87DF91CF911F91FF90EF90DF9011
:10228000CF900895CE8EDF8EE8A2F9A2ECA1FDA139
:10229000309779F389851995ECCFFC011582138667
:1022A0001486158616861786108A118A128A138A52
:1022B000148A158A168A138E8681882311F08481E8
:1022C00083830895CF92DF92EF92FF920F931F9333
:1022D000CF93DF93EC018E81811103C08D89882318
:1022E00069F18C810D851E852F8538896A017B01F6
:1022F000C01AD10AE20AF30A9701860137FD18C015
:1023000009891A892B893C89401B510B620B730B7D
:1023100014161506160617065CF061E0DF91CF91E2
:102320001F910F91FF90EF90DF90CF900C94250BB1
:1023300060E00E94250B8D8981111D8ADF91CF916C
:102340001F910F91FF90EF90DF90CF900895CF9362
:10235000DF93EC0161E088810E94250B81E08D878D
:102360000E94E90B6E877F87888B998BDF91CF91D5
:102370000895CF92DF92EF92FF92CF93DF93EC011B
:1023800089859A85AB85BC850097A105B10581F447
:102390004D8F5E8F6F8F78A349A35AA36BA37CA345
:1023A0001FA2DF91CF91FF90EF90DF90CF90089523
:1023B0006A017B01CD8EDE8EEF8EF8A2BC01CD01CD
:1023C0000E94BA409B01AC0160E070E080E89FE3AE
:1023D0000E94A94220E030E040E05FE30E941B4100
:1023E00020E030E04AE754E40E941B4120E030E066
:1023F00040E05FE30E943D420E942243C60ED71E8A
:10240000E81EF91EC9A2DAA2EBA2FCA28FA191E0FC
:1024100089278FA3C6CFCF92DF92EF92FF92CF93FF
:10242000DF93EC016A017B018D899E89AF89B88DAC
:10243000AB019601281B390B4A0B5B0BDA01C90172
:10244000B7FD49C0898D9A8DAB8DBC8DAB019601CE
:10245000281B390B4A0B5B0BDA01C9011816190648
:102460001A061B06C4F18EA18823A9F189859A85D5
:10247000AB85BC850197A105B10551F461E08C8164
:10248000DF91CF91FF90EF90DF90CF900C94250BD0
:1024900089A19AA1ABA1BCA1AB019601281B390B64
:1024A0004A0B5B0BDA01C901B7FD04C0A601CE01DE
:1024B0000E94B9118C819FA1992311F061E0E0CFB6
:1024C00060E00E94250B1FA2DF91CF91FF90EF905B
:1024D000DF90CF90089560E08C810E94250B1FA2B1
:1024E000898D9A8DAB8DBC8DC81AD90AEA0AFB0A70
:1024F0008EA1882331F01C141D041E041F040CF44B
:102500001EA288A5882301F31C141D041E041F04A9
:10251000DCF618A6D9CF8F929F92AF92BF92CF923E
:10252000DF92EF92FF920F931F93CF93DF93EC0113
:102530008E81811104C088A1882309F445C07B01E4
:1025400089899A89AB89BC894A015B01881A990AF1
:10255000AA0ABB0AC501B40197FD53C00D891E89A3
:102560002F89388D4A015701801A910AA20AB30AAD
:102570009501840110161106120613060CF441C0D1
:102580002A8D2223A9F10C8D1D8D2E8D3F8D200FBC
:10259000311F2115310511F421E030E0FB8C50E0B2
:1025A00040E00E940B4260177107D8F4F1100AC096
:1025B00069857A8520E030E0A9018C810E94620C57
:1025C00081E08B8F81E0898FDF91CF911F910F91F7
:1025D000FF90EF90DF90CF90BF90AF909F908F9043
:1025E0000895FF2079F38C810E941D0C1B8EEACF89
:1025F00069857A8520E030E0A9018C810E94620C17
:10260000E1CF898D882301F38C810E941D0C198EE6
:102610001B8E88A18823C1F218A2D6CF6F3FA9F0E4
:10262000E62FE295EF7044E0E49F90011124DC0175
:10263000ED91FC91E20FF31F6F7082819381B6E000
:102640006B9F800D911D1124089590E080E0089506
:10265000982F80336CF08A3324F08F3524F08B3739
:1026600024F481E0089581341CF081E09B350CF066
:1026700080E00895FC01828581110AC0A781B085A0
:10268000CD010196908787838C91818781E0828735
:10269000818508951F93CF93DF93EC01162F0E943D
:1026A0003A13811306C01A8681E0DF91CF911F9102
:1026B000089580E0FACF0F931F93CF93DF938C019F
:1026C000EB018991882369F0C8010E943A1388239D
:1026D00079F0FE013197908198130DC0F8011286B0
:1026E000F0CF90E080E0DF91CF911F910F9108959E
:1026F00082E090E0F8CF83E090E0F5CFCF93DF93D6
:10270000EC01CE010E943A138B304CF489305CF41A
:10271000882359F081E08E8390E080E00BC08D30FB
:1027200011F08032B9F71A86ECCF8E81811105C085
:1027300081E090E0DF91CF91089582E090E0FACFC0
:10274000DC0152969C915297915084E0989F9001A1
:1027500011245096ED91FC91E20FF31F22813381F9
:102760002115310579F041818081481758F481E0C5
:10277000840F818386E0489F200D311D112421158F
:10278000310521F460E070E08FEF0895B901892FE1
:102790008295807F840F0895DF92EF92FF920F93CE
:1027A0001F93CF93DF93EC017B01D12C688979894A
:1027B0008A89D816E0F484E0D89E80011124060F9F
:1027C000171FD80112966D917C916115710541F02A
:1027D000D701ED91FC910280F381E02DC70119959D
:1027E000F8011382128210821182D394DFCF1A8AE9
:1027F0008FEF8C8BC617D70761F0D701ED91FC9155
:102800000280F381E02DC7011995D98BC88B84E034
:102810008B8BDF91CF911F910F91FF90EF90DF9005
:1028200008958F92AF92CF92DF92EF92FF920F9323
:102830001F93CF93DF93C0910902D0910A0221E048
:1028400080910402909105028453974009F420E09E
:1028500040910B0250910C0260910D0270910E029A
:1028600080900002A0900102C0900202E09003025A
:1028700000910F02CE010E94E408E091D304E430FD
:1028800008F46CC0C05AD64009F0BBC0C0906003C9
:10289000D0906103E0906203F0906303809168033D
:1028A00090916903A0916A03B0916B030091940425
:1028B000109195042091960430919704080F191FE8
:1028C0002A1F3B1F009394041093950420939604B1
:1028D0003093970440919F045091A0046091A1040B
:1028E0007091A204840F951FA61FB71F80939F04A9
:1028F0009093A004A093A104B093A2048091AA0491
:102900009091AB04A091AC04B091AD048C0D9D1DD1
:10291000AE1DBF1D8093AA049093AB04A093AC049A
:10292000B093AD048091B5049091B604A091B70422
:10293000B091B80440916C0650916D0660916E069E
:1029400070916F06840F951FA61FB71F8093B50463
:102950009093B604A093B704B093B80480916C032D
:10296000882309F457C0E43018F083E08093B20460
:102970001092730481E080937404809375048093B3
:102980007604809377041092780410927904109260
:102990008F0494E690939004809316051092D404CB
:1029A00087E08093D50489E08093D60480916C06FB
:1029B00090916D06A0916E06B0916F068093D7043A
:1029C0009093D804A093D904B093DA048091680658
:1029D00090916906A0916A06B0916B068093DB0422
:1029E0009093DC04A093DD04B093DE04DF91CF91DB
:1029F0001F910F91FF90EF90DF90CF90AF908F904D
:102A00000895C0906403D0906503E0906603F09051
:102A1000670344CF10927504E9CF4F925F926F9293
:102A20007F928F929F92AF92BF92CF92DF92EF925E
:102A3000FF920F931F93CF93DF9300D01F921F92AB
:102A4000CDB7DEB7DC012C912B32E1F12D32D9F577
:102A50000196EE24E394FC01208130ED320F3A30F0
:102A600010F02E3291F58C0160E070E0CB01F8019E
:102A7000219130ED832E820E39E0381508F444C0E0
:102A80006A3949E97407840749E1940708F046C0A8
:102A9000AAE0B0E09B01AC010E94F841912CB12C5E
:102AA000A12C2401350140945094609470944616F2
:102AB00057066806790690F1680D791D8A1D9B1DE1
:102AC0008F01D5CF0196E12CC6CF198229813A8199
:102AD0004B815C816D8170E080E090E00F900F9001
:102AE0000F900F900F90DF91CF911F910F91FF905A
:102AF000EF90DF90CF90BF90AF909F908F907F909E
:102B00006F905F904F900895211108C0EE2051F111
:102B100061307105810550E89507A0F0F12CBAE00D
:102B20008B2E912CA12CB12C6115710530E88307F7
:102B30009105F8F0A50194010E940B42CA01B90168
:102B4000F394F2CF22E029839B01AC0188279927D7
:102B5000DC01821B930BA40BB50B8A839B83AC8394
:102B6000BD83B4CF23E029836A837B838C839D83D9
:102B7000ADCFF801D8012D918D0130ED320F3A30F3
:102B800010F4F394F6CF2E3201F58F010F5F1F4F33
:102B9000F8010F5F1F4F2081A0EDDA2ED20EB9E0B1
:102BA000BD1598F06C3CECEC7E07ECE08E079105CF
:102BB00078F7AAE0B0E09B01AC010E94F8416D0DEE
:102BC000711D811D911DFA94E3CF20812F7D10E0AE
:102BD00000E0253409F050C021812D32B1F5329644
:102BE000CC24C394DF0110E000E02F2D0F2C000C4B
:102BF000330BEAE0BE2EFD01DD9040ED4D0D4A3075
:102C0000B0F5B09EA001B19E500D11240D2DDD0C2C
:102C1000110B00531109040F151FA801420F531F78
:102C20004732510544F3CC20B9F080E090E0A0E0B9
:102C3000B0E8E11003C080E090E0DC0121E02983EE
:102C40008A839B83AC83BD8341CF2B3219F03196AD
:102C5000C12CC8CF3296FCCF80E090E0A0E8BFEF57
:102C6000E110ECCF80E090E0A0E8BFE7E7CFCC2018
:102C700019F01195019511092081211126CF0F0D11
:102C8000111DF7FC1A950E94BA4048E3A42E42E0B9
:102C9000B42E101611063CF011950195110950E261
:102CA000A52E52E0B52ED12CC12C01151105E9F04D
:102CB000F6E0CF16D104A9F000FF0DC0F601EE0F2B
:102CC000FF1FEE0FFF1FEA0DFB1D2591359145916A
:102CD00054910E941B41159507952FEFC21AD20AF5
:102CE000E4CF60E070E080EC9FE7E110905821E0D5
:102CF00029836A837B838C839D83E8CECF92DF9286
:102D0000EF92FF920F931F93CF93DF937C016B01A0
:102D10008A01FC01C081D1814F3F510509F0B0F417
:102D2000E881F9810480F581E02D4B5F5F4FCE0192
:102D30001995009759F0FC010383DF91CF911F9102
:102D40000F91FF90EF90DF90CF900895E881F98187
:102D50000280F381E02DB601CE01199581E0F701E3
:102D6000828390E080E0E9CF1F93CF93DF93EC0163
:102D7000162F6A817B816115710589F04C815D8117
:102D8000FB0183818417150651F4440F551F4F5FD3
:102D90005F4F888199810E947E169B838A838A81F6
:102DA0009B81009759F02C813D81A9014F5F5F4FB6
:102DB0005D834C83820F931FFC011483DF91CF91BD
:102DC0001F9108959F92AF92BF92CF92DF92EF92A0
:102DD000FF920F931F93CF93DF9300D01F921F9208
:102DE000CDB7DEB78C010E943A13D82EF8011286B7
:102DF000F12CE12C60EFC62EC8010E943A13F801B5
:102E00001286D81609F4B3C0811113C082E090E095
:102E10000F900F900F900F900F90DF91CF911F9117
:102E20000F91FF90EF90DF90CF90BF90AF909F9069
:102E300008958C3509F099C0C8010E943A1388237F
:102E400029F3EBEAF2E0853709F083C0F801128636
:102E500054E0952EB12CA12CC8010E943A1388236E
:102E6000A9F2813434F48053803130F083E090E073
:102E7000CFCF8F7D8753F8CF44E0AA0CBB1C4A9577
:102E8000E1F7A82AF80112869A949110E5CFC501BE
:102E9000985D8115944020F47501F3E0FF22ACCFDA
:102EA000C5019C5D81159440A8F483E0B822B70168
:102EB000762F6627770F770F6A297B2990E080E0CD
:102EC0000196603871058105910540F4C8010E94A2
:102ED000B41692CFB50190E080E0F3CF1982262F8F
:102EE0002F7320682A8326E09695879577956795B6
:102EF0002A95D1F76032710580F4606C6B835E01B6
:102F0000E4E0AE0EB11CF50162915F01662309F4A5
:102F100073CFC8010E94B416F6CF262F2F732068F6
:102F20002B8386E0769567958A95E1F76031710588
:102F300038F4606E6C835E01F5E0AF0EB11CE3CF38
:102F400060686C83CD825E0126E0A20EB11CDBCFEF
:102F500032969081992309F489CF8913F9CF818121
:102F6000882309F483CFF8011286682FAFCF8281BE
:102F70009381892B19F484E090E04ACF90E080E0BF
:102F800047CF6F927F928F929F92AF92BF92CF92D4
:102F9000DF92EF92FF920F931F93CF93DF93EC0199
:102FA0002A813B812C5F3F4F4C815D81443051052C
:102FB00088F58901F90180E0942FB22FAE2FA21B72
:102FC000A91730F4F190A1E0F110A0E08A2BF6CF20
:102FD000811120C082E0EB018C83FB01802F8B1BD1
:102FE000891728F4E80189918E018193F7CF640F46
:102FF000751FFB011082DF91CF911F910F91FF9000
:10300000EF90DF90CF90BF90AF909F908F907F9088
:103010006F9008958B01F901E40FF51F10828881EC
:1030200099814C815D81DC011396ED91FC913A010F
:10303000E89477F86901C60CD71C3097C1F0A381DA
:10304000A615170481F449017F01B4E0EB0EF11CD1
:103050008C149D0429F1D401AD904D01D701BD9090
:103060007D01AB14A9F30190F081E02DE6CF6A81D8
:103070007B810E947E16FC01A881B98113968D91F7
:103080009C911497918380831496FC93EE931397ED
:103090001B821A8285E0E8018C83F983E883ABCF39
:1030A00082818F5F8283F6CFDB01ED91FC911197D6
:1030B0000280F381E02DBC01CD011994AF92BF9243
:1030C000CF92DF92EF92FF920F931F93CF93DF93F4
:1030D000EC018B018C8180FF24C0A881B981FB01A8
:1030E0008381948130E020E00097D9F0A817B907D8
:1030F000D1F5F8016081718112968C9112978150FF
:1031000012968C93129781110CC08D919C911197FE
:103110002115310529F1F90191838083CD010E94A8
:1031200054188C81807631F1209721F1F880580174
:10313000F5E1AF0EB11C8FEFF816D1F06F2DC50180
:103140000E940E136C01FC01E580B8010E945E181C
:10315000F801818DF6018083F801F18EFE2CEBCF12
:1031600094838383DBCF9C01FC0180819181BCCF60
:10317000F882F9821C82DF91CF911F910F91FF900D
:10318000EF90DF90CF90BF90AF9008950F931F9373
:10319000CF93DF93EC01088119818B819C8100978B
:1031A00049F0FC01208131813C832B83B8010E94CE
:1031B0005418F3CF68817981CE010596DF91CF91C4
:1031C0001F910F910C94CC13FC0101900020E9F7A2
:1031D0003197AF01481B590BBC0180EA93E00C9476
:1031E000AC0F8F929F92AF92BF920F931F93CF938A
:1031F000DF93CDB7DEB7A1970FB6F894DEBF0FBE51
:10320000CDBF19A2423008F44AE08E010F5D1F4F76
:10321000842E912CB12CA12CA50194010E940B426B
:10322000E62FB901CA01EA30F4F4E05DD801EE936B
:103230008D01232B242B252B79F790E080E010972C
:1032400019F0CD010E94E418A1960FB6F894DEBFE4
:103250000FBECDBFDF91CF911F910F91BF90AF9067
:103260009F908F900895E95CE1CF4AE00C94F118AB
:10327000682F70E090E080E04AE00C94F118CF9263
:10328000DF92EF92FF92CF93DF936C01990FEE08DC
:10329000FF08F7FE19C06DE280EA93E00E94421039
:1032A000EC0166277727CB016C197D098E099F09F0
:1032B0004AE00E94F1188C0F9D1FDF91CF91FF9083
:1032C000EF90DF90CF9008954AE0C701B601DF91FB
:1032D000CF91FF90EF90DF90CF900C94F118CF93A7
:1032E000DF930E948F10EC018EEB92E00E94E418B5
:1032F0008C0F9D1FDF91CF910895CF93C82F80939E
:10330000320687E29DE00E948F1080912D06082EE4
:10331000000C990B0E943F198DE19DE00E948F10D7
:103320008BE09DE0CC2311F084E19DE00E948F10A2
:103330008AE19DE0CF910C946F190F931F93CF9367
:103340008C01C62FFC01648388E899E00E948F10ED
:10335000F8018081082E000C990B0E943F198EE71E
:1033600099E00E948F108CE699E0CC2311F085E75C
:1033700099E00E948F108BE799E0CF911F910F91F8
:103380000C946F19EF92FF920F931F93CF93DF93DB
:103390007C018B01EA0182E599E00E948F10C70150
:1033A0000E948F1086E499E00E948F10C8010E944D
:1033B0008F108AE399E00E948F10CE010E948F1037
:1033C00087E399E0DF91CF911F910F91FF90EF90EC
:1033D0000C946F19CF93DF936DE780EA93E00E941E
:1033E0004210EC018EEB92E00E94E4188C0F9D1FBE
:1033F000DF91CF9108954F925F926F927F928F925B
:103400009F92AF92BF92EF92FF920F931F93CF9331
:10341000DF932A013B0148015901853009F480C03E
:1034200008F061C0843009F46FC0E0914904F09164
:103430004A041481C7E8DFE046EAE42E4FE0F42EA8
:1034400087EE9FE00E948F10C7010E948F108EEDC3
:103450009FE00E948F10812F110F990B0E943F193E
:1034600083ED9FE00E948F10CE010E948F108EEBA3
:103470009FE00E948F108091170690911806A091EE
:103480001906B0911A06A3019201281B390B4A0BA9
:103490005B0BCA01B9010E9435198CEA9FE00E94BA
:1034A0008F108091170690911806A0911906B0917F
:1034B0001A06A5019401281B390B4A0B5B0BCA01A4
:1034C000B9010E943519DF91CF911F910F91FF90A3
:1034D000EF90BF90AF909F908F907F906F905F9094
:1034E0004F900C94EA19863039F1873009F09DCF5E
:1034F000E0915104F09152041481CBE6DFE08CE8B6
:10350000E82E8FE0F82E9CCFE0914B04F0914C0414
:103510001481C2E8DFE030EAE32E3FE0F32E90CFE3
:10352000E0914D04F0914E041481C9E7DFE029E9F0
:10353000E22E2FE0F22E84CFE0914F04F091500460
:103540001481C0E7DFE092E9E92E9FE0F92E78CF01
:10355000CF92DF92EF92FF920F931F93CF93DF935F
:10356000EC018881813009F4D1C06A017B0181308E
:1035700090F08230D1F485E594E00E944D1183E70C
:1035800094E0DF91CF911F910F91FF90EF90DF902A
:10359000CF900C944D118981853009F47DC070F471
:1035A0008330F1F1843009F45AC0DF91CF911F913B
:1035B0000F91FF90EF90DF90CF900895863009F43F
:1035C00088C0873091F7E0915104F0915204309710
:1035D00061F38681882349F385A18111E6CF8F812C
:1035E0009885A985BA85C58AD68AE78AF08E8C0D1A
:1035F0009D1DAE1DBF1D818F928FA38FB48F81E063
:1036000086A3CF010E94B9110F81188529853A85BB
:103610000C0D1D1D2E1D3F1DB701A60187E01CC00E
:10362000E0914904F0914A04309709F4BECF8681B5
:10363000882309F4BACF0F81188529853A85C18A74
:10364000D28AE38AF48A0C0D1D1D2E1D3F1D058BA9
:10365000168B278B308F83E00E94FB19A6CFE09159
:103660004B04F0914C04309709F49FCF8681882356
:1036700009F49BCF0F81188529853A85C18AD28AA2
:10368000E38AF48A0C0D1D1D2E1D3F1D058B168B24
:10369000278B308F84E0E0CFE0914D04F0914E0411
:1036A000309709F482CF8681882309F47ECF0F8179
:1036B000188529853A85C586D686E786F08A0C0D59
:1036C0001D1D2E1D3F1D018B128B238B348B85E01E
:1036D000C3CFE0914F04F0915004309709F465CFC7
:1036E0008681882309F461CF0F81188529853A8561
:1036F000C586D686E786F08A0C0D1D1D2E1D3F1D42
:10370000018B128B238B348B86E0A6CF8981E091CD
:103710004304F0914404882339F0813009F045CF07
:10372000E0914504F0914604309709F43ECFCF80F4
:10373000D884E984FA844C0D5D1D6E1D7F1D418B7C
:10374000528B638B748B31CF2F923F924F925F924B
:103750006F927F928F929F92AF92BF92CF92DF92A1
:10376000EF92FF920F931F93CF93DF9300D01F929E
:10377000CDB7DEB72A013B0103E4809F90011124FD
:10378000312C8901C9018D529B4F9A8389834BE06B
:10379000242E49019EE4890E911CE981FA818081E1
:1037A000381608F098C0A32CB12CC801239C800DBA
:1037B000911D11248D5B9B4FFC01E25BFF4F20812B
:1037C000233039F1805B9F4FFC018081893021F0EB
:1037D0009091290689131DC02A9CF0012B9CF00DA5
:1037E0001124E00FF11FEC56FB4FC080D180E28026
:1037F000F380C114D104E104F10469F4B301A2011E
:10380000C401329C800D911D11248D5B9B4F0E9441
:10381000A81A3394C2CFC40CD51CE61CF71CE6E2F0
:10382000F5E090E080E02081211125C024E0880FA0
:10383000991F2A95E1F7DC01A95EBA4F2A9CF00195
:103840002B9CF00D1124E00FF11FEF56FB4F222DA2
:1038500001900D922A95E1F78D5B9B4FFC01E1529F
:10386000FF4FC082D182E282F3828D519F4F21E0CF
:10387000FC012083CECF019670968031910599F698
:1038800089EF9EE00E948F102A9CC0012B9C900D16
:103890001124800F911F8D5B9B4F9C838B83FC01B8
:1038A000E25BFF4F80810E9438198EEE9EE00E94FD
:1038B0008F10EB81FC81E15BFF4F80810E94381902
:1038C0008DED9EE00E948F10C701B6010E94351950
:1038D0000E94EA199ECF0F900F900F900F90DF91EA
:1038E000CF911F910F91FF90EF90DF90CF90BF90FD
:1038F000AF909F908F907F906F905F904F903F9090
:103900002F90089584E69DE00E948F1080912C06F0
:10391000811111C08CE49DE00E948F108BE59DE029
:103920000E948F1080912A06082E000C990B0E948D
:103930003F190C94EA1985E59DE0EECF0F931F9394
:10394000CF93DF938C01D62FC42F8CE99AE00E948D
:103950008F10C8010E948F1081E99AE00E948F1099
:1039600087E79AE0DD2311F08DE79AE00E948F103F
:1039700082E89AE00E948F108CE69AE0CC2311F046
:1039800082E79AE00E948F10DF91CF911F910F91F3
:103990000C94EA190F931F93CF938C01C62F82E5E5
:1039A0009AE00E948F10C8010E948F1087E49AE06D
:1039B0000E948F108CE39AE0CC2311F082E49AE00D
:1039C0000E948F10CF911F910F910C94EA19CF9202
:1039D000DF92EF92FF920F931F93CF938C01C62F2C
:1039E00069017A0182E29AE00E948F10C8010E9468
:1039F0008F1087E19AE00E948F108FEF99E0CC231F
:103A000011F085E09AE00E948F108AE09AE00E940F
:103A10008F10C701B6010E943519CF911F910F91E8
:103A2000FF90EF90DF90CF900C94EA197F928F92E5
:103A30009F92AF92BF92CF92DF92EF92FF920F933D
:103A40001F93CF93DF93EC01762E49015A01670152
:103A5000780185EE99E00E948F10CE010E948F10B0
:103A60008AED99E00E948F1084EB99E0772011F0A5
:103A70008AEB99E00E948F108CEC99E00E948F10E5
:103A8000C501B4010E9435198FEB99E00E948F1097
:103A9000C701B6010E943519DF91CF911F910F9197
:103AA000FF90EF90DF90CF90BF90AF909F908F905E
:103AB0007F900C94EA19EF92FF920F931F93CF938C
:103AC0007C018B01C42F8DE199E00E948F10C7010A
:103AD0000E948F1081E199E00E948F10C8010E941E
:103AE0008F1086E099E00E948F108BEF98E0CC2336
:103AF00011F081E099E00E948F10CF911F910F91FA
:103B0000FF90EF900C94EA19CF92DF92EF92FF9220
:103B10000F931F93CF93DF938C01EB0169017A011F
:103B200081EE98E00E948F10C8010E948F1085EDF1
:103B300098E00E948F10CE010E948F108AEC98E0CE
:103B40000E948F10C701B6010E943519DF91CF91F5
:103B50001F910F91FF90EF90DF90CF900C94EA1996
:103B6000009711F00C94E41890E080E00895EF9233
:103B7000FF920F931F93CF93DF93C0914304D09193
:103B80004404882321F0C0914504D0914604209735
:103B900009F46EC0613009F465C008F460C0623099
:103BA00009F463C09AE3E92E9EE0F92E811104C066
:103BB00083E4E82E8EE0F82E8BEA9EE00E948F10C0
:103BC000C7010E948F1082EA9EE00E948F108C81B4
:103BD0000E94381987E89EE00E948F10C8010E9459
:103BE0008F1082E79EE00E948F106A8D7B8D8C8DF6
:103BF0009D8D00911706109118062091190630919D
:103C00001A06601B710B820B930B0E94351980E61C
:103C10009EE00E948F106E8D7F8D88A199A10091EA
:103C20001706109118062091190630911A06601B8C
:103C3000710B820B930B0E9435198FE49EE00E945A
:103C40008F10CE010D960E94B01D8CE49EE0DF9196
:103C5000CF911F910F91FF90EF900C946F1906ED8B
:103C60001EE0A0CF0DEC1EE09DCF05EC1EE09ACF2C
:103C7000DF91CF911F910F91FF90EF900895909158
:103C80002006911104C090912106992371F0909122
:103C9000220691110AC060912706882321F0813005
:103CA00021F4609128060C94B71D0895CF93DF93FB
:103CB000EC016E838DE798E00E948F108F819885CC
:103CC0000E94B01D84E798E00E948F108C81082E1E
:103CD000000C990B0E943F198AE698E00E948F1011
:103CE0008E8181110AC088E598E00E948F1087E6D6
:103CF00098E0DF91CF910C946F1981E698E0F5CFB1
:103D000060E080911402909115020E94561E60E0BE
:103D100080911602909117020E94561E60E08091D9
:103D20001802909119020E94561E60E080911A02BA
:103D300090911B020E94561E60E080911C0290919F
:103D40001D020E94561E60E080911E0290911F028B
:103D50000E94561E60E080912002909121020E94F4
:103D6000561E8091220290912302009719F060E084
:103D70000E94561E8091240290912502009719F00E
:103D800060E00C949D1908951F93CF93DF93EC018D
:103D9000162F8E81882321F060E0CE010E94561EEE
:103DA0008D81813021F460E08C810E94250B1C8381
:103DB0006D81812F0E94530B8D81813021F460E051
:103DC0008C810E94250B80EB98E00E948F108F81E0
:103DD00098850E94B01D87E998E00E948F108C8121
:103DE000082E000C990B0E943F19DF91CF911F9173
:103DF0000C94EA19CF93DF93EC010E94C41E8C81CE
:103E00000E94FC0A21E0892B09F420E02A878C819A
:103E10000E94FC0A21E0892B09F420E02B878C8189
:103E20000E94FC0A21E0892B09F420E02C871D8ADE
:103E30001E8A1F8A188EDF91CF9108959F92AF92AC
:103E4000BF92CF92DF92EF92FF920F931F93CF9387
:103E5000DF938A01452B09F468C0E9016B0165967F
:103E6000FC016081CE010E940E13FC01BB24BA94B8
:103E7000892B09F0B5807601E894F7F8AA24A39479
:103E80006701C00ED11E99249394309709F44DC058
:103E9000AA2009F43FC08481843069F0853049F15B
:103EA000823079F5DF010D900020E9F71197CD01FF
:103EB0008E1B9F0B07C00190F081E02D90E080E009
:103EC000309781F79F77E816F90621F5D801AC15F0
:103ED000BD05E1F46B2DCE01DF91CF911F910F91C4
:103EE000FF90EF90DF90CF90BF90AF909F900C9499
:103EF0000E13A081B181FD01349613968C9190E050
:103F0000E2CF90E080E0F0E0E0E0DDCF9D918191B4
:103F10009817E9F2A9246B2DCE010E940E13FC0123
:103F2000892B09F4B2CFB580B0CF90E080E0DF916B
:103F3000CF911F910F91FF90EF90DF90CF90BF90A6
:103F4000AF909F900895FC0120813181C9014A966C
:103F50004281538164817581009759F0D9015E9641
:103F6000EC91E03211F090E080E0009711F00C94B9
:103F70001E1F90E080E00895CF93DF93EB010E9435
:103F8000A31F009741F0FC012481263021F4808199
:103F9000DF91CF9108958881FBCFCF92DF92EF928E
:103FA000FF92CF93DF9300D01F921F92CDB7DEB761
:103FB0000E94A31FDC01892B09F446C01496EC91E2
:103FC0001497E250ED3008F03FC0F0E08827E4514C
:103FD000F04E8F4F0C945643132024202620292086
:103FE000F91F242024202420072024200720242017
:103FF0002D20CC908C2D0F900F900F900F900F9044
:10400000DF91CF91FF90EF90DF90CF900895CD900A
:10401000DD90ED90FC908FEFC816D104E104F1041F
:1040200049F340F311C0CD010E940D153A834B8333
:104030005C836D83CA80DB80EC80FD80223059F385
:10404000233049F3213069F0C12CD4CF8D919C915C
:10405000EBCF8D919C910496E7CFCD90DD90ED90C4
:10406000FC9020E030E0A901C701B6010E94514355
:1040700087FDEACF20E030E04FE753E4C701B60107
:104080000E94B540181604F3C701B6010E942243EE
:10409000C62EB0CFCF92DF92EF92FF92CF93DF93F5
:1040A00000D01F921F92CDB7DEB70E94A31FDC0184
:1040B000892B09F44BC01496EC911497E250ED3023
:1040C00008F044C0F0E08827E759FF4D8F4F0C946B
:1040D00056439520A620AA20AD207620A620A62013
:1040E000A6208620A6208B20A620B1206C9170E00F
:1040F00090E080E00F900F900F900F900F90DF9165
:10410000CF91FF90EF90DF90CF9008956D917D91CA
:104110008D919C91EFCF8D919D910D90BC91A02D93
:10412000B7FD14C0BC01CD01E5CFCD010E940D1536
:104130003A834B835C836D83CA80DB80EC80FD8097
:10414000223059F1233059F1213079F060E070E0EC
:10415000CB01D0CF8D919C91E9CF8D919C9104960C
:10416000E5CFCD90DD90ED90FC9020E030E0A9010E
:10417000C701B6010E94514387FDE8CF2FEF3FEF03
:104180004FE75FE4C701B6010E94B5401816F4F28C
:10419000C701B6010E942243ADCFF7FCD7CFC701BC
:1041A000B601A8CF8F929F92AF92BF92CF92DF922B
:1041B000EF92FF920F931F93CF93DF9300D000D025
:1041C000CDB7DEB749015A0167017801FB010190C3
:1041D0000020E9F73197E61BF70B9A8389837C83EC
:1041E0006B83ED838F2F8F778E83CE0101960E9494
:1041F000A31F0097B9F0FC0124812A3041F02C3034
:1042000089F480819181A281B381B7FD0BC0CE0179
:1042100001960E944A2086169706A806B90610F451
:104220004B015C01C501B401C616D706E806F906C4
:1042300010F4C701B60126960FB6F894DEBF0FBE84
:10424000CDBFDF91CF911F910F91FF90EF90DF9045
:10425000CF90BF90AF909F908F900895CF92DF92B4
:10426000EF92FF92CF93DF9300D01F921F92CDB7B2
:10427000DEB70E94A31FDC01892B09F448C0149605
:10428000EC911497E250ED3008F041C0F0E088273F
:10429000E35BFE4D8F4F0C9456438A2187219C216E
:1042A0009F215A2187218721872169218721762112
:1042B0008721A3216C9170E0CB010F900F900F909C
:1042C0000F900F90DF91CF91FF90EF90DF90CF9004
:1042D00008958D919D910D90BC91A02D811520E8A0
:1042E0009207A105B10598F4BC01E6CF8D919D918F
:1042F0000D90BC91A02D6C017D0120E8D20EE11C37
:10430000F11CC114D10421E0E206F10468F370E06D
:1043100060E0D2CFCD010E940D153A834B835C83C0
:104320006D83CA80DB80EC80FD80223049F1233030
:1043300099F1213061F70BC08D919C91ECCF8D915B
:104340009C910496E8CFCD90DD90ED90FC9020E01C
:1043500030E040E057ECC701B6010E94514387FDB1
:10436000D6CF20E03EEF4FEF56E4C701B6010E94E2
:10437000B540181664F2C701B6010E941B439CCFDA
:10438000D701C6019058AF4FBF4F0097A140B1056C
:1043900008F0BDCFB60190CFC11480E8D806E10483
:1043A000F104C0F3B4CF0F931F93CF93DF93EC01CD
:1043B0008B010E94A31FFC01892B29F084818A3084
:1043C00051F08C30C1F0F80180819181DF91CF9163
:1043D0001F910F91089580819181A281B3818115F0
:1043E0009048A105B10578F7CE01DF91CF911F91DB
:1043F0000F910C942E2180819181A281B3819058DC
:10440000AF4FBF4F0097A140B105E8F6EDCF8F92B7
:104410009F92AF92BF92CF92DF92EF92FF920F9353
:104420001F93CF93DF93182F0E94E90B6B017C0140
:10443000C0928E03D0928F03E0929003F09291038A
:1044400084E496E00E94A7111092210610922206A1
:10445000C0921706D0921806E0921906F0921A063A
:1044600081E08093200685E594E00E944D1183E76A
:1044700094E00E944D11C3E4D4E08C89882341F07C
:104480008A89813009F025C1CD8EDE8EEF8EF8A2AB
:104490006E9624E0CF37D20781F7E6E2F5E010828E
:1044A000709686E0E632F807D1F7E0914304F09188
:1044B0004404309721F0118A128A138A148AE091F9
:1044C0004504F0914604309721F0118A128A138A2C
:1044D000148AE0915104F09152043097A9F0158AA2
:1044E000168A178A108E118E128E138E148E158EC8
:1044F000168E178E10A211A212A213A214A216A237
:1045000017A210A681E081A70E9411148CE893E005
:104510000E948F1085E093E0112311F08EE093E06C
:104520000E948F1089E893E00E946F198AE393E05C
:104530000E948F10609110027091110280911202FE
:10454000909113020E94351989E293E00E948F1026
:1045500080918D030E94381987E193E00E948F10AB
:1045600080910402909105028453974009F4DCC0C5
:1045700088E992E00E948F1082E093E00E946F1918
:10458000E0904502F09046020091470210914802E7
:1045900020914102309142024091430250914402E5
:1045A0006091F3068EEF92E00E94161DE090D9060E
:1045B000F090DA060091DB061091DC062091D5061A
:1045C0003091D6064091D7065091D8066091D20618
:1045D00089EF92E00E94161D20913D0230913E022B
:1045E00040913F02509140026091BC0684EF92E0FE
:1045F0000E94E71C2091A9063091AA064091AB06C3
:104600005091AC066091A6068EEE92E00E94E71CE7
:10461000E0903902F0903A0200913B0210913C0286
:104620002091380230E050E040E06091610688EE71
:1046300092E00E94161D60918B0683EE92E00E942C
:10464000CA1C6091480688ED92E00E94CA1CE09066
:104650004006F090410600914206109143062091D9
:104660003C0630913D0640913E0650913F066091D8
:10467000320684ED92E00E94161D4091440760913D
:104680003A078BEC92E00E949E1C40911E076091BD
:10469000140782EC92E00E949E1C8EE992E00E9438
:1046A0008F1060910B0270910C0280910D0290911D
:1046B0000E020E943519DF91CF911F910F91FF904B
:1046C000EF90DF90CF90BF90AF909F908F900C9421
:1046D000EA19823009F0DCCE89A49AA4ABA4BCA468
:1046E00060E070E0CB01181419041A041B0434F4C0
:1046F0000E945D40A50194010E94D9416C0D7D1D71
:104700008E1D9F1D69A37AA38BA39CA389A59AA53F
:10471000ABA5BCA58C0D9D1DAE1DBF1D8DA39EA37D
:10472000AFA3B8A71DA6B4CE8BE992E023CF3F92EA
:104730004F925F926F927F928F929F92AF92BF92B1
:10474000CF92DF92EF92FF920F931F93CF93DF935D
:1047500090912006911105C090912106992309F4AA
:1047600044C070902206711040C0823008F03DC0F5
:104770008093290681114BC0E0914304F0914404D9
:10478000309709F04AC091E09093270691112DC00F
:104790006A017B01582EC3E4D4E083E4382E0FEF86
:1047A00010E094E6892E912CA12CB12C4424439442
:1047B0006C88662071F08EA5893011F0581209C0FE
:1047C0008A89813009F48BC008F43FC0823009F433
:1047D0008BC06E9634E0CF37D30751F780911F0618
:1047E000882309F4B6C07110B4C0DF91CF911F9136
:1047F0000F91FF90EF90DF90CF90BF90AF909F9080
:104800008F907F906F905F904F903F900895E091D0
:104810004504F09146043097B1F09089992361F0F6
:10482000018912892389348990E004171507260726
:10483000370718F092E001C091E0882309F4A4CF73
:1048400090932806A3CF91E0FBCF8F898F5F8F8B4A
:104850009D89891708F4BDCF8FA5843658F40E942E
:104860005D40A50194010E94D9418FA5681710F001
:104870001F8AAFCF1F8A288D222351F03D89C8019E
:10488000821B91093817190609F0ECF4230F2D8BC0
:104890008B89823008F09DCF389E90011124F90158
:1048A000ED52FB4F40812F563B4F90E0491709F4E2
:1048B00049C0255F3F4FF9013B975081513009F4C2
:1048C00042C09F5FF3CF83E592E00E948F108D89F5
:1048D0000E94381980E592E00E946F19D9CFCD8EE1
:1048E000DE8EEF8EF8A275CF8DA5811172CF89A1D2
:1048F0009AA1ABA1BCA1A7019601281B390B4A0BB9
:104900005B0BDA01C901B7FD64CF8DA19EA1AFA1F8
:10491000B8A58C199D09AE09BF09181619061A0603
:104920001B060CF056CF8FA5843610F04DA6B0CFE5
:104930000E945D40A50194010E94D9418FA568178E
:10494000A8F347CF672CB701A6010E94A41B762CC1
:1049500040CFE0914304F0914404552021F0E091D0
:104960004504F0914604309709F43FCF40911B066F
:1049700050911C0660911D0670911E06C40ED51E36
:10498000E61EF71EC18AD28AE38AF48A2ECFBF922E
:10499000CF92DF92EF92FF920F931F93CF93DF930B
:1049A000EC01198D1F3F81F0612F45960E940E1377
:1049B000FC018081898F309709F477C014828FEFD2
:1049C0008583BF01812F76C06C0135E0C30ED11CF9
:1049D000E880F9808F89882341F0C6010E94A013E6
:1049E000E62FF72F182F309749F71F89988D191345
:1049F00024C0103109F459C0110F6D897E89D70187
:104A0000ED91FC91B4E01B9FA0011124C616D706BE
:104A100009F044C00190F081E02DBA01C701199559
:104A2000009709F442C020E1F601DC0101900D92EB
:104A30002A95E1F79E8B8D8B188F0D891E898F89A2
:104A400021E0280F2F8BE4E08E9FC0011124080F76
:104A5000191F90E1B92E203111F48FE0B82EF6E045
:104A6000BF9EB0011124D701ED91FC910190F0811E
:104A7000E02DC7011995F80193838283892B09F4EE
:104A8000B12CD801BC9211961C92012B71F0C60179
:104A90000E94A013E62FF72F182F8DCF0480F581E9
:104AA000E02DC7011995009729F681E08A8360E01F
:104AB00070E08FEFDF91CF911F910F91FF90EF90FA
:104AC000DF90CF90BF9008954F925F926F927F9248
:104AD0008F929F92AF92BF92CF92DF92EF92FF920E
:104AE0000F931F93CF93DF9300D01F921F92CDB7E8
:104AF000DEB78C017B01B42E0E947E136C01892BE2
:104B000009F048C0C8010E943A13863609F4A9C1C9
:104B100024F5873229F08B3561F1823209F0A8C182
:104B2000D80115961C921E92149712968D919C9105
:104B30001397892B39F48D919C910E94C908F80133
:104B400093838283C8010E94E2166C01892B11F5C0
:104B5000B701C8010E94C1171DC0843709F460C1A4
:104B60008B3709F47BC08E3609F082C169ED72E0A3
:104B700060C180E4D70114968C931497E114F1047A
:104B800021F08FEF8C9311968C93B1101AC025E011
:104B9000C22ED12CC6010F900F900F900F900F9046
:104BA000DF91CF911F910F91FF90EF90DF90CF9009
:104BB000BF90AF909F908F907F906F905F904F903D
:104BC0000895F8011286C8010E947E13009751F5DE
:104BD0006DE5C8010E944A138111DCCFBA94D80157
:104BE0001B966D907C90C3010E94C724A82E4B0198
:104BF000672B21F494E0C92ED12CCCCFF701618131
:104C00006F3F91F0C30145960E940E13DC0115968B
:104C1000AC92F701A1824B2DB401C8010E9464251A
:104C2000009739F06C01B6CFD7018C9311968C9315
:104C3000F2CFC8010E947E130097A1F76DE5C8016D
:104C40000E944A138111A6CF6CE2C8010E944A1348
:104C50008111C5CF83E0C82ED12C9CCF80E2F70113
:104C60008483E114F10419F08FEF80838183BB20EA
:104C700009F48DCFD8011A961C92C8010E947E13A8
:104C8000009781F66DE7C8010E944A13811182CF17
:104C9000BA94F8011582148282819381892B49F498
:104CA000808191810E94C908D80113969C938E93AC
:104CB0001297C8010E943A138732F9F08232E9F064
:104CC000C8010E943A13D82E0E942813882311F29B
:104CD000F80112866D2DC8010E94B416C8010E9409
:104CE0003A13D82E0E9428138111F2CFD8011296C0
:104CF0008D919C91892B41F47DCFC8010E94E216D1
:104D00006C01892B09F046CFC8010E947E136C010B
:104D1000892B09F03FCF6AE3C8010E944A13882318
:104D200009F498CFD8011296ED91FC91139714963F
:104D30008D919C911597E80FF91F148214966D912F
:104D40007C9115977F771B966D907C901C9712969F
:104D50008D919C910496272F2F77BA2DB078AB2E8A
:104D6000A22AE894A7F89301AC017A2DC7010E940A
:104D70001E1F6C01009761F5C3010E94C724482ED5
:104D80004B01672B09F436CFC3010E94C724582E6C
:104D9000962FC92ED72EC114D10409F42BCFF401BC
:104DA0005582D70111966C916F3F71F0C301459602
:104DB0000E940E13FC014582D70111965C92B4014A
:104DC000C8010E94C11707C0F70140825182F7CF86
:104DD000B3010E945E184B2DB601C8010E946425E4
:104DE0006C01892B09F0D6CEC8010E947E136C019C
:104DF000892B09F0CFCE6DE7C8010E944A138111BB
:104E0000C9CE6CE2C8010E944A13882309F422CF5C
:104E1000C8010E947E136C01892B09F43ACFBACEE7
:104E200086E0D70114968C93149781E08C936EECF6
:104E300072E0C8010F900F900F900F900F90DF91CC
:104E4000CF911F910F91FF90EF90DF90CF90BF9087
:104E5000AF909F908F907F906F905F904F900C9449
:104E60005B1386E0F7018483108263ED72E0E1CF8B
:104E7000C8010E943A134801FDE08F0E911CB12C2D
:104E8000782CA92C803384F08A3384F43FE3B31662
:104E9000A9F0D8011A961C92B394F40181934F01A2
:104EA000C8010E943A13EECF8B3281F393ED980F35
:104EB000923060F3982F9F7D953441F30B0D111DB7
:104EC000D8011D961C92872D9A2D0E940D153A83AC
:104ED0004B835C836D838A819B81AC81BD81223051
:104EE000A9F0233059F0213009F0B4CE2EE0F701BB
:104EF000248380839183A283B3834CCE2AE0F7017D
:104F0000248380839183A283B38344CE2CE0F7CFA4
:104F10004F925F926F927F928F929F92AF92BF92C9
:104F2000CF92DF92EF92FF920F931F93CF93DF9375
:104F3000CDB7DEB7CF5ED1090FB6F894DEBF0FBE96
:104F4000CDBF6E012EECC20ED11C86E092E0F601C0
:104F500091838083128214821382C6010596968BF8
:104F6000858B178A84E0808F8FEF818F168E878FD5
:104F70009E012F5F3F4F590110E000E00E94E90BB6
:104F80006093A8037093A9038093AA039093AB0343
:104F900080EA93E00E94E80F97FD02C00C940E3562
:104FA0000E94E90B4090A8035090A9036090AA03C7
:104FB0007090AB0364197509860997094090A403A2
:104FC0005090A5036090A6037090A7036415750523
:104FD00086059705E8F20F37110561F480EA93E042
:104FE0000E940A10892B31F080EA93E00E94E80FBA
:104FF0000A97A1F7E1E0F0E0EC0FFD1FE00FF11FD1
:1050000010820530110578F045E050E06EED72E059
:10501000CE0101960E946445892B29F487EB9AE022
:105020000E946F194CC4F60160817181C60105961A
:105030000E94CC13F601128200811181F601838156
:105040009481009751F0FC0120813181F601348375
:105050002383B8010E945418F1CF168ECF57DF4F2B
:10506000D982C882C158D040CD57DF4F19821882EB
:10507000C358D040CB57DF4F19821882C558D04053
:10508000C957DF4F1882C758D04021E030E02C0FBD
:105090003D1FC857DF4F39832883C858D040C557B4
:1050A000DF4F1882CB58D040C457DF4FD982C88217
:1050B000CC58D0404AE0B601665E7F4FCE018F5794
:1050C0009F4F0E9464258C01892B69F4C657DF4FDE
:1050D0008881CA58D040882331F0F601868D83FF3D
:1050E00002C003E010E0CD57DF4F88819981C3589B
:1050F000D040009751F0CF57DF4FE881F981C15878
:10510000D040608171810E94541801151105F1F0A1
:1051100080E498E00E948F10F801EE0FFF1FE45228
:10512000F94F859194910E948F108DE398E00E9431
:105130006F1980EA93E00E940A10181619060CF005
:10514000BEC380EA93E00E94E80FF3CFCF57DF4F52
:10515000D982C882C158D04084EE92E0CD57DF4F4B
:1051600099838883C358D04083E0CB57DF4F88832F
:10517000C558D040CA57DF4F1881C658D040107864
:105180001068CA57DF4F1883C658D040CE018F57DA
:105190009F4F0E94A31F009709F491C3FC018481D3
:1051A000882309F48CC31068CA57DF4F1883C65888
:1051B000D040CE018F579F4F0E942E218C01893DF8
:1051C000F1E09F0709F42AC10CF0D7C1883731E01C
:1051D000930709F418C50CF026C18733914009F4F0
:1051E000FCC3083381E018070CF0E1C00D3291E0F8
:1051F000190709F411C30CF0CAC060E00C32F1E0E9
:105200001F0709F40AC3083EF3E01F0709F4EDC7BE
:105210000CF0C5C6093731E0130709F464C60CF079
:10522000F5C50736110511F40C9413320CF095C531
:105230000536110511F40C94EA3114F00C94073280
:105240000436110509F0CBC480919603811137C350
:1052500080912C06882351F010922C060E94BD09E3
:10526000F89410922B0678940E94821C0E94E90BFD
:105270004B015C018092920390929303A09294035D
:10528000B0929503809148068823C9F08091560614
:10529000811115C084E496E00E94A7118092570600
:1052A00090925806A0925906B0925A0681E08093D7
:1052B0005606F8941092460610924706789480900D
:1052C000920390909303A0909403B0909503109252
:1052D000200610922206E6E2F5E01082709626E0A3
:1052E000E632F207D1F785E594E00E944D1183E79D
:1052F00094E00E944D11E0914904F0914A043097E6
:1053000011F00C940232E0914B04F0914C04309770
:1053100019F084810E941D0CE0914D04F0914E041F
:10532000309721F060E084810E94250BE0914F04CA
:10533000F0915004309721F060E084810E94250BA9
:10534000E0915104F0915204309729F011A660E0E9
:1053500084810E94250B80E595E00E948F1080914A
:105360008E0390918F03A0919003B0919103A501BA
:105370009401281B390B4A0B5B0BCA01B9010E942F
:1053800035190E94EA1981E08093960398C20F3282
:1053900021E0120709F4FDC260E0063331E0130793
:1053A00009F031CF80911A0290911B023AC2033763
:1053B00041E0140709F438C23CF5093381E01807CD
:1053C00009F021CF00911A0210911B020E94E90BF3
:1053D000F801618B728B838B948B85849684A78470
:1053E000B088DC01CB01880D991DAA1DBB1D858BE2
:1053F000968BA78BB08F81E080A345E856E06BE8E1
:1054000076E080E996E0E6C2043791E0190709F4F6
:1054100071C20537E1E01E0709F0F5CE083D1140E5
:1054200009F47DC04CC28139F1E09F0709F4F5C24F
:10543000CCF58E3731E0930709F4D1C21CF58D37D6
:10544000914009F0E0CEEE24EA94FE2C00E010E05A
:1054500021E030E040E050E068EE72E0C6010E94DA
:10546000D2209B01AC01E0911A02F0911B0221872E
:1054700032874387548763EA76E08DEA96E00E949C
:10548000841D1DC2023881E0180709F4D1C360E011
:10549000003991E0190709F0B6CE80911C02909175
:1054A0001D02BFC18B39E1E09E0709F4DAC27CF42A
:1054B000833921E0920709F4B2C260E08A39914051
:1054C00009F0A1CE80911E0290911F02AAC18D39D0
:1054D00041E0940709F4E7C2883D914009F093CE7A
:1054E00010ECE12E17E2F12E09E010E021E030E0AF
:1054F00040E050E062EF72E0C6010E94D2209B01C2
:10550000AC01E0911C02F0911D0221873287438794
:10551000548767E776E080E896E00E94841DCF57C5
:10552000DF4FD982C882C158D04082EF92E0CD5778
:10553000DF4F99838883C358D04088E0CB57DF4F33
:105540008883C558D040CA57DF4F8881C658D0409D
:1055500080788068CA57DF4F8883C658D040CE0114
:105560008F579F4F0E944A2060933D0270933E02E6
:1055700080933F029093400209C20F3982E01807DE
:1055800009F4C7C20CF088C0053FE1E01E0709F42A
:10559000ACC274F5023E21E0120709F464C2C4F4FF
:1055A0000C3D41E0140709F02ECE15E3E12EF12C5D
:1055B00000E010E022E030E040E050E06BEF72E00D
:1055C000C6010E94D22080911C0290911D022DC321
:1055D000063E51E0150709F43EC360E0043F81E058
:1055E000180709F010CE809120029091210219C174
:1055F000083592E0190709F483C2C4F40034F2E0DC
:105600001F0709F000CE15E3E12EF12C00E010E0B9
:1056100022E030E040E050E06BEF72E0C6010E9413
:10562000D2208091200290912102FFC2093522E010
:10563000120709F45CC20B3532E0130709F0E3CD21
:1056400000912202109123020115110509F437C1BE
:105650000E94E90BAB01BC01F801458B568B678BAF
:10566000708F85859685A785B089840F951FA61FA5
:10567000B71F818F928FA38FB48FFF24F394F6A26C
:10568000C8010E94B911F801F0A646E356E06CE3A8
:1056900076E081E496E09EC1043843E0140709F403
:1056A000A8C20CF075C0043A82E0180709F4E6C2FB
:1056B0000CF054C0003AE2E01E0709F0A4CD10EC53
:1056C000E12E17E2F12E09E010E021E030E040E0A9
:1056D00050E062EF72E0C6010E94D2209B01AC0153
:1056E000E0912202F0912302309751F0258736870E
:1056F0004787508B67E176E080E296E00E94841D48
:10570000CF57DF4FD982C882C158D04082EF92E094
:10571000CD57DF4F99838883C358D04088E0CB575B
:10572000DF4F8883C558D040CA57DF4F8881C6589D
:10573000D04080788068CA57DF4F8883C658D040F1
:10574000CE018F579F4F0E944A2060933902709379
:105750003A0280933B0290933C0218C1093AF2E06E
:105760001F0709F423C20A3A22E0120709F04BCDC1
:10577000E0912202F0912302309709F4A0C081E069
:1057800085A34AEE55E066EF75E08BEF95E022C108
:10579000003D33E0130709F48BC2D4F4053853E01D
:1057A000150709F415C2073883E0180709F02BCD57
:1057B0008091240290912502009709F410C20E9462
:1057C000A71144ED55E06AED75E08FED95E002C15B
:1057D000043394E0190709F4A4C20036E5E01E077B
:1057E00009F011CD8091160290911702892B09F4CE
:1057F00066C015E3E12EF12C00E010E022E030E07D
:1058000040E050E06BEF72E0C6010E94D220809130
:105810001602909117029EC261E080911802909149
:1058200019020E94561E4BC0EE24EA94FE2C00E0A2
:1058300010E021E030E040E050E068EE72E0C601A8
:105840000E94D2209B01AC01E0911802F091190254
:1058500021873287438754876EEC76E088ED96E0A7
:105860000E94841DCF57DF4FD982C882C158D040D3
:1058700088EE92E0CD57DF4F99838883C358D0409C
:1058800089E0CB57DF4F8883C558D040CA57DF4FD8
:105890008881C658D04080788068CA57DF4F888397
:1058A000C658D040CE018F579F4F0E944A20609328
:1058B0004102709342028093430290934402C601D6
:1058C0000E94C618C151DF4F0FB6F894DEBF0FBE5D
:1058D000CDBFDF91CF911F910F91FF90EF90DF909F
:1058E000CF90BF90AF909F908F907F906F905F9080
:1058F0004F90089510ECE12E17E2F12E09E010E030
:1059000021E030E040E050E062EF72E0C6010E942A
:10591000D2209B01AC01E0911802F0911902258779
:1059200036874787508B61EC76E08AEC96E00E94E0
:10593000841DCF57DF4FD982C882C158D04082EF33
:1059400092E0CD57DF4F99838883C358D04088E0D9
:10595000CB57DF4F8883C558D040CA57DF4F888167
:10596000C658D04080788068CA57DF4F8883C658B1
:10597000D040CE018F579F4F0E944A20609345022E
:105980007093460280934702909348020E9411143C
:1059900096CF00911802109119020E94E90BF801AC
:1059A000618B728B838B948B85849684A784B0885B
:1059B000DC01CB01880D991DAA1DBB1D858B968B23
:1059C000A78BB08F81E080A342EB56E068EB76E0D6
:1059D0008DEB96E00E94C21972CF61E0E3CC10EC2F
:1059E000E12E17E2F12E09E010E021E030E040E086
:1059F00050E062EF72E0C6010E94D2209B01AC0130
:105A0000E0911A02F0911B02258736874787508B59
:105A100065E976E08EE996E032CD61E03ECD009119
:105A20001C0210911D020E94E90BF8016587768720
:105A30008787908B81849284A384B484DC01CB011A
:105A4000880D991DAA1DBB1D818B928BA38BB48BD6
:105A500081E0858B47E656E06DE676E082E796E0EA
:105A6000B9CF61E02FCD10ECE12E17E2F12E09E065
:105A700010E021E030E040E050E062EF72E0C6016B
:105A80000E94D2209B01AC01E0911E02F0911F0206
:105A9000218732874387548768E576E081E696E080
:105AA0000E94841D73CF00911E0210911F020E945C
:105AB000E90BF801658776878787908B81849284CC
:105AC000A384B484DC01CB01880D991DAA1DBB1DE4
:105AD000818B928BA38BB48B81E0858B47E456E05E
