:100000000C941C070C9434330C9409330C94DE329A
:100010000C94B3320C9488320C945D320C943232CE
:100020000C9407320C941F340C944D070C944D071C
:100030000C944D070C945F330C944D070C944D07B2
:100040000C944D070C944D070C944D070C944D07E0
:100050000C944D070C944D070C944D070C94BD3136
:100060000C944D070C94E9330C94BF330C944D075A
:100070000C944D070C944D070C944D070C944D07B0
:100080000C944D070C944D070C944D070C944D07A0
:100090000C944D070C944D070C944D070C944D0790
:1000A0000C944D070C944D070C944D070C944D0780
:1000B0000C944D070C944D070C944D070C944D0770
:1000C0000C944D070C944D070C944D070C944D0760
:1000D0000C944D070C944D070C944D070C944D0750
:1000E0000C944D070C94C3090C94951D0C94AB1EF5
:1000F0000C94B7310C949A1D0C94C01D0C94A0085C
:100100000C94302B0C94D00D0C94B51D0C94691EDE
:100110000C94BA310C94851D0C94720D0C949308B8
:100120000C949F0D0C94F02A0C94B8080C94810840
:100130000C94BC1D0C94781E0C949C080C94C10863
:100140000C9496080C94E52A0C94AE1E0C94BC08F2
:100150000C94A6080C94B91D0C94A41D0C94B4081E
:100160000C94851E0C94B21E0C94C6080C94AE0D13
:100170000C94AA080C9487080C94961E0C94E12AFF
:100180000C94AE080C94CE1B0C94991E0C94B331B5
:100190000C94080E0C94292B0C94C2080C94D134A6
:1001A0000C94E2090C94F22A0C948F080C94161FFC
:1001B0000C948B080C94C20D0C94FE2A0C94700EB7
:1001C0000C942C2B546F6F44656570004E6F4D6519
:1001D0006D6F727900496E76616C6964496E7075F5
:1001E0007400496E636F6D706C657465496E7075EF
:1001F0007400456D707479496E707574004F6B00B2
:10020000CDCCCC3D0AD7233C17B7D13877CC2B3295
:100210009595E6241FB14F0A000020410000C84216
:1002200000401C4620BCBE4CCA1B0E5AAEC59D7475
:10023000227D007B226C6576656C223A223030315B
:10024000222C22646576696365223A22434F4E541C
:10025000524F4C4C4552222C2264657363223A2241
:100260005052207468726573686F6C6420636170AB
:1002700070656420617420007B226C6576656C2259
:100280003A22303030222C22646576696365223A46
:1002900022534C4D222C22706172616D223A2274DD
:1002A000696D657374616D705F70696E222C227662
:1002B000616C7565223A007B226C6576656C223A2A
:1002C00022303037222C22646576696365223A2217
:1002D000434F4E54524F4C4C4552222C226576656A
:1002E0006E74223A22454E44222C2274696D657345
:1002F00074616D70223A004C48005248007B226CB9
:100300006576656C223A22303030222C227661727A
:100310006961626C655F696E74657276616C223AC0
:10032000004C455645525F4C48004C455645525F7F
:10033000524800534C4D004D4943524F53434F5088
:1003400045004C49434B004C415345520050554DDC
:1003500050320050554D50004355453200435545ED
:1003600000222C2274726163655F696E7465727617
:10037000616C223A002C226163746976655F6C655A
:10038000766572223A22007B226C6576656C223A91
:1003900022303030222C22646576696365223A224D
:1003A000434F4E54524F4C4C4552222C2270617296
:1003B000616469676D223A225641524941424C4577
:1003C0005F494E54455256414C222C2274696D654A
:1003D0006F7574223A007B226C6576656C223A2236
:1003E000303037222C22646576696365223A2243D5
:1003F0004F4E54524F4C4C4552222C226576656E1E
:1004000074223A225354415254222C2274696D654D
:100410007374616D70223A307D007B226C65766565
:100420006C223A22303030222C2264657669636572
:10043000223A224D4943524F53434F5045222C22DA
:10044000706172616D223A22747269676765725FCA
:1004500070696E222C2276616C7565223A004649DD
:100460005245440074657374004D4943524F5343E1
:100470004F504500494E444550454E44454E54006A
:100480006D6F6465004C4153455200434F4E5449D3
:100490004E47454E54006D6F6465004C41534552C4
:1004A000006475726174696F6E004C41534552006F
:1004B0006672657175656E6379004C4153455200F3
:1004C00046495245440074657374004C415345528B
:1004D00000464952454400746573740050554D50B0
:1004E00032006475726174696F6E0050554D503200
:1004F00000464952454400746573740050554D5090
:10050000006475726174696F6E0050554D500046FD
:100510004952454400746573740043554532006484
:1005200075726174696F6E0043554532006672657D
:100530007175656E637900435545320046495245F1
:1005400044007465737400435545006475726174AA
:10055000696F6E00435545006672657175656E631F
:10056000790043554500FD01F201E201D501CC01BE
:10057000C4017B226C6576656C223A2230303622CB
:100580002C2264657363223A22436F6D6D616E6441
:10059000206E6F7420666F756E64227D006C6576C8
:1005A00065725F66696C74657200434F4E54524FBA
:1005B0004C4C45520073657373696F6E5F70617563
:1005C00073656400434F4E54524F4C4C4552007477
:1005D0006573745F6D6F646500434F4E54524F4CAA
:1005E0004C455200464952454400746573745F633C
:1005F0006861696E00434F4E54524F4C4C45520057
:1006000050554D500050554D50320061637469761D
:10061000655F70756D7000434F4E54524F4C4C45A2
:10062000520074726163655F696E74657276616CA5
:1006300000434F4E54524F4C4C45520076695F690F
:100640006E74657276616C00434F4E54524F4C4C41
:100650004552007265696E666F72636564004C4551
:100660005645525F4C48007265696E666F726365ED
:1006700064004C455645525F4C480074696D656F87
:100680007574004C455645525F4C48007265696E62
:10069000666F72636564004C455645525F52480070
:1006A0007265696E666F72636564004C45564552AB
:1006B0005F52480074696D656F7574004C4556450E
:1006C000525F524800227D007B226C6576656C2269
:1006D0003A22303036222C2264657363223A22009B
:1006E00044495341524D45440041524D4544002236
:1006F0007D002C2264657363223A2200222C227032
:10070000696E223A007B226C6576656C223A223053
:100710003031222C22646576696365223A220022F8
:100720002C22706172616D223A2270696E222C2235
:1007300076616C7565223A007B226C6576656C2269
:100740003A22303030222C22646576696365223A81
:100750002200222C2276616C7565223A00222C221E
:10076000706172616D223A22007B226C6576656C45
:10077000223A22303030222C226465766963652269
:100780003A220066616C7365007472756500222CF4
:100790002276616C7565223A00222C2270617261AA
:1007A0006D223A22007B226C6576656C223A2230FB
:1007B0003030222C22646576696365223A22002259
:1007C0007D00222C2276616C7565223A2200222C53
:1007D00022706172616D223A22007B226C6576651F
:1007E0006C223A22303030222C22646576696365AF
:1007F000223A220044495341524D45440041524D52
:10080000454400227D002C2264657363223A220055
:100810007B226C6576656C223A22303031222C22A4
:10082000646576696365223A224D4943524F5343CA
:100830004F5045222C2270696E223A0066616C731B
:10084000650074727565002C226475726174696F3D
:100850006E223A002C226672657175656E6379228C
:100860003A00222C2261726D6564223A007B226C70
:100870006576656C223A22303030222C226465760F
:10088000696365223A220066616C73650074727553
:1008900065002C226475726174696F6E223A0022C1
:1008A0002C2261726D6564223A007B226C6576654C
:1008B0006C223A22303030222C22646576696365DE
:1008C000223A220066616C736500747275650022BD
:1008D0002C2261726D6564223A007B226C6576651C
:1008E0006C223A22303030222C22646576696365AE
:1008F000223A220066616C73650074727565006649
:10090000616C73650074727565002C227265696E86
:10091000666F72636564223A00222C2261726D65F3
:1009200064223A007B226C6576656C223A22303074
:1009300030222C22646576696365223A2200027BAC
:10094000226C6576656C223A22303030222C22648B
:100950006576696365223A22434F4E54524F4C4CA0
:100960004552222C22736B65746368223A227669A1
:100970002E696E6F222C2276657273696F6E223A31
:100980002276332E302E302D616C7068612E31222C
:100990002C22626175645F72617465223A3131356F
:1009A0003230302C227363686564756C65223A229C
:1009B0005641524941424C455F494E544552564179
:1009C0004C227D002C22656E645F74696D657374C2
:1009D000616D70223A002C226576656E74223A228F
:1009E0004C49434B222C2273746172745F74696D9D
:1009F000657374616D70223A00222C2270696E2238
:100A00003A007B226C6576656C223A2230303722C0
:100A10002C22646576696365223A22002C22656E79
:100A2000645F74696D657374616D70223A002C2285
:100A30006576656E74223A225354494D222C2273F6
:100A4000746172745F74696D657374616D70223A5C
:100A5000007B226C6576656C223A22303037222C7E
:100A600022646576696365223A224C4153455222DD
:100A70002C2270696E223A002C226576656E7422F3
:100A80003A2254494D455354414D50222C22746909
:100A90006D657374616D70223A007B226C657665BA
:100AA0006C223A22303038222C22646576696365E4
:100AB000223A224D4943524F53434F5045222C2254
:100AC00070696E223A002C226576656E74223A2295
:100AD00054494D455354414D50222C2274696D6543
:100AE0007374616D70223A007B226C6576656C22AE
:100AF0003A22303039222C22646576696365223AC5
:100B000022534C4D222C2270696E223A00000021A3
:100B100000240027002A002D0030003300010100CE
:100B200000040107010A0100002200250028002B13
:100B3000002E003100340002010000050108010B05
:100B400001000020002300260029002C002F003285
:100B50000000010000030106010901050505050764
:100B60000508080808020202020A0A080804040428
:100B70000401010101010101010303030303030354
:100B800003040707070C0C0C0C0C0C0C0C020202E3
:100B90000206060606060606060B0B0B0B0B0B0BD6
:100BA0000B01021020200808102040102040800275
:100BB00001020108040201010204081020408080A3
:100BC0004020100804020180040201804020100827
:100BD00004020108040201010204081020408001FF
:100BE0000204081020408000000A0B02090C0D0EC0
:100BF00008070304010000000000000000000000DE
:100C000000000000000000000000000000000000E4
:100C100000000012111000000000000000000000A1
:100C200000000000000000000000000000444953E4
:100C300041524D45440041524D454400227D002C17
:100C40002264657363223A22007B226C6576656CB0
:100C5000223A22303031222C226465766963652283
:100C60003A22534C4D222C2270696E223A004C4598
:100C70005645525F4C48004C455645525F5248001D
:100C8000227D002C226F7269656E746174696F6ECB
:100C9000223A22002C22656E645F74696D6573745C
:100CA000616D70223A00222C2273746172745F7439
:100CB000696D657374616D70223A002C22657665EA
:100CC0006E74223A225052455353222C22636C6197
:100CD0007373223A2200222C2270696E223A007B22
:100CE000226C6576656C223A22303037222C2264E1
:100CF0006576696365223A220054494D454F555443
:100D000000494E41435449564500414354495645D4
:100D1000002C227363686564756C65645F6174227E
:100D20003A002C22746172676574223A007B226C4F
:100D30006576656C223A22303036222C226572723A
:100D40006F725F636F6465223A22455F50454E447F
:100D5000494E475F46554C4C222C226465736322F2
:100D60003A2250656E64696E6720616374696F6EC4
:100D70002071756575652066756C6C20E280942025
:100D8000616374696F6E2064726F70706564222C89
:100D900022616374696F6E5F74797065223A0053E3
:100DA00054494D00494E465553494F4E00494E4611
:100DB0005553494F4E00544F4E4500544F4E450039
:100DC0004C415345520050554D505F320050554DE7
:100DD000505F31004355455F32004355455F310058
:100DE0002C22656E645F74696D657374616D702229
:100DF0003A00222C2273746172745F74696D65739A
:100E000074616D70223A002C226576656E74223A08
:100E10002200222C2270696E223A007B226C6576B9
:100E2000656C223A22303037222C22646576696361
:100E300065223A220000D13411241FBECFEFD1E247
:100E4000DEBFCDBF00E00CBF13E0A0E0B2E0ECE2FB
:100E5000F4E800E00BBF02C007900D92A235B10785
:100E6000D9F727E0A2E5B3E001C01D92A134B20793
:100E7000E1F717E0CCE1D7E000E006C021970109D7
:100E8000802FFE010E94E13FCB31D10780E00807AF
:100E9000A9F70E945C380C9414420C940000CF9384
:100EA000DF93EC0188819981DC01ED91FC91019047
:100EB000F081E02D64E270E01995009741F02FE198
:100EC000FC01238321E02283DF91CF91089521E06B
:100ED0002A83FACF8F92AF92CF92EF92FF920F9325
:100EE0001F93CF93DF93CDB7DEB73D85E2E0E0936C
:100EF000480410924904E1E0E0934A0440935F04FF
:100F000050936004609361047093620410925704DC
:100F1000109258041092590410925A0410925B04D3
:100F200010925C0410925D0410925E0410926304AF
:100F300049E04093640444E64093650410926804D9
:100F400044E04093C6041092840443E04093850437
:100F5000A09286041092870410928804109289044B
:100F600010928A044091DD065091DE066091DF0602
:100F70007091E00640938B0450938C0460938D0431
:100F800070938E0410928F04C0929004E6E0CE120B
:100F9000382D309391044E0D5F1D601F711F4093DB
:100FA0009204509393046093940470939504FC010D
:100FB00081859285A385B485809396049093970448
:100FC000A0939804B093990410929A0487E08093B8
:100FD0009B0489E080939C0440939D0450939E045D
:100FE00060939F047093A00440914B0650914C066F
:100FF00060914D0670914E064093A1045093A20457
:101000006093A3047093A40491E09093A5042093AB
:10101000A6048093A7041092A8041092A904109229
:10102000AA041092AB0480910E0690910F06A09135
:101030001006B09111068093AC049093AD04A09378
:10104000AE04B093AF04DF91CF911F910F91FF9049
:10105000EF90CF90AF908F90089560930E067093AD
:101060000F0680931006909311063091C604E4E8B1
:10107000F4E020E023130DC030910905E7ECF4E023
:1010800020E02317B1F04081413071F02F5F3B9693
:10109000F8CF4081413019F02F5F3B96EBCF67834B
:1010A000708781879287F8CF67837087818792875F
:1010B000EDCF0895E9E1F5E01082709686E0E93120
:1010C000F807D1F708958150823108F05AC0E82F0F
:1010D000F0E08827E159F74F8F4F0C94E13F8F08DC
:1010E0009308810887088B08C10896089C08A00807
:1010F000A608AA08AE08B408B808C108BC08C20807
:10110000C608809180008F77809380000895809139
:1011100080008F7DF9CF80918000877FF5CF84B5E7
:101120008F7784BD089584B58F7DFBCF8091B0000B
:101130008F778093B00008958091B0008F7DF9CFB4
:10114000809190008F778093900008958091900017
:101150008F7DF9CF80919000877FF5CF8091A0009F
:101160008F778093A00008958091A0008F7DF9CFA4
:101170008091A000877FF5CF809120018F778093A9
:1011800020010895809120018F7DF9CF8091200169
:10119000877FF5CFCF93DF93282F30E0F901E95116
:1011A000F44F8491F901EF55F44FD491F901E55AC8
:1011B000F44FC491CC23A1F081110E946308EC2F5D
:1011C000F0E0EE0FFF1FEF5BF44FA591B491EC91AF
:1011D000ED2381E090E009F480E0DF91CF91089564
:1011E00080E090E0FACF1F93CF93DF93282F30E079
:1011F000F901E951F44F8491F901EF55F44FD4917D
:10120000F901E55AF44FC491CC23A9F0162F8111AE
:101210000E946308EC2FF0E0EE0FFF1FE95DF44F32
:10122000A591B4918FB7F894EC91111108C0D095A5
:10123000DE23DC938FBFDF91CF911F910895DE2BCA
:10124000F8CFCF93DF9390E0FC01EF55F44F24915A
:10125000855A944FFC0184918823C9F090E0880F4F
:10126000991FFC01E35FF44FA591B491FC01E95D86
:10127000F44FC591D49161110DC09FB7F8948C9132
:10128000209582238C938881282328839FBFDF9118
:10129000CF910895623051F49FB7F8943C91822F1A
:1012A000809583238C93E8812E2BEFCF8FB7F89412
:1012B000EC912E2B2C938FBFEACF3FB7F8948091FF
:1012C000910390919203A0919303B091940326B55A
:1012D000A89B05C02F3F19F00196A11DB11D3FBF6E
:1012E000BA2FA92F982F8827BC01CD01620F711D3D
:1012F000811D911D42E0660F771F881F991F4A9537
:10130000D1F708958F929F92AF92BF92CF92DF92C2
:10131000EF92FF920E945D094B015C0184E6C82EAA
:10132000D12CE12CF12C0E945D09681979098A09F8
:101330009B09683E734081059105A8F321E0C21A1C
:10134000D108E108F10888EE880E83E0981EA11C00
:10135000B11CC114D104E104F10429F7FF90EF900E
:10136000DF90CF90BF90AF909F908F9008952FB750
:10137000F89460918D0370918E0380918F0390910A
:1013800090032FBF08950F931F93CF93DF93C091C6
:101390003404D0913504209781F081E08A830E9443
:1013A000B709088519852A853B85601B710B820B5F
:1013B000930B6C837D838E839F83DF91CF911F91ED
:1013C0000F91089508959091070289130DC0EEE3DF
:1013D000F9E0E4919FEF90930702E230E1F038F4F6
:1013E000EE2381F0E13089F060E00C94F308E43002
:1013F00049F110F1E530C1F7909173009D7F909312
:101400007300F2CF10926E00EFCF90916F009D7F2E
:1014100090936F00E9CF909170009D7F9093700042
:1014200091E09093B0009091B100987F9460909378
:10143000B1001092B300D8CF909171009D7F90932E
:101440007100D2CF909172009D7F90937200CCCFAB
:101450004F925F926F927F928F929F92AF92BF92C4
:10146000CF92DF92EF92FF920F931F93CF93DF9370
:1014700000D01F921F92CDB7DEB78B0129013A0130
:10148000909107028917C9F09F3F09F491C00F900E
:101490000F900F900F900F90DF91CF911F910F91B0
:1014A000FF90EF90DF90CF90BF90AF909F908F9084
:1014B0007F906F905F904F900895EEE3F9E0249154
:1014C0002D8327FDE4CF61E00E9421092D81222395
:1014D00021F08D81823009F005C24801B12CA12C88
:1014E00060E072E18AE790E0A50198010E94643E05
:1014F00029833A834B835C8369017A0191E0C91A9D
:10150000D108E108F1082FEFC216D104E104F1047B
:1015100009F00CF4B6C160E472E48FE090E0A5013C
:1015200098010E94643E69017A0181E0C81AD108DD
:10153000E108F1089D81923009F026C182E02FEF89
:10154000C216D104E104F10409F00CF46CC160E9A5
:1015500070ED83E090E0A50198010E94643E69016E
:101560007A0181E0C81AD108E108F10883E09FEF11
:10157000C916D104E104F10409F00CF454C168E483
:1015800078EE81E090E0A50198010E94643E690137
:101590007A0181E0C81AD108E108F1089FEFC91665
:1015A000D104E104F10411F00CF044C184E03BC12A
:1015B00080930702EEE3F9E094919D839F3F09F445
:1015C00066CF923009F474C058F4992399F19130A0
:1015D00009F44CC097FD5BCF61E00E94210979CFEF
:1015E0002D81243009F4AEC008F488C0253091F76D
:1015F0001092200110922101909121019860909306
:10160000210190912101916090932101282F30E0D8
:10161000F901E55AF44FE491F0E0EE0FFF1FE95DA8
:10162000F44F45915491F901EF55F44FE491E09353
:10163000630349CF14BC15BC94B5926094BD95B5B5
:10164000916095BD282F30E0F901E55AF44FE491FF
:10165000F0E0EE0FFF1FE95DF44F45915491F90161
:10166000EF55F44FE491E09367032DCF1092800083
:1016700010928100909181009860909381009091E8
:101680008100916090938100282F30E0F901E55AA4
:10169000F44FE491F0E0EE0FFF1FE95DF44F459148
:1016A0005491F901EF55F44FE491E09366030BCFA9
:1016B0001092B0001092B1009091B000926090939F
:1016C000B0009091B10091609093B100282F30E06C
:1016D000F901E55AF44FE491F0E0EE0FFF1FE95DE8
:1016E000F44F4591549150937D0340937C03F9014D
:1016F000EF55F44FE491E0937E03E5CE1092900015
:101700001092910090919100986090939100909127
:101710009100916090939100282F30E0F901E55AF3
:10172000F44FE491F0E0EE0FFF1FE95DF44F4591B7
:101730005491F901EF55F44FE491E093650393E080
:101740009D83C1CE1092A0001092A1009091A100A3
:1017500098609093A1009091A10091609093A10056
:10176000282F30E0F901E55AF44FE491F0E0EE0F54
:10177000FF1FE95DF44F45915491F901EF55F44F86
:10178000E491E09364039FCE2FEFC216D104E104ED
:10179000F10409F00CF4A4C068E478EE81E090E074
:1017A000A50198010E94643E69017A0181E0C81A8E
:1017B000D108E108F1089D81992309F489C19FEFBF
:1017C000C916D104E104F10409F00CF4EFCE62E192
:1017D0007AE780E090E0A50194010E94643E6901EF
:1017E0007A0181E0C81AD108E108F1089D819923A6
:1017F00009F453C186E09FEFC916D104E104F10456
:1018000091F088F0C980DA80EB80FC808AE0F59462
:10181000E794D794C7948A95D1F781E0C81AD10884
:10182000E108F10887E09091B100987F892B8093BF
:10183000B1002FC064E274EF80E090E0A501940154
:101840000E94643E69017A0181E0C81AD108E1086A
:10185000F10885E09FEFC916D104E104F10419F302
:1018600010F362E17AE780E090E0A50194010E9424
:10187000643E69017A0181E0C81AD108E108F108E3
:10188000B9CF81E02D812111CECF95B5987F892BDD
:1018900085BD2FEF3FEFA90141145104610471048C
:1018A00009F049C09D81923009F4E7C00CF0CEC028
:1018B000992309F4D3C0913009F0E9CDD092890081
:1018C000C09288002093740330937503409376038D
:1018D0005093770380916F00826080936F00D7CD23
:1018E00082E0D0CFB12CA12C60E072E18AE790E0D9
:1018F000A50198010E94643E69017A0181E0C81A3D
:10190000D108E108F108C114D10491E0E906F1041D
:1019100004F591E02D81213069F580918100887F67
:10192000892B809381002FEF3FEFA90141145104CF
:101930006104710419F2D801AA0FBB1FA30192011F
:101940000E94833E28EE33E040E050E00E94963E45
:10195000A9CF68E478EE81E090E0A50198010E94AB
:10196000643E69017A0181E0C81AD108E108F108F2
:1019700093E0D0CF8D81833001F580919100887FF5
:10198000892B809391002FEF3FEFA901411451045F
:101990006104710481F6D0929900C092980020935E
:1019A00070033093710340937203509373038091DB
:1019B00071008260809371006ACD2D81243009F519
:1019C0008091A100887F892B8093A1002FEF3FEFAA
:1019D000A901411451046104710409F0ACCFD09203
:1019E000A900C092A80020936C0330936D0340932C
:1019F0006E0350936F038091720082608093720037
:101A000046CD8D81853009F044CF80912101887FBA
:101A1000892B809321012FEF3FEFA901411451043D
:101A20006104710409F087CFD0922901C092280186
:101A3000209368033093690340936A0350936B03C8
:101A40008091730082608093730021CD8D818430FA
:101A500031F20CF4A0CF853039F319CDC7BC2093F7
:101A600078033093790340937A0350937B038091FA
:101A70006E00826080936E000ACDC092B300209306
:101A80007F033093800340938103509382038091BE
:101A90007000826080937000FACC84E02FEFC21651
:101AA000D104E104F10409F008F4EFCEC980DA8032
:101AB000EB80FC809AE0F594E794D794C7949A95CC
:101AC000D1F791E0C91AD108E108F10885E0DDCE2F
:101AD00083E02FEFC216D104E104F10411F00CF001
:101AE00076CED3CEAF92BF92CF92DF92EF92FF929B
:101AF0000F931F93CF93DF936C017B018B01040F36
:101B0000151FEB015E01AE18BF08C017D10759F0D1
:101B10006991D601ED91FC910190F081E02DC60113
:101B20001995892B79F7C501DF91CF911F910F91FD
:101B3000FF90EF90DF90CF90BF90AF900895FC01A1
:101B4000538D448D252F30E0842F90E0821B930B22
:101B5000541710F0CF96089501970895FC01918DC8
:101B6000828D981761F0A28DAE0FBF2FB11D5D96CB
:101B70008C91928D9F5F9F73928F90E008958FEF6D
:101B80009FEF0895FC01918D828D981731F0828D21
:101B9000E80FF11D858D90E008958FEF9FEF089578
:101BA000FC01918D228D892F90E0805C9F4F821BDC
:101BB00091098F739927089585E993E00E94D00DCC
:101BC00021E0892B09F420E0822F0895FC01A48DE7
:101BD000A80FB92FB11DA35ABF4F2C91848D90E04F
:101BE00001968F739927848FA689B7892C93A08932
:101BF000B1898C91837080648C93938D848D9813BC
:101C000006C00288F389E02D80818F7D808308954E
:101C1000EF92FF920F931F93CF93DF93EC0181E03C
:101C2000888F9B8D8C8D98131AC0E889F9898081E3
:101C300085FF15C09FB7F894EE89FF896083E88916
:101C4000F98980818370806480839FBF81E090E008
:101C5000DF91CF911F910F91FF90EF900895F62E95
:101C60000B8D10E00F5F1F4F0F731127E02E8C8D2F
:101C70008E110CC00FB607FCFACFE889F989808174
:101C800085FFF5CFCE010E94E60DF1CFEB8DEC0F75
:101C9000FD2FF11DE35AFF4FF0829FB7F8940B8F91
:101CA000EA89FB8980818062CFCF0F931F93CF9306
:101CB000DF938C01D0E0C0E0F801EC0FFD1F6491D0
:101CC000662341F085E993E00E94080E892B11F00C
:101CD0002196F2CFCE01DF91CF911F910F91089500
:101CE000CF93DF93EC01888D8823B9F0AA89BB8953
:101CF000E889F9898C9185FD03C0808186FD0DC03E
:101D00000FB607FCF7CF8C9185FFF2CF808185FF5E
:101D1000EDCFCE010E94E60DE9CFDF91CF9108957E
:101D200080E090E0892B29F00E94DC0D81110E9457
:101D3000000080E090E0892B49F080E090E0892B62
:101D400029F00E94000081110E94000080E090E0D4
:101D5000892B49F080E090E0892B29F00E94000057
:101D600081110E94000080E090E0892B49F080E022
:101D700090E0892B29F00E94000081110C94000052
:101D80000895CF92DF92EF92FF921F93CF93DF934C
:101D9000EC016A017B018C810E94CA0811E0892B49
:101DA00009F410E08B85181721F0CD8ADE8AEF8ABE
:101DB000F88E8D899E89AF89B88DB701A601481B21
:101DC000590B6A0B7B0B898D90E0B0E0A0E0841783
:101DD0009507A607B70798F48C85181781F01C871C
:101DE0008A851817A9F0CA8EDB8EEC8EFD8EEAA1CB
:101DF000FBA1309721F0B701A601898519951B87B2
:101E0000DF91CF911F91FF90EF90DF90CF900895D9
:101E1000CE8EDF8EE8A2F9A2ECA1FDA1309779F376
:101E200089851995ECCFFC011582138614861586D9
:101E300016861786108A118A128A138A148A158ABE
:101E4000168A138E8681882311F0848183830895F6
:101E5000CF92DF92EF92FF920F931F93CF93DF9376
:101E6000EC018E81811103C08D89882369F18C81F9
:101E70000D851E852F8538896A017B01C01AD10A1C
:101E8000E20AF30A9701860137FD18C009891A8909
:101E90002B893C89401B510B620B730B14161506E2
:101EA000160617065CF061E0DF91CF911F910F914C
:101EB000FF90EF90DF90CF900C94F30860E00E94C9
:101EC000F3088D8981111D8ADF91CF911F910F91A8
:101ED000FF90EF90DF90CF900895CF93DF93EC01C8
:101EE00061E088810E94F30881E08C870E94B70935
:101EF0006D877E878F87988BDF91CF910895CF92E2
:101F0000DF92EF92FF92CF93DF93EC016A017B01A6
:101F100069857A858B859C850E94453D9B01AC0136
:101F200060E070E080E89FE30E94343F20E030E012
:101F300040E05FE30E94A63D20E030E04AE754E441
:101F40000E94A63DCD8EDE8EEF8EF8A220E030E01E
:101F500040E05FE30E94C83E0E94AD3FC60ED71E20
:101F6000E81EF91EC9A2DAA2EBA2FCA28FA191E0A1
:101F700089278FA3DF91CF91FF90EF90DF90CF90D3
:101F80000895CF92DF92EF92FF92CF93DF93EC010F
:101F90006A017B018D899E89AF89B88DAB0196015D
:101FA000281B390B4A0B5B0BDA01C901B7FD49C08D
:101FB000898D9A8DAB8DBC8DAB019601281B390B99
:101FC0004A0B5B0BDA01C901181619061A061B0623
:101FD000C4F18EA18823A9F189859A85AB85BC853A
:101FE0000197A105B10551F461E08C81DF91CF919A
:101FF000FF90EF90DF90CF900C94F30889A19AA105
:10200000ABA1BCA1AB019601281B390B4A0B5B0BA2
:10201000DA01C901B7FD04C0A601CE010E947F0FFD
:102020008C819FA1992311F061E0E0CF60E00E94D4
:10203000F3081FA2DF91CF91FF90EF90DF90CF9038
:10204000089560E08C810E94F3081FA2898D9A8D0B
:10205000AB8DBC8DC81AD90AEA0AFB0A8EA1882367
:1020600031F01C141D041E041F040CF41EA288A5CC
:10207000882301F31C141D041E041F04DCF618A69B
:10208000D9CF8F929F92AF92BF92CF92DF92EF9271
:10209000FF920F931F93CF93DF93EC018E818111F9
:1020A00004C088A1882309F445C07B0189899A89E5
:1020B000AB89BC894A015B01881A990AAA0ABB0A42
:1020C000C501B40197FD53C00D891E892F89388D34
:1020D0004A015701801A910AA20AB30A95018401A4
:1020E00010161106120613060CF441C02A8D222385
:1020F000A9F10C8D1D8D2E8D3F8D200F311F2115C7
:10210000310511F421E030E0FB8C50E040E00E940A
:10211000963E60177107D8F4F1100AC069857A8578
:1021200020E030E0A9018C810E94280A81E08B8F99
:1021300081E0898FDF91CF911F910F91FF90EF90F8
:10214000DF90CF90BF90AF909F908F900895FF2029
:1021500079F38C810E94E3091B8EEACF69857A8529
:1021600020E030E0A9018C810E94280AE1CF898D0E
:10217000882301F38C810E94E309198E1B8E88A1AC
:102180008823C1F218A2D6CF6F3FA9F0E62FE295BF
:10219000EF7044E0E49F90011124DC01ED91FC918B
:1021A000E20FF31F6F7082819381B6E06B9F800D09
:1021B000911D1124089590E080E00895982F8033B8
:1021C0006CF08A3324F08F3524F08B3724F481E0CF
:1021D000089581341CF081E09B350CF080E0089577
:1021E000FC01828581110AC0A781B085CD010196CD
:1021F000908787838C91818781E08287818508958C
:102200001F93CF93DF93EC01162F0E94F0108113E0
:1022100006C01A8681E0DF91CF911F91089580E07A
:10222000FACF0F931F93CF93DF938C01EB0189912A
:10223000882369F0C8010E94F010882379F0FE011C
:102240003197908198130DC0F8011286F0CF90E07D
:1022500080E0DF91CF911F910F91089582E090E08F
:10226000F8CF83E090E0F5CFCF93DF93EC01CE0180
:102270000E94F0108B304CF489305CF4882359F0C4
:1022800081E08E8390E080E00BC08D3011F08032D1
:10229000B9F71A86ECCF8E81811105C081E090E0FC
:1022A000DF91CF91089582E090E0FACFDC01529661
:1022B0009C915297915084E0989F900111245096E0
:1022C000ED91FC91E20FF31F22813381211531053D
:1022D00079F041818081481758F481E0840F81832F
:1022E00086E0489F200D311D11242115310521F470
:1022F00060E070E08FEF0895B901892F8295807FAB
:10230000840F0895DF92EF92FF920F931F93CF9364
:10231000DF93EC017B01D12C688979898A89D816F1
:10232000E0F484E0D89E80011124060F171FD80125
:1023300012966D917C916115710541F0D701ED9177
:10234000FC910280F381E02DC7011995F8011382F9
:10235000128210821182D394DFCF1A8A8FEF8C8B76
:10236000C617D70761F0D701ED91FC910280F38188
:10237000E02DC7011995D98BC88B84E08B8BDF9139
:10238000CF911F910F91FF90EF90DF9008958F9262
:10239000AF92CF92DF92EF92FF920F931F93CF9362
:1023A000DF93C0910802D0910902E0908303F0907E
:1023B0008403009185031091860321E0809103023C
:1023C000909104028751974009F420E040910A025D
:1023D00050910B0260910C0270910D0280910002ED
:1023E0008F9380900102A0900202C0900E02CE0155
:1023F0000E946A07E091C6040F90E33008F454C0CD
:10240000C358D64009F0A3C0C0905603D0905703DC
:10241000E0905803F090590340915E0350915F03A0
:1024200060916003709161030091870410918804AA
:102430002091890430918A04040F151F261F371F2D
:1024400000938704109388042093890430938A04AE
:102450008091920490919304A0919404B09195047A
:10246000840F951FA61FB71F8C0D9D1DAE1DBF1D90
:102470008093920490939304A0939404B093950452
:1024800080919D0490919E04A0919F04B091A0041E
:10249000840F951FA61FB71F80939D0490939E04E1
:1024A000A0939F04B093A00480916203882309F451
:1024B00057C0E33018F083E080939A0410926604CA
:1024C00081E080936704809368048093690480931B
:1024D0006A0410926B0410926C041092820494E6C9
:1024E00090938304809309051092C70487E080933A
:1024F000C80489E08093C90480914F0690915006EA
:10250000A0915106B09152068093CA049093CB04D7
:10251000A093CC04B093CD0480914B0690914C06CF
:10252000A0914D06B0914E068093CE049093CF04B7
:10253000A093D004B093D104DF91CF911F910F915C
:10254000FF90EF90DF90CF90AF908F900895C09064
:102550005A03D0905B03E0905C03F0905D035CCF86
:1025600010926804E9CF4F925F926F927F928F92A0
:102570009F92AF92BF92CF92DF92EF92FF920F9312
:102580001F93CF93DF9300D01F921F92CDB7DEB77A
:10259000DC012C912B32E1F12D32D9F50196EE249C
:1025A000E394FC01208130ED320F3A3010F02E32EE
:1025B00091F58C0160E070E0CB01F801219130EDE4
:1025C000832E820E39E0381508F444C06A3949E98F
:1025D0007407840749E1940708F046C0AAE0B0E018
:1025E0009B01AC010E94833E912CB12CA12C2401B3
:1025F00035014094509460947094461657066806CE
:10260000790690F1680D791D8A1D9B1D8F01D5CF2C
:102610000196E12CC6CF198229813A814B815C81D8
:102620006D8170E080E090E00F900F900F900F9020
:102630000F90DF91CF911F910F91FF90EF90DF905E
:10264000CF90BF90AF909F908F907F906F905F9052
:102650004F900895211108C0EE2051F161307105AD
:10266000810550E89507A0F0F12CBAE08B2E912C53
:10267000A12CB12C6115710530E883079105F8F0A4
:10268000A50194010E94963ECA01B901F394F2CFCC
:1026900022E029839B01AC0188279927DC01821B5A
:1026A000930BA40BB50B8A839B83AC83BD83B4CF00
:1026B00023E029836A837B838C839D83ADCFF801DC
:1026C000D8012D918D0130ED320F3A3010F4F39492
:1026D000F6CF2E3201F58F010F5F1F4FF8010F5F0C
:1026E0001F4F2081A0EDDA2ED20EB9E0BD1598F073
:1026F0006C3CECEC7E07ECE08E07910578F7AAE0E5
:10270000B0E09B01AC010E94833E6D0D711D811DE7
:10271000911DFA94E3CF20812F7D10E000E0253455
:1027200009F050C021812D32B1F53296CC24C394EA
:10273000DF0110E000E02F2D0F2C000C330BEAE03E
:10274000BE2EFD01DD9040ED4D0D4A30B0F5B09E3E
:10275000A001B19E500D11240D2DDD0C110B005365
:102760001109040F151FA801420F531F47325105CD
:1027700044F3CC20B9F080E090E0A0E0B0E8E110B4
:1027800003C080E090E0DC0121E029838A839B8301
:10279000AC83BD8341CF2B3219F03196C12CC8CF09
:1027A0003296FCCF80E090E0A0E8BFEFE110ECCFE4
:1027B00080E090E0A0E8BFE7E7CFCC2019F01195CA
:1027C000019511092081211126CF0F0D111DF7FC54
:1027D0001A950E94453D48E1A42E42E0B42E101601
:1027E00011063CF011950195110950E0A52E52E01B
:1027F000B52ED12CC12C01151105E9F0F6E0CF164C
:10280000D104A9F000FF0DC0F601EE0FFF1FEE0F7F
:10281000FF1FEA0DFB1D25913591459154910E94B2
:10282000A63D159507952FEFC21AD20AE4CF60E0B6
:1028300070E080EC9FE7E110905821E029836A83E3
:102840007B838C839D83E8CECF92DF92EF92FF92C1
:102850000F931F93CF93DF937C016B018A01FC01DF
:10286000C081D1814F3F510509F0B0F4E881F98171
:102870000480F581E02D4B5F5F4FCE0119950097E5
:1028800059F0FC010383DF91CF911F910F91FF90CD
:10289000EF90DF90CF900895E881F9810280F38175
:1028A000E02DB601CE01199581E0F701828390E019
:1028B00080E0E9CF1F93CF93DF93EC01162F6A815D
:1028C0007B816115710589F04C815D81FB018381FC
:1028D0008417150651F4440F551F4F5F5F4F8881D1
:1028E00099810E9424149B838A838A819B8100970B
:1028F00059F02C813D81A9014F5F5F4F5D834C836F
:10290000820F931FFC011483DF91CF911F910895D3
:102910009F92AF92BF92CF92DF92EF92FF920F936E
:102920001F93CF93DF9300D01F921F92CDB7DEB7D6
:102930008C010E94F010D82EF8011286F12CE12CA7
:1029400060EFC62EC8010E94F010F8011286D8165A
:1029500009F4B3C0811113C082E090E00F900F9092
:102960000F900F900F90DF91CF911F910F91FF90DB
:10297000EF90DF90CF90BF90AF909F9008958C35EF
:1029800009F099C0C8010E94F010882329F3EAEAEF
:10299000F2E0853709F083C0F801128654E0952EE5
:1029A000B12CA12CC8010E94F0108823A9F2813417
:1029B00034F48053803130F083E090E0CFCF8F7DCE
:1029C0008753F8CF44E0AA0CBB1C4A95E1F7A82A2C
:1029D000F80112869A949110E5CFC501985D811592
:1029E000944020F47501F3E0FF22ACCFC5019C5D5B
:1029F00081159440A8F483E0B822B701762F6627AA
:102A0000770F770F6A297B2990E080E00196603884
:102A100071058105910540F4C8010E945A1492CFB6
:102A2000B50190E080E0F3CF1982262F2F73206844
:102A30002A8326E096958795779567952A95D1F70D
:102A40006032710580F4606C6B835E01E4E0AE0E71
:102A5000B11CF50162915F01662309F473CFC801CF
:102A60000E945A14F6CF262F2F7320682B8386E0FE
:102A7000769567958A95E1F76031710538F4606E57
:102A80006C835E01F5E0AF0EB11CE3CF60686C8330
:102A9000CD825E0126E0A20EB11CDBCF3296908182
:102AA000992309F489CF8913F9CF8181882309F407
:102AB00083CFF8011286682FAFCF82819381892B53
:102AC00019F484E090E04ACF90E080E047CF6F9225
:102AD0007F928F929F92AF92BF92CF92DF92EF92AE
:102AE000FF920F931F93CF93DF93EC012A813B81D9
:102AF0002C5F3F4F4C815D814430510588F5890141
:102B0000F90180E0942FB22FAE2FA21BA91730F449
:102B1000F190A1E0F110A0E08A2BF6CF811120C046
:102B200082E0EB018C83FB01802F8B1B891728F43B
:102B3000E80189918E018193F7CF640F751FFB0126
:102B40001082DF91CF911F910F91FF90EF90DF9056
:102B5000CF90BF90AF909F908F907F906F9008958F
:102B60008B01F901E40FF51F1082888199814C8156
:102B70005D81DC011396ED91FC913A01E89477F8C0
:102B80006901C60CD71C3097C1F0A381A6151704A4
:102B900081F449017F01B4E0EB0EF11C8C149D041B
:102BA00029F1D401AD904D01D701BD907D01AB1449
:102BB000A9F30190F081E02DE6CF6A817B810E942C
:102BC0002414FC01A881B98113968D919C911497CE
:102BD000918380831496FC93EE9313971B821A8241
:102BE00085E0E8018C83F983E883ABCF82818F5F36
:102BF0008283F6CFDB01ED91FC9111970280F38186
:102C0000E02DBC01CD011994AF92BF92CF92DF921B
:102C1000EF92FF920F931F93CF93DF93EC018B0101
:102C20008C8180FF24C0A881B981FB0183819481BC
:102C300030E020E00097D9F0A817B907D1F5F801E6
:102C40006081718112968C911297815012968C93AB
:102C5000129781110CC08D919C911197211531050E
:102C600029F1F90191838083CD010E94FA158C81AD
:102C7000807631F1209721F1F8805801F5E1AF0E0F
:102C8000B11C8FEFF816D1F06F2DC5010E94C41052
:102C90006C01FC01E580B8010E940416F801818DE9
:102CA000F6018083F801F18EFE2CEBCF94838383B1
:102CB000DBCF9C01FC0180819181BCCFF882F9823D
:102CC0001C82DF91CF911F910F91FF90EF90DF90C9
:102CD000CF90BF90AF9008950F931F93CF93DF9342
:102CE000EC01088119818B819C81009749F0FC01DE
:102CF000208131813C832B83B8010E94FA15F3CFE8
:102D000068817981CE010596DF91CF911F910F9156
:102D10000C948211FC0101900020E9F73197AF017A
:102D2000481B590BBC0185E993E00C94720D8F92FE
:102D30009F92AF92BF920F931F93CF93DF93CDB724
:102D4000DEB7A1970FB6F894DEBF0FBECDBF19A2B4
:102D5000423008F44AE08E010F5D1F4F842E912C03
:102D6000B12CA12CA50194010E94963EE62FB90139
:102D7000CA01EA30F4F4E05DD801EE938D01232B13
:102D8000242B252B79F790E080E0109719F0CD01E6
:102D90000E948A16A1960FB6F894DEBF0FBECDBF73
:102DA000DF91CF911F910F91BF90AF909F908F9027
:102DB0000895E95CE1CF4AE00C949716CF92DF9238
:102DC000EF92FF92CF93DF936C01990FEE08FF080B
:102DD000F7FE19C06DE285E993E00E94080EEC0150
:102DE00066277727CB016C197D098E099F094AE078
:102DF0000E9497168C0F9D1FDF91CF91FF90EF904F
:102E0000DF90CF9008954AE0C701B601DF91CF91DE
:102E1000FF90EF90DF90CF900C949716CF93DF93B5
:102E20000E94550EEC018DEB92E00E948A168C0FE9
:102E30009D1FDF91CF910895CF93C82F80931E06D9
:102E400089E49CE00E94550E80911C06082E000C1F
:102E5000990B0E94DE168FE39CE00E94550E8DE2D6
:102E60009CE0CC2311F086E39CE00E94550E8CE39D
:102E70009CE0CF910C940E170F931F93CF938C016E
:102E8000C62FFC01638380E198E00E94550EF80193
:102E90008081082E000C990B0E94DE1686E098E0D7
:102EA0000E94550E84EF97E0CC2311F08DEF97E050
:102EB0000E94550E83E098E0CF911F910F910C94E2
:102EC0000E17EF92FF920F931F93CF93DF937C0126
:102ED0008B01EA018AED97E00E94550EC7010E941E
:102EE000550E8EEC97E00E94550EC8010E94550EBB
:102EF00082EC97E00E94550ECE010E94550E8FEB9A
:102F000097E0DF91CF911F910F91FF90EF900C947C
:102F10000E17CF93DF936DE785E993E00E94080ECB
:102F2000EC018DEB92E00E948A168C0F9D1FDF91C1
:102F3000CF9108954F925F926F927F928F929F925E
:102F4000AF92BF92EF92FF920F931F93CF93DF93B5
:102F50002A013B0148015901853009F480C008F07D
:102F600061C0843009F46FC0E0913C04F0913D04ED
:102F70001481CBEBDDE04AEDE42E4DE0F42E8BE145
:102F80009EE00E94550EC7010E94550E82E19EE010
:102F90000E94550E812F110F990B0E94DE1687E0BB
:102FA0009EE00E94550ECE010E94550E82EF9DE0DC
:102FB0000E94550E80910A0690910B06A0910C0676
:102FC000B0910D06A3019201281B390B4A0B5B0B34
:102FD000CA01B9010E94DB1680EE9DE00E94550EE9
:102FE00080910A0690910B06A0910C06B0910D06F7
:102FF000A5019401281B390B4A0B5B0BCA01B901CF
:103000000E94DB16DF91CF911F910F91FF90EF90FF
:10301000BF90AF909F908F907F906F905F904F90F8
:103020000C948917863039F1873009F09DCFE091F3
:103030004404F09145041481CFE9DDE080ECE82EF2
:103040008DE0F82E9CCFE0913E04F0913F04148176
:10305000C6EBDDE034EDE32E3DE0F32E90CFE091C2
:103060004004F09141041481CDEADDE02DECE22E24
:103070002DE0F22E84CFE0914204F09143041481BC
:10308000C4EADDE096ECE92E9DE0F92E78CFCF92F0
:10309000DF92EF92FF920F931F93CF93DF93EC0198
:1030A0008881813009F4D1C06A017B01813090F0C0
:1030B0008230D1F488E494E00E94130F86E694E015
:1030C000DF91CF911F910F91FF90EF90DF90CF9004
:1030D0000C94130F8981853009F47DC070F483301E
:1030E000F1F1843009F45AC0DF91CF911F910F9113
:1030F000FF90EF90DF90CF900895863009F488C05C
:10310000873091F7E0914404F0914504309761F3E2
:103110008681882349F385A18111E6CF8F81988527
:10312000A985BA85C58AD68AE78AF08E8C0D9D1D41
:10313000AE1DBF1D818F928FA38FB48F81E086A3B8
:10314000CF010E947F0F0F81188529853A850C0DCC
:103150001D1D2E1D3F1DB701A60187E01CC0E0917B
:103160003C04F0913D04309709F4BECF868188235A
:1031700009F4BACF0F81188529853A85C18AD28A88
:10318000E38AF48A0C0D1D1D2E1D3F1D058B168B29
:10319000278B308F83E00E949A17A6CFE0913E04E0
:1031A000F0913F04309709F49FCF8681882309F47A
:1031B0009BCF0F81188529853A85C18AD28AE38AF7
:1031C000F48A0C0D1D1D2E1D3F1D058B168B278BA4
:1031D000308F84E0E0CFE0914004F09141043097DB
:1031E00009F482CF8681882309F47ECF0F81188568
:1031F00029853A85C586D686E786F08A0C0D1D1D81
:103200002E1D3F1D018B128B238B348B85E0C3CF8A
:10321000E0914204F0914304309709F465CF868130
:10322000882309F461CF0F81188529853A85C586E1
:10323000D686E786F08A0C0D1D1D2E1D3F1D018BC5
:10324000128B238B348B86E0A6CF8981E0913604E4
:10325000F0913704882339F0813009F045CFE091AF
:103260003804F0913904309709F43ECFCF80D884E8
:10327000E984FA844C0D5D1D6E1D7F1D418B528BC0
:10328000638B748B31CF2F923F924F925F926F92EC
:103290007F928F929F92AF92BF92CF92DF92EF92E6
:1032A000FF920F931F93CF93DF9300D01F92CDB760
:1032B000DEB72A013B0103E4809F90011124912C89
:1032C0008901C9018A539B4F9A8389834BE0842EDD
:1032D00019019EE4290E311CE981FA81808198163A
:1032E00008F0A0C0A92CB12CC801899C800D911DAB
:1032F00011248A5C9B4FFC01E25BFF4F208123304D
:1033000039F1805B9F4FFC018081893021F09091E1
:103310001B0689131DC08A9CF0018B9CF00D1124A3
:10332000E00FF11FE957FB4FC080D180E280F380AE
:10333000C114D104E104F10469F4B301A201C10193
:10334000989C800D911D11248A5C9B4F0E94471808
:103350009394C2CFC40CD51CE61CF71CE9E1F5E040
:1033600090E080E02081211125C024E0880F991F82
:103370002A95E1F7DC01A65FBA4F8A9CF0018B9C8D
:10338000F00D1124E00FF11FEC57FB4F282D019099
:103390000D922A95E1F78A5C9B4FFC01E152FF4FA9
:1033A000C082D182E282F3828D519F4F21E0FC01E5
:1033B0002083CECF019670968031910599F68DE2EB
:1033C0009DE00E94550E8A9CC0018B9C900D11249B
:1033D000800F911F8A5C9B4F9C838B83FC01E25B77
:1033E000FF4F608170E090E080E04AE00E94971615
:1033F00082E29DE00E94550EEB81FC81E15BFF4F74
:10340000608170E090E080E04AE00E94971681E1E0
:103410009DE00E94550EC701B6010E94DB160E9476
:10342000891796CF0F900F900F900F90DF91CF914B
:103430001F910F91FF90EF90DF90CF90BF90AF90D2
:103440009F908F907F906F905F904F903F902F90C4
:1034500008950F931F93CF93DF938C01D62FC42F22
:1034600084E299E00E94550EC8010E94550E89E140
:1034700099E00E94550E8FEF98E0DD2311F085E072
:1034800099E00E94550E8AE099E00E94550E84EF63
:1034900098E0CC2311F08AEF98E00E94550EDF915E
:1034A000CF911F910F910C9489170F931F93CF9376
:1034B0008C01C62F8AED98E00E94550EC8010E942B
:1034C000550E8FEC98E00E94550E84EC98E0CC23CA
:1034D00011F08AEC98E00E94550ECF911F910F9148
:1034E0000C948917CF92DF92EF92FF920F931F9364
:1034F000CF938C01C62F69017A018AEA98E00E9475
:10350000550EC8010E94550E8FE998E00E94550E95
:1035100087E898E0CC2311F08DE898E00E94550EE2
:1035200082E998E00E94550EC701B6010E94DB16A1
:10353000CF911F910F91FF90EF90DF90CF900C945F
:1035400089177F928F929F92AF92BF92CF92DF9214
:10355000EF92FF920F931F93CF93DF93EC01762EA0
:1035600049015A01670178018DE698E00E94550EE5
:10357000CE010E94550E82E698E00E94550E8CE323
:1035800098E0772011F082E498E00E94550E84E5DF
:1035900098E00E94550EC501B4010E94DB1687E435
:1035A00098E00E94550EC701B6010E94DB16DF911C
:1035B000CF911F910F91FF90EF90DF90CF90BF9030
:1035C000AF909F908F907F900C948917EF92FF920D
:1035D0000F931F93CF937C018B01C42F85EA97E053
:1035E0000E94550EC7010E94550E89E997E00E947E
:1035F000550EC8010E94550E8EE897E00E94550EA8
:1036000083E897E0CC2311F089E897E00E94550EFB
:10361000CF911F910F91FF90EF900C948917CF924B
:10362000DF92EF92FF920F931F93CF93DF938C0162
:10363000EB0169017A0189E697E00E94550EC80105
:103640000E94550E8DE597E00E94550ECE010E9416
:10365000550E82E597E00E94550EC701B6010E9403
:10366000DB16DF91CF911F910F91FF90EF90DF90CC
:10367000CF900C948917009711F00C948A1690E063
:1036800080E00895EF92FF920F931F93CF93DF9303
:10369000C0913604D0913704882321F0C0913804BA
:1036A000D0913904209709F472C0613009F469C0DF
:1036B00008F464C0623009F467C09EE6E92E9CE01D
:1036C000F92E811104C087E7E82E8CE0F82E8FEDEB
:1036D0009CE00E94550EC7010E94550E86ED9CE0AD
:1036E0000E94550E6C8170E090E080E04AE00E94FC
:1036F00097168BEB9CE00E94550EC8010E94550E58
:1037000086EA9CE00E94550E6A8D7B8D8C8D9D8D86
:1037100000910A0610910B0620910C0630910D06BF
:10372000601B710B820B930B0E94DB1684E99CE0FB
:103730000E94550E6E8D7F8D88A199A100910A0679
:1037400010910B0620910C0630910D06601B710B39
:10375000820B930B0E94DB1683E89CE00E94550EBF
:10376000CE010D960E943B1B80E89CE0DF91CF913B
:103770001F910F91FF90EF900C940E170AE01DE03F
:103780009CCF01E01DE099CF09EF1CE096CFDF91BF
:10379000CF911F910F91FF90EF9008959091120695
:1037A000911104C090911306992371F09091140621
:1037B00091110AC060911906882321F0813021F40B
:1037C00060911A060C94421B0895CF93DF93EC018D
:1037D0006E8385E097E00E94550E8F8198850E9448
:1037E0003B1B8CEF96E00E94550E8C81082E000C3E
:1037F000990B0E94DE1682EF96E00E94550E8E8194
:1038000081110AC080EE96E00E94550E8FEE96E080
:10381000DF91CF910C940E1789EE96E0F5CF60E022
:1038200080911302909114020E94E51B60E0809148
:103830001502909116020E94E51B60E0809117022C
:10384000909118020E94E51B60E08091190290910E
:103850001A020E94E51B60E080911B0290911C02FD
:103860000E94E51B60E080911D0290911E020E9463
:10387000E51B60E080911F02909120020E94E51BF1
:103880008091210290912202009719F060E00E943D
:10389000E51B60E080912302909124020C943C1778
:1038A0001F93CF93DF93EC01162F8E81882321F095
:1038B00060E0CE010E94E51B8D81813021F460E043
:1038C0008C810E94F3081C836D81812F0E94210945
:1038D0008D81813021F460E08C810E94F30888E3BF
:1038E00097E00E94550E8F8198850E943B1B8FE1C7
:1038F00097E00E94550E8C81082E000C990B0E94B7
:10390000DE16DF91CF911F910C948917CF93DF932F
:10391000EC010E94501C8C810E94CA0821E0892B76
:1039200009F420E02A878C810E94CA0821E0892BB3
:1039300009F420E02B878C810E94CA0821E0892BA2
:1039400009F420E02C871D8A1E8A1F8A188EDF91B9
:10395000CF9108959F92AF92BF92CF92DF92EF9254
:10396000FF920F931F93CF93DF938A01452B09F4A6
:1039700068C0E9016B016596FC016081CE010E947F
:10398000C410FC01BB24BA94892B09F0B5807601E0
:10399000E894F7F8AA24A3946701C00ED11E9924D5
:1039A0009394309709F44DC0AA2009F43FC0848154
:1039B000843069F0853049F1823079F5DF010D906E
:1039C0000020E9F71197CD018E1B9F0B07C00190D6
:1039D000F081E02D90E080E0309781F79F77E81646
:1039E000F90621F5D801AC15BD05E1F46B2DCE012A
:1039F000DF91CF911F910F91FF90EF90DF90CF90CB
:103A0000BF90AF909F900C94C410A081B181FD0134
:103A1000349613968C9190E0E2CF90E080E0F0E055
:103A2000E0E0DDCF9D9181919817E9F2A9246B2DFB
:103A3000CE010E94C410FC01892B09F4B2CFB580DD
:103A4000B0CF90E080E0DF91CF911F910F91FF9078
:103A5000EF90DF90CF90BF90AF909F900895FC01C2
:103A600020813181C9014A964281538164817581E7
:103A7000009759F0D9015E96EC91E03211F090E098
:103A800080E0009711F00C94AA1C90E080E008956B
:103A9000CF93DF93EB010E942F1D009741F0FC01B3
:103AA0002481263021F48081DF91CF91089588818F
:103AB000FBCFCF92DF92EF92FF92CF93DF9300D0B4
:103AC0001F921F92CDB7DEB70E942F1DDC01892BFC
:103AD00009F44BC01496EC911497E250ED3008F0C5
:103AE00044C0F0E08827E858F24E8F4F0C94E13F35
:103AF000A41DB51DB91DBC1D851DB51DB51DB51D6C
:103B0000951DB51D9A1DB51DC01D6C9170E090E00E
:103B100080E00F900F900F900F900F90DF91CF915A
:103B2000FF90EF90DF90CF9008956D917D918D91F2
:103B30009C91EFCF8D919D910D90BC91A02DB7FDE3
:103B400014C0BC01CD01E5CFCD010E94B3123A8370
:103B50004B835C836D83CA80DB80EC80FD802230E8
:103B600059F1233059F1213079F060E070E0CB0158
:103B7000D0CF8D919C91E9CF8D919C910496E5CF0A
:103B8000CD90DD90ED90FC9020E030E0A901C701E0
:103B9000B6010E94DC3F87FDE8CF2FEF3FEF4FE7F4
:103BA0005FE4C701B6010E94403D1816F4F2C70158
:103BB000B6010E94AD3FADCFF7FCD7CFC701B6012C
:103BC000A8CF8F929F92AF92BF92CF92DF92EF9247
:103BD000FF920F931F93CF93DF9300D000D0CDB708
:103BE000DEB749015A0167017801FB01019000200D
:103BF000E9F73197E61BF70B9A8389837C836B8304
:103C0000ED838F2F8F778E83CE0101960E942F1D1B
:103C10000097B9F0FC0124812A3041F02C3089F45E
:103C200080819181A281B381B7FD0BC0CE01019645
:103C30000E94591D86169706A806B90610F44B0176
:103C40005C01C501B401C616D706E806F90610F4F2
:103C5000C701B60126960FB6F894DEBF0FBECDBFE2
:103C6000DF91CF911F910F91FF90EF90DF90CF9058
:103C7000BF90AF909F908F900895CF92DF92EF9278
:103C8000FF92CF93DF9300D01F921F92CDB7DEB784
:103C90000E942F1DDC01892B09F448C01496EC9179
:103CA0001497E250ED3008F041C0F0E08827E45A64
:103CB000F14E8F4F0C94E13F991E961EAB1EAE1E27
:103CC000691E961E961E961E781E961E851E961EB0
:103CD000B21E6C9170E0CB010F900F900F900F907F
:103CE0000F90DF91CF91FF90EF90DF90CF900895EC
:103CF0008D919D910D90BC91A02D811520E892078A
:103D0000A105B10598F4BC01E6CF8D919D910D9070
:103D1000BC91A02D6C017D0120E8D20EE11CF11CAC
:103D2000C114D10421E0E206F10468F370E060E020
:103D3000D2CFCD010E94B3123A834B835C836D8353
:103D4000CA80DB80EC80FD80223049F1233099F17C
:103D5000213061F70BC08D919C91ECCF8D919C919E
:103D60000496E8CFCD90DD90ED90FC9020E030E01F
:103D700040E057ECC701B6010E94DC3F87FDD6CF7B
:103D800020E03EEF4FEF56E4C701B6010E94403DF0
:103D9000181664F2C701B6010E94A63F9CCFD70156
:103DA000C6019058AF4FBF4F0097A140B10508F032
:103DB000BDCFB60190CFC11480E8D806E104F1046C
:103DC000C0F3B4CF0F931F93CF93DF93EC018B011C
:103DD0000E942F1DFC01892B29F084818A3051F02B
:103DE0008C30C1F0F80180819181DF91CF911F91DA
:103DF0000F91089580819181A281B38181159048AE
:103E0000A105B10578F7CE01DF91CF911F910F91F8
:103E10000C943D1E80819181A281B3819058AF4F57
:103E2000BF4F0097A140B105E8F6EDCF4F925F92EA
:103E30006F927F92AF92BF92CF92DF92EF92FF92FA
:103E40000F931F93CF93DF9390911206911105C0AA
:103E500090911306992309F4EAC0909114069111E8
:103E6000E6C0823008F0E3C080931B0681110AC0CF
:103E7000E0913604F0913704309759F481E0809353
:103E80001906D5C0E0913804F0913904309709F44F
:103E900087C09089992309F480C0018912892389F8
:103EA0003489041715072607370708F482C08823CA
:103EB00009F4CCC082E080931A06B9C08F898F5F65
:103EC0008F8B9D89891708F4ADC08FA5843658F46F
:103ED0000E94E83CA30192010E94643E8FA56817EE
:103EE00010F01F8A9FC01F8A888D882351F09D89FA
:103EF0009501281B31099217130609F05CF4890F0C
:103F00008D8B8B89823008F08DC0B701A6010E948D
:103F1000431988C083E392E00E94550E6D8970E0DA
:103F200090E080E04AE00E94971680E392E00E94D1
:103F30000E17E7CFCD8EDE8EEF8EF8A273C08DA563
:103F4000811170C089A19AA1ABA1BCA1A701960162
:103F5000281B390B4A0B5B0BDA01C901B7FD62C0A4
:103F60008DA19EA1AFA1B8A58C199D09AE09BF096D
:103F7000181619061A061B060CF054C08FA58436B5
:103F800010F00DA7BECF0E94E83CA30192010E9451
:103F9000643E8FA56817A8F345C0882309F46ECF47
:103FA00081E089CF10921906E0913604F091370430
:103FB00008C08823B9F310921A06E0913804F091F2
:103FC0003904309781F000910E0610910F06209170
:103FD000100630911106040F151F261F371F018B85
:103FE000128B238B348B6A017B01182FC6E3D4E03C
:103FF000AA24AA94B12C94E6492E512C612C712C40
:1040000001E08C89882371F08EA5893011F0181396
:1040100009C08A89813009F48DCF08F44FCF8230EE
:1040200009F48DCF6E9634E0C237D30751F7DF9194
:10403000CF911F910F91FF90EF90DF90CF90BF90A5
:10404000AF907F906F905F904F90089582E017CF70
:10405000BF92CF92DF92EF92FF920F931F93CF9375
:10406000DF93EC01198D1F3F81F0612F45960E946F
:10407000C410FC018081898F309709F477C01482C5
:104080008FEF8583BF01812F76C06C0135E0C30EB1
:10409000D11CE880F9808F89882341F0C6010E94F5
:1040A0005611E62FF72F182F309749F71F89988D53
:1040B000191324C0103109F459C0110F6D897E897C
:1040C000D701ED91FC91B4E01B9FA0011124C6160D
:1040D000D70609F044C00190F081E02DBA01C70174
:1040E0001995009709F442C020E1F601DC01019026
:1040F0000D922A95E1F79E8B8D8B188F0D891E8965
:104100008F8921E0280F2F8BE4E08E9FC0011124BE
:10411000080F191F90E1B92E203111F48FE0B82E4D
:10412000F6E0BF9EB0011124D701ED91FC91019002
:10413000F081E02DC7011995F80193838283892BC3
:1041400009F4B12CD801BC9211961C92012B71F08C
:10415000C6010E945611E62FF72F182F8DCF04802D
:10416000F581E02DC7011995009729F681E08A8332
:1041700060E070E08FEFDF91CF911F910F91FF9082
:10418000EF90DF90CF90BF9008954F925F926F9223
:104190007F928F929F92AF92BF92CF92DF92EF92D7
:1041A000FF920F931F93CF93DF9300D01F921F9224
:1041B000CDB7DEB78C017B01B42E0E9434116C01A7
:1041C000892B09F048C0C8010E94F010863609F416
:1041D000A9C124F5873229F08B3561F1823209F0CB
:1041E000A8C1D80115961C921E92149712968D9113
:1041F0009C911397892B39F48D919C910E944F07C4
:10420000F80193838283C8010E9488146C01892B72
:1042100011F5B701C8010E9467151DC0843709F464
:1042200060C18B3709F47BC08E3609F082C168ED1E
:1042300072E060C180E4D70114968C931497E11466
:10424000F10421F08FEF8C9311968C93B1101AC06A
:1042500025E0C22ED12CC6010F900F900F900F9029
:104260000F90DF91CF911F910F91FF90EF90DF9012
:10427000CF90BF90AF909F908F907F906F905F9006
:104280004F900895F8011286C8010E9434110097DA
:1042900051F56DE5C8010E9400118111DCCFBA947F
:1042A000D8011B966D907C90C3010E942820A82EF7
:1042B0004B01672B21F494E0C92ED12CCCCFF70110
:1042C00061816F3F91F0C30145960E94C410DC01EB
:1042D0001596AC92F701A1824B2DB401C8010E9442
:1042E000C520009739F06C01B6CFD7018C93119699
:1042F0008C93F2CFC8010E9434110097A1F76DE5AD
:10430000C8010E9400118111A6CF6CE2C8010E9471
:1043100000118111C5CF83E0C82ED12C9CCF80E243
:10432000F7018483E114F10419F08FEF8083818316
:10433000BB2009F48DCFD8011A961C92C8010E94A7
:104340003411009781F66DE7C8010E9400118111B8
:1043500082CFBA94F8011582148282819381892BCD
:1043600049F4808191810E944F07D80113969C9354
:104370008E931297C8010E94F0108732F9F08232B2
:10438000E9F0C8010E94F010D82E0E94DE108823A8
:1043900011F2F80112866D2DC8010E945A14C8014D
:1043A0000E94F010D82E0E94DE108111F2CFD801A9
:1043B00012968D919C91892B41F47DCFC8010E946A
:1043C00088146C01892B09F046CFC8010E94341172
:1043D0006C01892B09F03FCF6AE3C8010E940011EC
:1043E000882309F498CFD8011296ED91FC91139788
:1043F00014968D919C911597E80FF91F14821496CD
:104400006D917C9115977F771B966D907C901C9792
:1044100012968D919C910496272F2F77BA2DB07804
:10442000AB2EA22AE894A7F89301AC017A2DC7011C
:104430000E94AA1C6C01009761F5C3010E9428200C
:10444000482E4B01672B09F436CFC3010E94282068
:10445000582E962FC92ED72EC114D10409F42BCF74
:10446000F4015582D70111966C916F3F71F0C30131
:1044700045960E94C410FC014582D70111965C92BA
:10448000B401C8010E94671507C0F701408251823C
:10449000F7CFB3010E9404164B2DB601C8010E944C
:1044A000C5206C01892B09F0D6CEC8010E943411B9
:1044B0006C01892B09F0CFCE6DE7C8010E94001175
:1044C0008111C9CE6CE2C8010E940011882309F451
:1044D00022CFC8010E9434116C01892B09F43ACF14
:1044E000BACE86E0D70114968C93149781E08C9312
:1044F0006DEC72E0C8010F900F900F900F900F902D
:10450000DF91CF911F910F91FF90EF90DF90CF90AF
:10451000BF90AF909F908F907F906F905F904F90E3
:104520000C94111186E0F7018483108262ED72E031
:10453000E1CFC8010E94F0104801FDE08F0E911CF0
:10454000B12C782CA92C803384F08A3384F43FE397
:10455000B316A9F0D8011A961C92B394F401819372
:104560004F01C8010E94F010EECF8B3281F393ED22
:10457000980F923060F3982F9F7D953441F30B0D87
:10458000111DD8011D961C92872D9A2D0E94B312E1
:104590003A834B835C836D838A819B81AC81BD812F
:1045A0002230A9F0233059F0213009F0B4CE2EE0AA
:1045B000F701248380839183A283B3834CCE2AE0C6
:1045C000F701248380839183A283B38344CE2CE0BC
:1045D000F7CF4F925F926F927F928F929F92AF929E
:1045E000BF92CF92DF92EF92FF920F931F93CF93E0
:1045F000DF93CDB7DEB7CF5FD1090FB6F894DEBF3A
:104600000FBECDBF6E012EECC20ED11C85E092E034
:10461000F60191838083128214821382C60105966B
:10462000968B858B178A84E0808F8FEF818F168E13
:10463000878F9E012F5F3F4F790110E000E00E94BD
:10464000B70960939D0370939E0380939F0390939B
:10465000A00385E993E00E94AE0D97FD02C00C9483
:10466000A2310E94B70980909D0390909E03A09074
:104670009F03B090A003681979098A099B0980906B
:10468000990390909A03A0909B03B0909C036815A7
:1046900079058A059B05E8F20F37110561F485E974
:1046A00093E00E94D00D892B31F085E993E00E94C0
:1046B000AE0D0A97A1F7E1E0F0E0EC0FFD1FE00F6F
:1046C000F11F10820530110578F045E050E06DEDE6
:1046D00072E0CE0101960E94EF41892B29F48FE30D
:1046E00099E00E940E1717C5F60160817181C6011D
:1046F00005960E948211F601128200811181F60155
:1047000083819481009751F0FC0120813181F60171
:1047100034832383B8010E94FA15F1CF168ECF5748
:10472000DF4FD982C882C158D040CD57DF4F1982A0
:104730001882C358D040CB57DF4F19821882C55812
:10474000D040C957DF4F1882C758D04021E030E031
:104750002C0F3D1FC857DF4F39832883C858D040DE
:10476000C557DF4F1882CB58D040C457DF4FD9828E
:10477000C882CC58D0404AE0B601665E7F4FCE0179
:104780008F579F4F0E94C5208C01892B69F4C65713
:10479000DF4F8881CA58D040882331F0F601868DDA
:1047A00083FF02C003E010E0CD57DF4F888199817D
:1047B000C358D040009751F0CF57DF4FE881F981BF
:1047C000C158D040608171810E94FA150115110510
:1047D000F1F088EC96E00E94550EF801EE0FFF1FF5
:1047E000EA59FA4F859194910E94550E85EC96E016
:1047F0000E940E1785E993E00E94D00D1816190645
:104800000CF089C485E993E00E94AE0DF3CFCF5739
:10481000DF4FD982C882C158D04083EE92E0CD5795
:10482000DF4F99838883C358D04083E0CB57DF4F55
:104830008883C558D040CA57DF4F1881C658D0402A
:1048400010781068CA57DF4F1883C658D040CE0181
:104850008F579F4F0E942F1D009709F45CC4FC01E5
:104860008481882309F457C41068CA57DF4F18831E
:10487000C658D040CE018F579F4F0E943D1E8C01DD
:10488000893DF1E09F0709F488C00CF035C18837F5
:1048900031E0930709F4EEC50CF084C087339140F2
:1048A00009F4C7C4083381E018070CF040C00D328A
:1048B00091E0190709F4DCC35CF560E00C32F1E02B
:1048C0001F0709F4D6C3073EF1E01F0709F4F8C635
:1048D0000CF061C30C3D110511F40C94612C0CF02B
:1048E0009BC20736110511F40C94FA2E0CF050C23D
:1048F0000536110511F40C94992C14F00C94EE2E3D
:104900000436110511F40C94572E82E795E0E9CE98
:104910000F3221E0120709F468C460E0063331E089
:10492000130789F68091190290911A02A6C30337E2
:1049300041E0140709F4A4C334F5093381E01807F2
:1049400011F60091190210911A020E94B709F8019C
:10495000618B728B838B948B85849684A784B088BB
:10496000DC01CB01880D991DAA1DBB1D858B968B83
:10497000A78BB08F81E080A34FE055E065E175E043
:104980008AE195E053C4043791E0190709F4DEC3C6
:104990000537E1E01E0709F096CF083D114009F404
:1049A0007DC0B9C38139F1E09F0709F462C4CCF539
:1049B0008E3731E0930709F43EC41CF58D379140E2
:1049C00009F081CFEE24EA94FE2C00E010E021E013
:1049D00030E040E050E067EE72E0C6010E94E11D69
:1049E0009B01AC01E0911902F0911A0221873287F4
:1049F000438754876DE275E087E395E00E940F1BC3
:104A00008AC3023881E0180709F449C560E000391B
:104A100091E0190709F057CF80911B0290911C0279
:104A20002CC38B39E1E09E0709F447C47CF4833939
:104A300021E0920709F41FC460E08A39914009F02F
:104A400042CF80911D0290911E0217C38D3941E023
:104A5000940709F454C4883D914009F034CF10EC18
:104A6000E12E17E2F12E09E010E021E030E040E015
:104A700050E061EF72E0C6010E94E11D9B01AC01B4
:104A8000E0911B02F0911C022187328743875487F3
:104A900061E075E08AE095E00E940F1BCF57DF4F81
:104AA000D982C882C158D04081EF92E0CD57DF4F04
:104AB00099838883C358D04088E0CB57DF4F8883E1
:104AC000C558D040CA57DF4F8881C658D04080783B
:104AD0008068CA57DF4F8883C658D040CE018F57B1
:104AE0009F4F0E94591D60933C0270933D0280933A
:104AF0003E0290933F0276C30F3982E0180709F413
:104B000034C40CF088C0053FE1E01E0709F419C465
:104B100074F5023E21E0120709F4D1C3C4F40C3D40
:104B200041E0140709F0CFCE15E3E12EF12C00E0AF
:104B300010E022E030E040E050E06AEF72E0C601B1
:104B40000E94E11D80911B0290911C02A5C4063EAB
:104B500051E0150709F4B6C460E0043F81E018078E
:104B600009F0B1CE80911F029091200286C20835D3
:104B700092E0190709F4F0C3C4F40034F2E01F070F
:104B800009F0A1CE15E3E12EF12C00E010E022E0C7
:104B900030E040E050E06AEF72E0C6010E94E11DA3
:104BA00080911F029091200277C4093522E01207FC
:104BB00009F4C9C30B3532E0130709F084CE009124
:104BC0002102109122020115110509F4A4C20E94CC
:104BD000B709AB01BC01F801458B568B678B708F11
:104BE00085859685A785B089840F951FA61FB71F59
:104BF000818F928FA38FB48FFF24F394F6A2C80104
:104C00000E947F0FF801F0A640EC54E066EC74E0DF
:104C10008BEC94E00BC3043843E0140709F428C478
:104C20000CF075C0043A82E0180709F45EC40CF079
:104C300054C0003AE2E01E0709F045CE10ECE12E28
:104C400017E2F12E09E010E021E030E040E050E012
:104C500061EF72E0C6010E94E11D9B01AC01E09191
:104C60002102F0912202309751F02587368747873D
:104C7000508B61EA74E08AEA94E00E940F1BCF57E0
:104C8000DF4FD982C882C158D04081EF92E0CD5722
:104C9000DF4F99838883C358D04088E0CB57DF4FDC
:104CA0008883C558D040CA57DF4F8881C658D04046
:104CB00080788068CA57DF4F8883C658D040CE01BD
:104CC0008F579F4F0E94591D60933802709339028D
:104CD00080933A0290933B0285C2093AF2E01F07A3
:104CE00009F4ACC30A3A22E0120709F0ECCDE091D6
:104CF0002102F0912202309709F40DC281E085A3D0
:104D000044E754E060E874E085E894E08FC2003D39
:104D100033E0130709F403C4BCF4053853E0150766
:104D200009F49EC3073883E0180709F0CCCD8091C1
:104D30002302909124020E946D0F4EE554E064E638
:104D400074E089E694E072C2043394E0190709F430
:104D50001CC40036E5E01E0709F0B5CD80911502B0
:104D600090911602892B09F4D6C115E3E12EF12C9E
:104D700000E010E022E030E040E050E06AEF72E056
:104D8000C6010E94E11D809115029091160216C481
:104D90000936110511F40C94B52F14F40C94182F46
:104DA0000C3C110509F0B1CDCF57DF4FD982C88235
:104DB000C158D0408CE093E0CD57DF4F9983888372
:104DC000C358D04088E0CB57DF4F8883C558D040C8
:104DD000CA57DF4F8881C658D04080788068CA574C
:104DE000DF4F8883C658D040CE018F579F4F0E9417
:104DF000591D4B015C0180920A0290920B02A09215
:104E00000C02B0920D020E94C711A50194016CE33F
:104E100076E088E496E0F2CD033831E0130709F438
:104E20004FC40CF058C0093751E0150709F448C4C5
:104E30000A3781E0180709F45CC00D3D110509F03F
:104E400064CDC251DF4F1882CE5ED040CF57DF4FC6
:104E5000D982C882C158D04085E193E0CD57DF4F59
:104E600099838883C358D04085E0CB57DF4F888330
:104E7000C558D040CA57DF4F8881C658D040807887
:104E80008068CA57DF4F8883C658D040BE01625140
:104E90007F4FCE018F579F4F0E94481D182F89E9E1
:104EA00096E0112311F083E896E090930902809335
:104EB000080285E0111186E080930E020E94C7115E
:104EC00040E056E0112311F045E056E06BE076E05B
:104ED00087E196E0ABC10D3D91E0190709F4F0C3FD
:104EE0000E3DE1E01E0729F00438F1E01F0709F04C
:104EF0000CCDC251DF4F19821882CE5ED040CF5701
:104F0000DF4FD982C882C158D04089E293E0CD57A3
:104F1000DF4F99838883C358D04086E0CB57DF4F5B
:104F20008883C558D040CA57DF4F8881C658D040C3
:104F300080788068CA57DF4F8883C658D040BE014A
:104F400062517F4FCE018F579F4F0E94E21E4C014E
:104F5000B12C8130910531F0BB24B394029711F04C
:104F600029E0B22E0A3751E0150711F00C94AD304C
:104F7000B09202020E94C711E1E0BE120C94BE3052
:104F8000B09201079401990C440B550B6DE975E043
:104F90008AEA95E033CD093324E0120709F436C4D8
:104FA00044F5083E43E0140709F4F6C384F4013ADB
:104FB00082E0180709F484C30C3A92E0190709F457
:104FC000E7C3083EE1E01E0709F09FCC92CF023311
:104FD000F4E01F0709F4E2C3083324E0120709F4E0
:104FE00026C4093E134009F090CC61E087E197E0C8
:104FF00044C0043145E0140709F421C49CF40D3485
:1050000084E0180711F40C94C630083994E01907AD
:1050100011F40C94CB300C34144009F076CC80E0C1
:105020000C94C7300E35F5E01F0709F40AC444F4A8
:1050300061E00531154009F068CC81EF96E01DC0B4
:10504000043645E0140709F434C40536154009F068
:105050005CCC81E08093010781EF96E0909304029D
:105060008093030241E067E676E082E796E0DCC3E6
:1050700061E080911702909118020E94E51B4BC0DD
:10508000EE24EA94FE2C00E010E021E030E040E065
:1050900050E067EE72E0C6010E94E11D9B01AC0189
:1050A000E0911702F09118022187328743875487D5
:1050B00068E575E082E695E00E940F1BCF57DF4F51
:1050C000D982C882C158D04087EE92E0CD57DF4FD9
:1050D00099838883C358D04089E0CB57DF4F8883BA
:1050E000C558D040CA57DF4F8881C658D040807815
:1050F0008068CA57DF4F8883C658D040CE018F578B
:105100009F4F0E94591D609340027093410280930B
:10511000420290934302C6010E946C16C150DF4FB9
:105120000FB6F894DEBF0FBECDBFDF91CF911F91B8
:105130000F91FF90EF90DF90CF90BF90AF909F9036
:105140008F907F906F905F904F90089510ECE12EBC
:1051500017E2F12E09E010E021E030E040E050E0FD
:1051600061EF72E0C6010E94E11D9B01AC01E0917C
:105170001702F0911802258736874787508B6BE41A
:1051800075E084E595E00E940F1BCF57DF4FD98271
:10519000C882C158D04081EF92E0CD57DF4F99834C
:1051A0008883C358D04088E0CB57DF4F8883C558E9
:1051B000D040CA57DF4F8881C658D0408078806879
:1051C000CA57DF4F8883C658D040CE018F579F4FB4
:1051D0000E94591D609344027093450280934602D9
:1051E000909347020E94C71196CF00911702109129
:1051F00018020E94B709F801618B728B838B948B24
:1052000085849684A784B088DC01CB01880D991D24
:10521000AA1DBB1D858B968BA78BB08F81E080A3C9
:105220004CE355E062E475E087E495E00E94611785
:1052300072CF61E077CB10ECE12E17E2F12E09E09E
:1052400010E021E030E040E050E061EF72E0C601A4
:105250000E94E11D9B01AC01E0911902F0911A023C
:10526000258736874787508B6FE175E088E295E0A8
:10527000C5CB61E0D1CB00911B0210911C020E94B2
:10528000B709F801658776878787908B8184928438
:10529000A384B484DC01CB01880D991DAA1DBB1D1C
:1052A000818B928BA38BB48B81E0858B41EF54E093
:1052B00067EF74E08CEF94E0B9CF61E0C2CB10EC03
:1052C000E12E17E2F12E09E010E021E030E040E0AD
:1052D00050E061EF72E0C6010E94E11D9B01AC014C
:1052E000E0911D02F0911E02218732874387548787
:1052F00062EE74E08BEE94E00E940F1B73CF00917E
:105300001D0210911E020E94B709F8016587768779
:105310008787908B81849284A384B484DC01CB0141
:10532000880D991DAA1DBB1D818B928BA38BB48BFD
:1053300081E0858B41ED54E067ED74E08CED94E005
:1053400075CF61E00FCC809121029091220261E043
:10535000009709F092CEDFCE809121029091220237
:1053600060E0009709F089CED6CEEE24EA94FE2CB8
:1053700000E010E021E030E040E050E067EE72E055
:10538000C6010E94E11D9B01AC01E0912102F09158
:105390002202309779F0211531054105510521F0A0
:1053A000218732874387548760EB74E08AEB94E06F
:1053B0000E940F1BCF57DF4FD982C882C158D040FF
:1053C00087EE92E0CD57DF4F99838883C358D04052
:1053D00089E0CB57DF4F8883C558D040CA57DF4F8D
:1053E0008881C658D04080788068CA57DF4F88834C
:1053F000C658D040CE018F579F4F0E942F1DDC0111
:10540000892B09F4EDC01496EC911497E250ED301D
:1054100008F0E6C0F0E08827EF5EF54D8F4F0C9462
:10542000E13FFE2AF02A292B2C2BE12AF02AF02A30
:10543000F02AE52AF02AF22AF02A302BE091210204
:10544000F0912202309749F015A24BE854E066E94A
:1054500074E08BE994E00E94611710926203C2CE5F
:1054600061E080912302909124020E943C1753CE68
:1054700060E0F7CF15E3E12EF12C00E010E022E030
:1054800030E040E050E06AEF72E0C6010E94E11DAA
:1054900080911702909118020E94501C3CCE15E397
:1054A000E12EF12C00E010E022E030E040E050E09E
:1054B0006AEF72E0C6010E94E11D8091190290918D
:1054C0001A02EACF15E3E12EF12C00E010E022E011
:1054D00030E040E050E06AEF72E0C6010E94E11D5A
:1054E00080911D0290911E02D7CF80912102909150
:1054F0002202892B09F40FCE15E3E12EF12C00E0F6
:1055000010E022E030E040E050E06AEF72E0C601D7
:105510000E94E11D8091210290912202BDCF15E3EE
:10552000E12EF12C00E010E022E030E040E050E01D
:105530006AEF72E0C6010E94E11DF62E009123027F
:1055400010912402F8018485882331F060E0808185
:105550000E94F308F8011486F801F08261E08F2DB3
:105560000E94210960E0F80180810E94F3088AE12D
:1055700094E00E94550EF8018081082E000C990BD2
:105580000E94DE160E948917C6CD80911302909169
:105590001402892B09F4BFCD15E3E12EF12C00E0B4
:1055A00010E022E030E040E050E06AEF72E0C60137
:1055B0000E94E11D80911302909114020E94861CAA
:1055C000AACD8C9080923702A6CD8D909D90AD9003
:1055D000BC902FEF82169104A104B10499F390F3CB
:1055E000812CF0CF8D909D90AD90BC903FEF8316B5
:1055F0009104A104B10431F328F3F2CFCD010E944C
:10560000B312C251DF4F2883CE5ED040C151DF4F6D
:105610003883CF5ED040C051DF4F4883C05FD04059
:10562000CF50DF4F5883C15FD040CE50DF4F6883EB
:10563000C25FD040C151DF4F88809980AA80BB8073
:10564000CF5ED040223051F1233089F1213041F634
:105650000BC08D919C91D3CF8D919C910496CFCF0F
:105660008D909D90AD90BC9020E030E0A901C501E7
:10567000B4010E94DC3F87FDB3CF20E030E04FE76C
:1056800053E4C501B4010E94403D18160CF4A8CFA4
:10569000C501B4010E94AD3F862E94CF4FEF841612
:1056A0009104A104B10409F008F48CCF99CF5FEF05
:1056B00085169104A104B10409F008F483CF90CFBA
:1056C000CF57DF4FD982C882C158D0408EEF92E0C9
:1056D000CD57DF4F99838883C358D04085E0CB579F
:1056E000DF4F8883C558D040CA57DF4F8881C658DE
:1056F000D04080788068CA57DF4F8883C658D04032
:10570000CE018F579F4F0E94591D6136EAEE7E07EA
:105710008105910520F060E67AEE80E090E0013AA4
:10572000F2E01F0771F460934F0670935006809368
:1057300051069093520680916203882309F4EBCCC2
:1057400051CD093721E0120749F460935E0370934D
:105750005F03809360039093610344CD033831E08D
:10576000130709F4D8CC0D3D114049F460935A0356
:1057700070935B0380935C0390935D0333CD6093E0
:1057800056037093570380935803909359032ACD7F
:1057900081E08093620326CD60E028CCCF57DF4FB5
:1057A000D982C882C158D04084E093E0CD57DF4F02
:1057B00099838883C358D04087E0CB57DF4F8883D5
:1057C000C558D040CA57DF4F8881C658D04080782E
:1057D0008068CA57DF4F8883C658D040CE018F57A4
:1057E0009F4F0E94591D4B015C0180920F029092C5
:1057F0001002A0921102B09212020E942D08A5017F
:10580000940164EB76E08CEB96E0F8C881E080933D
:10581000270787E197E0909304028093030241E019
:1058200060EA76E08BEA96E00E94E61A74CC109269
:10583000270740E06CE876E087E996E0F5CF60E086
:10584000FCCBCF57DF4FD982C882C158D04084E00B
:1058500093E0CD57DF4F99838883C358D04087E0CA
:10586000CB57DF4F8883C558D040CA57DF4F888158
:10587000C658D04080788068CA57DF4F8883C658A2
:10588000D040CE018F579F4F0E94591D4B015C01A4
:1058900080920F0290921002A0921102B092120216
:1058A0000E942D08A50194016BE776E083E896E05D
:1058B000A5C81092010740E063E576E08EE596E02A
:1058C000B3CFCF57DF4FD982C882C158D0408CE0C8
:1058D00093E0CD57DF4F99838883C358D04088E049
:1058E000CB57DF4F8883C558D040CA57DF4F8881D8
:1058F000C658D04080788068CA57DF4F8883C65822
:10590000D040CE018F579F4F0E94591D4B015C0123
:105910008092830390928403A0928503B0928603C1
:105920000E94C711A501940162E276E081E396E04E
:1059300065C80E94B7094B015C01809252039092A6
:105940005303A0925403B092550388E296E00E945C
:105950006D0F109213061092140680920A06909210
:105960000B06A0920C06B0920D0681E08093120601
:1059700088E494E00E94130F86E694E00E94130FDF
:1059800032E7E32E34E0F32E06E314E0F8018489D5
:10599000882341F08289813009F05AC1858E968E24
:1059A000A78EB0A2025E1F4FE016F10679F7E9E17B
:1059B000F5E01082709626E0E931F207D1F7E09128
:1059C0003604F0913704309721F0118A128A138A35
:1059D000148AE0913804F0913904309721F0118A4B
:1059E000128A138A148AE0914404F0914504309796
:1059F000A9F0158A168A178A108E118E128E138EB0
:105A0000148E158E168E178E10A211A212A213A23A
:105A100014A216A217A210A681E081A786ED93E03A
:105A20000E940E1787E893E00E94550E60910F02C6
:105A30007091100280911102909112020E94DB1667
:105A400085E793E00E94550E809103029091040235
:105A50008751974009F428C187EF92E00E94550EC4
:105A600081E693E00E94550E609183037091840358
:105A700080918503909186030E94DB160E9489170E
:105A8000E0904402F09045020091460210914702D6
:105A900020914002309141024091420250914302D4
:105AA0006091D6068DE593E00E94A11AE090BC06B5
:105AB000F090BD060091BE061091BF062091B80679
:105AC0003091B9064091BA065091BB066091B50677
:105AD00088E593E00E94A11A20913C0230913D029A
