:100000000C945B070C9489340C945E340C94333458
:100010000C9408340C94DD330C94B2330C94873375
:100020000C945C330C9474350C948C070C948C07F2
:100030000C948C070C94B4340C948C070C948C079F
:100040000C948C070C948C070C948C070C948C07E4
:100050000C948C070C948C070C948C070C94123322
:100060000C948C070C943E350C9414350C948C072E
:100070000C948C070C948C070C948C070C948C07B4
:100080000C948C070C948C070C948C070C948C07A4
:100090000C948C070C948C070C948C070C948C0794
:1000A0000C948C070C948C070C948C070C948C0784
:1000B0000C948C070C948C070C948C070C948C0774
:1000C0000C948C070C948C070C948C070C948C0764
:1000D0000C948C070C948C070C948C070C948C0754
:1000E0000C948C070C943E1E0C94DD1E0C9440095D
:1000F0000C940C330C942A090C944A1E0C942E096F
:100100000C94FD0E0C94FF0D0C9423360C943209C4
:100110000C9424090C94CC1E0C940F090C940F33EE
:100120000C94D61F0C94A01F0C946F0A0C944509D4
:100130000C945B1E0C94BD1E0C94C11F0C943B0EC2
:100140000C94D31F0C9446090C94911F0C940B092A
:100150000C94470A0C9420090C94E11E0C942C0E6C
:100160000C941A090C94C21E0C94E41E0C940509FC
:100170000C94601E0C94641E0C94DA1F0C945D0E9B
:100180000C944A090C943C090C9438090C94761C84
:100190000C943E200C9413090C94301E0C94BE1F3A
:1001A0000C944F0E0C9408330C945D1E0C94AD1FF0
:1001B0000C9417090C94AD1E0C94E81E0C94950E2B
:1001C000546F6F44656570004E6F4D656D6F727949
:1001D00000496E76616C6964496E70757400496E91
:1001E000636F6D706C657465496E70757400456DF4
:1001F000707479496E707574004F6B00CDCCCC3D36
:100200000AD7233C17B7D13877CC2B329595E62403
:100210001FB14F0A000020410000C84200401C46A8
:1002200020BCBE4CCA1B0E5AAEC59D74227D007BFD
:10023000226C6576656C223A22303031222C2264A1
:100240006576696365223A22434F4E54524F4C4CB7
:100250004552222C2264657363223A225052207444
:1002600068726573686F6C64206361707065642088
:10027000617420007D007B226C6576656C223A22D9
:10028000303036222C2264657363223A22436F6D2C
:100290006D616E64206E6F7420666F756E64222CC3
:1002A00022636F6D6D616E64223A007B226C65760D
:1002B000656C223A22303030222C226465766963E4
:1002C00065223A22534C4D222C22706172616D22BC
:1002D0003A2274696D657374616D705F70696E2226
:1002E0002C2276616C7565223A007B226C657665FE
:1002F0006C223A22303036222C226465766963659E
:10030000223A22534C4D222C226572726F72223A8D
:100310002270696E5F6E6F745F7063696E743022F5
:100320002C2276616C7565223A007B226C657665BD
:100330006C223A22303037222C226465766963655C
:10034000223A22434F4E54524F4C4C4552222C22BB
:100350006576656E74223A22454E44222C227469D9
:100360006D657374616D70223A004C48005248000C
:100370007B226C6576656C223A22303030222C224A
:100380007661726961626C655F696E7465727661CF
:100390006C223A004C455645525F4C48004C45563D
:1003A00045525F524800534C4D004D4943524F5304
:1003B000434F5045004C49434B004C41534552007C
:1003C00050554D50320050554D5000435545320068
:1003D00043554500227D002C226163746976655F78
:1003E0006C65766572223A22002C2274696D656F05
:1003F00075745F6D6F6465223A007B226C6576656B
:100400006C223A22303030222C2264657669636592
:10041000223A22434F4E54524F4C4C4552222C22EA
:10042000706172616469676D223A22564152494196
:10043000424C455F494E54455256414C222C227441
:10044000696D656F7574223A007B226C6576656C08
:10045000223A22303037222C226465766963652285
:100460003A22434F4E54524F4C4C4552222C226557
:1004700076656E74223A225354415254222C2274CF
:10048000696D657374616D70223A307D007B226CFA
:100490006576656C223A22303030222C22646576F3
:1004A000696365223A224D4943524F53434F5045A9
:1004B000222C22706172616D223A22747269676720
:1004C00065725F70696E222C2276616C7565223AC6
:1004D0000046495245440074657374004D494352C7
:1004E0004F53434F504500494E444550454E4445B7
:1004F0004E54006D6F6465004C4153455200434FAC
:100500004E54494E47454E54006D6F6465004C4152
:10051000534552006475726174696F6E004C4153AB
:100520004552006672657175656E6379004C415382
:1005300045520046495245440074657374004C416D
:100540005345520046495245440074657374005047
:10055000554D5032006475726174696F6E0050556C
:100560004D50320046495245440074657374005042
:10057000554D50006475726174696F6E0050554D31
:100580005000464952454400746573740043554514
:1005900032006475726174696F6E004355453200B4
:1005A0006672657175656E63790043554532004624
:1005B00049524544007465737400435545006475A1
:1005C000726174696F6E004355450066726571759E
:1005D000656E63790043554500F901EE01DE01D1F6
:1005E00001C801C0016475726174696F6E00534C7B
:1005F0004D006672657175656E637900534C4D00F0
:100600006C657665725F66696C74657200434F4E07
:1006100054524F4C4C45520073657373696F6E5F53
:1006200070617573656400434F4E54524F4C4C4596
:100630005200746573745F6D6F646500434F4E5470
:10064000524F4C4C45520046495245440074657324
:10065000745F636861696E00434F4E54524F4C4C57
:1006600045520050554D500050554D503200616379
:10067000746976655F70756D7000434F4E54524FCC
:100680004C4C45520076695F696E74657276616C98
:1006900000434F4E54524F4C4C4552007265696EA8
:1006A000666F72636564004C455645525F4C480066
:1006B0007265696E666F72636564004C455645529B
:1006C0005F4C480074696D656F75745F6D6F64652C
:1006D000004C455645525F4C480074696D656F7516
:1006E00074004C455645525F4C48007265696E6611
:1006F0006F72636564004C455645525F5248007204
:1007000065696E666F72636564004C455645525F5D
:1007100052480074696D656F75745F6D6F64650034
:100720004C455645525F52480074696D656F75744B
:10073000004C455645525F524800227D007B226C9A
:100740006576656C223A22303036222C226465733D
:1007500063223A220044495341524D4544004152DC
:100760004D454400227D002C2264657363223A22A9
:1007700000222C2270696E223A007B226C6576651D
:100780006C223A22303031222C226465766963650E
:10079000223A2200222C22706172616D223A22706C
:1007A000696E222C2276616C7565223A007B226C80
:1007B0006576656C223A22303030222C22646576D0
:1007C000696365223A2200222C2276616C756522CB
:1007D0003A00222C22706172616D223A22007B2243
:1007E0006C6576656C223A22303030222C226465AA
:1007F00076696365223A220066616C7365007472E3
:10080000756500222C2276616C7565223A00222CD7
:1008100022706172616D223A22007B226C657665DE
:100820006C223A22303030222C226465766963656E
:10083000223A2200227D00222C2276616C756522EC
:100840003A2200222C22706172616D223A22007BD2
:10085000226C6576656C223A22303030222C22647C
:100860006576696365223A220044495341524D45F9
:10087000440041524D454400227D002C22646573A2
:1008800063223A22007B226C6576656C223A223024
:100890003031222C22646576696365223A224D4903
:1008A00043524F53434F5045222C2270696E223AD7
:1008B0000066616C73650074727565002C22647546
:1008C000726174696F6E223A002C226672657175CE
:1008D000656E6379223A00222C2261726D65642272
:1008E0003A007B226C6576656C223A2230303022E9
:1008F0002C22646576696365223A220066616C7316
:10090000650074727565002C226475726174696F7C
:100910006E223A00222C2261726D6564223A007BBD
:10092000226C6576656C223A22303030222C2264AB
:100930006576696365223A220066616C73650074AE
:1009400072756500222C2261726D6564223A007B0B
:10095000226C6576656C223A22303030222C22647B
:100960006576696365223A220066616C736500747E
:100970007275650066616C73650074727565002C34
:10098000227265696E666F72636564223A00222C7A
:100990002261726D6564223A007B226C6576656C1B
:1009A000223A22303030222C226465766963652237
:1009B0003A2200027B226C6576656C223A22303046
:1009C00030222C22646576696365223A22434F4EB9
:1009D00054524F4C4C4552222C22736B6574636801
:1009E000223A2276692E696E6F222C227665727306
:1009F000696F6E223A2276332E342E302D62657462
:100A0000612E35222C22626175645F7261746522E9
:100A10003A3131353230302C227363686564756C3D
:100A200065223A225641524941424C455F494E5453
:100A3000455256414C227D002C22656E645F7469DC
:100A40006D657374616D70223A002C226576656E57
:100A500074223A224C49434B222C227374617274E3
:100A60005F74696D657374616D70223A00222C2287
:100A700070696E223A007B226C6576656C223A22A0
:100A8000303037222C22646576696365223A220071
:100A90002C22656E645F74696D657374616D70227C
:100AA0003A002C226576656E74223A225354494DE1
:100AB000222C2273746172745F74696D6573746142
:100AC0006D70223A007B226C6576656C223A22308A
:100AD0003037222C22646576696365223A224C41C4
:100AE000534552222C2270696E223A002C226D69E5
:100AF00073736564223A002C226576656E74223A1F
:100B00002254494D455354414D50222C2274696D55
:100B1000657374616D70223A007B226C6576656C3A
:100B2000223A22303038222C2264657669636522AD
:100B30003A224D4943524F53434F5045222C227085
:100B4000696E223A002C226576656E74223A225430
:100B5000494D455354414D50222C2274696D6573A3
:100B600074616D70223A007B226C6576656C223A66
:100B700022303039222C22646576696365223A225C
:100B8000534C4D222C2270696E223A000000210045
:100B9000240027002A002D0030003300010100004E
:100BA000040107010A0100002200250028002B0093
:100BB0002E003100340002010000050108010B0184
:100BC00000000A0B02090C0D0E08070304010000C7
:100BD0000000000000000000000000000000000015
:100BE00000000000000000000000000012111000D2
:100BF00000000000000000000000000000000000F5
:100C000000000000000044495341524D454400415A
:100C1000524D454400227D002C2264657363223AC4
:100C200022007B226C6576656C223A2230303122BC
:100C30002C22646576696365223A22534C4D222C3E
:100C40002270696E223A000102102020080810204C
:100C50004010204080020102010804020101020448
:100C60000810204080804020100804020180040207
:100C7000018040201008040201080402010102045E
:100C8000081020408001020408102040800000204D
:100C9000002300260029002C002F00320000010054
:100CA00000030106010901050505050705080808F7
:100CB00008020202020A0A080804040404010101ED
:100CC00001010101010303030303030303040707F5
:100CD000070C0C0C0C0C0C0C0C0202020206060693
:100CE00006060606060B0B0B0B0B0B0B0B4C4556A7
:100CF00045525F4C48004C455645525F52480022D1
:100D00007D002C226F7269656E746174696F6E224A
:100D10003A22002C22656E645F74696D657374619C
:100D20006D70223A00222C2273746172745F7469B0
:100D30006D657374616D70223A002C226576656E64
:100D400074223A225052455353222C22636C617311
:100D500073223A2200222C2270696E223A007B22F2
:100D60006C6576656C223A22303037222C2264651D
:100D700076696365223A220054494D454F55540027
:100D8000494E414354495645004143544956450054
:100D90002C227363686564756C65645F6174223AC4
:100DA000002C22746172676574223A007B226C65A4
:100DB00076656C223A22303036222C226572726FB0
:100DC000725F636F6465223A22455F50454E444925
:100DD0004E475F46554C4C222C2264657363223A81
:100DE0002250656E64696E6720616374696F6E205E
:100DF00071756575652066756C6C20E28094206164
:100E00006374696F6E2064726F70706564222C2247
:100E1000616374696F6E5F74797065223A00535430
:100E2000494D00494E465553494F4E00494E46558F
:100E300053494F4E00544F4E4500544F4E45004CC1
:100E4000415345520050554D505F320050554D5062
:100E50005F31004355455F32004355455F31002CFB
:100E600022656E645F74696D657374616D70223A9A
:100E700000222C2273746172745F74696D657374DF
:100E8000616D70223A002C226576656E74223A22DA
:100E900000222C2270696E223A007B226C657665F6
:100EA0006C223A22303037222C22646576696365E1
:100EB000223A2200233611241FBECFEFD1E2DEBF3B
:100EC000CDBF00E00CBF13E0A0E0B2E0E0EFF6E839
:100ED00000E00BBF02C007900D92A036B107D9F712
:100EE00027E0A0E6B3E001C01D92A935B207E1F703
:100EF00017E0CBE5D7E000E006C021970109802F7D
:100F0000FE010E944341CA35D10780E00807A9F7D6
:100F10000E94B1390C9476430C94000090912806FD
:100F2000292F092E000C330BF901E955F34FE491F9
:100F3000F0E0EE0FFF1FE357F34F459154915093AC
:100F40002A0640932906F901E95BF34FE491E09307
:100F50002B0640916B0086EF890F843080F4265079
:100F6000310981E001C0880F2A95EAF7842B80932C
:100F70006B0080916800816080936800089588E02C
:100F80009233A1F384E0933389F382E0943371F3D5
:100F90009E5381E0983050F72E533109E2CFCF9322
:100FA000DF93EC0188819981DC01ED91FC91019046
:100FB000F081E02D64E270E01995009741F02FE197
:100FC000FC01238321E02283DF91CF91089521E06A
:100FD0002A83FACF8F92AF92CF92EF920F93CF9353
:100FE000DF93CDB7DEB732E0309353041092540450
:100FF00031E03093550440936A0450936B0460933E
:101000006C0470936D0439E030936F0434E63093D0
:1010100070041092730435E03093D10410928F0461
:1010200033E030939004E092910410929204109275
:10103000930410929404109295044091F5065091F7
:10104000F6066091F7067091F80640939604509367
:101050009704609398047093990410929A0434E072
:1010600030939B04C0929C0410929D0410929E04A5
:1010700010929F041092A0044091D4065091D5067E
:101080006091D6067091D7064093A1045093A204B4
:101090006093A3047093A4041092A5040093A60483
:1010A000063009F08A2C8092A7041092A8041092AE
:1010B000A9041092AA041092AB04FC0181859285C8
:1010C000A385B4858093AC049093AD04A093AE0443
:1010D000B093AF041092B00487E08093B10489E02C
:1010E0008093B2041092B3041092B4041092B50429
:1010F0001092B604409163065091640660916506B3
:10110000709166064093B7045093B8046093B90495
:101110007093BA0491E09093BB042093BC04809335
:10112000BD041092BE041092BF041092C00410922D
:10113000C1048091190690911A06A0911B06B091E6
:101140001C068093C2049093C304A093C404B0937C
:10115000C504DF91CF910F91EF90CF90AF908F901A
:1011600008956093190670931A0680931B06909356
:101170001C063091D104EFE8F4E020E023130DC009
:1011800030911405E2EDF4E020E02317B1F0408146
:10119000413071F02F5F3B96F8CF4081413019F01C
:1011A0002F5F3B96EBCF6783708781879287F8CF5D
:1011B0006783708781879287EDCF0895E4E2F5E039
:1011C0001082709686E0E432F807D1F708958150D6
:1011D000823108F05AC0E82FF0E08827ED50F74F31
:1011E0008F4F0C9443411309170905090B090F0987
:1011F00045091A09200924092A092E093209380942
:101200003C094509400946094A09809180008F77C9
:10121000809380000895809180008F7DF9CF809128
:101220008000877FF5CF84B58F7784BD089584B51E
:101230008F7DFBCF8091B0008F778093B0000895B1
:101240008091B0008F7DF9CF809190008F7780934F
:1012500090000895809190008F7DF9CF809190004B
:10126000877FF5CF8091A0008F778093A0000895AD
:101270008091A0008F7DF9CF8091A000877FF5CF6E
:10128000809120018F778093200108958091200123
:101290008F7DF9CF80912001877FF5CFCF93DF93AA
:1012A000282F30E0F901E054F44F8491F901E95B13
:1012B000F34FD491F901E955F34FC491CC23A1F038
:1012C00081110E94E708EC2FF0E0EE0FFF1FE357BB
:1012D000F34FA591B491EC91ED2381E090E009F4F6
:1012E00080E0DF91CF91089580E090E0FACF1F93E6
:1012F000CF93DF93282F30E0F901E054F44F84912D
:10130000F901E95BF34FD491F901E955F34FC49129
:10131000CC23A9F0162F81110E94E708EC2FF0E0F2
:10132000EE0FFF1FEA55F44FA591B4918FB7F894D3
:10133000EC91111108C0D095DE23DC938FBFDF91B3
:10134000CF911F910895DE2BF8CFCF93DF9390E0DC
:10135000FC01E95BF34F24918955934FFC01849183
:101360008823C9F090E0880F991FFC01E457F44FDF
:10137000A591B491FC01EA55F44FC591D491611146
:101380000DC09FB7F8948C91209582238C9388810F
:10139000282328839FBFDF91CF910895623051F4B5
:1013A0009FB7F8943C91822F809583238C93E8819A
:1013B0002E2BEFCF8FB7F894EC912E2B2C938FBF61
:1013C000EACF3FB7F89480919C0390919D03A09140
:1013D0009E03B0919F0326B5A89B05C02F3F19F02F
:1013E0000196A11DB11D3FBFBA2FA92F982F8827A5
:1013F000BC01CD01620F711D811D911D42E0660F80
:10140000771F881F991F4A95D1F708958F929F9251
:10141000AF92BF92CF92DF92EF92FF920E94E109CA
:101420004B015C0184E6C82ED12CE12CF12C0E94EA
:10143000E109681979098A099B09683E73408105A9
:101440009105A8F321E0C21AD108E108F10888EE5D
:10145000880E83E0981EA11CB11CC114D104E104C4
:10146000F10429F7FF90EF90DF90CF90BF90AF90FD
:101470009F908F9008952FB7F89460919803709182
:10148000990380919A0390919B032FBF08950F9326
:101490001F93CF93DF93C0913F04D09140042097D6
:1014A000C9F08A81882331F08B818F3F19F08B81BD
:1014B0008F5F8B8381E08A830E943B0A09851A85AE
:1014C0002B853C85601B710B820B930B6D837E8398
:1014D0008F839887DF91CF911F910F910895089581
:1014E0009091080289130DC0E3EBF9E0E4919FEFBE
:1014F00090930802E230E1F038F4EE2381F0E1301D
:1015000089F060E00C947709E43049F110F1E5309E
:10151000C1F7909173009D7F90937300F2CF10926A
:101520006E00EFCF90916F009D7F90936F00E9CF99
:10153000909170009D7F9093700091E09093B00027
:101540009091B100987F94609093B1001092B30095
:10155000D8CF909171009D7F90937100D2CF9091E0
:1015600072009D7F90937200CCCF4F925F926F92EA
:101570007F928F929F92AF92BF92CF92DF92EF9223
:10158000FF920F931F93CF93DF9300D01F921F9270
:10159000CDB7DEB78B0129013A0190910802891776
:1015A000C9F09F3F09F491C00F900F900F900F90DA
:1015B0000F90DF91CF911F910F91FF90EF90DF90EF
:1015C000CF90BF90AF909F908F907F906F905F90E3
:1015D0004F900895E3EBF9E024912D8327FDE4CFAC
:1015E00061E00E94A5092D81222321F08D818230A6
:1015F00009F005C24801B12CA12C60E072E18AE734
:1016000090E0A50198010E94C63F29833A834B834D
:101610005C8369017A0191E0C91AD108E108F108F7
:101620002FEFC216D104E104F10409F00CF4B6C1A5
:1016300060E472E48FE090E0A50198010E94C63F4B
:1016400069017A0181E0C81AD108E108F1089D8199
:10165000923009F026C182E02FEFC216D104E104D6
:10166000F10409F00CF46CC160E970ED83E090E0E6
:10167000A50198010E94C63F69017A0181E0C81A5C
:10168000D108E108F10883E09FEFC916D104E10415
:10169000F10409F00CF454C168E478EE81E090E0C4
:1016A000A50198010E94C63F69017A0181E0C81A2C
:1016B000D108E108F1089FEFC916D104E104F10453
:1016C00011F00CF044C184E03BC180930802E3EBCD
:1016D000F9E094919D839F3F09F466CF923009F41D
:1016E00074C058F4992399F1913009F44CC097FDD6
:1016F0005BCF61E00E94A50979CF2D81243009F4E8
:10170000AEC008F488C0253091F7109220011092E5
:1017100021019091210198609093210190912101E4
:10172000916090932101282F30E0F901E955F34FA2
:10173000E491F0E0EE0FFF1FEA55F44F459154910C
:10174000F901E95BF34FE491E093710349CF14BCD5
:1017500015BC94B5926094BD95B5916095BD282F48
:1017600030E0F901E955F34FE491F0E0EE0FFF1F8F
:10177000EA55F44F45915491F901E95BF34FE49137
:10178000E09375032DCF109280001092810090910C
:101790008100986090938100909181009160909376
:1017A0008100282F30E0F901E955F34FE491F0E092
:1017B000EE0FFF1FEA55F44F45915491F901E95B93
:1017C000F34FE491E09374030BCF1092B0001092AA
:1017D000B1009091B00092609093B0009091B100F0
:1017E00091609093B100282F30E0F901E955F34F53
:1017F000E491F0E0EE0FFF1FEA55F44F459154914C
:1018000050938B0340938A03F901E95BF34FE49112
:10181000E0938C03E5CE109290001092910090918D
:1018200091009860909391009091910091609093B5
:101830009100282F30E0F901E955F34FE491F0E0F1
:10184000EE0FFF1FEA55F44F45915491F901E95B02
:10185000F34FE491E093730393E09D83C1CE109224
:10186000A0001092A1009091A10098609093A10017
:101870009091A10091609093A100282F30E0F90190
:10188000E955F34FE491F0E0EE0FFF1FEA55F44FF6
:1018900045915491F901E95BF34FE491E0937203B0
:1018A0009FCE2FEFC216D104E104F10409F00CF42D
:1018B000A4C068E478EE81E090E0A50198010E9460
:1018C000C63F69017A0181E0C81AD108E108F10830
:1018D0009D81992309F489C19FEFC916D104E104C0
:1018E000F10409F00CF4EFCE62E17AE780E090E0D9
:1018F000A50194010E94C63F69017A0181E0C81ADE
:10190000D108E108F1089D81992309F453C186E0CB
:101910009FEFC916D104E104F10491F088F0C98069
:10192000DA80EB80FC808AE0F594E794D794C79442
:101930008A95D1F781E0C81AD108E108F10887E05B
:101940009091B100987F892B8093B1002FC064E201
:1019500074EF80E090E0A50194010E94C63F690108
:101960007A0181E0C81AD108E108F10885E09FEF0B
:10197000C916D104E104F10419F310F362E17AE726
:1019800080E090E0A50194010E94C63F69017A01C0
:1019900081E0C81AD108E108F108B9CF81E02D81B2
:1019A0002111CECF95B5987F892B85BD2FEF3FEFC5
:1019B000A901411451046104710409F049C09D81D9
:1019C000923009F4E7C00CF0CEC0992309F4D3C0DB
:1019D000913009F0E9CDD0928900C092880020931F
:1019E0008203309383034093840350938503809153
:1019F0006F00826080936F00D7CD82E0D0CFB12C92
:101A0000A12C60E072E18AE790E0A50198010E94B4
:101A1000C63F69017A0181E0C81AD108E108F108DE
:101A2000C114D10491E0E906F10404F591E02D819F
:101A3000213069F580918100887F892B8093810016
:101A40002FEF3FEFA901411451046104710419F211
:101A5000D801AA0FBB1FA30192010E94E53F28EE07
:101A600033E040E050E00E94F83FA9CF68E478EE10
:101A700081E090E0A50198010E94C63F69017A01CA
:101A800081E0C81AD108E108F10893E0D0CF8D8138
:101A9000833001F580919100887F892B809391009C
:101AA0002FEF3FEFA901411451046104710481F645
:101AB000D0929900C092980020937E0330937F03C8
:101AC00040938003509381038091710082608093E2
:101AD00071006ACD2D81243009F58091A100887FA5
:101AE000892B8093A1002FEF3FEFA90141145104EE
:101AF0006104710409F0ACCFD092A900C092A80093
:101B000020937A0330937B0340937C0350937D03AF
:101B10008091720082608093720046CD8D81853005
:101B200009F044CF80912101887F892B8093210186
:101B30002FEF3FEFA901411451046104710409F032
:101B400087CFD0922901C092280120937603309349
:101B500077034093780350937903809173008260F8
:101B60008093730021CD8D81843031F20CF4A0CFAD
:101B7000853039F319CDC7BC209386033093870392
:101B8000409388035093890380916E008260809314
:101B90006E000ACDC092B30020938D0330938E0364
:101BA00040938F03509390038091700082608093E4
:101BB0007000FACC84E02FEFC216D104E104F104E6
:101BC00009F008F4EFCEC980DA80EB80FC809AE05F
:101BD000F594E794D794C7949A95D1F791E0C91AF0
:101BE000D108E108F10885E0DDCE83E02FEFC216D1
:101BF000D104E104F10411F00CF076CED3CEAF9213
:101C0000BF92CF92DF92EF92FF920F931F93CF93E9
:101C1000DF936C017B018B01040F151FEB015E014B
:101C2000AE18BF08C017D10759F06991D601ED91E0
:101C3000FC910190F081E02DC6011995892B79F76F
:101C4000C501DF91CF911F910F91FF90EF90DF9031
:101C5000CF90BF90AF900895FC01538D448D252FF8
:101C600030E0842F90E0821B930B541710F0CF9636
:101C7000089501970895FC01918D828D981761F068
:101C8000A28DAE0FBF2FB11D5D968C91928D9F5F7F
:101C90009F73928F90E008958FEF9FEF0895FC015E
:101CA000918D828D981731F0828DE80FF11D858D11
:101CB00090E008958FEF9FEF0895FC01918D228DA4
:101CC000892F90E0805C9F4F821B91098F73992729
:101CD000089580EA93E00E945D0E21E0892B09F4CB
:101CE00020E0822F0895FC01A48DA80FB92FB11D0B
:101CF000A35ABF4F2C91848D90E001968F73992742
:101D0000848FA689B7892C93A089B1898C9183701F
:101D100080648C93938D848D981306C00288F38918
:101D2000E02D80818F7D80830895EF92FF920F9345
:101D30001F93CF93DF93EC0181E0888F9B8D8C8D77
:101D400098131AC0E889F989808185FF15C09FB76B
:101D5000F894EE89FF896083E889F989808183702E
:101D6000806480839FBF81E090E0DF91CF911F91DD
:101D70000F91FF90EF900895F62E0B8D10E00F5FFE
:101D80001F4F0F731127E02E8C8D8E110CC00FB6D4
:101D900007FCFACFE889F989808185FFF5CFCE016C
:101DA0000E94730EF1CFEB8DEC0FFD2FF11DE35A66
:101DB000FF4FF0829FB7F8940B8FEA89FB898081EF
:101DC0008062CFCF0F931F93CF93DF938C01D0E02E
:101DD000C0E0F801EC0FFD1F6491662341F080EA3A
:101DE00093E00E94950E892B11F02196F2CFCE013F
:101DF000DF91CF911F910F910895CF93DF93EC0165
:101E0000888D8823B9F0AA89BB89E889F9898C91E2
:101E100085FD03C0808186FD0DC00FB607FCF7CF9E
:101E20008C9185FFF2CF808185FFEDCFCE010E949E
:101E3000730EE9CFDF91CF91089580E090E0892B78
:101E400029F00E94690E81110E94000080E090E05C
:101E5000892B49F080E090E0892B29F00E94000056
:101E600081110E94000080E090E0892B49F080E021
:101E700090E0892B29F00E94000081110E9400004F
:101E800080E090E0892B49F080E090E0892B29F0F8
:101E90000E94000081110C9400000895CF92DF92FF
:101EA000EF92FF921F93CF93DF93EC016A017B01C6
:101EB0008C810E944E0911E0892B09F410E08B857A
:101EC000181721F0CD8ADE8AEF8AF88E8D899E89D7
:101ED000AF89B88DB701A601481B590B6A0B7B0B64
:101EE000898D90E0B0E0A0E084179507A607B707BA
:101EF00098F48C85181781F01C878A851817A9F02B
:101F0000CA8EDB8EEC8EFD8EEAA1FBA1309721F00C
:101F1000B701A601898519951B87DF91CF911F9184
:101F2000FF90EF90DF90CF900895CE8EDF8EE8A2E5
:101F3000F9A2ECA1FDA1309779F389851995ECCF31
:101F4000FC01158213861486158616861786108A5C
:101F5000118A128A138A148A158A168A138E868128
:101F6000882311F0848183830895CF92DF92EF92CA
:101F7000FF920F931F93CF93DF93EC018E8181111A
:101F800003C08D89882369F18C810D851E852F857D
:101F900038896A017B01C01AD10AE20AF30A970163
:101FA000860137FD18C009891A892B893C89401B95
:101FB000510B620B730B14161506160617065CF010
:101FC00061E0DF91CF911F910F91FF90EF90DF9033
:101FD000CF900C94770960E00E9477098D89811178
:101FE0001D8ADF91CF911F910F91FF90EF90DF90AD
:101FF000CF900895CF93DF93EC0161E088810E9438
:10200000770981E08D870E943B0A6E877F87888BE6
:10201000998BDF91CF910895CF92DF92EF92FF924B
:10202000CF93DF93EC0189859A85AB85BC850097BA
:10203000A105B10581F44D8F5E8F6F8F78A349A301
:102040005AA36BA37CA31FA2DF91CF91FF90EF90C7
:10205000DF90CF9008956A017B01CD8EDE8EEF8EEA
:10206000F8A2BC01CD010E94A73E9B01AC0160E03B
:1020700070E080E89FE30E94964020E030E040E07E
:102080005FE30E94083F20E030E04AE754E40E940A
:10209000083F20E030E040E05FE30E942A400E94D9
:1020A0000F41C60ED71EE81EF91EC9A2DAA2EBA286
:1020B000FCA28FA191E089278FA3C6CFCF92DF9298
:1020C000EF92FF92CF93DF93EC016A017B018D8940
:1020D0009E89AF89B88DAB019601281B390B4A0B3D
:1020E0005B0BDA01C901B7FD49C0898D9A8DAB8DB3
:1020F000BC8DAB019601281B390B4A0B5B0BDA0137
:10210000C901181619061A061B06C4F18EA18823E8
:10211000A9F189859A85AB85BC850197A105B10593
:1021200051F461E08C81DF91CF91FF90EF90DF90CF
:10213000CF900C94770989A19AA1ABA1BCA1AB0166
:102140009601281B390B4A0B5B0BDA01C901B7FD5D
:1021500004C0A601CE010E940C108C819FA199237E
:1021600011F061E0E0CF60E00E9477091FA2DF91EB
:10217000CF91FF90EF90DF90CF90089560E08C8139
:102180000E9477091FA2898D9A8DAB8DBC8DC81ACC
:10219000D90AEA0AFB0A8EA1882331F01C141D0417
:1021A0001E041F040CF41EA288A5882301F31C142E
:1021B0001D041E041F04DCF618A6D9CF8F929F922F
:1021C000AF92BF92CF92DF92EF92FF920F931F9345
:1021D000CF93DF93EC018E81811104C088A1882305
:1021E00009F445C07B0189899A89AB89BC894A0178
:1021F0005B01881A990AAA0ABB0AC501B40197FDB6
:1022000053C00D891E892F89388D4A015701801AC4
:10221000910AA20AB30A950184011016110612064A
:1022200013060CF441C02A8D2223A9F10C8D1D8DBB
:102230002E8D3F8D200F311F2115310511F421E026
:1022400030E0FB8C50E040E00E94F83F60177107DF
:10225000D8F4F1100AC069857A8520E030E0A90140
:102260008C810E94B50A81E08B8F81E0898FDF919C
:10227000CF911F910F91FF90EF90DF90CF90BF9083
:10228000AF909F908F900895FF2079F38C810E94EA
:10229000700A1B8EEACF69857A8520E030E0A901BB
:1022A0008C810E94B50AE1CF898D882301F38C814E
:1022B0000E94700A198E1B8E88A18823C1F218A271
:1022C000D6CF6F3FA9F0E62FE295EF7044E0E49F90
:1022D00090011124DC01ED91FC91E20FF31F6F706E
:1022E00082819381B6E06B9F800D911D112408952A
:1022F00090E080E00895982F80336CF08A3324F0CA
:102300008F3524F08B3724F481E0089581341CF05C
:1023100081E09B350CF080E00895FC0182858111FD
:102320000AC0A781B085CD010196908787838C91E3
:10233000818781E08287818508951F93CF93DF9302
:10234000EC01162F0E948D11811306C01A8681E0C0
:10235000DF91CF911F91089580E0FACF0F931F93E3
:10236000CF93DF938C01EB018991882369F0C80139
:102370000E948D11882379F0FE0131979081981386
:102380000DC0F8011286F0CF90E080E0DF91CF9190
:102390001F910F91089582E090E0F8CF83E090E0E4
:1023A000F5CFCF93DF93EC01CE010E948D118B30DE
:1023B0004CF489305CF4882359F081E08E8390E0FE
:1023C00080E00BC08D3011F08032B9F71A86ECCF67
:1023D0008E81811105C081E090E0DF91CF91089559
:1023E00082E090E0FACFDC0152969C915297915096
:1023F00084E0989F900111245096ED91FC91E20F9A
:10240000F31F228133812115310579F041818081CB
:10241000481758F481E0840F818386E0489F200D9F
:10242000311D11242115310521F460E070E08FEF9A
:102430000895B901892F8295807F840F0895DF92D6
:10244000EF92FF920F931F93CF93DF93EC017B01E9
:10245000D12C688979898A89D816E0F484E0D89EDD
:1024600080011124060F171FD80112966D917C91DF
:102470006115710541F0D701ED91FC910280F38166
:10248000E02DC7011995F801138212821082118282
:10249000D394DFCF1A8A8FEF8C8BC617D70761F0E2
:1024A000D701ED91FC910280F381E02DC7011995D0
:1024B000D98BC88B84E08B8BDF91CF911F910F91CB
:1024C000FF90EF90DF9008958F92AF92CF92DF92BE
:1024D000EF92FF920F931F93CF93DF93C091090266
:1024E000D0910A0221E080910402909105028F525E
:1024F000974009F420E040910B0250910C0260914A
:102500000D0270910E0280900002A0900102C09016
:102510000202E090030200910F02CE010E94EA073E
:10252000E091D104E43008F46CC0CB59D64009F0F6
:10253000BBC0C0906403D0906503E0906603F09048
:10254000670380916C0390916D03A0916E03B0912D
:102550006F030091920410919304209194043091A0
:102560009504080F191F2A1F3B1F00939204109314
:102570009304209394043093950440919D045091CA
:102580009E0460919F047091A004840F951FA61F64
:10259000B71F80939D0490939E04A0939F04B093D3
:1025A000A0048091A8049091A904A091AA04B091DC
:1025B000AB048C0D9D1DAE1DBF1D8093A804909390
:1025C000A904A093AA04B093AB048091B3049091A2
:1025D000B404A091B504B091B6044091670650913F
:1025E00068066091690670916A06840F951FA61FA0
:1025F000B71F8093B3049093B404A093B504B09331
:10260000B60480917003882309F457C0E43018F0B1
:1026100083E08093B0041092710481E0809372048F
:1026200080937304809374048093750410927604ED
:102630001092770410928D0494E690938E04809308
:1026400014051092D20487E08093D30489E080932C
:10265000D4048091670690916806A0916906B091B4
:102660006A068093D5049093D604A093D704B093C0
:10267000D8048091630690916406A0916506B0919C
:1026800066068093D9049093DA04A093DB04B09398
:10269000DC04DF91CF911F910F91FF90EF90DF90BD
:1026A000CF90AF908F900895C0906803D090690349
:1026B000E0906A03F0906B0344CF10927304E9CF6B
:1026C0004F925F926F927F928F929F92AF92BF9242
:1026D000CF92DF92EF92FF920F931F93CF93DF93EE
:1026E00000D01F921F92CDB7DEB7DC012C912B32A8
:1026F000E1F12D32D9F50196EE24E394FC0120811D
:1027000030ED320F3A3010F02E3291F58C0160E04E
:1027100070E0CB01F801219130ED832E820E39E07B
:10272000381508F444C06A3949E97407840749E157
:10273000940708F046C0AAE0B0E09B01AC010E94FB
:10274000E53F912CB12CA12C2401350140945094EB
:1027500060947094461657066806790690F1680DE5
:10276000791D8A1D9B1D8F01D5CF0196E12CC6CF07
:10277000198229813A814B815C816D8170E080E012
:1027800090E00F900F900F900F900F90DF91CF91EE
:102790001F910F91FF90EF90DF90CF90BF90AF907F
:1027A0009F908F907F906F905F904F900895211130
:1027B00008C0EE2051F161307105810550E89507A0
:1027C000A0F0F12CBAE08B2E912CA12CB12C61152C
:1027D000710530E883079105F8F0A50194010E9486
:1027E000F83FCA01B901F394F2CF22E029839B019B
:1027F000AC0188279927DC01821B930BA40BB50B36
:102800008A839B83AC83BD83B4CF23E029836A830F
:102810007B838C839D83ADCFF801D8012D918D01F1
:1028200030ED320F3A3010F4F394F6CF2E3201F53A
:102830008F010F5F1F4FF8010F5F1F4F2081A0ED29
:10284000DA2ED20EB9E0BD1598F06C3CECEC7E07A8
:10285000ECE08E07910578F7AAE0B0E09B01AC01AF
:102860000E94E53F6D0D711D811D911DFA94E3CF0E
:1028700020812F7D10E000E0253409F050C0218137
:102880002D32B1F53296CC24C394DF0110E000E084
:102890002F2D0F2C000C330BEAE0BE2EFD01DD9036
:1028A00040ED4D0D4A30B0F5B09EA001B19E500DE7
:1028B00011240D2DDD0C110B00531109040F151FF0
:1028C000A801420F531F4732510544F3CC20B9F001
:1028D00080E090E0A0E0B0E8E11003C080E090E08C
:1028E000DC0121E029838A839B83AC83BD8341CFB4
:1028F0002B3219F03196C12CC8CF3296FCCF80E034
:1029000090E0A0E8BFEFE110ECCF80E090E0A0E81D
:10291000BFE7E7CFCC2019F011950195110920816F
:10292000211126CF0F0D111DF7FC1A950E94A73E0D
:1029300044E1A42E42E0B42E101611063CF011958D
:10294000019511095CEFA52E51E0B52ED12CC12CBB
:1029500001151105E9F0F6E0CF16D104A9F000FF4A
:102960000DC0F601EE0FFF1FEE0FFF1FEA0DFB1D5E
:1029700025913591459154910E94083F15950795F1
:102980002FEFC21AD20AE4CF60E070E080EC9FE73C
:10299000E110905821E029836A837B838C839D8397
:1029A000E8CECF92DF92EF92FF920F931F93CF93D7
:1029B000DF937C016B018A01FC01C081D1814F3F13
:1029C000510509F0B0F4E881F9810480F581E02D2A
:1029D0004B5F5F4FCE011995009759F0FC010383BF
:1029E000DF91CF911F910F91FF90EF90DF90CF90EB
:1029F0000895E881F9810280F381E02DB601CE01CE
:102A0000199581E0F701828390E080E0E9CF1F9380
:102A1000CF93DF93EC01162F6A817B8161157105DD
:102A200089F04C815D81FB0183818417150651F487
:102A3000440F551F4F5F5F4F888199810E94D114C9
:102A40009B838A838A819B81009759F02C813D81E9
:102A5000A9014F5F5F4F5D834C83820F931FFC0181
:102A60001483DF91CF911F9108959F92AF92BF92EF
:102A7000CF92DF92EF92FF920F931F93CF93DF934A
:102A800000D01F921F92CDB7DEB78C010E948D112E
:102A9000D82EF8011286F12CE12C60EFC62EC80169
:102AA0000E948D11F8011286D81609F4B3C0811165
:102AB00013C082E090E00F900F900F900F900F9056
:102AC000DF91CF911F910F91FF90EF90DF90CF900A
:102AD000BF90AF909F9008958C3509F099C0C801C0
:102AE0000E948D11882329F3EBEAF2E0853709F083
:102AF00083C0F801128654E0952EB12CA12CC80198
:102B00000E948D118823A9F2813434F480538031DE
:102B100030F083E090E0CFCF8F7D8753F8CF44E053
:102B2000AA0CBB1C4A95E1F7A82AF80112869A94D0
:102B30009110E5CFC501985D8115944020F4750191
:102B4000F3E0FF22ACCFC5019C5D81159440A8F451
:102B500083E0B822B701762F6627770F770F6A29AF
:102B60007B2990E080E00196603871058105910530
:102B700040F4C8010E94071592CFB50190E080E0B3
:102B8000F3CF1982262F2F7320682A8326E096958B
:102B90008795779567952A95D1F76032710580F40E
:102BA000606C6B835E01E4E0AE0EB11CF5016291D6
:102BB0005F01662309F473CFC8010E940715F6CFA1
:102BC000262F2F7320682B8386E0769567958A954C
:102BD000E1F76031710538F4606E6C835E01F5E0F9
:102BE000AF0EB11CE3CF60686C83CD825E0126E03E
:102BF000A20EB11CDBCF32969081992309F489CFC4
:102C00008913F9CF8181882309F483CFF8011286D3
:102C1000682FAFCF82819381892B19F484E090E0F3
:102C20004ACF90E080E047CF6F927F928F929F9241
:102C3000AF92BF92CF92DF92EF92FF920F931F93CA
:102C4000CF93DF93EC012A813B812C5F3F4F4C8176
:102C50005D814430510588F58901F90180E0942FA8
:102C6000B22FAE2FA21BA91730F4F190A1E0F11002
:102C7000A0E08A2BF6CF811120C082E0EB018C838B
:102C8000FB01802F8B1B891728F4E80189918E01A5
:102C90008193F7CF640F751FFB011082DF91CF91F5
:102CA0001F910F91FF90EF90DF90CF90BF90AF906A
:102CB0009F908F907F906F9008958B01F901E40FA2
:102CC000F51F1082888199814C815D81DC0113960A
:102CD000ED91FC913A01E89477F86901C60CD71C94
:102CE0003097C1F0A381A615170481F449017F0133
:102CF000B4E0EB0EF11C8C149D0429F1D401AD90CD
:102D00004D01D701BD907D01AB14A9F30190F08175
:102D1000E02DE6CF6A817B810E94D114FC01A8815D
:102D2000B98113968D919C91149791838083149609
:102D3000FC93EE9313971B821A8285E0E8018C8343
:102D4000F983E883ABCF82818F5F8283F6CFDB018B
:102D5000ED91FC9111970280F381E02DBC01CD0132
:102D60001994AF92BF92CF92DF92EF92FF920F939E
:102D70001F93CF93DF93EC018B018C8180FF24C0E4
:102D8000A881B981FB018381948130E020E0009724
:102D9000D9F0A817B907D1F5F801608171811296B1
:102DA0008C911297815012968C93129781110CC0BE
:102DB0008D919C9111972115310529F1F90191838C
:102DC0008083CD010E94A7168C81807631F12097F7
:102DD00021F1F8805801F5E1AF0EB11C8FEFF81624
:102DE000D1F06F2DC5010E9461116C01FC01E580DD
:102DF000B8010E94B116F801818DF6018083F801B7
:102E0000F18EFE2CEBCF94838383DBCF9C01FC01FE
:102E100080819181BCCFF882F9821C82DF91CF91B1
:102E20001F910F91FF90EF90DF90CF90BF90AF90E8
:102E300008950F931F93CF93DF93EC0108811981BD
:102E40008B819C81009749F0FC01208131813C837A
:102E50002B83B8010E94A716F3CF68817981CE0138
:102E60000596DF91CF911F910F910C941F12FC01D9
:102E700001900020E9F73197AF01481B590BBC01C5
:102E800080EA93E00C94FF0D8F929F92AF92BF92D5
:102E90000F931F93CF93DF93CDB7DEB7A1970FB6F4
:102EA000F894DEBF0FBECDBF19A2423008F44AE04D
:102EB0008E010F5D1F4F842E912CB12CA12CA501EA
:102EC00094010E94F83FE62FB901CA01EA30F4F4F8
:102ED000E05DD801EE938D01232B242B252B79F770
:102EE00090E080E0109719F0CD010E943717A1966D
:102EF0000FB6F894DEBF0FBECDBFDF91CF911F910B
:102F00000F91BF90AF909F908F900895E95CE1CFB3
:102F10004AE00C944417682F70E090E080E04AE0AB
:102F20000C944417CF92DF92EF92FF92CF93DF93EE
:102F30006C01990FEE08FF08F7FE19C06DE280EAF8
:102F400093E00E94950EEC0166277727CB016C1960
:102F50007D098E099F094AE00E9444178C0F9D1F2E
:102F6000DF91CF91FF90EF90DF90CF9008954AE0EE
:102F7000C701B601DF91CF91FF90EF90DF90CF9026
:102F80000C944417CF93DF930E94E20EEC018EEB7A
:102F900092E00E9437178C0F9D1FDF91CF9108950B
:102FA000CF93C82F80932D0682E29CE00E94E20E10
:102FB00080912806082E000C990B0E94921788E138
:102FC0009CE00E94E20E86E09CE0CC2311F08FE0B2
:102FD0009CE00E94E20E85E19CE0CF910C94C21728
:102FE0000F931F93CF938C01C62FFC01648385E858
:102FF00098E00E94E20EF8018081082E000C990BE7
:103000000E9492178BE798E00E94E20E89E698E012
:10301000CC2311F082E798E00E94E20E88E798E066
:10302000CF911F910F910C94C217EF92FF920F93C3
:103030001F93CF93DF937C018B01EA018FE498E02B
:103040000E94E20EC7010E94E20E83E498E00E9413
:10305000E20EC8010E94E20E87E398E00E94E20EB1
:10306000CE010E94E20E84E398E0DF91CF911F91A0
:103070000F91FF90EF900C94C217CF93DF936DE701
:1030800080EA93E00E94950EEC018EEB92E00E94A4
:1030900037178C0F9D1FDF91CF9108954F925F924C
:1030A0006F927F928F929F92AF92BF92EF92FF9218
:1030B0000F931F93CF93DF932A013B0148015901DE
:1030C000853009F480C008F061C0843009F46FC015
:1030D000E0914704F09148041481CAE3DEE049E539
:1030E000E42E4EE0F42E8AE99EE00E94E20EC70133
:1030F0000E94E20E81E99EE00E94E20E812F110FF4
:10310000990B0E94921786E89EE00E94E20ECE0183
:103110000E94E20E81E79EE00E94E20E8091150679
:1031200090911606A0911706B0911806A30192017E
:10313000281B390B4A0B5B0BCA01B9010E94881787
:103140008FE59EE00E94E20E809115069091160692
:10315000A0911706B0911806A5019401281B390B00
:103160004A0B5B0BCA01B9010E948817DF91CF910E
:103170001F910F91FF90EF90BF90AF909F908F9015
:103180007F906F905F904F900C943D18863039F18E
:10319000873009F09DCFE0914F04F09150041481E5
:1031A000CEE1DEE08FE3E82E8EE0F82E9CCFE091BA
:1031B0004904F0914A041481C5E3DEE033E5E32ECF
:1031C0003EE0F32E90CFE0914B04F0914C0414813B
:1031D000CCE2DEE02CE4E22E2EE0F22E84CFE09171
:1031E0004D04F0914E041481C3E2DEE095E4E92E33
:1031F0009EE0F92E78CFCF92DF92EF92FF920F935D
:103200001F93CF93DF93EC018881813009F4D1C003
:103210006A017B01813090F08230D1F483E594E043
:103220000E94A00F81E794E0DF91CF911F910F9151
:10323000FF90EF90DF90CF900C94A00F89818530A4
:1032400009F47DC070F48330F1F1843009F45AC080
:10325000DF91CF911F910F91FF90EF90DF90CF9072
:103260000895863009F488C0873091F7E0914F04C3
:10327000F0915004309761F38681882349F385A14A
:103280008111E6CF8F819885A985BA85C58AD68AAE
:10329000E78AF08E8C0D9D1DAE1DBF1D818F928F14
:1032A000A38FB48F81E086A3CF010E940C100F8101
:1032B000188529853A850C0D1D1D2E1D3F1DB70152
:1032C000A60187E01CC0E0914704F09148043097C4
:1032D00009F4BECF8681882309F4BACF0F811885FF
:1032E00029853A85C18AD28AE38AF48A0C0D1D1D8C
:1032F0002E1D3F1D058B168B278B308F83E00E9480
:103300004E18A6CFE0914904F0914A04309709F491
:103310009FCF8681882309F49BCF0F81188529854B
:103320003A85C18AD28AE38AF48A0C0D1D1D2E1DAE
:103330003F1D058B168B278B308F84E0E0CFE0910B
:103340004B04F0914C04309709F482CF8681882396
:1033500009F47ECF0F81188529853A85C586D686E2
:10336000E786F08A0C0D1D1D2E1D3F1D018B128B53
:10337000238B348B85E0C3CFE0914D04F0914E0454
:10338000309709F465CF8681882309F461CF0F81D6
:10339000188529853A85C586D686E786F08A0C0D7C
:1033A0001D1D2E1D3F1D018B128B238B348B86E040
:1033B000A6CF8981E0914104F0914204882339F03D
:1033C000813009F045CFE0914304F09144043097F7
:1033D00009F43ECFCF80D884E984FA844C0D5D1D7A
:1033E0006E1D7F1D418B528B638B748B31CF2F925F
:1033F0003F924F925F926F927F928F929F92AF9285
:10340000BF92CF92DF92EF92FF920F931F93CF93D1
:10341000DF9300D01F92CDB7DEB72A013B0103E452
:10342000809F90011124312C8901C9018F529B4F3B
:103430009A8389834BE0242E49019EE4890E911CD6
:10344000E981FA818081381608F098C0A32CB12C4C
:10345000C801239C800D911D11248F5B9B4FFC01A3
:10346000E25BFF4F2081233039F1805B9F4FFC01ED
:103470008081893021F09091270689131DC02A9CF4
:10348000F0012B9CF00D1124E00FF11FEE56FB4FC5
:10349000C080D180E280F380C114D104E104F10442
:1034A00069F4B301A201C401329C800D911D112465
:1034B0008F5B9B4F0E94FB183394C2CFC40CD51C6A
:1034C000E61CF71CE4E2F5E090E080E020812111A9
:1034D00025C024E0880F991F2A95E1F7DC01AB5E37
:1034E000BA4F2A9CF0012B9CF00D1124E00FF11F24
:1034F000E157FB4F222D01900D922A95E1F78F5B4A
:103500009B4FFC01E152FF4FC082D182E282F382E5
:103510008D519F4F21E0FC012083CECF0196709604
:103520008031910599F68CEA9DE00E94E20E2A9C7A
:10353000C0012B9C900D1124800F911F8F5B9B4F1E
:103540009C838B83FC01E25BFF4F80810E948B1781
:1035500081EA9DE00E94E20EEB81FC81E15BFF4F7E
:1035600080810E948B1780E99DE00E94E20EC701D6
:10357000B6010E9488170E943D189ECF0F900F90B1
:103580000F900F90DF91CF911F910F91FF90EF90CF
:10359000DF90CF90BF90AF909F908F907F906F9073
:1035A0005F904F903F902F9008950F931F93CF936C
:1035B000DF938C01D62FC42F89E999E00E94E20E97
:1035C000C8010E94E20E8EE899E00E94E20E84E7B4
:1035D00099E0DD2311F08AE799E00E94E20E8FE77F
:1035E00099E00E94E20E89E699E0CC2311F08FE683
:1035F00099E00E94E20EDF91CF911F910F910C9400
:103600003D180F931F93CF938C01C62F8FE499E041
:103610000E94E20EC8010E94E20E84E499E00E943A
:10362000E20E89E399E0CC2311F08FE399E00E9448
:10363000E20ECF911F910F910C943D18CF92DF9223
:10364000EF92FF920F931F93CF938C01C62F6901C6
:103650007A018FE199E00E94E20EC8010E94E20E19
:1036600084E199E00E94E20E8CEF98E0CC2311F007
:1036700082E099E00E94E20E87E099E00E94E20E6B
:10368000C701B6010E948817CF911F910F91FF903B
:10369000EF90DF90CF900C943D187F928F929F9285
:1036A000AF92BF92CF92DF92EF92FF920F931F9350
:1036B000CF93DF93EC01762E49015A01670178011F
:1036C00082EE98E00E94E20ECE010E94E20E87EDAB
:1036D00098E00E94E20E81EB98E0772011F087EBF2
:1036E00098E00E94E20E89EC98E00E94E20EC5018B
:1036F000B4010E9488178CEB98E00E94E20EC7018B
:10370000B6010E948817DF91CF911F910F91FF9012
:10371000EF90DF90CF90BF90AF909F908F907F9071
:103720000C943D18EF92FF920F931F93CF937C015F
:103730008B01C42F8AE198E00E94E20EC7010E942B
:10374000E20E8EE098E00E94E20EC8010E94E20EB6
:1037500083E098E00E94E20E88EF97E0CC2311F01E
:103760008EEF97E00E94E20ECF911F910F91FF9094
:10377000EF900C943D18CF92DF92EF92FF920F934F
:103780001F93CF93DF938C01EB0169017A018EEDDA
:1037900097E00E94E20EC8010E94E20E82ED97E0DF
:1037A0000E94E20ECE010E94E20E87EC97E00E949A
:1037B000E20EC701B6010E948817DF91CF911F91D9
:1037C0000F91FF90EF90DF90CF900C943D180097F1
:1037D00011F00C94371790E080E00895EF92FF927B
:1037E0000F931F93CF93DF93C0914104D091420474
:1037F000882321F0C0914304D0914404209709F418
:103800006EC0613009F465C008F460C0623009F42C
:1038100063C09DEEE92E9CE0F92E811104C086EF75
:10382000E82E8CE0F82E8EE59DE00E94E20EC701A6
:103830000E94E20E85E59DE00E94E20E8C810E94CE
:103840008B178AE39DE00E94E20EC8010E94E20EFF
:1038500085E29DE00E94E20E6A8D7B8D8C8D9D8DB0
:103860000091150610911606209117063091180642
:10387000601B710B820B930B0E94881783E19DE004
:103880000E94E20E6E8D7F8D88A199A10091150690
:10389000109116062091170630911806601B710BC7
:1038A000820B930B0E94881782E09DE00E94E20E3B
:1038B000CE010D960E94E71B8FEF9CE0DF91CF9128
:1038C0001F910F91FF90EF900C94C21709E81DE033
:1038D000A0CF00E81DE09DCF08E71DE09ACFDF9163
:1038E000CF911F910F91FF90EF90089590911E0638
:1038F000911104C090911F06992371F090912006B8
:1039000091110AC060912506882321F0813021F4AD
:10391000609126060C94EE1B0895CF93DF93EC0183
:103920006E838AE797E00E94E20E8F8198850E945D
:10393000E71B81E797E00E94E20E8C81082E000CC5
:10394000990B0E94921787E697E00E94E20E8E8103
:1039500081110AC085E597E00E94E20E84E697E0B7
:10396000DF91CF910C94C2178EE597E0F5CF60E020
:1039700080911402909115020E948D1C60E080914C
:103980001602909117020E948D1C60E0809118022F
:10399000909119020E948D1C60E080911A02909112
:1039A0001B020E948D1C60E080911C0290911D0200
:1039B0000E948D1C60E080911E0290911F020E9467
:1039C0008D1C60E080912002909121020E948D1C4C
:1039D0008091220290912302009719F060E00E94EA
:1039E0008D1C8091240290912502009719F060E0CF
:1039F0000C94F01708951F93CF93DF93EC01162FCB
:103A00008E81882321F060E0CE010E948D1C8D8183
:103A1000813021F460E08C810E9477091C836D81E4
:103A2000812F0E94A5098D81813021F460E08C8175
:103A30000E9477098DEA97E00E94E20E8F819885B7
:103A40000E94E71B84E997E00E94E20E8C81082E19
:103A5000000C990B0E949217DF91CF911F910C944B
:103A60003D18CF93DF93EC010E94FB1C8C810E94D8
:103A70004E0921E0892B09F420E02A878C810E94DD
:103A80004E0921E0892B09F420E02B878C810E94CC
:103A90004E0921E0892B09F420E02C871D8A1E8A1B
:103AA0001F8A188EDF91CF9108959F92AF92BF9297
:103AB000CF92DF92EF92FF920F931F93CF93DF93FA
:103AC0008A01452B09F468C0E9016B016596FC0188
:103AD0006081CE010E946111FC01BB24BA94892B44
:103AE00009F0B5807601E894F7F8AA24A394670159
:103AF000C00ED11E99249394309709F44DC0AA208A
:103B000009F43FC08481843069F0853049F1823006
:103B100079F5DF010D900020E9F71197CD018E1B9B
:103B20009F0B07C00190F081E02D90E080E030977E
:103B300081F79F77E816F90621F5D801AC15BD0588
:103B4000E1F46B2DCE01DF91CF911F910F91FF908A
:103B5000EF90DF90CF90BF90AF909F900C94611149
:103B6000A081B181FD01349613968C9190E0E2CF53
:103B700090E080E0F0E0E0E0DDCF9D91819198174A
:103B8000E9F2A9246B2DCE010E946111FC01892B61
:103B900009F4B2CFB580B0CF90E080E0DF91CF9153
:103BA0001F910F91FF90EF90DF90CF90BF90AF905B
:103BB0009F900895FC0120813181C9014A9642817C
:103BC000538164817581009759F0D9015E96EC911B
:103BD000E03211F090E080E0009711F00C94551D58
:103BE00090E080E00895CF93DF93EB010E94DA1D0F
:103BF000009741F0FC012481263021F48081DF917F
:103C0000CF9108958881FBCFCF92DF92EF92FF9200
:103C1000CF93DF9300D01F921F92CDB7DEB70E94E3
:103C2000DA1DDC01892B09F446C01496EC91149737
:103C3000E250ED3008F03FC0F0E08827ED5DF14E36
:103C40008F4F0C9443414A1E5B1E5D1E601E301E4A
:103C50005B1E5B1E5B1E3E1E5B1E3E1E5B1E641ECD
:103C6000CC908C2D0F900F900F900F900F90DF91B4
:103C7000CF91FF90EF90DF90CF900895CD90DD90A1
:103C8000ED90FC908FEFC816D104E104F10449F3E4
:103C900040F311C0CD010E9460133A834B835C83D3
:103CA0006D83CA80DB80EC80FD80223059F32330A5
:103CB00049F3213069F0C12CD4CF8D919C91EBCF89
:103CC0008D919C910496E7CFCD90DD90ED90FC9086
:103CD00020E030E0A901C701B6010E943E4187FD06
:103CE000EACF20E030E04FE753E4C701B6010E947D
:103CF000A23E181604F3C701B6010E940F41C62E5A
:103D0000B0CFCF92DF92EF92FF92CF93DF9300D0AC
:103D10001F921F92CDB7DEB70E94DA1DDC01892BFE
:103D200009F44BC01496EC911497E250ED3008F072
:103D300044C0F0E08827E056F14E8F4F0C94434189
:103D4000CC1EDD1EE11EE41EAD1EDD1EDD1EDD1ED1
:103D5000BD1EDD1EC21EDD1EE81E6C9170E090E0EF
:103D600080E00F900F900F900F900F90DF91CF9108
:103D7000FF90EF90DF90CF9008956D917D918D91A0
:103D80009C91EFCF8D919D910D90BC91A02DB7FD91
:103D900014C0BC01CD01E5CFCD010E9460133A8370
:103DA0004B835C836D83CA80DB80EC80FD80223096
:103DB00059F1233059F1213079F060E070E0CB0106
:103DC000D0CF8D919C91E9CF8D919C910496E5CFB8
:103DD000CD90DD90ED90FC9020E030E0A901C7018E
:103DE000B6010E943E4187FDE8CF2FEF3FEF4FE73E
:103DF0005FE4C701B6010E94A23E1816F4F2C701A3
:103E0000B6010E940F41ADCFF7FCD7CFC701B60175
:103E1000A8CF8F929F92AF92BF92CF92DF92EF92F4
:103E2000FF920F931F93CF93DF9300D000D0CDB7B5
:103E3000DEB749015A0167017801FB0101900020BA
:103E4000E9F73197E61BF70B9A8389837C836B83B1
:103E5000ED838F2F8F778E83CE0101960E94DA1D1E
:103E60000097B9F0FC0124812A3041F02C3089F40C
:103E700080819181A281B381B7FD0BC0CE010196F3
:103E80000E94811E86169706A806B90610F44B01FB
:103E90005C01C501B401C616D706E806F90610F4A0
:103EA000C701B60126960FB6F894DEBF0FBECDBF90
:103EB000DF91CF911F910F91FF90EF90DF90CF9006
:103EC000BF90AF909F908F900895CF92DF92EF9226
:103ED000FF92CF93DF9300D01F921F92CDB7DEB732
:103EE0000E94DA1DDC01892B09F448C01496EC917C
:103EF0001497E250ED3008F041C0F0E08827EC570D
:103F0000F04E8F4F0C944341C11FBE1FD31FD61FCD
:103F1000911FBE1FBE1FBE1FA01FBE1FAD1FBE1F15
:103F2000DA1F6C9170E0CB010F900F900F900F9003
:103F30000F90DF91CF91FF90EF90DF90CF90089599
:103F40008D919D910D90BC91A02D811520E8920737
:103F5000A105B10598F4BC01E6CF8D919D910D901E
:103F6000BC91A02D6C017D0120E8D20EE11CF11C5A
:103F7000C114D10421E0E206F10468F370E060E0CE
:103F8000D2CFCD010E9460133A834B835C836D8353
:103F9000CA80DB80EC80FD80223049F1233099F12A
:103FA000213061F70BC08D919C91ECCF8D919C914C
:103FB0000496E8CFCD90DD90ED90FC9020E030E0CD
:103FC00040E057ECC701B6010E943E4187FDD6CFC5
:103FD00020E03EEF4FEF56E4C701B6010E94A23E3B
:103FE000181664F2C701B6010E9408419CCFD701A0
:103FF000C6019058AF4FBF4F0097A140B10508F0E0
:10400000BDCFB60190CFC11480E8D806E104F10419
:10401000C0F3B4CF0F931F93CF93DF93EC018B01C9
:104020000E94DA1DFC01892B29F084818A3051F02D
:104030008C30C1F0F80180819181DF91CF911F9187
:104040000F91089580819181A281B381811590485B
:10405000A105B10578F7CE01DF91CF911F910F91A6
:104060000C94651F80819181A281B3819058AF4FDC
:10407000BF4F0097A140B105E8F6EDCF2F923F92D8
:104080004F925F926F927F928F929F92AF92BF9268
:10409000CF92DF92EF92FF920F931F93CF93DF9314
:1040A00090911E06911105C090911F06992309F465
:1040B0004BC070902006711047C0823008F044C099
:1040C00080932706811153C0E0914104F09142048E
:1040D000309709F052C091E090932506911134C0B9
:1040E0006A017B01182FC1E4D4E0612C512C2224F9
:1040F0002A94312C94E6892E912CA12CB12C4424A5
:1041000043940C89002389F08A89823009F4702E47
:104110009EA5993011F0191308C0813009F490C0A0
:1041200008F443C0823009F490C06E9654E0CD3755
:10413000D50739F7772009F4C6C06110C4C081E003
:104140001111BEC080932506DF91CF911F910F9171
:10415000FF90EF90DF90CF90BF90AF909F908F90A7
:104160007F906F905F904F903F902F900895E091D7
:104170004304F09144043097B1F09089992361F0A1
:10418000018912892389348992E0041715072607CB
:10419000370718F490E001C091E0882309F49CCF20
:1041A000909326069BCF91E0FBCF8F898F5F8F8BFB
:1041B0009D89891708F4B9CF8FA5843658F40E94D9
:1041C0004A3EA50194010E94C63F8FA5681710F0D2
:1041D0001F8AABCF1F8A288D222351F03D89C10150
:1041E000821B91093817190609F0F4F4230F2D8B5F
:1041F0008B89823008F058C043E4489F9001112415
:10420000F901EF52FB4F408121573B4F90E0491796
:1042100009F44AC0255F3F4FF9013B975081513067
:1042200009F441C09F5FF3CF8FE292E00E94E20E5B
:104230008D890E948B178CE292E00E94C217D8CF22
:10424000CD8EDE8EEF8EF8A270CF8DA581116DCF51
:1042500089A19AA1ABA1BCA1A7019601281B390B8A
:104260004A0B5B0BDA01C901B7FD5FCF8DA19EA19F
:10427000AFA1B8A58C199D09AE09BF09181619067A
:104280001A061B060CF051CF8FA5843610F04DA6F0
:10429000AFCF0E944A3EA50194010E94C63F8FA560
:1042A0006817A8F342CF502E9A89923009F4602EF5
:1042B000823008F03ACFB701A6010E94F71935CF36
:1042C0008093260641CF80911D06882319F0552042
:1042D00009F43ACFE0914104F0914204112321F016
:1042E000E0914304F0914404309709F42DCF4091BC
:1042F000190650911A0660911B0670911C06C40E97
:10430000D51EE61EF71EC18AD28AE38AF48A1CCF24
:10431000BF92CF92DF92EF92FF920F931F93CF93B2
:10432000DF93EC01198D1F3F81F0612F45960E94AC
:104330006111FC018081898F309709F477C0148264
:104340008FEF8583BF01812F76C06C0135E0C30EEE
:10435000D11CE880F9808F89882341F0C6010E9432
:10436000F311E62FF72F182F309749F71F89988DF3
:10437000191324C0103109F459C0110F6D897E89B9
:10438000D701ED91FC91B4E01B9FA0011124C6164A
:10439000D70609F044C00190F081E02DBA01C701B1
:1043A0001995009709F442C020E1F601DC01019063
:1043B0000D922A95E1F79E8B8D8B188F0D891E89A2
:1043C0008F8921E0280F2F8BE4E08E9FC0011124FC
:1043D000080F191F90E1B92E203111F48FE0B82E8B
:1043E000F6E0BF9EB0011124D701ED91FC91019040
:1043F000F081E02DC7011995F80193838283892B01
:1044000009F4B12CD801BC9211961C92012B71F0C9
:10441000C6010E94F311E62FF72F182F8DCF0480CD
:10442000F581E02DC7011995009729F681E08A836F
:1044300060E070E08FEFDF91CF911F910F91FF90BF
:10444000EF90DF90CF90BF9008954F925F926F9260
:104450007F928F929F92AF92BF92CF92DF92EF9214
:10446000FF920F931F93CF93DF9300D01F921F9261
:10447000CDB7DEB78C017B01B42E0E94D1116C0147
:10448000892B09F048C0C8010E948D11863609F4B5
:10449000A9C124F5873229F08B3561F1823209F008
:1044A000A8C1D80115961C921E92149712968D9150
:1044B0009C911397892B39F48D919C910E94CF0781
:1044C000F80193838283C8010E9435156C01892B02
:1044D00011F5B701C8010E9414161DC0843709F4F4
:1044E00060C18B3709F47BC08E3609F082C169ED5B
:1044F00072E060C180E4D70114968C931497E114A4
:10450000F10421F08FEF8C9311968C93B1101AC0A7
:1045100025E0C22ED12CC6010F900F900F900F9066
:104520000F90DF91CF911F910F91FF90EF90DF904F
:10453000CF90BF90AF909F908F907F906F905F9043
:104540004F900895F8011286C8010E94D11100977A
:1045500051F56DE5C8010E949D118111DCCFBA941F
:10456000D8011B966D907C90C3010E948821A82ED3
:104570004B01672B21F494E0C92ED12CCCCFF7014D
:1045800061816F3F91F0C30145960E946111DC018A
:104590001596AC92F701A1824B2DB401C8010E947F
:1045A0002522009739F06C01B6CFD7018C93119674
:1045B0008C93F2CFC8010E94D1110097A1F76DE54D
:1045C000C8010E949D118111A6CF6CE2C8010E9412
:1045D0009D118111C5CF83E0C82ED12C9CCF80E2E4
:1045E000F7018483E114F10419F08FEF8083818354
:1045F000BB2009F48DCFD8011A961C92C8010E94E5
:10460000D111009781F66DE7C8010E949D118111BB
:1046100082CFBA94F8011582148282819381892B0A
:1046200049F4808191810E94CF07D80113969C9311
:104630008E931297C8010E948D118732F9F0823251
:10464000E9F0C8010E948D11D82E0E947B118823A9
:1046500011F2F80112866D2DC8010E940715C801DC
:104660000E948D11D82E0E947B118111F2CFD801AA
:1046700012968D919C91892B41F47DCFC8010E94A7
:1046800035156C01892B09F046CFC8010E94D11164
:104690006C01892B09F03FCF6AE3C8010E949D118C
:1046A000882309F498CFD8011296ED91FC911397C5
:1046B00014968D919C911597E80FF91F148214960A
:1046C0006D917C9115977F771B966D907C901C97D0
:1046D00012968D919C910496272F2F77BA2DB07842
:1046E000AB2EA22AE894A7F89301AC017A2DC7015A
:1046F0000E94551D6C01009761F5C3010E9488213D
:10470000482E4B01672B09F436CFC3010E94882144
:10471000582E962FC92ED72EC114D10409F42BCFB1
:10472000F4015582D70111966C916F3F71F0C3016E
:1047300045960E946111FC014582D70111965C9259
:10474000B401C8010E94141607C0F70140825182CB
:10475000F7CFB3010E94B1164B2DB601C8010E94DC
:1047600025226C01892B09F0D6CEC8010E94D111F7
:104770006C01892B09F0CFCE6DE7C8010E949D1115
:104780008111C9CE6CE2C8010E949D11882309F4F1
:1047900022CFC8010E94D1116C01892B09F43ACFB4
:1047A000BACE86E0D70114968C93149781E08C934F
:1047B0006EEC72E0C8010F900F900F900F900F9069
:1047C000DF91CF911F910F91FF90EF90DF90CF90ED
:1047D000BF90AF909F908F907F906F905F904F9021
:1047E0000C94AE1186E0F7018483108263ED72E0D1
:1047F000E1CFC8010E948D114801FDE08F0E911C90
:10480000B12C782CA92C803384F08A3384F43FE3D4
:10481000B316A9F0D8011A961C92B394F4018193AF
:104820004F01C8010E948D11EECF8B3281F393EDC1
:10483000980F923060F3982F9F7D953441F30B0DC4
:10484000111DD8011D961C92872D9A2D0E94601370
:104850003A834B835C836D838A819B81AC81BD816C
:104860002230A9F0233059F0213009F0B4CE2EE0E7
:10487000F701248380839183A283B3834CCE2AE003
:10488000F701248380839183A283B38344CE2CE0F9
:10489000F7CF4F925F926F927F928F929F92AF92DB
:1048A000BF92CF92DF92EF92FF920F931F93CF931D
:1048B000DF93CDB7DEB7CF5ED1090FB6F894DEBF78
:1048C0000FBECDBF6E012EECC20ED11C86E092E071
:1048D000F60191838083128214821382C6010596A9
:1048E000968B858B178A84E0808F8FEF818F168E51
:1048F000878F9E012F5F3F4F790110E000E00E94FB
:104900003B0A6093A8037093A9038093AA03909332
:10491000AB0380EA93E00E943B0E97FD02C00C942B
:10492000F7320E943B0A8090A8039090A903A090C0
:10493000AA03B090AB03681979098A099B09809092
:10494000A4039090A503A090A603B090A7036815B8
:1049500079058A059B05E8F20F37110561F480EAB5
:1049600093E00E945D0E892B31F080EA93E00E9473
:104970003B0E0A97A1F7E1E0F0E0EC0FFD1FE00F1E
:10498000F11F10820530110578F045E050E06EED22
:1049900072E0CE0101960E945143892B29F484EBE9
:1049A00099E00E94C2173EC4F60160817181C60180
:1049B00005960E941F12F601128200811181F601F4
:1049C00083819481009751F0FC0120813181F601AF
:1049D00034832383B8010E94A716F1CF168ECF57D8
:1049E000DF4FD982C882C158D040CD57DF4F1982DE
:1049F0001882C358D040CB57DF4F19821882C55850
:104A0000D040C957DF4F1882C758D04021E030E06E
:104A10002C0F3D1FC857DF4F39832883C858D0401B
:104A2000C557DF4F1882CB58D040C457DF4FD982CB
:104A3000C882CC58D0404AE0B601665E7F4FCE01B6
:104A40008F579F4F0E9425228C01892B69F4C657EE
:104A5000DF4F8881CA58D040882331F0F601868D17
:104A600083FF02C003E010E0CD57DF4F88819981BA
:104A7000C358D040009751F0CF57DF4FE881F981FC
:104A8000C158D040608171810E94A716011511059F
:104A9000F1F08DE397E00E94E20EF801EE0FFF1FA8
:104AA000E752FA4F859194910E94E20E8AE397E0D3
:104AB0000E94C21780EA93E00E945D0E1816190644
:104AC0000CF0B0C380EA93E00E943B0EF3CFCF57C7
:104AD000DF4FD982C882C158D04084EE92E0CD57D2
:104AE000DF4F99838883C358D04083E0CB57DF4F93
:104AF0008883C558D040CA57DF4F1881C658D04068
:104B000010781068CA57DF4F1883C658D040CE01BE
:104B10008F579F4F0E94DA1D009709F483C3FC0151
:104B20008481882309F47EC31068CA57DF4F188335
:104B3000C658D040CE018F579F4F0E94651F8C01F1
:104B4000893DF1E09F0709F41CC10CF0C9C1883709
:104B500031E0930709F40AC50CF018C1873391407E
:104B600009F4EEC3083381E018070CF0D3C00D320E
:104B700091E0190709F403C30CF0BCC060E00C32EB
:104B8000F1E01F0709F4FCC20C3AF2E01F0709F438
:104B9000B8C70CF0ABC6093731E0130709F464C697
:104BA0000CF0E7C50736110511F40C9460300CF0D9
:104BB00087C50536110511F40C94802E14F00C9461
:104BC00054300436110509F0BDC48091960381115B
:104BD00029C30E943B0A4B015C0180929203909290
:104BE0009303A0929403B092950380914306882387
:104BF000C9F080915106811115C08FE396E00E94A3
:104C0000FA0F8092520690925306A0925406B092E8
:104C1000550681E080935106F89410924106109257
:104C2000420678948090920390909303A09094030E
:104C3000B090950310921E0610922006E4E2F5E073
:104C40001082709626E0E432F207D1F783E594E013
:104C50000E94A00F81E794E00E94A00FE09147041A
:104C6000F0914804309711F00C944F30E0914904D2
:104C7000F0914A04309719F084810E94700AE09103
:104C80004B04F0914C04309721F060E084810E9445
:104C90007709E0914D04F0914E04309721F060E0E7
:104CA00084810E947709E0914F04F091500430977D
:104CB00029F011A660E084810E9477098AE293E0DE
:104CC0000E94E20E8091600390916103A0916203C3
:104CD000B0916303A5019401281B390B4A0B5B0BB0
:104CE000CA01B9010E9488170E943D1881E0809393
:104CF000960398C20F3221E0120709F4FDC260E06A
:104D0000063331E0130709F03FCF80911A029091EA
:104D10001B023AC2033741E0140709F438C23CF5DC
:104D2000093381E0180709F02FCF00911A02109182
:104D30001B020E943B0AF801618B728B838B948B60
:104D400085849684A784B088DC01CB01880D991DE9
:104D5000AA1DBB1D858B968BA78BB08F81E080A38E
:104D600042E855E068E875E08DE895E0E6C2043772
:104D700091E0190709F471C20537E1E01E0709F057
:104D800003CF083D114009F47DC04CC28139F1E0E8
:104D90009F0709F4F5C2CCF58E3731E0930709F48B
:104DA000D1C21CF58D37914009F0EECEEE24EA9485
:104DB000FE2C00E010E021E030E040E050E068EE42
:104DC00072E0C6010E94091F9B01AC01E0911A022A
:104DD000F0911B02218732874387548760EA75E090
:104DE0008AEA95E00E94BB1B1DC2023881E01807C9
:104DF00009F4D1C360E0003991E0190709F0C4CE8D
:104E000080911C0290911D02BFC18B39E1E09E0789
:104E100009F4DAC27CF4833921E0920709F4B2C2C2
:104E200060E08A39914009F0AFCE80911E029091E6
:104E30001F02AAC18D3941E0940709F4E7C2883DF9
:104E4000914009F0A1CE10ECE12E17E2F12E09E01D
:104E500010E021E030E040E050E062EF72E0C60197
:104E60000E94091F9B01AC01E0911C02F0911D0200
:104E7000218732874387548764E775E08DE795E0A3
:104E80000E94BB1BCF57DF4FD982C882C158D04088
:104E900082EF92E0CD57DF4F99838883C358D0408B
:104EA00088E0CB57DF4F8883C558D040CA57DF4FC3
:104EB0008881C658D04080788068CA57DF4F888381
:104EC000C658D040CE018F579F4F0E94811E6093DD
:104ED0003D0270933E0280933F029093400209C2CC
:104EE0000F3982E0180709F4C7C20CF088C0053FEB
:104EF000E1E01E0709F4ACC274F5023E21E012079E
:104F000009F464C2C4F40C3D41E0140709F03CCE3E
:104F100015E3E12EF12C00E010E022E030E040E06B
:104F200050E06BEF72E0C6010E94091F80911C02E5
:104F300090911D022DC3063E51E0150709F43EC3B2
:104F400060E0043F81E0180709F01ECE8091200246
:104F50009091210219C1083592E0190709F483C222
:104F6000C4F40034F2E01F0709F00ECE15E3E12E81
:104F7000F12C00E010E022E030E040E050E06BEF88
:104F800072E0C6010E94091F8091200290912102C7
:104F9000FFC2093522E0120709F45CC20B3532E08A
:104FA000130709F0F1CD009122021091230201159F
:104FB000110509F437C10E943B0AAB01BC01F8019D
:104FC000458B568B678B708F85859685A785B089B5
:104FD000840F951FA61FB71F818F928FA38FB48F49
:104FE000FF24F394F6A2C8010E940C10F801F0A669
:104FF00043E355E069E375E08EE395E09EC1043834
:1050000043E0140709F4A8C20CF075C0043A82E02A
:10501000180709F4E6C20CF054C0003AE2E01E079B
:1050200009F0B2CD10ECE12E17E2F12E09E010E00C
:1050300021E030E040E050E062EF72E0C6010E9403
:10504000091F9B01AC01E0912202F09123023097ED
:1050500051F0258736874787508B64E175E08DE1F5
:1050600095E00E94BB1BCF57DF4FD982C882C15841
:10507000D04082EF92E0CD57DF4F99838883C358A9
:10508000D04088E0CB57DF4F8883C558D040CA57FF
:10509000DF4F8881C658D04080788068CA57DF4F7C
:1050A0008883C658D040CE018F579F4F0E94811EE3
:1050B0006093390270933A0280933B0290933C02D2
:1050C00018C1093AF2E01F0709F423C20A3A22E0A4
:1050D000120709F059CDE0912202F0912302309796
:1050E00009F4A0C081E085A347EE54E063EF74E0CB
:1050F00088EF94E022C1003D33E0130709F48BC22E
:10510000D4F4053853E0150709F415C2073883E0D5
:10511000180709F039CD809124029091250200975B
:1051200009F410C20E94FA0F41ED54E067ED74E0FB
:105130008CED94E002C1043394E0190709F4A4C291
:105140000036E5E01E0709F01FCD80911602909110
:105150001702892B09F466C015E3E12EF12C00E05B
:1051600010E022E030E040E050E06BEF72E0C6017A
:105170000E94091F80911602909117029EC261E061
:1051800080911802909119020E948D1C4BC0EE2450
:10519000EA94FE2C00E010E021E030E040E050E036
:1051A00068EE72E0C6010E94091F9B01AC01E0910C
:1051B0001802F091190221873287438754876BECDC
:1051C00075E085ED95E00E94BB1BCF57DF4FD9827C
:1051D000C882C158D04088EE92E0CD57DF4F998306
:1051E0008883C358D04089E0CB57DF4F8883C558A8
:1051F000D040CA57DF4F8881C658D0408078806839
:10520000CA57DF4F8883C658D040CE018F579F4F73
:105210000E94811E60934102709342028093430278
:1052200090934402C6010E941917C151DF4F0FB677
:10523000F894DEBF0FBECDBFDF91CF911F910F91CC
:10524000FF90EF90DF90CF90BF90AF909F908F90A6
:105250007F906F905F904F90089510ECE12E17E2D1
:10526000F12E09E010E021E030E040E050E062EF94
:1052700072E0C6010E94091F9B01AC01E091180277
:10528000F0911902258736874787508B6EEB75E0C2
:1052900087EC95E00E94BB1BCF57DF4FD982C882B5
:1052A000C158D04082EF92E0CD57DF4F9983888379
:1052B000C358D04088E0CB57DF4F8883C558D040D3
:1052C000CA57DF4F8881C658D04080788068CA5757
:1052D000DF4F8883C658D040CE018F579F4F0E9422
:1052E000811E60934502709346028093470290931B
:1052F00048020E94641296CF009118021091190280
:105300000E943B0AF801618B728B838B948B85849E
:105310009684A784B088DC01CB01880D991DAA1D55
:10532000BB1D858B968BA78BB08F81E080A34FEA46
:1053300055E065EB75E08AEB95E00E94151872CF99
:1053400061E0E3CC10ECE12E17E2F12E09E010E071
:1053500021E030E040E050E062EF72E0C6010E94E0
:10536000091F9B01AC01E0911A02F0911B022587F5
:1053700036874787508B62E975E08BE995E032CD3F
:1053800061E03ECD00911C0210911D020E943B0A7B
:10539000F801658776878787908B81849284A384C0
:1053A000B484DC01CB01880D991DAA1DBB1D818B26
:1053B000928BA38BB48B81E0858B44E655E06AE643
:1053C00075E08FE695E0B9CF61E02FCD10ECE12ECE
:1053D00017E2F12E09E010E021E030E040E050E07B
:1053E00062EF72E0C6010E94091F9B01AC01E091CF
:1053F0001E02F0911F02218732874387548765E59B
:1054000075E08EE595E00E94BB1B73CF00911E02F4
:1054100010911F020E943B0AF801658776878787F3
:10542000908B81849284A384B484DC01CB01880DA9
:10543000991DAA1DBB1D818B928BA38BB48B81E020
:10544000858B44E455E06AE475E08FE495E075CF20
:1054500061E07CCD809122029091230261E000976F
:1054600009F092CEDFCE809122029091230260E07B
:10547000009709F089CED6CEEE24EA94FE2C00E007
:1054800010E021E030E040E050E068EE72E0C6015C
:105490000E94091F9B01AC01E0912202F0912302BE
:1054A000309779F0211531054105510521F021870B
:1054B00032874387548763E275E08DE295E00E946E
:1054C000BB1BCF57DF4FD982C882C158D04088EE6E
:1054D00092E0CD57DF4F99838883C358D04089E04D
:1054E000CB57DF4F8883C558D040CA57DF4F8881DC
:1054F000C658D04080788068CA57DF4F8883C65826
:10550000D040CE018F579F4F0E94041E80933802D7
:1055100089CEE0912202F0912302309749F015A242
:105520004EEF54E069E075E08EE095E00E941518BA
:1055300010927003DECE809124029091250261E0EA
:10554000009789F486E792E00E94E20EC8010E946B
:10555000921784E792E025CA809124029091250257
:10556000009781F360E00E94F0175CCE15E3E12E16
:10557000F12C00E010E022E030E040E050E06BEF82
:1055800072E0C6010E94091F8091180290911902D1
:105590000E94FB1C47CE15E3E12EF12C00E010E049
:1055A00022E030E040E050E06BEF72E0C6010E9484
:1055B000091F80911A0290911B02EACF15E3E12E98
:1055C000F12C00E010E022E030E040E050E06BEF32
:1055D00072E0C6010E94091F80911E0290911F0275
:1055E000D7CF8091220290912302892B09F41ACE01
:1055F00015E3E12EF12C00E010E022E030E040E085
:1056000050E06BEF72E0C6010E94091F80912202F8
:1056100090912302BDCF8091240290912502892B85
:1056200009F490CF15E3E12EF12C00E010E022E028
:1056300030E040E050E06BEF72E0C6010E94091FCD
:10564000F62E0091240210912502F8018585882309
:1056500031F060E080810E947709F8011586F80139
:10566000F08261E08F2D0E94A50960E0F801808141
:105670000E9477098DE894E00E94E20EF801808193
:10568000082E000C990B38C78091140290911502D6
:10569000892B09F4C7CD15E3E12EF12C00E010E0D1
:1056A00022E030E040E050E06BEF72E0C6010E9483
:1056B000091F80911402909115020E94311DB2CDF4
:1056C0000936110509F4B7C50CF418C50C3C1105D1
:1056D00009F4DEC20D3D110509F034CFC251DF4F90
:1056E0001882CE5ED040CF57DF4FD982C882C158D2
:1056F000D04083E293E0CD57DF4F99838883C3582E
:10570000D04085E0CB57DF4F8883C558D040CA577B
:10571000DF4F8881C658D04080788068CA57DF4FF5
:105720008883C658D040BE0162517F4FCE018F574B
:105730009F4F0E94F31D182F8BE996E0111102C0B4
:1057400081EB96E090930A028093090286E01111A2
:1057500001C085E080930F020E94641248E656E083
:10576000111102C043E656E06EE676E08AE796E065
:10577000E4CD0D3D51E0150709F476C00CF05FC093
:10578000033891E0190709F46FC00438E1E01E07FF
:1057900029F00A37F1E01F0709F0D4CEC251DF4FDC
:1057A00019821882CE5ED040CF57DF4FD982C8828F
:1057B000C158D04087E393E0CD57DF4F998388836A
:1057C000C358D04086E0CB57DF4F8883C558D040C0
:1057D000CA57DF4F8881C658D04080788068CA5742
:1057E000DF4F8883C658D040BE0162517F4FCE0143
:1057F0008F579F4F0E940A205C01F12C019741F0C6
:1058000089E0F82E42E0A416B10411F4FF24F394C9
:105810000A3751E0150709F00AC6F09203020E9408
:105820006412F1E0FF1218C6F09219079501BB0C43
:10583000440B550B60E076E08DE096E0D3CA073E5E
:1058400021E0120789F034F40E3D41E0140709F419
:10585000A5CF78CE083E51E0150709F49FCF013A55
:1058600082E0180709F06ECECF57DF4FD982C88289
:10587000C158D0408FEF92E0CD57DF4F9983888396
:10588000C358D04085E0CB57DF4F8883C558D04000
:10589000CA57DF4F8881C658D04080788068CA5781
:1058A000DF4F8883C658D040CE018F579F4F0E944C
:1058B000811E61365AEE75078105910520F060E67C
:1058C0007AEE80E090E0013AE2E01E0709F0F2C0D3
:1058D00060936706709368068093690690936A06E2
:1058E00080917003882309F49DCC03CD0E3494E09D
:1058F000190709F447C6C4F50533F4E01F0709F496
:1059000040C18CF4093E33E0130709F4FEC00233B2
:1059100044E0140709F4FDC0083E53E0150709F000
:1059200011CE60E0F3C0093384E0180709F45DC1CB
:105930006CF40833E4E01E0709F004CE10923F0730
:1059400040E06BEE76E086EF96E05DC10C34F4E06B
:105950001F0709F487C581E00D3424E0120709F020
:10596000F1CD0E94D0175ECC053135E0130709F464
:105970004DC10CF043C0083954E0150709F474C553
:10598000043185E0180709F445C10F3494E0190784
:1059900009F0D8CDCF57DF4FD982C882C158D04047
:1059A00082EF92E0CD57DF4F99838883C358D04070
:1059B00088E0CB57DF4F8883C558D040CA57DF4FA8
:1059C0008881C658D04080788068CA57DF4F888366
:1059D000C658D040CE018F579F4F0E94811E9B0119
:1059E000AC0120933B0630933C0640933D06509318
:1059F0003E0665EE75E08EEE95E0F4C90136E5E011
:105A00001E0709F409C1ECF50E3525E0120709F06F
:105A100099CDCF57DF4FD982C882C158D04085E099
:105A200093E0CD57DF4F99838883C358D04087E0F8
:105A3000CB57DF4F8883C558D040CA57DF4F888186
:105A4000C658D04080788068CA57DF4F8883C658D0
:105A5000D040CE018F579F4F0E94811E4B015C01A9
:105A60008092100290921102A0921202B092130240
:105A70000E94B108A50194016AED76E082EE96E0FD
:105A8000B1C9043635E0130709F4FAC0053645E01C
:105A9000140709F057CD81E08093190789E097E05A
:105AA000909305028093040241E060EB76E08BEB7B
:105AB00096E0A9C00937F1E01F0749F460936C0331
:105AC00070936D0380936E0390936F0312CC033831
:105AD00021E0120709F4A6CB0D3D114049F4609373
