:100000000C9460050C94CC2D0C94A52D0C948805B3
:100010000C9488050C9488050C9488050C94F32D99
:100020000C9488050C9488050C9488050C9488051C
:100030000C9488050C9488050C9488050C9488050C
:100040000C945B2D0C9488050C94752E0C944F2EFB
:100050000C9488050C9488050C9488050C948805EC
:100060000C9488050C948805546F6F446565700086
:100070004E6F4D656D6F727900496E76616C696483
:10008000496E70757400496E636F6D706C65746550
:10009000496E70757400456D707479496E70757431
:1000A000004F6B00CDCCCC3D0AD7233C17B7D138DD
:1000B00077CC2B329595E6241FB14F0A00002041E2
:1000C0000000C84200401C4620BCBE4CCA1B0E5A51
:1000D000AEC59D74227D007B226C6576656C223AEC
:1000E00022303031222C22646576696365223A22FF
:1000F000434F4E54524F4C4C4552222C2264657350
:1001000063223A225052207468726573686F6C647F
:100110002063617070656420617420007D007B2223
:100120006C6576656C223A22303036222C2264656A
:100130007363223A22436F6D6D616E64206E6F743B
:1001400020666F756E64222C22636F6D6D616E6424
:10015000223A007B226C6576656C223A2230303779
:10016000222C22646576696365223A22434F4E54FD
:10017000524F4C4C4552222C226576656E74223AC1
:1001800022454E44222C2274696D657374616D7032
:10019000223A0066616C7365007472756500222CEA
:1001A0002261726D6564223A007B226C6576656C13
:1001B000223A22303030222C22646576696365222F
:1001C0003A22004C48005248004C455645525F4C7C
:1001D00048004C455645525F5248004C49434B003D
:1001E0004C415345520050554D50320050554D50E2
:1001F00000435545320043554500227D002C2261C5
:1002000063746976655F6C65766572223A22007B5D
:10021000226C6576656C223A22303030222C2264C2
:100220006576696365223A22434F4E54524F4C4CD7
:100230004552222C22706172616469676D223A22F4
:1002400046495845445F524154494F222C22746913
:100250006D656F7574223A007B226C6576656C2241
:100260003A22303037222C22646576696365223A5F
:1002700022434F4E54524F4C4C4552222C2265760D
:10028000656E74223A225354415254222C227469CE
:100290006D657374616D70223A307D007B226C65F0
:1002A00076656C223A22303030222C2264657669E1
:1002B0006365223A224D4943524F53434F504522E2
:1002C0002C22706172616D223A22747269676765CF
:1002D000725F70696E222C2276616C7565223A001D
:1002E00046495245440074657374004D4943524F6A
:1002F00053434F504500494E444550454E44454EAA
:1003000054006D6F6465004C4153455200434F4E9D
:1003100054494E47454E54006D6F6465004C41533F
:100320004552006475726174696F6E004C415345AB
:1003300052006672657175656E6379004C41534574
:10034000520046495245440074657374004C415351
:100350004552004649524544007465737400505537
:100360004D5032006475726174696F6E0050554D66
:10037000503200464952454400746573740050552C
:100380004D50006475726174696F6E0050554D5028
:100390000046495245440074657374004355453224
:1003A000006475726174696F6E0043554532006672
:1003B00072657175656E6379004355453200464933
:1003C000524544007465737400435545006475726A
:1003D0006174696F6E00435545006672657175659D
:1003E0006E63790043554500A100960086007900B0
:1003F000700068006C657665725F66696C74657222
:1004000000434F4E54524F4C4C455200736573732A
:10041000696F6E5F70617573656400434F4E54522F
:100420004F4C4C455200746573745F6D6F6465008A
:10043000434F4E54524F4C4C45520046495245444E
:1004400000746573745F636861696E00434F4E5456
:10045000524F4C4C45520050554D500050554D5048
:1004600032006163746976655F70756D7000434F2B
:100470004E54524F4C4C455200726174696F0043A8
:100480004F4E54524F4C4C4552007265696E666F28
:1004900072636564004C455645525F4C4800726576
:1004A000696E666F72636564004C455645525F4CD9
:1004B0004800726174696F004C455645525F4C4864
:1004C0000074696D656F7574004C455645525F4CFC
:1004D00048007265696E666F72636564004C4556CC
:1004E00045525F5248007265696E666F726365645B
:1004F000004C455645525F524800726174696F0066
:100500004C455645525F52480074696D656F75746D
:10051000004C455645525F524800227D007B226CBC
:100520006576656C223A22303036222C226465735F
:1005300063223A220044495341524D4544004152FE
:100540004D454400227D002C2264657363223A22CB
:1005500000222C2270696E223A007B226C6576653F
:100560006C223A22303031222C2264657669636530
:10057000223A2200222C22706172616D223A22708E
:10058000696E222C2276616C7565223A007B226CA2
:100590006576656C223A22303030222C22646576F2
:1005A000696365223A2200222C2276616C756522ED
:1005B0003A00222C22706172616D223A22007B2265
:1005C0006C6576656C223A22303030222C226465CC
:1005D00076696365223A220066616C736500747205
:1005E000756500222C2276616C7565223A00222CFA
:1005F00022706172616D223A22007B226C65766501
:100600006C223A22303030222C2264657669636590
:10061000223A2200227D00222C2276616C7565220E
:100620003A2200222C22706172616D223A22007BF4
:10063000226C6576656C223A22303030222C22649E
:100640006576696365223A220044495341524D451B
:10065000440041524D454400227D002C22646573C4
:1006600063223A22007B226C6576656C223A223046
:100670003031222C22646576696365223A224D4925
:1006800043524F53434F5045222C2270696E223AF9
:100690000066616C73650074727565002C22647568
:1006A000726174696F6E223A002C226672657175F0
:1006B000656E6379223A00222C2261726D65642294
:1006C0003A007B226C6576656C223A22303030220B
:1006D0002C22646576696365223A220066616C7338
:1006E000650074727565002C226475726174696F9F
:1006F0006E223A00222C2261726D6564223A007BE0
:10070000226C6576656C223A22303030222C2264CD
:100710006576696365223A220066616C73650074D0
:100720007275650066616C73650074727565002C86
:10073000227265696E666F72636564223A00222CCC
:100740002261726D6564223A007B226C6576656C6D
:10075000223A22303030222C226465766963652289
:100760003A2200027B226C6576656C223A22303098
:1007700030222C22646576696365223A22434F4E0B
:1007800054524F4C4C4552222C22736B6574636853
:10079000223A2266725F6C6974652E696E6F222C34
:1007A0002276657273696F6E223A2276332E342E6A
:1007B000302D616C7068612E37222C226261756465
:1007C0005F72617465223A3131353230302C2273D8
:1007D00063686564756C65223A2246495845445FF2
:1007E000524154494F227D002C22656E645F74692A
:1007F0006D657374616D70223A002C226576656EAA
:1008000074223A224C49434B222C22737461727435
:100810005F74696D657374616D70223A00222C22D9
:1008200070696E223A007B226C6576656C223A22F2
:10083000303037222C22646576696365223A2200C3
:100840002C22656E645F74696D657374616D7022CE
:100850003A002C226576656E74223A225354494D33
:10086000222C2273746172745F74696D6573746194
:100870006D70223A007B226C6576656C223A2230DC
:100880003037222C22646576696365223A224C4116
:10089000534552222C2270696E223A00000000005B
:1008A000240027002A0000000000250028002B005B
:1008B00000000000230026002900040404040404AE
:1008C00004040202020202020303030303030102FF
:1008D00004081020408001020408102001020408CE
:1008E00010200000000800020100000304070000BF
:1008F0000000000000004C455645525F4C48004C3B
:10090000455645525F524800227D002C226F726985
:10091000656E746174696F6E223A22002C22656ED6
:10092000645F74696D657374616D70223A00222C86
:100930002273746172745F74696D657374616D7034
:10094000223A002C226576656E74223A2250524576
:100950005353222C22636C617373223A2200222C9F
:100960002270696E223A007B226C6576656C223AB1
:1009700022303037222C22646576696365223A2260
:100980000054494D454F555400494E414354495632
:100990004500414354495645002C22736368656401
:1009A000756C65645F6174223A002C227461726711
:1009B0006574223A007B226C6576656C223A22309F
:1009C0003036222C226572726F725F636F6465220B
:1009D0003A22455F50454E44494E475F46554C4C80
:1009E000222C2264657363223A2250656E64696E1C
:1009F0006720616374696F6E207175657565206627
:100A0000756C6C20E2809420616374696F6E206461
:100A1000726F70706564222C22616374696F6E5FFF
:100A200074797065223A005354494D00494E465539
:100A300053494F4E00494E465553494F4E00544F6F
:100A40004E4500544F4E45004C41534552005055C1
:100A50004D505F320050554D505F31004355455F5A
:100A600032004355455F31002C22656E645F746926
:100A70006D657374616D70223A00222C227374616B
:100A800072745F74696D657374616D70223A002CC5
:100A9000226576656E74223A2200222C2270696EDD
:100AA000223A007B226C6576656C223A2230303720
:100AB000222C22646576696365223A220000002FA9
:100AC00011241FBECFEFD8E0DEBFCDBF12E0A0E003
:100AD000B1E0EEEAF5E702C005900D92AC32B10745
:100AE000D9F725E0ACE2B2E001C01D92A83FB20701
:100AF000E1F715E0C0E6D5E004C02197FE010E94B1
:100B0000C838CF35D107C9F70E94BC310C94D53A0B
:100B10000C940000CF93DF93EC0188819981DC0174
:100B2000ED91FC910190F081E02D64E270E0099577
:100B3000009741F02FE1FC01238321E02283DF9124
:100B4000CF91089521E02A83FACF4F925F926F925E
:100B50007F92AF92CF92EF920F931F931092100358
:100B60001092110331E030931203609313036093EA
:100B70001403109215031092160339E030932C03DE
:100B800034E630932D031092300335E030938E031A
:100B900010924C0333E030934D0300934E031092B8
:100BA0004F03109250031092510310925203409041
:100BB0008C0550908D0560908E0570908F05409249
:100BC000530350925403609255037092560310924F
:100BD000570334E030935803E092590310925A03BC
:100BE00010925B0310925C0310925D0340906B05C2
:100BF00050906C0560906D0570906E0540925E039C
:100C000050925F03609260037092610310926203DE
:100C100020936303263009F0AC2CA0926403109259
:100C20006503109266031092670310926803FC013B
:100C300081859285A385B4858093690390936A0327
:100C4000A0936B03B0936C0310926D0387E08093C5
:100C50006E0389E080936F0310927003109271030A
:100C600010927203109273030091F1041091F20438
:100C70002091F3043091F4040093740310937503EE
:100C8000209376033093770391E090937803409319
:100C9000790380937A0310927B0310927C03109265
:100CA0007D0310927E038091D6049091D704A09189
:100CB000D804B091D90480937F0390938003A093CC
:100CC0008103B09382031F910F91EF90CF90AF906B
:100CD0007F906F905F904F9008956093D6047093CB
:100CE000D7048093D8049093D90430918E03ECE418
:100CF000F3E020E023130DC03091D103EFE8F3E0DF
:100D000020E02317B1F04081413071F02F5F3B9616
:100D1000F8CF4081413019F02F5F3B96EBCF6783CE
:100D2000708781879287F8CF6783708781879287E2
:100D3000EDCF089590911003992339F090912E03EF
:100D400021E030E0992319F0089530E020E09EE1A1
:100D5000929FF001939FF00D1124E250FD4F858B7F
:100D6000178AF2CFE1EEF3E01082709684E0E13E64
:100D7000F807D1F70895833081F028F4813099F095
:100D80008230A9F008958730A9F08830C9F0843006
:100D9000B1F4809180008F7D03C0809180008F77B7
:100DA00080938000089584B58F7784BD089584B5BD
:100DB0008F7DFBCF8091B0008F778093B000089536
:100DC0008091B0008F7DF9CFCF93DF93282F30E053
:100DD000F901EE51F74F8491F901E253F74FD491A5
:100DE000F901E654F74FC491CC23A1F081110E9480
:100DF000BB06EC2FF0E0EE0FFF1FE055F74FA5917B
:100E0000B491EC91ED2381E090E009F480E0DF9172
:100E1000CF91089580E090E0FACF1F93CF93DF93B6
:100E2000282F30E0F901EE51F74F8491F901E25398
:100E3000F74FD491F901E654F74FC491CC23A9F0B0
:100E4000162F81110E94BB06EC2FF0E0EE0FFF1F62
:100E5000EA55F74FA591B4918FB7F894EC91111121
:100E600008C0D095DE23DC938FBFDF91CF911F9117
:100E70000895DE2BF8CFCF93DF9390E0FC01E2538F
:100E8000F74F24918654974FFC0184918823C9F031
:100E900090E0880F991FFC01E456F74FA591B4919B
:100EA000FC01EA55F74FC591D49161110DC09FB770
:100EB000F8948C91209582238C9388812823288311
:100EC0009FBFDF91CF910895623051F49FB7F8949E
:100ED0003C91822F809583238C93E8812E2BEFCF3A
:100EE0008FB7F894EC912E2B2C938FBFEACF3FB79E
:100EF000F89480915D0290915E02A0915F02B091A2
:100F0000600226B5A89B05C02F3F19F00196A11DD0
:100F1000B11D3FBFBA2FA92F982F8827BC01CD0143
:100F2000620F711D811D911D42E0660F771F881FA2
:100F3000991F4A95D1F708958F929F92AF92BF92D1
:100F4000CF92DF92EF92FF920E9477074B015C01F4
:100F500084E6C82ED12CE12CF12C0E947707681969
:100F600079098A099B09683E734081059105A8F3B8
:100F700021E0C21AD108E108F10888EE880E83E06A
:100F8000981EA11CB11CC114D104E104F10429F77D
:100F9000FF90EF90DF90CF90BF90AF909F908F9099
:100FA00008952FB7F8946091590270915A02809178
:100FB0005B0290915C022FBF089508959091080103
:100FC00089130BC0E3E6F7E0E4919FEF90930801EB
:100FD000E13049F028F0E23061F060E00C940D0758
:100FE00010926E00FACF90916F009D7F90936F00EA
:100FF000F4CF909170009D7F9093700091E090935A
:10100000B0009091B100987F94609093B1001092DD
:10101000B300E3CF4F925F926F927F928F929F9235
:10102000AF92BF92CF92DF92EF92FF920F931F93F6
:10103000CF93DF9300D000D01F92CDB7DEB78B01E6
:1010400029013A01909108018917C9F09F3F09F4DD
:101050007EC00F900F900F900F900F90DF91CF9167
:101060001F910F91FF90EF90DF90CF90BF90AF90C6
:101070009F908F907F906F905F904F900895E3E6E0
:10108000F7E094919D8397FDE4CF61E00E943B07D8
:101090008D81882321F09D81923009F04AC1480159
:1010A000B12CA12C60E072E18AE790E0A5019801E3
:1010B0000E94143729833A834B835C8369017A0148
:1010C00081E0C81AD108E108F1089FEFC916D104E0
:1010D000E104F10409F00CF401C160E472E48FE072
:1010E00090E0A50198010E94143769017A0181E01E
:1010F000C81AD108E108F1089D81923009F0A2C018
:101100008FEFC816D104E104F10409F00CF4E6C134
:1011100060E970ED83E090E0A50198010E9414372A
:1011200069017A0191E0C91AD108E108F1088FEF4D
:10113000C816D104E104F10411F00CF07FC183E082
:101140009091B100987F892B8093B100CFC080939C
:101150000801E3E6F7E094919D839F3F09F479CF7E
:10116000913041F150F0923009F446C09D8197FDD5
:1011700070CF61E00E943B078ECF14BC15BC94B5C4
:10118000926094BD95B5916095BD282F30E0F9012E
:10119000E654F74FE491F0E0EE0FFF1FEA55F74FEA
:1011A00045915491F901E253F74FE491E0933F02E6
:1011B0001D826BCF1092800010928100909181006F
:1011C000986090938100909181009160909381004C
:1011D000282F30E0F901E654F74FE491F0E0EE0FEC
:1011E000FF1FEA55F74F45915491F901E253F74F2C
:1011F000E491E0933E0249CF1092B0001092B1000A
:101200009091B00092609093B0009091B100916085
:101210009093B100282F30E0F901E654F74FE491A4
:10122000F0E0EE0FFF1FEA55F74F459154915093B0
:10123000490240934802F901E253F74FE491E093E9
:101240004A0223CF9FEFC916D104E104F10409F04B
:101250000CF46DC068E478EE81E090E0A50198019F
:101260000E94143769017A0181E0C81AD108E108A7
:10127000F1089D81992309F4FAC08FEFC816D104B3
:10128000E104F10411F00CF0FBC0EFC064E274EF74
:1012900080E090E0A50194010E94143769017A0171
:1012A00081E0C81AD108E108F10885E09FEFC9166E
:1012B000D104E104F10409F008F442CF62E17AE7D5
:1012C00080E090E0A50194010E94143769017A0141
:1012D00081E0C81AD108E108F108E5C081E09D81EC
:1012E00091112ECF95B5987F892B85BD2FEF3FEFBC
:1012F000A901411451046104710409F043C09D81A6
:10130000913009F45EC0923009F46DC09111A1CE04
:10131000C7BC209344023093450240934602509349
:10132000470280916E00826080936E0092CE82E0D0
:10133000D6CFB12CA12C60E072E18AE790E0A50144
:1013400098010E94143769017A0181E0C81AD10816
:10135000E108F108C114D10491E0E906F10404F5B3
:1013600091E08D81813011F680918100887F892BF9
:10137000809381002FEF3FEFA901411451046104D4
:101380007104F9F0D801AA0FBB1FA30192010E94BA
:10139000333728EE33E040E050E00E947D37AFCF96
:1013A00068E478EE81E090E0A50198010E9414378E
:1013B00069017A0181E0C81AD108E108F10893E0D7
:1013C000D0CFD0928900C092880020934002309301
:1013D0004102409342025093430280916F00826029
:1013E00080936F0036CEC092B30020934B023093AF
:1013F0004C0240934D0250934E02809170008260E7
:101400008093700026CE84E09FEFC916D104E104DA
:10141000F10409F008F466CFC980DA80EB80FC8023
:101420008AE0F594E794D794C7948A95D1F781E040
:10143000C81AD108E108F10885E054CF68E478EED5
:1014400081E090E0A50198010E94143769017A01BA
:1014500081E0C81AD108E108F1089FEFC916D1044C
:10146000E104F10411F00CF011CF84E069CE83E0C7
:101470009FEFC916D104E104F10409F00CF432CF56
:1014800062E17AE780E090E0A50194010E941437C0
:1014900069017A0181E0C81AD108E108F1089D814B
:1014A000992309F4B0CF86E09FEFC916D104E10477
:1014B000F10409F008F444CEC980DA80EB80FC80A6
:1014C0009AE0F594E794D794C7949A95D1F781E080
:1014D000C81AD108E108F10887E032CE82E030CEA8
:1014E000AF92BF92CF92DF92EF92FF920F931F9332
:1014F000CF93DF936C017B018B01040F151FEB0170
:101500005E01AE18BF08C017D10759F06991D60126
:10151000ED91FC910190F081E02DC6010995892B98
:1015200079F7C501DF91CF911F910F91FF90EF9057
:10153000DF90CF90BF90AF900895FC01538D448D04
:10154000252F30E0842F90E0821B930B541710F06E
:10155000CF96089501970895FC01918D828D98177B
:1015600061F0A28DAE0FBF2FB11D5D968C91928D53
:101570009F5F9F73928F90E008958FEF9FEF089584
:10158000FC01918D828D981731F0828DE80FF11D4D
:10159000858D90E008958FEF9FEF0895FC01918D68
:1015A000228D892F90E0805C9F4F821B91098F7361
:1015B0009927089581E692E00E94CE0A21E0892BC6
:1015C00009F420E0822F089580E090E0892B29F033
:1015D0000E94DA0A81110C9400000895FC01A48D88
:1015E000A80FB92FB11DA35ABF4F2C91848D90E045
:1015F00001968F739927848FA689B7892C93A08928
:10160000B1898C91837080648C93938D848D9813B1
:1016100006C00288F389E02D80818F7D8083089544
:10162000EF92FF920F931F93CF93DF93EC0181E032
:10163000888F9B8D8C8D98131AC0E889F9898081D9
:1016400085FF15C09FB7F894EE89FF896083E8890C
:10165000F98980818370806480839FBF81E090E0FE
:10166000DF91CF911F910F91FF90EF900895F62E8B
:101670000B8D10E00F5F1F4F0F731127E02E8C8D25
:101680008E110CC00FB607FCFACFE889F98980816A
:1016900085FFF5CFCE010E94EE0AF1CFEB8DEC0F66
:1016A000FD2FF11DE35AFF4FF0829FB7F8940B8F87
:1016B000EA89FB8980818062CFCF0F931F93CF93FC
:1016C000DF938C01D0E0C0E0F801EC0FFD1F6491C6
:1016D000662341F081E692E00E94100B892B11F005
:1016E0002196F2CFCE01DF91CF911F910F910895F6
:1016F000CF93DF93EC01888D8823B9F0AA89BB8949
:10170000E889F9898C9185FD03C0808186FD0DC033
:101710000FB607FCF7CF8C9185FFF2CF808185FF54
:10172000EDCFCE010E94EE0AE9CFDF91CF9108956F
:10173000CF92DF92EF92FF921F93CF93DF93EC0152
:101740006A017B018C810E94E40611E0892B09F477
:1017500010E08B85181721F0CD8ADE8AEF8AF88E8B
:101760008D899E89AF89B88DB701A601481B590B99
:101770006A0B7B0B898D90E0B0E0A0E084179507A1
:10178000A607B70798F48C85181781F01C878A85FF
:101790001817A9F0CA8EDB8EEC8EFD8EEAA1FBA194
:1017A000309721F0B701A601898509951B87DF9144
:1017B000CF911F91FF90EF90DF90CF900895CE8E44
:1017C000DF8EE8A2F9A2ECA1FDA1309779F389851B
:1017D0000995ECCFFC0115821386148615861686B2
:1017E0001786108A118A128A138A148A158A168A11
:1017F000138E8681882311F0848183830895CF928C
:10180000DF92EF92FF920F931F93CF93DF93EC0140
:101810008E81811103C08D89882369F18C810D85AA
:101820001E852F8538896A017B01C01AD10AE20A18
:10183000F30A9701860137FD18C009891A892B8997
:101840003C89401B510B620B730B141615061606D0
:1018500017065CF061E0DF91CF911F910F91FF902F
:10186000EF90DF90CF900C940D0760E00E940D0781
:101870008D8981111D8ADF91CF911F910F91FF906A
:10188000EF90DF90CF900895CF92DF92EF92FF928A
:10189000CF93DF93EC0189859A85AB85BC85009752
:1018A000A105B10581F44D8F5E8F6F8F78A349A399
:1018B0005AA36BA37CA31FA2DF91CF91FF90EF905F
:1018C000DF90CF9008956A017B01CD8EDE8EEF8E82
:1018D000F8A2BC01CD010E94F5359B01AC0160E08E
:1018E00070E080E89FE30E941B3820E030E040E099
:1018F0005FE30E94563620E030E04AE754E40E945D
:10190000563620E030E040E05FE30E94AF370E94AF
:101910009438C60ED71EE81EF91EC9A2DAA2EBA2A1
:10192000FCA28FA191E089278FA3C6CFCF92DF922F
:10193000EF92FF92CF93DF93EC016A017B018D89D7
:101940009E89AF89B88DAB019601281B390B4A0BD4
:101950005B0BDA01C901B7FD49C0898D9A8DAB8D4A
:10196000BC8DAB019601281B390B4A0B5B0BDA01CE
:10197000C901181619061A061B06C4F18EA1882380
:10198000A9F189859A85AB85BC850197A105B1052B
:1019900051F461E08C81DF91CF91FF90EF90DF9067
:1019A000CF900C940D0789A19AA1ABA1BCA1AB016A
:1019B0009601281B390B4A0B5B0BDA01C901B7FDF5
:1019C00004C0A601CE010E94440C8C819FA19923E2
:1019D00011F061E0E0CF60E00E940D071FA2DF91EF
:1019E000CF91FF90EF90DF90CF90089560E08C81D1
:1019F0000E940D071FA2898D9A8DAB8DBC8DC81AD0
:101A0000D90AEA0AFB0A8EA1882331F01C141D04AE
:101A10001E041F040CF41EA288A5882301F31C14C5
:101A20001D041E041F04DCF618A6D9CF8F929F92C6
:101A3000AF92BF92CF92DF92EF92FF920F931F93DC
:101A4000CF93DF93EC018E81811104C088A188239C
:101A500009F445C07B0189899A89AB89BC894A010F
:101A60005B01881A990AAA0ABB0AC501B40197FD4D
:101A700053C00D891E892F89388D4A015701801A5C
:101A8000910AA20AB30A95018401101611061206E2
:101A900013060CF441C02A8D2223A9F10C8D1D8D53
:101AA0002E8D3F8D200F311F2115310511F421E0BE
:101AB00030E0FB8C50E040E00E947D3760177107FA
:101AC000D8F4F1100AC069857A8520E030E0A901D8
:101AD0008C810E940A0881E08B8F81E0898FDF91E1
:101AE000CF911F910F91FF90EF90DF90CF90BF901B
:101AF000AF909F908F900895FF2079F38C810E9482
:101B0000DE071B8EEACF69857A8520E030E0A901E7
:101B10008C810E940A08E1CF898D882301F38C8192
:101B20000E94DE07198E1B8E88A18823C1F218A29D
:101B3000D6CF6F3FA9F0E62FE295EF7044E0E49F27
:101B400090011124DC01ED91FC91E20FF31F6F7005
:101B500082819381B6E06B9F800D911D11240895C1
:101B600090E080E00895982F80336CF08A3324F061
:101B70008F3524F08B3724F481E0089581341CF0F4
:101B800081E09B350CF080E00895FC018285811195
:101B90000AC0A781B085CD010196908787838C917B
:101BA000818781E08287818508951F93CF93DF939A
:101BB000EC01162F0E94C50D811306C01A8681E024
:101BC000DF91CF911F91089580E0FACF0F931F937B
:101BD000CF93DF938C01EB018991882369F0C801D1
:101BE0000E94C50D882379F0FE01319790819813EA
:101BF0000DC0F8011286F0CF90E080E0DF91CF9128
:101C00001F910F91089582E090E0F8CF83E090E07B
:101C1000F5CFCF93DF93EC01CE010E94C50D8B3041
:101C20004CF489305CF4882359F081E08E8390E095
:101C300080E00BC08D3011F08032B9F71A86ECCFFE
:101C40008E81811105C081E090E0DF91CF910895F0
:101C500082E090E0FACFDC0152969C91529791502D
:101C600084E0989F900111245096ED91FC91E20F31
:101C7000F31F228133812115310579F04181808163
:101C8000481758F481E0840F818386E0489F200D37
:101C9000311D11242115310521F460E070E08FEF32
:101CA0000895B901892F8295807F840F0895DF926E
:101CB000EF92FF920F931F93CF93DF93EC017B0181
:101CC000D12C688979898A89D816E0F484E0D89E75
:101CD00080011124060F171FD80112966D917C9177
:101CE0006115710541F0D701ED91FC910280F381FE
:101CF000E02DC7010995F80113821282108211822A
:101D0000D394DFCF1A8A8FEF8C8BC617D70761F079
:101D1000D701ED91FC910280F381E02DC701099577
:101D2000D98BC88B84E08B8BDF91CF911F910F9162
:101D3000FF90EF90DF900895AF92CF92DF92EF92F5
:101D4000FF920F931F93CF93DF93C0910D01D0911A
:101D50000E0141E080910401909105018E5C954057
:101D600009F440E0A0900001C0900101E090020160
:101D70000091030120910F0160911303CE010E9495
:101D8000A505E0918E03E43008F46CC0CE52D54036
:101D900009F0BCC0C0903102D0903202E090330212
:101DA000F09034028091390290913A02A0913B0266
:101DB000B0913C0200914F031091500320915103C8
:101DC00030915203080F191F2A1F3B1F00934F0326
:101DD00010935003209351033093520340915A03C0
:101DE00050915B0360915C0370915D03840F951FBC
:101DF000A61FB71F80935A0390935B03A0935C03C5
:101E0000B0935D038091650390916603A091670391
:101E1000B09168038C0D9D1DAE1DBF1D80936503A1
:101E200090936603A0936703B09368038091700357
:101E300090917103A0917203B09173034091F504E6
:101E40005091F6046091F7047091F804840F951F87
:101E5000A61FB71F8093700390937103A093720322
:101E6000B093730380913D02882309F458C0E43095
:101E700018F083E080936D0310922E0381E080932D
:101E80002F038093300380933103809332031092A9
:101E90003303109234039091300290934A0394E6F6
:101EA00090934B038093D10310928F0387E080932C
:101EB000900389E0809391038091F5049091F6045A
:101EC000A091F704B091F804809392039093930348
:101ED000A0939403B09395038091F1049091F20440
:101EE000A091F304B091F404809396039093970328
:101EF000A0939803B0939903DF91CF911F910F9115
:101F0000FF90EF90DF90CF90AF900895C090350292
:101F1000D0903602E0903702F090380243CF109212
:101F20003003EACF4F925F926F927F928F929F928F
:101F3000AF92BF92CF92DF92EF92FF920F931F93D7
:101F4000CF93DF9300D000D01F92CDB7DEB7DC0176
:101F50002C912B32E1F12D32D9F50196EE24E39448
:101F6000FC01208130ED320F3A3010F02E3291F525
:101F70008C0160E070E0CB01F801219130ED832EFF
:101F8000820E39E0381508F444C06A3949E974070B
:101F9000840749E1940708F046C0AAE0B0E09B013D
:101FA000AC010E943337912CB12CA12C24013501B6
:101FB00040945094609470944616570668067906CB
:101FC00090F1680D791D8A1D9B1D8F01D5CF01965B
:101FD000E12CC6CF198229813A814B815C816D81C8
:101FE00070E080E090E00F900F900F900F900F90B6
:101FF000DF91CF911F910F91FF90EF90DF90CF90E5
:10200000BF90AF909F908F907F906F905F904F9018
:102010000895211108C0EE2051F16130710581054C
:1020200050E89507A0F0F12CBAE08B2E912CA12C52
:10203000B12C6115710530E883079105F8F0A50111
:1020400094010E947D37CA01B901F394F2CF22E0D6
:1020500029839B01AC0188279927DC01821B930B04
:10206000A40BB50B8A839B83AC83BD83B4CF23E0E1
:1020700029836A837B838C839D83ADCFF801D8014C
:102080002D918D0130ED320F3A3010F4F394F6CFEC
:102090002E3201F58F010F5F1F4FF8010F5F1F4FA9
:1020A0002081A0EDDA2ED20EB9E0BD1598F06C3C7F
:1020B000ECEC7E07ECE08E07910578F7AAE0B0E043
:1020C0009B01AC010E9433376D0D711D811D911D67
:1020D000FA94E3CF20812F7D10E000E0253409F051
:1020E00050C021812D32B1F53296CC24C394DF014A
:1020F00010E000E02F2D0F2C000C330BEAE0BE2E79
:10210000FD01DD9040ED4D0D4A30B0F5B09EA001CF
:10211000B19E500D11240D2DDD0C110B0053110932
:10212000040F151FA801420F531F4732510544F3F6
:10213000CC20B9F080E090E0A0E0B0E8E11003C06E
:1021400080E090E0DC0121E029838A839B83AC83DB
:10215000BD8341CF2B3219F03196C12CC8CF3296B6
:10216000FCCF80E090E0A0E8BFEFE110ECCF80E092
:1021700090E0A0E8BFE7E7CFCC2019F011950195DA
:1021800011092081211126CF0F0D111DF7FC1A9581
:102190000E94F5354CEBA42E40E0B42E101611062B
:1021A0003CF011950195110954EAA52E50E0B52E89
:1021B000D12CC12C01151105E9F0F6E0CF16D104A0
:1021C000A9F000FF0DC0F601EE0FFF1FEE0FFF1F7D
:1021D000EA0DFB1D25913591459154910E9456368B
:1021E000159507952FEFC21AD20AE4CF60E070E090
:1021F00080EC9FE7E110905821E029836A837B837C
:102200008C839D83E8CECF92DF92EF92FF920F9363
:102210001F93CF93DF937C016B018A01FC01C08186
:10222000D1814F3F510509F0B0F4E881F981048074
:10223000F581E02D4B5F5F4FCE010995009759F076
:10224000FC010383DF91CF911F910F91FF90EF90DD
:10225000DF90CF900895E881F9810280F381E02D2D
:10226000B601CE01099581E0F701828390E080E01C
:10227000E9CF1F93CF93DF93EC01162F6A817B8107
:102280006115710589F04C815D81FB0183818417A3
:10229000150651F4440F551F4F5F5F4F8881998198
:1022A0000E9403119B838A838A819B81009759F046
:1022B0002C813D81A9014F5F5F4F5D834C83820F6D
:1022C000931FFC011483DF91CF911F9108959F927A
:1022D000AF92BF92CF92DF92EF92FF920F931F9334
:1022E000CF93DF9300D000D01F92CDB7DEB78C0123
:1022F0000E94C50DD82EF8011286F12CE12C60EF5A
:10230000C62EC8010E94C50DF8011286D81609F420
:10231000B3C0811113C082E090E00F900F900F9036
:102320000F900F90DF91CF911F910F91FF90EF9041
:10233000DF90CF90BF90AF909F9008958C3509F0BB
:1023400099C0C8010E94C50D882329F3E6E8F1E091
:10235000853709F083C0F801128654E0952EB12C20
:10236000A12CC8010E94C50D8823A9F2813434F440
:102370008053803130F083E090E0CFCF8F7D875362
:10238000F8CF44E0AA0CBB1C4A95E1F7A82AF80153
:1023900012869A949110E5CFC501985D81159440FD
:1023A00020F47501F3E0FF22ACCFC5019C5D8115DF
:1023B0009440A8F483E0B822B701762F6627770F00
:1023C000770F6A297B2990E080E0019660387105DB
:1023D0008105910540F4C8010E94391192CFB501E1
:1023E00090E080E0F3CF1982262F2F7320682A8394
:1023F00026E096958795779567952A95D1F760326F
:10240000710580F4606C6B835E01E4E0AE0EB11C7C
:10241000F50162915F01662309F473CFC8010E9440
:102420003911F6CF262F2F7320682B8386E07695FF
:1024300067958A95E1F76031710538F4606E6C83B9
:102440005E01F5E0AF0EB11CE3CF60686C83CD8216
:102450005E0126E0A20EB11CDBCF3296908199235B
:1024600009F489CF8913F9CF8181882309F483CFB7
:10247000F8011286682FAFCF82819381892B19F4DE
:1024800084E090E04ACF90E080E047CF6F927F9267
:102490008F929F92AF92BF92CF92DF92EF92FF9274
:1024A0000F931F93CF93DF93EC012A813B812C5F25
:1024B0003F4F4C815D814430510588F58901F90118
:1024C00080E0942FB22FAE2FA21BA91730F4F19009
:1024D000A1E0F110A0E08A2BF6CF811120C082E0AC
:1024E000EB018C83FB01802F8B1B891728F4E801FB
:1024F00089918E018193F7CF640F751FFB011082C4
:10250000DF91CF911F910F91FF90EF90DF90CF90CF
:10251000BF90AF909F908F907F906F9008958B01A8
:10252000F901E40FF51F1082888199814C815D814A
:10253000DC011396ED91FC913A01E89477F869017A
:10254000C60CD71C3097C1F0A381A615170481F4DF
:1025500049017F01B4E0EB0EF11C8C149D0429F1BC
:10256000D401AD904D01D701BD907D01AB14A9F30D
:102570000190F081E02DE6CF6A817B810E940311FA
:10258000FC01A881B98113968D919C911497918338
:1025900080831496FC93EE9313971B821A8285E036
:1025A000E8018C83F983E883ABCF82818F5F8283DC
:1025B000F6CFDB01ED91FC9111970280F381E02DC4
:1025C000BC01CD010994AF92BF92CF92DF92EF92FE
:1025D000FF920F931F93CF93DF93EC018B018C81BC
:1025E00080FF24C0A881B981FB018381948130E000
:1025F00020E00097D9F0A817B907D1F5F80160815C
:10260000718112968C911297815012968C93129729
:1026100081110CC08D919C9111972115310529F1E3
:10262000F90191838083CD010E94D9128C8180763B
:1026300031F1209721F1F8805801F5E1AF0EB11C7E
:102640008FEFF816D1F06F2DC5010E94990D6C0126
:10265000FC01E580B8010E94E312F801818DF601CA
:102660008083F801F18EFE2CEBCF94838383DBCF44
:102670009C01FC0180819181BCCFF882F9821C828F
:10268000DF91CF911F910F91FF90EF90DF90CF904E
:10269000BF90AF9008950F931F93CF93DF93EC01FA
:1026A000088119818B819C81009749F0FC01208170
:1026B00031813C832B83B8010E94D912F3CF68810A
:1026C0007981CE010596DF91CF911F910F910C94E6
:1026D000570EFC0101900020E9F73197AF01481B2C
:1026E000590BBC0181E692E00C94700A8F929F9284
:1026F000AF92BF920F931F93CF93DF93CDB7DEB707
:10270000A1970FB6F894DEBF0FBECDBF19A242301D
:1027100008F44AE08E010F5D1F4F842E912CB12CDE
:10272000A12CA50194010E947D37E62FB901CA01B1
:10273000EA30F4F4E05DD801EE938D01232B242BD5
:10274000252B79F790E080E0109719F0CD010E94D9
:102750006913A1960FB6F894DEBF0FBECDBFDF910F
:10276000CF911F910F91BF90AF909F908F90089540
:10277000E95CE1CF4AE00C947613CF92DF92EF92BE
:10278000FF92CF93DF936C01990FEE08FF08F7FEDD
:1027900019C06DE281E692E00E94100BEC01662701
:1027A0007727CB016C197D098E099F094AE00E94A9
:1027B00076138C0F9D1FDF91CF91FF90EF90DF90EC
:1027C000CF9008954AE0C701B601DF91CF91FF9005
:1027D000EF90DF90CF900C947613CF93DF930E940D
:1027E0005D0BEC0189E991E00E9469138C0F9D1F3C
:1027F000DF91CF9108950F931F93CF938C01C62F34
:10280000FC01648385E696E00E945D0BF8018081FF
:10281000082E000C990B0E94BD138BE596E00E94D8
:102820005D0B89E496E0CC2311F082E596E00E94EE
:102830005D0B88E596E0CF911F910F910C94ED13FD
:10284000EF92FF920F931F93CF93DF937C018B0145
:10285000EA018FE296E00E945D0BC7010E945D0BCA
:1028600083E296E00E945D0BC8010E945D0B87E148
:1028700096E00E945D0BCE010E945D0B84E196E024
:10288000DF91CF911F910F91FF90EF900C94ED137A
:10289000CF93DF936DE781E692E00E94100BEC018D
:1028A00089E991E00E9469138C0F9D1FDF91CF9100
:1028B00008954F925F926F927F928F929F92AF9204
:1028C000BF92EF92FF920F931F93CF93DF932A0152
:1028D0003B0148015901853009F480C008F061C00E
:1028E000843009F46FC0E0910403F0910503148172
:1028F000C3E4DAE042E6E42E4AE0F42E83EA9AE00A
:102900000E945D0BC7010E945D0B8AE99AE00E945C
:102910005D0B812F110F990B0E94BD138FE89AE078
:102920000E945D0BCE010E945D0B8AE79AE00E9437
:102930005D0B8091D2049091D304A091D404B09106
:10294000D504A3019201281B390B4A0B5B0BCA016A
:10295000B9010E94BA1388E69AE00E945D0B80914B
:10296000D2049091D304A091D404B091D504A501D0
:102970009401281B390B4A0B5B0BCA01B9010E9459
:10298000BA13DF91CF911F910F91FF90EF90BF90FD
:10299000AF909F908F907F906F905F904F900C942E
:1029A0004814863039F1873009F09DCFE0910C034F
:1029B000F0910D031481C7E2DAE088E4E82E8AE0A2
:1029C000F82E9CCFE0910603F09107031481CEE32B
:1029D000DAE03CE5E32E3AE0F32E90CFE0910803F5
:1029E000F09109031481C5E3DAE025E5E22E2AE03F
:1029F000F22E84CFE0910A03F0910B031481CCE214
:102A0000DAE09EE4E92E9AE0F92E78CFCF92DF92B9
:102A1000EF92FF920F931F93CF93DF93EC01888186
:102A2000813009F4D1C06A017B01813090F082309D
:102A3000D1F480E193E00E94EA0B8EE293E0DF9113
:102A4000CF911F910F91FF90EF90DF90CF900C945A
:102A5000EA0B8981853009F47DC070F48330F1F18F
:102A6000843009F45AC0DF91CF911F910F91FF90EC
:102A7000EF90DF90CF900895863009F488C08730BA
:102A800091F7E0910C03F0910D03309761F386818B
:102A9000882349F385A18111E6CF8F819885A98587
:102AA000BA85C58AD68AE78AF08E8C0D9D1DAE1D2B
:102AB000BF1D818F928FA38FB48F81E086A3CF013A
:102AC0000E94440C0F81188529853A850C0D1D1D27
:102AD0002E1D3F1DB701A60187E01CC0E091040335
:102AE000F0910503309709F4BECF8681882309F45D
:102AF000BACF0F81188529853A85C18AD28AE38A9F
:102B0000F48A0C0D1D1D2E1D3F1D058B168B278B6A
:102B1000308F83E00E945914A6CFE0910603F09114
:102B20000703309709F49FCF8681882309F49BCF50
:102B30000F81188529853A85C18AD28AE38AF48A69
:102B40000C0D1D1D2E1D3F1D058B168B278B308FE9
:102B500084E0E0CFE0910803F0910903309709F495
:102B600082CF8681882309F47ECF0F81188529853D
:102B70003A85C586D686E786F08A0C0D1D1D2E1D6A
:102B80003F1D018B128B238B348B85E0C3CFE091EB
:102B90000A03F0910B03309709F465CF86818823EF
:102BA00009F461CF0F81188529853A85C586D686B7
:102BB000E786F08A0C0D1D1D2E1D3F1D018B128B0B
:102BC000238B348B86E0A6CF8981E091FE02F091C1
:102BD000FF02882339F0813009F045CFE0910003EE
:102BE000F0910103309709F43ECFCF80D884E98477
:102BF000FA844C0D5D1D6E1D7F1D418B528B638BC6
:102C0000748B31CF2F923F924F925F926F927F924F
:102C10008F929F92AF92BF92CF92DF92EF92FF92EC
:102C20000F931F93CF93DF9300D000D0CDB7DEB7C3
:102C30002A013B0103E4809F90011124912C89011A
:102C4000C90182579C4F9A8389834BE0842E1901D6
:102C50009EE4290E311CE981FA818081981608F0E2
:102C6000A0C0A92CB12CC801899C800D911D1124F4
:102C700082509D4FFC01E25BFF4F2081233039F1F0
:102C8000805B9F4FFC018081893021F09091E304AB
:102C900089131DC08A9CF0018B9CF00D1124E00F5C
:102CA000F11FE15BFC4FC080D180E280F380C11452
:102CB000D104E104F10469F4B301A201C101989CBB
:102CC000800D911D112482509D4F0E9406159394F2
:102CD000C2CFC40CD51CE61CF71CE1EEF3E090E07B
:102CE00080E02081211125C024E0880F991F2A95BA
:102CF000E1F7DC01AE52BC4F8A9CF0018B9CF00DD9
:102D00001124E00FF11FE45BFC4F282D01900D9280
:102D10002A95E1F782509D4FFC01E152FF4FC0829E
:102D2000D182E282F3828D519F4F21E0FC0120830A
:102D3000CECF019670968031910599F685EB99E09A
:102D40000E945D0B8A9CC0018B9C900D1124800F0A
:102D5000911F82509D4F9C838B83FC01E25BFF4F50
:102D6000608170E090E080E04AE00E9476138AEA99
:102D700099E00E945D0BEB81FC81E15BFF4F60817C
:102D800070E090E080E04AE00E94761389E999E0E3
:102D90000E945D0BC701B6010E94BA130E9448143D
:102DA00096CF0F900F900F900F90DF91CF911F91C2
:102DB0000F91FF90EF90DF90CF90BF90AF909F90DA
:102DC0008F907F906F905F904F903F902F900895DD
:102DD0000F931F93CF93DF938C01D62FC42F89E4D9
:102DE00097E00E945D0BC8010E945D0B8EE397E0A7
:102DF0000E945D0B84E297E0DD2311F08AE297E008
:102E00000E945D0B8FE297E00E945D0B89E197E0E5
:102E1000CC2311F08FE197E00E945D0BDF91CF9101
:102E20001F910F910C944814CF92DF92EF92FF9272
:102E30000F931F93CF938C01C62F69017A018FEFF7
:102E400096E00E945D0BC8010E945D0B84EF96E046
:102E50000E945D0B8CED96E0CC2311F082EE96E0A3
:102E60000E945D0B87EE96E00E945D0BC701B601E4
:102E70000E94BA13CF911F910F91FF90EF90DF90B6
:102E8000CF900C9448147F928F929F92AF92BF92F2
:102E9000CF92DF92EF92FF920F931F93CF93DF9326
:102EA000EC01762E49015A016701780182EC96E027
:102EB0000E945D0BCE010E945D0B87EB96E00E94A5
:102EC0005D0B81E996E0772011F087E996E00E949A
:102ED0005D0B89EA96E00E945D0BC501B4010E947A
:102EE000BA138CE996E00E945D0BC701B6010E94FF
:102EF000BA13DF91CF911F910F91FF90EF90DF9068
:102F0000CF90BF90AF909F908F907F900C9448147B
:102F1000EF92FF920F931F93CF937C018B01C42FED
:102F20008AEF95E00E945D0BC7010E945D0B8EEE5B
:102F300095E00E945D0BC8010E945D0B83EE95E059
:102F40000E945D0B88ED95E0CC2311F08EED95E0AD
:102F50000E945D0BCF911F910F91FF90EF900C9409
:102F60004814CF92DF92EF92FF920F931F93CF936B
:102F7000DF938C01EB0169017A018EEB95E00E94F1
:102F80005D0BC8010E945D0B82EB95E00E945D0B1A
:102F9000CE010E945D0B87EA95E00E945D0BC701A0
:102FA000B6010E94BA13DF91CF911F910F91FF904C
:102FB000EF90DF90CF900C944814009711F00C9490
:102FC000691390E080E00895EF92FF920F931F93B2
:102FD000CF93DF93C091FE02D091FF02882321F0AE
:102FE000C0910003D0910103209709F472C06130B1
:102FF00009F469C008F464C0623009F467C096EF50
:10300000E92E98E0F92E811104C08FEFE82E88E0B8
:10301000F82E87E699E00E945D0BC7010E945D0BC8
:103020008EE599E00E945D0B6C8170E090E080E09D
:103030004AE00E94761383E499E00E945D0BC80188
:103040000E945D0B8EE299E00E945D0B6A8D7B8D84
:103050008C8D9D8D0091D2041091D3042091D404C5
:103060003091D504601B710B820B930B0E94BA1335
:103070008CE199E00E945D0B6E8D7F8D88A199A1F6
:103080000091D2041091D3042091D4043091D5043E
:10309000601B710B820B930B0E94BA138BE099E0BB
:1030A0000E945D0BCE010D960E94DD1788E099E02D
:1030B000DF91CF911F910F91FF90EF900C94ED1342
:1030C00002E919E09CCF09E819E099CF01E819E07D
:1030D00096CFDF91CF911F910F91FF90EF900895C0
:1030E0009091DA04911104C09091DB04992371F05E
:1030F0009091DC0491110AC06091E104882321F0D1
:10310000813021F46091E2040C94E4170895CF9388
:10311000DF93EC016E838AE595E00E945D0B8F8161
:1031200098850E94DD1781E595E00E945D0B8C81FA
:10313000082E000C990B0E94BD1387E495E00E94B5
:103140005D0B8E8181110AC085E395E00E945D0BC5
:1031500084E495E0DF91CF910C94ED138EE395E03C
:10316000F5CF60E080911001909111010E948718C5
:1031700060E080911201909113010E94871860E035
:1031800080911401909115010E94871860E0809150
:103190001601909117010E94871860E08091180134
:1031A000909119010E94871860E080911A01909116
:1031B0001B010E94871860E080911C0190911D0105
:1031C0000E94871880911E0190911F01009719F0AD
:1031D00060E00E9487188091200190912101009762
:1031E00019F060E00C94FB1308951F93CF93DF93C5
:1031F000EC01162F8E81882321F060E0CE010E9421
:1032000087188D81813021F460E08C810E940D0748
:103210001C836D81812F0E943B078D81813021F4B9
:1032200060E08C810E940D078DE895E00E945D0BA7
:103230008F8198850E94DD1784E795E00E945D0BE1
:103240008C81082E000C990B0E94BD13DF91CF9149
:103250001F910C944814CF93DF93EC010E94F51852
:103260008C810E94E40621E0892B09F420E02A8762
:103270008C810E94E40621E0892B09F420E02B8751
:103280008C810E94E40621E0892B09F420E02C8740
:103290001D8A1E8A1F8A188EDF91CF9108959F92F2
:1032A000AF92BF92CF92DF92EF92FF920F931F9354
:1032B000CF93DF938A01452B09F468C0E9016B01C4
:1032C0006596FC016081CE010E94990DFC01BB2432
:1032D000BA94892B09F0B5807601E894F7F8AA240E
:1032E000A3946701C00ED11E99249394309709F4DA
:1032F0004DC0AA2009F43FC08481843069F0853034
:1033000049F1823079F5DF010D900020E9F711973E
:10331000CD018E1B9F0B07C00190F081E02D90E046
:1033200080E0309781F79F77E816F90621F5D801FC
:10333000AC15BD05E1F46B2DCE01DF91CF911F914E
:103340000F91FF90EF90DF90CF90BF90AF909F9044
:103350000C94990DA081B181FD01349613968C9146
:1033600090E0E2CF90E080E0F0E0E0E0DDCF9D9102
:1033700081919817E9F2A9246B2DCE010E94990D35
:10338000FC01892B09F4B2CFB580B0CF90E080E08A
:10339000DF91CF911F910F91FF90EF90DF90CF9031
:1033A000BF90AF909F900895FC0120813181C901A9
:1033B0004A964281538164817581009759F0D90101
:1033C0005E96EC91E03211F090E080E0009711F011
:1033D0000C944F1990E080E00895CF93DF93EB01B8
:1033E0000E94D419009741F0FC012481263021F479
:1033F0008081DF91CF9108958881FBCFCF92DF92BA
:10340000EF92FF92CF93DF9300D000D01F92CDB701
:10341000DEB70E94D419DC01009709F445C0149668
:10342000EC911497E250ED3008F03EC0F0E0E55E1C
:10343000F54E0C94C838441A541A421A561A281ACF
:10344000541A541A541A361A541A361A541A5A1A42
:10345000CC908C2D0F900F900F900F900F90DF91CC
:10346000CF91FF90EF90DF90CF900895CD90DD90B9
:10347000ED90FC908FEFC816D104E104F10449F3FC
:1034800040F312C08D919C910E94920F3A834B831E
:103490005C836D83CA80DB80EC80FD80223051F339
:1034A000233041F3213051F0C12CD3CF8D919C9129
:1034B0000496EACFCD90DD90ED90FC9020E030E0D6
:1034C000A901C701B6010E94C33887FDEDCF20E0F6
:1034D00030E04FE753E4C701B6010E94F0351816FB
:1034E0001CF3C701B6010E949438C62EB2CFCF920A
:1034F000DF92EF92FF92CF93DF9300D000D01F9224
:10350000CDB7DEB70E94D419DC01009709F44AC098
:103510001496EC911497E250ED3008F043C0F0E0BF
:10352000EC56F54E0C94C838C21AD21AC01AD61AE4
:10353000A11AD21AD21AD21AB11AD21AB61AD21A99
:10354000DA1A6C9170E090E080E00F900F900F908D
:103550000F900F90DF91CF91FF90EF90DF90CF9081
:1035600008956D917D918D919C91EFCF8D919D915D
:103570000D90BC91A02DB7FD15C0BC01CD01E5CFCC
:103580008D919C910E94920F3A834B835C836D8353
:10359000CA80DB80EC80FD80223041F1233041F194
:1035A000213061F060E070E0CB01CFCF8D919C9134
:1035B0000496E8CFCD90DD90ED90FC9020E030E0D7
:1035C000A901C701B6010E94C33887FDEBCF2FEFD9
:1035D0003FEF4FE75FE4C701B6010E94F0351816D0
:1035E0000CF3C701B6010E949438AFCFF7FCDACFD5
:1035F000C701B601AACF8F929F92AF92BF92CF928E
:10360000DF92EF92FF920F931F93CF93DF9300D03F
:1036100000D000D0CDB7DEB749015A01670178016B
:10362000FB0101900020E9F73197E61BF70B9A8325
:1036300089837C836B83ED838F2F8F778E83CE017D
:1036400001960E94D4190097B9F0FC0124812A3018
:1036500041F02C3089F480819181A281B381B7FD42
:103660000BC0CE0101960E94771A86169706A8060F
:10367000B90610F44B015C01C501B401C616D706AA
:10368000E806F90610F4C701B60126960FB6F894BD
:10369000DEBF0FBECDBFDF91CF911F910F91FF9085
:1036A000EF90DF90CF90BF90AF909F908F90089554
:1036B000CF92DF92EF92FF92CF93DF9300D000D0B2
:1036C0001F92CDB7DEB70E94D419DC01009709F430
:1036D00046C01496EC911497E250ED3008F03FC0CC
:1036E000F0E0EB58F44E0C94C838B41BAF1BB21B7F
:1036F000C51B821BAF1BAF1BAF1B911BAF1B9E1BC0
:10370000AF1BC91B6C9170E0CB010F900F900F9015
:103710000F900F90DF91CF91FF90EF90DF90CF90BF
:1037200008958D919D910D90BC91A02D811520E85B
:103730009207A105B10598F4BC01E6CF8D919D914A
:103740000D90BC91A02D6C017D0120E8D20EE11CF2
:10375000F11CC114D10421E0E206F10468F370E029
:1037600060E0D2CF8D919C910E94920F3A834B835F
:103770005C836D83CA80DB80EC80FD80223031F178
:10378000233081F1213059F708C08D919C91049626
:10379000EBCFCD90DD90ED90FC9020E030E040E06C
:1037A00057ECC701B6010E94C33887FDD8CF20E08F
:1037B0003EEF4FEF56E4C701B6010E94F0351816F0
:1037C00074F2C701B6010E948D389ECFD701C601A1
:1037D0009058AF4FBF4F0097A140B10508F0BFCF41
:1037E000B60192CFC11480E8D806E104F104C0F319
:1037F000B6CF4F925F926F927F92AF92BF92CF926D
:10380000DF92EF92FF920F931F93CF93DF939091EC
:10381000DA04911105C09091DB04992309F4EAC000
:103820009091DC049111E6C0823008F0E3C08093EF
:10383000E30481110AC0E091FE02F091FF0230978B
:1038400059F481E08093E104D5C0E0910003F09148
:103850000103309709F487C09089992309F480C047
:103860000189128923893489041715072607370728
:1038700008F482C0882309F4CCC082E08093E2047B
:10388000B9C08F898F5F8F8B9D89891708F4ADC070
:103890008FA5843658F40E949835A30192010E94A6
:1038A00014378FA5681710F01F8A9FC01F8A888D54
:1038B000882351F09D899501281B31099217130621
:1038C00009F05CF4890F8D8B8B89823008F08DC0F4
:1038D000B701A6010E94021688C087ED90E00E9401
:1038E0005D0B6D8970E090E080E04AE00E94761305
:1038F00084ED90E00E94ED13E7CFCD8EDE8EEF8E4B
:10390000F8A273C08DA5811170C089A19AA1ABA145
:10391000BCA1A7019601281B390B4A0B5B0BDA01EE
:10392000C901B7FD62C08DA19EA1AFA1B8A58C1938
:103930009D09AE09BF09181619061A061B060CF0D8
:1039400054C08FA5843610F00DA7BECF0E949835C5
:10395000A30192010E9414378FA56817A8F345C0F0
:10396000882309F46ECF81E089CF1092E104E091C1
:10397000FE02F091FF0208C08823B9F31092E2041E
:10398000E0910003F0910103309781F00091D6049B
:103990001091D7042091D8043091D904040F151F39
:1039A000261F371F018B128B238B348B6A017B01FF
:1039B000182FCEEFD2E0AA24AA94B12C94E6492E77
:1039C000512C612C712C01E08C89882371F08EA51B
:1039D000893011F0181309C08A89813009F48DCF1C
:1039E00008F44FCF823009F48DCF6E9633E0CA339E
:1039F000D30751F7DF91CF911F910F91FF90EF9077
:103A0000DF90CF90BF90AF907F906F905F904F907E
:103A1000089582E017CFBF92CF92DF92EF92FF928C
:103A20000F931F93CF93DF93EC01198D1F3F81F00C
:103A3000612F45960E94990DFC018081898F3097F6
:103A400009F477C014828FEF8583BF01812F76C080
:103A50006C0135E0C30ED11CE880F9808F89882382
:103A600041F0C6010E942B0EE62FF72F182F30973A
:103A700049F71F89988D191324C0103109F459C0D2
:103A8000110F6D897E89D701ED91FC91B4E01B9FE8
:103A9000A0011124C616D70609F044C00190F08198
:103AA000E02DBA01C7010995009709F442C020E151
:103AB000F601DC0101900D922A95E1F79E8B8D8B2A
:103AC000188F0D891E898F8921E0280F2F8BE4E044
:103AD0008E9FC0011124080F191F90E1B92E2031CB
:103AE00011F48FE0B82EF6E0BF9EB0011124D7018B
:103AF000ED91FC910190F081E02DC7010995F8014D
:103B000093838283892B09F4B12CD801BC9211963E
:103B10001C92012B71F0C6010E942B0EE62FF72F8D
:103B2000182F8DCF0480F581E02DC70109950097EE
:103B300029F681E08A8360E070E08FEFDF91CF911A
:103B40001F910F91FF90EF90DF90CF90BF9008955D
:103B50004F925F926F927F928F929F92AF92BF929D
:103B6000CF92DF92EF92FF920F931F93CF93DF9349
:103B700000D000D01F92CDB7DEB78C017B01B42EF0
:103B80000E94090E6C01892B09F048C0C8010E94EF
:103B9000C50D863609F4A9C124F5873229F08B3585
:103BA00061F1823209F0A8C1D80115961C921E92CB
:103BB000149712968D919C911397892B39F48D91BE
:103BC0009C910E948A05F80193838283C8010E9418
:103BD00067116C01892B11F5B701C8010E944612CB
:103BE0001DC0843709F460C18B3709F47BC08E3661
:103BF00009F082C164EB71E060C180E4D7011496E2
:103C00008C931497E114F10421F08FEF8C931196AB
:103C10008C93B1101AC025E0C22ED12CC6010F9092
:103C20000F900F900F900F90DF91CF911F910F91F8
:103C3000FF90EF90DF90CF90BF90AF909F908F90CC
:103C40007F906F905F904F900895F8011286C801A1
:103C50000E94090E009751F56DE5C8010E94D50D2F
:103C60008111DCCFBA94D8011B966D907C90C30172
:103C70000E940B1DA82E4B01672B21F494E0C92E46
:103C8000D12CCCCFF70161816F3F91F0C3014596F4
:103C90000E94990DDC011596AC92F701A1824B2D83
:103CA000B401C8010E94A81D009739F06C01B6CF7D
:103CB000D7018C9311968C93F2CFC8010E94090E04
:103CC0000097A1F76DE5C8010E94D50D8111A6CF1F
:103CD0006CE2C8010E94D50D8111C5CF83E0C82ECA
:103CE000D12C9CCF80E2F7018483E114F10419F018
:103CF0008FEF80838183BB2009F48DCFD8011A9682
:103D00001C92C8010E94090E009781F66DE7C80158
:103D10000E94D50D811182CFBA94F80115821482C8
:103D200082819381892B49F4808191810E948A0547
:103D3000D80113969C938E931297C8010E94C50DCB
:103D40008732F9F08232E9F0C8010E94C50DD82E01
:103D50000E94B30D882311F2F80112866D2DC8015F
:103D60000E943911C8010E94C50DD82E0E94B30DC2
:103D70008111F2CFD80112968D919C91892B41F43B
:103D80007DCFC8010E9467116C01892B09F046CFD5
:103D9000C8010E94090E6C01892B09F03FCF6AE32C
:103DA000C8010E94D50D882309F498CFD801129636
:103DB000ED91FC91139714968D919C911597E80FB6
:103DC000F91F148214966D917C9115977F771B963D
:103DD0006D907C901C9712968D919C910496272F44
:103DE0002F77BA2DB078AB2EA22AE894A7F89301CA
:103DF000AC017A2DC7010E944F196C01009761F543
:103E0000C3010E940B1D482E4B01672B09F436CFCE
:103E1000C3010E940B1D582E962FC92ED72EC114F8
:103E2000D10409F42BCFF4015582D70111966C917E
:103E30006F3F71F0C30145960E94990DFC014582C8
:103E4000D70111965C92B401C8010E94461207C0C6
:103E5000F70140825182F7CFB3010E94E3124B2D4C
:103E6000B601C8010E94A81D6C01892B09F0D6CEAD
:103E7000C8010E94090E6C01892B09F0CFCE6DE7B5
:103E8000C8010E94D50D8111C9CE6CE2C8010E9403
:103E9000D50D882309F422CFC8010E94090E6C01B8
:103EA000892B09F43ACFBACE86E0D70114968C93C9
:103EB000149781E08C9369EA71E0C8010F900F902C
:103EC0000F900F900F90DF91CF911F910F91FF9066
:103ED000EF90DF90CF90BF90AF909F908F907F90AA
:103EE0006F905F904F900C94E60D86E0F70184830D
:103EF00010826EEA71E0E1CFC8010E94C50D480151
:103F0000FDE08F0E911CB12C782CA92C803384F00D
:103F10008A3384F43FE3B316A9F0D8011A961C92B1
:103F2000B394F40181934F01C8010E94C50DEECFF7
:103F30008B3281F393ED980F923060F3982F9F7D31
:103F4000953441F30B0D111DD8011D961C92872D40
:103F50009A2D0E94920F3A834B835C836D838A81F2
:103F60009B81AC81BD812230A9F0233059F02130F2
:103F700009F0B4CE2EE0F701248380839183A283DD
:103F8000B3834CCE2AE0F701248380839183A283FC
:103F9000B38344CE2CE0F7CF4F925F926F927F9223
:103FA0008F929F92AF92BF92CF92DF92EF92FF9249
:103FB0000F931F93CF93DF93CDB7DEB7CE5ED109BA
:103FC0000FB6F894DEBF0FBECDBF6E012EECC20E51
:103FD000D11C86E091E0F6019183808312821482E5
:103FE0001382C6010596968B858B178A84E0808F95
:103FF0008FEF818F168E878F9E012F5F3F4F590164
:1040000010E000E00E94D1076093690270936A0299
:1040100080936B0290936C0281E692E00E94AC0A5E
:1040200097FD02C00C94402D0E94D1074090690278
:1040300050906A0260906B0270906C02641975096E
:104040008609970940906502509066026090670269
:10405000709068026415750586059705E8F20F37BC
:10406000110561F481E692E00E94CE0A892B31F0BD
:1040700081E692E00E94AC0A0A97A1F7E1E0F0E045
:10408000EC0FFD1FE00FF11F10820530110578F0D5
:1040900045E050E069EB71E0CE0101960E94B03A34
:1040A000892B29F484E697E00E94ED1329C4F601D8
:1040B00060817181C60105960E94570EF601128239
:1040C00000811181F60183819481009751F0FC01F8
:1040D00020813181F60134832383B8010E94D912F3
:1040E000F1CF168ECF57DF4FD982C882C158D0404A
:1040F000CD57DF4F19821882C358D040CB57DF4FBE
:1041000019821882C558D040C957DF4F1882C75846
:10411000D04021E030E02C0F3D1FC857DF4F3983DE
:104120002883C858D040C557DF4F1882CB58D0409D
:10413000C457DF4FD982C882CC58D0404AE0B6017C
:10414000665E7F4FCE018F579F4F0E94A81D8C0146
:10415000892B69F4C657DF4F8881CA58D04088231D
:1041600031F0F601868D83FF02C003E010E0CD57E9
:10417000DF4F88819981C358D040009751F0CF57C5
:10418000DF4FE881F981C158D040608171810E9480
:10419000D91201151105F1F08DE195E00E945D0B3A
:1041A000F801EE0FFF1FE851FC4F859194910E949A
:1041B0005D0B8AE195E00E94ED1381E692E00E949A
:1041C000CE0A181619060CF09BC381E692E00E94F5
:1041D000AC0AF3CFCF57DF4FD982C882C158D04045
:1041E0008FEB91E0CD57DF4F99838883C358D04040
:1041F00083E0CB57DF4F8883C558D040CA57DF4F85
:104200001881C658D04010781068CA57DF4F1883FD
:10421000C658D040CE018F579F4F0E94D4190097A7
:1042200009F46EC3FC018481882309F469C3106812
:10423000CA57DF4F1883C658D040CE018F579F4FC3
:104240000E94581B8C01893DF1E09F0709F4F9C0D9
:104250000CF0A6C1883731E0930709F4F5C40CF0DF
:10426000F5C08733914009F4D9C3083381E01807BA
:104270000CF0B0C00D3291E0190709F4EEC20CF059
:1042800099C060E00C32F1E01F0709F4E7C2083E74
:10429000F1E01F0711F40C94B82C0CF042C60D3D50
:1042A000110511F40C9463290CF0D8C507361105DB
:1042B00011F40C945A2B0CF075C50536110511F448
:1042C0000C94AD2914F00C94512B0436110509F00F
:1042D000A7C480915702811113C30E94D1074B01DB
:1042E0005C018092530290925402A0925502B092C7
:1042F00056021092DA041092DC04E1EEF3E081EE53
:1043000094E0108270968E179F07D9F780E193E0B2
:104310000E94EA0B8EE293E00E94EA0BE091040314
:10432000F0910503309711F00C944C2BE0910603AB
:10433000F0910703309719F084810E94DE07E09125
:104340000803F0910903309721F060E084810E9416
:104350000D07E0910A03F0910B03309721F060E024
:1043600084810E940D07E0910C03F0910D033097BA
:1043700029F011A660E084810E940D0783E591E099
:104380000E945D0B80912C0290912D02A0912E0233
:10439000B0912F02A5019401281B390B4A0B5B0B2E
:1043A000CA01B9010E94BA130E94481481E08093A7
:1043B0005702A6C20F3221E0120709F40BC360E0D6
:1043C000063331E0130709F062CF80911601909116
:1043D000170148C2033741E0140709F446C23CF50F
:1043E000093381E0180709F052CF009116011091AE
:1043F00017010E94D107F801618B728B838B948B1C
:1044000085849684A784B088DC01CB01880D991D32
:10441000AA1DBB1D858B968BA78BB08F81E080A3D7
:1044200041E953E067E973E08CE993E0F4C20437B3
:1044300091E0190709F47FC20537E1E01E0709F092
:1044400026CF083D114009F47DC05AC28139F1E000
:104450009F0709F403C3CCF58E3731E0930709F4C5
:10446000DFC21CF58D37914009F011CFEE24EA949C
:10447000FE2C00E010E021E030E040E050E063EC92
:1044800071E0C6010E94FB1A9B01AC01E09116018C
:10449000F091170121873287438754876FEA73E0D1
:1044A00089EB93E00E94B1172BC2023881E0180714
:1044B00009F4DFC360E0003991E0190709F0E7CEA5
:1044C0008091180190911901CDC18B39E1E09E07CF
:1044D00009F4E8C27CF4833921E0920709F4C0C2F0
:1044E00060E08A39914009F0D2CE80911A01909112
:1044F0001B01B8C18D3941E0940709F4F5C2883D2C
:10450000914009F0C4CE10ECE12E17E2F12E09E043
:1045100010E021E030E040E050E06DEC71E0C601D9
:104520000E94FB1A9B01AC01E0911801F091190166
:10453000218732874387548763E873E08CE893E0F0
:104540000E94B117CF57DF4FD982C882C158D040DF
:104550008DEC91E0CD57DF4F99838883C358D040CD
:1045600088E0CB57DF4F8883C558D040CA57DF4F0C
:104570008881C658D04080788068CA57DF4F8883CA
:10458000C658D040CE018F579F4F0E94771A609334
:104590005A0570935B0580935C0590935D0517C287
:1045A0000F3982E0180709F4D5C20CF088C0053F26
:1045B000E1E01E0709F4BAC274F5023E21E01207D9
:1045C00009F472C2C4F40C3D41E0140709F05FCE57
:1045D00015E3E12EF12C00E010E022E030E040E0B5
:1045E00050E066ED71E0C6010E94FB1A809118014F
:1045F000909119013BC3063E51E0150709F44CC3E5
:1046000060E0043F81E0180709F041CE80911C0171
:1046100090911D0127C1083592E0190709F491C254
:10462000C4F40034F2E01F0709F031CE15E3E12EA7
:10463000F12C00E010E022E030E040E050E066EDD8
:1046400071E0C6010E94FB1A80911C0190911D012E
:104650000DC3093522E0120709F46AC20B3532E0B6
:10466000130709F014CE00911E0110911F010115CE
:10467000110509F445C10E94D107AB01BC01F80145
:10468000458B568B678B708F85859685A785B089FE
:10469000840F951FA61FB71F818F928FA38FB48F92
:1046A000FF24F394F6A2C8010E94440CF801F0A67E
:1046B00042E453E068E473E08DE493E0ACC1043875
:1046C00043E0140709F4B6C20CF075C0043A82E066
:1046D000180709F4F4C20CF054C0003AE2E01E07D7
:1046E00009F0D5CD10ECE12E17E2F12E09E010E033
:1046F00021E030E040E050E06DEC71E0C6010E9446
:10470000FB1A9B01AC01E0911E01F0911F01309753
:1047100051F0258736874787508B63E273E08CE240
:1047200093E00E94B117CF57DF4FD982C882C1589A
:10473000D0408DEC91E0CD57DF4F99838883C358EB
:10474000D04088E0CB57DF4F8883C558D040CA5748
:10475000DF4F8881C658D04080788068CA57DF4FC5
:104760008883C658D040CE018F579F4F0E94771A3A
:1047700060930F05709310058093110590931205B7
:1047800026C1093AF2E01F0709F431C20A3A22E0D1
:10479000120709F07CCDE0911E01F0911F013097C6
:1047A00009F4AEC081E085A346EF52E062E073E019
:1047B00087E093E030C1003D33E0130709F499C26C
:1047C00044F5053853E0150709F423C2073883E0A0
:1047D000180709F05CCDA0902001B0902101A11430
:1047E000B10409F41DC261E0F50180810E940D074A
:1047F00081E0F50185870E94D107F50166877787FB
:10480000808B918B40EE52E066EE72E08BEE92E090
:1048100002C1043394E0190709F4A8C20036E5E0A8
:104820001E0709F034CD8091120190911301892B5C
:1048300009F466C015E3E12EF12C00E010E022E05F
:1048400030E040E050E066ED71E0C6010E94FB1AE6
:104850008091120190911301A2C261E08091140134
:10486000909115010E9487184BC0EE24EA94FE2C0B
:1048700000E010E021E030E040E050E063EC71E067
:10488000C6010E94FB1A9B01AC01E0911401F0915A
:10489000150121873287438754876AED73E084EEE0
:1048A00093E00E94B117CF57DF4FD982C882C15819
:1048B000D04083EC91E0CD57DF4F99838883C35874
:1048C000D04089E0CB57DF4F8883C558D040CA57C6
:1048D000DF4F8881C658D04080788068CA57DF4F44
:1048E0008883C658D040CE018F579F4F0E94771AB9
:1048F0006093A0057093A1058093A2059093A305F2
:10490000C6010E944B13C251DF4F0FB6F894DEBFB1
:104910000FBECDBFDF91CF911F910F91FF90EF9010
:10492000DF90CF90BF90AF909F908F907F906F90CF
:104930005F904F90089510ECE12E17E2F12E09E000
:1049400010E021E030E040E050E06DEC71E0C601A5
:104950000E94FB1A9B01AC01E0911401F09115013A
:10496000258736874787508B6DEC73E086ED93E0A3
:104970000E94B117CF57DF4FD982C882C158D040AB
:104980008DEC91E0CD57DF4F99838883C358D04099
:1049900088E0CB57DF4F8883C558D040CA57DF4FD8
:1049A0008881C658D04080788068CA57DF4F888396
:1049B000C658D040CE018F579F4F0E94771A609300
:1049C000A4057093A5058093A6059093A7050E9462
:1049D0009C0E96CF00911401109115010E94D107F1
:1049E000F801618B728B838B948B85849684A7846A
:1049F000B088DC01CB01880D991DAA1DBB1D858BDC
:104A0000968BA78BB08F81E080A34EEB53E064ECD4
:104A100073E089EC93E00E94201472CF61E0D5CC62
:104A200010ECE12E17E2F12E09E010E021E030E079
:104A300040E050E06DEC71E0C6010E94FB1A9B0162
:104A4000AC01E0911601F091170125873687478761
:104A5000508B61EA73E08AEA93E024CD61E030CDC7
:104A600000911801109119010E94D107F801658782
:104A700076878787908B81849284A384B484DC01B9
:104A8000CB01880D991DAA1DBB1D818B928BA38B19
:104A9000B48B81E0858B43E753E069E773E08EE7F1
:104AA00093E0B9CF61E021CD10ECE12E17E2F12EB9
:104AB00009E010E021E030E040E050E06DEC71E012
:104AC000C6010E94FB1A9B01AC01E0911A01F09112
:104AD0001B01218732874387548764E673E08DE6A4
:104AE00093E00E94B11773CF00911A0110911B013E
:104AF0000E94D107F801658776878787908B81842C
:104B00009284A384B484DC01CB01880D991DAA1D75
:104B1000BB1D818B928BA38BB48B81E0858B43E58E
:104B200053E069E573E08EE593E075CF61E06ECD0B
:104B300080911E0190911F0161E0009709F092CED3
:104B4000DFCE80911E0190911F0160E0009709F077
:104B500089CED6CEEE24EA94FE2C00E010E021E0CF
:104B600030E040E050E063EC71E0C6010E94FB1AC7
:104B70009B01AC01E0911E01F0911F01309779F08B
:104B8000211531054105510521F0218732874387E1
:104B9000548762E373E08CE393E00E94B117CF5730
:104BA000DF4FD982C882C158D04083EC91E0CD5705
:104BB000DF4F99838883C358D04089E0CB57DF4FBC
:104BC0008883C558D040CA57DF4F8881C658D04027
:104BD00080788068CA57DF4F8883C658D040CE019E
:104BE0008F579F4F0E94FE1980930E0589CEE0914A
:104BF0001E01F0911F01309749F015A24DE053E0DE
:104C000068E173E08DE193E00E94201410923D0270
:104C1000DECE809120019091210161E0009789F41E
:104C20008EE191E00E945D0BC8010E94BD138CE1F2
:104C300091E03ACA8091200190912101009781F37F
:104C400060E00E94FB135CCE15E3E12EF12C00E046
:104C500010E022E030E040E050E066ED71E0C60197
:104C60000E94FB1A80911401909115010E94F51881
:104C700047CE15E3E12EF12C00E010E022E030E019
:104C800040E050E066ED71E0C6010E94FB1A8091A1
:104C9000160190911701EACF15E3E12EF12C00E007
:104CA00010E022E030E040E050E066ED71E0C60147
:104CB0000E94FB1A80911A0190911B01D7CF80911D
:104CC0001E0190911F01892B09F41ACE15E3E12EE4
:104CD000F12C00E010E022E030E040E050E066ED32
:104CE00071E0C6010E94FB1A80911E0190911F0184
:104CF000BDCF8091200190912101892B09F490CFA3
:104D000015E3E12EF12C00E010E022E030E040E07D
:104D100050E066ED71E0C6010E94FB1AF62E00918C
:104D2000200110912101F8018585882331F060E090
:104D300080810E940D07F8011586F801F08261E07C
:104D40008F2D0E943B0760E0F80180810E940D07D3
:104D50008CE992E00E945D0BF8018081082E000C26
:104D6000990B0E94BD130E944814CACD8091100176
:104D700090911101892B09F4C3CD15E3E12EF12C9B
:104D800000E010E022E030E040E050E066ED71E04D
:104D9000C6010E94FB1A80911001909111010E949E
:104DA0002B19AECD0936110509F43FC50CF4A0C48A
:104DB000093C110509F034CFCF57DF4FD982C882A3
:104DC000C158D04098EEA92E91E0B92ECD57DF4FB3
:104DD000B982A882C358D04015E0CB57DF4F188363
:104DE000C558D040CA57DF4F8881C658D040807818
:104DF0008068CA57DF4F8883C658D040CE018F578E
:104E00009F4F0E94FE190E949A06CF57DF4FD9820A
:104E1000C882C158D040CD57DF4FB982A882C3584D
:104E2000D040CB57DF4F1883C558D040CA57DF4F0B
:104E30008881C658D04080788068CA57DF4F888301
:104E4000C658D040CE018F579F4F0E94771A9B01C2
:104E5000AC0169E774E08FE794E024CB043831E0DB
:104E6000130709F485C50CF04CC00A3751E015074B
:104E700009F47EC5033881E0180729F0093791E06D
:104E8000190709F0CDCECF57DF4FD982C882C1585C
:104E9000D0408AED91E0CD57DF4F99838883C35886
:104EA000D04085E0CB57DF4F8883C558D040CA57E4
:104EB000DF4F8881C658D04080788068CA57DF4F5E
:104EC0008883C658D040CE018F579F4F0E94771AD3
:104ED000613C57E2750759E08507910520F060ECC9
:104EE00077E289E090E0013AE2E01E0709F0CFC0E6
:104EF0006093F5047093F6048093F7049093F8049C
:104F000066CD0E3DE1E01E0709F432C5073EF1E033
:104F10001F0709F4B8CF0D3D21E0120709F080CE3C
:104F2000B2CF083334E0130709F470C14CF5083EE2
:104F300053E0150709F4DEC084F40C3A92E0190737
:104F400009F4CCC00D3AE2E01E0709F4CDC0013AE5
:104F5000F2E01F0709F064CE96CF023324E0120777
:104F600009F4CAC0033334E0130709F4FDC0093E55
:104F700043E0140709F054CE61E08EEC95E072CC6A
:104F80000E3555E0150709F44FC104F5043195E0DD
:104F9000190709F447C10531E5E01E0709F43EC1D0
:104FA0000933F4E01F0709F03BCE81E08093DE0572
:104FB0008EEC95E0909305018093040141E066EE4C
:104FC00074E081EF94E00E9488179ACC043625E0C3
:104FD000120709F470C1053635E0130709F45CC106
:104FE0000F3545E0140709F01BCECF57DF4FD982AC
:104FF000C882C158D04028EEA22E21E0B22ECD5753
:10500000DF4FB982A882C358D04015E0CB57DF4F9D
:105010001883C558D040CA57DF4F8881C658D04042
:1050200080788068CA57DF4F8883C658D040CE0149
:105030008F579F4F0E94FE190E949A06CF57DF4F4D
:10504000D982C882C158D040CD57DF4FB982A882DB
:10505000C358D040CB57DF4F1883C558D040CA57EC
:10506000DF4F8881C658D04080788068CA57DF4FAC
:105070008883C658D040CE018F579F4F0E94771A21
:105080009B01AC0162EB74E088EB94E00BCA09373A
:10509000F1E01F0749F46093390270933A0280935C
:1050A0003B0290933C0293CC033821E0120709F4B1
:1050B00027CC0D3D114049F46093350270933602C0
:1050C000809337029093380282CC609331027093C0
:1050D0003202809333029093340279CC81E0809342
:1050E0003D021092300273CC81E080933D028093A8
:1050F00030026DCC60E041CFCF57DF4FD982C882FC
:10510000C158D04080EE91E0CD57DF4F998388831E
:10511000C358D04087E0CB57DF4F8883C558D04075
:10512000CA57DF4F8881C658D04080788068CA57F8
:10513000DF4F8883C658D040CE018F579F4F0E94C3
:10514000771A4B015C0180924F0290925002A0921C
:105150005102B09252020E946D06A501940169E0CD
:1051600075E081E195E09EC9CF57DF4FD982C882B3
:10517000C158D04038EEA32E31E0B32ECD57DF4FCB
:10518000B982A882C358D04015E0CB57DF4F1883AF
:10519000C558D040CA57DF4F8881C658D040807864
:1051A0008068CA57DF4F8883C658D040CE018F57DA
:1051B0009F4F0E94FE190E949A06CF57DF4FD98257
:1051C000C882C158D040CD57DF4FB982A882C3589A
:1051D000D040CB57DF4F1883C558D040CA57DF4F58
:1051E0008881C658D04080788068CA57DF4F88834E
:1051F000C658D040CE018F579F4F0E94771A9B010F
:10520000AC016AEF74E080E095E04CC91092DE05D5
:1052100040E062ED74E08DED94E0D5CE61E088EA87
:1052200095E020CB60E0FBCFCF57DF4FD982C8821B
:10523000C158D04080EE91E0CD57DF4F99838883ED
:10524000C358D04087E0CB57DF4F8883C558D04044
:10525000CA57DF4F8881C658D04080788068CA57C7
:10526000DF4F8883C658D040CE018F579F4F0E9492
:10527000771A4B015C0180924F0290925002A092EB
:105280005102B09252020E946D06A501940161EC98
:1052900074E089EC94E006C981E08093B80588EA5F
:1052A00095E0909305018093040141E06EE974E07C
:1052B00089EA94E088CE1092B80540E06AE874E08C
:1052C00085E994E080CEC251DF4F1882CE5ED04097
:1052D000CF57DF4FD982C882C158D0408EEE91E0BF
:1052E000CD57DF4F99838883C358D04085E0CB5793
:1052F000DF4F8883C558D040CA57DF4F8881C658D2
:10530000D04080788068CA57DF4F8883C658D04025
:10531000BE0162517F4FCE018F579F4F0E94ED1902
:10532000182F84E495E0112311F08EE295E090931C
:105330000E0180930D0185E0111186E080930F012D
:105340000E949C0E47E554E0112311F04CE554E017
:1053500062E674E08EE694E05ECB0E94D1074B01DA
:105360005C0180922C0290922D02A0922E02B092AB
:105370002F021092DB041092DC048092D2049092EF
:10538000D304A092D404B092D50481E08093DA04CF
:1053900080E193E00E94EA0B8EE293E00E94EA0B28
:1053A0000EEF12E0F8018489882341F08289813070
:1053B00009F043C1858E968EA78EB0A2025E1F4F64
:1053C000F3E00A331F0771F7E1EEF3E081EE94E0BA
:1053D000108270968E179F07D9F7E091FE02F09128
:1053E000FF02309721F0118A128A138A148AE09101
:1053F0000003F0910103309721F0118A128A138A79
:10540000148AE0910C03F0910D033097A9F0158AEE
:10541000168A178A108E118E128E138E148E158E88
:10542000168E178E10A211A212A213A214A216A2F7
:1054300017A210A681E081A70E949C0E88E592E049
:105440000E94ED138FE092E00E945D0B60914F028D
:105450007091500280915102909152020E94BA13B1
:105460008DEF91E00E945D0B809104019091050108
:105470008E5C954009F40DC183EC91E00E945D0BB8
:105480008AEF91E00E94ED13E090A405F090A5054D
:105490000091A6051091A7052091A0053091A105C6
:1054A0004091A2055091A3056091850586EF91E09A
:1054B0000E944317E0906B05F0906C0500916D051C
:1054C00010916E052091670530916805409169053E
:1054D00050916A056091640581EF91E00E94431745
:1054E00020915A0530915B0540915C0550915D0516
:1054F00060914A058CEE91E00E94141720913705C7
:10550000309138054091390550913A056091340544
:1055100086EE91E00E941417E0900F05F0901005C0
:10552000009111051091120520910E0530E050E018
:1055300040E06091EA0480EE91E00E9443171091F0
:10554000190589EA91E00E945D0B8BED91E00E94C4
:105550005D0B8EE991E00E945D0B83E991E01123E0
:1055600011F089E991E00E945D0B0E94481440917E
:10557000DE056091D40582ED91E00E94E81640912D
:10558000B8056091AE0589EC91E00E94E816809123
:105590002C0290912D02A0912E02B0912F02E09149
:1055A0001001F091110180839183A283B383E09174
:1055B0001201F091130180839183A283B383E09160
:1055C0001401F091150180839183A283B383E0914C
:1055D0001601F091170180839183A283B383E09138
:1055E0001801F091190180839183A283B383E09124
:1055F0001A01F0911B0180839183A283B383E09110
:105600001C01F0911D0180839183A283B383E091FB
:105610001E01F0911F01309721F080839183A283B6
:10562000B383E0912001F0912101309709F468C91A
:1056300081879287A387B48763C9823009F0BECE81
:1056400041A452A463A474A460E070E0CB011414DC
:1056500015041604170434F40E949835A30192012E
:105660000E941437680D791D8A1D9B1DF80161A3E6
:1056700072A383A394A381A592A5A3A5B4A5880D25
:10568000991DAA1DBB1D85A396A3A7A3B0A715A608
:1056900095CE86EC91E0F2CE84810E94DE070C94D8
:1056A00096218091DA0481110C9452200E94B11845
:1056B0000C9452200E94D1074B015C018091DA04C6
:1056C00081110FC00E94B2068092D2049092D3043E
:1056D000A092D404B092D504B501A40180E00E9448
:1056E00002164BE354E061E474E08CE494E093C967
:1056F000C251DF4F1882CE5ED040CF57DF4FD982E4
:10570000C882C158D04084EF91E0CD57DF4F9983D4
:105710008883C358D04086E0CB57DF4F8883C55875
:10572000D040CA57DF4F8881C658D0408078806803
:10573000CA57DF4F8883C658D040BE0162517F4FA1
:10574000CE018F579F4F0E94ED19182F0E94D1074D
:105750002091DA04211166C01093DB04112369F152
:105760006093D2047093D3048093D4049093D504AF
:105770000E94B20680E193E00E94EA0B8EE293E081
:105780000E94EA0BE091FE02F091FF02309721F0B7
:10579000118A128A138A148AE0910003F09101039E
:1057A000309721F0118A128A138A148A4091DB04FF
:1057B00066E274E080E394E006CC0E94B206E091D9
:1057C0000403F0910503309719F084810E94DE07ED
:1057D000E0910603F0910703309719F084810E944D
:1057E000DE07E0910803F0910903309721F060E0B3
:1057F00084810E940D07E0910A03F0910B0330971A
:1058000021F060E084810E940D07E0910C03F0918B
:105810000D03309721F060E084810E940D070E9403
:105820009C0EC4CF1111C2CFFACFC251DF4F1882E4
:10583000CE5ED040CF57DF4FD982C882C158D0400A
:105840008BEF91E0CD57DF4F99838883C358D040C9
:1058500086E0CB57DF4F8883C558D040CA57DF4F0B
:105860008881C658D04080788068CA57DF4F8883C7
:10587000C658D040BE0162517F4FCE018F579F4F17
:105880000E94ED19F82E0E94D1072091DA042223FC
:1058900001F1F092DC04FF2011F16093DD047093BC
:1058A000DE048093DF049093E0040E94B206E0914E
:1058B0000403F0910503309719F084810E94DE07FC
:1058C000E0910603F0910703309719F084810E945C
:1058D000DE074F2D6CE074E08BE194E074CB009117
:1058E000DD041091DE042091DF043091E004DC013E
:1058F000CB01801B910BA20BB30BEEEFF2E04AE35E
:1059000053E024892223A1F022892130B1F4058DAE
:10591000168D278D30A1011511052105310541F0A6
:10592000080F191F2A1F3B1F058F168F278F30A3C3
:105930007E964E175F0729F7CCCF2230C9F701A119
:1059400012A123A134A1080F191F2A1F3B1F01A375
:1059500012A323A334A305A116A127A130A5080FE4
:10596000191F2A1F3B1F05A316A327A330A7E0CFAB
:10597000CF57DF4FD982C882C158D04082E092E031
:10598000CD57DF4F99838883C358D04086E0CB57EB
:10599000DF4F8883C558D040CA57DF4F8881C6582B
:1059A000D04080788068CA57DF4F8883C658D0407F
:1059B000CE018F579F4F0E94D419FC01892B29F0EB
:1059C00084818A3039F08C30C1F0B12CA12C89E06F
:1059D000F82E25C080819181A281B38181159048E4
:1059E000A105B10590F7CE018F579F4F0E94581B1C
:1059F0005C01019771F4F12C12C080819181A28128
:105A0000B3819058AF4FBF4F0097A140B105E8F662
:105A1000EACFFF24F39482E0A816B104C1F60A3756
:105A200091E0190799F4F09203010E949C0E31E075
:105A3000F31220C0F092B8059501BB0C440B550B36
:105A400064EF73E081E094E00C9452220438E1E0CA
:105A50001E0719F4F0920201E8CF0E3DF1E01F0796
:105A600019F4F0920101E1CF083E1140F1F6F092F5
:105A70000001DBCFF110E0CF81E08093DE05DCCFC9
:105A80008A30910511F40C942F20F50181935F0168
:105A90000F5F1F4F0F37110511F00C9402200C946B
:105AA0002F20CB01BA010C94F339CB010C946A3945
:105AB000CB010C94CE381F920F920FB60F92112487
:105AC0002F933F938F939F93AF93BF9380915902EE
:105AD00090915A02A0915B02B0915C023091580201
