:100000000C9451050C943A2C0C94132C0C947905F7
:100010000C9479050C9479050C9479050C94612C59
:100020000C9479050C9479050C9479050C94790558
:100030000C9479050C9479050C9479050C94790548
:100040000C94C92B0C9479050C94E32C0C94BD2CC6
:100050000C9479050C9479050C9479050C94790528
:100060000C9479050C947905546F6F4465657000A4
:100070004E6F4D656D6F727900496E76616C696483
:10008000496E70757400496E636F6D706C65746550
:10009000496E70757400456D707479496E70757431
:1000A000004F6B00CDCCCC3D0AD7233C17B7D138DD
:1000B00077CC2B329595E6241FB14F0A00002041E2
:1000C0000000C84200401C4620BCBE4CCA1B0E5A51
:1000D000AEC59D74227D007B226C6576656C223AEC
:1000E00022303031222C22646576696365223A22FF
:1000F000434F4E54524F4C4C4552222C2264657350
:1001000063223A225052207468726573686F6C647F
:100110002063617070656420617420007D007B2223
:100120006C6576656C223A22303036222C2264656A
:100130007363223A22436F6D6D616E64206E6F743B
:1001400020666F756E64222C22636F6D6D616E6424
:10015000223A007B226C6576656C223A2230303779
:10016000222C22646576696365223A22434F4E54FD
:10017000524F4C4C4552222C226576656E74223AC1
:1001800022454E44222C2274696D657374616D7032
:10019000223A0066616C7365007472756500222CEA
:1001A0002261726D6564223A007B226C6576656C13
:1001B000223A22303030222C22646576696365222F
:1001C0003A22004C48005248007B226C6576656CF0
:1001D000223A22303030222C226F6D697373696F9E
:1001E0006E5F696E74657276616C223A004C45569A
:1001F00045525F4C48004C455645525F5248004CB2
:1002000049434B004C415345520050554D5032002C
:1002100050554D5000435545320043554500227D11
:10022000007B226C6576656C223A22303030222CBD
:1002300022646576696365223A22434F4E54524FD9
:100240004C4C4552222C22706172616469676D22A8
:100250003A224F4D495353494F4E222C2261637429
:100260006976655F6C65766572223A22007B226C46
:100270006576656C223A22303037222C226465760E
:10028000696365223A22434F4E54524F4C4C4552BB
:10029000222C226576656E74223A225354415254C0
:1002A000222C2274696D657374616D70223A307D01
:1002B000007B226C6576656C223A22303030222C2D
:1002C00022646576696365223A224D4943524F5351
:1002D000434F5045222C22706172616D223A227484
:1002E0007269676765725F70696E222C2276616C35
:1002F0007565223A0046495245440074657374009E
:100300004D4943524F53434F504500494E44455089
:10031000454E44454E54006D6F6465004C41534555
:100320005200434F4E54494E47454E54006D6F6442
:1003300065004C41534552006475726174696F6E7B
:10034000004C41534552006672657175656E637964
:10035000004C415345520046495245440074657370
:1003600074004C415345520046495245440074655F
:1003700073740050554D5032006475726174696F2A
:100380006E0050554D503200464952454400746548
:1003900073740050554D50006475726174696F6ECE
:1003A0000050554D500046495245440074657374E1
:1003B0000043554532006475726174696F6E004385
:1003C000554532006672657175656E6379004355F7
:1003D00045320046495245440074657374004355E4
:1003E00045006475726174696F6E0043554500661F
:1003F00072657175656E63790043554500A100967D
:100400000086007900700068006C657665725F6632
:10041000696C74657200434F4E54524F4C4C4552B8
:100420000073657373696F6E5F70617573656400E7
:10043000434F4E54524F4C4C455200746573745F99
:100440006D6F646500434F4E54524F4C4C45520003
:10045000464952454400746573745F636861696E10
:1004600000434F4E54524F4C4C4552006F6D6973D0
:1004700073696F6E5F696E74657276616C00434F6D
:100480004E54524F4C4C45520050554D5000505513
:100490004D5032006163746976655F70756D7000F0
:1004A000434F4E54524F4C4C4552007265696E6634
:1004B0006F72636564004C455645525F4C4800724C
:1004C00065696E666F72636564004C455645525FA0
:1004D0004C48007265696E666F72636564004C45D6
:1004E0005645525F5248007265696E666F72636569
:1004F00064004C455645525F524800227D007B22E5
:100500006C6576656C223A22303036222C22646586
:100510007363223A220044495341524D45440041FD
:10052000524D454400227D002C2264657363223ABB
:100530002200222C2270696E223A007B226C6576A2
:10054000656C223A22303031222C22646576696350
:1005500065223A2200222C22706172616D223A22B9
:1005600070696E222C2276616C7565223A007B22BE
:100570006C6576656C223A22303030222C2264651C
:1005800076696365223A2200222C2276616C7565B9
:10059000223A00222C22706172616D223A22007B85
:1005A000226C6576656C223A22303030222C22642F
:1005B0006576696365223A220066616C7365007432
:1005C00072756500222C2276616C7565223A0022D4
:1005D0002C22706172616D223A22007B226C65765A
:1005E000656C223A22303030222C226465766963B1
:1005F00065223A2200227D00222C2276616C7565EC
:10060000223A2200222C22706172616D223A22006D
:100610007B226C6576656C223A22303030222C22A7
:10062000646576696365223A220044495341524D1C
:1006300045440041524D454400227D002C22646512
:100640007363223A22007B226C6576656C223A2223
:10065000303031222C22646576696365223A224D5E
:100660004943524F53434F5045222C2270696E220A
:100670003A0066616C73650074727565002C2264C3
:1006800075726174696F6E223A002C226672657110
:1006900075656E6379223A00222C2261726D656461
:1006A000223A007B226C6576656C223A223030302B
:1006B000222C22646576696365223A220066616CA9
:1006C00073650074727565002C22647572617469BB
:1006D0006F6E223A00222C2261726D6564223A000C
:1006E0007B226C6576656C223A22303030222C22D7
:1006F000646576696365223A220066616C73650001
:10070000747275650066616C73650074727565005E
:100710002C227265696E666F72636564223A0022EC
:100720002C2261726D6564223A007B226C657665CD
:100730006C223A22303030222C226465766963655F
:10074000223A2200027B226C6576656C223A2230C6
:100750003030222C22646576696365223A22434F49
:100760004E54524F4C4C4552222C22736B6574638D
:1007700068223A226F6D697373696F6E5F6C69747A
:10078000652E696E6F222C2276657273696F6E22F8
:100790003A2276332E342E302D626574612E352246
:1007A0002C22626175645F72617465223A31313561
:1007B0003230302C227363686564756C65223A228E
:1007C0004F4D495353494F4E227D002C22656E6494
:1007D0005F74696D657374616D70223A002C2265D7
:1007E00076656E74223A224C49434B222C22737454
:1007F0006172745F74696D657374616D70223A0023
:10080000222C2270696E223A007B226C6576656C20
:10081000223A22303037222C2264657669636522C1
:100820003A22002C22656E645F74696D6573746191
:100830006D70223A002C226576656E74223A22533E
:1008400054494D222C2273746172745F74696D6512
:100850007374616D70223A007B226C6576656C2240
:100860003A22303037222C22646576696365223A59
:10087000224C41534552222C2270696E223A0000CC
:10088000000000240027002A0000000000250028A6
:10089000002B0000000000230026002900040404AF
:1008A0000404040404020202020202030303030319
:1008B00003010204081020408001020408102001F6
:1008C00002040810200000000800020100000304D8
:1008D0000700000000000000004C455645525F4CE8
:1008E00048004C455645525F524800227D002C225C
:1008F0006F7269656E746174696F6E223A22002CA2
:1009000022656E645F74696D657374616D70223AFF
:1009100000222C2273746172745F74696D65737444
:10092000616D70223A002C226576656E74223A223F
:100930005052455353222C22636C617373223A2226
:1009400000222C2270696E223A007B226C6576654B
:100950006C223A22303037222C2264657669636536
:10096000223A220054494D454F555400494E4143C7
:100970005449564500414354495645002C2273635F
:10098000686564756C65645F6174223A002C22743A
:100990006172676574223A007B226C6576656C2211
:1009A0003A22303036222C226572726F725F636F8A
:1009B0006465223A22455F50454E44494E475F46A2
:1009C000554C4C222C2264657363223A2250656E8A
:1009D00064696E6720616374696F6E2071756575F7
:1009E000652066756C6C20E2809420616374696F89
:1009F0006E2064726F70706564222C22616374696A
:100A00006F6E5F74797065223A005354494D004906
:100A10004E465553494F4E00494E465553494F4E49
:100A200000544F4E4500544F4E45004C41534552E3
:100A30000050554D505F320050554D505F310043CE
:100A400055455F32004355455F31002C22656E6489
:100A50005F74696D657374616D70223A00222C2297
:100A600073746172745F74696D657374616D702203
:100A70003A002C226576656E74223A2200222C22DE
:100A800070696E223A007B226C6576656C223A2290
:100A9000303037222C22646576696365223A220061
:100AA0006E2D11241FBECFEFD8E0DEBFCDBF12E008
:100AB000A0E0B1E0E2EEF2E702C005900D92AC33A7
:100AC000B107D9F725E0ACE3B2E001C01D92A33F26
:100AD000B207E1F715E0C1E5D5E004C02197FE01BA
:100AE0000E946237C035D107C9F70E942C300C94A0
:100AF0006F390C940000CF93DF93EC0188819981CA
:100B0000DC01ED91FC910190F081E02D64E270E058
:100B10000995009741F02FE1FC01238321E0228316
:100B2000DF91CF91089521E02A83FACFAF92CF923F
:100B3000EF920F93FC0191E090931B0310921C0322
:100B400090931D0340932203509323036093240347
:100B50007093250310922603109227031092280306
:100B60001092290389E08093370384E68093380349
:100B700010923B0394E0909399031092570383E003
:100B8000809358030093590310925A0310925B0309
:100B900010925C0310925D0340918F055091900577
:100BA000609191057091920540935E0350935F03AD
:100BB00060936003709361031092620390936303E8
:100BC000E09264031092650310926603109267032B
:100BD0001092680380916E0590916F05A091700549
:100BE000B09171058093690390936A03A0936B039E
:100BF000B0936C0310926D0320936E03263009F0BE
:100C0000AC2CA0926F03109270031092710310929B
:100C100072031092730381859285A385B4858093B6
:100C2000740390937503A0937603B09377031092A7
:100C3000780387E08093790389E080937A031092A8
:100C40007B0310927C0310927D0310927E038091AF
:100C5000FD049091FE04A091FF04B09100058093E3
:100C60007F0390938003A0938103B09382030F913D
:100C7000EF90CF90AF900895ECEEF3E01082709675
:100C800084E0EC3EF807D1F70895833081F028F432
:100C9000813099F08230A9F008958730A9F088302A
:100CA000C9F08430B1F4809180008F7D03C08091C1
:100CB00080008F7780938000089584B58F7784BDFE
:100CC000089584B58F7DFBCF8091B0008F7780939E
:100CD000B00008958091B0008F7DF9CFCF93DF935E
:100CE000282F30E0F901EB53F74F8491F901EF54CD
:100CF000F74FD491F901E356F74FC491CC23A1F0FB
:100D000081110E944506EC2FF0E0EE0FFF1FED561B
:100D1000F74FA591B491EC91ED2381E090E009F4B7
:100D200080E0DF91CF91089580E090E0FACF1F93AB
:100D3000CF93DF93282F30E0F901EB53F74F8491E5
:100D4000F901EF54F74FD491F901E356F74FC491ED
:100D5000CC23A9F0162F81110E944506EC2FF0E05C
:100D6000EE0FFF1FE757F74FA591B4918FB7F89497
:100D7000EC91111108C0D095DE23DC938FBFDF9179
:100D8000CF911F910895DE2BF8CFCF93DF9390E0A2
:100D9000FC01EF54F74F24918356974FFC01849147
:100DA0008823C9F090E0880F991FFC01E158F74FA4
:100DB000A591B491FC01E757F74FC591D49161110A
:100DC0000DC09FB7F8948C91209582238C938881D5
:100DD000282328839FBFDF91CF910895623051F47B
:100DE0009FB7F8943C91822F809583238C93E88160
:100DF0002E2BEFCF8FB7F894EC912E2B2C938FBF27
:100E0000EACF3FB7F8948091680290916902A0916F
:100E10006A02B0916B0226B5A89B05C02F3F19F05E
:100E20000196A11DB11D3FBFBA2FA92F982F88276A
:100E3000BC01CD01620F711D811D911D42E0660F45
:100E4000771F881F991F4A95D1F708958F929F9217
:100E5000AF92BF92CF92DF92EF92FF920E94010772
:100E60004B015C0184E6C82ED12CE12CF12C0E94B0
:100E70000107681979098A099B09683E7340810551
:100E80009105A8F321E0C21AD108E108F10888EE23
:100E9000880E83E0981EA11CB11CC114D104E1048A
:100EA000F10429F7FF90EF90DF90CF90BF90AF90C3
:100EB0009F908F9008952FB7F8946091640270917D
:100EC000650280916602909167022FBF0895089590
:100ED0009091080189130BC0E4E4F7E0E4919FEFDF
:100EE00090930801E13049F028F0E23061F060E0D1
:100EF0000C94970610926E00FACF90916F009D7F30
:100F000090936F00F4CF909170009D7F909370004C
:100F100091E09093B0009091B100987F946090938D
:100F2000B1001092B300E3CF4F925F926F927F9225
:100F30008F929F92AF92BF92CF92DF92EF92FF92E9
:100F40000F931F93CF93DF9300D000D01F92CDB7A4
:100F5000DEB78B0129013A01909108018917C9F088
:100F60009F3F09F47EC00F900F900F900F900F904D
:100F7000DF91CF911F910F91FF90EF90DF90CF9075
:100F8000BF90AF909F908F907F906F905F904F90A9
:100F90000895E4E4F7E094919D8397FDE4CF61E048
:100FA0000E94C5068D81882321F09D81923009F031
:100FB0004AC14801B12CA12C60E072E18AE790E0BF
:100FC000A50198010E94AE3529833A834B835C8347
:100FD00069017A0181E0C81AD108E108F1089FEFA0
:100FE000C916D104E104F10409F00CF401C160E474
:100FF00072E48FE090E0A50198010E94AE3569018E
:101000007A0181E0C81AD108E108F1089D81923087
:1010100009F0A2C08FEFC816D104E104F10409F071
:101020000CF4E6C160E970ED83E090E0A501980161
:101030000E94AE3569017A0191E0C91AD108E10830
:10104000F1088FEFC816D104E104F10411F00CF09F
:101050007FC183E09091B100987F892B8093B1008C
:10106000CFC080930801E4E4F7E094919D839F3F13
:1010700009F479CF913041F150F0923009F446C033
:101080009D8197FD70CF61E00E94C5068ECF14BC94
:1010900015BC94B5926094BD95B5916095BD282F0F
:1010A00030E0F901E356F74FE491F0E0EE0FFF1F57
:1010B000E757F74F45915491F901EF54F74FE491F9
:1010C000E0934E021D826BCF10928000109281003F
:1010D000909181009860909381009091810091603F
:1010E00090938100282F30E0F901E356F74FE49107
:1010F000F0E0EE0FFF1FE757F74F45915491F901CC
:10110000EF54F74FE491E0934D0249CF1092B000B5
:101110001092B1009091B00092609093B0009091C5
:10112000B10091609093B100282F30E0F901E356AF
:10113000F74FE491F0E0EE0FFF1FE757F74F4591AF
:1011400054915093580240935702F901EF54F74FCE
:10115000E491E093590223CF9FEFC916D104E10433
:10116000F10409F00CF46DC068E478EE81E090E0E1
:10117000A50198010E94AE3569017A0181E0C81A83
:10118000D108E108F1089D81992309F4FAC08FEF95
:10119000C816D104E104F10411F00CF0FBC0EFC05B
:1011A00064E274EF80E090E0A50194010E94AE3506
:1011B00069017A0181E0C81AD108E108F10885E0E7
:1011C0009FEFC916D104E104F10409F008F442CFFD
:1011D00062E17AE780E090E0A50194010E94AE35DB
:1011E00069017A0181E0C81AD108E108F108E5C077
:1011F00081E09D8191112ECF95B5987F892B85BD7A
:101200002FEF3FEFA901411451046104710409F06B
:1012100043C09D81913009F45EC0923009F46DC0E5
:101220009111A1CEC7BC2093530230935402409336
:1012300055025093560280916E00826080936E003A
:1012400092CE82E0D6CFB12CA12C60E072E18AE789
:1012500090E0A50198010E94AE3569017A0181E014
:10126000C81AD108E108F108C114D10491E0E906D7
:10127000F10404F591E08D81813011F680918100B7
:10128000887F892B809381002FEF3FEFA9014114C4
:10129000510461047104F9F0D801AA0FBB1FA30126
:1012A00092010E94CD3528EE33E040E050E00E94EC
:1012B0001736AFCF68E478EE81E090E0A5019801A1
:1012C0000E94AE3569017A0181E0C81AD108E108AF
:1012D000F10893E0D0CFD0928900C092880020938B
:1012E0004F0230935002409351025093520280912A
:1012F0006F00826080936F0036CEC092B30020935F
:101300005A0230935B0240935C0250935D028091DD
:10131000700082608093700026CE84E09FEFC91633
:10132000D104E104F10409F008F466CFC980DA8041
:10133000EB80FC808AE0F594E794D794C7948A9573
:10134000D1F781E0C81AD108E108F10885E054CF4F
:1013500068E478EE81E090E0A50198010E94AE3546
:1013600069017A0181E0C81AD108E108F1089FEF0C
:10137000C916D104E104F10411F00CF011CF84E09E
:1013800069CE83E09FEFC916D104E104F10409F0AE
:101390000CF432CF62E17AE780E090E0A50194019D
:1013A0000E94AE3569017A0181E0C81AD108E108CE
:1013B000F1089D81992309F4B0CF86E09FEFC9160B
:1013C000D104E104F10409F008F444CEC980DA80C4
:1013D000EB80FC809AE0F594E794D794C7949A95B3
:1013E000D1F781E0C81AD108E108F10887E032CED0
:1013F00082E030CEAF92BF92CF92DF92EF92FF9217
:101400000F931F93CF93DF936C017B018B01040F2C
:10141000151FEB015E01AE18BF08C017D10759F0C8
:101420006991D601ED91FC910190F081E02DC6010A
:101430000995892B79F7C501DF91CF911F910F9104
:10144000FF90EF90DF90CF90BF90AF900895FC0198
:10145000538D448D252F30E0842F90E0821B930B19
:10146000541710F0CF96089501970895FC01918DBF
:10147000828D981761F0A28DAE0FBF2FB11D5D96C2
:101480008C91928D9F5F9F73928F90E008958FEF64
:101490009FEF0895FC01918D828D981731F0828D18
:1014A000E80FF11D858D90E008958FEF9FEF08956F
:1014B000FC01918D228D892F90E0805C9F4F821BD3
:1014C00091098F73992708958CE692E00E94580A3B
:1014D00021E0892B09F420E0822F089580E090E03C
:1014E000892B29F00E94640A81110C940000089550
:1014F000FC01A48DA80FB92FB11DA35ABF4F2C9189
:10150000848D90E001968F739927848FA689B7897F
:101510002C93A089B1898C91837080648C93938D76
:10152000848D981306C00288F389E02D80818F7D19
:1015300080830895EF92FF920F931F93CF93DF93D1
:10154000EC0181E0888F9B8D8C8D98131AC0E889FF
:10155000F989808185FF15C09FB7F894EE89FF89CE
:101560006083E889F98980818370806480839FBF6C
:1015700081E090E0DF91CF911F910F91FF90EF906C
:101580000895F62E0B8D10E00F5F1F4F0F7311277C
:10159000E02E8C8D8E110CC00FB607FCFACFE889B7
:1015A000F989808185FFF5CFCE010E94780AF1CFBD
:1015B000EB8DEC0FFD2FF11DE35AFF4FF0829FB72B
:1015C000F8940B8FEA89FB8980818062CFCF0F93DB
:1015D0001F93CF93DF938C01D0E0C0E0F801EC0FB4
:1015E000FD1F6491662341F08CE692E00E949A0A06
:1015F000892B11F02196F2CFCE01DF91CF911F916F
:101600000F910895CF93DF93EC01888D8823B9F073
:10161000AA89BB89E889F9898C9185FD03C08081FD
:1016200086FD0DC00FB607FCF7CF8C9185FFF2CF7A
:10163000808185FFEDCFCE010E94780AE9CFDF914E
:10164000CF910895CF92DF92EF92FF921F93CF93A5
:10165000DF93EC016A017B018C810E946E0611E030
:10166000892B09F410E08B85181721F0CD8ADE8ACA
:10167000EF8AF88E8D899E89AF89B88DB701A60152
:10168000481B590B6A0B7B0B898D90E0B0E0A0E002
:1016900084179507A607B70798F48C85181781F06B
:1016A0001C878A851817A9F0CA8EDB8EEC8EFD8EFA
:1016B000EAA1FBA1309721F0B701A6018985099520
:1016C0001B87DF91CF911F91FF90EF90DF90CF901C
:1016D0000895CE8EDF8EE8A2F9A2ECA1FDA130978D
:1016E00079F389850995ECCFFC0115821386148660
:1016F000158616861786108A118A128A138A148A0A
:10170000158A168A138E8681882311F0848183833B
:101710000895CF92DF92EF92FF920F931F93CF9392
:10172000DF93EC018E81811103C08D89882369F1DB
:101730008C810D851E852F8538896A017B01C01A31
:10174000D10AE20AF30A9701860137FD18C0098918
:101750001A892B893C89401B510B620B730B1416A1
:101760001506160617065CF061E0DF91CF911F9118
:101770000F91FF90EF90DF90CF900C94970660E070
:101780000E9497068D8981111D8ADF91CF911F914B
:101790000F91FF90EF90DF90CF900895CF92DF925E
:1017A000EF92FF92CF93DF93EC0189859A85AB8509
:1017B000BC850097A105B10581F44D8F5E8F6F8FB9
:1017C00078A349A35AA36BA37CA31FA2DF91CF9157
:1017D000FF90EF90DF90CF9008956A017B01CD8E4E
:1017E000DE8EEF8EF8A2BC01CD010E948F349B01EA
:1017F000AC0160E070E080E89FE30E94B53620E035
:1018000030E040E05FE30E94F03420E030E04AE75F
:1018100054E40E94F03420E030E040E05FE30E94B6
:1018200049360E942E37C60ED71EE81EF91EC9A2E1
:10183000DAA2EBA2FCA28FA191E089278FA3C6CFE9
:10184000CF92DF92EF92FF92CF93DF93EC016A0188
:101850007B018D899E89AF89B88DAB019601281BCC
:10186000390B4A0B5B0BDA01C901B7FD49C0898D01
:101870009A8DAB8DBC8DAB019601281B390B4A0BA1
:101880005B0BDA01C901181619061A061B06C4F10A
:101890008EA18823A9F189859A85AB85BC8501979E
:1018A000A105B10551F461E08C81DF91CF91FF90EA
:1018B000EF90DF90CF900C94970689A19AA1ABA1ED
:1018C000BCA1AB019601281B390B4A0B5B0BDA015B
:1018D000C901B7FD04C0A601CE010E94CE0B8C81C8
:1018E0009FA1992311F061E0E0CF60E00E9497068C
:1018F0001FA2DF91CF91FF90EF90DF90CF900895DE
:1019000060E08C810E9497061FA2898D9A8DAB8D15
:10191000BC8DC81AD90AEA0AFB0A8EA1882331F0C5
:101920001C141D041E041F040CF41EA288A5882389
:1019300001F31C141D041E041F04DCF618A6D9CFE5
:101940008F929F92AF92BF92CF92DF92EF92FF92CF
:101950000F931F93CF93DF93EC018E81811104C00D
:1019600088A1882309F445C07B0189899A89AB89BC
:10197000BC894A015B01881A990AAA0ABB0AC501F7
:10198000B40197FD53C00D891E892F89388D4A01F6
:101990005701801A910AA20AB30A95018401101610
:1019A0001106120613060CF441C02A8D2223A9F158
:1019B0000C8D1D8D2E8D3F8D200F311F2115310572
:1019C00011F421E030E0FB8C50E040E00E9417363B
:1019D00060177107D8F4F1100AC069857A8520E094
:1019E00030E0A9018C810E94940781E08B8F81E017
:1019F000898FDF91CF911F910F91FF90EF90DF9032
:101A0000CF90BF90AF909F908F900895FF2079F373
:101A10008C810E9468071B8EEACF69857A8520E059
:101A200030E0A9018C810E949407E1CF898D882341
:101A300001F38C810E946807198E1B8E88A1882370
:101A4000C1F218A2D6CF6F3FA9F0E62FE295EF7052
:101A500044E0E49F90011124DC01ED91FC91E20F40
:101A6000F31F6F7082819381B6E06B9F800D911D93
:101A70001124089590E080E00895982F80336CF051
:101A80008A3324F08F3524F08B3724F481E00895D5
:101A900081341CF081E09B350CF080E00895FC015E
:101AA000828581110AC0A781B085CD0101969087FA
:101AB00087838C91818781E08287818508951F9338
:101AC000CF93DF93EC01162F0E944F0D811306C0B8
:101AD0001A8681E0DF91CF911F91089580E0FACFBF
:101AE0000F931F93CF93DF938C01EB018991882390
:101AF00069F0C8010E944F0D882379F0FE013197EB
:101B0000908198130DC0F8011286F0CF90E080E02C
:101B1000DF91CF911F910F91089582E090E0F8CF6F
:101B200083E090E0F5CFCF93DF93EC01CE010E94EC
:101B30004F0D8B304CF489305CF4882359F081E0F0
:101B40008E8390E080E00BC08D3011F08032B9F7C9
:101B50001A86ECCF8E81811105C081E090E0DF9183
:101B6000CF91089582E090E0FACFDC0152969C91EB
:101B70005297915084E0989F900111245096ED91D6
:101B8000FC91E20FF31F228133812115310579F099
:101B900041818081481758F481E0840F818386E079
:101BA000489F200D311D11242115310521F460E0DD
:101BB00070E08FEF0895B901892F8295807F840F9F
:101BC0000895DF92EF92FF920F931F93CF93DF93CD
:101BD000EC017B01D12C688979898A89D816E0F4D7
:101BE00084E0D89E80011124060F171FD801129699
:101BF0006D917C916115710541F0D701ED91FC91DA
:101C00000280F381E02DC7010995F8011382128249
:101C100010821182D394DFCF1A8A8FEF8C8BC61774
:101C2000D70761F0D701ED91FC910280F381E02D9F
:101C3000C7010995D98BC88B84E08B8BDF91CF913D
:101C40001F910F91FF90EF90DF900895AF92CF9288
:101C5000EF920F931F93CF93DF93C0910D01D0911B
:101C60000E0140910F01509110016091110170918E
:101C70001201A0900001C0900101E09002010091CA
:101C8000030120911301CE010E94960580919903D2
:101C90008430E0F1C553D54009F088C0409140023E
:101CA00050914102609142027091430200914802BA
:101CB0001091490220914A0230914B0200935A033D
:101CC00010935B0320935C0330935D0300936503E3
:101CD0001093660320936703309368034093700367
:101CE00050937103609372037093730340910105E5
:101CF00050910205609103057091040540937B03A8
:101D000050937C0360937D0370937E0390914C020B
:101D1000992309F454C0843018F083E08093780349
:101D20001092390381E080933A0380933B038093C0
:101D30003C0380933D0310923E0310923F031092A8
:101D4000550394E6909356038093DC0310929A0314
:101D500087E080939B0389E080939C038091010539
:101D600090910205A0910305B091040580939D0315
:101D700090939E03A0939F03B093A0038091FD04D2
:101D80009091FE04A091FF04B09100058093A103FF
:101D90009093A203A093A303B093A403DF91CF91E8
:101DA0001F910F91EF90CF90AF9008954091440212
:101DB00050914502609146027091470277CF109290
:101DC0003B03ECCF4F925F926F927F928F929F92E4
:101DD000AF92BF92CF92DF92EF92FF920F931F9339
:101DE000CF93DF9300D000D01F92CDB7DEB7DC01D8
:101DF0002C912B32E1F12D32D9F50196EE24E394AA
:101E0000FC01208130ED320F3A3010F02E3291F586
:101E10008C0160E070E0CB01F801219130ED832E60
:101E2000820E39E0381508F444C06A3949E974076C
:101E3000840749E1940708F046C0AAE0B0E09B019E
:101E4000AC010E94CD35912CB12CA12C240135017F
:101E5000409450946094709446165706680679062C
:101E600090F1680D791D8A1D9B1D8F01D5CF0196BC
:101E7000E12CC6CF198229813A814B815C816D8129
:101E800070E080E090E00F900F900F900F900F9017
:101E9000DF91CF911F910F91FF90EF90DF90CF9046
:101EA000BF90AF909F908F907F906F905F904F907A
:101EB0000895211108C0EE2051F1613071058105AE
:101EC00050E89507A0F0F12CBAE08B2E912CA12CB4
:101ED000B12C6115710530E883079105F8F0A50173
:101EE00094010E941736CA01B901F394F2CF22E09F
:101EF00029839B01AC0188279927DC01821B930B66
:101F0000A40BB50B8A839B83AC83BD83B4CF23E042
:101F100029836A837B838C839D83ADCFF801D801AD
:101F20002D918D0130ED320F3A3010F4F394F6CF4D
:101F30002E3201F58F010F5F1F4FF8010F5F1F4F0A
:101F40002081A0EDDA2ED20EB9E0BD1598F06C3CE0
:101F5000ECEC7E07ECE08E07910578F7AAE0B0E0A4
:101F60009B01AC010E94CD356D0D711D811D911D30
:101F7000FA94E3CF20812F7D10E000E0253409F0B2
:101F800050C021812D32B1F53296CC24C394DF01AB
:101F900010E000E02F2D0F2C000C330BEAE0BE2EDA
:101FA000FD01DD9040ED4D0D4A30B0F5B09EA00131
:101FB000B19E500D11240D2DDD0C110B0053110994
:101FC000040F151FA801420F531F4732510544F358
:101FD000CC20B9F080E090E0A0E0B0E8E11003C0D0
:101FE00080E090E0DC0121E029838A839B83AC833D
:101FF000BD8341CF2B3219F03196C12CC8CF329618
:10200000FCCF80E090E0A0E8BFEFE110ECCF80E0F3
:1020100090E0A0E8BFE7E7CFCC2019F0119501953B
:1020200011092081211126CF0F0D111DF7FC1A95E2
:102030000E948F344CEBA42E40E0B42E10161106F3
:102040003CF011950195110954EAA52E50E0B52EEA
:10205000D12CC12C01151105E9F0F6E0CF16D10401
:10206000A9F000FF0DC0F601EE0FFF1FEE0FFF1FDE
:10207000EA0DFB1D25913591459154910E94F03454
:10208000159507952FEFC21AD20AE4CF60E070E0F1
:1020900080EC9FE7E110905821E029836A837B83DD
:1020A0008C839D83E8CECF92DF92EF92FF920F93C5
:1020B0001F93CF93DF937C016B018A01FC01C081E8
:1020C000D1814F3F510509F0B0F4E881F9810480D6
:1020D000F581E02D4B5F5F4FCE010995009759F0D8
:1020E000FC010383DF91CF911F910F91FF90EF903F
:1020F000DF90CF900895E881F9810280F381E02D8F
:10210000B601CE01099581E0F701828390E080E07D
:10211000E9CF1F93CF93DF93EC01162F6A817B8168
:102120006115710589F04C815D81FB018381841704
:10213000150651F4440F551F4F5F5F4F88819981F9
:102140000E9453109B838A838A819B81009759F058
:102150002C813D81A9014F5F5F4F5D834C83820FCE
:10216000931FFC011483DF91CF911F9108959F92DB
:10217000AF92BF92CF92DF92EF92FF920F931F9395
:10218000CF93DF9300D000D01F92CDB7DEB78C0184
:102190000E944F0DD82EF8011286F12CE12C60EF31
:1021A000C62EC8010E944F0DF8011286D81609F4F8
:1021B000B3C0811113C082E090E00F900F900F9098
:1021C0000F900F90DF91CF911F910F91FF90EF90A3
:1021D000DF90CF90BF90AF909F9008958C3509F01D
:1021E00099C0C8010E944F0D882329F3EBE9F1E063
:1021F000853709F083C0F801128654E0952EB12C82
:10220000A12CC8010E944F0D8823A9F2813434F417
:102210008053803130F083E090E0CFCF8F7D8753C3
:10222000F8CF44E0AA0CBB1C4A95E1F7A82AF801B4
:1022300012869A949110E5CFC501985D811594405E
:1022400020F47501F3E0FF22ACCFC5019C5D811540
:102250009440A8F483E0B822B701762F6627770F61
:10226000770F6A297B2990E080E00196603871053C
:102270008105910540F4C8010E94891092CFB501F3
:1022800090E080E0F3CF1982262F2F7320682A83F5
:1022900026E096958795779567952A95D1F76032D0
:1022A000710580F4606C6B835E01E4E0AE0EB11CDE
:1022B000F50162915F01662309F473CFC8010E94A2
:1022C0008910F6CF262F2F7320682B8386E0769512
:1022D00067958A95E1F76031710538F4606E6C831B
:1022E0005E01F5E0AF0EB11CE3CF60686C83CD8278
:1022F0005E0126E0A20EB11CDBCF329690819923BD
:1023000009F489CF8913F9CF8181882309F483CF18
:10231000F8011286682FAFCF82819381892B19F43F
:1023200084E090E04ACF90E080E047CF6F927F92C8
:102330008F929F92AF92BF92CF92DF92EF92FF92D5
:102340000F931F93CF93DF93EC012A813B812C5F86
:102350003F4F4C815D814430510588F58901F90179
:1023600080E0942FB22FAE2FA21BA91730F4F1906A
:10237000A1E0F110A0E08A2BF6CF811120C082E00D
:10238000EB018C83FB01802F8B1B891728F4E8015C
:1023900089918E018193F7CF640F751FFB01108225
:1023A000DF91CF911F910F91FF90EF90DF90CF9031
:1023B000BF90AF909F908F907F906F9008958B010A
:1023C000F901E40FF51F1082888199814C815D81AC
:1023D000DC011396ED91FC913A01E89477F86901DC
:1023E000C60CD71C3097C1F0A381A615170481F441
:1023F00049017F01B4E0EB0EF11C8C149D0429F11E
:10240000D401AD904D01D701BD907D01AB14A9F36E
:102410000190F081E02DE6CF6A817B810E9453100C
:10242000FC01A881B98113968D919C911497918399
:1024300080831496FC93EE9313971B821A8285E097
:10244000E8018C83F983E883ABCF82818F5F82833D
:10245000F6CFDB01ED91FC9111970280F381E02D25
:10246000BC01CD010994AF92BF92CF92DF92EF925F
:10247000FF920F931F93CF93DF93EC018B018C811D
:1024800080FF24C0A881B981FB018381948130E061
:1024900020E00097D9F0A817B907D1F5F8016081BD
:1024A000718112968C911297815012968C9312978B
:1024B00081110CC08D919C9111972115310529F145
:1024C000F90191838083CD010E9429128C8180764D
:1024D00031F1209721F1F8805801F5E1AF0EB11CE0
:1024E0008FEFF816D1F06F2DC5010E94230D6C01FE
:1024F000FC01E580B8010E943312F801818DF601DC
:102500008083F801F18EFE2CEBCF94838383DBCFA5
:102510009C01FC0180819181BCCFF882F9821C82F0
:10252000DF91CF911F910F91FF90EF90DF90CF90AF
:10253000BF90AF9008950F931F93CF93DF93EC015B
:10254000088119818B819C81009749F0FC012081D1
:1025500031813C832B83B8010E942912F3CF68811B
:102560007981CE010596DF91CF911F910F910C9447
:10257000E10DFC0101900020E9F73197AF01481B04
:10258000590BBC018CE692E00C94FA098F929F9251
:10259000AF92BF920F931F93CF93DF93CDB7DEB768
:1025A000A1970FB6F894DEBF0FBECDBF19A242307F
:1025B00008F44AE08E010F5D1F4F842E912CB12C40
:1025C000A12CA50194010E941736E62FB901CA017A
:1025D000EA30F4F4E05DD801EE938D01232B242B37
:1025E000252B79F790E080E0109719F0CD010E943B
:1025F000B912A1960FB6F894DEBF0FBECDBFDF9122
:10260000CF911F910F91BF90AF909F908F900895A1
:10261000E95CE1CF4AE00C94C612CF92DF92EF92D0
:10262000FF92CF93DF936C01990FEE08FF08F7FE3E
:1026300019C06DE28CE692E00E949A0AEC016627CE
:102640007727CB016C197D098E099F094AE00E940A
:10265000C6128C0F9D1FDF91CF91FF90EF90DF90FE
:10266000CF9008954AE0C701B601DF91CF91FF9066
:10267000EF90DF90CF900C94C612CF93DF930E941F
:10268000E70AEC018EEA91E00E94B9128C0F9D1FBF
:10269000DF91CF9108950F931F93CF938C01C62F95
:1026A000FC01648386E496E00E94E70AF8018081D9
:1026B000082E000C990B0E940D138CE396E00E94EB
:1026C000E70A8AE296E0CC2311F083E396E00E94C9
:1026D000E70A89E396E0CF911F910F910C943D1387
:1026E000EF92FF920F931F93CF93DF937C018B01A7
:1026F000EA0180E196E00E94E70AC7010E94E70A2A
:1027000084E096E00E94E70AC8010E94E70A88EF89
:1027100095E00E94E70ACE010E94E70A85EF95E066
:10272000DF91CF911F910F91FF90EF900C943D138B
:10273000CF93DF936DE78CE692E00E949A0AEC015A
:102740008EEA91E00E94B9128C0F9D1FDF91CF910C
:1027500008954F925F926F927F928F929F92AF9265
:10276000BF92EF92FF920F931F93CF93DF932A01B3
:102770003B0148015901853009F480C008F061C06F
:10278000843009F46FC0E0910F03F09110031481BD
:10279000C6E2DAE045E4E42E4AE0F42E86E89AE068
:1027A0000E94E70AC7010E94E70A8DE79AE00E94AB
:1027B000E70A812F110F990B0E940D1382E79AE00F
:1027C0000E94E70ACE010E94E70A8DE59AE00E9486
:1027D000E70A8091DD049091DE04A091DF04B091BE
:1027E000E004A3019201281B390B4A0B5B0BCA01C1
:1027F000B9010E940A138BE49AE00E94E70A8091D3
:10280000DD049091DE04A091DF04B091E004A50105
:102810009401281B390B4A0B5B0BCA01B9010E94BA
:102820000A13DF91CF911F910F91FF90EF90BF900E
:10283000AF909F908F907F906F905F904F900C948F
:102840009813863039F1873009F09DCFE091170356
:10285000F09118031481CAE0DAE08BE2E82E8AE0F6
:10286000F82E9CCFE0911103F09112031481C1E284
:10287000DAE03FE3E32E3AE0F32E90CFE09113034A
:10288000F09114031481C8E1DAE028E3E22E2AE093
:10289000F22E84CFE0911503F09116031481CFE05E
:1028A000DAE091E3E92E9AE0F92E78CFCF92DF9229
:1028B000EF92FF920F931F93CF93DF93EC018881E8
:1028C000813009F4D1C06A017B01813090F08230FF
:1028D000D1F48BE193E00E94740B89E393E0DF91E4
:1028E000CF911F910F91FF90EF90DF90CF900C94BC
:1028F000740B8981853009F47DC070F48330F1F167
:10290000843009F45AC0DF91CF911F910F91FF904D
:10291000EF90DF90CF900895863009F488C087301B
:1029200091F7E0911703F0911803309761F38681D6
:10293000882349F385A18111E6CF8F819885A985E8
:10294000BA85C58AD68AE78AF08E8C0D9D1DAE1D8C
:10295000BF1D818F928FA38FB48F81E086A3CF019B
:102960000E94CE0B0F81188529853A850C0D1D1DFF
:102970002E1D3F1DB701A60187E01CC0E0910F038B
:10298000F0911003309709F4BECF8681882309F4B3
:10299000BACF0F81188529853A85C18AD28AE38A00
:1029A000F48A0C0D1D1D2E1D3F1D058B168B278BCC
:1029B000308F83E00E94A913A6CFE0911103F0911C
:1029C0001203309709F49FCF8681882309F49BCFA7
:1029D0000F81188529853A85C18AD28AE38AF48ACB
:1029E0000C0D1D1D2E1D3F1D058B168B278B308F4B
:1029F00084E0E0CFE0911303F0911403309709F4E1
:102A000082CF8681882309F47ECF0F81188529859E
:102A10003A85C586D686E786F08A0C0D1D1D2E1DCB
:102A20003F1D018B128B238B348B85E0C3CFE0914C
:102A30001503F0911603309709F465CF868188233A
:102A400009F461CF0F81188529853A85C586D68618
:102A5000E786F08A0C0D1D1D2E1D3F1D018B128B6C
:102A6000238B348B86E0A6CF8981E0910903F09116
:102A70000A03882339F0813009F045CFE0910B0338
:102A8000F0910C03309709F43ECFCF80D884E984CD
:102A9000FA844C0D5D1D6E1D7F1D418B528B638B27
:102AA000748B31CF2F923F924F925F926F927F92B1
:102AB0008F929F92AF92BF92CF92DF92EF92FF924E
:102AC0000F931F93CF93DF9300D000D0CDB7DEB725
:102AD0002A013B0103E4809F90011124912C89017C
:102AE000C90187569C4F9A8389834BE0842E190134
:102AF0009EE4290E311CE981FA818081981608F044
:102B0000A0C0A92CB12CC801899C800D911D112455
:102B1000875F9C4FFC01E25BFF4F2081233039F13E
:102B2000805B9F4FFC018081893021F09091EF0400
:102B300089131DC08A9CF0018B9CF00D1124E00FBD
:102B4000F11FE65AFC4FC080D180E280F380C114AF
:102B5000D104E104F10469F4B301A201C101989C1C
:102B6000800D911D1124875F9C4F0E9456149394F1
:102B7000C2CFC40CD51CE61CF71CECEEF3E090E0D1
:102B800080E02081211125C024E0880F991F2A951B
:102B9000E1F7DC01A352BC4F8A9CF0018B9CF00D45
:102BA0001124E00FF11FE95AFC4F282D01900D92DE
:102BB0002A95E1F7875F9C4FFC01E152FF4FC082ED
:102BC000D182E282F3828D519F4F21E0FC0120836C
:102BD000CECF019670968031910599F688E999E0FB
:102BE0000E94E70A8A9CC0018B9C900D1124800FE3
:102BF000911F875F9C4F9C838B83FC01E25BFF4F9F
:102C0000608170E090E080E04AE00E94C6128DE8AA
:102C100099E00E94E70AEB81FC81E15BFF4F608154
:102C200070E090E080E04AE00E94C6128CE799E0F4
:102C30000E94E70AC701B6010E940A130E94981376
:102C400096CF0F900F900F900F90DF91CF911F9123
:102C50000F91FF90EF90DF90CF90BF90AF909F903B
:102C60008F907F906F905F904F903F902F9008953E
:102C70000F931F93CF93DF938C01D62FC42F8AE23B
:102C800097E00E94E70AC8010E94E70A8FE197E0F7
:102C90000E94E70A85E097E0DD2311F08BE097E0E2
:102CA0000E94E70A80E197E00E94E70A8AEF96E037
:102CB000CC2311F080E097E00E94E70ADF91CF91EA
:102CC0001F910F910C949813CF92DF92EF92FF9285
:102CD0000F931F93CF938C01C62F69017A0180EE69
:102CE00096E00E94E70AC8010E94E70A85ED96E097
:102CF0000E94E70A8DEB96E0CC2311F083EC96E07E
:102D00000E94E70A88EC96E00E94E70AC701B60134
:102D10000E940A13CF911F910F91FF90EF90DF90C7
:102D2000CF900C9498137F928F929F92AF92BF9204
:102D3000CF92DF92EF92FF920F931F93CF93DF9387
:102D4000EC01762E49015A016701780183EA96E089
:102D50000E94E70ACE010E94E70A88E996E00E94F5
:102D6000E70A82E796E0772011F088E796E00E9474
:102D7000E70A8AE896E00E94E70AC501B4010E94CA
:102D80000A138DE796E00E94E70AC701B6010E9488
:102D90000A13DF91CF911F910F91FF90EF90DF9079
:102DA000CF90BF90AF909F908F907F900C9498138E
:102DB000EF92FF920F931F93CF937C018B01C42F4F
:102DC0008BED95E00E94E70AC7010E94E70A8FECAD
:102DD00095E00E94E70AC8010E94E70A84EC95E0AA
:102DE0000E94E70A89EB95E0CC2311F08FEB95E088
:102DF0000E94E70ACF911F910F91FF90EF900C94E2
:102E00009813CF92DF92EF92FF920F931F93CF937D
:102E1000DF938C01EB0169017A018FE995E00E9453
:102E2000E70AC8010E94E70A83E995E00E94E70AE1
:102E3000CE010E94E70A88E895E00E94E70AC701F0
:102E4000B6010E940A13DF91CF911F910F91FF905D
:102E5000EF90DF90CF900C949813009711F00C94A2
:102E6000B91290E080E00895EF92FF920F931F93C4
:102E7000CF93DF93C0910903D0910A03882321F0F7
:102E8000C0910B03D0910C03209709F472C06130FC
:102E900009F469C008F464C0623009F467C099EDB0
:102EA000E92E98E0F92E811104C082EEE82E88E028
:102EB000F82E8AE499E00E94E70AC7010E94E70A17
:102EC00081E499E00E94E70A6C8170E090E080E084
:102ED0004AE00E94C61286E299E00E94E70AC80111
:102EE0000E94E70A81E199E00E94E70A6A8D7B8DE2
:102EF0008C8D9D8D0091DD041091DE042091DF0406
:102F00003091E004601B710B820B930B0E940A133B
:102F10008FEF98E00E94E70A6E8D7F8D88A199A1BE
:102F20000091DD041091DE042091DF043091E00473
:102F3000601B710B820B930B0E940A138EEE98E0BC
:102F40000E94E70ACE010D960E942D178BEE98E0A5
:102F5000DF91CF911F910F91FF90EF900C943D1353
:102F600005E719E09CCF0CE619E099CF04E619E0DB
:102F700096CFDF91CF911F910F91FF90EF90089521
:102F80009091E604911104C09091E704992371F0A7
:102F90009091E80491110AC06091ED04882321F01A
:102FA000813021F46091EE040C9434170895CF938E
:102FB000DF93EC016E838BE395E00E94E70A8F813B
:102FC00098850E942D1782E395E00E94E70A8C8184
:102FD000082E000C990B0E940D1388E295E00E94C8
:102FE000E70A8E8181110AC086E195E00E94E70A16
:102FF00085E295E0DF91CF910C943D138FE195E050
:10300000F5CF60E080911401909115010E94D717CF
:1030100060E080911601909117010E94D71760E03F
:1030200080911801909119010E94D71760E080915A
:103030001A0190911B010E94D71760E080911C013A
:1030400090911D010E94D71760E080911E01909120
:103050001F010E94D71760E080912001909121010B
:103060000E94D7178091220190912301009719F0B7
:1030700060E00E94D717809124019091250100976C
:1030800019F060E00C944B1308951F93CF93DF93D6
:10309000EC01162F8E81882321F060E0CE010E9482
:1030A000D7178D81813021F460E08C810E949706D2
:1030B0001C836D81812F0E94C5068D81813021F492
:1030C00060E08C810E9497068EE695E00E94E70AF8
:1030D0008F8198850E942D1785E595E00E94E70A6B
:1030E0008C81082E000C990B0E940D13DF91CF915B
:1030F0001F910C949813CF93DF93EC010E94451815
:103100008C810E946E0621E0892B09F420E02A8739
:103110008C810E946E0621E0892B09F420E02B8728
:103120008C810E946E0621E0892B09F420E02C8717
:103130001D8A1E8A1F8A188EDF91CF9108959F9253
:10314000AF92BF92CF92DF92EF92FF920F931F93B5
:10315000CF93DF938A01452B09F468C0E9016B0125
:103160006596FC016081CE010E94230DFC01BB2409
:10317000BA94892B09F0B5807601E894F7F8AA246F
:10318000A3946701C00ED11E99249394309709F43B
:103190004DC0AA2009F43FC08481843069F0853095
:1031A00049F1823079F5DF010D900020E9F71197A0
:1031B000CD018E1B9F0B07C00190F081E02D90E0A8
:1031C00080E0309781F79F77E816F90621F5D8015E
:1031D000AC15BD05E1F46B2DCE01DF91CF911F91B0
:1031E0000F91FF90EF90DF90CF90BF90AF909F90A6
:1031F0000C94230DA081B181FD01349613968C911E
:1032000090E0E2CF90E080E0F0E0E0E0DDCF9D9163
:1032100081919817E9F2A9246B2DCE010E94230D0C
:10322000FC01892B09F4B2CFB580B0CF90E080E0EB
:10323000DF91CF911F910F91FF90EF90DF90CF9092
:10324000BF90AF909F900895FC0120813181C9010A
:103250004A964281538164817581009759F0D90162
:103260005E96EC91E03211F090E080E0009711F072
:103270000C949F1890E080E00895CF93DF93EB01CA
:103280000E942419009741F0FC012481263021F48A
:103290008081DF91CF9108958881FBCFCF92DF921B
:1032A000EF92FF92CF93DF9300D000D01F92CDB763
:1032B000DEB70E942419DC01009709F44AC0149675
:1032C000EC911497E250ED3008F043C0F0E0E5597E
:1032D000F64E0C9462379919A9199719AD197819F6
:1032E000A919A919A9198819A9198D19A919B11903
:1032F0006C9170E090E080E00F900F900F900F9035
:103300000F90DF91CF91FF90EF90DF90CF900895D5
:103310006D917D918D919C91EFCF8D919D910D90AF
:10332000BC91A02DB7FD15C0BC01CD01E5CF8D919D
:103330009C910E94E20E3A834B835C836D83CA802A
:10334000DB80EC80FD80223041F1233041F12130DF
:1033500061F060E070E0CB01CFCF8D919C9104963D
:10336000E8CFCD90DD90ED90FC9020E030E0A90119
:10337000C701B6010E945D3787FDEBCF2FEF3FEF0E
:103380004FE75FE4C701B6010E948A3418160CF3B8
:10339000C701B6010E942E37AFCFF7FCDACFC701C5
:1033A000B601AACF8F929F92AF92BF92CF92DF9237
:1033B000EF92FF920F931F93CF93DF9300D000D033
:1033C00000D0CDB7DEB749015A0167017801FB0192
:1033D00001900020E9F73197E61BF70B9A83898368
:1033E0007C836B83ED838F2F8F778E83CE01019645
:1033F0000E9424190097B9F0FC0124812A3041F081
:103400002C3089F480819181A281B381B7FD0BC0FA
:10341000CE0101960E944E1986169706A806B90697
:1034200010F44B015C01C501B401C616D706E806CD
:10343000F90610F4C701B60126960FB6F894DEBF60
:103440000FBECDBFDF91CF911F910F91FF90EF90F5
:10345000DF90CF90BF90AF909F908F900895CF92C4
:10346000DF92EF92FF92CF93DF9300D000D01F92B4
:10347000CDB7DEB70E942419DC01009709F446C0DD
:103480001496EC911497E250ED3008F03FC0F0E054
:10349000E45BF54E0C9462378B1A861A891A9C1AD3
:1034A000591A861A861A861A681A861A751A861A78
:1034B000A01A6C9170E0CB010F900F900F900F90BD
:1034C0000F90DF91CF91FF90EF90DF90CF90089514
:1034D0008D919D910D90BC91A02D811520E89207B2
:1034E000A105B10598F4BC01E6CF8D919D910D9099
:1034F000BC91A02D6C017D0120E8D20EE11CF11CD5
:10350000C114D10421E0E206F10468F370E060E048
:10351000D2CF8D919C910E94E20E3A834B835C83C3
:103520006D83CA80DB80EC80FD80223031F1233056
:1035300081F1213059F708C08D919C910496EBCF11
:10354000CD90DD90ED90FC9020E030E040E057EC35
:10355000C701B6010E945D3787FDD8CF20E03EEF5E
:103560004FEF56E4C701B6010E948A34181674F270
:10357000C701B6010E9427379ECFD701C6019058D8
:10358000AF4FBF4F0097A140B10508F0BFCFB601C4
:1035900092CFC11480E8D806E104F104C0F3B6CF9D
:1035A0002F923F924F925F926F927F928F929F9253
:1035B000AF92BF92CF92DF92EF92FF920F931F9341
:1035C000CF93DF939091E604911105C09091E704A9
:1035D000992309F44BC07090E804711047C0823001
:1035E00008F044C08093EF04811153C0E0910903B7
:1035F000F0910A03309709F052C091E09093ED04E6
:10360000911134C06A017B01182FC9E0D3E0612C0D
:10361000512C22242A94312C94E6892E912CA12C11
:10362000B12C442443940C89002389F08A89823088
:1036300009F4702E9EA5993011F0191308C081303D
:1036400009F494C008F443C0823009F494C06E9623
:1036500053E0C534D50739F7772009F4CAC06110A3
:10366000C8C081E01111C2C08093ED04DF91CF91F9
:103670001F910F91FF90EF90DF90CF90BF90AF9090
:103680009F908F907F906F905F904F903F902F9082
:103690000895E0910B03F0910C033097B1F09089FD
:1036A000992361F0018912892389348992E00417F2
:1036B00015072607370718F490E001C091E088232A
:1036C00009F49CCF9093EE049BCF91E0FBCF8F89C0
:1036D0008F5F8F8B9D89891708F4B9CF8FA58436AA
:1036E00058F40E943234A50194010E94AE358FA592
:1036F000681710F01F8AABCF1F8A288D222351F044
:103700003D89C101821B91093817190609F0F4F4AB
:10371000230F2D8B8B89823008F05CC043E4489FD7
:1037200090011124F901E756FC4F4081295A3C4F82
:1037300090E0491709F44EC0255F3F4FF9013B97D0
:103740005081513009F445C09F5FF3CF87ED90E081
:103750000E94E70A6D8970E090E080E04AE00E94F4
:10376000C61284ED90E00E943D13D4CFCD8EDE8E44
:10377000EF8EF8A26CCF8DA5811169CF89A19AA196
:10378000ABA1BCA1A7019601281B390B4A0B5B0B0F
:10379000DA01C901B7FD5BCF8DA19EA1AFA1B8A58C
:1037A0008C199D09AE09BF09181619061A061B06C1
:1037B0000CF04DCF8FA5843610F04DA6ABCF0E94F4
:1037C0003234A50194010E94AE358FA56817A8F385
:1037D0003ECF502E9A89923009F4602E823008F044
:1037E00036CFB701A6010E94521531CF8093EE0467
:1037F0003DCF8091E504882319F0552009F436CF98
:10380000E0910903F0910A03112321F0E0910B03E9
:10381000F0910C03309709F429CF4091E1045091C5
:10382000E2046091E3047091E404C40ED51EE61E28
:10383000F71EC18AD28AE38AF48A18CFBF92CF9248
:10384000DF92EF92FF920F931F93CF93DF93EC01E0
:10385000198D1F3F81F0612F45960E94230DFC01B9
:103860008081898F309709F477C014828FEF858328
:10387000BF01812F76C06C0135E0C30ED11CE880FA
:10388000F9808F89882341F0C6010E94B50DE62F8B
:10389000F72F182F309749F71F89988D191324C0D7
:1038A000103109F459C0110F6D897E89D701ED914E
:1038B000FC91B4E01B9FA0011124C616D70609F0A5
:1038C00044C00190F081E02DBA01C701099500972D
:1038D00009F442C020E1F601DC0101900D922A9525
:1038E000E1F79E8B8D8B188F0D891E898F8921E0C2
:1038F000280F2F8BE4E08E9FC0011124080F191FA1
:1039000090E1B92E203111F48FE0B82EF6E0BF9E81
:10391000B0011124D701ED91FC910190F081E02DCF
:10392000C7010995F80193838283892B09F4B12C8F
:10393000D801BC9211961C92012B71F0C6010E9415
:10394000B50DE62FF72F182F8DCF0480F581E02DD0
:10395000C7010995009729F681E08A8360E070E04D
:103960008FEFDF91CF911F910F91FF90EF90DF903C
:10397000CF90BF9008954F925F926F927F928F92F7
:103980009F92AF92BF92CF92DF92EF92FF920F93EE
:103990001F93CF93DF9300D000D01F92CDB7DEB737
:1039A0008C017B01B42E0E94930D6C01892B09F0D0
:1039B00048C0C8010E944F0D863609F4A9C124F5FC
:1039C000873229F08B3561F1823209F0A8C1D80124
:1039D00015961C921E92149712968D919C91139796
:1039E000892B39F48D919C910E947B05F80193837A
:1039F0008283C8010E94B7106C01892B11F5B701B1
:103A0000C8010E9496111DC0843709F460C18B372C
:103A100009F47BC08E3609F082C169EC71E060C1A7
:103A200080E4D70114968C931497E114F10421F0EB
:103A30008FEF8C9311968C93B1101AC025E0C22E93
:103A4000D12CC6010F900F900F900F900F90DF9127
:103A5000CF911F910F91FF90EF90DF90CF90BF908B
:103A6000AF909F908F907F906F905F904F90089550
:103A7000F8011286C8010E94930D009751F56DE57B
:103A8000C8010E945F0D8111DCCFBA94D8011B964A
:103A90006D907C90C3010E941E1CA82E4B01672BC9
:103AA00021F494E0C92ED12CCCCFF70161816F3F76
:103AB00091F0C30145960E94230DDC011596AC924E
:103AC000F701A1824B2DB401C8010E94BB1C0097D5
:103AD00039F06C01B6CFD7018C9311968C93F2CF4D
:103AE000C8010E94930D0097A1F76DE5C8010E94DF
:103AF0005F0D8111A6CF6CE2C8010E945F0D81119C
:103B0000C5CF83E0C82ED12C9CCF80E2F7018483FF
:103B1000E114F10419F08FEF80838183BB2009F455
:103B20008DCFD8011A961C92C8010E94930D009760
:103B300081F66DE7C8010E945F0D811182CFBA94B2
:103B4000F8011582148282819381892B49F4808146
:103B500091810E947B05D80113969C938E931297B6
:103B6000C8010E944F0D8732F9F08232E9F0C80196
:103B70000E944F0DD82E0E943D0D882311F2F801AE
:103B800012866D2DC8010E948910C8010E944F0D38
:103B9000D82E0E943D0D8111F2CFD80112968D9141
:103BA0009C91892B41F47DCFC8010E94B7106C0114
:103BB000892B09F046CFC8010E94930D6C01892B17
:103BC00009F03FCF6AE3C8010E945F0D882309F422
:103BD00098CFD8011296ED91FC91139714968D9180
:103BE0009C911597E80FF91F148214966D917C91A2
:103BF00015977F771B966D907C901C9712968D91F0
:103C00009C910496272F2F77BA2DB078AB2EA22A3D
:103C1000E894A7F89301AC017A2DC7010E949F1880
:103C20006C01009761F5C3010E941E1C482E4B01D8
:103C3000672B09F436CFC3010E941E1C582E962F05
:103C4000C92ED72EC114D10409F42BCFF40155820B
:103C5000D70111966C916F3F71F0C30145960E9498
:103C6000230DFC014582D70111965C92B401C80175
:103C70000E94961107C0F70140825182F7CFB3012D
:103C80000E9433124B2DB601C8010E94BB1C6C016F
:103C9000892B09F0D6CEC8010E94930D6C01892BA7
:103CA00009F0CFCE6DE7C8010E945F0D8111C9CE2A
:103CB0006CE2C8010E945F0D882309F422CFC8017D
:103CC0000E94930D6C01892B09F43ACFBACE86E09D
:103CD000D70114968C93149781E08C936EEB71E06E
:103CE000C8010F900F900F900F900F90DF91CF9120
:103CF0001F910F91FF90EF90DF90CF90BF90AF900A
:103D00009F908F907F906F905F904F900C94700D6C
:103D100086E0F7018483108263EC71E0E1CFC80193
:103D20000E944F0D4801FDE08F0E911CB12C782CA4
:103D3000A92C803384F08A3384F43FE3B316A9F0CE
:103D4000D8011A961C92B394F40181934F01C801D3
:103D50000E944F0DEECF8B3281F393ED980F92308E
:103D600060F3982F9F7D953441F30B0D111DD80101
:103D70001D961C92872D9A2D0E94E20E3A834B834A
:103D80005C836D838A819B81AC81BD812230A9F0E7
:103D9000233059F0213009F0B4CE2EE0F70124830E
:103DA00080839183A283B3834CCE2AE0F7012483DE
:103DB00080839183A283B38344CE2CE0F7CF4F92CC
:103DC0005F926F927F928F929F92AF92BF92CF92AB
:103DD000DF92EF92FF920F931F93CF93DF93CDB7B4
:103DE000DEB7C25FD1090FB6F894DEBF0FBECDBFFC
:103DF0006E012EECC20ED11C86E091E0F60191839B
:103E00008083128214821382C6010596968B858B5D
:103E1000178A84E0808F8FEF818F168E878F9E01A7
:103E20002F5F3F4F590110E000E00E945B07609355
:103E300074027093750280937602909377028CE6F9
:103E400092E00E94360A97FD02C00C94AE2B0E94AD
:103E50005B074090740250907502609076027090FB
:103E6000770264197509860997094090700250908D
:103E70007102609072027090730264157505860578
:103E80009705E8F20F37110561F48CE692E00E9485
:103E9000580A892B31F08CE692E00E94360A0A9784
:103EA000A1F7E1E0F0E0EC0FFD1FE00FF11F108241
:103EB0000530110578F045E050E06EEC71E0CE0180
:103EC00001960E944A39892B29F485E497E00E94E3
:103ED0003D132AC5F60160817181C60105960E94D5
:103EE000E10DF601128200811181F6018381948136
:103EF000009751F0FC0120813181F6013483238346
:103F0000B8010E942912F1CF168ECF57DF4FD98208
:103F1000C882C158D040CD57DF4F19821882C3588C
:103F2000D040CB57DF4F19821882C558D040C957AF
:103F3000DF4F1882C758D04021E030E02C0F3D1FE2
:103F4000C857DF4F39832883C858D040C557DF4F43
:103F50001882CB58D040C457DF4FD982C882CC5882
:103F6000D0404AE0B601665E7F4FCE018F579F4F2B
:103F70000E94BB1C8C01892B69F4C657DF4F8881D6
:103F8000CA58D040882331F0F601868D83FF02C0E5
:103F900003E010E0CD57DF4F88819981C358D040AE
:103FA000009751F0CF57DF4FE881F981C158D040D9
:103FB000608171810E94291201151105F1F08EEFC7
:103FC00094E00E94E70AF801EE0FFF1FE350FC4F58
:103FD000859194910E94E70A8BEF94E00E943D1333
:103FE0008CE692E00E94580A181619060CF09CC440
:103FF0008CE692E00E94360AF3CFCF57DF4FD9828A
:10400000C882C158D04084ED91E0CD57DF4F9983ED
:104010008883C358D04083E0CB57DF4F8883C5588F
:10402000D040CA57DF4F1881C658D040107810686A
:10403000CA57DF4F1883C658D040CE018F579F4FC5
:104040000E942419009709F46FC4FC01848188231D
:1040500009F46AC41068CA57DF4F1883C658D040A5
:10406000CE018F579F4F0E942F1A8C01893DF1E09E
:104070009F0709F4FAC10CF0A7C2883731E0930713
:1040800009F410C60CF0F6C18733914009F4DAC484
:10409000083381E018070CF0B1C10D3291E0190727
:1040A00009F4EFC30CF09AC160E00C32F1E01F0795
:1040B00009F4E8C30D3D51E0150711F40C949D2857
:1040C00014F00C9486280936110511F40C94B22AC8
:1040D0000CF081C70636110511F40C94532A0CF02C
:1040E0000CC70436110511F40C94DF2905361105AF
:1040F00009F0C4C50E945B074B015C0180923C0241
:1041000090923D02A0923E02B0923F021092E704CC
:104110001092E8048092DD049092DE04A092DF0405
:10412000B092E00481E08093E6048BE193E00E948A
:10413000740B89E393E00E94740B09E013E0F8012B
:104140008489882349F08289813011F00C94AD294B
:10415000858E968EA78EB0A2025E1F4FF3E00534C7
:104160001F0769F7ECEEF3E08CEE94E01082709696
:104170008E179F07D9F7E0910903F0910A03309752
:1041800021F0118A128A138A148AE0910B03F091AC
:104190000C03309721F0118A128A138A148AE09155
:1041A0001703F09118033097A9F0158A168A178A19
:1041B000108E118E128E138E148E158E168E178EF3
:1041C00010A211A212A213A214A216A217A210A644
:1041D00081E081A70E94260E8DE692E00E943D13A9
:1041E00081E292E00E94E70A80910401909105012A
:1041F000895C954011F40C94DB2983EC91E00E94DA
:10420000E70A8EE192E00E943D13E0903501F090C4
:104210003601009137011091380120913101309120
:1042200032014091330150913401609188058AE157
:1042300092E00E949316E0906E05F0906F05009159
:1042400070051091710520916A0530916B054091C0
:104250006C0550916D056091670585E192E00E94C3
:10426000931620912D0130912E0140912F015091F4
:1042700030016091510580E192E00E946416209126
:104280003E0530913F0540914005509141056091B8
:104290003B058AE092E00E946416E0902901F090CC
:1042A0002A0100912B0110912C012091280130E06E
:1042B00050E040E06091F60484E092E00E949316A2
:1042C0001091200589EA91E00E94E70A8FEF91E0C2
:1042D0000E94E70A8EE991E00E94E70A83E991E0F3
:1042E000112311F089E991E00E94E70A0E949813D6
:1042F0004091D9056091CF0586EF91E00E94381674
:104300004091B3056091A9058DEE91E00E943816A9
:1043100089EC91E00E94E70A60910F017091100111
:1043200080911101909112010E940A130E9498132A
:1043300080913C0290913D02A0913E02B0913F02DB
:10434000E0911401F091150180839183A283B383DE
:10435000E0911601F091170180839183A283B383CA
:10436000E0911801F091190180839183A283B383B6
:10437000E0911A01F0911B0180839183A283B383A2
:10438000E0911C01F0911D0180839183A283B3838E
:10439000E0911E01F0911F0180839183A283B3837A
:1043A000E0912001F091210180839183A283B38366
:1043B000E0912201F0912301309721F080839183D5
:1043C000A283B383E0912401F0912501309709F491
:1043D000ABC281879287A387B487A6C20F3221E040
:1043E000120709F40BC360E0063331E0130709F04C
:1043F00061CE80911A0190911B0148C2033741E0C0
:10440000140709F446C23CF5093381E0180709F0A6
:1044100051CE00911A0110911B010E945B07F80117
:10442000618B728B838B948B85849684A784B088F0
:10443000DC01CB01880D991DAA1DBB1D858B968BB8
:10444000A78BB08F81E080A346EA53E06CEA73E06B
:1044500081EB93E0F4C2043791E0190709F47FC2BD
:104460000537E1E01E0709F025CE083D114009F4AB
:104470007DC05AC28139F1E09F0709F403C3CCF52E
:104480008E3731E0930709F4DFC21CF58D37914078
:1044900009F010CEEE24EA94FE2C00E010E021E0BA
:1044A00030E040E050E068ED71E0C6010E94D219B2
:1044B0009B01AC01E0911A01F0911B012187328729
:1044C0004387548764EC73E08EEC93E00E940117FD
:1044D0002BC2023881E0180709F4F9C360E0003903
:1044E00091E0190709F0E6CD80911C0190911D0122
:1044F000CDC18B39E1E09E0709F4E8C27CF4833931
:1045000021E0920709F4C0C260E08A39914009F0C5
:10451000D1CD80911E0190911F01B8C18D3941E02C
:10452000940709F4F5C2883D914009F0C3CD10EC21
:10453000E12E17E2F12E09E010E021E030E040E04A
:1045400050E062EE71E0C6010E94D2199B01AC01FD
:10455000E0911C01F0911D01218732874387548728
:1045600068E973E081EA93E00E940117CF57DF4FBB
:10457000D982C882C158D04082EE91E0CD57DF4F3A
:1045800099838883C358D04088E0CB57DF4F888316
:10459000C558D040CA57DF4F8881C658D040807870
:1045A0008068CA57DF4F8883C658D040CE018F57E6
:1045B0009F4F0E944E1960932D0170932E0180939E
:1045C0002F019093300117C20F3982E0180709F4C8
:1045D000D5C20CF088C0053FE1E01E0709F4BAC25D
:1045E00074F5023E21E0120709F472C2C4F40C3DD6
:1045F00041E0140709F05ECD15E3E12EF12C00E057
:1046000010E022E030E040E050E06BEE71E0C601E7
:104610000E94D21980911C0190911D0155C3063E44
:1046200051E0150709F466C360E0043F81E0180714
:1046300009F040CD809120019091210127C10835DA
:1046400092E0190709F491C2C4F40034F2E01F07A4
:1046500009F030CD15E3E12EF12C00E010E022E06E
:1046600030E040E050E06BEE71E0C6010E94D219EC
:10467000809120019091210127C3093522E0120782
:1046800009F46AC20B3532E0130709F013CD00912B
:104690002201109123010115110509F445C10E9461
:1046A0005B07AB01BC01F801458B568B678B708FA4
:1046B00085859685A785B089840F951FA61FB71F8E
:1046C000818F928FA38FB48FBB24B394B6A2C801FD
:1046D0000E94CE0BF801B0A647E553E06DE573E00C
:1046E00082E693E0ACC1043843E0140709F4D0C279
:1046F0000CF075C0043A82E0180709F40EC30CF000
:1047000054C0003AE2E01E0709F0D4CC10ECE12ED0
:1047100017E2F12E09E010E021E030E040E050E047
:1047200062EE71E0C6010E94D2199B01AC01E091DA
:104730002201F0912301309751F025873687478772
:10474000508B68E373E081E493E00E940117CF5738
:10475000DF4FD982C882C158D04082EE91E0CD5758
:10476000DF4F99838883C358D04088E0CB57DF4F11
:104770008883C558D040CA57DF4F8881C658D0407B
:1047800080788068CA57DF4F8883C658D040CE01F2
:104790008F579F4F0E944E196093290170932A01F1
:1047A00080932B0190932C0126C1093AF2E01F0758
:1047B00009F44BC20A3A22E0120709F07BCCE091DF
:1047C0002201F0912301309709F4AEC081E085A366
:1047D0004BE053E067E173E08CE193E030C1003DD2
:1047E00033E0130709F4B3C244F5053853E0150765
:1047F00009F43DC2073883E0180709F05BCCA090AC
:104800002401B0902501A114B10409F437C261E07C
:10481000F50180810E94970681E0F50185870E945D
:104820005B07F50166877787808B918B45EF52E0B8
:104830006BEF72E080E093E002C1043394E019076B
:1048400009F4C2C20036E5E01E0709F033CC8091BE
:10485000160190911701892B09F466C015E3E12E2A
:10486000F12C00E010E022E030E040E050E06BEEA0
:1048700071E0C6010E94D219809116019091170132
:10488000BCC261E080911801909119010E94D71774
:104890004BC0EE24EA94FE2C00E010E021E030E072
:1048A00040E050E068ED71E0C6010E94D2199B0122
:1048B000AC01E0911801F0911901218732874387FB
:1048C00054876FEE73E089EF93E00E940117CF5792
:1048D000DF4FD982C882C158D04088ED91E0CD57D2
:1048E000DF4F99838883C358D04089E0CB57DF4F8F
:1048F0008883C558D040CA57DF4F8881C658D040FA
:1049000080788068CA57DF4F8883C658D040CE0170
:104910008F579F4F0E944E1960933101709332015F
:104920008093330190933401C6010E949B12CE50B4
:10493000DF4F0FB6F894DEBF0FBECDBFDF91CF9132
:104940001F910F91FF90EF90DF90CF90BF90AF90AD
:104950009F908F907F906F905F904F90089510EC94
:10496000E12E17E2F12E09E010E021E030E040E016
:1049700050E062EE71E0C6010E94D2199B01AC01C9
:10498000E0911801F0911901258736874787508BF0
:1049900062EE73E08BEE93E00E940117CF57DF4F7A
:1049A000D982C882C158D04082EE91E0CD57DF4F06
:1049B00099838883C358D04088E0CB57DF4F8883E2
:1049C000C558D040CA57DF4F8881C658D04080783C
:1049D0008068CA57DF4F8883C658D040CE018F57B2
:1049E0009F4F0E944E19609335017093360180935A
:1049F0003701909338010E94260E96CF009118013E
:104A0000109119010E945B07F801618B728B838BF7
:104A1000948B85849684A784B088DC01CB01880DB3
:104A2000991DAA1DBB1D858B968BA78BB08F81E02E
:104A300080A343ED53E069ED73E08EED93E00E94B7
:104A4000701372CF61E0D5CC10ECE12E17E2F12E9D
:104A500009E010E021E030E040E050E062EE71E07B
:104A6000C6010E94D2199B01AC01E0911A01F0919C
:104A70001B01258736874787508B66EB73E08FEBEA
:104A800093E024CD61E030CD00911C0110911D0117
:104A90000E945B07F801658776878787908B818402
:104AA0009284A384B484DC01CB01880D991DAA1DD6
:104AB000BB1D818B928BA38BB48B81E0858B48E8E7
:104AC00053E06EE873E083E993E0B9CF61E021CD74
:104AD00010ECE12E17E2F12E09E010E021E030E0C9
:104AE00040E050E062EE71E0C6010E94D2199B01E5
:104AF000AC01E0911E01F0911F01218732874387AD
:104B0000548769E773E082E893E00E94011773CF4E
:104B100000911E0110911F010E945B07F80165873B
:104B200076878787908B81849284A384B484DC0108
:104B3000CB01880D991DAA1DBB1D818B928BA38B68
:104B4000B48B81E0858B48E653E06EE673E083E743
:104B500093E075CF61E06ECD8091220190912301A9
:104B600061E0009709F092CEDFCE80912201909112
:104B7000230160E0009709F089CED6CEEE24EA94B6
:104B8000FE2C00E010E021E030E040E050E068ED75
:104B900071E0C6010E94D2199B01AC01E091220193
:104BA000F0912301309779F0211531054105510528
:104BB00021F0218732874387548767E473E081E5DA
:104BC00093E00E940117CF57DF4FD982C882C158A6
:104BD000D04088ED91E0CD57DF4F99838883C3584B
:104BE000D04089E0CB57DF4F8883C558D040CA57A3
:104BF000DF4F8881C658D04080788068CA57DF4F21
:104C00008883C658D040CE018F579F4F0E942419E9
:104C1000DC01009709F403C11496EC911497E2505B
:104C2000ED3008F0FCC0F0E0E85EF94D0C9462371E
:104C30001F270F271D27492700270F270F270F277B
:104C400004270F2711270F274D27E0912201F0910C
:104C50002301309749F015A242E253E06DE273E080
:104C600082E393E00E94701310924C02C4CE8091B4
:104C700024019091250161E0009789F48EE191E093
:104C80000E94E70AC8010E940D138CE191E01FC940
:104C90008091240190912501009781F360E00E94AA
:104CA0004B1342CE15E3E12EF12C00E010E022E0A0
:104CB00030E040E050E06BEE71E0C6010E94D21996
:104CC00080911801909119010E9445182DCE15E38D
:104CD000E12EF12C00E010E022E030E040E050E076
:104CE0006BEE71E0C6010E94D21980911A01909179
:104CF0001B01EACF15E3E12EF12C00E010E022E0E9
:104D000030E040E050E06BEE71E0C6010E94D21945
:104D100080911E0190911F01D7CF80912201909127
:104D20002301892B09F400CE15E3E12EF12C00E0DC
:104D300010E022E030E040E050E06BEE71E0C601B0
:104D40000E94D2198091220190912301BDCF8091C0
:104D5000240190912501892B09F490CF15E3E12ED0
:104D6000F12C00E010E022E030E040E050E06BEE9B
:104D700071E0C6010E94D219B62E00912401109153
:104D80002501F8018585882331F060E080810E944B
:104D90009706F8011586F801B08261E08B2D0E941C
:104DA000C50660E0F80180810E94970681EB92E0E1
:104DB0000E94E70AF8018081082E000C990B0E94DE
:104DC0000D130E949813B0CD80911401909115019C
:104DD000892B09F4A9CD15E3E12EF12C00E010E0B8
:104DE00022E030E040E050E06BEE71E0C6010E944E
:104DF000D21980911401909115010E947B1894CDD5
:104E00008C908092280190CD8D909D90AD90BC901B
:104E1000FFEF8F169104A104B10499F390F3812C54
:104E2000F0CF8D909D90AD90BC902FEF82169104A5
:104E3000A104B10431F328F3F2CF8D919C910E942B
:104E4000E20EC251DF4F2883CE5ED040C151DF4F0A
:104E50003883CF5ED040C051DF4F4883C05FD04021
:104E6000CF50DF4F5883C15FD040CE50DF4F6883B3
:104E7000C25FD040C151DF4F88809980AA80BB803B
:104E8000CF5ED040223039F1233071F1213039F634
:104E900008C08D919C910496D2CF8D909D90AD903D
:104EA000BC9020E030E0A901C501B4010E945D374B
:104EB00087FDB5CF20E030E04FE753E4C501B401F2
:104EC0000E948A3418160CF4AACFC501B4010E94BE
:104ED0002E37862E96CF3FEF83169104A104B1049E
:104EE00009F008F48ECF9BCF4FEF84169104A104F4
:104EF000B10409F008F485CF92CF0736110509F403
:104F0000DBC20836110509F0B9CEC251DF4F188255
:104F1000CE5ED040CF57DF4FD982C882C158D04033
:104F200084E092E0CD57DF4F99838883C358D04007
:104F300086E0CB57DF4F8883C558D040CA57DF4F34
:104F40008881C658D04080788068CA57DF4F8883F0
:104F5000C658D040BE0162517F4FCE018F579F4F40
:104F60000E943D19182F0E945B072091E604211131
:104F7000F6C21093E704112309F4BCC26093DD0468
:104F80007093DE048093DF049093E0040E943C065B
:104F90008BE193E00E94740B89E393E00E94740B11
:104FA000E0910903F0910A03309721F0118A128AE7
:104FB000138A148AE0910B03F0910C03309721F0CF
:104FC000118A128A138A148A4091E7046BE374E011
:104FD00085E494E024C1093791E0190709F4ADC0D4
:104FE0000CF052C00B3C110509F47FC10D3D1105B9
:104FF00009F044CEC251DF4F1882CE5ED040CF5769
:10500000DF4FD982C882C158D04085EF91E0CD579B
:10501000DF4F99838883C358D04085E0CB57DF4F5B
:105020008883C558D040CA57DF4F8881C658D040C2
:1050300080788068CA57DF4F8883C658D040BE0149
:1050400062517F4FCE018F579F4F0E943D19182FFD
:105050008BE495E0112311F085E395E090930E0128
:1050600080930D0185E0111186E0809313010E9469
:10507000260E49E854E0112311F04EE854E064E9AB
:1050800074E080EA94E0DBCC0338F1E01F0709F418
:1050900054C0043821E0120729F00A3731E0130721
:1050A00009F0ECCDCF57DF4FD982C882C158D0402C
:1050B00082E192E0CD57DF4F99838883C358D04077
:1050C00086E0CB57DF4F8883C558D040CA57DF4FA3
:1050D0008881C658D04080788068CA57DF4F88835F
:1050E000C658D040CE018F579F4F0E942419FC0113
:1050F000892B39F084818A3009F4D7C28C3009F4C5
:10510000E8C2912C812C89E0B82EF7C2093E43E019
:10511000140709F4C5C00CF064C0083E81E018070C
:1051200009F20CF04DC00E3DE1E01E0709F4BACFC4
:10513000073EF1E01F0709F0A1CDCF57DF4FD9821D
:10514000C882C158D0408FEE91E0CD57DF4F998390
:105150008883C358D04085E0CB57DF4F8883C5583C
:10516000D040CA57DF4F8881C658D04080788068C9
:10517000CA57DF4F8883C658D040CE018F579F4F04
:105180000E944E19613C47E2740749E0840791058B
:1051900020F060EC77E289E090E0013A52E01507F8
:1051A00009F053C0609301057093020580930305D5
:1051B0009093040580914C02882309F4B5CB1BCC55
:1051C0000C3A22E0120709F467C060E0083E33E0C1
:1051D000130709F466C0013A42E0140709F04ECD06
:1051E000ACCF043155E0150709F466C0DCF4083390
:1051F00094E0190709F458C00933E4E01E0709F0E8
:105200003DCD81E08093D90589EC95E0909305012F
:105210008093040141E067EE74E082EF94E00E9425
:10522000D81682CB0436F5E01F0709F456C00536C0
:1052300025E0120709F442C0053135E0130709F0F3
:105240001DCD61E083EA95E021CB0937E1E01E073F
:1052500049F4609348027093490280934A02909304
:105260004B02C9CB0338F1E01F0709F45DCB0D3DBC
:10527000114049F4609344027093450280934602C2
:1052800090934702B8CB60934002709341028093A1
:10529000420290934302AFCB81E080934C02ABCBB0
:1052A00061E089EC95E0F2CA1092D90540E063ED27
:1052B00074E08EED94E0B3CF60E0C4CF81E08093E2
:1052C000B30583EA95E0909305018093040141E0E2
:1052D0006FEB74E08AEC94E0A2CF1092B30540E04B
:1052E0006BEA74E086EB94E09ACFCF57DF4FD98218
:1052F000C882C158D0408BEF91E0CD57DF4F9983E2
:105300008883C358D04088E0CB57DF4F8883C55887
:10531000D040CA57DF4F8881C658D0408078806817
:10532000CA57DF4F8883C658D040CE018F579F4F52
:105330000E944E194B015C0180920F019092100166
:10534000A0921101B09212010E94260EA5019401B3
:105350006CE674E08EE794E0B9C8823011F00C94EA
:10536000AC2041A452A463A474A460E070E0CB011B
:10537000141415041604170434F40E943234A301E3
:1053800092010E94AE35680D791D8A1D9B1DF801A2
:1053900061A372A383A394A381A592A5A3A5B4A599
:1053A000880D991DAA1DBB1D85A396A3A7A3B0A711
:1053B00015A60C94AC2086EC91E00C94FF20809113
:1053C00062028111B1CA0E945B074B015C018092AD
:1053D0005E0290925F02A0926002B092610210920F
:1053E000E6041092E804ECEEF3E08CEE94E0108218
:1053F00070968E179F07D9F78BE193E00E94740B8C
:1054000089E393E00E94740BE0910F03F091100385
:10541000309709F044C0E0911103F09112033097E6
:1054200019F084810E946807E0911303F09114033E
:10543000309721F060E084810E949706E091150387
:10544000F0911603309721F060E084810E94970666
:10545000E0911703F0911803309729F011A660E04E
:1054600084810E94970683E591E00E94E70A80917B
:105470003C0290913D02A0913E02B0913F02A501F5
:105480009401281B390B4A0B5B0BCA01B9010E941E
:105490000A130E94981381E08093620245CA8481B6
:1054A0000E946807B8CF8091E60481110C94651FB3
:1054B0000E9401180C94651F0E945B074B015C0160
:1054C0008091E60481110FC00E943C068092DD04A9
:1054D0009092DE04A092DF04B092E004B501A40132
:1054E00080E00E94521540E554E066E574E081E6F4
:1054F00094E0A5CA0E943C06E0910F03F0911003CE
:10550000309719F084810E946807E0911103F091AF
:105510001203309719F084810E946807E091130309
:10552000F0911403309721F060E084810E94970687
:10553000E0911503F0911603309721F060E084812B
:105540000E949706E0911703F0911803309721F01D
:1055500060E084810E9497060E94260E35CD1111CD
:1055600033CDFACFC251DF4F1882CE5ED040CF5735
:10557000DF4FD982C882C158D0408BE092E0CD572E
:10558000DF4F99838883C358D04086E0CB57DF4FE5
:105590008883C558D040CA57DF4F8881C658D0404D
:1055A00080788068CA57DF4F8883C658D040BE01D4
:1055B00062517F4FCE018F579F4F0E943D19B82EE9
:1055C0000E945B072091E604222301F1B092E804D7
:1055D000BB2011F16093E9047093EA048093EB041B
:1055E0009093EC040E943C06E0910F03F0911003AD
:1055F000309719F084810E946807E0911103F091BF
:105600001203309719F084810E9468074B2D61E2E4
:1056100074E080E394E003CE0091E9041091EA0481
:105620002091EB043091EC04DC01CB01801B910B49
:10563000A20BB30BE9E0F3E045E453E02489222315
:10564000A1F022892130B1F4058D168D278D30A16E
:10565000011511052105310541F0080F191F2A1FF9
:105660003B1F058F168F278F30A37E964E175F073F
:1056700029F7CCCF2230C9F701A112A123A134A16F
:10568000080F191F2A1F3B1F01A312A323A334A332
:1056900005A116A127A130A5080F191F2A1F3B1F1E
:1056A00005A316A327A330A7E0CF80819181A28113
:1056B000B38181159048A105B10508F022CDCE0136
:1056C0008F579F4F0E942F1A4C01019779F4B12CEC
:1056D00014C080819181A281B3819058AF4FBF4F98
:1056E0000097A140B10508F00CCDE9CFBB24B394DD
:1056F00082E08816910409F006CD0A3791E0190777
:1057000099F4B09203010E94260E31E0B31220C03A
:10571000B092B3059401990C440B550B69E074E009
:1057200086E194E00C9466220438E1E01E0719F447
:10573000B0920201E8CF0E3DF1E01F0719F4B092DC
:105740000101E1CF083E1140F1F6B0920001DBCF3C
:10575000B110E0CF81E08093D905DCCF8A3091058C
:1057600011F40C94421FF50181935F010F5F1F4FED
:105770000F37110511F00C94151F0C94421FCB012B
:10578000BA010C948D38CB010C940438CB010C94E5
:1057900068371F920F920FB60F9211242F933F93E9
:1057A0008F939F93AF93BF93809164029091650212
:1057B000A0916602B09167023091630223E0230F4B
:1057C0002D3758F50196A11DB11D209363028093DA
:1057D000640290936502A0936602B0936702809181
:1057E000680290916902A0916A02B0916B020196E1
:1057F000A11DB11D8093680290936902A0936A0273
:10580000B0936B02BF91AF919F918F913F912F9178
:105810000F900FBE0F901F90189526E8230F029649
:10582000A11DB11DD2CF1F920F920FB60F9211245E
:105830002F933F934F935F936F937F938F939F9398
:10584000AF93BF93EF93FF93E0910B01F0910C01A5
:105850000995FF91EF91BF91AF919F918F917F91AA
:105860006F915F914F913F912F910F900FBE0F90CD
:105870001F9018951F920F920FB60F9211242F931D
:105880003F934F935F936F937F938F939F93AF93C8
:10589000BF93EF93FF93E0910901F0910A010995FD
:1058A000FF91EF91BF91AF919F918F917F916F91F8
:1058B0005F914F913F912F910F900FBE0F901F90CE
:1058C00018951F920F920FB60F9211242F933F93AA
:1058D0004F935F936F937F938F939F93AF93BF93F8
:1058E000EF93FF9380915A0290915B02A0915C022A
:1058F000B0915D02892B8A2B8B2BD1F190915902AB
:10590000E0915702F091580280818927808380912D
:105910005A0290915B02A0915C02B0915D02181650
:1059200019061A061B069CF480915A0290915B029C
:10593000A0915C02B0915D020197A109B109809329
:105940005A0290935B02A0935C02B0935D02FF91B8
:10595000EF91BF91AF919F918F917F916F915F91E7
:105960004F913F912F910F900FBE0F901F90189560
:10597000809108010E946807EACF1F920F920FB62C
:105980000F9211242F933F934F935F936F937F93C5
:105990008F939F93AF93BF93EF93FF938CE692E027
:1059A0000E94780AFF91EF91BF91AF919F918F91E3
:1059B0007F916F915F914F913F912F910F900FBE0B
:1059C0000F901F9018951F920F920FB60F921124EF
:1059D0002F938F939F93EF93FF93E0917C02F0912D
:1059E0007D028081E0918202F091830282FD1BC0E2
:1059F0009081809185028F5F8F732091860282173C
:105A000041F0E0918502F0E0E459FD4F958F8093DD
:105A10008502FF91EF919F918F912F910F900FBE73
:105A20000F901F9018958081F4CFEF92FF920F9303
:105A30001F93CF93DF93EC01162F7A01022F6C8313
:105A400082E08D8381EB91E098878F831E8218829C
:105A500019821A821B8262E0812F0E94C506098783
:105A600042E050E0B701CE010D960E9460391F86DA
:105A7000812F0E946E0621E0892B09F420E02A87FD
:105A8000812F0E946E0621E0892B09F420E02B87EC
:105A9000812F0E946E0621E0892B09F420E02C87DB
:105AA000188A198A1A8A1B8A1C8A1D8A1E8A1F8ACA
:105AB000188E84E1898F1A8E1B8E1C8E1D8E1E8E71
:105AC0001F8E18A219A21BA21AA21DA21CA2DF914E
:105AD000CF911F910F91FF90EF9008953F924F92B9
