:100000000C949A050C94E52E0C94BE2E0C94C2050B
:100010000C94C2050C94C2050C94C2050C940C2FD0
:100020000C94C2050C94C2050C94C2050C94C20534
:100030000C94C2050C94C2050C94C2050C94C20524
:100040000C94742E0C94C2050C948E2F0C94682F73
:100050000C94C2050C94C2050C94C2050C94C20504
:100060000C94C2050C94C205546F6F446565700012
:100070004E6F4D656D6F727900496E76616C696483
:10008000496E70757400496E636F6D706C65746550
:10009000496E70757400456D707479496E70757431
:1000A000004F6B00CDCCCC3D0AD7233C17B7D138DD
:1000B00077CC2B329595E6241FB14F0A00002041E2
:1000C0000000C84200401C4620BCBE4CCA1B0E5A51
:1000D000AEC59D74227D007B226C6576656C223AEC
:1000E00022303031222C22646576696365223A22FF
:1000F000434F4E54524F4C4C4552222C2264657350
:1001000063223A225052207468726573686F6C647F
:100110002063617070656420617420007D007B2223
:100120006C6576656C223A22303036222C2264656A
:100130007363223A22436F6D6D616E64206E6F743B
:1001400020666F756E64222C22636F6D6D616E6424
:10015000223A007B226C6576656C223A2230303779
:10016000222C22646576696365223A22434F4E54FD
:10017000524F4C4C4552222C226576656E74223AC1
:1001800022454E44222C2274696D657374616D7032
:10019000223A0066616C7365007472756500222CEA
:1001A0002261726D6564223A007B226C6576656C13
:1001B000223A22303030222C22646576696365222F
:1001C0003A22004C48005248007B226C6576656CF0
:1001D000223A22303030222C2270725F73746570A4
:1001E000223A004C455645525F4C48004C45564516
:1001F000525F5248004C49434B004C41534552001A
:1002000050554D50320050554D5000435545320029
:1002100043554500227D002C226163746976655F39
:100220006C65766572223A22002C2274696D656FC6
:1002300075745F6D6F6465223A007B226C6576652C
:100240006C223A22303030222C2264657669636554
:10025000223A22434F4E54524F4C4C4552222C22AC
:10026000706172616469676D223A2250524F475241
:100270004553534956455F524154494F222C2274ED
:10028000696D656F7574223A007B226C6576656CCA
:10029000223A22303037222C226465766963652247
:1002A0003A22434F4E54524F4C4C4552222C226519
:1002B00076656E74223A225354415254222C227491
:1002C000696D657374616D70223A307D007B226CBC
:1002D0006576656C223A22303030222C22646576B5
:1002E000696365223A224D4943524F53434F50456B
:1002F000222C22706172616D223A227472696767E2
:1003000065725F70696E222C2276616C7565223A87
:100310000046495245440074657374004D49435288
:100320004F53434F504500494E444550454E444578
:100330004E54006D6F6465004C4153455200434F6D
:100340004E54494E47454E54006D6F6465004C4114
:10035000534552006475726174696F6E004C41536D
:100360004552006672657175656E6379004C415344
:1003700045520046495245440074657374004C412F
:100380005345520046495245440074657374005009
:10039000554D5032006475726174696F6E0050552E
:1003A0004D50320046495245440074657374005004
:1003B000554D50006475726174696F6E0050554DF3
:1003C00050004649524544007465737400435545D6
:1003D00032006475726174696F6E00435545320076
:1003E0006672657175656E637900435545320046E6
:1003F0004952454400746573740043554500647563
:10040000726174696F6E004355450066726571755F
:10041000656E63790043554500A10096008600791A
:1004200000700068006C657665725F66696C746563
:100430007200434F4E54524F4C4C455200736573FB
:1004400073696F6E5F70617573656400434F4E54DE
:10045000524F4C4C455200746573745F6D6F646508
:1004600000434F4E54524F4C4C4552004649524562
:100470004400746573745F636861696E00434F4E36
:1004800054524F4C4C45520050554D500050554D14
:100490005032006163746976655F70756D700043FA
:1004A0004F4E54524F4C4C45520070725F737465FE
:1004B0007000434F4E54524F4C4C45520072617481
:1004C000696F00434F4E54524F4C4C455200726579
:1004D000696E666F72636564004C455645525F4CA9
:1004E00048007265696E666F72636564004C4556BC
:1004F00045525F4C4800726174696F004C45564527
:10050000525F4C480074696D656F75745F6D6F6400
:1005100065004C455645525F4C480074696D656FE7
:100520007574004C455645525F4C48007265696EC3
:10053000666F72636564004C455645525F524800D1
:100540007265696E666F72636564004C455645520C
:100550005F524800726174696F004C455645525FA6
:1005600052480074696D656F75745F6D6F646500E6
:100570004C455645525F52480074696D656F7574FD
:10058000004C455645525F524800227D007B226C4C
:100590006576656C223A22303036222C22646573EF
:1005A00063223A220044495341524D45440041528E
:1005B0004D454400227D002C2264657363223A225B
:1005C00000222C2270696E223A007B226C657665CF
:1005D0006C223A22303031222C22646576696365C0
:1005E000223A2200222C22706172616D223A22701E
:1005F000696E222C2276616C7565223A007B226C32
:100600006576656C223A22303030222C2264657681
:10061000696365223A2200222C2276616C7565227C
:100620003A00222C22706172616D223A22007B22F4
:100630006C6576656C223A22303030222C2264655B
:1006400076696365223A220066616C736500747294
:10065000756500222C2276616C7565223A00222C89
:1006600022706172616D223A22007B226C65766590
:100670006C223A22303030222C2264657669636520
:10068000223A2200227D00222C2276616C7565229E
:100690003A2200222C22706172616D223A22007B84
:1006A000226C6576656C223A22303030222C22642E
:1006B0006576696365223A220044495341524D45AB
:1006C000440041524D454400227D002C2264657354
:1006D00063223A22007B226C6576656C223A2230D6
:1006E0003031222C22646576696365223A224D49B5
:1006F00043524F53434F5045222C2270696E223A89
:100700000066616C73650074727565002C226475F7
:10071000726174696F6E223A002C2266726571757F
:10072000656E6379223A00222C2261726D65642223
:100730003A007B226C6576656C223A22303030229A
:100740002C22646576696365223A220066616C73C7
:10075000650074727565002C226475726174696F2E
:100760006E223A00222C2261726D6564223A007B6F
:10077000226C6576656C223A22303030222C22645D
:100780006576696365223A220066616C7365007460
:100790007275650066616C73650074727565002C16
:1007A000227265696E666F72636564223A00222C5C
:1007B0002261726D6564223A007B226C6576656CFD
:1007C000223A22303030222C226465766963652219
:1007D0003A2200027B226C6576656C223A22303028
:1007E00030222C22646576696365223A22434F4E9B
:1007F00054524F4C4C4552222C22736B65746368E3
:10080000223A2270725F6C6974652E696E6F222CB9
:100810002276657273696F6E223A2276332E342EF9
:10082000302D626574612E31222C22626175645F05
:1008300072617465223A3131353230302C22736363
:10084000686564756C65223A2250524F4752455391
:10085000534956455F524154494F227D002C226531
:100860006E645F74696D657374616D70223A002CFB
:10087000226576656E74223A224C49434B222C2223
:1008800073746172745F74696D657374616D7022E5
:100890003A00222C2270696E223A007B226C657627
:1008A000656C223A22303037222C226465766963E7
:1008B00065223A22002C22656E645F74696D65734F
:1008C00074616D70223A002C226576656E74223A4E
:1008D000225354494D222C2273746172745F7469DF
:1008E0006D657374616D70223A007B226C6576656C
:1008F0006C223A22303037222C2264657669636597
:10090000223A224C41534552222C2270696E223ADF
:100910000000000000240027002A0000000000253D
:100920000028002B000000000023002600290004FE
:100930000404040404040402020202020203030386
:100940000303030102040810204080010204081080
:10095000200102040810200000000800020100002D
:1009600003040700000000000000004C45564552FB
:100970005F4C48004C455645525F524800227D006E
:100980002C226F7269656E746174696F6E223A22EF
:10099000002C22656E645F74696D657374616D709F
:1009A000223A00222C2273746172745F74696D653F
:1009B0007374616D70223A002C226576656E742224
:1009C0003A225052455353222C22636C6173732296
:1009D0003A2200222C2270696E223A007B226C653A
:1009E00076656C223A22303037222C226465766993
:1009F0006365223A220054494D454F555400494EF3
:100A000041435449564500414354495645002C2220
:100A10007363686564756C65645F6174223A002C69
:100A200022746172676574223A007B226C65766578
:100A30006C223A22303036222C226572726F725F3D
:100A4000636F6465223A22455F50454E44494E47E4
:100A50005F46554C4C222C2264657363223A225027
:100A6000656E64696E6720616374696F6E2071756D
:100A70006575652066756C6C20E2809420616374F6
:100A8000696F6E2064726F70706564222C226163DE
:100A900074696F6E5F74797065223A005354494DE2
:100AA00000494E465553494F4E00494E465553490D
:100AB0004F4E00544F4E4500544F4E45004C41534D
:100AC00045520050554D505F320050554D505F31EA
:100AD000004355455F32004355455F31002C226588
:100AE0006E645F74696D657374616D70223A002283
:100AF0002C2273746172745F74696D657374616DB7
:100B000070223A002C226576656E74223A22002209
:100B10002C2270696E223A007B226C6576656C220D
:100B20003A22303037222C22646576696365223A96
:100B30002200193011241FBECFEFD8E0DEBFCDBF99
:100B400012E0A0E0B1E0E6EFF7E702C005900D92F9
:100B5000A435B107D9F726E0A4E5B2E001C01D92A3
:100B6000AD30B207E1F715E0CAE9D5E004C021973E
:100B7000FE010E94EC39C939D107C9F70E94D7326A
:100B80000C94F93B0C940000CF93DF93EC01888127
:100B90009981DC01ED91FC910190F081E02D64E2FE
:100BA00070E00995009741F02FE1FC01238321E0DB
:100BB0002283DF91CF91089521E02A83FACF8F928B
:100BC000AF92CF92EF920F93CF93DF93CDB7DEB773
:100BD000109235031092360331E03093370360935F
:100BE00038036093390310923A0340933B0339E092
:100BF0003093510334E6309352031092550335E09D
:100C00003093B3031092710333E030937203E09298
:100C1000730310927403109275031092760310926E
:100C200077034091A9055091AA056091AB05709199
:100C3000AC05409378035093790360937A037093E3
:100C40007B0310927C0334E030937D03C0927E03DB
:100C500010927F03109280031092810310928203FE
:100C6000409188055091890560918A0570918B05A6
:100C700040938303509384036093850370938603AA
:100C80001092870300938803063009F08A2C809223
:100C9000890310928A0310928B0310928C03109296
:100CA0008D03FC0181859285A385B48580938E0395
:100CB00090938F03A0939003B093910310929203AB
:100CC00087E08093930389E08093940310929503C7
:100CD0001092960310929703109298034091170573
:100CE000509118056091190570911A054093990368
:100CF00050939A0360939B0370939C0391E09093AD
:100D00009D0320939E0380939F031092A003109253
:100D1000A1031092A2031092A3038091FB0490916F
:100D2000FC04A091FD04B091FE048093A403909371
:100D3000A503A093A603B093A703DF91CF910F91D2
:100D4000EF90CF90AF908F9008956093FB047093D5
:100D5000FC048093FD049093FE043091B303E1E71B
:100D6000F3E020E023130DC03091F603E4EBF3E051
:100D700020E02317B1F04081413071F02F5F3B96A6
:100D8000F8CF4081413019F02F5F3B96EBCF67835E
:100D9000708781879287F8CF678370878187928772
:100DA000EDCF089590913503992339F09091530335
:100DB00021E030E0992319F0089530E020E09EE131
:100DC000929FF001939FF00D1124ED5DFC4F858BF8
:100DD000178AF2CFE6E0F4E01082709685E0E63004
:100DE000F807D1F70895833081F028F4813099F025
:100DF0008230A9F008958730A9F08830C9F0843096
:100E0000B1F4809180008F7D03C0809180008F7746
:100E100080938000089584B58F7784BD089584B54C
:100E20008F7DFBCF8091B0008F778093B0000895C5
:100E30008091B0008F7DF9CFCF93DF93282F30E0E2
:100E4000F901E95AF64F8491F901ED5BF64FD4911F
:100E5000F901E15DF64FC491CC23A1F081110E940C
:100E6000F306EC2FF0E0EE0FFF1FEB5DF64FA591C0
:100E7000B491EC91ED2381E090E009F480E0DF9102
:100E8000CF91089580E090E0FACF1F93CF93DF9346
:100E9000282F30E0F901E95AF64F8491F901ED5B12
:100EA000F64FD491F901E15DF64FC491CC23A9F03E
:100EB000162F81110E94F306EC2FF0E0EE0FFF1FBA
:100EC000E55EF64FA591B4918FB7F894EC911111AE
:100ED00008C0D095DE23DC938FBFDF91CF911F91A7
:100EE0000895DE2BF8CFCF93DF9390E0FC01ED5B0C
:100EF000F64F2491815D964FFC0184918823C9F0BF
:100F000090E0880F991FFC01EF5EF64FA591B49118
:100F1000FC01E55EF64FC591D49161110DC09FB7FC
:100F2000F8948C91209582238C93888128232883A0
:100F30009FBFDF91CF910895623051F49FB7F8942D
:100F40003C91822F809583238C93E8812E2BEFCFC9
:100F50008FB7F894EC912E2B2C938FBFEACF3FB72D
:100F6000F8948091820290918302A0918402B091C2
:100F7000850226B5A89B05C02F3F19F00196A11D3B
:100F8000B11D3FBFBA2FA92F982F8827BC01CD01D3
:100F9000620F711D811D911D42E0660F771F881F32
:100FA000991F4A95D1F708958F929F92AF92BF9261
:100FB000CF92DF92EF92FF920E94AF074B015C014C
:100FC00084E6C82ED12CE12CF12C0E94AF076819C1
:100FD00079098A099B09683E734081059105A8F348
:100FE00021E0C21AD108E108F10888EE880E83E0FA
:100FF000981EA11CB11CC114D104E104F10429F70D
:10100000FF90EF90DF90CF90BF90AF909F908F9028
:1010100008952FB7F89460917E0270917F028091BD
:101020008002909181022FBF089508959091080148
:1010300089130BC0E3EDF7E0E4919FEF9093080173
:10104000E13049F028F0E23061F060E00C944507AF
:1010500010926E00FACF90916F009D7F90936F0079
:10106000F4CF909170009D7F9093700091E09093E9
:10107000B0009091B100987F94609093B10010926D
:10108000B300E3CF4F925F926F927F928F929F92C5
:10109000AF92BF92CF92DF92EF92FF920F931F9386
:1010A000CF93DF9300D000D01F92CDB7DEB78B0176
:1010B00029013A01909108018917C9F09F3F09F46D
:1010C0007EC00F900F900F900F900F90DF91CF91F7
:1010D0001F910F91FF90EF90DF90CF90BF90AF9056
:1010E0009F908F907F906F905F904F900895E3ED69
:1010F000F7E094919D8397FDE4CF61E00E94730730
:101100008D81882321F09D81923009F04AC14801E8
:10111000B12CA12C60E072E18AE790E0A501980172
:101120000E94383829833A834B835C8369017A01B2
:1011300081E0C81AD108E108F1089FEFC916D1046F
:10114000E104F10409F00CF401C160E472E48FE001
:1011500090E0A50198010E94383869017A0181E088
:10116000C81AD108E108F1089D81923009F0A2C0A7
:101170008FEFC816D104E104F10409F00CF4E6C1C4
:1011800060E970ED83E090E0A50198010E94383895
:1011900069017A0191E0C91AD108E108F1088FEFDD
:1011A000C816D104E104F10411F00CF07FC183E012
:1011B0009091B100987F892B8093B100CFC080932C
:1011C0000801E3EDF7E094919D839F3F09F479CF07
:1011D000913041F150F0923009F446C09D8197FD65
:1011E00070CF61E00E9473078ECF14BC15BC94B51C
:1011F000926094BD95B5916095BD282F30E0F901BE
:10120000E15DF64FE491F0E0EE0FFF1FE55EF64F73
:1012100045915491F901ED5BF64FE491E09367023B
:101220001D826BCF109280001092810090918100FE
:1012300098609093810090918100916090938100DB
:10124000282F30E0F901E15DF64FE491F0E0EE0F78
:10125000FF1FE55EF64F45915491F901ED5BF64FA6
:10126000E491E093660249CF1092B0001092B10071
:101270009091B00092609093B0009091B100916015
:101280009093B100282F30E0F901E15DF64FE49131
:10129000F0E0EE0FFF1FE55EF64F4591549150933D
:1012A000710240937002F901ED5BF64FE491E09317
:1012B000720223CF9FEFC916D104E104F10409F0B3
:1012C0000CF46DC068E478EE81E090E0A50198012F
:1012D0000E94383869017A0181E0C81AD108E10812
:1012E000F1089D81992309F4FAC08FEFC816D10443
:1012F000E104F10411F00CF0FBC0EFC064E274EF04
:1013000080E090E0A50194010E94383869017A01DB
:1013100081E0C81AD108E108F10885E09FEFC916FD
:10132000D104E104F10409F008F442CF62E17AE764
:1013300080E090E0A50194010E94383869017A01AB
:1013400081E0C81AD108E108F108E5C081E09D817B
:1013500091112ECF95B5987F892B85BD2FEF3FEF4B
:10136000A901411451046104710409F043C09D8135
:10137000913009F45EC0923009F46DC09111A1CE94
:10138000C7BC20936C0230936D0240936E02509361
:101390006F0280916E00826080936E0092CE82E038
:1013A000D6CFB12CA12C60E072E18AE790E0A501D4
:1013B00098010E94383869017A0181E0C81AD10881
:1013C000E108F108C114D10491E0E906F10404F543
:1013D00091E08D81813011F680918100887F892B89
:1013E000809381002FEF3FEFA90141145104610464
:1013F0007104F9F0D801AA0FBB1FA30192010E944A
:10140000573828EE33E040E050E00E94A138AFCFDB
:1014100068E478EE81E090E0A50198010E943838F8
:1014200069017A0181E0C81AD108E108F10893E066
:10143000D0CFD0928900C092880020936802309368
:10144000690240936A0250936B0280916F00826040
:1014500080936F0036CEC092B30020937302309316
:1014600074024093750250937602809170008260FE
:101470008093700026CE84E09FEFC916D104E1046A
:10148000F10409F008F466CFC980DA80EB80FC80B3
:101490008AE0F594E794D794C7948A95D1F781E0D0
:1014A000C81AD108E108F10885E054CF68E478EE65
:1014B00081E090E0A50198010E94383869017A0125
:1014C00081E0C81AD108E108F1089FEFC916D104DC
:1014D000E104F10411F00CF011CF84E069CE83E057
:1014E0009FEFC916D104E104F10409F00CF432CFE6
:1014F00062E17AE780E090E0A50194010E9438382B
:1015000069017A0181E0C81AD108E108F1089D81DA
:10151000992309F4B0CF86E09FEFC916D104E10406
:10152000F10409F008F444CEC980DA80EB80FC8035
:101530009AE0F594E794D794C7949A95D1F781E00F
:10154000C81AD108E108F10887E032CE82E030CE37
:10155000AF92BF92CF92DF92EF92FF920F931F93C1
:10156000CF93DF936C017B018B01040F151FEB01FF
:101570005E01AE18BF08C017D10759F06991D601B6
:10158000ED91FC910190F081E02DC6010995892B28
:1015900079F7C501DF91CF911F910F91FF90EF90E7
:1015A000DF90CF90BF90AF900895FC01538D448D94
:1015B000252F30E0842F90E0821B930B541710F0FE
:1015C000CF96089501970895FC01918D828D98170B
:1015D00061F0A28DAE0FBF2FB11D5D968C91928DE3
:1015E0009F5F9F73928F90E008958FEF9FEF089514
:1015F000FC01918D828D981731F0828DE80FF11DDD
:10160000858D90E008958FEF9FEF0895FC01918DF7
:10161000228D892F90E0805C9F4F821B91098F73F0
:101620009927089586E892E00E94060B21E0892B15
:1016300009F420E0822F089580E090E0892B29F0C2
:101640000E94120B81110C9400000895FC01A48DDE
:10165000A80FB92FB11DA35ABF4F2C91848D90E0D4
:1016600001968F739927848FA689B7892C93A089B7
:10167000B1898C91837080648C93938D848D981341
:1016800006C00288F389E02D80818F7D80830895D4
:10169000EF92FF920F931F93CF93DF93EC0181E0C2
:1016A000888F9B8D8C8D98131AC0E889F989808169
:1016B00085FF15C09FB7F894EE89FF896083E8899C
:1016C000F98980818370806480839FBF81E090E08E
:1016D000DF91CF911F910F91FF90EF900895F62E1B
:1016E0000B8D10E00F5F1F4F0F731127E02E8C8DB5
:1016F0008E110CC00FB607FCFACFE889F9898081FA
:1017000085FFF5CFCE010E94260BF1CFEB8DEC0FBC
:10171000FD2FF11DE35AFF4FF0829FB7F8940B8F16
:10172000EA89FB8980818062CFCF0F931F93CF938B
:10173000DF938C01D0E0C0E0F801EC0FFD1F649155
:10174000662341F086E892E00E94480B892B11F055
:101750002196F2CFCE01DF91CF911F910F91089585
:10176000CF93DF93EC01888D8823B9F0AA89BB89D8
:10177000E889F9898C9185FD03C0808186FD0DC0C3
:101780000FB607FCF7CF8C9185FFF2CF808185FFE4
:10179000EDCFCE010E94260BE9CFDF91CF910895C6
:1017A000CF92DF92EF92FF921F93CF93DF93EC01E2
:1017B0006A017B018C810E941C0711E0892B09F4CE
:1017C00010E08B85181721F0CD8ADE8AEF8AF88E1B
:1017D0008D899E89AF89B88DB701A601481B590B29
:1017E0006A0B7B0B898D90E0B0E0A0E08417950731
:1017F000A607B70798F48C85181781F01C878A858F
:101800001817A9F0CA8EDB8EEC8EFD8EEAA1FBA123
:10181000309721F0B701A601898509951B87DF91D3
:10182000CF911F91FF90EF90DF90CF900895CE8ED3
:10183000DF8EE8A2F9A2ECA1FDA1309779F38985AA
:101840000995ECCFFC011582138614861586168641
:101850001786108A118A128A138A148A158A168AA0
:10186000138E8681882311F0848183830895CF921B
:10187000DF92EF92FF920F931F93CF93DF93EC01D0
:101880008E81811103C08D89882369F18C810D853A
:101890001E852F8538896A017B01C01AD10AE20AA8
:1018A000F30A9701860137FD18C009891A892B8927
:1018B0003C89401B510B620B730B14161506160660
:1018C00017065CF061E0DF91CF911F910F91FF90BF
:1018D000EF90DF90CF900C94450760E00E944507A1
:1018E0008D8981111D8ADF91CF911F910F91FF90FA
:1018F000EF90DF90CF900895CF92DF92EF92FF921A
:10190000CF93DF93EC0189859A85AB85BC850097E1
:10191000A105B10581F44D8F5E8F6F8F78A349A328
:101920005AA36BA37CA31FA2DF91CF91FF90EF90EE
:10193000DF90CF9008956A017B01CD8EDE8EEF8E11
:10194000F8A2BC01CD010E9419379B01AC0160E0F7
:1019500070E080E89FE30E943F3920E030E040E003
:101960005FE30E947A3720E030E04AE754E40E94C7
:101970007A3720E030E040E05FE30E94D3380E94F5
:10198000B839C60ED71EE81EF91EC9A2DAA2EBA20C
:10199000FCA28FA191E089278FA3C6CFCF92DF92BF
:1019A000EF92FF92CF93DF93EC016A017B018D8967
:1019B0009E89AF89B88DAB019601281B390B4A0B64
:1019C0005B0BDA01C901B7FD49C0898D9A8DAB8DDA
:1019D000BC8DAB019601281B390B4A0B5B0BDA015E
:1019E000C901181619061A061B06C4F18EA1882310
:1019F000A9F189859A85AB85BC850197A105B105BB
:101A000051F461E08C81DF91CF91FF90EF90DF90F6
:101A1000CF900C94450789A19AA1ABA1BCA1AB01C1
:101A20009601281B390B4A0B5B0BDA01C901B7FD84
:101A300004C0A601CE010E947C0C8C819FA1992339
:101A400011F061E0E0CF60E00E9445071FA2DF9146
:101A5000CF91FF90EF90DF90CF90089560E08C8160
:101A60000E9445071FA2898D9A8DAB8DBC8DC81A27
:101A7000D90AEA0AFB0A8EA1882331F01C141D043E
:101A80001E041F040CF41EA288A5882301F31C1455
:101A90001D041E041F04DCF618A6D9CF8F929F9256
:101AA000AF92BF92CF92DF92EF92FF920F931F936C
:101AB000CF93DF93EC018E81811104C088A188232C
:101AC00009F445C07B0189899A89AB89BC894A019F
:101AD0005B01881A990AAA0ABB0AC501B40197FDDD
:101AE00053C00D891E892F89388D4A015701801AEC
:101AF000910AA20AB30A9501840110161106120672
:101B000013060CF441C02A8D2223A9F10C8D1D8DE2
:101B10002E8D3F8D200F311F2115310511F421E04D
:101B200030E0FB8C50E040E00E94A1386017710764
:101B3000D8F4F1100AC069857A8520E030E0A90167
:101B40008C810E94420881E08B8F81E0898FDF9138
:101B5000CF911F910F91FF90EF90DF90CF90BF90AA
:101B6000AF909F908F900895FF2079F38C810E9411
:101B700016081B8EEACF69857A8520E030E0A9013E
:101B80008C810E944208E1CF898D882301F38C81EA
:101B90000E941608198E1B8E88A18823C1F218A2F4
:101BA000D6CF6F3FA9F0E62FE295EF7044E0E49FB7
:101BB00090011124DC01ED91FC91E20FF31F6F7095
:101BC00082819381B6E06B9F800D911D1124089551
:101BD00090E080E00895982F80336CF08A3324F0F1
:101BE0008F3524F08B3724F481E0089581341CF084
:101BF00081E09B350CF080E00895FC018285811125
:101C00000AC0A781B085CD010196908787838C910A
:101C1000818781E08287818508951F93CF93DF9329
:101C2000EC01162F0E94FD0D811306C01A8681E07B
:101C3000DF91CF911F91089580E0FACF0F931F930A
:101C4000CF93DF938C01EB018991882369F0C80160
:101C50000E94FD0D882379F0FE0131979081981341
:101C60000DC0F8011286F0CF90E080E0DF91CF91B7
:101C70001F910F91089582E090E0F8CF83E090E00B
:101C8000F5CFCF93DF93EC01CE010E94FD0D8B3099
:101C90004CF489305CF4882359F081E08E8390E025
:101CA00080E00BC08D3011F08032B9F71A86ECCF8E
:101CB0008E81811105C081E090E0DF91CF91089580
:101CC00082E090E0FACFDC0152969C9152979150BD
:101CD00084E0989F900111245096ED91FC91E20FC1
:101CE000F31F228133812115310579F041818081F3
:101CF000481758F481E0840F818386E0489F200DC7
:101D0000311D11242115310521F460E070E08FEFC1
:101D10000895B901892F8295807F840F0895DF92FD
:101D2000EF92FF920F931F93CF93DF93EC017B0110
:101D3000D12C688979898A89D816E0F484E0D89E04
:101D400080011124060F171FD80112966D917C9106
:101D50006115710541F0D701ED91FC910280F3818D
:101D6000E02DC7010995F8011382128210821182B9
:101D7000D394DFCF1A8A8FEF8C8BC617D70761F009
:101D8000D701ED91FC910280F381E02DC701099507
:101D9000D98BC88B84E08B8BDF91CF911F910F91F2
:101DA000FF90EF90DF9008958F92AF92CF92DF92E5
:101DB000EF92FF920F931F93CF93DF93C0910D018A
:101DC000D0910E0121E08091040190910501835E84
:101DD000954009F420E080900001A0900101C0909E
:101DE0000201E09003010091100140910F01609108
:101DF0003803CE010E94DF05E091B303E43008F41C
:101E00006CC0CF54D54009F0BDC0C0905902D090ED
:101E10005A02E0905B02F0905C0280916102909126
:101E20006202A0916302B091640200917403109168
:101E300075032091760330917703080F191F2A1F2D
:101E40003B1F009374031093750320937603309324
:101E5000770340917F0350918003609181037091DB
:101E60008203840F951FA61FB71F80937F03909353
:101E70008003A0938103B093820380918A039091A1
:101E80008B03A0918C03B0918D038C0D9D1DAE1D15
:101E9000BF1D80938A0390938B03A0938C03B09310
:101EA0008D038091950390919603A0919703B09133
:101EB000980340911B0550911C0560911D05709180
:101EC0001E05840F951FA61FB71F8093950390933F
:101ED0009603A0939703B09398038091650288239B
:101EE00009F459C0E43018F083E080939203109213
:101EF000530381E0809354038093550380935603EA
:101F000080935703109258031092590390915802EE
:101F100090936F0394E6909370038093F60310926E
:101F2000B40387E08093B50389E08093B603809182
:101F30001B0590911C05A0911D05B0911E05809375
:101F4000B7039093B803A093B903B093BA038091F9
:101F5000170590911805A0911905B0911A05809365
:101F6000BB039093BC03A093BD03B093BE03DF916A
:101F7000CF911F910F91FF90EF90DF90CF90AF9096
:101F80008F900895C0905D02D0905E02E0905F0255
:101F9000F090600242CF10925503E9CF4F925F92CA
:101FA0006F927F928F929F92AF92BF92CF92DF9269
:101FB000EF92FF920F931F93CF93DF9300D000D047
:101FC0001F92CDB7DEB7DC012C912B32E1F12D321F
:101FD000D9F50196EE24E394FC01208130ED320F17
:101FE0003A3010F02E3291F58C0160E070E0CB01B8
:101FF000F801219130ED832E820E39E0381508F476
:1020000044C06A3949E97407840749E1940708F034
:1020100046C0AAE0B0E09B01AC010E945738912C69
:10202000B12CA12C240135014094509460947094FB
:10203000461657066806790690F1680D791D8A1DC7
:102040009B1D8F01D5CF0196E12CC6CF1982298126
:102050003A814B815C816D8170E080E090E00F906F
:102060000F900F900F900F90DF91CF911F910F91D4
:10207000FF90EF90DF90CF90BF90AF909F908F90A8
:102080007F906F905F904F900895211108C0EE20CF
:1020900051F161307105810550E89507A0F0F12CF0
:1020A000BAE08B2E912CA12CB12C6115710530E872
:1020B00083079105F8F0A50194010E94A138CA0197
:1020C000B901F394F2CF22E029839B01AC01882768
:1020D0009927DC01821B930BA40BB50B8A839B838E
:1020E000AC83BD83B4CF23E029836A837B838C8355
:1020F0009D83ADCFF801D8012D918D0130ED320FC8
:102100003A3010F4F394F6CF2E3201F58F010F5FC1
:102110001F4FF8010F5F1F4F2081A0EDDA2ED20E66
:10212000B9E0BD1598F06C3CECEC7E07ECE08E0756
:10213000910578F7AAE0B0E09B01AC010E94573806
:102140006D0D711D811D911DFA94E3CF20812F7DAE
:1021500010E000E0253409F050C021812D32B1F5A6
:102160003296CC24C394DF0110E000E02F2D0F2C19
:10217000000C330BEAE0BE2EFD01DD9040ED4D0D6D
:102180004A30B0F5B09EA001B19E500D11240D2D26
:10219000DD0C110B00531109040F151FA801420F8C
:1021A000531F4732510544F3CC20B9F080E090E052
:1021B000A0E0B0E8E11003C080E090E0DC0121E0A5
:1021C00029838A839B83AC83BD8341CF2B3219F053
:1021D0003196C12CC8CF3296FCCF80E090E0A0E8C9
:1021E000BFEFE110ECCF80E090E0A0E8BFE7E7CFE1
:1021F000CC2019F01195019511092081211126CFCC
:102200000F0D111DF7FC1A950E9419374CEBA42EE7
:1022100040E0B42E101611063CF0119501951109FD
:1022200054EAA52E50E0B52ED12CC12C0115110574
:10223000E9F0F6E0CF16D104A9F000FF0DC0F601D9
:10224000EE0FFF1FEE0FFF1FEA0DFB1D25913591CD
:10225000459154910E947A37159507952FEFC21A30
:10226000D20AE4CF60E070E080EC9FE7E110905884
:1022700021E029836A837B838C839D83E8CECF9280
:10228000DF92EF92FF920F931F93CF93DF937C0126
:102290006B018A01FC01C081D1814F3F510509F0DA
:1022A000B0F4E881F9810480F581E02D4B5F5F4F48
:1022B000CE010995009759F0FC010383DF91CF917E
:1022C0001F910F91FF90EF90DF90CF900895E881DC
:1022D000F9810280F381E02DB601CE01099581E0FC
:1022E000F701828390E080E0E9CF1F93CF93DF93E3
:1022F000EC01162F6A817B816115710589F04C8193
:102300005D81FB0183818417150651F4440F551F2D
:102310004F5F5F4F888199810E943F119B838A8321
:102320008A819B81009759F02C813D81A9014F5FE3
:102330005F4F5D834C83820F931FFC011483DF91F9
:10234000CF911F9108959F92AF92BF92CF92DF924B
:10235000EF92FF920F931F93CF93DF9300D000D0A3
:102360001F92CDB7DEB78C010E94FD0DD82EF8016B
:102370001286F12CE12C60EFC62EC8010E94FD0DE3
:10238000F8011286D81609F4B3C0811113C082E097
:1023900090E00F900F900F900F900F90DF91CF91E2
:1023A0001F910F91FF90EF90DF90CF90BF90AF9073
:1023B0009F9008958C3509F099C0C8010E94FD0DC9
:1023C000882329F3ECE9F1E0853709F083C0F801AF
:1023D000128654E0952EB12CA12CC8010E94FD0D4F
:1023E0008823A9F2813434F48053803130F083E0C3
:1023F00090E0CFCF8F7D8753F8CF44E0AA0CBB1C71
:102400004A95E1F7A82AF80112869A949110E5CF2F
:10241000C501985D8115944020F47501F3E0FF2219
:10242000ACCFC5019C5D81159440A8F483E0B8222F
:10243000B701762F6627770F770F6A297B2990E0FF
:1024400080E00196603871058105910540F4C8016E
:102450000E94751192CFB50190E080E0F3CF198210
:10246000262F2F7320682A8326E0969587957795E7
:1024700067952A95D1F76032710580F4606C6B83A3
:102480005E01E4E0AE0EB11CF50162915F016623CE
:1024900009F473CFC8010E947511F6CF262F2F7350
:1024A00020682B8386E0769567958A95E1F7603101
:1024B000710538F4606E6C835E01F5E0AF0EB11CFF
:1024C000E3CF60686C83CD825E0126E0A20EB11C72
:1024D000DBCF32969081992309F489CF8913F9CF04
:1024E0008181882309F483CFF8011286682FAFCF4A
:1024F00082819381892B19F484E090E04ACF90E0A7
:1025000080E047CF6F927F928F929F92AF92BF925F
:10251000CF92DF92EF92FF920F931F93CF93DF93AF
:10252000EC012A813B812C5F3F4F4C815D8144301F
:10253000510588F58901F90180E0942FB22FAE2F63
:10254000A21BA91730F4F190A1E0F110A0E08A2BB2
:10255000F6CF811120C082E0EB018C83FB01802F3C
:102560008B1B891728F4E80189918E018193F7CF9D
:10257000640F751FFB011082DF91CF911F910F91A6
:10258000FF90EF90DF90CF90BF90AF909F908F9093
:102590007F906F9008958B01F901E40FF51F108271
:1025A000888199814C815D81DC011396ED91FC91CC
:1025B0003A01E89477F86901C60CD71C3097C1F04E
:1025C000A381A615170481F449017F01B4E0EB0E45
:1025D000F11C8C149D0429F1D401AD904D01D7015B
:1025E000BD907D01AB14A9F30190F081E02DE6CF01
:1025F0006A817B810E943F11FC01A881B9811396F9
:102600008D919C911497918380831496FC93EE9303
:1026100013971B821A8285E0E8018C83F983E88393
:10262000ABCF82818F5F8283F6CFDB01ED91FC918E
:1026300011970280F381E02DBC01CD010994AF9286
:10264000BF92CF92DF92EF92FF920F931F93CF939F
:10265000DF93EC018B018C8180FF24C0A881B981BC
:10266000FB018381948130E020E00097D9F0A81726
:10267000B907D1F5F8016081718112968C9112979A
:10268000815012968C93129781110CC08D919C9160
:1026900011972115310529F1F90191838083CD012D
:1026A0000E9415138C81807631F1209721F1F880FA
:1026B0005801F5E1AF0EB11C8FEFF816D1F06F2D78
:1026C000C5010E94D10D6C01FC01E580B8010E949A
:1026D0001F13F801818DF6018083F801F18EFE2C25
:1026E000EBCF94838383DBCF9C01FC0180819181BC
:1026F000BCCFF882F9821C82DF91CF911F910F919C
:10270000FF90EF90DF90CF90BF90AF9008950F9320
:102710001F93CF93DF93EC01088119818B819C81FA
:10272000009749F0FC01208131813C832B83B80163
:102730000E941513F3CF68817981CE010596DF9150
:10274000CF911F910F910C948F0EFC0101900020EE
:10275000E9F73197AF01481B590BBC0186E892E0BD
:102760000C94A80A8F929F92AF92BF920F931F93DF
:10277000CF93DF93CDB7DEB7A1970FB6F894DEBF46
:102780000FBECDBF19A2423008F44AE08E010F5DA2
:102790001F4F842E912CB12CA12CA50194010E94D5
:1027A000A138E62FB901CA01EA30F4F4E05DD8019E
:1027B000EE938D01232B242B252B79F790E080E0DD
:1027C000109719F0CD010E94A513A1960FB6F894A9
:1027D000DEBF0FBECDBFDF91CF911F910F91BF9094
:1027E000AF909F908F900895E95CE1CF4AE00C9400
:1027F000B213682F70E090E080E04AE00C94B213CE
:10280000CF92DF92EF92FF92CF93DF936C01990FFB
:10281000EE08FF08F7FE19C06DE286E892E00E941C
:10282000480BEC0166277727CB016C197D098E09CF
:102830009F094AE00E94B2138C0F9D1FDF91CF9138
:10284000FF90EF90DF90CF9008954AE0C701B60166
:10285000DF91CF91FF90EF90DF90CF900C94B21367
:10286000CF93DF930E94950BEC018FEA91E00E94D9
:10287000A5138C0F9D1FDF91CF9108950F931F9388
:10288000CF938C01C62FFC01648385ED96E00E94F6
:10289000950BF8018081082E000C990B0E94001402
:1028A0008BEC96E00E94950B89EB96E0CC2311F01F
:1028B00082EC96E00E94950B88EC96E0CF911F91F8
:1028C0000F910C943014EF92FF920F931F93CF93BC
:1028D000DF937C018B01EA018FE996E00E94950B62
:1028E000C7010E94950B83E996E00E94950BC801F1
:1028F0000E94950B87E896E00E94950BCE010E94FE
:10290000950B84E896E0DF91CF911F910F91FF9096
:10291000EF900C943014CF93DF936DE786E892E04C
:102920000E94480BEC018FEA91E00E94A5138C0FE6
:102930009D1FDF91CF9108954F925F926F927F928A
:102940008F929F92AF92BF92EF92FF920F931F933D
:10295000CF93DF932A013B0148015901853009F4E7
:1029600080C008F061C0843009F46FC0E091290391
:10297000F0912A031481C8EBDAE047EDE42E4AE037
:10298000F42E88E19BE00E94950BC7010E94950BF5
:102990008FE09BE00E94950B812F110F990B0E94F5
:1029A000001484E09BE00E94950BCE010E94950BE1
:1029B0008FEE9AE00E94950B8091F7049091F804B5
:1029C000A091F904B091FA04A3019201281B390BDC
:1029D0004A0B5B0BCA01B9010E94F6138DED9AE018
:1029E0000E94950B8091F7049091F804A091F9044E
:1029F000B091FA04A5019401281B390B4A0B5B0B1B
:102A0000CA01B9010E94F613DF91CF911F910F9176
:102A1000FF90EF90BF90AF909F908F907F906F90BE
:102A20005F904F900C948B14863039F1873009F009
:102A30009DCFE0913103F09132031481CCE9DAE0CB
:102A40008DEBE82E8AE0F82E9CCFE0912B03F091DD
:102A50002C031481C3EBDAE031EDE32E3AE0F32EE0
:102A600090CFE0912D03F0912E031481CAEADAE0B1
:102A70002AECE22E2AE0F22E84CFE0912F03F0918F
:102A800030031481C1EADAE093ECE92E9AE0F92EE2
:102A900078CFCF92DF92EF92FF920F931F93CF9355
:102AA000DF93EC018881813009F4D1C06A017B0198
:102AB000813090F08230D1F485E393E00E94220CC3
:102AC00083E593E0DF91CF911F910F91FF90EF90FD
:102AD000DF90CF900C94220C8981853009F47DC061
:102AE00070F48330F1F1843009F45AC0DF91CF9152
:102AF0001F910F91FF90EF90DF90CF900895863057
:102B000009F488C0873091F7E0913103F0913203E6
:102B1000309761F38681882349F385A18111E6CF3F
:102B20008F819885A985BA85C58AD68AE78AF08E6D
:102B30008C0D9D1DAE1DBF1D818F928FA38FB48FF5
:102B400081E086A3CF010E947C0C0F811885298526
:102B50003A850C0D1D1D2E1D3F1DB701A60187E0F6
:102B60001CC0E0912903F0912A03309709F4BECFED
:102B70008681882309F4BACF0F81188529853A8583
:102B8000C18AD28AE38AF48A0C0D1D1D2E1D3F1DB9
:102B9000058B168B278B308F83E00E949C14A6CF69
:102BA000E0912B03F0912C03309709F49FCF86819D
:102BB000882309F49BCF0F81188529853A85C18A1E
:102BC000D28AE38AF48A0C0D1D1D2E1D3F1D058B34
:102BD000168B278B308F84E0E0CFE0912D03F091AE
:102BE0002E03309709F482CF8681882309F47ECFA3
:102BF0000F81188529853A85C586D686E786F08AAD
:102C00000C0D1D1D2E1D3F1D018B128B238B348B34
:102C100085E0C3CFE0912F03F0913003309709F4A2
:102C200065CF8681882309F461CF0F8118852985B6
:102C30003A85C586D686E786F08A0C0D1D1D2E1DA9
:102C40003F1D018B128B238B348B86E0A6CF8981AD
:102C5000E0912303F0912403882339F0813009F0B7
:102C600045CFE0912503F0912603309709F43ECF3C
:102C7000CF80D884E984FA844C0D5D1D6E1D7F1DC4
:102C8000418B528B638B748B31CF2F923F924F923B
:102C90005F926F927F928F929F92AF92BF92CF92EC
:102CA000DF92EF92FF920F931F93CF93DF9300D0A9
:102CB00000D0CDB7DEB72A013B0103E4809F90012D
:102CC0001124312C8901C9018D549C4F9A83898329
:102CD0004BE0242E49019EE4890E911CE981FA8182
:102CE0008081381608F098C0A32CB12CC801239C11
:102CF000800D911D11248D5D9C4FFC01E25BFF4F07
:102D00002081233039F1805B9F4FFC018081893025
:102D100021F09091090589131DC02A9CF0012B9C7C
:102D2000F00D1124E00FF11FEC58FC4FC080D18052
:102D3000E280F380C114D104E104F10469F4B30129
:102D4000A201C401329C800D911D11248D5D9C4F08
:102D50000E9449153394C2CFC40CD51CE61CF71C45
:102D6000E6E0F4E090E080E02081211125C024E03D
:102D7000880F991F2A95E1F7DC01A950BC4F2A9CC6
:102D8000F0012B9CF00D1124E00FF11FEF58FC4FC8
:102D9000222D01900D922A95E1F78D5D9C4FFC014B
:102DA000E152FF4FC082D182E282F3828D519F4F68
:102DB00021E0FC012083CECF0196709680319105F1
:102DC00099F68AE29AE00E94950B2A9CC0012B9CFE
:102DD000900D1124800F911F8D5D9C4F9C838B83E0
:102DE000FC01E25BFF4F80810E94F9138FE19AE0C2
:102DF0000E94950BEB81FC81E15BFF4F80810E947B
:102E0000F9138EE09AE00E94950BC701B6010E946B
:102E1000F6130E948B149ECF0F900F900F900F907F
:102E2000DF91CF911F910F91FF90EF90DF90CF90A6
:102E3000BF90AF909F908F907F906F905F904F90DA
:102E40003F902F9008950F931F93CF93DF938C01A2
:102E5000D62FC42F89EB97E00E94950BC8010E94E2
:102E6000950B8EEA97E00E94950B84E997E0DD23AD
:102E700011F08AE997E00E94950B8FE997E00E9494
:102E8000950B89E897E0CC2311F08FE897E00E943A
:102E9000950BDF91CF911F910F910C948B14CF92D2
:102EA000DF92EF92FF920F931F93CF938C01C62F67
:102EB00069017A018FE697E00E94950BC8010E9494
:102EC000950B84E697E00E94950B8CE497E0CC2369
:102ED00011F082E597E00E94950B87E597E00E944C
:102EE000950BC701B6010E94F613CF911F910F9168
:102EF000FF90EF90DF90CF900C948B147F928F9285
:102F00009F92AF92BF92CF92DF92EF92FF920F9378
:102F10001F93CF93DF93EC01762E49015A0167018D
:102F2000780182E397E00E94950BCE010E94950BF9
:102F300087E297E00E94950B81E097E0772011F0FF
:102F400087E097E00E94950B89E197E00E94950B3E
:102F5000C501B4010E94F6138CE097E00E94950B26
:102F6000C701B6010E94F613DF91CF911F910F9117
:102F7000FF90EF90DF90CF90BF90AF909F908F9099
:102F80007F900C948B14EF92FF920F931F93CF932B
:102F90007C018B01C42F8AE696E00E94950BC70145
:102FA0000E94950B8EE596E00E94950BC8010E9449
:102FB000950B83E596E00E94950B88E496E0CC2380
:102FC00011F08EE496E00E94950BCF911F910F9126
:102FD000FF90EF900C948B14CF92DF92EF92FF92C0
:102FE0000F931F93CF93DF938C01EB0169017A015B
:102FF0008EE296E00E94950BC8010E94950B82E23A
:1030000096E00E94950BCE010E94950B87E196E019
:103010000E94950BC701B6010E94F613DF91CF9174
:103020001F910F91FF90EF90DF90CF900C948B1435
:10303000009711F00C94A51390E080E00895EF92B2
:10304000FF920F931F93CF93DF93C0912303D091EF
:103050002403882321F0C0912503D09126032097D3
:1030600009F46EC0613009F465C008F460C06230D4
:1030700009F463C09BE6E92E99E0F92E811104C0A2
:1030800084E7E82E89E0F82E8CED99E00E94950BFC
:10309000C7010E94950B83ED99E00E94950B8C81EE
:1030A0000E94F91388EB99E00E94950BC8010E94D9
:1030B000950B83EA99E00E94950B6A8D7B8D8C8D30
:1030C0009D8D0091F7041091F8042091F90430913E
:1030D000FA04601B710B820B930B0E94F61381E9BB
:1030E00099E00E94950B6E8D7F8D88A199A100912A
:1030F000F7041091F8042091F9043091FA04601B50
:10310000710B820B930B0E94F61380E899E00E94EA
:10311000950BCE010D960E9418188DE799E0DF916E
:10312000CF911F910F91FF90EF900C94301407E016
:103130001AE0A0CF0EEF19E09DCF06EF19E09ACF6D
:10314000DF91CF911F910F91FF90EF900895909193
:103150000005911104C090910105992371F090919F
:10316000020591110AC060910705882321F0813082
:1031700021F4609108050C941F180895CF93DF93F4
:10318000EC016E838AEC95E00E94950B8F81988507
:103190000E94181881EC95E00E94950B8C81082EF6
:1031A000000C990B0E94001487EB95E00E94950B90
:1031B0008E8181110AC085EA95E00E94950B84EB0F
:1031C00095E0DF91CF910C9430148EEA95E0F5CF25
:1031D00060E080911501909116010E94BE1860E098
:1031E00080911701909118010E94BE1860E08091B3
:1031F000190190911A010E94BE1860E080911B0194
:1032000090911C010E94BE1860E080911D01909178
:103210001E010E94BE1860E080911F019091200164
:103220000E94BE1860E080912101909122010E94CD
:10323000BE188091230190912401009719F060E05D
:103240000E94BE188091250190912601009719F0E7
:1032500060E00C943E1408951F93CF93DF93EC012C
:10326000162F8E81882321F060E0CE010E94BE18C7
:103270008D81813021F460E08C810E9445071C83A0
:103280006D81812F0E9473078D81813021F460E070
:103290008C810E9445078DEF95E00E94950B8F81F0
:1032A00098850E94181884EE95E00E94950B8C81F9
:1032B000082E000C990B0E940014DF91CF911F91F2
:1032C0000C948B14CF93DF93EC010E942C198C810A
:1032D0000E941C0721E0892B09F420E02A878C81B9
:1032E0000E941C0721E0892B09F420E02B878C81A8
:1032F0000E941C0721E0892B09F420E02C871D8AFD
:103300001E8A1F8A188EDF91CF9108959F92AF92E7
:10331000BF92CF92DF92EF92FF920F931F93CF93C2
:10332000DF938A01452B09F468C0E9016B016596BA
:10333000FC016081CE010E94D10DFC01BB24BA9436
:10334000892B09F0B5807601E894F7F8AA24A394B4
:103350006701C00ED11E99249394309709F44DC093
:10336000AA2009F43FC08481843069F0853049F196
:10337000823079F5DF010D900020E9F71197CD013A
:103380008E1B9F0B07C00190F081E02D90E080E044
:10339000309781F79F77E816F90621F5D801AC152B
:1033A000BD05E1F46B2DCE01DF91CF911F910F91FF
:1033B000FF90EF90DF90CF90BF90AF909F900C94D4
:1033C000D10DA081B181FD01349613968C9190E0CE
:1033D000E2CF90E080E0F0E0E0E0DDCF9D918191F0
:1033E0009817E9F2A9246B2DCE010E94D10DFC01A2
:1033F000892B09F4B2CFB580B0CF90E080E0DF91A7
:10340000CF911F910F91FF90EF90DF90CF90BF90E1
:10341000AF909F900895FC0120813181C9014A96A7
:103420004281538164817581009759F0D9015E967C
:10343000EC91E03211F090E080E0009711F00C94F4
:10344000861990E080E00895CF93DF93EB010E940E
:103450000B1A009741F0FC012481263021F4808171
:10346000DF91CF9108958881FBCFCF92DF92EF92C9
:10347000FF92CF93DF9300D000D01F92CDB7DEB77D
:103480000E940B1ADC01009709F445C01496EC91D8
:103490001497E250ED3008F03EC0F0E0EE5AF54EE1
:1034A0000C94EC397B1A8B1A791A8D1A5F1A8B1AC5
:1034B0008B1A8B1A6D1A8B1A6D1A8B1A911ACC9063
:1034C0008C2D0F900F900F900F900F90DF91CF9158
:1034D000FF90EF90DF90CF900895CD90DD90ED902C
:1034E000FC908FEFC816D104E104F10449F340F3D6
:1034F00012C08D919C910E94CE0F3A834B835C83C6
:103500006D83CA80DB80EC80FD80223051F3233054
:1035100041F3213051F0C12CD3CF8D919C91049671
:10352000EACFCD90DD90ED90FC9020E030E0A90155
:10353000C701B6010E94E73987FDEDCF20E030E0FA
:103540004FE753E4C701B6010E94143718161CF365
:10355000C701B6010E94B839C62EB2CFCF92DF9212
:10356000EF92FF92CF93DF9300D000D01F92CDB7A0
:10357000DEB70E940B1ADC01009709F44AC01496CA
:10358000EC911497E250ED3008F043C0F0E0E553C1
:10359000F54E0C94EC39F91A091BF71A0D1BD81AC1
:1035A000091B091B091BE81A091BED1A091B111B32
:1035B0006C9170E090E080E00F900F900F900F9072
:1035C0000F90DF91CF91FF90EF90DF90CF90089513
:1035D0006D917D918D919C91EFCF8D919D910D90ED
:1035E000BC91A02DB7FD15C0BC01CD01E5CF8D91DB
:1035F0009C910E94CE0F3A834B835C836D83CA807B
:10360000DB80EC80FD80223041F1233041F121301C
:1036100061F060E070E0CB01CFCF8D919C9104967A
:10362000E8CFCD90DD90ED90FC9020E030E0A90156
:10363000C701B6010E94E73987FDEBCF2FEF3FEFBF
:103640004FE75FE4C701B6010E94143718160CF368
:10365000C701B6010E94B839AFCFF7FCDACFC70176
:10366000B601AACF8F929F92AF92BF92CF92DF9274
:10367000EF92FF920F931F93CF93DF9300D000D070
:1036800000D0CDB7DEB749015A0167017801FB01CF
:1036900001900020E9F73197E61BF70B9A838983A5
:1036A0007C836B83ED838F2F8F778E83CE01019682
:1036B0000E940B1A0097B9F0FC0124812A3041F0D6
:1036C0002C3089F480819181A281B381B7FD0BC038
:1036D000CE0101960E94AE1A86169706A806B90674
:1036E00010F44B015C01C501B401C616D706E8060B
:1036F000F90610F4C701B60126960FB6F894DEBF9E
:103700000FBECDBFDF91CF911F910F91FF90EF9032
:10371000DF90CF90BF90AF909F908F900895CF9201
:10372000DF92EF92FF92CF93DF9300D000D01F92F1
:10373000CDB7DEB70E940B1ADC01009709F446C032
:103740001496EC911497E250ED3008F03FC0F0E091
:10375000E455F44E0C94EC39EB1BE61BE91BFC1B07
:10376000B91BE61BE61BE61BC81BE61BD51BE61BAD
:10377000001C6C9170E0CB010F900F900F900F9098
:103780000F90DF91CF91FF90EF90DF90CF90089551
:103790008D919D910D90BC91A02D811520E89207EF
:1037A000A105B10598F4BC01E6CF8D919D910D90D6
:1037B000BC91A02D6C017D0120E8D20EE11CF11C12
:1037C000C114D10421E0E206F10468F370E060E086
:1037D000D2CF8D919C910E94CE0F3A834B835C8314
:1037E0006D83CA80DB80EC80FD80223031F1233094
:1037F00081F1213059F708C08D919C910496EBCF4F
:10380000CD90DD90ED90FC9020E030E040E057EC72
:10381000C701B6010E94E73987FDD8CF20E03EEF0F
:103820004FEF56E4C701B6010E941437181674F220
:10383000C701B6010E94B1399ECFD701C601905889
:10384000AF4FBF4F0097A140B10508F0BFCFB60101
:1038500092CFC11480E8D806E104F104C0F3B6CFDA
:103860003F924F925F926F927F928F929F92AF9210
:10387000BF92CF92DF92EF92FF920F931F93CF935D
:10388000DF9390910005911105C090910105992356
:1038900009F444C070900205711040C0823008F0F5
:1038A0003DC08093090581114BC0E0912303F09145
:1038B0002403309709F04AC091E0909307059111D5
:1038C0002DC06A017B01582EC3E2D3E083E4382E79
:1038D0000FEF10E094E6892E912CA12CB12C4424FA
:1038E00043946C88662071F08EA5893011F05812CF
:1038F00009C08A89813009F48BC008F43FC0823046
:1039000009F48BC06E9633E0CF35D30751F7809121
:10391000FF04882309F4B6C07110B4C0DF91CF91C1
:103920001F910F91FF90EF90DF90CF90BF90AF90DD
:103930009F908F907F906F905F904F903F900895F1
:10394000E0912503F09126033097B1F090899923F7
:1039500061F0018912892389348990E004171507E1
:103960002607370718F092E001C091E0882309F498
:10397000A4CF90930805A3CF91E0FBCF8F898F5FF1
:103980008F8B9D89891708F4BDCF8FA5843658F495
:103990000E94BC36A50194010E9438388FA5681793
:1039A00010F01F8AAFCF1F8A288D222351F03D8946
:1039B000C801821B91093817190609F0ECF4230F8E
:1039C0002D8B8B89823008F09DCF389E9001112479
:1039D000F901ED54FC4F40812F583C4F90E04917BE
:1039E00009F449C0255F3F4FF9013B9750815130A1
:1039F00009F442C09F5FF3CF87ED90E00E94950BE2
:103A00008D890E94F91384ED90E00E943014D9CF83
:103A1000CD8EDE8EEF8EF8A275CF8DA5811172CF7F
:103A200089A19AA1ABA1BCA1A7019601281B390BC2
:103A30004A0B5B0BDA01C901B7FD64CF8DA19EA1D2
:103A4000AFA1B8A58C199D09AE09BF0918161906B2
:103A50001A061B060CF056CF8FA5843610F04DA623
:103A6000B0CF0E94BC36A50194010E9438388FA5C2
:103A70006817A8F347CF672CB701A6010E94451627
:103A8000762C40CFE0912303F0912403552021F0C0
:103A9000E0912503F0912603309709F43FCF409140
:103AA000FB045091FC046091FD047091FE04C40E6F
:103AB000D51EE61EF71EC18AD28AE38AF48A2ECF6B
:103AC000BF92CF92DF92EF92FF920F931F93CF930B
:103AD000DF93EC01198D1F3F81F0612F45960E9405
:103AE000D10DFC018081898F309709F477C0148251
:103AF0008FEF8583BF01812F76C06C0135E0C30E47
:103B0000D11CE880F9808F89882341F0C6010E948A
:103B1000630EE62FF72F182F309749F71F89988DDE
:103B2000191324C0103109F459C0110F6D897E8911
:103B3000D701ED91FC91B4E01B9FA0011124C616A2
:103B4000D70609F044C00190F081E02DBA01C70109
:103B50000995009709F442C020E1F601DC010190CB
:103B60000D922A95E1F79E8B8D8B188F0D891E89FA
:103B70008F8921E0280F2F8BE4E08E9FC001112454
:103B8000080F191F90E1B92E203111F48FE0B82EE3
:103B9000F6E0BF9EB0011124D701ED91FC91019098
:103BA000F081E02DC7010995F80193838283892B69
:103BB00009F4B12CD801BC9211961C92012B71F022
:103BC000C6010E94630EE62FF72F182F8DCF0480B9
:103BD000F581E02DC7010995009729F681E08A83D8
:103BE00060E070E08FEFDF91CF911F910F91FF9018
:103BF000EF90DF90CF90BF9008954F925F926F92B9
:103C00007F928F929F92AF92BF92CF92DF92EF926C
:103C1000FF920F931F93CF93DF9300D000D01F929A
:103C2000CDB7DEB78C017B01B42E0E94410E6C0132
:103C3000892B09F048C0C8010E94FD0D863609F4A1
:103C4000A9C124F5873229F08B3561F1823209F060
:103C5000A8C1D80115961C921E92149712968D91A8
:103C60009C911397892B39F48D919C910E94C405E6
:103C7000F80193838283C8010E94A3116C01892BF0
:103C800011F5B701C8010E9482121DC0843709F4E2
:103C900060C18B3709F47BC08E3609F082C16AECB3
:103CA00071E060C180E4D70114968C931497E114FD
:103CB000F10421F08FEF8C9311968C93B1101AC000
:103CC00025E0C22ED12CC6010F900F900F900F90BF
:103CD0000F90DF91CF911F910F91FF90EF90DF90A8
:103CE000CF90BF90AF909F908F907F906F905F909C
:103CF0004F900895F8011286C8010E94410E009766
:103D000051F56DE5C8010E940D0E8111DCCFBA940A
:103D1000D8011B966D907C90C3010E94601DA82E57
:103D20004B01672B21F494E0C92ED12CCCCFF701A5
:103D300061816F3F91F0C30145960E94D10DDC0176
:103D40001596AC92F701A1824B2DB401C8010E94D7
:103D5000FD1D009739F06C01B6CFD7018C931196F9
:103D60008C93F2CFC8010E94410E0097A1F76DE538
:103D7000C8010E940D0E8111A6CF6CE2C8010E94FD
:103D80000D0E8111C5CF83E0C82ED12C9CCF80E2CF
:103D9000F7018483E114F10419F08FEF80838183AC
:103DA000BB2009F48DCFD8011A961C92C8010E943D
:103DB000410E009781F66DE7C8010E940D0E81113A
:103DC00082CFBA94F8011582148282819381892B63
:103DD00049F4808191810E94C405D80113969C9377
:103DE0008E931297C8010E94FD0D8732F9F082323E
:103DF000E9F0C8010E94FD0DD82E0E94EB0D88232A
:103E000011F2F80112866D2DC8010E947511C801CA
:103E10000E94FD0DD82E0E94EB0D8111F2CFD8012A
:103E200012968D919C91892B41F47DCFC8010E94FF
:103E3000A3116C01892B09F046CFC8010E94410EE5
:103E40006C01892B09F03FCF6AE3C8010E940D0E77
:103E5000882309F498CFD8011296ED91FC9113971D
:103E600014968D919C911597E80FF91F1482149662
:103E70006D917C9115977F771B966D907C901C9728
:103E800012968D919C910496272F2F77BA2DB0789A
:103E9000AB2EA22AE894A7F89301AC017A2DC701B2
:103EA0000E9486196C01009761F5C3010E94601D94
:103EB000482E4B01672B09F436CFC3010E94601DC9
:103EC000582E962FC92ED72EC114D10409F42BCF0A
:103ED000F4015582D70111966C916F3F71F0C301C7
:103EE00045960E94D10DFC014582D70111965C9246
:103EF000B401C8010E94821207C0F70140825182BA
:103F0000F7CFB3010E941F134B2DB601C8010E94C9
:103F1000FD1D6C01892B09F0D6CEC8010E94410E0F
:103F20006C01892B09F0CFCE6DE7C8010E940D0E00
:103F30008111C9CE6CE2C8010E940D0E882309F4DC
:103F400022CFC8010E94410E6C01892B09F43ACF9F
:103F5000BACE86E0D70114968C93149781E08C93A7
:103F60006FEB71E0C8010F900F900F900F900F90C2
:103F7000DF91CF911F910F91FF90EF90DF90CF9045
:103F8000BF90AF909F908F907F906F905F904F9079
:103F90000C941E0E86E0F7018483108264EC71E0BD
:103FA000E1CFC8010E94FD0D4801FDE08F0E911C7C
:103FB000B12C782CA92C803384F08A3384F43FE32D
:103FC000B316A9F0D8011A961C92B394F401819308
:103FD0004F01C8010E94FD0DEECF8B3281F393EDAE
:103FE000980F923060F3982F9F7D953441F30B0D1D
:103FF000111DD8011D961C92872D9A2D0E94CE0F5F
:104000003A834B835C836D838A819B81AC81BD81C4
:104010002230A9F0233059F0213009F0B4CE2EE03F
:10402000F701248380839183A283B3834CCE2AE05B
:10403000F701248380839183A283B38344CE2CE051
:10404000F7CF4F925F926F927F928F929F92AF9233
:10405000BF92CF92DF92EF92FF920F931F93CF9375
:10406000DF93CDB7DEB7CE5ED1090FB6F894DEBFD1
:104070000FBECDBF6E012EECC20ED11C86E091E0CA
:10408000F60191838083128214821382C601059601
:10409000968B858B178A84E0808F8FEF818F168EA9
:1040A000878F9E012F5F3F4F590110E000E00E9473
:1040B000090860938E0270938F0280939002909310
:1040C000910286E892E00E94E40A97FD02C00C94F7
:1040D000592E0E94090840908E0250908F026090E5
:1040E00090027090910264197509860997094090B1
:1040F0008A0250908B0260908C0270908D02641541
:10410000750586059705E8F20F37110561F486E815
:1041100092E00E94060B892B31F086E892E00E9423
:10412000E40A0A97A1F7E1E0F0E0EC0FFD1FE00FD1
:10413000F11F10820530110578F045E050E06FEC7A
:1041400071E0CE0101960E94D43B892B29F484EDC5
:1041500097E00E94301428C4F60160817181C60185
:1041600005960E948F0EF601128200811181F601E0
:1041700083819481009751F0FC0120813181F60107
:1041800034832383B8010E941513F1CF168ECF57C5
:10419000DF4FD982C882C158D040CD57DF4F198236
:1041A0001882C358D040CB57DF4F19821882C558A8
:1041B000D040C957DF4F1882C758D04021E030E0C7
:1041C0002C0F3D1FC857DF4F39832883C858D04074
:1041D000C557DF4F1882CB58D040C457DF4FD98224
:1041E000C882CC58D0404AE0B601665E7F4FCE010F
:1041F0008F579F4F0E94FD1D8C01892B69F4C65774
:10420000DF4F8881CA58D040882331F0F601868D6F
:1042100083FF02C003E010E0CD57DF4F8881998112
:10422000C358D040009751F0CF57DF4FE881F98154
:10423000C158D040608171810E941513011511058C
:10424000F1F08DE895E00E94950BF801EE0FFF1F4D
:10425000E75EFB4F859194910E94950B8AE895E06B
:104260000E94301486E892E00E94060B1816190688
:104270000CF09AC386E892E00E94E40AF3CFCF578D
:10428000DF4FD982C882C158D04085ED91E0CD572B
:10429000DF4F99838883C358D04083E0CB57DF4FEB
:1042A0008883C558D040CA57DF4F1881C658D040C0
:1042B00010781068CA57DF4F1883C658D040CE0117
:1042C0008F579F4F0E940B1A009709F46DC3FC0192
:1042D0008481882309F468C31068CA57DF4F1883A4
:1042E000C658D040CE018F579F4F0E948F1B8C0124
:1042F000893DF1E09F0709F4F8C00CF0A5C18837AB
:1043000031E0930709F4F4C40CF0F4C08733914012
:1043100009F4D8C3083381E018070CF0AFC00D32A0
:1043200091E0190709F4EDC20CF098C060E00C327E
:10433000F1E01F0709F4E6C2083EF1E01F0709F4A7
:104340004BC60CF0C4C60D3C110511F40C94B02AF8
:104350000CF0D8C50736110511F40C94A22C0CF002
:1043600075C50536110511F40C94E32A14F00C946C
:10437000992C0436110509F0A7C480917C028111A3
:1043800013C30E9409084B015C018092780290924D
:104390007902A0927A02B0927B02109200051092EC
:1043A0000205E6E0F4E086E095E0108270968E1754
:1043B0009F07D9F785E393E00E94220C83E593E001
:1043C0000E94220CE0912903F0912A03309711F00A
:1043D0000C94942CE0912B03F0912C03309719F05E
:1043E00084810E941608E0912D03F0912E033097EE
:1043F00021F060E084810E944507E0912F03F09155
:104400003003309721F060E084810E944507E091FD
:104410003103F0913203309729F011A660E08481D6
:104420000E94450783E591E00E94950B809154021C
:1044300090915502A0915602B0915702A5019401A6
:10444000281B390B4A0B5B0BCA01B9010E94F613FA
:104450000E948B1481E080937C02A6C20F3221E07F
:10446000120709F40BC360E0063331E0130709F0CB
:1044700063CF80911B0190911C0148C2033741E03A
:10448000140709F446C23CF5093381E0180709F026
:1044900053CF00911B0110911C010E940908F801E3
:1044A000618B728B838B948B85849684A784B08870
:1044B000DC01CB01880D991DAA1DBB1D858B968B38
:1044C000A78BB08F81E080A342EC53E068EC73E0EF
:1044D0008DEC93E0F4C2043791E0190709F47FC230
:1044E0000537E1E01E0709F027CF083D114009F428
:1044F0007DC05AC28139F1E09F0709F403C3CCF5AE
:104500008E3731E0930709F4DFC21CF58D379140F7
:1045100009F012CFEE24EA94FE2C00E010E021E036
:1045200030E040E050E069ED71E0C6010E94321BCE
:104530009B01AC01E0911B01F0911C0121873287A6
:104540004387548760EE73E08AEE93E00E94EC1795
:104550002BC2023881E0180709F4DFC360E000399C
:1045600091E0190709F0E8CE80911D0190911E019C
:10457000CDC18B39E1E09E0709F4E8C27CF48339B0
:1045800021E0920709F4C0C260E08A39914009F045
:10459000D3CE80911F0190912001B8C18D3941E0A7
:1045A000940709F4F5C2883D914009F0C5CE10EC9E
:1045B000E12E17E2F12E09E010E021E030E040E0CA
:1045C00050E063EE71E0C6010E94321B9B01AC011A
:1045D000E0911D01F0911E012187328743875487A6
:1045E00064EB73E08DEB93E00E94EC17CF57DF4F45
:1045F000D982C882C158D04083EE91E0CD57DF4FB9
:1046000099838883C358D04088E0CB57DF4F888395
:10461000C558D040CA57DF4F8881C658D0408078EF
:104620008068CA57DF4F8883C658D040CE018F5765
:104630009F4F0E94AE1A60932E0170932F018093BA
:1046400030019093310117C20F3982E0180709F445
:10465000D5C20CF088C0053FE1E01E0709F4BAC2DC
:1046600074F5023E21E0120709F472C2C4F40C3D55
:1046700041E0140709F060CE15E3E12EF12C00E0D3
:1046800010E022E030E040E050E06CEE71E0C60166
:104690000E94321B80911D0190911E013BC3063E7A
:1046A00051E0150709F44CC360E0043F81E01807AE
:1046B00009F042CE809121019091220127C1083555
:1046C00092E0190709F491C2C4F40034F2E01F0724
:1046D00009F032CE15E3E12EF12C00E010E022E0EB
:1046E00030E040E050E06CEE71E0C6010E94321B09
:1046F00080912101909122010DC3093522E012071A
:1047000009F46AC20B3532E0130709F015CE0091A7
:104710002301109124010115110509F445C10E94DE
:104720000908AB01BC01F801458B568B678B708F74
:1047300085859685A785B089840F951FA61FB71F0D
:10474000818F928FA38FB48FFF24F394F6A2C801B8
:104750000E947C0CF801F0A643E753E069E773E0A0
:104760008EE793E0ACC1043843E0140709F4B6C205
:104770000CF075C0043A82E0180709F4F4C20CF09A
:1047800054C0003AE2E01E0709F0D6CD10ECE12E4D
:1047900017E2F12E09E010E021E030E040E050E0C7
:1047A00063EE71E0C6010E94321B9B01AC01E091F7
:1047B0002301F0912401309751F0258736874787F0
:1047C000508B64E573E08DE593E00E94EC17CF57C2
:1047D000DF4FD982C882C158D04083EE91E0CD57D7
:1047E000DF4F99838883C358D04088E0CB57DF4F91
:1047F0008883C558D040CA57DF4F8881C658D040FB
:1048000080788068CA57DF4F8883C658D040CE0171
:104810008F579F4F0E94AE1A60932A0170932B010D
:1048200080932C0190932D0126C1093AF2E01F07D5
:1048300009F431C20A3A22E0120709F07DCDE09175
:104840002301F0912401309709F4AEC081E085A3E3
:1048500047E253E063E373E088E393E030C1003D57
:1048600033E0130709F499C244F5053853E01507FE
:1048700009F423C2073883E0180709F05DCDA09042
:104880002501B0902601A114B10409F41DC261E014
:10489000F50180810E94450781E0F50185870E942E
:1048A0000908F50166877787808B918B41E153E09A
:1048B00067E173E08CE193E002C1043394E01907EF
:1048C00009F4A8C20036E5E01E0709F035CD809155
:1048D000170190911801892B09F466C015E3E12EA8
:1048E000F12C00E010E022E030E040E050E06CEE1F
:1048F00071E0C6010E94321B80911701909118014E
:10490000A2C261E08091190190911A010E94BE1823
:104910004BC0EE24EA94FE2C00E010E021E030E0F1
:1049200040E050E069ED71E0C6010E94321B9B013E
:10493000AC01E0911901F0911A0121873287438778
:1049400054876BE074E085E194E00E94EC17CF5748
:10495000DF4FD982C882C158D04089ED91E0CD5750
:10496000DF4F99838883C358D04089E0CB57DF4F0E
:104970008883C558D040CA57DF4F8881C658D04079
:1049800080788068CA57DF4F8883C658D040CE01F0
:104990008F579F4F0E94AE1A60933201709333017C
:1049A0008093340190933501C6010E948713C25150
:1049B000DF4F0FB6F894DEBF0FBECDBFDF91CF91B2
:1049C0001F910F91FF90EF90DF90CF90BF90AF902D
:1049D0009F908F907F906F905F904F90089510EC14
:1049E000E12E17E2F12E09E010E021E030E040E096
:1049F00050E063EE71E0C6010E94321B9B01AC01E6
:104A0000E0911901F0911A01258736874787508B6D
:104A10006EEF73E087E094E00E94EC17CF57DF4F12
:104A2000D982C882C158D04083EE91E0CD57DF4F84
:104A300099838883C358D04088E0CB57DF4F888361
:104A4000C558D040CA57DF4F8881C658D0408078BB
:104A50008068CA57DF4F8883C658D040CE018F5731
:104A60009F4F0E94AE1A6093360170933701809376
:104A70003801909339010E94D40E96CF009119010C
:104A800010911A010E940908F801618B728B838BC7
:104A9000948B85849684A784B088DC01CB01880D33
:104AA000991DAA1DBB1D858B968BA78BB08F81E0AE
:104AB00080A34FEE53E065EF73E08AEF93E00E942E
:104AC000631472CF61E0D5CC10ECE12E17E2F12E29
:104AD00009E010E021E030E040E050E063EE71E0FA
:104AE000C6010E94321B9B01AC01E0911B01F091B9
:104AF0001C01258736874787508B62ED73E08BED6D
:104B000093E024CD61E030CD00911D0110911E0194
:104B10000E940908F801658776878787908B8184D2
:104B20009284A384B484DC01CB01880D991DAA1D55
:104B3000BB1D818B928BA38BB48B81E0858B44EA68
:104B400053E06AEA73E08FEA93E0B9CF61E021CDE8
:104B500010ECE12E17E2F12E09E010E021E030E048
:104B600040E050E063EE71E0C6010E94321B9B0101
:104B7000AC01E0911F01F09120012187328743872A
:104B8000548765E973E08EE993E00E94EC1773CFD8
:104B900000911F01109120010E940908F80165870A
:104BA00076878787908B81849284A384B484DC0188
:104BB000CB01880D991DAA1DBB1D818B928BA38BE8
:104BC000B48B81E0858B44E853E06AE873E08FE8BA
:104BD00093E075CF61E06ECD809123019091240127
:104BE00061E0009709F092CEDFCE80912301909191
:104BF000240160E0009709F089CED6CEEE24EA9435
:104C0000FE2C00E010E021E030E040E050E069EDF3
:104C100071E0C6010E94321B9B01AC01E0912301AF
:104C2000F0912401309779F02115310541055105A6
:104C300021F0218732874387548763E673E08DE64E
:104C400093E00E94EC17CF57DF4FD982C882C1583A
:104C5000D04089ED91E0CD57DF4F99838883C358C9
:104C6000D04089E0CB57DF4F8883C558D040CA5722
:104C7000DF4F8881C658D04080788068CA57DF4FA0
:104C80008883C658D040CE018F579F4F0E94351A57
:104C90008093290189CEE0912301F091240130977E
:104CA00049F015A24EE353E069E473E08EE493E02B
:104CB0000E94631410926502DECE809125019091CE
:104CC000260161E0009789F48EE191E00E94950B46
:104CD000C8010E9400148CE191E03BCA809125013B
:104CE00090912601009781F360E00E943E145CCE13
:104CF00015E3E12EF12C00E010E022E030E040E08E
:104D000050E06CEE71E0C6010E94321B80911901E7
:104D100090911A010E942C1947CE15E3E12EF12C37
:104D200000E010E022E030E040E050E06CEE71E0A6
:104D3000C6010E94321B80911B0190911C01EACF99
:104D400015E3E12EF12C00E010E022E030E040E03D
:104D500050E06CEE71E0C6010E94321B80911F0191
:104D600090912001D7CF8091230190912401892B2C
:104D700009F41ACE15E3E12EF12C00E010E022E058
:104D800030E040E050E06CEE71E0C6010E94321B62
:104D90008091230190912401BDCF809125019091B4
:104DA0002601892B09F490CF15E3E12EF12C00E0C8
:104DB00010E022E030E040E050E06CEE71E0C6012F
:104DC0000E94321BF62E0091250110912601F80158
:104DD0008585882331F060E080810E944507F801D5
:104DE0001586F801F08261E08F2D0E94730760E064
:104DF000F80180810E9445078DEC92E00E94950B9E
:104E0000F8018081082E000C990B0E9400140E946A
:104E10008B14CACD8091150190911601892B09F44C
:104E2000C3CD15E3E12EF12C00E010E022E030E0EC
:104E300040E050E06CEE71E0C6010E94321B8091B0
:104E40001501909116010E946219AECD0936110527
:104E500009F433C60CF494C5093C110509F034CFAC
:104E6000CF57DF4FD982C882C158D0409BE0A92ECE
:104E700092E0B92ECD57DF4FB982A882C358D040F7
:104E800015E0CB57DF4F1883C558D040CA57DF4FC6
:104E90008881C658D04080788068CA57DF4F8883A1
:104EA000C658D040CE018F579F4F0E94351A0E949E
:104EB000D206CF57DF4FD982C882C158D040CD57D4
:104EC000DF4FB982A882C358D040CB57DF4F188339
:104ED000C558D040CA57DF4F8881C658D040807827
:104EE0008068CA57DF4F8883C658D040CE018F579D
:104EF0009F4F0E94AE1A9B01AC016DEB74E083ECF6
:104F000094E024CB033831E0130709F4A2C00CF07D
:104F100058C0093751E0150709F49BC00A3781E0F2
:104F2000180709F459C00D3D110509F0CDCEC25145
:104F3000DF4F1882CE5ED040CF57DF4FD982C88274
:104F4000C158D04086E192E0CD57DF4F99838883E6
:104F5000C358D04085E0CB57DF4F8883C558D04039
:104F6000CA57DF4F8881C658D04080788068CA57BA
:104F7000DF4F8883C658D040BE0162517F4FCE01BB
:104F80008F579F4F0E94241A182F85E695E0112312
:104F900011F08FE495E090930E0180930D0185E070
:104FA000111186E0809310010E94D40E48E854E06D
:104FB000112311F04DE854E063E974E08FE994E0C7
:104FC0007ECD0D3D91E0190709F443C0CCF50438BE
:104FD000F1E01F0709F078CECF57DF4FD982C882A2
:104FE000C158D0408AE292E0CD57DF4F9983888341
:104FF000C358D04086E0CB57DF4F8883C558D04098
:10500000CA57DF4F8881C658D04080788068CA5719
:10501000DF4F8883C658D040CE018F579F4F0E94E4
:105020000B1AFC01892B39F084818A3009F4E8C518
:105030008C3009F4F9C5B12CA12C89E0F82E08C6F2
:105040000E3D21E0120741F2073E31E0130709F05F
:105050003BCECF57DF4FD982C882C158D04080EFB6
:1050600091E0CD57DF4F99838883C358D04085E0C6
:10507000CB57DF4F8883C558D040CA57DF4F888150
:10508000C658D04080788068CA57DF4F8883C6589A
:10509000D040CE018F579F4F0E94AE1A613C27E24D
:1050A000720729E08207910520F060EC77E289E041
:1050B00090E0013A32E0130709F010C160931B053C
:1050C00070931C0580931D0590931E05D4CC083366
:1050D00044E0140709F4C1C10CF063C0083E83E04A
:1050E000180709F42EC184F40C3AE2E01E0709F413
:1050F0001CC10D3AF2E01F0709F41DC1013A22E07C
:10510000120709F0E1CDA5CF023334E0130709F40B
:105110001AC14CF461E0093E53E0150709F0D4CD03
:1051200083EE95E0F3CB033384E0180709F443C121
:10513000053394E0190709F0C7CDCF57DF4FD98267
:10514000C882C158D0408EEF91E0CD57DF4F998390
:105150008883C358D0408CE0CB57DF4F8883C55835
:10516000D040CA57DF4F8881C658D04080788068C9
:10517000CA57DF4F8883C658D040CE018F579F4F04
:105180000E94351A811181E08093FF048093770299
:10519000282F30E050E040E063E675E080E795E0DE
:1051A000D5C90E35E5E01E0709F465C104F50431E3
:1051B00025E0120709F45DC1053135E0130709F454
:1051C00054C1093344E0140709F07ECD81E0809397
:1051D000F30583EE95E0909305018093040141E08F
:1051E00060E475E08BE495E00E94C317DDCB0136E7
:1051F00055E0150709F477C10CF057C00F3595E05D
:10520000190709F061CDCF57DF4FD982C882C15845
:10521000D0402BE0A22E22E0B22ECD57DF4FB98234
:10522000A882C358D04015E0CB57DF4F1883C5582C
:10523000D040CA57DF4F8881C658D04080788068F8
:10524000CA57DF4F8883C658D040CE018F579F4F33
:105250000E94351A0E94D206CF57DF4FD982C882EA
:10526000C158D040CD57DF4FB982A882C358D04033
:10527000CB57DF4F1883C558D040CA57DF4F8881BE
:10528000C658D04080788068CA57DF4F8883C65898
:10529000D040CE018F579F4F0E94AE1A9B01AC01A8
:1052A00066EF74E08CEF94E051C90436E5E01E0728
:1052B00009F44EC10536F5E01F0709F005CD81E080
:1052C0008093CD058DEB95E09093050180930401CB
:1052D00041E062EE74E08DEE94E086CF093741E064
:1052E000140749F460936102709362028093630231
:1052F00090936402C0CB033851E0150709F454CBF6
:105300000D3D114049F460935D0270935E028093FD
:105310005F0290936002AFCB6093590270935A0280
:1053200080935B0290935C02A6CB81E08093650240
:1053300010925802A0CB81E08093650280935802BE
:105340009ACB60E0EDCECF57DF4FD982C882C158EB
:10535000D04086EF91E0CD57DF4F99838883C358C3
:10536000D04087E0CB57DF4F8883C558D040CA571D
:10537000DF4F8881C658D04080788068CA57DF4F99
:105380008883C658D040CE018F579F4F0E94AE1AD7
:105390004B015C018092110190921201A0921301C5
:1053A000B09214010E94A506A501940169E775E079
:1053B00081E895E0CBC8CF57DF4FD982C882C1586A
:1053C000D0403BE0A32E32E0B32ECD57DF4FB98261
:1053D000A882C358D04015E0CB57DF4F1883C5587B
:1053E000D040CA57DF4F8881C658D0408078806847
:1053F000CA57DF4F8883C658D040CE018F579F4F82
:105400000E94351A0E94D206CF57DF4FD982C88238
:10541000C158D040CD57DF4FB982A882C358D04081
:10542000CB57DF4F1883C558D040CA57DF4F88810C
:10543000C658D04080788068CA57DF4F8883C658E6
:10544000D040CE018F579F4F0E94AE1A9B01AC01F6
:1054500064E575E08AE595E079C81092F30540E0CF
:105460006CE275E087E395E0BFCE61E08DEB95E0FF
:105470004DCA60E0FBCFCF57DF4FD982C882C158F9
:10548000D04086EF91E0CD57DF4F99838883C35892
:10549000D04087E0CB57DF4F8883C558D040CA57EC
:1054A000DF4F8881C658D04080788068CA57DF4F68
:1054B0008883C658D040CE018F579F4F0E94AE1AA6
:1054C0004B015C018092110190921201A092130194
:1054D000B09214010E94A506A50194016BE175E04C
:1054E00083E295E033C8CF57DF4FD982C882C158D5
:1054F000D0408EEF91E0CD57DF4F99838883C3581A
:10550000D0408CE0CB57DF4F8883C558D040CA5776
:10551000DF4F8881C658D04080788068CA57DF4FF7
:105520008883C658D040CE018F579F4F0E94351AAE
:10553000811181E08093FF0480937702282F30E06F
:1055400050E040E065E075E082E195E00C94A62231
:105550001092CD0540E06EEC74E089ED94E044CE0D
:10556000CF57DF4FD982C882C158D04081E192E045
:10557000CD57DF4F99838883C358D04084E0CB5701
:10558000DF4F8883C558D040CA57DF4F8881C6583F
:10559000D04080788068CA57DF4F8883C658D04093
:1055A000CE018F579F4F0E94351A80930F01809331
:1055B0003B03282F30E050E040E06AEA74E082EBE1
:1055C00094E00C94A6220E9409084B015C01809291
:1055D000540290925502A0925602B0925702109235
:1055E0000105109202058092F7049092F804A092AF
:1055F000F904B092FA0481E08093000585E393E01A
:105600000E94220C83E593E00E94220C03E213E047
:10561000F8018489882341F08289813009F055C1DD
:10562000858E968EA78EB0A2025E1F4FF3E00F35D7
:105630001F0771F7E6E0F4E086E095E010827096CF
:105640008E179F07D9F7E0912303F0912403309739
:1056500021F0118A128A138A148AE0912503F091AD
:105660002603309721F0118A128A138A148AE09156
:105670003103F09132033097A9F0158A168A178A00
:10568000108E118E128E138E148E158E168E178E0E
:1056900010A211A212A213A214A216A217A210A65F
:1056A00081E081A70E94D40E89E892E00E94301424
:1056B0008AE392E00E94950B6091110170911201B2
:1056C00080911301909114010E94F61389E292E0F7
:1056D0000E94950B809177020E94F91387E192E076
:1056E0000E94950B8091040190910501835E954085
:1056F00009F417C183EC91E00E94950B84E192E0DC
:105700000E943014E0903601F0903701009138018A
:1057100010913901209132013091330140913401CF
:10572000509135016091A20580E192E00E947E17C0
:10573000E0908805F090890500918A0510918B050D
:10574000209184053091850540918605509187050B
:10575000609181058BE092E00E947E1720912E01DE
:1057600030912F01409130015091310160916B05D2
:1057700086E092E00E944F1720915805309159051C
:1057800040915A0550915B056091550580E092E08B
:105790000E944F17E0902A01F0902B0100912C01FC
:1057A00010912D012091290130E050E040E06091FE
:1057B00010058AEF91E00E947E1710913A0589EA60
:1057C00091E00E94950B85EF91E00E94950B8EE988
:1057D00091E00E94950B83E991E0112311F089E992
:1057E00091E00E94950B0E948B144091F30560910B
:1057F000E9058CEE91E00E9423174091CD05609160
:10580000C30583EE91E00E94231789EC91E00E948A
:10581000950B80910F010E94F9130E948B148091C7
:10582000540290915502A0915602B0915702E09116
:105830001501F091160180839183A283B383E091D7
:105840001701F091180180839183A283B383E091C3
:105850001901F0911A0180839183A283B383E091AF
:105860001B01F0911C0180839183A283B383E0919B
:105870001D01F0911E0180839183A283B383E09187
:105880001F01F091200180839183A283B383E09173
:105890002101F091220180839183A283B383E0915F
:1058A0002301F0912401309721F080839183A2831A
:1058B000B383E0912501F0912601309709F474C873
:1058C00081879287A387B4876FC8823009F0ACCEF6
:1058D00041A452A463A474A460E070E0CB0114144A
:1058E00015041604170434F40E94BC36A301920177
:1058F0000E943838680D791D8A1D9B1DF80161A32F
:1059000072A383A394A381A592A5A3A5B4A5880D92
:10591000991DAA1DBB1D85A396A3A7A3B0A715A675
:1059200083CE86EC91E0E8CE84810E9416080C9428
:10593000EA218091000581110C94A7200E94E818AB
:105940000C94A7200E9409084B015C01809100057E
:1059500081110FC00E94EA068092F7049092F80429
:10596000A092F904B092FA04B501A40180E00E946B
:1059700045164CE654E062E774E08DE794E09FC87A
:10598000C251DF4F1882CE5ED040CF57DF4FD98251
:10599000C882C158D0408CE192E0CD57DF4F998347
:1059A0008883C358D04086E0CB57DF4F8883C558E3
:1059B000D040CA57DF4F8881C658D0408078806871
:1059C000CA57DF4F8883C658D040BE0162517F4F0F
:1059D000CE018F579F4F0E94241A182F0E9409084A
:1059E00020910005211166C010930105112369F172
:1059F0006093F7047093F8048093F9049093FA0489
:105A00000E94EA0685E393E00E94220C83E593E07E
:105A10000E94220CE0912303F0912403309721F09F
:105A2000118A128A138A148AE0912503F0912603C1
:105A3000309721F0118A128A138A148A4091010545
:105A400067E574E081E694E0CFCB0E94EA06E0913E
:105A50002903F0912A03309719F084810E941608D7
:105A6000E0912B03F0912C03309719F084810E9470
:105A70001608E0912D03F0912E03309721F060E09D
:105A800084810E944507E0912F03F0913003309705
:105A900021F060E084810E944507E0913103F0919C
:105AA0003203309721F060E084810E9445070E9414
:105AB000D40EC4CF1111C2CFFACFC251DF4F18821A
:105AC000CE5ED040CF57DF4FD982C882C158D04078
:105AD00083E292E0CD57DF4F99838883C358D0404B
