:100000000C948B050C94D02D0C94A92D0C94B30555
:100010000C94B3050C94B3050C94B3050C94F72D14
:100020000C94B3050C94B3050C94B3050C94B30570
:100030000C94B3050C94B3050C94B3050C94B30560
:100040000C945F2D0C94B3050C94792E0C94532EC4
:100050000C94B3050C94B3050C94B3050C94B30540
:100060000C94B3050C94B305546F6F446565700030
:100070004E6F4D656D6F727900496E76616C696483
:10008000496E70757400496E636F6D706C65746550
:10009000496E70757400456D707479496E70757431
:1000A000004F6B00CDCCCC3D0AD7233C17B7D138DD
:1000B00077CC2B329595E6241FB14F0A00002041E2
:1000C0000000C84200401C4620BCBE4CCA1B0E5A51
:1000D000AEC59D74227D007B226C6576656C223AEC
:1000E00022303031222C22646576696365223A22FF
:1000F000434F4E54524F4C4C4552222C2264657350
:1001000063223A225052207468726573686F6C647F
:100110002063617070656420617420007D007B2223
:100120006C6576656C223A22303036222C2264656A
:100130007363223A22436F6D6D616E64206E6F743B
:1001400020666F756E64222C22636F6D6D616E6424
:10015000223A007B226C6576656C223A2230303779
:10016000222C22646576696365223A22434F4E54FD
:10017000524F4C4C4552222C226576656E74223AC1
:1001800022454E44222C2274696D657374616D7032
:10019000223A0066616C7365007472756500222CEA
:1001A0002261726D6564223A007B226C6576656C13
:1001B000223A22303030222C22646576696365222F
:1001C0003A22004C48005248007B226C6576656CF0
:1001D000223A22303030222C227661726961626CC0
:1001E000655F696E74657276616C223A004C4556A3
:1001F00045525F4C48004C455645525F5248004CB2
:1002000049434B004C415345520050554D5032002C
:1002100050554D5000435545320043554500227D11
:10022000002C226163746976655F6C657665722265
:100230003A22002C2274696D656F75745F6D6F646E
:1002400065223A007B226C6576656C223A2230305A
:1002500030222C22646576696365223A22434F4E30
:1002600054524F4C4C4552222C2270617261646989
:10027000676D223A225641524941424C455F494EF0
:1002800054455256414C222C2274696D656F757429
:10029000223A007B226C6576656C223A2230303738
:1002A000222C22646576696365223A22434F4E54BC
:1002B000524F4C4C4552222C226576656E74223A80
:1002C000225354415254222C2274696D6573746117
:1002D0006D70223A307D007B226C6576656C223A27
:1002E00022303030222C22646576696365223A22FE
:1002F0004D4943524F53434F5045222C2270617257
:10030000616D223A22747269676765725F70696E07
:10031000222C2276616C7565223A0046495245448A
:100320000074657374004D4943524F53434F504519
:1003300000494E444550454E44454E54006D6F644F
:1003400065004C4153455200434F4E54494E47457A
:100350004E54006D6F6465004C4153455200647506
:10036000726174696F6E004C41534552006672654C
:100370007175656E6379004C415345520046495290
:1003800045440074657374004C415345520046491E
:1003900052454400746573740050554D50320064EA
:1003A00075726174696F6E0050554D503200464948
:1003B00052454400746573740050554D5000647587
:1003C000726174696F6E0050554D50004649524538
:1003D000440074657374004355453200647572615E
:1003E00074696F6E004355453200667265717565BC
:1003F0006E637900435545320046495245440074C6
:1004000065737400435545006475726174696F6E5D
:1004100000435545006672657175656E63790043EA
:10042000554500A100960086007900700068006CB8
:10043000657665725F66696C74657200434F4E54F1
:10044000524F4C4C45520073657373696F6E5F7009
:10045000617573656400434F4E54524F4C4C455286
:1004600000746573745F6D6F646500434F4E545242
:100470004F4C4C45520046495245440074657374D4
:100480005F636861696E00434F4E54524F4C4C4558
:10049000520050554D500050554D5032006163741C
:1004A0006976655F70756D7000434F4E54524F4CC6
:1004B0004C45520076695F696E74657276616C00B6
:1004C000434F4E54524F4C4C4552007265696E6614
:1004D0006F72636564004C455645525F4C4800722C
:1004E00065696E666F72636564004C455645525F80
:1004F0004C480074696D656F75745F6D6F6465005D
:100500004C455645525F4C480074696D656F757473
:10051000004C455645525F4C48007265696E666FE7
:1005200072636564004C455645525F5248007265DF
:10053000696E666F72636564004C455645525F5242
:10054000480074696D656F75745F6D6F6465004C0C
:10055000455645525F52480074696D656F75740069
:100560004C455645525F524800227D007B226C6507
:1005700076656C223A22303036222C226465736311
:10058000223A220044495341524D45440041524DC4
:10059000454400227D002C2264657363223A2200C8
:1005A000222C2270696E223A007B226C6576656C83
:1005B000223A22303031222C22646576696365222A
:1005C0003A2200222C22706172616D223A227069F7
:1005D0006E222C2276616C7565223A007B226C6556
:1005E00076656C223A22303030222C22646576699E
:1005F0006365223A2200222C2276616C7565223ACC
:1006000000222C22706172616D223A22007B226CE2
:100610006576656C223A22303030222C2264657671
:10062000696365223A220066616C736500747275B5
:100630006500222C2276616C7565223A00222C22FC
:10064000706172616D223A22007B226C6576656C66
:10065000223A22303030222C22646576696365228A
:100660003A2200227D00222C2276616C7565223AA6
:100670002200222C22706172616D223A22007B22BC
:100680006C6576656C223A22303030222C2264650B
:1006900076696365223A220044495341524D4544EC
:1006A0000041524D454400227D002C226465736355
:1006B000223A22007B226C6576656C223A22303029
:1006C00031222C22646576696365223A224D4943C2
:1006D000524F53434F5045222C2270696E223A00EC
:1006E00066616C73650074727565002C22647572A6
:1006F0006174696F6E223A002C22667265717565AD
:100700006E6379223A00222C2261726D6564223A6E
:10071000007B226C6576656C223A22303030222CC8
:1007200022646576696365223A220066616C7365AE
:100730000074727565002C226475726174696F6E45
:10074000223A00222C2261726D6564223A007B22DB
:100750006C6576656C223A22303030222C2264653A
:1007600076696365223A220066616C736500747273
:1007700075650066616C73650074727565002C2286
:100780007265696E666F72636564223A00222C227C
:1007900061726D6564223A007B226C6576656C221D
:1007A0003A22303030222C22646576696365223A21
:1007B0002200027B226C6576656C223A2230303052
:1007C000222C22646576696365223A22434F4E5497
:1007D000524F4C4C4552222C22736B657463682235
:1007E0003A2276695F6C6974652E696E6F222C22DD
:1007F00076657273696F6E223A2276332E342E300C
:100800002D616C7068612E3131222C226261756419
:100810005F72617465223A3131353230302C227387
:1008200063686564756C65223A22564152494142BB
:100830004C455F494E54455256414C227D002C2276
:10084000656E645F74696D657374616D70223A00E2
:100850002C226576656E74223A224C49434B222C39
:100860002273746172745F74696D657374616D7005
:10087000223A00222C2270696E223A007B226C659B
:1008800076656C223A22303037222C2264657669F4
:100890006365223A22002C22656E645F74696D657F
:1008A0007374616D70223A002C226576656E742235
:1008B0003A225354494D222C2273746172745F742E
:1008C000696D657374616D70223A007B226C657688
:1008D000656C223A22303037222C226465766963B7
:1008E00065223A224C41534552222C2270696E22D5
:1008F0003A0000000000240027002A000000000049
:10090000250028002B0000000000230026002900FD
:1009100004040404040404040202020202020303A5
:1009200003030303010204081020408001020408AD
:10093000102001020408102000000008000201003D
:100940000003040700000000000000004C4556456D
:10095000525F4C48004C455645525F524800227D3C
:10096000002C226F7269656E746174696F6E223A31
:1009700022002C22656E645F74696D657374616D0D
:1009800070223A00222C2273746172745F74696D54
:10099000657374616D70223A002C226576656E7401
:1009A000223A225052455353222C22636C617373B6
:1009B000223A2200222C2270696E223A007B226C9D
:1009C0006576656C223A22303037222C22646576B7
:1009D000696365223A220054494D454F55540049F8
:1009E0004E41435449564500414354495645002C15
:1009F000227363686564756C65645F6174223A0094
:100A00002C22746172676574223A007B226C6576D1
:100A1000656C223A22303036222C226572726F7257
:100A20005F636F6465223A22455F50454E44494EEC
:100A3000475F46554C4C222C2264657363223A2250
:100A400050656E64696E6720616374696F6E2071B2
:100A5000756575652066756C6C20E2809420616315
:100A600074696F6E2064726F70706564222C2261ED
:100A70006374696F6E5F74797065223A00535449EC
:100A80004D00494E465553494F4E00494E46555329
:100A9000494F4E00544F4E4500544F4E45004C4177
:100AA0005345520050554D505F320050554D505FE8
:100AB00031004355455F32004355455F31002C22DC
:100AC000656E645F74696D657374616D70223A0060
:100AD000222C2273746172745F74696D6573746122
:100AE0006D70223A002C226576656E74223A2200DF
:100AF000222C2270696E223A007B226C6576656C2E
:100B0000223A22303037222C2264657669636522CE
:100B10003A220000042F11241FBECFEFD8E0DEBF21
:100B2000CDBF12E0A0E0B1E0E6EDF5E702C0059030
:100B30000D92A435B107D9F726E0A4E5B2E001C0D3
:100B40001D92AC30B207E1F715E0CBE8D5E004C068
:100B50002197FE010E94DC38CA38D107C9F70E94EC
:100B6000C2310C94E93A0C940000CF93DF93EC016E
:100B700088819981DC01ED91FC910190F081E02D5B
:100B800064E270E00995009741F02FE1FC012383B6
:100B900021E02283DF91CF91089521E02A83FACFCB
:100BA0008F92AF92CF92EF920F93CF93DF93CDB707
:100BB000DEB732E0309334031092350331E03093E6
:100BC000360340934B0350934C0360934D03709353
:100BD0004E03109243031092440310924503109267
:100BE0004603109247031092480310924903109253
:100BF0004A0310924F0339E03093500334E63093A8
:100C000051031092540335E03093B20310927003F5
:100C100033E030937103E0927203109273031092E9
:100C2000740310927503109276034091A8055091B9
:100C3000A9056091AA057091AB0540937703509385
:100C400078036093790370937A0310927B0334E006
:100C500030937C03C0927D0310927E0310927F0339
:100C6000109280031092810340918705509188056E
:100C70006091890570918A054093820350938303A4
:100C80006093840370938503109286030093870317
:100C9000063009F08A2C8092880310928903109202
:100CA0008A0310928B0310928C03FC01818592853C
:100CB000A385B48580938D0390938E03A0938F03B7
:100CC000B09390031092910387E08093920389E0A0
:100CD00080939303109294031092950310929603BD
:100CE00010929703409116055091170560911805D1
:100CF00070911905409398035093990360939A0358
:100D000070939B0391E090939C0320939D038093A9
:100D10009E0310929F031092A0031092A1031092C1
:100D2000A2038091FA049091FB04A091FC04B0917D
:100D3000FD048093A3039093A403A093A503B09311
:100D4000A603DF91CF910F91EF90CF90AF908F904E
:100D500008956093FA047093FB048093FC049093CD
:100D6000FD043091B203E0E7F3E020E023130DC06F
:100D70003091F503E3EBF3E020E02317B1F040817D
:100D8000413071F02F5F3B96F8CF4081413019F030
:100D90002F5F3B96EBCF6783708781879287F8CF71
:100DA0006783708781879287EDCF0895E5E0F4E04F
:100DB0001082709685E0E530F807D1F7089583300A
:100DC00081F028F4813099F08230A9F008958730BD
:100DD000A9F08830C9F08430B1F4809180008F7D13
:100DE00003C0809180008F7780938000089584B540
:100DF0008F7784BD089584B58F7DFBCF8091B0003F
:100E00008F778093B00008958091B0008F7DF9CFE7
:100E1000CF93DF93282F30E0F901E85CF64F8491FF
:100E2000F901EC5DF64FD491F901E05FF64FC49102
:100E3000CC23A1F081110E94DF06EC2FF0E0EE0F31
:100E4000FF1FEA5FF64FA591B491EC91ED2381E08D
:100E500090E009F480E0DF91CF91089580E090E088
:100E6000FACF1F93CF93DF93282F30E0F901E85C8E
:100E7000F64F8491F901EC5DF64FD491F901E05FF2
:100E8000F64FC491CC23A9F0162F81110E94DF06E2
:100E9000EC2FF0E0EE0FFF1FE450F74FA591B49157
:100EA0008FB7F894EC91111108C0D095DE23DC9334
:100EB0008FBFDF91CF911F910895DE2BF8CFCF9395
:100EC000DF9390E0FC01EC5DF64F2491805F964F3C
:100ED000FC0184918823C9F090E0880F991FFC01E0
:100EE000EE50F74FA591B491FC01E450F74FC59136
:100EF000D49161110DC09FB7F8948C9120958223F5
:100F00008C938881282328839FBFDF91CF910895F8
:100F1000623051F49FB7F8943C91822F80958323DF
:100F20008C93E8812E2BEFCF8FB7F894EC912E2B7A
:100F30002C938FBFEACF3FB7F894809181029091B4
:100F40008202A0918302B091840226B5A89B05C0BD
:100F50002F3F19F00196A11DB11D3FBFBA2FA92F38
:100F6000982F8827BC01CD01620F711D811D911D35
:100F700042E0660F771F881F991F4A95D1F70895A1
:100F80008F929F92AF92BF92CF92DF92EF92FF9299
:100F90000E949B074B015C0184E6C82ED12CE12CFA
:100FA000F12C0E949B07681979098A099B09683E00
:100FB000734081059105A8F321E0C21AD108E10828
:100FC000F10888EE880E83E0981EA11CB11CC114A4
:100FD000D104E104F10429F7FF90EF90DF90CF9066
:100FE000BF90AF909F908F9008952FB7F894609125
:100FF0007D0270917E0280917F02909180022FBFCE
:10100000089508959091080189130BC0E2EBF7E071
:10101000E4919FEF90930801E13049F028F0E2302D
:1010200061F060E00C94310710926E00FACF90915D
:101030006F009D7F90936F00F4CF909170009D7F23
:101040009093700091E09093B0009091B100987FE0
:1010500094609093B1001092B300E3CF4F925F92EF
:101060006F927F928F929F92AF92BF92CF92DF92B8
:10107000EF92FF920F931F93CF93DF9300D000D096
:101080001F92CDB7DEB78B0129013A01909108017B
:101090008917C9F09F3F09F47EC00F900F900F9001
:1010A0000F900F90DF91CF911F910F91FF90EF90D4
:1010B000DF90CF90BF90AF909F908F907F906F9078
:1010C0005F904F900895E2EBF7E094919D8397FD38
:1010D000E4CF61E00E945F078D81882321F09D812C
:1010E000923009F04AC14801B12CA12C60E072E1B4
:1010F0008AE790E0A50198010E94283729833A8366
:101100004B835C8369017A0181E0C81AD108E10848
:10111000F1089FEFC916D104E104F10409F00CF4C1
:1011200001C160E472E48FE090E0A50198010E94A3
:10113000283769017A0181E0C81AD108E108F1086D
:101140009D81923009F0A2C08FEFC816D104E1044E
:10115000F10409F00CF4E6C160E970ED83E090E081
:10116000A50198010E94283769017A0191E0C91A06
:10117000D108E108F1088FEFC816D104E104F104A9
:1011800011F00CF07FC183E09091B100987F892B22
:101190008093B100CFC080930801E2EBF7E0949117
:1011A0009D839F3F09F479CF913041F150F0923007
:1011B00009F446C09D8197FD70CF61E00E945F07F2
:1011C0008ECF14BC15BC94B5926094BD95B591605A
:1011D00095BD282F30E0F901E05FF64FE491F0E093
:1011E000EE0FFF1FE450F74F45915491F901EC5D6C
:1011F000F64FE491E09366021D826BCF109280005F
:10120000109281009091810098609093810090915C
:101210008100916090938100282F30E0F901E05F18
:10122000F64FE491F0E0EE0FFF1FE450F74F4591C9
:101230005491F901EC5DF64FE491E093650249CFDA
:101240001092B0001092B1009091B0009260909313
:10125000B0009091B10091609093B100282F30E0E0
:10126000F901E05FF64FE491F0E0EE0FFF1FE4506C
:10127000F74F459154915093700240936F02F901DA
:10128000EC5DF64FE491E093710223CF9FEFC91616
:10129000D104E104F10409F00CF46DC068E478EEC7
:1012A00081E090E0A50198010E94283769017A0148
:1012B00081E0C81AD108E108F1089D81992309F459
:1012C000FAC08FEFC816D104E104F10411F00CF05C
:1012D000FBC0EFC064E274EF80E090E0A5019401F0
:1012E0000E94283769017A0181E0C81AD108E10813
:1012F000F10885E09FEFC916D104E104F10409F07B
:1013000008F442CF62E17AE780E090E0A501940121
:101310000E94283769017A0181E0C81AD108E108E2
:10132000F108E5C081E09D8191112ECF95B5987FA0
:10133000892B85BD2FEF3FEFA901411451046104B2
:10134000710409F043C09D81913009F45EC0923070
:1013500009F46DC09111A1CEC7BC20936B023093EC
:101360006C0240936D0250936E0280916E00826019
:1013700080936E0092CE82E0D6CFB12CA12C60E09B
:1013800072E18AE790E0A50198010E94283769017F
:101390007A0181E0C81AD108E108F108C114D1042A
:1013A00091E0E906F10404F591E08D81813011F6B8
:1013B00080918100887F892B809381002FEF3FEF00
:1013C000A9014114510461047104F9F0D801AA0F74
:1013D000BB1FA30192010E94473728EE33E040E093
:1013E00050E00E949137AFCF68E478EE81E090E062
:1013F000A50198010E94283769017A0181E0C81A85
:10140000D108E108F10893E0D0CFD0928900C092D2
:1014100088002093670230936802409369025093DA
:101420006A0280916F00826080936F0036CEC09216
:10143000B30020937202309373024093740250936E
:1014400075028091700082608093700026CE84E0E7
:101450009FEFC916D104E104F10409F008F466CF46
:10146000C980DA80EB80FC808AE0F594E794D79419
:10147000C7948A95D1F781E0C81AD108E108F1082C
:1014800085E054CF68E478EE81E090E0A501980112
:101490000E94283769017A0181E0C81AD108E10861
:1014A000F1089FEFC916D104E104F10411F00CF02A
:1014B00011CF84E069CE83E09FEFC916D104E10427
:1014C000F10409F00CF432CF62E17AE780E090E0B9
:1014D000A50194010E94283769017A0181E0C81AA8
:1014E000D108E108F1089D81992309F4B0CF86E085
:1014F0009FEFC916D104E104F10409F008F444CEC9
:10150000C980DA80EB80FC809AE0F594E794D79468
:10151000C7949A95D1F781E0C81AD108E108F1087B
:1015200087E032CE82E030CEAF92BF92CF92DF9290
:10153000EF92FF920F931F93CF93DF936C017B0188
:101540008B01040F151FEB015E01AE18BF08C01719
:10155000D10759F06991D601ED91FC910190F0818C
:10156000E02DC6010995892B79F7C501DF91CF914F
:101570001F910F91FF90EF90DF90CF90BF90AF90B1
:101580000895FC01538D448D252F30E0842F90E089
:10159000821B930B541710F0CF960895019708956E
:1015A000FC01918D828D981761F0A28DAE0FBF2F37
:1015B000B11D5D968C91928D9F5F9F73928F90E08D
:1015C00008958FEF9FEF0895FC01918D828D9817FC
:1015D00031F0828DE80FF11D858D90E008958FEF39
:1015E0009FEF0895FC01918D228D892F90E0805C02
:1015F0009F4F821B91098F739927089585E892E088
:101600000E94F20A21E0892B09F420E0822F08953C
:1016100080E090E0892B29F00E94FE0A81110C9451
:1016200000000895FC01A48DA80FB92FB11DA35A85
:10163000BF4F2C91848D90E001968F739927848FF2
:10164000A689B7892C93A089B1898C918370806415
:101650008C93938D848D981306C00288F389E02DB6
:1016600080818F7D80830895EF92FF920F931F9367
:10167000CF93DF93EC0181E0888F9B8D8C8D981345
:101680001AC0E889F989808185FF15C09FB7F89451
:10169000EE89FF896083E889F9898081837080649D
:1016A00080839FBF81E090E0DF91CF911F910F91E8
:1016B000FF90EF900895F62E0B8D10E00F5F1F4FF7
:1016C0000F731127E02E8C8D8E110CC00FB607FC06
:1016D000FACFE889F989808185FFF5CFCE010E9494
:1016E000120BF1CFEB8DEC0FFD2FF11DE35AFF4FE5
:1016F000F0829FB7F8940B8FEA89FB898081806222
:10170000CFCF0F931F93CF93DF938C01D0E0C0E036
:10171000F801EC0FFD1F6491662341F085E892E02B
:101720000E94340B892B11F02196F2CFCE01DF916C
:10173000CF911F910F910895CF93DF93EC01888D86
:101740008823B9F0AA89BB89E889F9898C9185FD3C
:1017500003C0808186FD0DC00FB607FCF7CF8C91CA
:1017600085FFF2CF808185FFEDCFCE010E94120B65
:10177000E9CFDF91CF910895CF92DF92EF92FF9260
:101780001F93CF93DF93EC016A017B018C810E9450
:10179000080711E0892B09F410E08B85181721F058
:1017A000CD8ADE8AEF8AF88E8D899E89AF89B88DC1
:1017B000B701A601481B590B6A0B7B0B898D90E082
:1017C000B0E0A0E084179507A607B70798F48C85CA
:1017D000181781F01C878A851817A9F0CA8EDB8E2E
:1017E000EC8EFD8EEAA1FBA1309721F0B701A60196
:1017F000898509951B87DF91CF911F91FF90EF900D
:10180000DF90CF900895CE8EDF8EE8A2F9A2ECA1F2
:10181000FDA1309779F389850995ECCFFC011582FC
:1018200013861486158616861786108A118A128AE0
:10183000138A148A158A168A138E8681882311F0DA
:10184000848183830895CF92DF92EF92FF920F936A
:101850001F93CF93DF93EC018E81811103C08D899B
:10186000882369F18C810D851E852F8538896A0151
:101870007B01C01AD10AE20AF30A9701860137FDFB
:1018800018C009891A892B893C89401B510B620BAE
:10189000730B14161506160617065CF061E0DF914F
:1018A000CF911F910F91FF90EF90DF90CF900C940C
:1018B000310760E00E9431078D8981111D8ADF9117
:1018C000CF911F910F91FF90EF90DF90CF900895EF
:1018D000CF92DF92EF92FF92CF93DF93EC01898555
:1018E0009A85AB85BC850097A105B10581F44D8F24
:1018F0005E8F6F8F78A349A35AA36BA37CA31FA20B
:10190000DF91CF91FF90EF90DF90CF9008956A0123
:101910007B01CD8EDE8EEF8EF8A2BC01CD010E9440
:1019200009369B01AC0160E070E080E89FE30E9413
:101930002F3820E030E040E05FE30E946A3620E08C
:1019400030E04AE754E40E946A3620E030E040E0AC
:101950005FE30E94C3370E94A838C60ED71EE81E58
:10196000F91EC9A2DAA2EBA2FCA28FA191E08927FD
:101970008FA3C6CFCF92DF92EF92FF92CF93DF93E8
:10198000EC016A017B018D899E89AF89B88DAB011D
:101990009601281B390B4A0B5B0BDA01C901B7FD15
:1019A00049C0898D9A8DAB8DBC8DAB019601281BEA
:1019B000390B4A0B5B0BDA01C901181619061A0616
:1019C0001B06C4F18EA18823A9F189859A85AB8570
:1019D000BC850197A105B10551F461E08C81DF91CF
:1019E000CF91FF90EF90DF90CF900C94310789A1B9
:1019F0009AA1ABA1BCA1AB019601281B390B4A0BE4
:101A00005B0BDA01C901B7FD04C0A601CE010E943B
:101A1000680C8C819FA1992311F061E0E0CF60E018
:101A20000E9431071FA2DF91CF91FF90EF90DF90CE
:101A3000CF90089560E08C810E9431071FA2898DAC
:101A40009A8DAB8DBC8DC81AD90AEA0AFB0A8EA101
:101A5000882331F01C141D041E041F040CF41EA264
:101A600088A5882301F31C141D041E041F04DCF642
:101A700018A6D9CF8F929F92AF92BF92CF92DF924A
:101A8000EF92FF920F931F93CF93DF93EC018E8120
:101A9000811104C088A1882309F445C07B0189898C
:101AA0009A89AB89BC894A015B01881A990AAA0AFA
:101AB000BB0AC501B40197FD53C00D891E892F894A
:101AC000388D4A015701801A910AA20AB30A95017A
:101AD000840110161106120613060CF441C02A8D5B
:101AE0002223A9F10C8D1D8D2E8D3F8D200F311FCE
:101AF0002115310511F421E030E0FB8C50E040E08D
:101B00000E94913760177107D8F4F1100AC06985F7
:101B10007A8520E030E0A9018C810E942E0881E0C6
:101B20008B8F81E0898FDF91CF911F910F91FF9073
:101B3000EF90DF90CF90BF90AF909F908F900895DF
:101B4000FF2079F38C810E9402081B8EEACF698501
:101B50007A8520E030E0A9018C810E942E08E1CF37
:101B6000898D882301F38C810E940208198E1B8EB7
:101B700088A18823C1F218A2D6CF6F3FA9F0E62F23
:101B8000E295EF7044E0E49F90011124DC01ED91B7
:101B9000FC91E20FF31F6F7082819381B6E06B9F1F
:101BA000800D911D1124089590E080E00895982FF4
:101BB00080336CF08A3324F08F3524F08B3724F493
:101BC00081E0089581341CF081E09B350CF080E0C9
:101BD0000895FC01828581110AC0A781B085CD01DD
:101BE0000196908787838C91818781E082878185A8
:101BF00008951F93CF93DF93EC01162F0E94E90DF8
:101C0000811306C01A8681E0DF91CF911F9108955C
:101C100080E0FACF0F931F93CF93DF938C01EB01FA
:101C20008991882369F0C8010E94E90D882379F021
:101C3000FE013197908198130DC0F8011286F0CF04
:101C400090E080E0DF91CF911F910F91089582E0A5
:101C500090E0F8CF83E090E0F5CFCF93DF93EC01F5
:101C6000CE010E94E90D8B304CF489305CF488235E
:101C700059F081E08E8390E080E00BC08D3011F050
:101C80008032B9F71A86ECCF8E81811105C081E0D0
:101C900090E0DF91CF91089582E090E0FACFDC01EF
:101CA00052969C915297915084E0989F90011124F4
:101CB0005096ED91FC91E20FF31F228133812115A3
:101CC000310579F041818081481758F481E0840F13
:101CD000818386E0489F200D311D11242115310597
:101CE00021F460E070E08FEF0895B901892F8295AB
:101CF000807F840F0895DF92EF92FF920F931F93DE
:101D0000CF93DF93EC017B01D12C688979898A8993
:101D1000D816E0F484E0D89E80011124060F171F26
:101D2000D80112966D917C916115710541F0D70132
:101D3000ED91FC910280F381E02DC7010995F80136
:101D40001382128210821182D394DFCF1A8A8FEF0E
:101D50008C8BC617D70761F0D701ED91FC910280FB
:101D6000F381E02DC7010995D98BC88B84E08B8B5B
:101D7000DF91CF911F910F91FF90EF90DF90089529
:101D80008F92AF92CF92DF92EF92FF920F931F93B9
:101D9000CF93DF93C0910D01D0910E0121E080918E
:101DA000040190910501825E954009F420E0409184
:101DB0000F015091100160911101709112018090FA
:101DC0000001A0900101C0900201E0900301009188
:101DD0001301CE010E94D005E091B203E43008F473
:101DE0006CC0CE54D54009F0BBC0C0905802D09012
:101DF0005902E0905A02F0905B028091600290914B
:101E00006102A0916202B09163020091730310918C
:101E100074032091750330917603080F191F2A1F50
:101E20003B1F009373031093740320937503309347
:101E3000760340917E0350917F03609180037091FF
:101E40008103840F951FA61FB71F80937E03909375
:101E50007F03A0938003B0938103809189039091C5
:101E60008A03A0918B03B0918C038C0D9D1DAE1D38
:101E7000BF1D8093890390938A03A0938B03B09333
:101E80008C038091940390919503A0919603B09157
:101E9000970340911A0550911B0560911C057091A4
:101EA0001D05840F951FA61FB71F80939403909361
:101EB0009503A0939603B0939703809164028823BF
:101EC00009F457C0E43018F083E080939103109236
:101ED000520381E08093530380935403809355030E
:101EE00080935603109257031092580310926E037A
:101EF00094E690936F038093F5031092B30387E009
:101F00008093B40389E08093B50380911A05909182
:101F10001B05A0911C05B0911D058093B6039093FD
:101F2000B703A093B803B093B903809116059091BD
:101F30001705A0911805B09119058093BA039093E5
:101F4000BB03A093BC03B093BD03DF91CF911F915E
:101F50000F91FF90EF90DF90CF90AF908F9008950A
:101F6000C0905C02D0905D02E0905E02F0905F0253
:101F700044CF10925403E9CF4F925F926F927F92B9
:101F80008F929F92AF92BF92CF92DF92EF92FF9289
:101F90000F931F93CF93DF9300D000D01F92CDB744
:101FA000DEB7DC012C912B32E1F12D32D9F501960F
:101FB000EE24E394FC01208130ED320F3A3010F032
:101FC0002E3291F58C0160E070E0CB01F801219197
:101FD00030ED832E820E39E0381508F444C06A399A
:101FE00049E97407840749E1940708F046C0AAE06C
:101FF000B0E09B01AC010E944737912CB12CA12C81
:10200000240135014094509460947094461657060C
:102010006806790690F1680D791D8A1D9B1D8F0158
:10202000D5CF0196E12CC6CF198229813A814B8107
:102030005C816D8170E080E090E00F900F900F90D8
:102040000F900F90DF91CF911F910F91FF90EF9024
:10205000DF90CF90BF90AF909F908F907F906F90C8
:102060005F904F900895211108C0EE2051F161302A
:102070007105810550E89507A0F0F12CBAE08B2E90
:10208000912CA12CB12C6115710530E883079105C5
:10209000F8F0A50194010E949137CA01B901F394A7
:1020A000F2CF22E029839B01AC0188279927DC012C
:1020B000821B930BA40BB50B8A839B83AC83BD83DC
:1020C000B4CF23E029836A837B838C839D83ADCF48
:1020D000F801D8012D918D0130ED320F3A3010F416
:1020E000F394F6CF2E3201F58F010F5F1F4FF801E9
:1020F0000F5F1F4F2081A0EDDA2ED20EB9E0BD1583
:1021000098F06C3CECEC7E07ECE08E07910578F7DC
:10211000AAE0B0E09B01AC010E9447376D0D711D34
:10212000811D911DFA94E3CF20812F7D10E000E006
:10213000253409F050C021812D32B1F53296CC24DE
:10214000C394DF0110E000E02F2D0F2C000C330BA7
:10215000EAE0BE2EFD01DD9040ED4D0D4A30B0F5B8
:10216000B09EA001B19E500D11240D2DDD0C110B60
:1021700000531109040F151FA801420F531F4732C6
:10218000510544F3CC20B9F080E090E0A0E0B0E845
:10219000E11003C080E090E0DC0121E029838A8324
:1021A0009B83AC83BD8341CF2B3219F03196C12C78
:1021B000C8CF3296FCCF80E090E0A0E8BFEFE110FE
:1021C000ECCF80E090E0A0E8BFE7E7CFCC2019F0AB
:1021D0001195019511092081211126CF0F0D111D97
:1021E000F7FC1A950E9409364CEBA42E40E0B42E61
:1021F000101611063CF011950195110954EAA52E0F
:1022000050E0B52ED12CC12C01151105E9F0F6E0F6
:10221000CF16D104A9F000FF0DC0F601EE0FFF1F8D
:10222000EE0FFF1FEA0DFB1D25913591459154914D
:102230000E946A36159507952FEFC21AD20AE4CF8D
:1022400060E070E080EC9FE7E110905821E0298386
:102250006A837B838C839D83E8CECF92DF92EF925B
:10226000FF920F931F93CF93DF937C016B018A0141
:10227000FC01C081D1814F3F510509F0B0F4E881E4
:10228000F9810480F581E02D4B5F5F4FCE01099508
:10229000009759F0FC010383DF91CF911F910F91BB
:1022A000FF90EF90DF90CF900895E881F981028050
:1022B000F381E02DB601CE01099581E0F70182831B
:1022C00090E080E0E9CF1F93CF93DF93EC01162FCE
:1022D0006A817B816115710589F04C815D81FB010B
:1022E00083818417150651F4440F551F4F5F5F4FCC
:1022F000888199810E942D119B838A838A819B8189
:10230000009759F02C813D81A9014F5F5F4F5D839C
:102310004C83820F931FFC011483DF91CF911F9197
:1023200008959F92AF92BF92CF92DF92EF92FF9269
:102330000F931F93CF93DF9300D000D01F92CDB7A0
:10234000DEB78C010E94E90DD82EF8011286F12C1F
:10235000E12C60EFC62EC8010E94E90DF80112863B
:10236000D81609F4B3C0811113C082E090E00F9039
:102370000F900F900F900F90DF91CF911F910F91C1
:10238000FF90EF90DF90CF90BF90AF909F90089517
:102390008C3509F099C0C8010E94E90D882329F302
:1023A000EFE9F1E0853709F083C0F801128654E0C7
:1023B000952EB12CA12CC8010E94E90D8823A9F209
:1023C000813434F48053803130F083E090E0CFCF1B
:1023D0008F7D8753F8CF44E0AA0CBB1C4A95E1F7E8
:1023E000A82AF80112869A949110E5CFC501985D4C
:1023F0008115944020F47501F3E0FF22ACCFC501B4
:102400009C5D81159440A8F483E0B822B701762F33
:102410006627770F770F6A297B2990E080E0019685
:10242000603871058105910540F4C8010E9463116F
:1024300092CFB50190E080E0F3CF1982262F2F7361
:1024400020682A8326E096958795779567952A9543
:10245000D1F76032710580F4606C6B835E01E4E05B
:10246000AE0EB11CF50162915F01662309F473CFD2
:10247000C8010E946311F6CF262F2F7320682B838B
:1024800086E0769567958A95E1F76031710538F4B5
:10249000606E6C835E01F5E0AF0EB11CE3CF606847
:1024A0006C83CD825E0126E0A20EB11CDBCF32969A
:1024B0009081992309F489CF8913F9CF81818823E9
:1024C00009F483CFF8011286682FAFCF8281938100
:1024D000892B19F484E090E04ACF90E080E047CF68
:1024E0006F927F928F929F92AF92BF92CF92DF9224
:1024F000EF92FF920F931F93CF93DF93EC012A810A
:102500003B812C5F3F4F4C815D814430510588F504
:102510008901F90180E0942FB22FAE2FA21BA917D9
:1025200030F4F190A1E0F110A0E08A2BF6CF8111F8
:1025300020C082E0EB018C83FB01802F8B1B89176D
:1025400028F4E80189918E018193F7CF640F751FFC
:10255000FB011082DF91CF911F910F91FF90EF90BF
:10256000DF90CF90BF90AF909F908F907F906F90B3
:1025700008958B01F901E40FF51F1082888199817C
:102580004C815D81DC011396ED91FC913A01E89458
:1025900077F86901C60CD71C3097C1F0A381A61546
:1025A000170481F449017F01B4E0EB0EF11C8C1497
:1025B0009D0429F1D401AD904D01D701BD907D015D
:1025C000AB14A9F30190F081E02DE6CF6A817B8105
:1025D0000E942D11FC01A881B98113968D919C91C7
:1025E0001497918380831496FC93EE9313971B8228
:1025F0001A8285E0E8018C83F983E883ABCF82817E
:102600008F5F8283F6CFDB01ED91FC911197028001
:10261000F381E02DBC01CD010994AF92BF92CF921E
:10262000DF92EF92FF920F931F93CF93DF93EC0112
:102630008B018C8180FF24C0A881B981FB0183813B
:10264000948130E020E00097D9F0A817B907D1F5C0
:10265000F8016081718112968C91129781501296C7
:102660008C93129781110CC08D919C91119721151B
:10267000310529F1F90191838083CD010E94031373
:102680008C81807631F1209721F1F8805801F5E1B5
:10269000AF0EB11C8FEFF816D1F06F2DC5010E945F
:1026A000BD0D6C01FC01E580B8010E940D13F8011D
:1026B000818DF6018083F801F18EFE2CEBCF94839F
:1026C0008383DBCF9C01FC0180819181BCCFF882A8
:1026D000F9821C82DF91CF911F910F91FF90EF90B3
:1026E000DF90CF90BF90AF9008950F931F93CF933B
:1026F000DF93EC01088119818B819C81009749F05F
:10270000FC01208131813C832B83B8010E9403139B
:10271000F3CF68817981CE010596DF91CF911F912A
:102720000F910C947B0EFC0101900020E9F731978A
:10273000AF01481B590BBC0185E892E00C94940A48
:102740008F929F92AF92BF920F931F93CF93DF937D
:10275000CDB7DEB7A1970FB6F894DEBF0FBECDBFE1
:1027600019A2423008F44AE08E010F5D1F4F842EFB
:10277000912CB12CA12CA50194010E949137E62F38
:10278000B901CA01EA30F4F4E05DD801EE938D019D
:10279000232B242B252B79F790E080E0109719F05C
:1027A000CD010E949313A1960FB6F894DEBF0FBE21
:1027B000CDBFDF91CF911F910F91BF90AF909F90B0
:1027C0008F900895E95CE1CF4AE00C94A013682F44
:1027D00070E090E080E04AE00C94A013CF92DF928A
:1027E000EF92FF92CF93DF936C01990FEE08FF08F1
:1027F000F7FE19C06DE285E892E00E94340BEC010F
:1028000066277727CB016C197D098E099F094AE05D
:102810000E94A0138C0F9D1FDF91CF91FF90EF902E
:10282000DF90CF9008954AE0C701B601DF91CF91C4
:10283000FF90EF90DF90CF900C94A013CF93DF9395
:102840006DE785E892E00E94340BEC0182EB91E0A9
:102850000E9493138C0F9D1FDF91CF9108954F928B
:102860005F926F927F928F929F92AF92BF92EF9200
:10287000FF920F931F93CF93DF932A013B014801EF
:102880005901853009F480C008F061C0843009F432
:102890006FC0E0912803F09129031481C9E9DAE0BF
:1028A00048EBE42E4AE0F42E89EF9AE00E94810B77
:1028B000C7010E94810B80EF9AE00E94810B812F5B
:1028C000110F990B0E94EE1385EE9AE00E94810B86
:1028D000CE010E94810B80ED9AE00E94810B8091D5
:1028E000F6049091F704A091F804B091F904A301C3
:1028F0009201281B390B4A0B5B0BCA01B9010E94DC
:10290000E4138EEB9AE00E94810B8091F604909183
:10291000F704A091F804B091F904A5019401281BD3
:10292000390B4A0B5B0BCA01B9010E94E413DF911A
:10293000CF911F910F91FF90EF90BF90AF909F901C
:102940008F907F906F905F904F900C941E14863004
:1029500039F1873009F09DCFE0913003F0913103D8
:102960001481CDE7DAE08EE9E82E8AE0F82E9CCFDC
:10297000E0912A03F0912B031481C4E9DAE032EBF1
:10298000E32E3AE0F32E90CFE0912C03F0912D034B
:102990001481CBE8DAE02BEAE22E2AE0F22E84CF93
:1029A000E0912E03F0912F031481C2E8DAE094EA5B
:1029B000E92E9AE0F92E78CFCF92DF92EF92FF9234
:1029C0000F931F93CF93DF93EC018881813009F43B
:1029D000D1C06A017B01813090F08230D1F484E370
:1029E00093E00E940E0C82E593E0DF91CF911F915E
:1029F0000F91FF90EF90DF90CF900C940E0C898197
:102A0000853009F47DC070F48330F1F1843009F42D
:102A10005AC0DF91CF911F910F91FF90EF90DF90FF
:102A2000CF900895863009F488C0873091F7E091FF
:102A30003003F0913103309761F38681882349F3A5
:102A400085A18111E6CF8F819885A985BA85C58A30
:102A5000D68AE78AF08E8C0D9D1DAE1DBF1D818F1D
:102A6000928FA38FB48F81E086A3CF010E94680C60
:102A70000F81188529853A850C0D1D1D2E1D3F1DC2
:102A8000B701A60187E01CC0E0912803F09129035B
:102A9000309709F4BECF8681882309F4BACF0F811D
:102AA000188529853A85C18AD28AE38AF48A0C0D71
:102AB0001D1D2E1D3F1D058B168B278B308F83E030
:102AC0000E942F14A6CFE0912A03F0912B03309798
:102AD00009F49FCF8681882309F49BCF0F81188545
:102AE00029853A85C18AD28AE38AF48A0C0D1D1D94
:102AF0002E1D3F1D058B168B278B308F84E0E0CF7A
:102B0000E0912C03F0912D03309709F482CF868158
:102B1000882309F47ECF0F81188529853A85C586DB
:102B2000D686E786F08A0C0D1D1D2E1D3F1D018BDC
:102B3000128B238B348B85E0C3CFE0912E03F09171
:102B40002F03309709F465CF8681882309F461CF7C
:102B50000F81188529853A85C586D686E786F08A4D
:102B60000C0D1D1D2E1D3F1D018B128B238B348BD5
:102B700086E0A6CF8981E0912203F0912303882388
:102B800039F0813009F045CFE0912403F09125031D
:102B9000309709F43ECFCF80D884E984FA844C0D75
:102BA0005D1D6E1D7F1D418B528B638B748B31CFEE
:102BB0002F923F924F925F926F927F928F929F924D
:102BC000AF92BF92CF92DF92EF92FF920F931F933B
:102BD000CF93DF9300D000D0CDB7DEB72A013B0101
:102BE00003E4809F90011124312C8901C9018E5486
:102BF0009C4F9A8389834BE0242E49019EE4890EE1
:102C0000911CE981FA818081381608F098C0A32CC4
:102C1000B12CC801239C800D911D11248E5D9C4F09
:102C2000FC01E25BFF4F2081233039F1805B9F4F35
:102C3000FC018081893021F09091080589131DC025
:102C40002A9CF0012B9CF00D1124E00FF11FED5890
:102C5000FC4FC080D180E280F380C114D104E10434
:102C6000F10469F4B301A201C401329C800D911DED
:102C700011248E5D9C4F0E94DC143394C2CFC40C8F
:102C8000D51CE61CF71CE5E0F4E090E080E0208134
:102C9000211125C024E0880F991F2A95E1F7DC0156
:102CA000AA50BC4F2A9CF0012B9CF00D1124E00F80
:102CB000F11FE059FC4F222D01900D922A95E1F76A
:102CC0008E5D9C4FFC01E152FF4FC082D182E282B7
:102CD000F3828D519F4F21E0FC012083CECF0196DE
:102CE00070968031910599F68BE09AE00E94810BF5
:102CF0002A9CC0012B9C900D1124800F911F8E5D8A
:102D00009C4F9C838B83FC01E25BFF4F80810E9480
:102D1000E71380E09AE00E94810BEB81FC81E15B8C
:102D2000FF4F80810E94E7138FEE99E00E94810B94
:102D3000C701B6010E94E4130E941E149ECF0F909B
:102D40000F900F900F90DF91CF911F910F91FF90F7
:102D5000EF90DF90CF90BF90AF909F908F907F903B
:102D60006F905F904F903F902F9008950F931F9317
:102D7000CF93DF938C01D62FC42F88E997E00E9470
:102D8000810BC8010E94810B8DE897E00E94810BA6
:102D900083E797E0DD2311F089E797E00E94810B3C
:102DA0008EE797E00E94810B88E697E0CC2311F034
:102DB0008EE697E00E94810BDF91CF911F910F91DA
:102DC0000C941E14CF92DF92EF92FF920F931F93F9
:102DD000CF938C01C62F69017A018EE497E00E949F
:102DE000810BC8010E94810B83E497E00E94810B54
:102DF0008BE297E0CC2311F081E397E00E94810BF6
:102E000086E397E00E94810BC701B6010E94E4139C
:102E1000CF911F910F91FF90EF90DF90CF900C9486
:102E20001E147F928F929F92AF92BF92CF92DF92A9
:102E3000EF92FF920F931F93CF93DF93EC01762EC7
:102E400049015A016701780181E197E00E94810BF5
:102E5000CE010E94810B86E097E00E94810B80EEFC
:102E600096E0772011F086EE96E00E94810B88EFC5
:102E700096E00E94810BC501B4010E94E4138BEE21
:102E800096E00E94810BC701B6010E94E413DF9116
:102E9000CF911F910F91FF90EF90DF90CF90BF9057
:102EA000AF909F908F907F900C941E14EF92FF92A2
:102EB0000F931F93CF937C018B01C42F89E496E07D
:102EC0000E94810BC7010E94810B8DE396E00E9456
:102ED000810BC8010E94810B82E396E00E94810B66
:102EE00087E296E0CC2311F08DE296E00E94810B00
:102EF000CF911F910F91FF90EF900C941E14CF92E1
:102F0000DF92EF92FF920F931F93CF93DF938C0189
:102F1000EB0169017A018DE096E00E94810BC80106
:102F20000E94810B81E096E00E94810BCE010E94FD
:102F3000810B86EF95E00E94810BC701B6010E94CC
:102F4000E413DF91CF911F910F91FF90EF90DF90ED
:102F5000CF900C941E14CF93DF930E94810BEC0151
:102F600082EB91E00E9493138C0F9D1FDF91CF9114
:102F700008950F931F93CF938C01C62FFC01648398
:102F800084EB96E00E94810BF8018081082E000CF2
:102F9000990B0E94EE138AEA96E00E94810B88E961
:102FA00096E0CC2311F081EA96E00E94810B87EA3B
:102FB00096E0CF911F910F910C94AB17EF92FF9277
:102FC0000F931F93CF93DF937C018B01EA018EE770
:102FD00096E00E94810BC7010E94810B82E796E078
:102FE0000E94810BC8010E94810B86E696E00E9438
:102FF000810BCE010E94810B83E696E0DF91CF9199
:103000001F910F91FF90EF900C94AB17009711F068
:103010000C94931390E080E00895EF92FF920F9349
:103020001F93CF93DF93C0912203D0912303882372
:1030300021F0C0912403D0912503209709F46EC09C
:10304000613009F465C008F460C0623009F463C0FF
:103050009CE4E92E99E0F92E811104C085E5E82E63
:1030600089E0F82E8DEB99E00E94810BC7010E9448
:10307000810B84EB99E00E94810B8C810E94E71305
:1030800089E999E00E94810BC8010E94810B84E8C4
:1030900099E00E94810B6A8D7B8D8C8D9D8D0091B6
:1030A000F6041091F7042091F8043091F904601BA4
:1030B000710B820B930B0E94E41382E799E00E944C
:1030C000810B6E8D7F8D88A199A10091F6041091DE
:1030D000F7042091F8043091F904601B710B820B06
:1030E000930B0E94E41381E699E00E94810BCE01CC
:1030F0000D960E9406188EE599E0DF91CF911F9101
:103100000F91FF90EF900C94AB1708EE19E0A0CF51
:103110000FED19E09DCF07ED19E09ACFDF91CF9128
:103120001F910F91FF90EF9008959091FF049111DE
:1031300004C090910005992371F0909101059111BF
:103140000AC060910605882321F0813021F4609146
:1031500007050C940D180895CF93DF93EC016E834F
:1031600089EA95E00E94810B8F8198850E9406185C
:1031700080EA95E00E94810B8C81082E000C990B4F
:103180000E94EE1386E995E00E94810B8E818111E9
:103190000AC084E895E00E94810B83E995E0DF9105
:1031A000CF910C94AB178DE895E0F5CF60E080915E
:1031B0001801909119010E94AC1860E080911A01E9
:1031C00090911B010E94AC1860E080911C019091CD
:1031D0001D010E94AC1860E080911E0190911F01BA
:1031E0000E94AC1860E080912001909121010E9422
:1031F000AC1860E080912201909123010E94AC18EC
:1032000060E080912401909125010E94AC1880918A
:10321000260190912701009719F060E00E94AC18F8
:103220008091280190912901009719F060E00C9499
:10323000B91708951F93CF93DF93EC01162F8E815A
:10324000882321F060E0CE010E94AC188D8181308E
:1032500021F460E08C810E9431071C836D81812FF5
:103260000E945F078D81813021F460E08C810E9493
:1032700031078CED95E00E94810B8F8198850E942B
:10328000061883EC95E00E94810B8C81082E000CBF
:10329000990B0E94EE13DF91CF911F910C941E1495
:1032A000CF93DF93EC010E941A198C810E940807CA
:1032B00021E0892B09F420E02A878C810E940807ED
:1032C00021E0892B09F420E02B878C810E940807DC
:1032D00021E0892B09F420E02C871D8A1E8A1F8A91
:1032E000188EDF91CF9108959F92AF92BF92CF92A7
:1032F000DF92EF92FF920F931F93CF93DF938A0198
:10330000452B09F468C0E9016B016596FC016081F9
:10331000CE010E94BD0DFC01BB24BA94892B09F09B
:10332000B5807601E894F7F8AA24A3946701C00E4B
:10333000D11E99249394309709F44DC0AA2009F422
:103340003FC08481843069F0853049F1823079F55D
:10335000DF010D900020E9F71197CD018E1B9F0B27
:1033600007C00190F081E02D90E080E0309781F778
:103370009F77E816F90621F5D801AC15BD05E1F4F3
:103380006B2DCE01DF91CF911F910F91FF90EF90A8
:10339000DF90CF90BF90AF909F900C94BD0DA08117
:1033A000B181FD01349613968C9190E0E2CF90E0CC
:1033B00080E0F0E0E0E0DDCF9D9181919817E9F2A7
:1033C000A9246B2DCE010E94BD0DFC01892B09F4AF
:1033D000B2CFB580B0CF90E080E0DF91CF911F9168
:1033E0000F91FF90EF90DF90CF90BF90AF909F90A4
:1033F0000895FC0120813181C9014A96428153819F
:1034000064817581009759F0D9015E96EC91E032A4
:1034100011F090E080E0009711F00C94741990E0A6
:1034200080E00895CF93DF93EB010E94F919009794
:1034300041F0FC012481263021F48081DF91CF917D
:1034400008958881FBCFCF92DF92EF92FF92CF93C6
:10345000DF9300D000D01F92CDB7DEB70E94F919DC
:10346000DC01009709F445C01496EC911497E250E2
:10347000ED3008F03EC0F0E0E05CF54E0C94DC3836
:10348000691A791A671A7B1A4D1A791A791A791AF0
:103490005B1A791A5B1A791A7F1ACC908C2D0F90CF
:1034A0000F900F900F900F90DF91CF91FF90EF90C2
:1034B000DF90CF900895CD90DD90ED90FC908FEF50
:1034C000C816D104E104F10449F340F312C08D9110
:1034D0009C910E94BC0F3A834B835C836D83CA80AE
:1034E000DB80EC80FD80223051F3233041F321302A
:1034F00051F0C12CD3CF8D919C910496EACFCD9001
:10350000DD90ED90FC9020E030E0A901C701B6010C
:103510000E94D73887FDEDCF20E030E04FE753E43D
:10352000C701B6010E94043618161CF3C701B60184
:103530000E94A838C62EB2CFCF92DF92EF92FF92B0
:10354000CF93DF9300D000D01F92CDB7DEB70E949B
:10355000F919DC01009709F44AC01496EC9114970C
:10356000E250ED3008F043C0F0E0E754F54E0C9423
:10357000DC38E71AF71AE51AFB1AC61AF71AF71A0F
:10358000F71AD61AF71ADB1AF71AFF1A6C9170E0BD
:1035900090E080E00F900F900F900F900F90DF91D0
:1035A000CF91FF90EF90DF90CF9008956D917D9136
:1035B0008D919C91EFCF8D919D910D90BC91A02DFF
:1035C000B7FD15C0BC01CD01E5CF8D919C910E9446
:1035D000BC0F3A834B835C836D83CA80DB80EC80B5
:1035E000FD80223041F1233041F1213061F060E073
:1035F00070E0CB01CFCF8D919C910496E8CFCD9018
:10360000DD90ED90FC9020E030E0A901C701B6010B
:103610000E94D73887FDEBCF2FEF3FEF4FE75FE4F6
:10362000C701B6010E94043618160CF3C701B60193
:103630000E94A838AFCFF7FCDACFC701B601AACFF6
:103640008F929F92AF92BF92CF92DF92EF92FF92B2
:103650000F931F93CF93DF9300D000D000D0CDB74E
:10366000DEB749015A0167017801FB010190002092
:10367000E9F73197E61BF70B9A8389837C836B8389
:10368000ED838F2F8F778E83CE0101960E94F919DB
:103690000097B9F0FC0124812A3041F02C3089F4E4
:1036A00080819181A281B381B7FD0BC0CE010196CB
:1036B0000E949C1A86169706A806B90610F44B01BC
:1036C0005C01C501B401C616D706E806F90610F478
:1036D000C701B60126960FB6F894DEBF0FBECDBF68
:1036E000DF91CF911F910F91FF90EF90DF90CF90DE
:1036F000BF90AF909F908F900895CF92DF92EF92FE
:10370000FF92CF93DF9300D000D01F92CDB7DEB7EA
:103710000E94F919DC01009709F446C01496EC9157
:103720001497E250ED3008F03FC0F0E0E656F44E5A
:103730000C94DC38D91BD41BD71BEA1BA71BD41B4A
:10374000D41BD41BB61BD41BC31BD41BEE1B6C9108
:1037500070E0CB010F900F900F900F900F90DF91C2
:10376000CF91FF90EF90DF90CF9008958D919D9134
:103770000D90BC91A02D811520E89207A105B105FF
:1037800098F4BC01E6CF8D919D910D90BC91A02D38
:103790006C017D0120E8D20EE11CF11CC114D104A2
:1037A00021E0E206F10468F370E060E0D2CF8D9191
:1037B0009C910E94BC0F3A834B835C836D83CA80CB
:1037C000DB80EC80FD80223031F1233081F121302B
:1037D00059F708C08D919C910496EBCFCD90DD9068
:1037E000ED90FC9020E030E040E057ECC701B601DE
:1037F0000E94D73887FDD8CF20E03EEF4FEF56E448
:10380000C701B6010E940436181674F2C701B6014A
:103810000E94A1389ECFD701C6019058AF4FBF4F2D
:103820000097A140B10508F0BFCFB60192CFC114F7
:1038300080E8D806E104F104C0F3B6CF3F924F927E
:103840005F926F927F928F929F92AF92BF92CF9230
:10385000DF92EF92FF920F931F93CF93DF9390919C
:10386000FF04911105C090910005992309F444C00B
:1038700070900105711040C0823008F03DC0809307
:10388000080581114BC0E0912203F091230330978A
:1038900009F04AC091E09093060591112DC06A018C
:1038A0007B01582EC2E2D3E083E4382E0FEF10E004
:1038B00094E6892E912CA12CB12C442443946C883D
:1038C000662071F08EA5893011F0581209C08A89DE
:1038D000813009F48BC008F43FC0823009F48BC0FA
:1038E0006E9633E0CE35D30751F78091FE048823DE
:1038F00009F4B6C07110B4C0DF91CF911F910F9140
:10390000FF90EF90DF90CF90BF90AF909F908F90FF
:103910007F906F905F904F903F900895E0912403C7
:10392000F09125033097B1F09089992361F00189D6
:1039300012892389348990E0041715072607370771
:1039400018F092E001C091E0882309F4A4CF90938D
:103950000705A3CF91E0FBCF8F898F5F8F8B9D8968
:10396000891708F4BDCF8FA5843658F40E94AC3572
:10397000A50194010E9428378FA5681710F01F8AAF
:10398000AFCF1F8A288D222351F03D89C801821BA9
:1039900091093817190609F0ECF4230F2D8B8B8948
:1039A000823008F09DCF389E90011124F901EE5429
:1039B000FC4F408120593C4F90E0491709F449C021
:1039C000255F3F4FF9013B975081513009F442C0C8
:1039D0009F5FF3CF87ED90E00E94810B8D890E945D
:1039E000E71384ED90E00E94AB17D9CFCD8EDE8E29
:1039F000EF8EF8A275CF8DA5811172CF89A19AA102
:103A0000ABA1BCA1A7019601281B390B4A0B5B0B8C
:103A1000DA01C901B7FD64CF8DA19EA1AFA1B8A500
:103A20008C199D09AE09BF09181619061A061B063E
:103A30000CF056CF8FA5843610F04DA6B0CF0E9463
:103A4000AC35A50194010E9428378FA56817A8F30B
:103A500047CF672CB701A6010E94D815762C40CF1E
:103A6000E0912203F0912303552021F0E0912403FB
:103A7000F0912503309709F43FCF4091FA0450911B
:103A8000FB046091FC047091FD04C40ED51EE61E7B
:103A9000F71EC18AD28AE38AF48A2ECFBF92CF92D0
:103AA000DF92EF92FF920F931F93CF93DF93EC017E
:103AB000198D1F3F81F0612F45960E94BD0DFC01BD
:103AC0008081898F309709F477C014828FEF8583C6
:103AD000BF01812F76C06C0135E0C30ED11CE88098
:103AE000F9808F89882341F0C6010E944F0EE62F8E
:103AF000F72F182F309749F71F89988D191324C075
:103B0000103109F459C0110F6D897E89D701ED91EB
:103B1000FC91B4E01B9FA0011124C616D70609F042
:103B200044C00190F081E02DBA01C70109950097CA
:103B300009F442C020E1F601DC0101900D922A95C2
:103B4000E1F79E8B8D8B188F0D891E898F8921E05F
:103B5000280F2F8BE4E08E9FC0011124080F191F3E
:103B600090E1B92E203111F48FE0B82EF6E0BF9E1F
:103B7000B0011124D701ED91FC910190F081E02D6D
:103B8000C7010995F80193838283892B09F4B12C2D
:103B9000D801BC9211961C92012B71F0C6010E94B3
:103BA0004F0EE62FF72F182F8DCF0480F581E02DD3
:103BB000C7010995009729F681E08A8360E070E0EB
:103BC0008FEFDF91CF911F910F91FF90EF90DF90DA
:103BD000CF90BF9008954F925F926F927F928F9295
:103BE0009F92AF92BF92CF92DF92EF92FF920F938C
:103BF0001F93CF93DF9300D000D01F92CDB7DEB7D5
:103C00008C017B01B42E0E942D0E6C01892B09F0D2
:103C100048C0C8010E94E90D863609F4A9C124F5FF
:103C2000873229F08B3561F1823209F0A8C1D801C1
:103C300015961C921E92149712968D919C91139733
:103C4000892B39F48D919C910E94B505F8019383DD
:103C50008283C8010E9491116C01892B11F5B70173
:103C6000C8010E9470121DC0843709F460C18B37EF
:103C700009F47BC08E3609F082C16DEC71E060C141
:103C800080E4D70114968C931497E114F10421F089
:103C90008FEF8C9311968C93B1101AC025E0C22E31
:103CA000D12CC6010F900F900F900F900F90DF91C5
:103CB000CF911F910F91FF90EF90DF90CF90BF9029
:103CC000AF909F908F907F906F905F904F900895EE
:103CD000F8011286C8010E942D0E009751F56DE57E
:103CE000C8010E94F90D8111DCCFBA94D8011B964E
:103CF0006D907C90C3010E944E1DA82E4B01672B36
:103D000021F494E0C92ED12CCCCFF70161816F3F13
:103D100091F0C30145960E94BD0DDC011596AC9251
:103D2000F701A1824B2DB401C8010E94EB1D009741
:103D300039F06C01B6CFD7018C9311968C93F2CFEA
:103D4000C8010E942D0E0097A1F76DE5C8010E94E1
:103D5000F90D8111A6CF6CE2C8010E94F90D811105
:103D6000C5CF83E0C82ED12C9CCF80E2F70184839D
:103D7000E114F10419F08FEF80838183BB2009F4F3
:103D80008DCFD8011A961C92C8010E942D0E009763
:103D900081F66DE7C8010E94F90D811182CFBA94B6
:103DA000F8011582148282819381892B49F48081E4
:103DB00091810E94B505D80113969C938E9312971A
:103DC000C8010E94E90D8732F9F08232E9F0C8019A
:103DD0000E94E90DD82E0E94D70D882311F2F80118
:103DE00012866D2DC8010E946311C8010E94E90D61
:103DF000D82E0E94D70D8111F2CFD80112968D9145
:103E00009C91892B41F47DCFC8010E9491116C01D6
:103E1000892B09F046CFC8010E942D0E6C01892B19
:103E200009F03FCF6AE3C8010E94F90D882309F425
:103E300098CFD8011296ED91FC91139714968D911D
:103E40009C911597E80FF91F148214966D917C913F
:103E500015977F771B966D907C901C9712968D918D
:103E60009C910496272F2F77BA2DB078AB2EA22ADB
:103E7000E894A7F89301AC017A2DC7010E94741948
:103E80006C01009761F5C3010E944E1D482E4B0145
:103E9000672B09F436CFC3010E944E1D582E962F72
:103EA000C92ED72EC114D10409F42BCFF4015582A9
:103EB000D70111966C916F3F71F0C30145960E9436
:103EC000BD0DFC014582D70111965C92B401C80179
:103ED0000E94701207C0F70140825182F7CFB301F0
:103EE0000E940D134B2DB601C8010E94EB1D6C0101
:103EF000892B09F0D6CEC8010E942D0E6C01892BAA
:103F000009F0CFCE6DE7C8010E94F90D8111C9CE2D
:103F10006CE2C8010E94F90D882309F422CFC80180
:103F20000E942D0E6C01892B09F43ACFBACE86E09F
:103F3000D70114968C93149781E08C9362EC71E016
:103F4000C8010F900F900F900F900F90DF91CF91BD
:103F50001F910F91FF90EF90DF90CF90BF90AF90A7
:103F60009F908F907F906F905F904F900C940A0E6F
:103F700086E0F7018483108267EC71E0E1CFC8012D
:103F80000E94E90D4801FDE08F0E911CB12C782CA8
:103F9000A92C803384F08A3384F43FE3B316A9F06C
:103FA000D8011A961C92B394F40181934F01C80171
:103FB0000E94E90DEECF8B3281F393ED980F923092
:103FC00060F3982F9F7D953441F30B0D111DD8019F
:103FD0001D961C92872D9A2D0E94BC0F3A834B830D
:103FE0005C836D838A819B81AC81BD812230A9F085
:103FF000233059F0213009F0B4CE2EE0F7012483AC
:1040000080839183A283B3834CCE2AE0F70124837B
:1040100080839183A283B38344CE2CE0F7CF4F9269
:104020005F926F927F928F929F92AF92BF92CF9248
:10403000DF92EF92FF920F931F93CF93DF93CDB751
:10404000DEB7CE5ED1090FB6F894DEBF0FBECDBF8E
:104050006E012EECC20ED11C86E091E0F601918338
:104060008083128214821382C6010596968B858BFB
:10407000178A84E0808F8FEF818F168E878F9E0145
:104080002F5F3F4F590110E000E00E94F507609359
:104090008D0270938E0280938F029093900285E838
:1040A00092E00E94D00A97FD02C00C94442D0E9419
:1040B000F50740908D0250908E0260908F027090B4
:1040C00090026419750986099709409089025090F9
:1040D0008A0260908B0270908C02641575058605CB
:1040E0009705E8F20F37110561F485E892E00E9428
:1040F000F20A892B31F085E892E00E94D00A0A97F3
:10410000A1F7E1E0F0E0EC0FFD1FE00FF11F1082DE
:104110000530110578F045E050E062ED71E0CE0128
:1041200001960E94C43A892B29F483EB97E00E9400
:10413000AB173FC5F60160817181C60105960E94EB
:104140007B0EF601128200811181F6018381948138
:10415000009751F0FC0120813181F60134832383E3
:10416000B8010E940313F1CF168ECF57DF4FD982CB
:10417000C882C158D040CD57DF4F19821882C3582A
:10418000D040CB57DF4F19821882C558D040C9574D
:10419000DF4F1882C758D04021E030E02C0F3D1F80
:1041A000C857DF4F39832883C858D040C557DF4FE1
:1041B0001882CB58D040C457DF4FD982C882CC5820
:1041C000D0404AE0B601665E7F4FCE018F579F4FC9
:1041D0000E94EB1D8C01892B69F4C657DF4F888143
:1041E000CA58D040882331F0F601868D83FF02C083
:1041F00003E010E0CD57DF4F88819981C358D0404C
:10420000009751F0CF57DF4FE881F981C158D04076
:10421000608171810E94031301151105F1F08CE694
:1042200095E00E94810BF801EE0FFF1FED5DFB4F43
:10423000859194910E94810B89E695E00E94AB17CD
:1042400085E892E00E94F20A181619060CF0B1C433
:1042500085E892E00E94D00AF3CFCF57DF4FD98292
:10426000C882C158D04088ED91E0CD57DF4F998387
:104270008883C358D04083E0CB57DF4F8883C5582D
:10428000D040CA57DF4F1881C658D0401078106808
:10429000CA57DF4F1883C658D040CE018F579F4F63
:1042A0000E94F919009709F484C4FC0184818823D1
:1042B00009F47FC41068CA57DF4F1883C658D0402E
:1042C000CE018F579F4F0E947D1B8C01893DF1E0ED
:1042D0009F0709F40FC20CF0BCC2883731E0930786
:1042E00009F40BC60CF00BC28733914009F4EFC4FC
:1042F000083381E018070CF0C6C10D3291E01907B0
:1043000009F404C40CF0AFC160E00C32F1E01F0707
:1043100009F4FDC3073EF1E01F0711F40C94C9290D
:104320000CF09FC70C3C110511F40C94002B0CF001
:10433000F7C60636110511F40C94DE2B0CF08BC673
:104340000436110511F40C946A2B0536110509F099
:10435000C0C50E94F5074B015C0180925402909207
:104360005502A0925602B092570210920005109288
:1043700001058092F6049092F704A092F804B0929E
:10438000F90481E08093FF0484E393E00E940E0C23
:1043900082E593E00E940E0C02E213E0F8018489AA
:1043A000882349F08289813011F00C94382B858E56
:1043B000968EA78EB0A2025E1F4FF3E00E351F0748
:1043C00069F7E5E0F4E085E095E0108270968E17DD
:1043D0009F07D9F7E0912203F0912303309721F052
:1043E000118A128A138A148AE0912403F09125031A
:1043F000309721F0118A128A138A148AE0913003CF
:10440000F09131033097A9F0158A168A178A108E19
:10441000118E128E138E148E158E168E178E10A27C
:1044200011A212A213A214A216A217A210A681E032
:1044300081A70E94C00E83E992E00E94AB1784E43A
:1044400092E00E94810B609114017091150180919E
:104450001601909117010E94E41383E392E00E94F9
:10446000810B809176020E94E71381E292E00E9424
:10447000810B8091040190910501825E954011F4B9
:104480000C94662B83EC91E00E94810B8EE192E00C
:104490000E94AB17E0903901F0903A0100913B0186
:1044A00010913C0120913501309136014091370146
:1044B000509138016091A1058AE192E00E941117A4
:1044C000E0908705F09088050091890510918A0594
:1044D0002091830530918405409185055091860592
:1044E0006091800585E192E00E94111720913101D1
:1044F00030913201409133015091340160916A054D
:1045000080E192E00E94E216209157053091580513
:104510004091590550915A05609154058AE092E006
:104520000E94E216E0902D01F0902E0100912F01E3
:104530001091300120912C0130E050E040E060917A
:104540000F0584E092E00E9411171091390589EA65
:1045500091E00E94810B8FEF91E00E94810B8EE928
:1045600091E00E94810B83E991E0112311F089E928
:1045700091E00E94810B0E941E144091F20560910F
:10458000E80586EF91E00E94B6164091CC05609157
:10459000C2058DEE91E00E94B61689EC91E00E9472
:1045A000810B60910F017091100180911101909128
:1045B00012010E94E4130E941E14809154029091F3
:1045C0005502A0915602B0915702E0911801F09166
:1045D000190180839183A283B383E0911A01F09142
:1045E0001B0180839183A283B383E0911C01F0912E
:1045F0001D0180839183A283B383E0911E01F0911A
:104600001F0180839183A283B383E0912001F09105
:10461000210180839183A283B383E0912201F091F1
:10462000230180839183A283B383E0912401F091DD
:10463000250180839183A283B383E0912601F091C9
:104640002701309721F080839183A283B383E09187
:104650002801F0912901309709F4ABC28187928734
:10466000A387B487A6C20F3221E0120709F40BC357
:1046700060E0063331E0130709F04CCE80911E0153
:1046800090911F0148C2033741E0140709F446C264
:104690003CF5093381E0180709F03CCE00911E017A
:1046A00010911F010E94F507F801618B728B838BBB
:1046B000948B85849684A784B088DC01CB01880D17
:1046C000991DAA1DBB1D858B968BA78BB08F81E092
:1046D00080A34CEC53E062ED73E087ED93E0F4C20D
:1046E000043791E0190709F47FC20537E1E01E079E
:1046F00009F010CE083D114009F47DC05AC281393D
:10470000F1E09F0709F403C3CCF58E3731E093073E
:1047100009F4DFC21CF58D37914009F0FBCDEE2482
:10472000EA94FE2C00E010E021E030E040E050E0B0
:104730006CED71E0C6010E94201B9B01AC01E09171
:104740001E01F0911F0121873287438754876AEE4B
:1047500073E084EF93E00E947F172BC2023881E060
:10476000180709F4DFC360E0003991E0190709F088
:10477000D1CD8091200190912101CDC18B39E1E013
:104780009E0709F4E8C27CF4833921E0920709F41A
:10479000C0C260E08A39914009F0BCCD809122010D
:1047A00090912301B8C18D3941E0940709F4F5C215
:1047B000883D914009F0AECD10ECE12E17E2F12ECC
:1047C00009E010E021E030E040E050E066EE71E00A
:1047D000C6010E94201B9B01AC01E0912001F091D9
:1047E000210121873287438754876EEB73E087EC82
:1047F00093E00E947F17CF57DF4FD982C882C158FC
:10480000D04086EE91E0CD57DF4F99838883C3581F
:10481000D04088E0CB57DF4F8883C558D040CA5777
:10482000DF4F8881C658D04080788068CA57DF4FF4
:104830008883C658D040CE018F579F4F0E949C1A44
:10484000609331017093320180933301909334016E
:1048500017C20F3982E0180709F4D5C20CF088C0DE
:10486000053FE1E01E0709F4BAC274F5023E21E0FB
:10487000120709F472C2C4F40C3D41E0140709F0B8
:1048800049CD15E3E12EF12C00E010E022E030E00C
:1048900040E050E06FEE71E0C6010E94201B809165
:1048A0002001909121013BC3063E51E0150709F418
:1048B0004CC360E0043F81E0180709F02BCD8091E4
:1048C00024019091250127C1083592E0190709F4C8
:1048D00091C2C4F40034F2E01F0709F01BCD15E3C8
:1048E000E12EF12C00E010E022E030E040E050E06A
:1048F0006FEE71E0C6010E94201B8091240190910F
:1049000025010DC3093522E0120709F46AC20B35EF
:1049100032E0130709F0FECC009126011091270127
:104920000115110509F445C10E94F507AB01BC0151
:10493000F801458B568B678B708F85859685A7858B
:10494000B089840F951FA61FB71F818F928FA38FE9
:10495000B48FFF24F394F6A2C8010E94680CF801FA
:10496000F0A64DE753E063E873E088E893E0ACC15C
:10497000043843E0140709F4B6C20CF075C0043AD9
:1049800082E0180709F4F4C20CF054C0003AE2E0E7
:104990001E0709F0BFCC10ECE12E17E2F12E09E062
:1049A00010E021E030E040E050E066EE71E0C6014A
:1049B0000E94201B9B01AC01E0912601F091270190
:1049C000309751F0258736874787508B6EE573E027
:1049D00087E693E00E947F17CF57DF4FD982C882C6
:1049E000C158D04086EE91E0CD57DF4F9983888340
:1049F000C358D04088E0CB57DF4F8883C558D0409C
:104A0000CA57DF4F8881C658D04080788068CA571F
:104A1000DF4F8883C658D040CE018F579F4F0E94EA
:104A20009C1A60932D0170932E0180932F01909317
:104A3000300126C1093AF2E01F0709F431C20A3AEF
:104A400022E0120709F066CCE0912601F0912701DF
:104A5000309709F4AEC081E085A341E353E06DE3F4
:104A600073E082E493E030C1003D33E0130709F4C2
:104A700099C244F5053853E0150709F423C20738F5
:104A800083E0180709F046CCA0902801B0902901D6
:104A9000A114B10409F41DC261E0F50180810E94F6
:104AA000310781E0F50185870E94F507F5016687EA
:104AB0007787808B918B4BE153E061E273E086E274
:104AC00093E002C1043394E0190709F4A8C2003648
:104AD000E5E01E0709F01ECC80911A0190911B01A0
:104AE000892B09F466C015E3E12EF12C00E010E0FB
:104AF00022E030E040E050E06FEE71E0C6010E943D
:104B0000201B80911A0190911B01A2C261E080914B
:104B10001C0190911D010E94AC184BC0EE24EA9438
:104B2000FE2C00E010E021E030E040E050E06CEDD1
:104B300071E0C6010E94201B9B01AC01E0911C01A9
:104B4000F0911D01218732874387548765E174E026
:104B50008FE194E00E947F17CF57DF4FD982C88240
:104B6000C158D0408CED91E0CD57DF4F99838883B9
:104B7000C358D04089E0CB57DF4F8883C558D04019
:104B8000CA57DF4F8881C658D04080788068CA579E
:104B9000DF4F8883C658D040CE018F579F4F0E9469
:104BA0009C1A60933501709336018093370190937E
:104BB0003801C6010E947513C251DF4F0FB6F89439
:104BC000DEBF0FBECDBFDF91CF911F910F91FF9040
:104BD000EF90DF90CF90BF90AF909F908F907F909D
:104BE0006F905F904F90089510ECE12E17E2F12E38
:104BF00009E010E021E030E040E050E066EE71E0D6
:104C0000C6010E94201B9B01AC01E0911C01F091A8
:104C10001D01258736874787508B68E074E081E166
:104C200094E00E947F17CF57DF4FD982C882C158C6
:104C3000D04086EE91E0CD57DF4F99838883C358EB
:104C4000D04088E0CB57DF4F8883C558D040CA5743
:104C5000DF4F8881C658D04080788068CA57DF4FC0
:104C60008883C658D040CE018F579F4F0E949C1A10
:104C70006093390170933A0180933B0190933C011A
:104C80000E94C00E96CF00911C0110911D010E9440
:104C9000F507F801618B728B838B948B85849684E6
:104CA000A784B088DC01CB01880D991DAA1DBB1D0E
:104CB000858B968BA78BB08F81E080A349EF53E063
:104CC0006FEF73E084E094E00E94DE1772CF61E042
:104CD000D5CC10ECE12E17E2F12E09E010E021E036
:104CE00030E040E050E066EE71E0C6010E94201B1B
:104CF0009B01AC01E0911E01F0911F0125873687D1
:104D00004787508B6CED73E085EE93E024CD61E036
:104D100030CD00912001109121010E94F507F8018A
:104D2000658776878787908B81849284A384B484F7
:104D3000DC01CB01880D991DAA1DBB1D818B928BB7
:104D4000A38BB48B81E0858B4EEA53E064EB73E078
:104D500089EB93E0B9CF61E021CD10ECE12E17E2B1
:104D6000F12E09E010E021E030E040E050E066EE96
:104D700071E0C6010E94201B9B01AC01E091220161
:104D8000F091230121873287438754876FE973E0CD
:104D900088EA93E00E947F1773CF0091220110915F
:104DA00023010E94F507F801658776878787908B36
:104DB00081849284A384B484DC01CB01880D991D85
:104DC000AA1DBB1D818B928BA38BB48B81E0858B3D
:104DD0004EE853E064E973E089E993E075CF61E060
:104DE0006ECD809126019091270161E0009709F036
:104DF00092CEDFCE809126019091270160E000974E
:104E000009F089CED6CEEE24EA94FE2C00E010E024
:104E100021E030E040E050E06CED71E0C6010E941E
:104E2000201B9B01AC01E0912601F09127013097F6
:104E300079F0211531054105510521F0218732878F
:104E4000438754876DE673E087E793E00E947F17FE
:104E5000CF57DF4FD982C882C158D0408CED91E046
:104E6000CD57DF4F99838883C358D04089E0CB5713
:104E7000DF4F8883C558D040CA57DF4F8881C65856
:104E8000D04080788068CA57DF4F8883C658D040AA
:104E9000CE018F579F4F0E94231A80932C0189CEF9
:104EA000E0912601F0912701309749F015A248E4DE
:104EB00053E063E573E088E593E00E94DE1710920B
:104EC0006402DECE809128019091290161E0009773
:104ED00089F48EE191E00E94810BC8010E94EE13DB
:104EE0008CE191E024C980912801909129010097DB
:104EF00081F360E00E94B9175CCE15E3E12EF12C3E
:104F000000E010E022E030E040E050E06FEE71E0C1
:104F1000C6010E94201B80911C0190911D010E94DE
:104F20001A1947CE15E3E12EF12C00E010E022E043
:104F300030E040E050E06FEE71E0C6010E94201BBF
:104F400080911E0190911F01EACF15E3E12EF12C13
:104F500000E010E022E030E040E050E06FEE71E071
:104F6000C6010E94201B8091220190912301D7CF7E
:104F70008091260190912701892B09F41ACE15E31F
:104F8000E12EF12C00E010E022E030E040E050E0C3
:104F90006FEE71E0C6010E94201B80912601909166
:104FA0002701BDCF8091280190912901892B09F417
:104FB00090CF15E3E12EF12C00E010E022E030E08C
:104FC00040E050E06FEE71E0C6010E94201BF62E1B
:104FD0000091280110912901F8018585882331F07D
:104FE00060E080810E943107F8011586F801F082A7
:104FF00061E08F2D0E945F0760E0F80180810E94D0
:10500000310787ED92E00E94810BF8018081082E24
:10501000000C990B0E94EE130E941E14CACD8091C1
:10502000180190911901892B09F4C3CD15E3E12EE4
:10503000F12C00E010E022E030E040E050E06FEEC4
:1050400071E0C6010E94201B809118019091190106
:105050000E945019AECD0836110509F4D6C30CF4E0
:10506000B6C30936110509F034CFC251DF4F18829B
:10507000CE5ED040CF57DF4FD982C882C158D040D2
:1050800084E292E0CD57DF4F99838883C358D040A4
:1050900086E0CB57DF4F8883C558D040CA57DF4FD3
:1050A0008881C658D04080788068CA57DF4F88838F
:1050B000C658D040BE0162517F4FCE018F579F4FDF
:1050C0000E94121AF82E0E94F5072091FF04222355
:1050D00009F1F0920105FF2009F434C46093020540
:1050E0007093030580930405909305050E94D606EE
:1050F000E0912803F0912903309719F084810E94F0
:105100000208E0912A03F0912B03309719F0848173
:105110000E9402084F2D67E474E086E594E0F3C036
:10512000033831E0130709F434C10CF058C00937D3
:1051300051E0150709F42DC10A3781E0180709F479
:105140005CC00D3D110509F0C4CEC251DF4F18827D
:10515000CE5ED040CF57DF4FD982C882C158D040F1
:1051600087E192E0CD57DF4F99838883C358D040C1
:1051700085E0CB57DF4F8883C558D040CA57DF4FF3
:105180008881C658D04080788068CA57DF4F8883AE
:10519000C658D040BE0162517F4FCE018F579F4FFE
:1051A0000E94121A182F84E695E0112311F08EE464
:1051B00095E090930E0180930D0185E0111186E03A
:1051C000809313010E94C00E42E954E0112311F0B4
:1051D00047E954E06DE974E089EA94E075CD0D3D4E
:1051E00091E0190709F4D5C00E3DE1E01E0729F052
:1051F0000438F1E01F0709F06CCECF57DF4FD9829A
:10520000C882C158D0408BE292E0CD57DF4F9983DE
:105210008883C358D04086E0CB57DF4F8883C5587A
:10522000D040CA57DF4F8881C658D0408078806808
:10523000CA57DF4F8883C658D040CE018F579F4F43
:105240000E94F919FC01892B39F084818A3009F414
:10525000C2C38C3009F4D3C3B12CA12C89E0F82E41
:10526000E2C3083324E0120709F46DC14CF5083E8F
:1052700043E0140709F4F9C084F4013A82E0180706
:1052800009F487C00C3A92E0190709F4EAC0083E15
:10529000E1E01E0709F01DCEB0CF0233F4E01F0796
:1052A00009F4E5C0053324E0120709F418C1093EEA
:1052B00033E0130709F00DCE61E082EE95E02BCCD0
:1052C0000E3545E0140709F44CC104F5043185E0BE
:1052D000180709F444C1053195E0190709F43BC1E9
:1052E0000933E4E01E0709F0F4CD81E08093F20574
:1052F00082EE95E0909305018093040141E06EE217
:1053000075E089E395E00E94561753CC0436F5E02A
:105310001F0709F46DC1053625E0120709F459C1CC
:10532000013635E0130709F0D4CDCF57DF4FD982CE
:10533000C882C158D04081E092E0CD57DF4F9983B9
:105340008883C358D0408CE0CB57DF4F8883C55843
:10535000D040CA57DF4F8881C658D04080788068D7
:10536000CA57DF4F8883C658D040CE018F579F4F12
:105370000E94231A811181E08093FE0480937602BB
:10538000282F30E050E040E063EF74E080E095E0EB
:10539000E2C9CF57DF4FD982C882C158D04083EFCE
:1053A00091E0CD57DF4F99838883C358D04085E083
:1053B000CB57DF4F8883C558D040CA57DF4F88810D
:1053C000C658D04080788068CA57DF4F8883C65857
:1053D000D040CE018F579F4F0E949C1A61364AEEF3
:1053E00074078105910520F060E67AEE80E090E098
:1053F000013A52E0150771F460931A0570931B058A
:1054000080931C0590931D0580916402882309F404
:10541000D0CB36CC0937E1E01E0749F46093600237
:1054200070936102809362029093630229CC0338E7
:10543000F1E01F0709F4BDCB0D3D114049F4609325
:105440005C0270935D0280935E0290935F0218CCC1
:10545000609358027093590280935A0290935B02B2
:105460000FCC81E0809364020BCC60E026CFCF5755
:10547000DF4FD982C882C158D04089EF91E0CD5723
:10548000DF4F99838883C358D04087E0CB57DF4FE5
:105490008883C558D040CA57DF4F8881C658D0404E
:1054A00080788068CA57DF4F8883C658D040CE01C5
:1054B0008F579F4F0E949C1A4B015C0180921401F0
:1054C00090921501A0921601B09217010E94A906B0
:1054D000A501940168E575E080E695E03CC9CF57E9
:1054E000DF4FD982C882C158D04081E092E0CD57C9
:1054F000DF4F99838883C358D0408CE0CB57DF4F70
:105500008883C558D040CA57DF4F8881C658D040DD
:1055100080788068CA57DF4F8883C658D040CE0154
:105520008F579F4F0E94231A811181E08093FE04C0
:1055300080937602282F30E050E040E062E475E08E
:105540008FE495E008C91092F20540E06AE175E049
:1055500085E295E0D8CE61E08CEB95E0DCCA60E0B6
:10556000FBCFCF57DF4FD982C882C158D04089EFD7
:1055700091E0CD57DF4F99838883C358D04087E0AF
:10558000CB57DF4F8883C558D040CA57DF4F88813B
:10559000C658D04080788068CA57DF4F8883C65885
:1055A000D040CE018F579F4F0E949C1A4B015C0147
:1055B0008092140190921501A0921601B0921701E9
:1055C0000E94A906A501940169E075E081E195E0DA
:1055D000C2C881E08093CC058CEB95E090930501E7
:1055E0008093040141E06FED74E08AEE94E08BCE8D
:1055F0001092CC0540E06BEC74E086ED94E083CE35
:10560000CF57DF4FD982C882C158D0408EE092E098
:10561000CD57DF4F99838883C358D04088E0CB575C
:10562000DF4F8883C558D040CA57DF4F8881C6589E
:10563000D04080788068CA57DF4F8883C658D040F2
:10564000CE018F579F4F0E949C1A4B015C018092A4
:105650000F0190921001A0921101B09212010E94CC
:10566000C00EA501940164EB74E080EC94E073C873
:10567000823011F00C94DB2141A452A463A474A4E1
:1056800060E070E0CB01141415041604170434F420
:105690000E94AC35A30192010E942837680D791D44
:1056A0008A1D9B1DF80161A372A383A394A381A506
:1056B00092A5A3A5B4A5880D991DAA1DBB1D85A300
:1056C00096A3A7A3B0A715A60C94DB2186EC91E0C6
:1056D0000C94442280917B0281116BCA0E94F507D1
:1056E0004B015C018092770290927802A09279023D
:1056F000B0927A021092FF0410920105E5E0F4E006
:1057000085E095E0108270968E179F07D9F784E3A5
:1057100093E00E940E0C82E593E00E940E0CE09153
:105720002803F0912903309709F044C0E0912A033F
:10573000F0912B03309719F084810E940208E091C8
:105740002C03F0912D03309721F060E084810E94BA
:105750003107E0912E03F0912F03309721F060E0A4
:1057600084810E943107E0913003F091310330973A
:1057700029F011A660E084810E94310783E591E061
:105780000E94810B8091540290915502A091560283
:10579000B0915702A5019401281B390B4A0B5B0BF2
:1057A000CA01B9010E94E4130E941E1481E0809393
:1057B0007B02FFC984810E940208B8CF8091FF0458
:1057C00081110C9495200E94D6180C9495200E946B
:1057D000F5074B015C018091FF0481110FC00E940D
:1057E000D6068092F6049092F704A092F804B09244
:1057F000F904B501A40180E00E94D81546E754E001
:105800006CE774E087E894E05FCAC251DF4F18820A
:10581000CE5ED040CF57DF4FD982C882C158D0402A
:105820008DE192E0CD57DF4F99838883C358D040F4
:1058300086E0CB57DF4F8883C558D040CA57DF4F2B
:105840008881C658D04080788068CA57DF4F8883E7
:10585000C658D040BE0162517F4FCE018F579F4F37
:105860000E94121A182F0E94F5072091FF0421119F
:1058700066C010930005112369F16093F6047093DC
:10588000F7048093F8049093F9040E94D60684E309
:1058900093E00E940E0C82E593E00E940E0CE091D2
:1058A0002203F0912303309721F0118A128A138A80
:1058B000148AE0912403F0912503309721F0118A96
:1058C000128A138A148A4091000561E674E08BE61F
:1058D00094E019CD0E94D606E0912803F0912903A7
:1058E000309719F084810E940208E0912A03F09118
:1058F0002B03309719F084810E940208E0912C0359
:10590000F0912D03309721F060E084810E943107EF
:10591000E0912E03F0912F03309721F060E0848115
:105920000E943107E0913003F0913103309721F06C
:1059300060E084810E9431070E94C00EC4CF111123
:10594000C2CFFACF00910205109103052091040502
:1059500030910505DC01CB01801B910BA20BB30B31
:10596000E2E2F3E04EE553E024892223A1F022890C
:105970002130B1F4058D168D278D30A1011511054B
:105980002105310541F0080F191F2A1F3B1F058F04
:10599000168F278F30A37E964E175F0729F7BACB55
:1059A0002230C9F701A112A123A134A1080F191FA8
:1059B0002A1F3B1F01A312A323A334A305A116A1F1
:1059C00027A130A5080F191F2A1F3B1F05A316A3E7
:1059D00027A330A7E0CF80819181A281B381811577
:1059E0009048A105B10508F037CCCE018F579F4FE5
:1059F0000E947D1B5C01019779F4F12C14C0808119
:105A00009181A281B3819058AF4FBF4F0097A140C1
:105A1000B10508F021CCE9CFFF24F39482E0A81669
:105A2000B10409F01BCC0A3791E0190799F4F09200
:105A300003010E94C00E31E0F31220C0F092CC05A9
:105A40009501BB0C440B550B6FE274E08CE394E0C2
:105A50000C94AB230438E1E01E0719F4F092020124
:105A6000E8CF0E3DF1E01F0719F4F0920101E1CFFC
:105A7000083E1140F1F6F0920001DBCFF110E0CFCB
:105A800081E08093F205DCCF8A30910511F40C940B
:105A90007220F50181935F010F5F1F4F0F371105D2
:105AA00011F00C9445200C947220CB01BA010C9497
:105AB000073ACB010C947E39CB010C94E2381F924B
:105AC0000F920FB60F9211242F933F938F939F93B2
:105AD000AF93BF9380917D0290917E02A0917F024F
