:100000000C9427070C9448340C941D340C94F23350
:100010000C94C7330C949C330C9471330C9446337A
:100020000C941B330C9433350C9458070C945807DC
:100030000C9458070C9473340C9458070C9458077C
:100040000C9458070C9458070C9458070C945807B4
:100050000C9458070C9458070C9458070C94D13200
:100060000C9458070C94FD340C94D3340C9458071A
:100070000C9458070C9458070C9458070C94580784
:100080000C9458070C9458070C9458070C94580774
:100090000C9458070C9458070C9458070C94580764
:1000A0000C9458070C9458070C9458070C94580754
:1000B0000C9458070C9458070C9458070C94580744
:1000C0000C9458070C9458070C9458070C94580734
:1000D0000C9458070C9458070C9458070C94580724
:1000E0000C9458070C94E40D0C9417090C94050912
:1000F0000C9413090C942A090C94A91E0C94FC0866
:100100000C940A1E0C94340E0C947A0E0C94EA088B
:100110000C9409090C94CE320C948D1F0C94451C40
:100120000C940A200C94161E0C94FF080C94CB32ED
:100130000C94791E0C942F090C94B01E0C94E20EB2
:100140000C942B090C9421090C94F8080C94200EA3
:100150000C941D090C94301E0C946C1F0C942C1ED6
:100160000C94AD1E0C94981E0C94C7320C945D1F19
:100170000C94110E0C949F1F0C948E1E0C94250948
:100180000C94891E0C942C0A0C94420E0C940F09AA
:100190000C94A61F0C94291E0C94791F0C94271EF6
:1001A0000C94540A0C94F4080C948A1F0C94FC1DB3
:1001B0000C94F0080C94A21F0C94B41E0C94E2351D
:1001C000546F6F44656570004E6F4D656D6F727949
:1001D00000496E76616C6964496E70757400496E91
:1001E000636F6D706C657465496E70757400456DF4
:1001F000707479496E707574004F6B00CDCCCC3D36
:100200000AD7233C17B7D13877CC2B329595E62403
:100210001FB14F0A000020410000C84200401C46A8
:1002200020BCBE4CCA1B0E5AAEC59D74227D007BFD
:10023000226C6576656C223A22303031222C2264A1
:100240006576696365223A22434F4E54524F4C4CB7
:100250004552222C2264657363223A225052207444
:1002600068726573686F6C64206361707065642088
:10027000617420007B226C6576656C223A223030F6
:1002800030222C22646576696365223A22534C4DF4
:10029000222C22706172616D223A2274696D65733D
:1002A00074616D705F70696E222C2276616C756569
:1002B000223A007B226C6576656C223A2230303619
:1002C000222C22646576696365223A22534C4D22C2
:1002D0002C226572726F72223A2270696E5F6E6FA5
:1002E000745F7063696E7430222C2276616C756560
:1002F000223A007B226C6576656C223A22303037D8
:10030000222C22646576696365223A22434F4E545B
:10031000524F4C4C4552222C226576656E74223A1F
:1003200022454E44222C2274696D657374616D7090
:10033000223A004C48005248004C455645525F4C0A
:1003400048004C455645525F524800534C4D004DB5
:100350004943524F53434F5045004C49434B004C87
:10036000415345520050554D50320050554D5000AC
:10037000435545320043554500227D002C226163E0
:10038000746976655F6C65766572223A22007B221D
:100390006C6576656C223A22303030222C226465FE
:1003A00076696365223A22434F4E54524F4C4C4576
:1003B00052222C22706172616469676D223A224672
:1003C000495845445F524154494F222C2274696D6B
:1003D000656F7574223A007B226C6576656C223AF3
:1003E00022303037222C22646576696365223A22F6
:1003F000434F4E54524F4C4C4552222C2265766549
:100400006E74223A225354415254222C2274696D44
:10041000657374616D70223A307D007B226C657665
:10042000656C223A22303030222C22646576696372
:1004300065223A224D4943524F53434F5045222C97
:1004400022706172616D223A227472696767657207
:100450005F70696E222C2276616C7565223A0046C7
:10046000495245440074657374004D4943524F53DB
:10047000434F504500494E444550454E44454E5427
:10048000006D6F6465004C4153455200434F4E541C
:10049000494E47454E54006D6F6465004C415345CD
:1004A00052006475726174696F6E004C415345521D
:1004B000006672657175656E6379004C41534552F3
:1004C0000046495245440074657374004C415345DD
:1004D0005200464952454400746573740050554DAE
:1004E0005032006475726174696F6E0050554D50E2
:1004F0003200464952454400746573740050554DAE
:1005000050006475726174696F6E0050554D5000F3
:1005100046495245440074657374004355453200A2
:100520006475726174696F6E00435545320066727E
:10053000657175656E6379004355453200464952D1
:1005400045440074657374004355450064757261D9
:1005500074696F6E00435545006672657175656E0E
:1005600063790043554500F901EE01DE01D101C870
:1005700001C0017B226C6576656C223A22303036F0
:10058000222C2264657363223A22436F6D6D616E83
:1005900064206E6F7420666F756E64227D006475D2
:1005A000726174696F6E00534C4D006672657175AF
:1005B000656E637900534C4D006C657665725F66BD
:1005C000696C74657200434F4E54524F4C4C455207
:1005D0000073657373696F6E5F7061757365640036
:1005E000434F4E54524F4C4C455200746573745FE8
:1005F0006D6F646500434F4E54524F4C4C45520052
:10060000464952454400746573745F636861696E5E
:1006100000434F4E54524F4C4C45520050554D5094
:100620000050554D5032006163746976655F707596
:100630006D7000434F4E54524F4C4C455200726106
:1006400074696F00434F4E54524F4C4C45520072E8
:1006500065696E666F72636564004C455645525F0E
:100660004C48007265696E666F72636564004C4544
:100670005645525F4C4800726174696F004C455694
:1006800045525F4C480074696D656F7574004C4548
:100690005645525F4C48007265696E666F726365BD
:1006A00064004C455645525F5248007265696E665B
:1006B0006F72636564004C455645525F5248007244
:1006C0006174696F004C455645525F524800746929
:1006D0006D656F7574004C455645525F5248002257
:1006E0007D007B226C6576656C223A2230303622A2
:1006F0002C2264657363223A220044495341524DCF
:1007000045440041524D454400227D002C22646541
:100710007363223A2200222C2270696E223A007BF7
:10072000226C6576656C223A22303031222C2264AC
:100730006576696365223A2200222C22706172611B
:100740006D223A2270696E222C2276616C756522C8
:100750003A007B226C6576656C223A22303030227A
:100760002C22646576696365223A2200222C227667
:10077000616C7565223A00222C22706172616D22D3
:100780003A22007B226C6576656C223A223030304A
:10079000222C22646576696365223A220066616CC8
:1007A0007365007472756500222C2276616C756524
:1007B000223A00222C22706172616D223A22007B63
:1007C000226C6576656C223A22303030222C22640D
:1007D0006576696365223A2200227D00222C22760A
:1007E000616C7565223A2200222C22706172616D63
:1007F000223A22007B226C6576656C223A223030E8
:1008000030222C22646576696365223A22004449CD
:100810005341524D45440041524D454400227D0014
:100820002C2264657363223A22007B226C65766514
:100830006C223A22303031222C226465766963655D
:10084000223A224D4943524F53434F5045222C22C6
:1008500070696E223A0066616C736500747275652A
:10086000002C226475726174696F6E223A002C222A
:100870006672657175656E6379223A00222C226179
:10088000726D6564223A007B226C6576656C223A53
:1008900022303030222C22646576696365223A2248
:1008A0000066616C73650074727565002C22647556
:1008B000726174696F6E223A00222C2261726D653A
:1008C00064223A007B226C6576656C223A223030D5
:1008D00030222C22646576696365223A22006661C3
:1008E0006C7365007472756500222C2261726D65EF
:1008F00064223A007B226C6576656C223A223030A5
:1009000030222C22646576696365223A2200666192
:100910006C736500747275650066616C7365007454
:10092000727565002C227265696E666F726365640C
:10093000223A00222C2261726D6564223A007B22E9
:100940006C6576656C223A22303030222C22646548
:1009500076696365223A2200027B226C6576656CBB
:10096000223A22303030222C226465766963652277
:100970003A22434F4E54524F4C4C4552222C227334
:100980006B65746368223A2266722E696E6F222C40
:100990002276657273696F6E223A2276332E312E7B
:1009A00031222C22626175645F72617465223A3172
:1009B00031353230302C227363686564756C652282
:1009C0003A2246495845445F524154494F227D00DE
:1009D0002C22656E645F74696D657374616D70223D
:1009E0003A002C226576656E74223A224C49434BBC
:1009F000222C2273746172745F74696D6573746103
:100A00006D70223A00222C2270696E223A007B22FD
:100A10006C6576656C223A22303037222C22646570
:100A200076696365223A22002C22656E645F7469E0
:100A30006D657374616D70223A002C226576656E67
:100A400074223A225354494D222C227374617274D9
:100A50005F74696D657374616D70223A007B226CFE
:100A60006576656C223A22303037222C2264657616
:100A7000696365223A224C41534552222C22706907
:100A80006E223A002C226D6973736564223A002C41
:100A9000226576656E74223A2254494D455354417D
:100AA0004D50222C2274696D657374616D70223A09
:100AB000007B226C6576656C223A22303038222C1D
:100AC00022646576696365223A224D4943524F5349
:100AD000434F5045222C2270696E223A002C226529
:100AE00076656E74223A2254494D455354414D5017
:100AF000222C2274696D657374616D70223A007BDB
:100B0000226C6576656C223A22303039222C2264C0
:100B10006576696365223A22534C4D222C22706916
:100B20006E223A0000002100240027002A002D0038
:100B30003000330001010000040107010A01000038
:100B40002200250028002B002E0031003400020175
:100B50000000050108010B0100000A0B02090C0D41
:100B60000E08070304010000000000000000000060
:100B70000000000000000000000000000000000075
:100B80000000000012111000000000000000000032
:100B900000000000000000000000000000004449C8
:100BA0005341524D45440041524D454400227D0081
:100BB0002C2264657363223A22007B226C65766581
:100BC0006C223A22303031222C22646576696365CA
:100BD000223A22534C4D222C2270696E223A000197
:100BE000021020200808102040102040800201023E
:100BF0000108040201010204081020408080402006
:100C00001008040201800402018040201008040240
:100C100001080402010102040810204080010204BE
:100C20000810204080000020002300260029002C0E
:100C3000002F003200000100000301060109010538
:100C4000050505070508080808020202020A0A0845
:100C5000080404040401010101010101010303036B
:100C60000303030303040707070C0C0C0C0C0C0C08
:100C70000C0202020206060606060606060B0B0B0F
:100C80000B0B0B0B0B4C455645525F4C48004C452B
:100C90005645525F524800227D002C226F726965D2
:100CA0006E746174696F6E223A22002C22656E6444
:100CB0005F74696D657374616D70223A00222C2235
:100CC00073746172745F74696D657374616D7022A1
:100CD0003A002C226576656E74223A2250524553B2
:100CE00053222C22636C617373223A2200222C223D
:100CF00070696E223A007B226C6576656C223A221E
:100D0000303037222C22646576696365223A2200EE
:100D100054494D454F555400494E41435449564559
:100D200000414354495645002C227363686564753D
:100D30006C65645F6174223A002C2274617267658D
:100D400074223A007B226C6576656C223A22303040
:100D500036222C226572726F725F636F6465223A6D
:100D600022455F50454E44494E475F46554C4C2204
:100D70002C2264657363223A2250656E64696E6743
:100D800020616374696F6E20717565756520667585
:100D90006C6C20E2809420616374696F6E206472D1
:100DA0006F70706564222C22616374696F6E5F746A
:100DB000797065223A005354494D00494E465553C7
:100DC000494F4E00494E465553494F4E00544F4EE1
:100DD0004500544F4E45004C415345520050554D2F
:100DE000505F320050554D505F31004355455F32E2
:100DF000004355455F31002C22656E645F74696D58
:100E0000657374616D70223A00222C2273746172D2
:100E1000745F74696D657374616D70223A002C2281
:100E20006576656E74223A2200222C2270696E2249
:100E30003A007B226C6576656C223A22303037228C
:100E40002C22646576696365223A2200E23511241A
:100E50001FBECFEFD1E2DEBFCDBF00E00CBF13E07D
:100E6000A0E0B2E0E8E4F6E800E00BBF02C00790C3
:100E70000D92A833B107D9F727E0A8E3B3E001C08A
:100E80001D92A534B207E1F717E0C7E2D7E000E012
:100E900006C021970109802FFE010E94EF40C63253
:100EA000D10780E00807A9F70E946E390C9422430D
:100EB0000C94000090910306292F092E000C330B8F
:100EC000F901E15CF34FE491F0E0EE0FFF1FEB5D01
:100ED000F34F459154915093050640930406F90150
:100EE000E152F44FE491E093060640916B0086EFE7
:100EF000890F843080F42650310981E001C0880FC9
:100F00002A95EAF7842B80936B00809168008160BA
:100F100080936800089588E09233A1F384E09333CE
:100F200089F382E0943371F39E5381E0983050F757
:100F30002E533109E2CFCF93DF93EC018881998161
:100F4000DC01ED91FC910190F081E02D64E270E014
:100F50001995009741F02FE1FC01238321E02283C2
:100F6000DF91CF91089521E02A83FACF4F925F92CB
:100F70006F927F92AF92CF92EF920F931F93109246
:100F80002F041092300431E0309331046093320426
:100F900060933304109234041092350439E0309396
:100FA0004B0434E630934C0410924F0435E03093F8
:100FB000AD0410926B0433E030936C0400936D0425
:100FC00010926E0410926F041092700410927104CB
:100FD0004090D9065090DA066090DB067090DC06EF
:100FE000409272045092730460927404709275047B
:100FF0001092760434E030937704E09278041092F3
:10100000790410927A0410927B0410927C04409030
:10101000B8065090B9066090BA067090BB06409230
:101020007D0450927E0460927F047092800410923E
:10103000810420938204263009F0AC2CA092830412
:1010400010928404109285041092860410928704F2
:10105000FC0181859285A385B48580938804909353
:101060008904A0938A04B0938B0410928C0487E0C7
:1010700080938D0489E080938E0410928F041092E7
:101080009004109291041092920400913E061091E7
:101090003F0620914006309141060093930410933F
:1010A0009404209395043093960491E090939704D0
:1010B000409398048093990410929A0410929B0490
:1010C00010929C0410929D048091F5059091F60574
:1010D000A091F705B091F80580939E0490939F042A
:1010E000A093A004B093A1041F910F91EF90CF9013
:1010F000AF907F906F905F904F9008956093F5054B
:101100007093F6058093F7059093F8053091AD0440
:10111000EBE6F4E020E023130DC03091F004EEEA9A
:10112000F4E020E02317B1F04081413071F02F5FEF
:101130003B96F8CF4081413019F02F5F3B96EBCFC3
:101140006783708781879287F8CF678370878187ED
:101150009287EDCF089590912F04992339F09091C3
:101160004D0421E030E0992319F0089530E020E0AB
:101170009EE1929FF001939FF00D1124E35EFB4FDF
:10118000858B178AF2CFE0E0F5E01082709686E05A
:10119000E030F807D1F708958150823108F05AC045
:1011A000E82FF0E08827E852F74F8F4F0C94EF407C
:1011B000F808FC08EA08F008F4082A09FF080509FD
:1011C00009090F09130917091D0921092A09250908
:1011D0002B092F09809180008F77809380000895DC
:1011E000809180008F7DF9CF80918000877FF5CF3F
:1011F00084B58F7784BD089584B58F7DFBCF8091B2
:10120000B0008F778093B00008958091B0008F7DFB
:10121000F9CF809190008F7780939000089580910E
:1012200090008F7DF9CF80919000877FF5CF8091DE
:10123000A0008F778093A00008958091A0008F7DFB
:10124000F9CF8091A000877FF5CF809120018F7723
:10125000809320010895809120018F7DF9CF8091A6
:101260002001877FF5CFCF93DF93282F30E0F9015E
:10127000E85AF44F8491F901E152F44FD491F90105
:10128000E15CF34FC491CC23A1F081110E94CC0802
:10129000EC2FF0E0EE0FFF1FEB5DF34FA591B49143
:1012A000EC91ED2381E090E009F480E0DF91CF91B3
:1012B000089580E090E0FACF1F93CF93DF93282F1B
:1012C00030E0F901E85AF44F8491F901E152F44F0A
:1012D000D491F901E15CF34FC491CC23A9F0162F0E
:1012E00081110E94CC08EC2FF0E0EE0FFF1FE25CB2
:1012F000F44FA591B4918FB7F894EC91111108C0F7
:10130000D095DE23DC938FBFDF91CF911F9108959D
:10131000DE2BF8CFCF93DF9390E0FC01E152F44F46
:101320002491815C934FFC0184918823C9F090E063
:10133000880F991FFC01EC5DF44FA591B491FC015D
:10134000E25CF44FC591D49161110DC09FB7F89440
:101350008C91209582238C938881282328839FBF9A
:10136000DF91CF910895623051F49FB7F8943C918A
:10137000822F809583238C93E8812E2BEFCF8FB71C
:10138000F894EC912E2B2C938FBFEACF3FB7F894B3
:101390008091780390917903A0917A03B0917B03B7
:1013A00026B5A89B05C02F3F19F00196A11DB11DC0
:1013B0003FBFBA2FA92F982F8827BC01CD01620FFC
:1013C000711D811D911D42E0660F771F881F991FB7
:1013D0004A95D1F708958F929F92AF92BF92CF9284
:1013E000DF92EF92FF920E94C6094B015C0184E6F6
:1013F000C82ED12CE12CF12C0E94C609681979095C
:101400008A099B09683E734081059105A8F321E094
:10141000C21AD108E108F10888EE880E83E0981E10
:10142000A11CB11CC114D104E104F10429F7FF90FF
:10143000EF90DF90CF90BF90AF909F908F900895E6
:101440002FB7F894609174037091750380917603BF
:10145000909177032FBF08950F931F93CF93DF933E
:10146000C0911B04D0911C042097C9F08A81882365
:1014700031F08B818F3F19F08B818F5F8B8381E0FF
:101480008A830E94200A09851A852B853C85601B6A
:10149000710B820B930B6D837E838F839887DF9113
:1014A000CF911F910F91089508959091080289138B
:1014B0000DC0E8E5F9E0E4919FEF90930802E23077
:1014C000E1F038F4EE2381F0E13089F060E00C9433
:1014D0005C09E43049F110F1E530C1F790917300F7
:1014E0009D7F90937300F2CF10926E00EFCF90919A
:1014F0006F009D7F90936F00E9CF909170009D7F6A
:101500009093700091E09093B0009091B100987F1B
:1015100094609093B1001092B300D8CF9091710075
:101520009D7F90937100D2CF909172009D7F909398
:101530007200CCCF4F925F926F927F928F929F9268
:10154000AF92BF92CF92DF92EF92FF920F931F93D1
:10155000CF93DF9300D01F921F92CDB7DEB78B01E0
:1015600029013A01909108028917C9F09F3F09F4B7
:1015700091C00F900F900F900F900F90DF91CF912F
:101580001F910F91FF90EF90DF90CF90BF90AF90A1
:101590009F908F907F906F905F904F900895E8E5B7
:1015A000F9E024912D8327FDE4CF61E00E948A09B0
:1015B0002D81222321F08D81823009F005C248015E
:1015C000B12CA12C60E072E18AE790E0A5019801BE
:1015D0000E94723F29833A834B835C8369017A01BD
:1015E00091E0C91AD108E108F1082FEFC216D10421
:1015F000E104F10409F00CF4B6C160E472E48FE098
:1016000090E0A50198010E94723F69017A0181E092
:10161000C81AD108E108F1089D81923009F026C16D
:1016200082E02FEFC216D104E104F10409F00CF4BA
:101630006CC160E970ED83E090E0A50198010E9423
:10164000723F69017A0181E0C81AD108E108F10806
:1016500083E09FEFC916D104E104F10409F00CF412
:1016600054C168E478EE81E090E0A50198010E9401
:10167000723F69017A0181E0C81AD108E108F108D6
:101680009FEFC916D104E104F10411F00CF044C13C
:1016900084E03BC180930802E8E5F9E094919D83E2
:1016A0009F3F09F466CF923009F474C058F499232F
:1016B00099F1913009F44CC097FD5BCF61E00E9435
:1016C0008A0979CF2D81243009F4AEC008F488C08E
:1016D000253091F710922001109221019091210163
:1016E0009860909321019091210191609093210144
:1016F000282F30E0F901E15CF34FE491F0E0EE0FC8
:10170000FF1FE25CF44F45915491F901E152F44F0F
:10171000E491E0934A0349CF14BC15BC94B59260A0
:1017200094BD95B5916095BD282F30E0F901E15C3D
:10173000F34FE491F0E0EE0FFF1FE25CF44F4591B0
:101740005491F901E152F44FE491E0934E032DCF0F
:101750001092800010928100909181009860909387
:10176000810090918100916090938100282F30E05A
:10177000F901E15CF34FE491F0E0EE0FFF1FE25C52
:10178000F44F45915491F901E152F44FE491E09303
:101790004D030BCF1092B0001092B1009091B000A9
:1017A00092609093B0009091B10091609093B100DD
:1017B000282F30E0F901E15CF34FE491F0E0EE0F07
:1017C000FF1FE25CF44F45915491509364034093A2
:1017D0006303F901E152F44FE491E0936503E5CE30
:1017E00010929000109291009091910098609093C7
:1017F000910090919100916090939100282F30E09A
:10180000F901E15CF34FE491F0E0EE0FFF1FE25CC1
:10181000F44F45915491F901E152F44FE491E09372
:101820004C0393E09D83C1CE1092A0001092A100C2
:101830009091A10098609093A1009091A100916077
:101840009093A100282F30E0F901E15CF34FE4917F
:10185000F0E0EE0FFF1FE25CF44F45915491F90167
:10186000E152F44FE491E0934B039FCE2FEFC21669
:10187000D104E104F10409F00CF4A4C068E478EEAA
:1018800081E090E0A50198010E94723F69017A0110
:1018900081E0C81AD108E108F1089D81992309F473
:1018A00089C19FEFC916D104E104F10409F00CF4D9
:1018B000EFCE62E17AE780E090E0A50194010E941A
:1018C000723F69017A0181E0C81AD108E108F10884
:1018D0009D81992309F453C186E09FEFC916D10475
:1018E000E104F10491F088F0C980DA80EB80FC809B
:1018F0008AE0F594E794D794C7948A95D1F781E06C
:10190000C81AD108E108F10887E09091B100987FEA
:10191000892B8093B1002FC064E274EF80E090E0E7
:10192000A50194010E94723F69017A0181E0C81A01
:10193000D108E108F10885E09FEFC916D104E10460
:10194000F10419F310F362E17AE780E090E0A50179
:1019500094010E94723F69017A0181E0C81AD1089E
:10196000E108F108B9CF81E02D812111CECF95B5E5
:10197000987F892B85BD2FEF3FEFA90141145104BA
:101980006104710409F049C09D81923009F4E7C0F7
:101990000CF0CEC0992309F4D3C0913009F0E9CD01
:1019A000D0928900C092880020935B0330935C033F
:1019B00040935D0350935E0380916F00826080933B
:1019C0006F00D7CD82E0D0CFB12CA12C60E072E1C6
:1019D0008AE790E0A50198010E94723F69017A01AF
:1019E00081E0C81AD108E108F108C114D10491E0DE
:1019F000E906F10404F591E02D81213069F580912B
:101A00008100887F892B809381002FEF3FEFA90110
:101A1000411451046104710419F2D801AA0FBB1FCB
:101A2000A30192010E94913F28EE33E040E050E094
:101A30000E94A43FA9CF68E478EE81E090E0A50180
:101A400098010E94723F69017A0181E0C81AD108A9
:101A5000E108F10893E0D0CF8D81833001F58091CA
:101A60009100887F892B809391002FEF3FEFA90190
:101A7000411451046104710481F6D0929900C0921E
:101A80009800209357033093580340935903509381
:101A90005A03809171008260809371006ACD2D811C
:101AA000243009F58091A100887F892B8093A100C3
:101AB0002FEF3FEFA901411451046104710409F0B3
:101AC000ACCFD092A900C092A800209353033093CA
:101AD00054034093550350935603809172008260E3
:101AE0008093720046CD8D81853009F044CF80917E
:101AF0002101887F892B809321012FEF3FEFA901DE
:101B0000411451046104710409F087CFD092290176
:101B1000C092280120934F03309350034093510308
:101B2000509352038091730082608093730021CDA3
:101B30008D81843031F20CF4A0CF853039F319CD8A
:101B4000C7BC20935F0330936003409361035093BD
:101B5000620380916E00826080936E000ACDC09215
:101B6000B300209366033093670340936803509358
:101B7000690380917000826080937000FACC84E0E9
:101B80002FEFC216D104E104F10409F008F4EFCEFE
:101B9000C980DA80EB80FC809AE0F594E794D794D2
:101BA000C7949A95D1F791E0C91AD108E108F108D4
:101BB00085E0DDCE83E02FEFC216D104E104F1040D
:101BC00011F00CF076CED3CEAF92BF92CF92DF92CF
:101BD000EF92FF920F931F93CF93DF936C017B01E2
:101BE0008B01040F151FEB015E01AE18BF08C01773
:101BF000D10759F06991D601ED91FC910190F081E6
:101C0000E02DC6011995892B79F7C501DF91CF9198
:101C10001F910F91FF90EF90DF90CF90BF90AF900A
:101C20000895FC01538D448D252F30E0842F90E0E2
:101C3000821B930B541710F0CF96089501970895C7
:101C4000FC01918D828D981761F0A28DAE0FBF2F90
:101C5000B11D5D968C91928D9F5F9F73928F90E0E6
:101C600008958FEF9FEF0895FC01918D828D981755
:101C700031F0828DE80FF11D858D90E008958FEF92
:101C80009FEF0895FC01918D228D892F90E0805C5B
:101C90009F4F821B91098F73992708958CE793E0DA
:101CA0000E94420E21E0892B09F420E0822F089542
:101CB000FC01A48DA80FB92FB11DA35ABF4F2C91C1
:101CC000848D90E001968F739927848FA689B789B8
:101CD0002C93A089B1898C91837080648C93938DAF
:101CE000848D981306C00288F389E02D80818F7D52
:101CF00080830895EF92FF920F931F93CF93DF930A
:101D0000EC0181E0888F9B8D8C8D98131AC0E88937
:101D1000F989808185FF15C09FB7F894EE89FF8906
:101D20006083E889F98980818370806480839FBFA4
:101D300081E090E0DF91CF911F910F91FF90EF90A4
:101D40000895F62E0B8D10E00F5F1F4F0F731127B4
:101D5000E02E8C8D8E110CC00FB607FCFACFE889EF
:101D6000F989808185FFF5CFCE010E94580EF1CF11
:101D7000EB8DEC0FFD2FF11DE35AFF4FF0829FB763
:101D8000F8940B8FEA89FB8980818062CFCF0F9313
:101D90001F93CF93DF938C01D0E0C0E0F801EC0FEC
:101DA000FD1F6491662341F08CE793E00E947A0E58
:101DB000892B11F02196F2CFCE01DF91CF911F91A7
:101DC0000F910895CF93DF93EC01888D8823B9F0AC
:101DD000AA89BB89E889F9898C9185FD03C0808136
:101DE00086FD0DC00FB607FCF7CF8C9185FFF2CFB3
:101DF000808185FFEDCFCE010E94580EE9CFDF91A3
:101E0000CF91089580E090E0892B29F00E944E0E3A
:101E100081110E94000080E090E0892B49F080E071
:101E200090E0892B29F00E94000081110E9400009F
:101E300080E090E0892B49F080E090E0892B29F048
:101E40000E94000081110E94000080E090E0892B38
:101E500049F080E090E0892B29F00E940000811178
:101E60000C9400000895CF92DF92EF92FF921F939F
:101E7000CF93DF93EC016A017B018C810E943309CF
:101E800011E0892B09F410E08B85181721F0CD8A19
:101E9000DE8AEF8AF88E8D899E89AF89B88DB70169
:101EA000A601481B590B6A0B7B0B898D90E0B0E0B3
:101EB000A0E084179507A607B70798F48C85181734
:101EC00081F01C878A851817A9F0CA8EDB8EEC8EEC
:101ED000FD8EEAA1FBA1309721F0B701A60189850B
:101EE00019951B87DF91CF911F91FF90EF90DF90A5
:101EF000CF900895CE8EDF8EE8A2F9A2ECA1FDA1CD
:101F0000309779F389851995ECCFFC0115821386FA
:101F10001486158616861786108A118A128A138AE5
:101F2000148A158A168A138E8681882311F084817B
:101F300083830895CF92DF92EF92FF920F931F93C6
:101F4000CF93DF93EC018E81811103C08D898823AB
:101F500069F18C810D851E852F8538896A017B0189
:101F6000C01AD10AE20AF30A9701860137FD18C0A8
:101F700009891A892B893C89401B510B620B730B11
:101F800014161506160617065CF061E0DF91CF9176
:101F90001F910F91FF90EF90DF90CF900C945C0910
:101FA00060E00E945C098D8981111D8ADF91CF91CB
:101FB0001F910F91FF90EF90DF90CF900895CF93F6
:101FC000DF93EC0161E088810E945C0981E08D87EC
:101FD0000E94200A6E877F87888B998BDF91CF9133
:101FE0000895CF92DF92EF92FF92CF93DF93EC01AF
:101FF0006A017B0169857A858B859C850E94533EA9
:102000009B01AC0160E070E080E89FE30E944240E9
:1020100020E030E040E05FE30E94B43E20E030E0AA
:102020004AE754E40E94B43ECD8EDE8EEF8EF8A2D5
:1020300020E030E040E05FE30E94D63F0E94BB40DA
:10204000C60ED71EE81EF91EC9A2DAA2EBA2FCA298
:102050008FA191E089278FA3DF91CF91FF90EF901F
:10206000DF90CF900895CF92DF92EF92FF92CF93BF
:10207000DF93EC016A017B018D899E89AF89B88D60
:10208000AB019601281B390B4A0B5B0BDA01C90126
:10209000B7FD49C0898D9A8DAB8DBC8DAB01960182
:1020A000281B390B4A0B5B0BDA01C90118161906FC
:1020B0001A061B06C4F18EA18823A9F189859A8589
:1020C000AB85BC850197A105B10551F461E08C8118
:1020D000DF91CF91FF90EF90DF90CF900C945C094F
:1020E00089A19AA1ABA1BCA1AB019601281B390B18
:1020F0004A0B5B0BDA01C901B7FD04C0A601CE0192
:102100000E94F10F8C819FA1992311F061E0E0CF33
:1021100060E00E945C091FA2DF91CF91FF90EF90D9
:10212000DF90CF90089560E08C810E945C091FA22F
:10213000898D9A8DAB8DBC8DC81AD90AEA0AFB0A23
:102140008EA1882331F01C141D041E041F040CF4FE
:102150001EA288A5882301F31C141D041E041F045D
:10216000DCF618A6D9CF8F929F92AF92BF92CF92F2
:10217000DF92EF92FF920F931F93CF93DF93EC01C7
:102180008E81811104C088A1882309F445C07B0198
:1021900089899A89AB89BC894A015B01881A990AA5
:1021A000AA0ABB0AC501B40197FD53C00D891E8957
:1021B0002F89388D4A015701801A910AA20AB30A61
:1021C0009501840110161106120613060CF441C085
:1021D0002A8D2223A9F10C8D1D8D2E8D3F8D200F70
:1021E000311F2115310511F421E030E0FB8C50E066
:1021F00040E00E94A43F60177107D8F4F1100AC0B4
:1022000069857A8520E030E0A9018C810E949A0AD4
:1022100081E08B8F81E0898FDF91CF911F910F91AA
:10222000FF90EF90DF90CF90BF90AF909F908F90F6
:102230000895FF2079F38C810E94550A1B8EEACF06
:1022400069857A8520E030E0A9018C810E949A0A94
:10225000E1CF898D882301F38C810E94550A198E64
:102260001B8E88A18823C1F218A2D6CF6F3FA9F098
:10227000E62FE295EF7044E0E49F90011124DC0129
:10228000ED91FC91E20FF31F6F7082819381B6E0B4
:102290006B9F800D911D1124089590E080E00895BA
:1022A000982F80336CF08A3324F08F3524F08B37ED
:1022B00024F481E0089581341CF081E09B350CF01A
:1022C00080E00895FC01828581110AC0A781B08554
:1022D000CD010196908787838C91818781E08287E9
:1022E000818508951F93CF93DF93EC01162F0E94F1
:1022F0006211811306C01A8681E0DF91CF911F9190
:10230000089580E0FACF0F931F93CF93DF938C0152
:10231000EB018991882369F0C8010E94621188232A
:1023200079F0FE013197908198130DC0F801128663
:10233000F0CF90E080E0DF91CF911F910F91089551
:1023400082E090E0F8CF83E090E0F5CFCF93DF9389
:10235000EC01CE010E9462118B304CF489305CF4A8
:10236000882359F081E08E8390E080E00BC08D30AF
:1023700011F08032B9F71A86ECCF8E81811105C039
:1023800081E090E0DF91CF91089582E090E0FACF74
:10239000DC0152969C915297915084E0989F900155
:1023A00011245096ED91FC91E20FF31F22813381AD
:1023B0002115310579F041818081481758F481E079
:1023C000840F818386E0489F200D311D1124211543
:1023D000310521F460E070E08FEF0895B901892F95
:1023E0008295807F840F0895DF92EF92FF920F9382
:1023F0001F93CF93DF93EC017B01D12C68897989FE
:102400008A89D816E0F484E0D89E80011124060F52
:10241000171FD80112966D917C916115710541F0DD
:10242000D701ED91FC910280F381E02DC701199550
:10243000F8011382128210821182D394DFCF1A8A9C
:102440008FEF8C8BC617D70761F0D701ED91FC9108
:102450000280F381E02DC7011995D98BC88B84E0E8
:102460008B8BDF91CF911F910F91FF90EF90DF90B9
:102470000895AF92CF92DF92EF92FF920F931F9346
:10248000CF93DF93C0910902D0910A0241E080917D
:102490000402909105028B51974009F440E0A0900E
:1024A0000002C0900102E09002020091030220911C
:1024B0000B0260913204CE010E94B607E091AD0498
:1024C000E43008F46CC0CB57D64009F0BCC0C090D3
:1024D0003D03D0903E03E0903F03F0904003809195
:1024E000450390914603A0914703B09148030091A2
:1024F0006E0410916F042091700430917104080FE4
:10250000191F2A1F3B1F00936E0410936F04209322
:102510007004309371044091790450917A04609171
:102520007B0470917C04840F951FA61FB71F8093B6
:10253000790490937A04A0937B04B0937C048091F7
:10254000840490918504A0918604B09187048C0D39
:102550009D1DAE1DBF1D8093840490938504A093A0
:102560008604B093870480918F0490919004A09189
:102570009104B091920440914206509143066091BB
:10258000440670914506840F951FA61FB71F8093C0
:102590008F0490939004A0939104B093920480913F
:1025A0004903882309F458C0E43018F083E080938D
:1025B0008C0410924D0481E080934E0480934F046C
:1025C000809350048093510410925204109253044B
:1025D00090913C039093690494E690936A048093ED
:1025E000F0041092AE0487E08093AF0489E08093FA
:1025F000B0048091420690914306A0914406B091A8
:1026000045068093B1049093B204A093B304B093B1
:10261000B40480913E0690913F06A0914006B0918F
:1026200041068093B5049093B604A093B704B09389
:10263000B804DF91CF911F910F91FF90EF90DF9041
:10264000CF90AF900895C0904103D0904203E090A6
:102650004303F090440343CF10924F04EACF4F92CC
:102660005F926F927F928F929F92AF92BF92CF9222
:10267000DF92EF92FF920F931F93CF93DF9300D0DF
:102680001F921F92CDB7DEB7DC012C912B32E1F106
:102690002D32D9F50196EE24E394FC01208130ED32
:1026A000320F3A3010F02E3291F58C0160E070E07C
:1026B000CB01F801219130ED832E820E39E03815DF
:1026C00008F444C06A3949E97407840749E194076A
:1026D00008F046C0AAE0B0E09B01AC010E94913F27
:1026E000912CB12CA12C240135014094509460947C
:1026F0007094461657066806790690F1680D791DA4
:102700008A1D9B1D8F01D5CF0196E12CC6CF198262
:1027100029813A814B815C816D8170E080E090E09D
:102720000F900F900F900F900F90DF91CF911F910E
:102730000F91FF90EF90DF90CF90BF90AF909F9060
:102740008F907F906F905F904F900895211108C0F7
:10275000EE2051F161307105810550E89507A0F038
:10276000F12CBAE08B2E912CA12CB12C61157105A6
:1027700030E883079105F8F0A50194010E94A43F79
:10278000CA01B901F394F2CF22E029839B01AC0185
:1027900088279927DC01821B930BA40BB50B8A8336
:1027A0009B83AC83BD83B4CF23E029836A837B837F
:1027B0008C839D83ADCFF801D8012D918D0130ED33
:1027C000320F3A3010F4F394F6CF2E3201F58F0128
:1027D0000F5F1F4FF8010F5F1F4F2081A0EDDA2E12
:1027E000D20EB9E0BD1598F06C3CECEC7E07ECE045
:1027F0008E07910578F7AAE0B0E09B01AC010E943A
:10280000913F6D0D711D811D911DFA94E3CF2081C3
:102810002F7D10E000E0253409F050C021812D32D9
:10282000B1F53296CC24C394DF0110E000E02F2DE7
:102830000F2C000C330BEAE0BE2EFD01DD9040EDC5
:102840004D0D4A30B0F5B09EA001B19E500D11243F
:102850000D2DDD0C110B00531109040F151FA801DC
:10286000420F531F4732510544F3CC20B9F080E0AA
:1028700090E0A0E0B0E8E11003C080E090E0DC016F
:1028800021E029838A839B83AC83BD8341CF2B3294
:1028900019F03196C12CC8CF3296FCCF80E090E081
:1028A000A0E8BFEFE110ECCF80E090E0A0E8BFE748
:1028B000E7CFCC2019F01195019511092081211144
:1028C00026CF0F0D111DF7FC1A950E94533E44E1CF
:1028D000A42E42E0B42E101611063CF0119501957D
:1028E00011095CEFA52E51E0B52ED12CC12C01159C
:1028F0001105E9F0F6E0CF16D104A9F000FF0DC0F4
:10290000F601EE0FFF1FEE0FFF1FEA0DFB1D2591D5
:102910003591459154910E94B43E159507952FEF3E
:10292000C21AD20AE4CF60E070E080EC9FE7E110C9
:10293000905821E029836A837B838C839D83E8CE32
:10294000CF92DF92EF92FF920F931F93CF93DF937B
:102950007C016B018A01FC01C081D1814F3F51058F
:1029600009F0B0F4E881F9810480F581E02D4B5F36
:102970005F4FCE011995009759F0FC010383DF9159
:10298000CF911F910F91FF90EF90DF90CF9008951E
:10299000E881F9810280F381E02DB601CE0119951D
:1029A00081E0F701828390E080E0E9CF1F93CF932D
:1029B000DF93EC01162F6A817B816115710589F027
:1029C0004C815D81FB0183818417150651F4440F0E
:1029D000551F4F5F5F4F888199810E94A0149B8390
:1029E0008A838A819B81009759F02C813D81A901BE
:1029F0004F5F5F4F5D834C83820F931FFC011483F5
:102A0000DF91CF911F9108959F92AF92BF92CF9285
:102A1000DF92EF92FF920F931F93CF93DF9300D03B
:102A20001F921F92CDB7DEB78C010E946211D82E83
:102A3000F8011286F12CE12C60EFC62EC8010E942D
:102A40006211F8011286D81609F4B3C0811113C0BF
:102A500082E090E00F900F900F900F900F90DF9119
:102A6000CF911F910F91FF90EF90DF90CF90BF908B
:102A7000AF909F9008958C3509F099C0C8010E94CD
:102A80006211882329F3E2E9F2E0853709F083C077
:102A9000F801128654E0952EB12CA12CC8010E9499
:102AA00062118823A9F2813434F48053803130F0EC
:102AB00083E090E0CFCF8F7D8753F8CF44E0AA0C1E
:102AC000BB1C4A95E1F7A82AF80112869A94911046
:102AD000E5CFC501985D8115944020F47501F3E0C0
:102AE000FF22ACCFC5019C5D81159440A8F483E022
:102AF000B822B701762F6627770F770F6A297B29CF
:102B000090E080E00196603871058105910540F400
:102B1000C8010E94D61492CFB50190E080E0F3CFB7
:102B20001982262F2F7320682A8326E09695879591
:102B3000779567952A95D1F76032710580F4606CBE
:102B40006B835E01E4E0AE0EB11CF50162915F01A2
:102B5000662309F473CFC8010E94D614F6CF262F3E
:102B60002F7320682B8386E0769567958A95E1F729
:102B70006031710538F4606E6C835E01F5E0AF0E74
:102B8000B11CE3CF60686C83CD825E0126E0A20EAB
:102B9000B11CDBCF32969081992309F489CF891338
:102BA000F9CF8181882309F483CFF8011286682F39
:102BB000AFCF82819381892B19F484E090E04ACFD2
:102BC00090E080E047CF6F927F928F929F92AF927A
:102BD000BF92CF92DF92EF92FF920F931F93CF930A
:102BE000DF93EC012A813B812C5F3F4F4C815D815B
:102BF0004430510588F58901F90180E0942FB22F06
:102C0000AE2FA21BA91730F4F190A1E0F110A0E0C3
:102C10008A2BF6CF811120C082E0EB018C83FB016F
:102C2000802F8B1B891728F4E80189918E018193ED
:102C3000F7CF640F751FFB011082DF91CF911F91B9
:102C40000F91FF90EF90DF90CF90BF90AF909F904B
:102C50008F907F906F9008958B01F901E40FF51F1D
:102C60001082888199814C815D81DC011396ED9100
:102C7000FC913A01E89477F86901C60CD71C3097AB
:102C8000C1F0A381A615170481F449017F01B4E0C6
:102C9000EB0EF11C8C149D0429F1D401AD904D0173
:102CA000D701BD907D01AB14A9F30190F081E02D17
:102CB000E6CF6A817B810E94A014FC01A881B981C2
:102CC00013968D919C911497918380831496FC9315
:102CD000EE9313971B821A8285E0E8018C83F983B7
:102CE000E883ABCF82818F5F8283F6CFDB01ED91EA
:102CF000FC9111970280F381E02DBC01CD01199464
:102D0000AF92BF92CF92DF92EF92FF920F931F93F9
:102D1000CF93DF93EC018B018C8180FF24C0A881CD
:102D2000B981FB018381948130E020E00097D9F0E4
:102D3000A817B907D1F5F8016081718112968C91BD
:102D40001297815012968C93129781110CC08D911D
:102D50009C9111972115310529F1F9019183808307
:102D6000CD010E9476168C81807631F1209721F179
:102D7000F8805801F5E1AF0EB11C8FEFF816D1F0D5
:102D80006F2DC5010E9436116C01FC01E580B80170
:102D90000E948016F801818DF6018083F801F18E82
:102DA000FE2CEBCF94838383DBCF9C01FC018081DD
:102DB0009181BCCFF882F9821C82DF91CF911F9163
:102DC0000F91FF90EF90DF90CF90BF90AF9008955C
:102DD0000F931F93CF93DF93EC01088119818B81AF
:102DE0009C81009749F0FC01208131813C832B8339
:102DF000B8010E947616F3CF68817981CE010596DD
:102E0000DF91CF911F910F910C94F411FC0101906F
:102E10000020E9F73197AF01481B590BBC018CE743
:102E200093E00C94E40D8F929F92AF92BF920F9318
:102E30001F93CF93DF93CDB7DEB7A1970FB6F8946A
:102E4000DEBF0FBECDBF19A2423008F44AE08E01AA
:102E50000F5D1F4F842E912CB12CA12CA501940144
:102E60000E94A43FE62FB901CA01EA30F4F4E05D04
:102E7000D801EE938D01232B242B252B79F790E09D
:102E800080E0109719F0CD010E940617A1960FB6A9
:102E9000F894DEBF0FBECDBFDF91CF911F910F9190
:102EA000BF90AF909F908F900895E95CE1CF4AE08A
:102EB0000C941317682F70E090E080E04AE00C94C7
:102EC0001317CF92DF92EF92FF92CF93DF936C01B3
:102ED000990FEE08FF08F7FE19C06DE28CE793E04A
:102EE0000E947A0EEC0166277727CB016C197D09C9
:102EF0008E099F094AE00E9413178C0F9D1FDF91D6
:102F0000CF91FF90EF90DF90CF9008954AE0C701F6
:102F1000B601DF91CF91FF90EF90DF90CF900C94AE
:102F20001317CF93DF930E94C70EEC0185EA92E05E
:102F30000E9406178C0F9D1FDF91CF910895CF93AC
:102F4000C82F809308068AEB9BE00E94C70E8091F1
:102F50000306082E000C990B0E94611780EB9BE082
:102F60000E94C70E8EE99BE0CC2311F087EA9BE01C
:102F70000E94C70E8DEA9BE0CF910C9491170F939E
:102F80001F93CF938C01C62FFC0164838AE298E0E3
:102F90000E94C70EF8018081082E000C990B0E9438
:102FA000611780E298E00E94C70E8EE098E0CC2383
:102FB00011F087E198E00E94C70E8DE198E0CF9173
:102FC0001F910F910C949117EF92FF920F931F9303
:102FD000CF93DF937C018B01EA0184EF97E00E949D
:102FE000C70EC7010E94C70E88EE97E00E94C70E69
:102FF000C8010E94C70E8CED97E00E94C70ECE015B
:103000000E94C70E89ED97E0DF91CF911F910F913C
:10301000FF90EF900C949117CF93DF936DE78CE7BF
:1030200093E00E947A0EEC0185EA92E00E94061776
:103030008C0F9D1FDF91CF9108954F925F926F92F9
:103040007F928F929F92AF92BF92EF92FF920F93D7
:103050001F93CF93DF932A013B014801590185302B
:1030600009F480C008F061C0843009F46FC0E091B9
:103070002304F09124041481C2EDDDE041EFE42E3D
:103080004DE0F42E82E39EE00E94C70EC7010E942D
:10309000C70E89E29EE00E94C70E812F110F990B87
:1030A0000E9461178EE19EE00E94C70ECE010E9431
:1030B000C70E89E09EE00E94C70E8091F1059091B5
:1030C000F205A091F305B091F405A3019201281B2C
:1030D000390B4A0B5B0BCA01B9010E94571787EFE6
:1030E0009DE00E94C70E8091F1059091F205A0919C
:1030F000F305B091F405A5019401281B390B4A0B87
:103100005B0BCA01B9010E945717DF91CF911F9144
:103110000F91FF90EF90BF90AF909F908F907F9016
:103120006F905F904F900C940C18863039F1873077
:1031300009F09DCFE0912B04F0912C041481C6EB93
:10314000DDE087EDE82E8DE0F82E9CCFE0912504A0
:10315000F09126041481CDECDDE03BEEE32E3DE062
:10316000F32E90CFE0912704F09128041481C4EC51
:10317000DDE024EEE22E2DE0F22E84CFE091290452
:10318000F0912A041481CBEBDDE09DEDE92E9DE06A
:10319000F92E78CFCF92DF92EF92FF920F931F9389
:1031A000CF93DF93EC018881813009F4D1C06A01AB
:1031B0007B01813090F08230D1F48FE294E00E9464
:1031C000850F8DE494E0DF91CF911F910F91FF90D7
:1031D000EF90DF90CF900C94850F8981853009F4B2
:1031E0007DC070F48330F1F1843009F45AC0DF916E
:1031F000CF911F910F91FF90EF90DF90CF900895A6
:10320000863009F488C0873091F7E0912B04F09163
:103210002C04309761F38681882349F385A18111BD
:10322000E6CF8F819885A985BA85C58AD68AE78A2F
:10323000F08E8C0D9D1DAE1DBF1D818F928FA38FB3
:10324000B48F81E086A3CF010E94F10F0F81188512
:1032500029853A850C0D1D1D2E1D3F1DB701A601A8
:1032600087E01CC0E0912304F0912404309709F416
:10327000BECF8681882309F4BACF0F8118852985AE
:103280003A85C18AD28AE38AF48A0C0D1D1D2E1D4F
:103290003F1D058B168B278B308F83E00E941D18F6
:1032A000A6CFE0912504F0912604309709F49FCF32
:1032B0008681882309F49BCF0F81188529853A855B
:1032C000C18AD28AE38AF48A0C0D1D1D2E1D3F1D72
:1032D000058B168B278B308F84E0E0CFE09127049D
:1032E000F0912804309709F482CF8681882309F46D
:1032F0007ECF0F81188529853A85C586D686E786D3
:10330000F08A0C0D1D1D2E1D3F1D018B128B238B72
:10331000348B85E0C3CFE0912904F0912A043097E3
:1033200009F465CF8681882309F461CF0F81188560
:1033300029853A85C586D686E786F08A0C0D1D1D3F
:103340002E1D3F1D018B128B238B348B86E0A6CF65
:103350008981E0911D04F0911E04882339F08130A9
:1033600009F045CFE0911F04F0912004309709F453
:103370003ECFCF80D884E984FA844C0D5D1D6E1D4C
:103380007F1D418B528B638B748B31CF2F923F9279
:103390004F925F926F927F928F929F92AF92BF9265
:1033A000CF92DF92EF92FF920F931F93CF93DF9311
:1033B00000D01F92CDB7DEB72A013B0103E4809F06
:1033C00090011124312C8901C90183559B4F9A83A7
:1033D00089834BE0242E49019EE4890E911CE981EA
:1033E000FA818081381608F098C0A32CB12CC8014E
:1033F000239C800D911D1124835E9B4FFC01E25B99
:10340000FF4F2081233039F1805B9F4FFC01808189
:10341000893021F09091020689131DC02A9CF00189
:103420002B9CF00D1124E00FF11FE259FB4FC080DF
:10343000D180E280F380C114D104E104F10469F485
:10344000B301A201C401329C800D911D1124835E41
:103450009B4F0E94CA183394C2CFC40CD51CE61CE3
:10346000F71CE0E0F5E090E080E02081211125C02C
:1034700024E0880F991F2A95E1F7DC01AF50BB4F7C
:103480002A9CF0012B9CF00D1124E00FF11FE5594F
:10349000FB4F222D01900D922A95E1F7835E9B4F01
:1034A000FC01E152FF4FC082D182E282F3828D5152
:1034B0009F4F21E0FC012083CECF01967096803192
:1034C000910599F684E49DE00E94C70E2A9CC001F4
:1034D0002B9C900D1124800F911F835E9B4F9C832A
:1034E0008B83FC01E25BFF4F80810E945A1789E3C6
:1034F0009DE00E94C70EEB81FC81E15BFF4F808164
:103500000E945A1788E29DE00E94C70EC701B601CB
:103510000E9457170E940C189ECF0F900F900F908B
:103520000F90DF91CF911F910F91FF90EF90DF905F
:10353000CF90BF90AF909F908F907F906F905F9053
:103540004F903F902F9008950F931F93CF93DF9349
:103550008C01D62FC42F8EE399E00E94C70EC801BC
:103560000E94C70E83E399E00E94C70E89E199E0AB
:10357000DD2311F08FE199E00E94C70E84E299E00B
:103580000E94C70E8EE099E0CC2311F084E199E00F
:103590000E94C70EDF91CF911F910F910C940C18D0
:1035A0000F931F93CF938C01C62F84EF98E00E9456
:1035B000C70EC8010E94C70E89EE98E00E94C70E90
:1035C0008EED98E0CC2311F084EE98E00E94C70EB7
:1035D000CF911F910F910C940C18CF92DF92EF9224
:1035E000FF920F931F93CF938C01C62F69017A012D
:1035F00084EC98E00E94C70EC8010E94C70E89EBB8
:1036000098E00E94C70E81EA98E0CC2311F087EA87
:1036100098E00E94C70E8CEA98E00E94C70EC7018E
:10362000B6010E945717CF911F910F91FF90EF9015
:10363000DF90CF900C940C187F928F929F92AF9254
:10364000BF92CF92DF92EF92FF920F931F93CF938F
:10365000DF93EC01762E49015A016701780187E872
:1036600098E00E94C70ECE010E94C70E8CE798E03A
:103670000E94C70E86E598E0772011F08CE598E06F
:103680000E94C70E8EE698E00E94C70EC501B401E5
:103690000E94571781E698E00E94C70EC701B60145
:1036A0000E945717DF91CF911F910F91FF90EF90DC
:1036B000DF90CF90BF90AF909F908F907F900C94B1
:1036C0000C18EF92FF920F931F93CF937C018B0105
:1036D000C42F8FEB97E00E94C70EC7010E94C70E50
:1036E00083EB97E00E94C70EC8010E94C70E88EACC
:1036F00097E00E94C70E8DE997E0CC2311F083EA92
:1037000097E00E94C70ECF911F910F91FF90EF900D
:103710000C940C18CF92DF92EF92FF920F931F93AD
:10372000CF93DF938C01EB0169017A0183E897E085
:103730000E94C70EC8010E94C70E87E797E00E944B
:10374000C70ECE010E94C70E8CE697E00E94C70EFE
:10375000C701B6010E945717DF91CF911F910F91BA
:10376000FF90EF90DF90CF900C940C18009711F021
:103770000C94061790E080E00895EF92FF920F936B
:103780001F93CF93DF93C0911D04D0911E04882313
:1037900021F0C0911F04D0912004209709F46EC03D
:1037A000613009F465C008F460C0623009F463C098
:1037B00095E8E92E9CE0F92E811104C08EE8E82EF0
:1037C0008CE0F82E86EF9CE00E94C70EC7010E9495
:1037D000C70E8DEE9CE00E94C70E8C810E945A1786
:1037E00082ED9CE00E94C70EC8010E94C70E8DEBBF
:1037F0009CE00E94C70E6A8D7B8D8C8D9D8D009103
:10380000F1051091F2052091F3053091F405601B4C
:10381000710B820B930B0E9457178BEA9CE00E945E
:10382000C70E6E8D7F8D88A199A10091F105109131
:10383000F2052091F3053091F405601B710B820BAA
:10384000930B0E9457178AE99CE00E94C70ECE0195
:103850000D960E94B61B87E99CE0DF91CF911F91E6
:103860000F91FF90EF900C94911701E21DE0A0CF13
:1038700008E11DE09DCF00E11DE09ACFDF91CF91DF
:103880001F910F91FF90EF9008959091F90591117C
:1038900004C09091FA05992371F09091FB05911164
:1038A0000AC060910006882321F0813021F46091E4
:1038B00001060C94BD1B0895CF93DF93EC016E833A
:1038C0008FE197E00E94C70E8F8198850E94B61BFA
:1038D00086E197E00E94C70E8C81082E000C990BA0
:1038E0000E9461178CE097E00E94C70E8E818111C3
:1038F0000AC08AEF96E00E94C70E89E097E0DF9148
:10390000CF910C94911783E097E0F5CF60E0809120
:103910000C0290910D020E945C1C60E080910E02EE
:1039200090910F020E945C1C60E0809110029091C7
:1039300011020E945C1C60E08091120290911302BF
:103940000E945C1C60E080911402909115020E941C
:103950005C1C60E080911602909117020E945C1C32
:1039600060E080911802909119020E945C1C809185
:103970001A0290911B02009719F060E00E945C1CF3
:1039800060E080911C0290911D020C94BF171F9360
:10399000CF93DF93EC01162F8E81882321F060E016
:1039A000CE010E945C1C8D81813021F460E08C810D
:1039B0000E945C091C836D81812F0E948A098D8180
:1039C000813021F460E08C810E945C0982E597E0FF
:1039D0000E94C70E8F8198850E94B61B89E397E0ED
:1039E0000E94C70E8C81082E000C990B0E94611753
:1039F000DF91CF911F910C940C18CF93DF93EC01C2
:103A00000E94C71C8C810E94330921E0892B09F494
:103A100020E02A878C810E94330921E0892B09F458
:103A200020E02B878C810E94330921E0892B09F447
:103A300020E02C871D8A1E8A1F8A188EDF91CF9165
:103A400008959F92AF92BF92CF92DF92EF92FF9232
:103A50000F931F93CF93DF938A01452B09F468C01E
:103A6000E9016B016596FC016081CE010E9436116F
:103A7000FC01BB24BA94892B09F0B5807601E89447
:103A8000F7F8AA24A3946701C00ED11E9924939439
:103A9000309709F44DC0AA2009F43FC084818430D6
:103AA00069F0853049F1823079F5DF010D90002011
:103AB000E9F71197CD018E1B9F0B07C00190F08194
:103AC000E02D90E080E0309781F79F77E816F906C7
:103AD00021F5D801AC15BD05E1F46B2DCE01DF91C8
:103AE000CF911F910F91FF90EF90DF90CF90BF90FB
:103AF000AF909F900C943611A081B181FD01349656
:103B000013968C9190E0E2CF90E080E0F0E0E0E06E
:103B1000DDCF9D9181919817E9F2A9246B2DCE01FB
:103B20000E943611FC01892B09F4B2CFB580B0CFC9
:103B300090E080E0DF91CF911F910F91FF90EF9087
:103B4000DF90CF90BF90AF909F900895FC012081AF
:103B50003181C9014A964281538164817581009700
:103B600059F0D9015E96EC91E03211F090E080E0DE
:103B7000009711F00C94211D90E080E00895CF9300
:103B8000DF93EB010E94A61D009741F0FC01248108
:103B9000263021F48081DF91CF9108958881FBCF79
:103BA000CF92DF92EF92FF92CF93DF9300D01F92DC
:103BB0001F92CDB7DEB70E94A61DDC01892B09F448
:103BC00046C01496EC911497E250ED3008F03FC0D7
:103BD000F0E08827E151F24E8F4F0C94EF40161E13
:103BE000271E291E2C1EFC1D271E271E271E0A1EEF
:103BF000271E0A1E271E301ECC908C2D0F900F9072
:103C00000F900F900F90DF91CF91FF90EF90DF908A
:103C1000CF900895CD90DD90ED90FC908FEFC81679
:103C2000D104E104F10449F340F311C0CD010E9435
:103C30002F133A834B835C836D83CA80DB80EC80D7
:103C4000FD80223059F3233049F3213069F0C12C33
:103C5000D4CF8D919C91EBCF8D919C910496E7CF21
:103C6000CD90DD90ED90FC9020E030E0A901C701FF
:103C7000B6010E94EA4087FDEACF20E030E04FE73E
:103C800053E4C701B6010E944E3E181604F3C70163
:103C9000B6010E94BB40C62EB0CFCF92DF92EF920A
:103CA000FF92CF93DF9300D01F921F92CDB7DEB764
:103CB0000E94A61DDC01892B09F44BC01496EC91DF
:103CC0001497E250ED3008F044C0F0E08827E45942
:103CD000F14E8F4F0C94EF40981EA91EAD1EB01EE2
:103CE000791EA91EA91EA91E891EA91E8E1EA91E07
:103CF000B41E6C9170E090E080E00F900F900F90F8
:103D00000F900F90DF91CF91FF90EF90DF90CF90C9
:103D100008956D917D918D919C91EFCF8D919D91A5
:103D20000D90BC91A02DB7FD14C0BC01CD01E5CF15
:103D3000CD010E942F133A834B835C836D83CA802D
:103D4000DB80EC80FD80223059F1233059F12130A5
:103D500079F060E070E0CB01D0CF8D919C91E9CFFC
:103D60008D919C910496E5CFCD90DD90ED90FC90E7
:103D700020E030E0A901C701B6010E94EA4087FDBA
:103D8000E8CF2FEF3FEF4FE75FE4C701B6010E9496
:103D90004E3E1816F4F2C701B6010E94BB40ADCFEB
:103DA000F7FCD7CFC701B601A8CF8F929F92AF92F1
:103DB000BF92CF92DF92EF92FF920F931F93CF9318
:103DC000DF9300D000D0CDB7DEB749015A016701BB
:103DD0007801FB0101900020E9F73197E61BF70B12
:103DE0009A8389837C836B83ED838F2F8F778E8378
:103DF000CE0101960E94A61D0097B9F0FC01248116
:103E00002A3041F02C3089F480819181A281B381E4
:103E1000B7FD0BC0CE0101960E944D1E8616970677
:103E2000A806B90610F44B015C01C501B401C61621
:103E3000D706E806F90610F4C701B60126960FB6B4
:103E4000F894DEBF0FBECDBFDF91CF911F910F91D0
:103E5000FF90EF90DF90CF90BF90AF909F908F90AA
:103E60000895CF92DF92EF92FF92CF93DF9300D02D
:103E70001F921F92CDB7DEB70E94A61DDC01892BD1
:103E800009F448C01496EC911497E250ED3008F014
:103E900041C0F0E08827E05BF04E8F4F0C94EF407C
:103EA0008D1F8A1F9F1FA21F5D1F8A1F8A1F8A1FC7
:103EB0006C1F8A1F791F8A1FA61F6C9170E0CB01AF
:103EC0000F900F900F900F900F90DF91CF91FF9078
:103ED000EF90DF90CF9008958D919D910D90BC91C2
:103EE000A02D811520E89207A105B10598F4BC0129
:103EF000E6CF8D919D910D90BC91A02D6C017D011F
:103F000020E8D20EE11CF11CC114D10421E0E2062C
:103F1000F10468F370E060E0D2CFCD010E942F136E
:103F20003A834B835C836D83CA80DB80EC80FD80A9
:103F3000223049F1233099F1213061F70BC08D9186
:103F40009C91ECCF8D919C910496E8CFCD90DD9023
:103F5000ED90FC9020E030E040E057ECC701B60166
:103F60000E94EA4087FDD6CF20E03EEF4FEF56E4B7
:103F7000C701B6010E944E3E181664F2C701B60191
:103F80000E94B4409CCFD701C6019058AF4FBF4F9D
:103F90000097A140B10508F0BDCFB60190CFC11484
:103FA00080E8D806E104F104C0F3B4CF0F931F9367
:103FB000CF93DF93EC018B010E94A61DFC01892B9E
:103FC00029F084818A3051F08C30C1F0F801808171
:103FD0009181DF91CF911F910F91089580819181FF
:103FE000A281B38181159048A105B10578F7CE0172
:103FF000DF91CF911F910F910C94311F808191819E
:10400000A281B3819058AF4FBF4F0097A140B10537
:10401000E8F6EDCF4F925F926F927F92AF92BF9290
:10402000CF92DF92EF92FF920F931F93CF93DF9384
:104030009091F905911105C09091FA05992309F421
:10404000E6C09091FB059111E2C0823008F0DFC01C
:104050008093020681110AC0E0911D04F0911E04B4
:10406000309759F481E080930006D1C0E0911F049D
:10407000F0912004309709F483C09089992309F4C2
:104080007CC0018912892389348904171507260702
:10409000370708F47EC0882309F4C8C082E0809303
:1040A0000106B5C08F898F5F8F8B9D89891708F4B2
:1040B000A9C08FA5843658F40E94F63DA301920151
:1040C0000E94723F8FA5681710F01F8A9BC01F8A3D
:1040D000888D882351F09D899501281B31099217FD
:1040E000130609F05CF4890F8D8B8B89823008F000
:1040F00089C0B701A6010E94C61984C08FE292E070
:104100000E94C70E8D890E945A178CE292E00E948D
:104110009117EBCFCD8EDE8EEF8EF8A273C08DA5FA
:10412000811170C089A19AA1ABA1BCA1A701960180
:10413000281B390B4A0B5B0BDA01C901B7FD62C0C2
:104140008DA19EA1AFA1B8A58C199D09AE09BF098B
:10415000181619061A061B060CF054C08FA58436D3
:1041600010F00DA7C2CF0E94F63DA30192010E945C
:10417000723F8FA56817A8F345C0882309F472CF52
:1041800081E08DCF10920006E0911D04F0911E0495
:1041900008C08823B9F310920106E0911F04F09142
:1041A0002004309781F00091F5051091F6052091DB
:1041B000F7053091F805040F151F261F371F018BD7
:1041C000128B238B348B6A017B01182FCDE1D4E055
:1041D000AA24AA94B12C94E6492E512C612C712C5E
:1041E00001E08C89882371F08EA5893011F01813B5
:1041F00009C08A89813009F48DCF08F453CF823009
:1042000009F48DCF6E9634E0C935D30751F7DF91AD
:10421000CF911F910F91FF90EF90DF90CF90BF90C3
:10422000AF907F906F905F904F90089582E01BCF8A
:10423000BF92CF92DF92EF92FF920F931F93CF9393
:10424000DF93EC01198D1F3F81F0612F45960E948D
:104250003611FC018081898F309709F477C0148270
:104260008FEF8583BF01812F76C06C0135E0C30ECF
:10427000D11CE880F9808F89882341F0C6010E9413
:10428000C811E62FF72F182F309749F71F89988DFF
:10429000191324C0103109F459C0110F6D897E899A
:1042A000D701ED91FC91B4E01B9FA0011124C6162B
:1042B000D70609F044C00190F081E02DBA01C70192
:1042C0001995009709F442C020E1F601DC01019044
:1042D0000D922A95E1F79E8B8D8B188F0D891E8983
:1042E0008F8921E0280F2F8BE4E08E9FC0011124DD
:1042F000080F191F90E1B92E203111F48FE0B82E6C
:10430000F6E0BF9EB0011124D701ED91FC91019020
:10431000F081E02DC7011995F80193838283892BE1
:1043200009F4B12CD801BC9211961C92012B71F0AA
:10433000C6010E94C811E62FF72F182F8DCF0480D9
:10434000F581E02DC7011995009729F681E08A8350
:1043500060E070E08FEFDF91CF911F910F91FF90A0
:10436000EF90DF90CF90BF9008954F925F926F9241
:104370007F928F929F92AF92BF92CF92DF92EF92F5
:10438000FF920F931F93CF93DF9300D01F921F9242
:10439000CDB7DEB78C017B01B42E0E94A6116C0153
:1043A000892B09F048C0C8010E946211863609F4C1
:1043B000A9C124F5873229F08B3561F1823209F0E9
:1043C000A8C1D80115961C921E92149712968D9131
:1043D0009C911397892B39F48D919C910E949B0796
:1043E000F80193838283C8010E9404156C01892B14
:1043F00011F5B701C8010E94E3151DC0843709F407
:1044000060C18B3709F47BC08E3609F082C160EC45
:1044100072E060C180E4D70114968C931497E11484
:10442000F10421F08FEF8C9311968C93B1101AC088
:1044300025E0C22ED12CC6010F900F900F900F9047
:104440000F90DF91CF911F910F91FF90EF90DF9030
:10445000CF90BF90AF909F908F907F906F905F9024
:104460004F900895F8011286C8010E94A611009786
:1044700051F56DE5C8010E9472118111DCCFBA942B
:10448000D8011B966D907C90C3010E941821A82E24
:104490004B01672B21F494E0C92ED12CCCCFF7012E
:1044A00061816F3F91F0C30145960E943611DC0196
:1044B0001596AC92F701A1824B2DB401C8010E9460
:1044C000B521009739F06C01B6CFD7018C931196C6
:1044D0008C93F2CFC8010E94A6110097A1F76DE559
:1044E000C8010E9472118111A6CF6CE2C8010E941E
:1044F00072118111C5CF83E0C82ED12C9CCF80E2F0
:10450000F7018483E114F10419F08FEF8083818334
:10451000BB2009F48DCFD8011A961C92C8010E94C5
:10452000A611009781F66DE7C8010E9472118111F2
:1045300082CFBA94F8011582148282819381892BEB
:1045400049F4808191810E949B07D80113969C9326
:104550008E931297C8010E9462118732F9F082325D
:10456000E9F0C8010E946211D82E0E9450118823E0
:1045700011F2F80112866D2DC8010E94D614C801EF
:104580000E946211D82E0E9450118111F2CFD801E1
:1045900012968D919C91892B41F47DCFC8010E9488
:1045A00004156C01892B09F046CFC8010E94A611A1
:1045B0006C01892B09F03FCF6AE3C8010E94721198
:1045C000882309F498CFD8011296ED91FC911397A6
:1045D00014968D919C911597E80FF91F14821496EB
:1045E0006D917C9115977F771B966D907C901C97B1
:1045F00012968D919C910496272F2F77BA2DB07823
:10460000AB2EA22AE894A7F89301AC017A2DC7013A
:104610000E94211D6C01009761F5C3010E941821C1
:10462000482E4B01672B09F436CFC3010E94182195
:10463000582E962FC92ED72EC114D10409F42BCF92
:10464000F4015582D70111966C916F3F71F0C3014F
:1046500045960E943611FC014582D70111965C9265
:10466000B401C8010E94E31507C0F70140825182DE
:10467000F7CFB3010E9480164B2DB601C8010E94EE
:10468000B5216C01892B09F0D6CEC8010E94A61174
:104690006C01892B09F0CFCE6DE7C8010E94721121
:1046A0008111C9CE6CE2C8010E947211882309F4FD
:1046B00022CFC8010E94A6116C01892B09F43ACFC0
:1046C000BACE86E0D70114968C93149781E08C9330
:1046D00065EB72E0C8010F900F900F900F900F9054
:1046E000DF91CF911F910F91FF90EF90DF90CF90CE
:1046F000BF90AF909F908F907F906F905F904F9002
:104700000C94831186E0F701848310826AEB72E0D7
:10471000E1CFC8010E9462114801FDE08F0E911C9B
:10472000B12C782CA92C803384F08A3384F43FE3B5
:10473000B316A9F0D8011A961C92B394F401819390
:104740004F01C8010E946211EECF8B3281F393EDCD
:10475000980F923060F3982F9F7D953441F30B0DA5
:10476000111DD8011D961C92872D9A2D0E942F1382
:104770003A834B835C836D838A819B81AC81BD814D
:104780002230A9F0233059F0213009F0B4CE2EE0C8
:10479000F701248380839183A283B3834CCE2AE0E4
:1047A000F701248380839183A283B38344CE2CE0DA
:1047B000F7CF4F925F926F927F928F929F92AF92BC
:1047C000BF92CF92DF92EF92FF920F931F93CF93FE
:1047D000DF93CDB7DEB7CF5ED1090FB6F894DEBF59
:1047E0000FBECDBF6E012EECC20ED11C86E092E052
:1047F000F60191838083128214821382C60105968A
:10480000968B858B178A84E0808F8FEF818F168E31
:10481000878F9E012F5F3F4F790110E000E00E94DB
:10482000200A60938403709385038093860390939A
:1048300087038CE793E00E94200E97FD02C00C9442
:10484000B6320E94200A8090840390908503A09045
:104850008603B0908703681979098A099B098090BB
:10486000800390908103A0908203B0908303681529
:1048700079058A059B05E8F20F37110561F48CE78D
:1048800093E00E94420E892B31F08CE793E00E9466
:10489000200E0A97A1F7E1E0F0E0EC0FFD1FE00F1A
:1048A000F11F10820530110578F045E050E065EC0D
:1048B00072E0CE0101960E94FD42892B29F489E520
:1048C00099E00E949117C0C5F60160817181C6010F
:1048D00005960E94F411F601128200811181F60101
:1048E00083819481009751F0FC0120813181F60190
:1048F00034832383B8010E947616F1CF168ECF57EA
:10490000DF4FD982C882C158D040CD57DF4F1982BE
:104910001882C358D040CB57DF4F19821882C55830
:10492000D040C957DF4F1882C758D04021E030E04F
:104930002C0F3D1FC857DF4F39832883C858D040FC
:10494000C557DF4F1882CB58D040C457DF4FD982AC
:10495000C882CC58D0404AE0B601665E7F4FCE0197
:104960008F579F4F0E94B5218C01892B69F4C65740
:10497000DF4F8881CA58D040882331F0F601868DF8
:1049800083FF02C003E010E0CD57DF4F888199819B
:10499000C358D040009751F0CF57DF4FE881F981DD
:1049A000C158D040608171810E94761601151105B1
:1049B000F1F082EE96E00E94C70EF801EE0FFF1FA5
:1049C000E959FA4F859194910E94C70E8FED96E0B8
:1049D0000E9491178CE793E00E94420E1816190668
:1049E0000CF032C58CE793E00E94200EF3CFCF5736
:1049F000DF4FD982C882C158D0408BEC92E0CD57AE
:104A0000DF4F99838883C358D04083E0CB57DF4F73
:104A10008883C558D040CA57DF4F1881C658D04048
:104A200010781068CA57DF4F1883C658D040CE019F
:104A30008F579F4F0E94A61D009709F405C5FC01E2
:104A40008481882309F400C51068CA57DF4F188392
:104A5000C658D040CE018F579F4F0E94311F8C0106
:104A6000893DF1E09F0709F488C00CF035C1883713
:104A700031E0930709F47BC60CF084C08733914082
:104A800009F470C5083381E018070CF040C00D32FE
:104A900091E0190709F485C45CF560E00C32F1E09F
:104AA0001F0709F47FC40C3AF2E01F0709F429C775
:104AB0000CF074C3093731E0130709F431C30CF06B
:104AC000B2C20736110511F40C94E42F0CF050C259
:104AD0000536110511F40C948C2D14F00C94D82F7C
:104AE0000436110511F40C94402F83E795E0E9CECC
:104AF0000F3221E0120709F411C560E0063331E0FE
:104B0000130789F680911202909113024FC4033764
:104B100041E0140709F44DC434F5093381E0180766
:104B200011F600911202109113020E94200AF8015E
:104B3000618B728B838B948B85849684A784B088D9
:104B4000DC01CB01880D991DAA1DBB1D858B968BA1
:104B5000A78BB08F81E080A340E155E066E175E06E
:104B60008BE195E0FCC4043791E0190709F487C490
:104B70000537E1E01E0709F096CF083D114009F422
:104B80007DC062C48139F1E09F0709F40BC5CCF503
:104B90008E3731E0930709F4E7C41CF58D37914057
:104BA00009F081CFEE24EA94FE2C00E010E021E031
:104BB00030E040E050E06FEC72E0C6010E94D51E8C
:104BC0009B01AC01E0911202F09113022187328720
:104BD000438754876EE275E088E395E00E948A1B64
:104BE00033C4023881E0180709F4D6C560E0003903
:104BF00091E0190709F057CF8091140290911502A6
:104C0000D5C38B39E1E09E0709F4F0C47CF4833905
:104C100021E0920709F4C8C460E08A39914009F0A4
:104C200042CF8091160290911702C0C38D3941E0A6
:104C3000940709F4FDC4883D914009F034CF10EC8D
:104C4000E12E17E2F12E09E010E021E030E040E033
:104C500050E069ED72E0C6010E94D51E9B01AC01D7
:104C6000E0911402F091150221873287438754871F
:104C700062E075E08BE095E00E948A1BCF57DF4F22
:104C8000D982C882C158D04089ED92E0CD57DF4F1C
:104C900099838883C358D04088E0CB57DF4F8883FF
:104CA000C558D040CA57DF4F8881C658D040807859
:104CB0008068CA57DF4F8883C658D040CE018F57CF
:104CC0009F4F0E944D1E6093A7067093A806809385
:104CD000A9069093AA061FC40F3982E0180709F4A9
:104CE000DDC40CF088C0053FE1E01E0709F4C2C432
:104CF00074F5023E21E0120709F47AC4C4F40C3DB5
:104D000041E0140709F0CFCE15E3E12EF12C00E0CD
:104D100010E022E030E040E050E062EE72E0C601D8
:104D20000E94D51E809114029091150232C5063E54
:104D300051E0150709F443C560E0043F81E018071E
:104D400009F0B1CE80911802909119022FC3083555
:104D500092E0190709F499C4C4F40034F2E01F0783
:104D600009F0A1CE15E3E12EF12C00E010E022E0E5
:104D700030E040E050E062EE72E0C6010E94D51ED5
:104D8000809118029091190204C5093522E012079A
:104D900009F472C40B3532E0130709F084CE009198
:104DA0001A0210911B020115110509F44DC30E944E
:104DB000200AAB01BC01F801458B568B678B708FC5
:104DC00085859685A785B089840F951FA61FB71F77
:104DD000818F928FA38FB48FFF24F394F6A2C80122
:104DE0000E94F10FF801F0A641EC54E067EC74E08A
:104DF0008CEC94E0B4C3043843E0140709F4B5C460
:104E00000CF075C0043A82E0180709F4EBC40CF00A
:104E100054C0003AE2E01E0709F045CE10ECE12E46
:104E200017E2F12E09E010E021E030E040E050E030
:104E300069ED72E0C6010E94D51E9B01AC01E091B4
:104E40001A02F0911B02309751F025873687478769
:104E5000508B62EA74E08BEA94E00E948A1BCF5781
:104E6000DF4FD982C882C158D04089ED92E0CD573A
:104E7000DF4F99838883C358D04088E0CB57DF4FFA
:104E80008883C558D040CA57DF4F8881C658D04064
:104E900080788068CA57DF4F8883C658D040CE01DB
:104EA0008F579F4F0E944D1E60935C0670935D0666
:104EB00080935E0690935F062EC3093AF2E01F07C7
:104EC00009F439C40A3A22E0120709F0ECCDE09166
:104ED0001A02F0911B02309709F4B6C281E085A353
:104EE00045E754E061E874E086E894E038C3003DAB
:104EF00033E0130709F490C4BCF4053853E01507F8
:104F000009F42BC4073883E0180709F0CCCD809151
:104F10001C0290911D020E94DF0F4FE554E065E6F0
:104F200074E08AE694E01BC3043394E0190709F4A3
:104F3000A5C40036E5E01E0709F0B5CD80910E024C
:104F400090910F02892B09F47FC215E3E12EF12C19
:104F500000E010E022E030E040E050E062EE72E07D
:104F6000C6010E94D51E80910E0290910F029FC42F
:104F70000936110511F40C949F3014F40C9402308E
:104F8000093C110509F476C50D3D110509F0ADCDBB
:104F9000C251DF4F1882CE5ED040CF57DF4FD9824B
:104FA000C882C158D0408AEF92E0CD57DF4F998335
:104FB0008883C358D04085E0CB57DF4F8883C558DE
:104FC000D040CA57DF4F8881C658D040807880686B
:104FD000CA57DF4F8883C658D040BE0162517F4F09
:104FE000CE018F579F4F0E94BF1D182F8BE796E071
:104FF000111102C081E996E090930A0280930902A0
:1050000086E0111101C085E080930B020E943912E5
:1050100041E256E0111102C04CE156E067E276E051
:1050200083E396E09CC20D3D51E0150709F478C07A
:105030000CF061C0033891E0190709F471C004381D
:10504000E1E01E0729F00A37F1E01F0709F04DCD16
:10505000C251DF4F19821882CE5ED040CF57DF4F4A
:10506000D982C882C158D0408EE093E0CD57DF4F3F
:1050700099838883C358D04086E0CB57DF4F88831D
:10508000C558D040CA57DF4F8881C658D040807875
:105090008068CA57DF4F8883C658D040BE0162512E
:1050A0007F4FCE018F579F4F0E94D61F5C01F12C7E
:1050B000019741F089E0F82E42E0A416B10411F402
:1050C000FF24F3940A3751E0150711F00C949B313B
:1050D000F09203020E943912F1E0FF120C94B431F5
:1050E000F09205079501BB0C440B550B69EB75E07D
:1050F00086EC95E073CD073E21E0120789F034F489
:105100000E3D41E0140709F4A3CFEFCC083E51E077
:10511000150709F49DCF013A82E0180709F0E5CCA4
:10512000CF57DF4FD982C882C158D04086EE92E077
:10513000CD57DF4F99838883C358D04085E0CB5744
:10514000DF4F8883C558D040CA57DF4F8881C65883
:10515000D04080788068CA57DF4F8883C658D040D7
:10516000CE018F579F4F0E944D1E613C27E2720770
:1051700029E08207910520F060EC77E289E090E079
:10518000013A32E0130709F095C360934206709329
:1051900043068093440690934506BDC10D3494E0C8
:1051A000190711F40C94BC310CF084C00233F4E004
:1051B0001F0709F4B2C3A4F4083E33E0130709F44F
:1051C000AAC3093E43E0140709F4A1C30D3A1240F3
:1051D00009F08BCC81E08093490380933C039BC111
:1051E000083384E0180709F4E1C30CF056C0033318
:1051F000144009F07ACCCF57DF4FD982C882C1580A
:10520000D04044EFE42E42E0F42ECD57DF4FF98238
:10521000E882C358D04015E0CB57DF4F1883C558FC
:10522000D040CA57DF4F8881C658D0408078806808
:10523000CA57DF4F8883C658D040CE018F579F4F43
:105240000E94D01D0E94AB08CF57DF4FD982C88281
:10525000C158D040CD57DF4FF982E882C358D040C3
:10526000CB57DF4F1883C558D040CA57DF4F8881CE
:10527000C658D04080788068CA57DF4F8883C658A8
:10528000D040CE018F579F4F0E944D1E9B01AC0115
:105290006FEB76E085EC96E0A1CC0933F4E01F07D4
:1052A00009F473C380E00C34144009F01ECC0E9452
:1052B0009F17CAC0053135E0130709F47FC3BCF45A
:1052C0000F3454E0150711F40C94813214F40C944B
:1052D0004C32083994E0190711F40C94BF3160E0A6
:1052E0000431154009F001CC85EF96E05FC00F3521
:1052F000F5E01F0709F464C3E4F50E35154009F025
:10530000F4CBCF57DF4FD982C882C158D0408CEE42
:1053100092E0CD57DF4F99838883C358D04087E010
:10532000CB57DF4F8883C558D040CA57DF4F88819D
:10533000C658D04080788068CA57DF4F8883C658E7
:10534000D040CE018F579F4F0E944D1E4B015C01F4
:1053500080926A0390926B03A0926C03B0926D03EB
:105360000E947E08A501940166E876E08EE896E04A
:1053700035CC043645E0140709F474C305361540EE
:1053800009F0B3CB81E08093050785EF96E0909319
:1053900005028093040241E063E676E08EE696E043
:1053A00002C361E080911002909111020E945C1C86
:1053B0004BC0EE24EA94FE2C00E010E021E030E047
:1053C00040E050E06FEC72E0C6010E94D51E9B01E8
:1053D000AC01E0911002F0911102218732874387DE
:1053E000548769E575E083E695E00E948A1BCF57F4
:1053F000DF4FD982C882C158D0408FEC92E0CD57A0
:10540000DF4F99838883C358D04089E0CB57DF4F63
:105410008883C558D040CA57DF4F8881C658D040CE
:1054200080788068CA57DF4F8883C658D040CE0145
:105430008F579F4F0E944D1E6093ED067093EE06AE
:105440008093EF069093F006C6010E94E816C151C2
:10545000DF4F0FB6F894DEBF0FBECDBFDF91CF9107
:105460001F910F91FF90EF90DF90CF90BF90AF9082
:105470009F908F907F906F905F904F90089510EC69
:10548000E12E17E2F12E09E010E021E030E040E0EB
:1054900050E069ED72E0C6010E94D51E9B01AC018F
:1054A000E0911002F0911102258736874787508BD3
:1054B0006CE475E085E595E00E948A1BCF57DF4FCD
:1054C000D982C882C158D04089ED92E0CD57DF4FD4
:1054D00099838883C358D04088E0CB57DF4F8883B7
:1054E000C558D040CA57DF4F8881C658D040807811
:1054F0008068CA57DF4F8883C658D040CE018F5787
:105500009F4F0E944D1E6093F1067093F2068093A8
:10551000F3069093F4060E94391296CF0091100280
:10552000109111020E94200AF801618B728B838B0B
:10553000948B85849684A784B088DC01CB01880D88
:10554000991DAA1DBB1D858B968BA78BB08F81E003
:1055500080A34DE355E063E475E088E495E00E94A4
:10556000E41772CF61E0CECA10ECE12E17E2F12E03
:1055700009E010E021E030E040E050E069ED72E049
:10558000C6010E94D51E9B01AC01E0911202F09170
:105590001302258736874787508B60E275E089E2E2
:1055A00095E01CCB61E028CB00911402109115020C
:1055B0000E94200AF801658776878787908B81840F
:1055C0009284A384B484DC01CB01880D991DAA1DAB
:1055D000BB1D818B928BA38BB48B81E0858B42EFBB
:1055E00054E068EF74E08DEF94E0B9CF61E019CB3F
:1055F00010ECE12E17E2F12E09E010E021E030E09E
:1056000040E050E069ED72E0C6010E94D51E9B01AA
:10561000AC01E0911602F09117022187328743878F
:10562000548763EE74E08CEE94E00E948A1B73CF83
:1056300000911602109117020E94200AF801658756
:1056400076878787908B81849284A384B484DC01DD
:10565000CB01880D991DAA1DBB1D818B928BA38B3D
:10566000B48B81E0858B42ED54E068ED74E08DED04
:1056700094E075CF61E066CB80911A0290911B0295
:1056800061E0009709F092CEDFCE80911A029091EE
:105690001B0260E0009709F089CED6CEEE24EA9492
:1056A000FE2C00E010E021E030E040E050E06FEC44
:1056B00072E0C6010E94D51E9B01AC01E0911A0266
:1056C000F0911B02309779F0211531054105510504
:1056D00021F0218732874387548761EB74E08BEB9D
:1056E00094E00E948A1BCF57DF4FD982C882C158ED
:1056F000D0408FEC92E0CD57DF4F99838883C35819
:10570000D04089E0CB57DF4F8883C558D040CA5777
:10571000DF4F8881C658D04080788068CA57DF4FF5
:105720008883C658D040CE018F579F4F0E94D01D0E
:1057300080935B0689CEE0911A02F0911B023097AC
:1057400049F015A24CE854E067E974E08CE994E074
:105750000E94E41710924903DECE61E080911C02A2
:1057600090911D020E94BF176FCE60E0F7CF15E346
:10577000E12EF12C00E010E022E030E040E050E0CB
:1057800062EE72E0C6010E94D51E809110029091D7
:1057900011020E94C71C58CE15E3E12EF12C00E047
:1057A00010E022E030E040E050E062EE72E0C6013E
:1057B0000E94D51E8091120290911302EACF15E348
:1057C000E12EF12C00E010E022E030E040E050E07B
:1057D00062EE72E0C6010E94D51E80911602909181
:1057E0001702D7CF80911A0290911B02892B09F4DE
:1057F0002BCE15E3E12EF12C00E010E022E030E0AA
:1058000040E050E062EE72E0C6010E94D51E809139
:105810001A0290911B02BDCF15E3E12EF12C00E09E
:1058200010E022E030E040E050E062EE72E0C601BD
:105830000E94D51EF62E00911C0210911D02F80147
:105840008585882331F060E080810E945C09F80141
:105850001586F801F08261E08F2D0E948A0960E0D0
:10586000F80180810E945C098BE194E00E94C70EE0
:10587000F8018081082E000C990BC9C580910C029B
:1058800090910D02892B09F4DFCD15E3E12EF12C67
:1058900000E010E022E030E040E050E062EE72E034
:1058A000C6010E94D51E80910C0290910D020E94AB
:1058B000FD1CCACD093741E0140749F46093450344
:1058C00070934603809347039093480324CE033894
:1058D00051E0150709F4B8CD0D3D114049F460932E
:1058E000410370934203809343039093440313CE88
:1058F00060933D0370933E0380933F039093400376
:105900000ACE81E08093490310923C0304CE61E00B
:105910008BE197E04BCD60E0FBCFCF57DF4FD982D3
:10592000C882C158D0408CEE92E0CD57DF4F9983AA
:105930008883C358D04087E0CB57DF4F8883C55852
:10594000D040CA57DF4F8881C658D04080788068E1
:10595000CA57DF4F8883C658D040CE018F579F4F1C
:105960000E944D1E4B015C0180926A0390926B0372
:10597000A0926C03B0926D030E947E08A501940171
:105980006EEC76E086ED96E029C981E080932B07E6
:105990008BE197E0909305028093040241E06BEA6B
:1059A00076E086EB96E00E94611B4ECD10922B07AD
:1059B00040E067E976E082EA96E0F5CF61E094CCDA
:1059C000CF57DF4FD982C882C158D04034EFE32E81
:1059D00032E0F32ECD57DF4FF982E882C358D04032
:1059E00015E0CB57DF4F1883C558D040CA57DF4F5B
:1059F0008881C658D04080788068CA57DF4F888336
:105A0000C658D040CE018F579F4F0E94D01D0E9494
:105A1000AB08CF57DF4FD982C882C158D040CD578D
:105A2000DF4FF982E882C358D040CB57DF4F18834D
:105A3000C558D040CA57DF4F8881C658D0408078BB
:105A40008068CA57DF4F8883C658D040CE018F5731
:105A50009F4F0E944D1E9B01AC0167E776E08DE7EA
:105A600096E0BCC81092050740E06FE476E08AE556
:105A700096E099CFCF57DF4FD982C882C158D04026
:105A800024EFE22E22E0F22ECD57DF4FF982E8829A
:105A9000C358D04015E0CB57DF4F1883C558D040CE
:105AA000CA57DF4F8881C658D04080788068CA576F
:105AB000DF4F8883C658D040CE018F579F4F0E943A
:105AC000D01D0E94AB08CF57DF4FD982C882C15882
:105AD000D040CD57DF4FF982E882C358D040CB5732
